{"abi":[{"type":"constructor","inputs":[{"name":"iERC721CreatorImplementations","type":"address[]","internalType":"address[]"}],"stateMutability":"nonpayable"},{"type":"function","name":"overrideCreator","inputs":[{"name":"oldCreatorAddress","type":"address","internalType":"address"},{"name":"newCreatorAddress","type":"address","internalType":"address"}],"outputs":[],"stateMutability":"nonpayable"},{"type":"function","name":"owner","inputs":[],"outputs":[{"name":"","type":"address","internalType":"address"}],"stateMutability":"view"},{"type":"function","name":"renounceOwnership","inputs":[],"outputs":[],"stateMutability":"nonpayable"},{"type":"function","name":"setIERC721Creator","inputs":[{"name":"contractAddress","type":"address","internalType":"address"}],"outputs":[],"stateMutability":"nonpayable"},{"type":"function","name":"tokenCreator","inputs":[{"name":"_contractAddress","type":"address","internalType":"address"},{"name":"_tokenId","type":"uint256","internalType":"uint256"}],"outputs":[{"name":"","type":"address","internalType":"address payable"}],"stateMutability":"view"},{"type":"function","name":"transferOwnership","inputs":[{"name":"newOwner","type":"address","internalType":"address"}],"outputs":[],"stateMutability":"nonpayable"},{"type":"event","name":"CreatorOverrideCreated","inputs":[{"name":"from","type":"address","indexed":true,"internalType":"address"},{"name":"to","type":"address","indexed":true,"internalType":"address"}],"anonymous":false},{"type":"event","name":"OwnershipTransferred","inputs":[{"name":"previousOwner","type":"address","indexed":true,"internalType":"address"},{"name":"newOwner","type":"address","indexed":true,"internalType":"address"}],"anonymous":false}],"bytecode":{"object":"0x608060405234610200576109ff8038038061001981610218565b928339810190602081830312610200578051906001600160401b038211610200570181601f82011215610200578051916001600160401b038311610204578260051b9160208061006a818601610218565b80968152019382010191821161020057602001915b8183106101e0575f8054336001600160a01b0319821681178355604051879390926001600160a01b0316907f8be0079c531659141344cd1fd0a4f28419497f9722a3daafe3b4186f6b6457e09080a36103e88251101561016c57505f5b81519060ff81169182101561015d5760ff916001600160a01b03610100828661023d565b511661012d575b501660ff8114610119576001016100dc565b634e487b7160e01b5f52601160045260245ffd5b6001600160a01b0390610140908561023d565b51165f52600160205260405f206001831982541617905583610107565b60405161079990816102668239f35b62461bcd60e51b815260206004820152604360248201527f636f6e7374727563746f723a3a43616e6e6f74206d61726b206d6f726520746860448201527f616e2031303030206164647265737365732061732049455243373231437265616064820152623a37b960e91b608482015260a490fd5b82516001600160a01b03811681036102005781526020928301920161007f565b5f80fd5b634e487b7160e01b5f52604160045260245ffd5b6040519190601f01601f191682016001600160401b0381118382101761020457604052565b80518210156102515760209160051b010190565b634e487b7160e01b5f52603260045260245ffdfe60806040526004361015610011575f80fd5b5f3560e01c80633a85757c14610074578063715018a61461006f5780638da5cb5b1461006a578063b85ed7e414610065578063e175500e146100605763f2fde38b1461005b575f80fd5b610313565b6101f5565b6101b8565b610191565b61013a565b346101255760203660031901126101255760043561009181610129565b6100996105c4565b6001600160a01b031680156100c5575f5260016020526100c360405f20600160ff19825416179055565b005b60405162461bcd60e51b815260206004820152603260248201527f7365744945524337323143726561746f723a3a5f636f6e747261637441646472604482015271195cdcc818d85b9b9bdd081899481b9d5b1b60721b6064820152608490fd5b5f80fd5b6001600160a01b0381160361012557565b34610125575f366003190112610125576101526105c4565b5f80546001600160a01b0319811682556001600160a01b03167f8be0079c531659141344cd1fd0a4f28419497f9722a3daafe3b4186f6b6457e08280a3005b34610125575f366003190112610125575f546040516001600160a01b039091168152602090f35b346101255760403660031901126101255760206101e36004356101da81610129565b6024359061043a565b6040516001600160a01b039091168152f35b346101255760403660031901126101255760043561021281610129565b60243561021e81610129565b6102266105c4565b6001600160a01b0382169081156102b4576001600160a01b0381169261028e919061026f9061025686151561055e565b6001600160a01b03165f90815260026020526040902090565b80546001600160a01b0319166001600160a01b03909216919091179055565b7fa123a18d8b26c9fe4a71a5b853d75b966847961b0e219a0a06728c20742657355f80a3005b60405162461bcd60e51b815260206004820152603160248201527f6f7665727269646543726561746f723a3a6f6c6443726561746f7241646472656044820152701cdcc818d85b9b9bdd081899481b9d5b1b607a1b6064820152608490fd5b346101255760203660031901126101255760043561033081610129565b6103386105c4565b6001600160a01b0381161561038d575f80546001600160a01b039283166001600160a01b03198216811783559216907f8be0079c531659141344cd1fd0a4f28419497f9722a3daafe3b4186f6b6457e09080a3005b60405162461bcd60e51b815260206004820152602660248201527f4f776e61626c653a206e6577206f776e657220697320746865207a65726f206160448201526564647265737360d01b6064820152608490fd5b90601f8019910116810190811067ffffffffffffffff82111761040357604052565b634e487b7160e01b5f52604160045260245ffd5b90816020910312610125575161042c81610129565b90565b6040513d5f823e3d90fd5b905f916104468161061b565b801561053d575b6104c6575b50506001600160a01b0381161561042c576001600160a01b0381165f90815260026020526040902061049c90610490905b546001600160a01b031690565b6001600160a01b031690565b6104a35790565b6001600160a01b03165f90815260026020526040902061042c9061049090610483565b604051631030681960e21b81526004810192909252909150602090829060249082906001600160a01b03165afa908115610538575f91610509575b505f80610452565b61052b915060203d602011610531575b61052381836103e1565b810190610417565b5f610501565b503d610519565b61042f565b506001600160a01b0381165f9081526001602052604090205460ff1661044d565b1561056557565b60405162461bcd60e51b815260206004820152603160248201527f6f7665727269646543726561746f723a3a6e657743726561746f7241646472656044820152701cdcc818d85b9b9bdd081899481b9d5b1b607a1b6064820152608490fd5b5f546001600160a01b031633036105d757565b606460405162461bcd60e51b815260206004820152602060248201527f4f776e61626c653a2063616c6c6572206973206e6f7420746865206f776e65726044820152fd5b60205f604051828101906301ffc9a760e01b82526301ffc9a760e01b60248201526024815261064b6044826103e1565b519084617530fa903d5f5190836106f8575b50826106ee575b5081610687575b81610674575090565b61042c9150631030681960e21b90610704565b905060205f604051828101906301ffc9a760e01b825263ffffffff60e01b6024820152602481526106b96044826103e1565b519084617530fa5f513d826106e2575b50816106d8575b50159061066b565b905015155f6106d0565b6020111591505f6106c9565b151591505f610664565b6020111592505f61065d565b5f90602092604051848101916301ffc9a760e01b835263ffffffff60e01b166024820152602481526107376044826103e1565b5191617530fa5f513d82610757575b5081610750575090565b9050151590565b6020111591505f61074656fea26469706673582212206eb78da5da79566573c5b412f283732cc872266004913b703e7067b99a02535564736f6c634300081c0033","linkReferences":{}},"methodIdentifiers":{"overrideCreator(address,address)":"e175500e","owner()":"8da5cb5b","renounceOwnership()":"715018a6","setIERC721Creator(address)":"3a85757c","tokenCreator(address,uint256)":"b85ed7e4","transferOwnership(address)":"f2fde38b"},"id":72}