{"abi":[{"type":"constructor","inputs":[],"stateMutability":"nonpayable"},{"type":"function","name":"DEFAULT_ADMIN_ROLE","inputs":[],"outputs":[{"name":"","type":"bytes32","internalType":"bytes32"}],"stateMutability":"view"},{"type":"function","name":"MANAGER_ROLE","inputs":[],"outputs":[{"name":"","type":"bytes32","internalType":"bytes32"}],"stateMutability":"view"},{"type":"function","name":"OPERATOR_ROLE","inputs":[],"outputs":[{"name":"","type":"bytes32","internalType":"bytes32"}],"stateMutability":"view"},{"type":"function","name":"batchGrantOperatorRole","inputs":[{"name":"operators","type":"address[]","internalType":"address[]"}],"outputs":[],"stateMutability":"nonpayable"},{"type":"function","name":"batchRevokeOperatorRole","inputs":[{"name":"operators","type":"address[]","internalType":"address[]"}],"outputs":[],"stateMutability":"nonpayable"},{"type":"function","name":"disable","inputs":[],"outputs":[],"stateMutability":"nonpayable"},{"type":"function","name":"disabled","inputs":[],"outputs":[{"name":"","type":"bool","internalType":"bool"}],"stateMutability":"view"},{"type":"function","name":"getRoleAdmin","inputs":[{"name":"role","type":"bytes32","internalType":"bytes32"}],"outputs":[{"name":"","type":"bytes32","internalType":"bytes32"}],"stateMutability":"view"},{"type":"function","name":"grantOperatorRole","inputs":[{"name":"operator","type":"address","internalType":"address"}],"outputs":[],"stateMutability":"nonpayable"},{"type":"function","name":"grantRole","inputs":[{"name":"role","type":"bytes32","internalType":"bytes32"},{"name":"account","type":"address","internalType":"address"}],"outputs":[],"stateMutability":"nonpayable"},{"type":"function","name":"hasRole","inputs":[{"name":"role","type":"bytes32","internalType":"bytes32"},{"name":"account","type":"address","internalType":"address"}],"outputs":[{"name":"","type":"bool","internalType":"bool"}],"stateMutability":"view"},{"type":"function","name":"renounceRole","inputs":[{"name":"role","type":"bytes32","internalType":"bytes32"},{"name":"account","type":"address","internalType":"address"}],"outputs":[],"stateMutability":"nonpayable"},{"type":"function","name":"revokeOperatorRole","inputs":[{"name":"operator","type":"address","internalType":"address"}],"outputs":[],"stateMutability":"nonpayable"},{"type":"function","name":"revokeRole","inputs":[{"name":"role","type":"bytes32","internalType":"bytes32"},{"name":"account","type":"address","internalType":"address"}],"outputs":[],"stateMutability":"nonpayable"},{"type":"function","name":"safeBatchTransferFrom","inputs":[{"name":"token","type":"address","internalType":"address"},{"name":"from","type":"address","internalType":"address"},{"name":"to","type":"address","internalType":"address"},{"name":"ids","type":"uint256[]","internalType":"uint256[]"},{"name":"amounts","type":"uint256[]","internalType":"uint256[]"},{"name":"data","type":"bytes","internalType":"bytes"}],"outputs":[],"stateMutability":"nonpayable"},{"type":"function","name":"safeTransferFrom","inputs":[{"name":"token","type":"address","internalType":"address"},{"name":"from","type":"address","internalType":"address"},{"name":"to","type":"address","internalType":"address"},{"name":"id","type":"uint256","internalType":"uint256"},{"name":"amount","type":"uint256","internalType":"uint256"},{"name":"data","type":"bytes","internalType":"bytes"}],"outputs":[],"stateMutability":"nonpayable"},{"type":"function","name":"supportsInterface","inputs":[{"name":"interfaceId","type":"bytes4","internalType":"bytes4"}],"outputs":[{"name":"","type":"bool","internalType":"bool"}],"stateMutability":"view"},{"type":"event","name":"ContractDisabled","inputs":[{"name":"disabler","type":"address","indexed":true,"internalType":"address"}],"anonymous":false},{"type":"event","name":"RoleAdminChanged","inputs":[{"name":"role","type":"bytes32","indexed":true,"internalType":"bytes32"},{"name":"previousAdminRole","type":"bytes32","indexed":true,"internalType":"bytes32"},{"name":"newAdminRole","type":"bytes32","indexed":true,"internalType":"bytes32"}],"anonymous":false},{"type":"event","name":"RoleGranted","inputs":[{"name":"role","type":"bytes32","indexed":true,"internalType":"bytes32"},{"name":"account","type":"address","indexed":true,"internalType":"address"},{"name":"sender","type":"address","indexed":true,"internalType":"address"}],"anonymous":false},{"type":"event","name":"RoleRevoked","inputs":[{"name":"role","type":"bytes32","indexed":true,"internalType":"bytes32"},{"name":"account","type":"address","indexed":true,"internalType":"address"},{"name":"sender","type":"address","indexed":true,"internalType":"address"}],"anonymous":false},{"type":"error","name":"ContractDisabledError","inputs":[]},{"type":"error","name":"NotManager","inputs":[{"name":"caller","type":"address","internalType":"address"}]},{"type":"error","name":"NotOperator","inputs":[]}],"bytecode":{"object":"0x60806040818152346100ed576000808052602091818352808220338352835260ff8183205416156100b7575b7f241ecf16d79d0f8dbfb92cbc07fe17840425976cf0667f022fe9877caa831b0892838352828152818320338452815260ff82842054161561007e575b6001805460ff19169055610fa885816100f38239f35b83835282815281832090338452528120600160ff19825416179055339160008051602061109b833981519152339280a438808080610068565b8180528183528082203383528352808220600160ff1982541617905533338360008051602061109b8339815191528180a461002b565b600080fdfe60e060a060408152816040526004918236101561001b57600080fd5b600092833560e01c91826301eed9b1146108615750816301ffc9a71461080a5781631e48244714610774578163248a9ca31461074757816327ac0c58146106f65781632f2770db146106835781632f2ff15d146105d957816336568abe146105465781637ee7f69b146103ad57816391d1485414610364578163a217fddf14610348578163b219f7d7146102de578163d547741f1461029a578163eb46c45b1461015e57508063ec87621c14610135578063ee070805146101115763f5b541a6146100e557600080fd5b3461010d578160031936011261010d576020905151600080516020610f538339815191528152f35b5080fd5b503461010d578160031936011261010d5760209060ff600154169051519015158152f35b503461010d578160031936011261010d576020905151600080516020610f338339815191528152f35b8391503461010d5760c036600319011261010d5761017a610939565b9261018361094f565b61018b610965565b9260a4356001600160401b038111610296576101aa903690830161097b565b92909660ff6001541661028557600080516020610f5383398151915287528660205284518088203360005260205260ff816000205416156102765750869760018060a01b0380921692833b15610272576102428996928793858a51519b8c998a988997637921219560e11b895216908701521660248501526064356044850152608435606485015289608485015260a4840191610eed565b03925af190811561026857506102555750f35b61025e90610cec565b6102655780f35b80fd5b51513d84823e3d90fd5b8880fd5b51631f0853c160e21b81528390fd5b845151631a8854fd60e31b81528390fd5b8580fd5b919050346102da5780513660031901126102da576102d791356102d260016102c061094f565b938387528660205251862001546109a8565b610e4d565b80f35b8280fd5b9050346102da5760203660031901126102da576102f9610939565b91600080516020610f33833981519152845283602052518084203360005260205260ff8160002054161561033157836102d784610db3565b602492505190632a19e83360e01b82523390820152fd5b50503461010d578160031936011261010d575151908152602090f35b8391503461010d57825136600319011261010d5760209261038361094f565b91358352828452518092209060018060a01b0316600052825260ff81600020541690519015158152f35b83833461010d5760c0906003198281360112610542576103cb610939565b906103d461094f565b916103dd610965565b6080526001600160401b039260643584811161053e576104009036908a01610904565b93909260843586811161053a5761041a9036908c01610904565b9660a435908111610536576104329036908d0161097b565b97909560ff6001541661052557600080516020610f538339815191528c528b6020528b60ff8b5182818094203382526020522054161561051657509a9b999a98998c996001600160a01b0394851698893b156105125760a48e8e886104c7966104d99a6104f09d845151808752631759616b60e11b905216908451015260805116602483510152604482510152510191610f0e565b918b5160648682860301910152610f0e565b906084895191828403019101528751948593610eed565b0390838651915af19081156102685750610508575080f35b6102d79051610cec565b8b80fd5b51631f0853c160e21b81528d90fd5b895151631a8854fd60e31b81528d90fd5b8a80fd5b8980fd5b8780fd5b8380fd5b83833461010d5751918260031936011261010d5761056261094f565b90336001600160a01b0383160361057e57906102d79135610e4d565b608490602085519162461bcd60e51b8352820152602f60248201527f416363657373436f6e74726f6c3a2063616e206f6e6c792072656e6f756e636560448201526e103937b632b9903337b91039b2b63360891b6064820152fd5b9050346102da578151908160031936011261054257359161060e60016105fd61094f565b9385875286602052862001546109a8565b82845283602052518084209160018060a01b03169182855260205260ff818520541615610639578380f35b828452836020528084208285526020528320600160ff1982541617905533917f2f8788117e7eff1d82e926ec794901d17c78024a50270940304540a733656f0d8480a43880808380f35b919050346102da57826003193601126102da57600080516020610f338339815191528352826020525180832033845260205260ff8184205416156103315782600160ff1981541617600155337f793bc6423dd0257d64f9d47db72fd4b2162f4541aa41740ba1c5fb5e2cd41bcd8280a280f35b9050346102da5760203660031901126102da57610711610939565b91600080516020610f338339815191528452836020525180842033855260205260ff81852054161561033157836102d784610d15565b9050346102da5760203660031901126102da57602092916001913583528284525180922001549051908152f35b9050346102da5760203660031901126102da5780356001600160401b038111610542576107a49036908301610904565b919092600080516020610f338339815191528552846020525180852033865260205260ff818620541615610331575050825b8181106107e1578380f35b806108006107fb6107f6610805948688610ec9565b610ed9565b610db3565b610ea4565b6107d6565b9050346102da5760203660031901126102da57359063ffffffff60e01b82168092036102da5760209250637965db0b60e01b8214918215610850575b5051519015158152f35b6301ffc9a760e01b14915038610846565b849250346102da5760203660031901126102da5781356001600160401b038111610542576108929036908401610904565b919092600080516020610f338339815191528552846020526040852033865260205260ff604086205416156108ef575050825b8181106108d0578380f35b806108006108e56107f66108ea948688610ec9565b610d15565b6108c5565b632a19e83360e01b8252339082015260249150fd5b9181601f84011215610934578235916001600160401b038311610934576020808501948460051b01011161093457565b600080fd5b600435906001600160a01b038216820361093457565b602435906001600160a01b038216820361093457565b604435906001600160a01b038216820361093457565b9181601f84011215610934578235916001600160401b038311610934576020838186019501011161093457565b6000818152602091818352604092838320338452815260ff8484205416156109d05750505050565b83516001600160401b03939092336060850186811186821017610cb5578752602a85528385019187368437855115610ca15760308353855191600192831015610c8d576078602188015360295b838111610c235750610b4d578751906080820182811089821117610c0f57895260428252858201926060368537825115610bfb57603084538251811015610bfb57607860218401536041905b808211610b8f575050610b4d5791610ae294939188936067989951968793610ab88886019a76020b1b1b2b9b9a1b7b73a3937b61d1030b1b1b7bab73a1604d1b8c525180926037880190610cc9565b8401917001034b99036b4b9b9b4b733903937b6329607d1b60378401525180936048840190610cc9565b0103602881018552601f19968791011684019684881090881117610b39575092610b3060449593601f938880975262461bcd60e51b8752600487015251809281602488015287870190610cc9565b01168101030190fd5b634e487b7160e01b81526041600452602490fd5b60648589519062461bcd60e51b825280600483015260248201527f537472696e67733a20686578206c656e67746820696e73756666696369656e746044820152fd5b9091600f81166010811015610be7576f181899199a1a9b1b9c1cb0b131b232b360811b901a610bbe8486610e7d565b5360041c918015610bd3576000190190610a69565b634e487b7160e01b87526011600452602487fd5b634e487b7160e01b88526032600452602488fd5b634e487b7160e01b86526032600452602486fd5b634e487b7160e01b86526041600452602486fd5b90600f81166010811015610c79576f181899199a1a9b1b9c1cb0b131b232b360811b901a610c51838a610e7d565b5360041c908015610c655760001901610a1d565b634e487b7160e01b86526011600452602486fd5b634e487b7160e01b87526032600452602487fd5b634e487b7160e01b85526032600452602485fd5b634e487b7160e01b84526032600452602484fd5b634e487b7160e01b84526041600452602484fd5b60005b838110610cdc5750506000910152565b8181015183820152602001610ccc565b6001600160401b038111610cff57604052565b634e487b7160e01b600052604160045260246000fd5b6001600160a01b031660008181527fee57cd81e84075558e8fcc182a1f4393f91fc97f963a136e66b7f949a62f319f6020526040812054909190600080516020610f538339815191529060ff1615610d6c57505050565b808352826020526040832082845260205260408320600160ff198254161790557f2f8788117e7eff1d82e926ec794901d17c78024a50270940304540a733656f0d339380a4565b6001600160a01b031660008181527fee57cd81e84075558e8fcc182a1f4393f91fc97f963a136e66b7f949a62f319f6020526040812054909190600080516020610f538339815191529060ff16610e0957505050565b80835282602052604083208284526020526040832060ff1981541690557ff6391f5c32d9c69d2a47ea670b442974b53935d1edc7fd64eb21e047a839171b339380a4565b9060009180835282602052604083209160018060a01b03169182845260205260ff604084205416610e0957505050565b908151811015610e8e570160200190565b634e487b7160e01b600052603260045260246000fd5b6000198114610eb35760010190565b634e487b7160e01b600052601160045260246000fd5b9190811015610e8e5760051b0190565b356001600160a01b03811681036109345790565b908060209392818452848401376000828201840152601f01601f1916010190565b81835290916001600160fb1b0383116109345760209260051b80928483013701019056fe241ecf16d79d0f8dbfb92cbc07fe17840425976cf0667f022fe9877caa831b0897667070c54ef182b0f5858b034beac1b6f3089aa2d3188bb1e8929f4fa9b929a2646970667358221220ab138f897f93ba50f6d43f3b70edf45f1b4ea413c7bb5ece5694d2dc865eceb164736f6c634300081200332f8788117e7eff1d82e926ec794901d17c78024a50270940304540a733656f0d","linkReferences":{}},"methodIdentifiers":{"DEFAULT_ADMIN_ROLE()":"a217fddf","MANAGER_ROLE()":"ec87621c","OPERATOR_ROLE()":"f5b541a6","batchGrantOperatorRole(address[])":"01eed9b1","batchRevokeOperatorRole(address[])":"1e482447","disable()":"2f2770db","disabled()":"ee070805","getRoleAdmin(bytes32)":"248a9ca3","grantOperatorRole(address)":"27ac0c58","grantRole(bytes32,address)":"2f2ff15d","hasRole(bytes32,address)":"91d14854","renounceRole(bytes32,address)":"36568abe","revokeOperatorRole(address)":"b219f7d7","revokeRole(bytes32,address)":"d547741f","safeBatchTransferFrom(address,address,address,uint256[],uint256[],bytes)":"7ee7f69b","safeTransferFrom(address,address,address,uint256,uint256,bytes)":"eb46c45b","supportsInterface(bytes4)":"01ffc9a7"},"id":246}