{"abi":[{"type":"constructor","inputs":[],"stateMutability":"nonpayable"},{"type":"function","name":"DEFAULT_ADMIN_ROLE","inputs":[],"outputs":[{"name":"","type":"bytes32","internalType":"bytes32"}],"stateMutability":"view"},{"type":"function","name":"MANAGER_ROLE","inputs":[],"outputs":[{"name":"","type":"bytes32","internalType":"bytes32"}],"stateMutability":"view"},{"type":"function","name":"OPERATOR_ROLE","inputs":[],"outputs":[{"name":"","type":"bytes32","internalType":"bytes32"}],"stateMutability":"view"},{"type":"function","name":"batchGrantOperatorRole","inputs":[{"name":"operators","type":"address[]","internalType":"address[]"}],"outputs":[],"stateMutability":"nonpayable"},{"type":"function","name":"batchRevokeOperatorRole","inputs":[{"name":"operators","type":"address[]","internalType":"address[]"}],"outputs":[],"stateMutability":"nonpayable"},{"type":"function","name":"disable","inputs":[],"outputs":[],"stateMutability":"nonpayable"},{"type":"function","name":"disabled","inputs":[],"outputs":[{"name":"","type":"bool","internalType":"bool"}],"stateMutability":"view"},{"type":"function","name":"getRoleAdmin","inputs":[{"name":"role","type":"bytes32","internalType":"bytes32"}],"outputs":[{"name":"","type":"bytes32","internalType":"bytes32"}],"stateMutability":"view"},{"type":"function","name":"grantOperatorRole","inputs":[{"name":"operator","type":"address","internalType":"address"}],"outputs":[],"stateMutability":"nonpayable"},{"type":"function","name":"grantRole","inputs":[{"name":"role","type":"bytes32","internalType":"bytes32"},{"name":"account","type":"address","internalType":"address"}],"outputs":[],"stateMutability":"nonpayable"},{"type":"function","name":"hasRole","inputs":[{"name":"role","type":"bytes32","internalType":"bytes32"},{"name":"account","type":"address","internalType":"address"}],"outputs":[{"name":"","type":"bool","internalType":"bool"}],"stateMutability":"view"},{"type":"function","name":"renounceRole","inputs":[{"name":"role","type":"bytes32","internalType":"bytes32"},{"name":"account","type":"address","internalType":"address"}],"outputs":[],"stateMutability":"nonpayable"},{"type":"function","name":"revokeOperatorRole","inputs":[{"name":"operator","type":"address","internalType":"address"}],"outputs":[],"stateMutability":"nonpayable"},{"type":"function","name":"revokeRole","inputs":[{"name":"role","type":"bytes32","internalType":"bytes32"},{"name":"account","type":"address","internalType":"address"}],"outputs":[],"stateMutability":"nonpayable"},{"type":"function","name":"safeBatchTransferFrom","inputs":[{"name":"token","type":"address","internalType":"address"},{"name":"from","type":"address","internalType":"address"},{"name":"to","type":"address","internalType":"address"},{"name":"ids","type":"uint256[]","internalType":"uint256[]"},{"name":"amounts","type":"uint256[]","internalType":"uint256[]"},{"name":"data","type":"bytes","internalType":"bytes"}],"outputs":[],"stateMutability":"nonpayable"},{"type":"function","name":"safeTransferFrom","inputs":[{"name":"token","type":"address","internalType":"address"},{"name":"from","type":"address","internalType":"address"},{"name":"to","type":"address","internalType":"address"},{"name":"id","type":"uint256","internalType":"uint256"},{"name":"amount","type":"uint256","internalType":"uint256"},{"name":"data","type":"bytes","internalType":"bytes"}],"outputs":[],"stateMutability":"nonpayable"},{"type":"function","name":"supportsInterface","inputs":[{"name":"interfaceId","type":"bytes4","internalType":"bytes4"}],"outputs":[{"name":"","type":"bool","internalType":"bool"}],"stateMutability":"view"},{"type":"event","name":"ContractDisabled","inputs":[{"name":"disabler","type":"address","indexed":true,"internalType":"address"}],"anonymous":false},{"type":"event","name":"RoleAdminChanged","inputs":[{"name":"role","type":"bytes32","indexed":true,"internalType":"bytes32"},{"name":"previousAdminRole","type":"bytes32","indexed":true,"internalType":"bytes32"},{"name":"newAdminRole","type":"bytes32","indexed":true,"internalType":"bytes32"}],"anonymous":false},{"type":"event","name":"RoleGranted","inputs":[{"name":"role","type":"bytes32","indexed":true,"internalType":"bytes32"},{"name":"account","type":"address","indexed":true,"internalType":"address"},{"name":"sender","type":"address","indexed":true,"internalType":"address"}],"anonymous":false},{"type":"event","name":"RoleRevoked","inputs":[{"name":"role","type":"bytes32","indexed":true,"internalType":"bytes32"},{"name":"account","type":"address","indexed":true,"internalType":"address"},{"name":"sender","type":"address","indexed":true,"internalType":"address"}],"anonymous":false},{"type":"error","name":"ContractDisabledError","inputs":[]},{"type":"error","name":"NotOperator","inputs":[]}],"bytecode":{"object":"0x60806040818152346100ed576000808052602091818352808220338352835260ff8183205416156100b7575b7f241ecf16d79d0f8dbfb92cbc07fe17840425976cf0667f022fe9877caa831b0892838352828152818320338452815260ff82842054161561007e575b6001805460ff191690556110da85816100f38239f35b83835282815281832090338452528120600160ff1982541617905533916000805160206111cd833981519152339280a438808080610068565b8180528183528082203383528352808220600160ff198254161790553333836000805160206111cd8339815191528180a461002b565b600080fdfe6080604081526101006040526004908136101561001b57600080fd5b600091823560e01c90816301eed9b11461076f57816301ffc9a7146107185781631e482447146106af578163248a9ca31461068257816327ac0c58146106585781632f2770db1461060b5781632f2ff15d1461055d57816336568abe146104ca5781637ee7f69b1461034a57816391d1485414610301578163a217fddf146102e5578163b219f7d7146102bb578163d547741f14610277578163eb46c45b1461016f57508063ec87621c14610134578063ee070805146101105763f5b541a6146100e457600080fd5b3461010c578160031936011261010c5760209051516000805160206110658339815191528152f35b5080fd5b503461010c578160031936011261010c5760209060ff600154169051519015158152f35b503461010c578160031936011261010c5760209051517f241ecf16d79d0f8dbfb92cbc07fe17840425976cf0667f022fe9877caa831b088152f35b8391503461010c5760c036600319011261010c5761018b610803565b92610194610819565b61019c61082f565b9260a4356001600160401b038111610273576101bb9036908301610845565b92909660ff600154166102625786976101d2610aa4565b6001600160a01b0391821692833b1561025e5761022e8996928793858a51519b8c998a988997637921219560e11b895216908701521660248501526064356044850152608435606485015260a0608485015260a484019161101f565b03925af190811561025457506102415750f35b61024a90610cf8565b6102515780f35b80fd5b51513d84823e3d90fd5b8880fd5b845151631a8854fd60e31b81528390fd5b8580fd5b919050346102b75780513660031901126102b7576102b491356102af600161029d610819565b93838752866020525186200154610bca565b610e71565b80f35b8280fd5b8334610251576020366003190112610251576102b46102d8610803565b6102e0610872565b610de9565b50503461010c578160031936011261010c575151908152602090f35b8391503461010c57825136600319011261010c57602092610320610819565b91358352828452518092209060018060a01b0316600052825260ff81600020541690519015158152f35b83833461010c576003199260c0368501126102b757610367610803565b61036f610819565b9061037861082f565b60c0526001600160401b036064358181116104c65761039a90369086016107ce565b60849291923582811161025e576103b490369088016107ce565b99909260a4359081116104c2576103ce9036908901610845565b97909360ff600154166104b2578a9b6103e89b9a9b610aa4565b6001600160a01b0398888a163b156104ae578b9761047d96610462958f61044e948e91515160a060e0528060e05152631759616b60e11b9052169060e0515101528b60c05116602460e05151015260e051604460e05151015260a460e051510191611040565b9160e0515160648682860301910152611040565b90608460e05151918284030191015260e0515196879361101f565b039260e0515192165af19081156104a257506104965780f35b6102b460e05151610cf8565b5151913d9150823e3d90fd5b8b80fd5b50885151631a8854fd60e31b8152fd5b8980fd5b8680fd5b83833461010c5751918260031936011261010c576104e6610819565b90336001600160a01b0383160361050257906102b49135610e71565b608490602085519162461bcd60e51b8352820152602f60248201527f416363657373436f6e74726f6c3a2063616e206f6e6c792072656e6f756e636560448201526e103937b632b9903337b91039b2b63360891b6064820152fd5b9050346102b757815190816003193601126106075735916105926001610581610819565b938587528660205286200154610bca565b82845283602052518084209160018060a01b03169182855260205260ff8185205416156105bd578380f35b828452836020528084208285526020528320600160ff1982541617905533917f2f8788117e7eff1d82e926ec794901d17c78024a50270940304540a733656f0d8480a43880808380f35b8380fd5b8334610251578060031936011261025157610624610872565b600160ff1981541617600155337f793bc6423dd0257d64f9d47db72fd4b2162f4541aa41740ba1c5fb5e2cd41bcd8280a280f35b8334610251576020366003190112610251576102b4610675610803565b61067d610872565b610d5d565b9050346102b75760203660031901126102b757602092916001913583528284525180922001549051908152f35b83903461010c57602036600319011261010c578035906001600160401b0382116102b7576106df913691016107ce565b6106e7610872565b825b8181106106f4578380f35b8061070e6102e0610709610713948688610ffb565b61100b565b610fd6565b6106e9565b9050346102b75760203660031901126102b757359063ffffffff60e01b82168092036102b75760209250637965db0b60e01b821491821561075e575b5051519015158152f35b6301ffc9a760e01b14915038610754565b83903461010c57602036600319011261010c578035906001600160401b0382116102b75761079f913691016107ce565b6107a7610872565b825b8181106107b4578380f35b8061070e61067d6107096107c9948688610ffb565b6107a9565b9181601f840112156107fe578235916001600160401b0383116107fe576020808501948460051b0101116107fe57565b600080fd5b600435906001600160a01b03821682036107fe57565b602435906001600160a01b03821682036107fe57565b604435906001600160a01b03821682036107fe57565b9181601f840112156107fe578235916001600160401b0383116107fe57602083818601950101116107fe57565b3360009081527fe84508f2c7fa9c351146748b3025cb78b45df37d868e48c6a75102fecdeee6456020908152604080832054909291907f241ecf16d79d0f8dbfb92cbc07fe17840425976cf0667f022fe9877caa831b089060ff16156108d85750505050565b6108e133610ec8565b908451906108ee82610d21565b60428252838201946060368737825115610a905760308653825190600191821015610a905790607860218501536041915b818311610a22575050506109e057846109ae60486109d293604497985198899161099f8984019876020b1b1b2b9b9a1b7b73a3937b61d1030b1b1b7bab73a1604d1b8a52610976815180928d603789019101610cd5565b8401917001034b99036b4b9b9b4b733903937b6329607d1b603784015251809386840190610cd5565b01036028810189520187610d3c565b5194859362461bcd60e51b8552600485015251809281602486015285850190610cd5565b601f01601f19168101030190fd5b60648386519062461bcd60e51b825280600483015260248201527f537472696e67733a20686578206c656e67746820696e73756666696369656e746044820152fd5b909192600f81166010811015610a7c576f181899199a1a9b1b9c1cb0b131b232b360811b901a610a528587610ea1565b5360041c928015610a685760001901919061091f565b634e487b7160e01b82526011600452602482fd5b634e487b7160e01b83526032600452602483fd5b634e487b7160e01b81526032600452602490fd5b3360009081526000805160206110858339815191526020908152604080832054909291906000805160206110658339815191529060ff1615610ae65750505050565b610aef33610ec8565b90845190610afc82610d21565b60428252838201946060368737825115610a905760308653825190600191821015610a905790607860218501536041915b818311610b84575050506109e057846109ae60486109d293604497985198899161099f8984019876020b1b1b2b9b9a1b7b73a3937b61d1030b1b1b7bab73a1604d1b8a52610976815180928d603789019101610cd5565b909192600f81166010811015610a7c576f181899199a1a9b1b9c1cb0b131b232b360811b901a610bb48587610ea1565b5360041c928015610a6857600019019190610b2d565b60008181526020818152604092838320338452825260ff848420541615610bf15750505050565b610bfa33610ec8565b90845190610c0782610d21565b60428252838201946060368737825115610a905760308653825190600191821015610a905790607860218501536041915b818311610c8f575050506109e057846109ae60486109d293604497985198899161099f8984019876020b1b1b2b9b9a1b7b73a3937b61d1030b1b1b7bab73a1604d1b8a52610976815180928d603789019101610cd5565b909192600f81166010811015610a7c576f181899199a1a9b1b9c1cb0b131b232b360811b901a610cbf8587610ea1565b5360041c928015610a6857600019019190610c38565b60005b838110610ce85750506000910152565b8181015183820152602001610cd8565b6001600160401b038111610d0b57604052565b634e487b7160e01b600052604160045260246000fd5b608081019081106001600160401b03821117610d0b57604052565b90601f801991011681019081106001600160401b03821117610d0b57604052565b6001600160a01b0316600081815260008051602061108583398151915260205260408120549091906000805160206110658339815191529060ff1615610da257505050565b808352826020526040832082845260205260408320600160ff198254161790557f2f8788117e7eff1d82e926ec794901d17c78024a50270940304540a733656f0d339380a4565b6001600160a01b0316600081815260008051602061108583398151915260205260408120549091906000805160206110658339815191529060ff16610e2d57505050565b80835282602052604083208284526020526040832060ff1981541690557ff6391f5c32d9c69d2a47ea670b442974b53935d1edc7fd64eb21e047a839171b339380a4565b9060009180835282602052604083209160018060a01b03169182845260205260ff604084205416610e2d57505050565b908151811015610eb2570160200190565b634e487b7160e01b600052603260045260246000fd5b60405190606082018281106001600160401b03821117610d0b57604052602a8252602082016040368237825115610eb257603090538151600190811015610eb257607860218401536029905b808211610f68575050610f245790565b606460405162461bcd60e51b815260206004820152602060248201527f537472696e67733a20686578206c656e67746820696e73756666696369656e746044820152fd5b9091600f81166010811015610fc1576f181899199a1a9b1b9c1cb0b131b232b360811b901a610f978486610ea1565b5360041c918015610fac576000190190610f14565b60246000634e487b7160e01b81526011600452fd5b60246000634e487b7160e01b81526032600452fd5b6000198114610fe55760010190565b634e487b7160e01b600052601160045260246000fd5b9190811015610eb25760051b0190565b356001600160a01b03811681036107fe5790565b908060209392818452848401376000828201840152601f01601f1916010190565b81835290916001600160fb1b0383116107fe5760209260051b80928483013701019056fe97667070c54ef182b0f5858b034beac1b6f3089aa2d3188bb1e8929f4fa9b929ee57cd81e84075558e8fcc182a1f4393f91fc97f963a136e66b7f949a62f319fa2646970667358221220368f9211353122569d8a908e51b78108f467192cf847f7e27ba27243bfda699e64736f6c634300081200332f8788117e7eff1d82e926ec794901d17c78024a50270940304540a733656f0d","linkReferences":{}},"methodIdentifiers":{"DEFAULT_ADMIN_ROLE()":"a217fddf","MANAGER_ROLE()":"ec87621c","OPERATOR_ROLE()":"f5b541a6","batchGrantOperatorRole(address[])":"01eed9b1","batchRevokeOperatorRole(address[])":"1e482447","disable()":"2f2770db","disabled()":"ee070805","getRoleAdmin(bytes32)":"248a9ca3","grantOperatorRole(address)":"27ac0c58","grantRole(bytes32,address)":"2f2ff15d","hasRole(bytes32,address)":"91d14854","renounceRole(bytes32,address)":"36568abe","revokeOperatorRole(address)":"b219f7d7","revokeRole(bytes32,address)":"d547741f","safeBatchTransferFrom(address,address,address,uint256[],uint256[],bytes)":"7ee7f69b","safeTransferFrom(address,address,address,uint256,uint256,bytes)":"eb46c45b","supportsInterface(bytes4)":"01ffc9a7"},"id":85}