{"abi":[{"type":"constructor","inputs":[],"stateMutability":"nonpayable"},{"type":"function","name":"DEFAULT_ADMIN_ROLE","inputs":[],"outputs":[{"name":"","type":"bytes32","internalType":"bytes32"}],"stateMutability":"view"},{"type":"function","name":"MANAGER_ROLE","inputs":[],"outputs":[{"name":"","type":"bytes32","internalType":"bytes32"}],"stateMutability":"view"},{"type":"function","name":"OPERATOR_ROLE","inputs":[],"outputs":[{"name":"","type":"bytes32","internalType":"bytes32"}],"stateMutability":"view"},{"type":"function","name":"batchGrantOperatorRole","inputs":[{"name":"operators","type":"address[]","internalType":"address[]"}],"outputs":[],"stateMutability":"nonpayable"},{"type":"function","name":"batchRevokeOperatorRole","inputs":[{"name":"operators","type":"address[]","internalType":"address[]"}],"outputs":[],"stateMutability":"nonpayable"},{"type":"function","name":"disable","inputs":[],"outputs":[],"stateMutability":"nonpayable"},{"type":"function","name":"disabled","inputs":[],"outputs":[{"name":"","type":"bool","internalType":"bool"}],"stateMutability":"view"},{"type":"function","name":"getRoleAdmin","inputs":[{"name":"role","type":"bytes32","internalType":"bytes32"}],"outputs":[{"name":"","type":"bytes32","internalType":"bytes32"}],"stateMutability":"view"},{"type":"function","name":"grantOperatorRole","inputs":[{"name":"operator","type":"address","internalType":"address"}],"outputs":[],"stateMutability":"nonpayable"},{"type":"function","name":"grantRole","inputs":[{"name":"role","type":"bytes32","internalType":"bytes32"},{"name":"account","type":"address","internalType":"address"}],"outputs":[],"stateMutability":"nonpayable"},{"type":"function","name":"hasRole","inputs":[{"name":"role","type":"bytes32","internalType":"bytes32"},{"name":"account","type":"address","internalType":"address"}],"outputs":[{"name":"","type":"bool","internalType":"bool"}],"stateMutability":"view"},{"type":"function","name":"renounceRole","inputs":[{"name":"role","type":"bytes32","internalType":"bytes32"},{"name":"account","type":"address","internalType":"address"}],"outputs":[],"stateMutability":"nonpayable"},{"type":"function","name":"revokeOperatorRole","inputs":[{"name":"operator","type":"address","internalType":"address"}],"outputs":[],"stateMutability":"nonpayable"},{"type":"function","name":"revokeRole","inputs":[{"name":"role","type":"bytes32","internalType":"bytes32"},{"name":"account","type":"address","internalType":"address"}],"outputs":[],"stateMutability":"nonpayable"},{"type":"function","name":"supportsInterface","inputs":[{"name":"interfaceId","type":"bytes4","internalType":"bytes4"}],"outputs":[{"name":"","type":"bool","internalType":"bool"}],"stateMutability":"view"},{"type":"function","name":"transferFrom","inputs":[{"name":"token","type":"address","internalType":"address"},{"name":"from","type":"address","internalType":"address"},{"name":"to","type":"address","internalType":"address"},{"name":"amount","type":"uint256","internalType":"uint256"}],"outputs":[],"stateMutability":"nonpayable"},{"type":"event","name":"ContractDisabled","inputs":[{"name":"disabler","type":"address","indexed":true,"internalType":"address"}],"anonymous":false},{"type":"event","name":"RoleAdminChanged","inputs":[{"name":"role","type":"bytes32","indexed":true,"internalType":"bytes32"},{"name":"previousAdminRole","type":"bytes32","indexed":true,"internalType":"bytes32"},{"name":"newAdminRole","type":"bytes32","indexed":true,"internalType":"bytes32"}],"anonymous":false},{"type":"event","name":"RoleGranted","inputs":[{"name":"role","type":"bytes32","indexed":true,"internalType":"bytes32"},{"name":"account","type":"address","indexed":true,"internalType":"address"},{"name":"sender","type":"address","indexed":true,"internalType":"address"}],"anonymous":false},{"type":"event","name":"RoleRevoked","inputs":[{"name":"role","type":"bytes32","indexed":true,"internalType":"bytes32"},{"name":"account","type":"address","indexed":true,"internalType":"address"},{"name":"sender","type":"address","indexed":true,"internalType":"address"}],"anonymous":false},{"type":"error","name":"ContractDisabledError","inputs":[]},{"type":"error","name":"NotOperator","inputs":[]}],"bytecode":{"object":"0x60806040818152346100ed576000808052602091818352808220338352835260ff8183205416156100b7575b7f241ecf16d79d0f8dbfb92cbc07fe17840425976cf0667f022fe9877caa831b0892838352828152818320338452815260ff82842054161561007e575b6001805460ff19169055610f2185816100f38239f35b83835282815281832090338452528120600160ff198254161790553391600080516020611014833981519152339280a438808080610068565b8180528183528082203383528352808220600160ff198254161790553333836000805160206110148339815191528180a461002b565b600080fdfe6040608081526004908136101561001557600080fd5b600091823560e01c90816301eed9b1146106d557816301ffc9a71461067f57816315dacbea1461044f5781631e48244714610407578163248a9ca3146103dd57816327ac0c58146103b35781632f2770db146103665781632f2ff15d146102bd57816336568abe1461022b57816391d14854146101e5578163a217fddf146101ca578163b219f7d71461019d578163d547741f1461015b57508063ec87621c14610121578063ee070805146100fe5763f5b541a6146100d357600080fd5b346100fa57816003193601126100fa5760209051600080516020610ecc8339815191528152f35b5080fd5b50346100fa57816003193601126100fa5760209060ff6001541690519015158152f35b50346100fa57816003193601126100fa57602090517f241ecf16d79d0f8dbfb92cbc07fe17840425976cf0667f022fe9877caa831b088152f35b919050346101995780600319360112610199576101969135610191600161018061077b565b9383875286602052862001546109a7565b610c8b565b80f35b8280fd5b83346101c75760203660031901126101c7576101966101ba610765565b6101c2610791565b610bf1565b80fd5b5050346100fa57816003193601126100fa5751908152602090f35b9050346101995781600319360112610199578160209360ff9261020661077b565b903582528186528282206001600160a01b039091168252855220549151911615158152f35b839150346100fa57826003193601126100fa5761024661077b565b90336001600160a01b0383160361026257906101969135610c8b565b608490602085519162461bcd60e51b8352820152602f60248201527f416363657373436f6e74726f6c3a2063616e206f6e6c792072656e6f756e636560448201526e103937b632b9903337b91039b2b63360891b6064820152fd5b90503461019957816003193601126101995735906102d961077b565b90828452836020526102f0600182862001546109a7565b82845260208481528185206001600160a01b039093168086529290528084205460ff161561031c578380f35b828452836020528084208285526020528320600160ff1982541617905533917f2f8788117e7eff1d82e926ec794901d17c78024a50270940304540a733656f0d8480a43880808380f35b83346101c757806003193601126101c75761037f610791565b600160ff1981541617600155337f793bc6423dd0257d64f9d47db72fd4b2162f4541aa41740ba1c5fb5e2cd41bcd8280a280f35b83346101c75760203660031901126101c7576101966103d0610765565b6103d8610791565b610b53565b90503461019957602036600319011261019957816020936001923581528085522001549051908152f35b83346101c75761041636610713565b61041e610791565b825b81811061042b578380f35b806104456101c261044061044a948688610e16565b610e26565b610df1565b610420565b919050346101995760803660031901126101995761046b610765565b9061047461077b565b6001600160a01b036044358181169081900361067b5760ff6001541661066b57600080516020610ecc8339815191528752602094878652848820338952865260ff85892054161561065b57821690845192868401946323b872dd60e01b8652166024840152604483015260643560648301526064825260a082019267ffffffffffffffff92808510848611176106485760e08101858110858211176106355786528685527f5361666545524332303a206c6f772d6c6576656c2063616c6c206661696c656460c082015251889182919082855af1903d15610626573d928311610613579061058193929185519261057488601f19601f8401160185610b05565b83523d898885013e610e3a565b80518381159182156105ef575b505090501561059b578380f35b5162461bcd60e51b815291820152602a60248201527f5361666545524332303a204552433230206f7065726174696f6e20646964206e6044820152691bdd081cdd58d8d9595960b21b606482015260849150fd5b838092935001031261060f57820151801515810361060f5780833861058e565b8480fd5b634e487b7160e01b885260418752602488fd5b90610581939250606091610e3a565b634e487b7160e01b8a526041895260248afd5b634e487b7160e01b895260418852602489fd5b8451631f0853c160e21b81528790fd5b8351631a8854fd60e31b81528690fd5b8680fd5b90503461019957602036600319011261019957359063ffffffff60e01b82168092036101995760209250637965db0b60e01b82149182156106c4575b50519015158152f35b6301ffc9a760e01b149150386106bb565b83346101c7576106e436610713565b6106ec610791565b825b8181106106f9578380f35b806104456103d861044061070e948688610e16565b6106ee565b9060206003198301126107605760043567ffffffffffffffff9283821161076057806023830112156107605781600401359384116107605760248460051b83010111610760576024019190565b600080fd5b600435906001600160a01b038216820361076057565b602435906001600160a01b038216820361076057565b3360009081527fe84508f2c7fa9c351146748b3025cb78b45df37d868e48c6a75102fecdeee64560209081526040808320549092907f241ecf16d79d0f8dbfb92cbc07fe17840425976cf0667f022fe9877caa831b089060ff16156107f65750505050565b6107ff33610ce2565b84519161080b83610ad3565b6042835284830193606036863783511561099357603085538351906001918210156109935790607860218601536041915b818311610925575050506108e3576108919385936108c9936108ba6048946108df9951988576020b1b1b2b9b9a1b7b73a3937b61d1030b1b1b7bab73a1604d1b8b978801528251928391603789019101610ab0565b8401917001034b99036b4b9b9b4b733903937b6329607d1b603784015251809386840190610ab0565b01036028810185520183610b05565b5162461bcd60e51b815291829160048301610b27565b0390fd5b60648486519062461bcd60e51b825280600483015260248201527f537472696e67733a20686578206c656e67746820696e73756666696369656e746044820152fd5b909192600f8116601081101561097f576f181899199a1a9b1b9c1cb0b131b232b360811b901a6109558588610cbb565b5360041c92801561096b5760001901919061083c565b634e487b7160e01b82526011600452602482fd5b634e487b7160e01b83526032600452602483fd5b634e487b7160e01b81526032600452602490fd5b6000818152602090808252604092838220338352835260ff8483205416156109cf5750505050565b6109d833610ce2565b8451916109e483610ad3565b6042835284830193606036863783511561099357603085538351906001918210156109935790607860218601536041915b818311610a6a575050506108e3576108919385936108c9936108ba6048946108df9951988576020b1b1b2b9b9a1b7b73a3937b61d1030b1b1b7bab73a1604d1b8b978801528251928391603789019101610ab0565b909192600f8116601081101561097f576f181899199a1a9b1b9c1cb0b131b232b360811b901a610a9a8588610cbb565b5360041c92801561096b57600019019190610a15565b60005b838110610ac35750506000910152565b8181015183820152602001610ab3565b6080810190811067ffffffffffffffff821117610aef57604052565b634e487b7160e01b600052604160045260246000fd5b90601f8019910116810190811067ffffffffffffffff821117610aef57604052565b60409160208252610b478151809281602086015260208686019101610ab0565b601f01601f1916010190565b6001600160a01b031660008181527fee57cd81e84075558e8fcc182a1f4393f91fc97f963a136e66b7f949a62f319f6020526040812054909190600080516020610ecc8339815191529060ff1615610baa57505050565b808352826020526040832082845260205260408320600160ff198254161790557f2f8788117e7eff1d82e926ec794901d17c78024a50270940304540a733656f0d339380a4565b6001600160a01b031660008181527fee57cd81e84075558e8fcc182a1f4393f91fc97f963a136e66b7f949a62f319f6020526040812054909190600080516020610ecc8339815191529060ff16610c4757505050565b80835282602052604083208284526020526040832060ff1981541690557ff6391f5c32d9c69d2a47ea670b442974b53935d1edc7fd64eb21e047a839171b339380a4565b9060009180835282602052604083209160018060a01b03169182845260205260ff604084205416610c4757505050565b908151811015610ccc570160200190565b634e487b7160e01b600052603260045260246000fd5b604051906060820182811067ffffffffffffffff821117610aef57604052602a8252602082016040368237825115610ccc57603090538151600190811015610ccc57607860218401536029905b808211610d83575050610d3f5790565b606460405162461bcd60e51b815260206004820152602060248201527f537472696e67733a20686578206c656e67746820696e73756666696369656e746044820152fd5b9091600f81166010811015610ddc576f181899199a1a9b1b9c1cb0b131b232b360811b901a610db28486610cbb565b5360041c918015610dc7576000190190610d2f565b60246000634e487b7160e01b81526011600452fd5b60246000634e487b7160e01b81526032600452fd5b6000198114610e005760010190565b634e487b7160e01b600052601160045260246000fd5b9190811015610ccc5760051b0190565b356001600160a01b03811681036107605790565b91929015610e9c5750815115610e4e575090565b3b15610e575790565b60405162461bcd60e51b815260206004820152601d60248201527f416464726573733a2063616c6c20746f206e6f6e2d636f6e74726163740000006044820152606490fd5b825190915015610eaf5750805190602001fd5b60405162461bcd60e51b81529081906108df9060048301610b2756fe97667070c54ef182b0f5858b034beac1b6f3089aa2d3188bb1e8929f4fa9b929a2646970667358221220a080c90d3a6d21cea20b97c08e03e473625bf8fe3f2ab5f53e5a08a672b6ff5464736f6c634300081200332f8788117e7eff1d82e926ec794901d17c78024a50270940304540a733656f0d","linkReferences":{}},"methodIdentifiers":{"DEFAULT_ADMIN_ROLE()":"a217fddf","MANAGER_ROLE()":"ec87621c","OPERATOR_ROLE()":"f5b541a6","batchGrantOperatorRole(address[])":"01eed9b1","batchRevokeOperatorRole(address[])":"1e482447","disable()":"2f2770db","disabled()":"ee070805","getRoleAdmin(bytes32)":"248a9ca3","grantOperatorRole(address)":"27ac0c58","grantRole(bytes32,address)":"2f2ff15d","hasRole(bytes32,address)":"91d14854","renounceRole(bytes32,address)":"36568abe","revokeOperatorRole(address)":"b219f7d7","revokeRole(bytes32,address)":"d547741f","supportsInterface(bytes4)":"01ffc9a7","transferFrom(address,address,address,uint256)":"15dacbea"},"id":243}