{"abi":[{"type":"function","name":"generateMarketConfig","inputs":[{"name":"_networkBeneficiary","type":"address","internalType":"address"},{"name":"_marketplaceSettings","type":"address","internalType":"address"},{"name":"_spaceOperatorRegistry","type":"address","internalType":"address"},{"name":"_royaltyEngine","type":"address","internalType":"address"},{"name":"_payments","type":"address","internalType":"address"},{"name":"_approvedTokenRegistry","type":"address","internalType":"address"},{"name":"_stakingSettings","type":"address","internalType":"address"},{"name":"_stakingRegistry","type":"address","internalType":"address"},{"name":"_erc20ApprovalManager","type":"address","internalType":"address"},{"name":"_erc721ApprovalManager","type":"address","internalType":"address"}],"outputs":[{"name":"","type":"tuple","internalType":"struct MarketConfigV2.Config","components":[{"name":"networkBeneficiary","type":"address","internalType":"address"},{"name":"marketplaceSettings","type":"IMarketplaceSettings","internalType":"contract IMarketplaceSettings"},{"name":"spaceOperatorRegistry","type":"ISpaceOperatorRegistry","internalType":"contract ISpaceOperatorRegistry"},{"name":"royaltyEngine","type":"IRoyaltyEngineV1","internalType":"contract IRoyaltyEngineV1"},{"name":"payments","type":"IPayments","internalType":"contract IPayments"},{"name":"approvedTokenRegistry","type":"IApprovedTokenRegistry","internalType":"contract IApprovedTokenRegistry"},{"name":"stakingSettings","type":"IStakingSettings","internalType":"contract IStakingSettings"},{"name":"stakingRegistry","type":"IRareStakingRegistry","internalType":"contract IRareStakingRegistry"},{"name":"erc20ApprovalManager","type":"IERC20ApprovalManager","internalType":"contract IERC20ApprovalManager"},{"name":"erc721ApprovalManager","type":"IERC721ApprovalManager","internalType":"contract IERC721ApprovalManager"}]}],"stateMutability":"pure"},{"type":"event","name":"ApprovedTokenRegistryUpdated","inputs":[{"name":"newApprovedTokenRegistry","type":"address","indexed":true,"internalType":"address"}],"anonymous":false},{"type":"event","name":"ERC20ApprovalManagerUpdated","inputs":[{"name":"newERC20ApprovalManager","type":"address","indexed":true,"internalType":"address"}],"anonymous":false},{"type":"event","name":"ERC721ApprovalManagerUpdated","inputs":[{"name":"newERC721ApprovalManager","type":"address","indexed":true,"internalType":"address"}],"anonymous":false},{"type":"event","name":"MarketplaceSettingsUpdated","inputs":[{"name":"newMarketplaceSettings","type":"address","indexed":true,"internalType":"address"}],"anonymous":false},{"type":"event","name":"NetworkBeneficiaryUpdated","inputs":[{"name":"newNetworkBeneficiary","type":"address","indexed":true,"internalType":"address"}],"anonymous":false},{"type":"event","name":"PaymentsUpdated","inputs":[{"name":"newPayments","type":"address","indexed":true,"internalType":"address"}],"anonymous":false},{"type":"event","name":"RoyaltyEngineUpdated","inputs":[{"name":"newRoyaltyEngine","type":"address","indexed":true,"internalType":"address"}],"anonymous":false},{"type":"event","name":"SpaceOperatorRegistryUpdated","inputs":[{"name":"newSpaceOperatorRegistry","type":"address","indexed":true,"internalType":"address"}],"anonymous":false},{"type":"event","name":"StakingRegistryUpdated","inputs":[{"name":"newStakingRegistry","type":"address","indexed":true,"internalType":"address"}],"anonymous":false},{"type":"event","name":"StakingSettingsUpdated","inputs":[{"name":"newStakingSettings","type":"address","indexed":true,"internalType":"address"}],"anonymous":false}],"bytecode":{"object":"0x6080806040523461001c57610c3e90816100228239308160070152f35b600080fdfe6080604052307f000000000000000000000000000000000000000000000000000000000000000014600436101561003557600080fd5b60003560e01c9081631f1afd0d14610b5b578163287be21214610afb5781633a3a712e14610a9c57816350cf265614610a3c578163520a0a9c146109de5781635b1693c21461097e578163a2e033d41461091e578163c59a3e2a146108be578163c65854621461085e578163ed56be5b146107fe575063ef8c8249146100ba57600080fd5b610140806003193601126107f9576004356001600160a01b03811681036107f9576100e3610bbb565b6044356001600160a01b03811681036107f9576064356001600160a01b03811681036107f9576084356001600160a01b03811681036107f95760a4356001600160a01b03811681036107f95760c435906001600160a01b03821682036107f95760e435926001600160a01b03841684036107f95761010435946001600160a01b03861686036107f95761012435966001600160a01b03881688036107f957600061012061018e610bd1565b8281528260208201528260408201528260608201528260808201528260a08201528260c08201528260e082015282610100820152015260018060a01b038a161561078f576001600160a01b0389161561071a576001600160a01b038116156106a3576001600160a01b03821615610638576001600160a01b038316156105d5576001600160a01b0384161561055e576001600160a01b038516156104f3576001600160a01b03861615610488576001600160a01b03871615610411576001600160a01b0388161561039a57610261610bd1565b9860018060a01b038b168a5260018060a01b031660208a015260018060a01b0316604089015260018060a01b0316606088015260018060a01b0316608087015260018060a01b031660a086015260018060a01b031660c085015260018060a01b031660e084015260018060a01b031661010083015260018060a01b03166101208201526040519160018060a01b0316825260018060a01b03602082015116602083015260018060a01b03604082015116604083015260018060a01b03606082015116606083015260018060a01b03608082015116608083015260018060a01b0360a08201511660a083015260018060a01b0360c08201511660c083015260018060a01b0360e08201511660e083015260018060a01b036101008201511661010083015261012060018060a01b0391015116610120820152f35b60a460405162461bcd60e51b815260206004820152604460248201527f67656e65726174654d61726b6574436f6e6669673a3a4552433732312061707060448201527f726f76616c206d616e6167657220616464726573732063616e6e6f74206265206064820152637a65726f60e01b6084820152fd5b60405162461bcd60e51b815260206004820152604360248201527f67656e65726174654d61726b6574436f6e6669673a3a4552433230206170707260448201527f6f76616c206d616e6167657220616464726573732063616e6e6f74206265207a60648201526265726f60e81b608482015260a490fd5b60405162461bcd60e51b815260206004820152603d60248201527f67656e65726174654d61726b6574436f6e6669673a3a5374616b696e6720726560448201527f67697374727920616464726573732063616e6e6f74206265207a65726f0000006064820152608490fd5b60405162461bcd60e51b815260206004820152603d60248201527f67656e65726174654d61726b6574436f6e6669673a3a5374616b696e6720736560448201527f7474696e677320616464726573732063616e6e6f74206265207a65726f0000006064820152608490fd5b60a460405162461bcd60e51b815260206004820152604460248201527f67656e65726174654d61726b6574436f6e6669673a3a417070726f766564207460448201527f6f6b656e20726567697374727920616464726573732063616e6e6f74206265206064820152637a65726f60e01b6084820152fd5b60405162461bcd60e51b815260206004820152603560248201527f67656e65726174654d61726b6574436f6e6669673a3a5061796d656e747320616044820152746464726573732063616e6e6f74206265207a65726f60581b6064820152608490fd5b60405162461bcd60e51b815260206004820152603b60248201527f67656e65726174654d61726b6574436f6e6669673a3a526f79616c747920656e60448201527f67696e6520616464726573732063616e6e6f74206265207a65726f00000000006064820152608490fd5b60a460405162461bcd60e51b815260206004820152604460248201527f67656e65726174654d61726b6574436f6e6669673a3a5370616365206f70657260448201527f61746f7220726567697374727920616464726573732063616e6e6f74206265206064820152637a65726f60e01b6084820152fd5b60405162461bcd60e51b815260206004820152604160248201527f67656e65726174654d61726b6574436f6e6669673a3a4d61726b6574706c616360448201527f652073657474696e677320616464726573732063616e6e6f74206265207a65726064820152606f60f81b608482015260a490fd5b608460405162461bcd60e51b815260206004820152604060248201527f67656e65726174654d61726b6574436f6e6669673a3a4e6574776f726b20626560448201527f6e656669636961727920616464726573732063616e6e6f74206265207a65726f6064820152fd5b600080fd5b6107f95760403660031901126107f9576001600160a01b0361081e610bbb565b16600160043501816001600160601b0360a01b8254161790557fccf304d72536db5abe0b333f647f64ab65c749de49a816e0d50c7a34400a2cf4600080a2005b6107f95760403660031901126107f9576001600160a01b0361087e610bbb565b16600760043501816001600160601b0360a01b8254161790557fa5aa720af23083cb0a3e835e4c10666ab0ac4eee7a4396df3ec359de6fc53abf600080a2005b6107f95760403660031901126107f9576001600160a01b036108de610bbb565b16600260043501816001600160601b0360a01b8254161790557f3414ecfc4f469c114dce1f67d2f708d28c64684225cc027439743a0647d4797f600080a2005b6107f95760403660031901126107f9576001600160a01b0361093e610bbb565b16600860043501816001600160601b0360a01b8254161790557f67a719fca19894f2c6dc7b8754ba53bd2cbe5837d28bec4e8966b124727f01c3600080a2005b6107f95760403660031901126107f9576001600160a01b0361099e610bbb565b16600660043501816001600160601b0360a01b8254161790557f232234b004f5855fe7784b260c0f551770d2e11be6d9ed34fe39808b7716b0b4600080a2005b6107f95760403660031901126107f9576004356001600160a01b03610a01610bbb565b1690816001600160601b0360a01b8254161790557fdeb68ce94dddbc68c0fe17a243912c6af53090be31db2e8a4dccf5c6758fc7e3600080a2005b6107f95760403660031901126107f9576001600160a01b03610a5c610bbb565b16600560043501816001600160601b0360a01b8254161790557f7885b52bc25b3d2198a6f0e8dfe81eeb3de635dceae911d3eedd29d1258ccd05600080a2005b6107f95760403660031901126107f9576001600160a01b03610abc610bbb565b166004803501816001600160601b0360a01b8254161790557f304724bab5a5569aa1febff9983351c6f3a30d43d9df341dd1abf4da4cf5d145600080a2005b6107f95760403660031901126107f9576001600160a01b03610b1b610bbb565b16600360043501816001600160601b0360a01b8254161790557fe8f47ab65eb1a00a50621193de0bc029f73205b44c4e0c4d4c883a8f095f1f96600080a2005b6107f95760403660031901126107f9576001600160a01b03610b7b610bbb565b16600960043501816001600160601b0360a01b8254161790557fb1fdefe7a2f6072ca65f737e8f30164512dd5d4939e7e53e9fb30cf70c21d629600080a2005b602435906001600160a01b03821682036107f957565b60405190610140820182811067ffffffffffffffff821117610bf257604052565b634e487b7160e01b600052604160045260246000fdfea26469706673582212205e24fa06e2513306b79baedb0c811e1dd4927a8b7041b6e9d990b3cc86a0896564736f6c63430008120033","linkReferences":{}},"methodIdentifiers":{"generateMarketConfig(address,address,address,address,address,address,address,address,address,address)":"ef8c8249","updateApprovedTokenRegistry(MarketConfigV2.Config storage,address)":"50cf2656","updateERC20ApprovalManager(MarketConfigV2.Config storage,address)":"a2e033d4","updateERC721ApprovalManager(MarketConfigV2.Config storage,address)":"1f1afd0d","updateMarketplaceSettings(MarketConfigV2.Config storage,address)":"ed56be5b","updateNetworkBeneficiary(MarketConfigV2.Config storage,address)":"520a0a9c","updatePayments(MarketConfigV2.Config storage,address)":"3a3a712e","updateRoyaltyEngine(MarketConfigV2.Config storage,address)":"287be212","updateSpaceOperatorRegistry(MarketConfigV2.Config storage,address)":"c59a3e2a","updateStakingRegistry(MarketConfigV2.Config storage,address)":"c6585462","updateStakingSettings(MarketConfigV2.Config storage,address)":"5b1693c2"},"id":255}