{"abi":[{"type":"constructor","inputs":[],"stateMutability":"nonpayable"},{"type":"function","name":"MAX_BATCH_SIZE","inputs":[],"outputs":[{"name":"","type":"uint256","internalType":"uint256"}],"stateMutability":"view"},{"type":"function","name":"buyBatch","inputs":[{"name":"_contractAddress","type":"address","internalType":"address"},{"name":"_seller","type":"address","internalType":"address"},{"name":"_currencyAddress","type":"address","internalType":"address"},{"name":"_requests","type":"tuple[]","internalType":"struct IRareERC1155Listings.BuyRequest[]","components":[{"name":"tokenId","type":"uint256","internalType":"uint256"},{"name":"price","type":"uint256","internalType":"uint256"},{"name":"quantity","type":"uint256","internalType":"uint256"}]}],"outputs":[],"stateMutability":"payable"},{"type":"function","name":"cancelSalePrices","inputs":[{"name":"_contractAddress","type":"address","internalType":"address"},{"name":"_tokenIds","type":"uint256[]","internalType":"uint256[]"}],"outputs":[],"stateMutability":"nonpayable"},{"type":"function","name":"getDirectSaleConfig","inputs":[{"name":"_contractAddress","type":"address","internalType":"address"},{"name":"_tokenId","type":"uint256","internalType":"uint256"}],"outputs":[{"name":"","type":"tuple","internalType":"struct IRareERC1155Listings.DirectSaleConfig","components":[{"name":"seller","type":"address","internalType":"address"},{"name":"currencyAddress","type":"address","internalType":"address"},{"name":"price","type":"uint256","internalType":"uint256"},{"name":"startTime","type":"uint256","internalType":"uint256"},{"name":"maxMints","type":"uint256","internalType":"uint256"},{"name":"splitRecipients","type":"address[]","internalType":"address payable[]"},{"name":"splitRatios","type":"uint8[]","internalType":"uint8[]"}]}],"stateMutability":"view"},{"type":"function","name":"getERC1155ApprovalManager","inputs":[],"outputs":[{"name":"","type":"address","internalType":"address"}],"stateMutability":"view"},{"type":"function","name":"getMarketConfig","inputs":[],"outputs":[{"name":"","type":"tuple","internalType":"struct MarketConfigV2.Config","components":[{"name":"networkBeneficiary","type":"address","internalType":"address"},{"name":"marketplaceSettings","type":"address","internalType":"contract IMarketplaceSettings"},{"name":"spaceOperatorRegistry","type":"address","internalType":"contract ISpaceOperatorRegistry"},{"name":"royaltyEngine","type":"address","internalType":"contract IRoyaltyEngineV1"},{"name":"payments","type":"address","internalType":"contract IPayments"},{"name":"approvedTokenRegistry","type":"address","internalType":"contract IApprovedTokenRegistry"},{"name":"stakingSettings","type":"address","internalType":"contract IStakingSettings"},{"name":"stakingRegistry","type":"address","internalType":"contract IRareStakingRegistry"},{"name":"erc20ApprovalManager","type":"address","internalType":"contract IERC20ApprovalManager"},{"name":"erc721ApprovalManager","type":"address","internalType":"contract IERC721ApprovalManager"}]}],"stateMutability":"view"},{"type":"function","name":"getSalePrice","inputs":[{"name":"_contractAddress","type":"address","internalType":"address"},{"name":"_tokenId","type":"uint256","internalType":"uint256"},{"name":"_seller","type":"address","internalType":"address"}],"outputs":[{"name":"","type":"tuple","internalType":"struct IRareERC1155Listings.SalePrice","components":[{"name":"currencyAddress","type":"address","internalType":"address"},{"name":"price","type":"uint256","internalType":"uint256"},{"name":"quantity","type":"uint256","internalType":"uint256"},{"name":"expirationTime","type":"uint256","internalType":"uint256"},{"name":"splitRecipients","type":"address[]","internalType":"address payable[]"},{"name":"splitRatios","type":"uint8[]","internalType":"uint8[]"}]}],"stateMutability":"view"},{"type":"function","name":"getTokenAllowListConfig","inputs":[{"name":"_contractAddress","type":"address","internalType":"address"},{"name":"_tokenId","type":"uint256","internalType":"uint256"}],"outputs":[{"name":"","type":"tuple","internalType":"struct IRareERC1155Listings.AllowListConfig","components":[{"name":"root","type":"bytes32","internalType":"bytes32"},{"name":"endTimestamp","type":"uint256","internalType":"uint256"}]}],"stateMutability":"view"},{"type":"function","name":"getTokenMintLimit","inputs":[{"name":"_contractAddress","type":"address","internalType":"address"},{"name":"_tokenId","type":"uint256","internalType":"uint256"}],"outputs":[{"name":"","type":"uint256","internalType":"uint256"}],"stateMutability":"view"},{"type":"function","name":"getTokenMintsPerAddress","inputs":[{"name":"_contractAddress","type":"address","internalType":"address"},{"name":"_tokenId","type":"uint256","internalType":"uint256"},{"name":"_address","type":"address","internalType":"address"}],"outputs":[{"name":"","type":"uint256","internalType":"uint256"}],"stateMutability":"view"},{"type":"function","name":"getTokenTxLimit","inputs":[{"name":"_contractAddress","type":"address","internalType":"address"},{"name":"_tokenId","type":"uint256","internalType":"uint256"}],"outputs":[{"name":"","type":"uint256","internalType":"uint256"}],"stateMutability":"view"},{"type":"function","name":"getTokenTxsPerAddress","inputs":[{"name":"_contractAddress","type":"address","internalType":"address"},{"name":"_tokenId","type":"uint256","internalType":"uint256"},{"name":"_address","type":"address","internalType":"address"}],"outputs":[{"name":"","type":"uint256","internalType":"uint256"}],"stateMutability":"view"},{"type":"function","name":"initialize","inputs":[{"name":"_networkBeneficiary","type":"address","internalType":"address"},{"name":"_marketplaceSettings","type":"address","internalType":"address"},{"name":"_spaceOperatorRegistry","type":"address","internalType":"address"},{"name":"_royaltyEngine","type":"address","internalType":"address"},{"name":"_payments","type":"address","internalType":"address"},{"name":"_approvedTokenRegistry","type":"address","internalType":"address"},{"name":"_stakingSettings","type":"address","internalType":"address"},{"name":"_stakingRegistry","type":"address","internalType":"address"},{"name":"_erc20ApprovalManager","type":"address","internalType":"address"},{"name":"_erc721ApprovalManager","type":"address","internalType":"address"},{"name":"_erc1155ApprovalManager","type":"address","internalType":"address"}],"outputs":[],"stateMutability":"nonpayable"},{"type":"function","name":"isPaused","inputs":[],"outputs":[{"name":"","type":"bool","internalType":"bool"}],"stateMutability":"view"},{"type":"function","name":"mintDirectSaleBatch","inputs":[{"name":"_contractAddress","type":"address","internalType":"address"},{"name":"_currencyAddress","type":"address","internalType":"address"},{"name":"_requests","type":"tuple[]","internalType":"struct IRareERC1155Listings.MintRequest[]","components":[{"name":"tokenId","type":"uint256","internalType":"uint256"},{"name":"price","type":"uint256","internalType":"uint256"},{"name":"quantity","type":"uint256","internalType":"uint256"},{"name":"proof","type":"bytes32[]","internalType":"bytes32[]"}]}],"outputs":[],"stateMutability":"payable"},{"type":"function","name":"owner","inputs":[],"outputs":[{"name":"","type":"address","internalType":"address"}],"stateMutability":"view"},{"type":"function","name":"prepareMintDirectSales","inputs":[{"name":"_contractAddress","type":"address","internalType":"address"},{"name":"_currencyAddress","type":"address","internalType":"address"},{"name":"_requests","type":"tuple[]","internalType":"struct IRareERC1155Listings.DirectSaleRequest[]","components":[{"name":"tokenId","type":"uint256","internalType":"uint256"},{"name":"price","type":"uint256","internalType":"uint256"},{"name":"startTime","type":"uint256","internalType":"uint256"},{"name":"maxMints","type":"uint256","internalType":"uint256"}]},{"name":"_splitRecipients","type":"address[]","internalType":"address payable[]"},{"name":"_splitRatios","type":"uint8[]","internalType":"uint8[]"}],"outputs":[],"stateMutability":"nonpayable"},{"type":"function","name":"proxiableUUID","inputs":[],"outputs":[{"name":"","type":"bytes32","internalType":"bytes32"}],"stateMutability":"view"},{"type":"function","name":"renounceOwnership","inputs":[],"outputs":[],"stateMutability":"nonpayable"},{"type":"function","name":"setApprovedTokenRegistry","inputs":[{"name":"_approvedTokenRegistry","type":"address","internalType":"address"}],"outputs":[],"stateMutability":"nonpayable"},{"type":"function","name":"setContractPaused","inputs":[{"name":"_isPaused","type":"bool","internalType":"bool"}],"outputs":[],"stateMutability":"nonpayable"},{"type":"function","name":"setERC1155ApprovalManager","inputs":[{"name":"_erc1155ApprovalManager","type":"address","internalType":"address"}],"outputs":[],"stateMutability":"nonpayable"},{"type":"function","name":"setERC20ApprovalManager","inputs":[{"name":"_erc20ApprovalManager","type":"address","internalType":"address"}],"outputs":[],"stateMutability":"nonpayable"},{"type":"function","name":"setERC721ApprovalManager","inputs":[{"name":"_erc721ApprovalManager","type":"address","internalType":"address"}],"outputs":[],"stateMutability":"nonpayable"},{"type":"function","name":"setMarketplaceSettings","inputs":[{"name":"_marketplaceSettings","type":"address","internalType":"address"}],"outputs":[],"stateMutability":"nonpayable"},{"type":"function","name":"setNetworkBeneficiary","inputs":[{"name":"_networkBeneficiary","type":"address","internalType":"address"}],"outputs":[],"stateMutability":"nonpayable"},{"type":"function","name":"setPayments","inputs":[{"name":"_payments","type":"address","internalType":"address"}],"outputs":[],"stateMutability":"nonpayable"},{"type":"function","name":"setRoyaltyEngine","inputs":[{"name":"_royaltyEngine","type":"address","internalType":"address"}],"outputs":[],"stateMutability":"nonpayable"},{"type":"function","name":"setSalePrices","inputs":[{"name":"_contractAddress","type":"address","internalType":"address"},{"name":"_currencyAddress","type":"address","internalType":"address"},{"name":"_requests","type":"tuple[]","internalType":"struct IRareERC1155Listings.SalePriceRequest[]","components":[{"name":"tokenId","type":"uint256","internalType":"uint256"},{"name":"price","type":"uint256","internalType":"uint256"},{"name":"quantity","type":"uint256","internalType":"uint256"},{"name":"expirationTime","type":"uint256","internalType":"uint256"}]},{"name":"_splitRecipients","type":"address[]","internalType":"address payable[]"},{"name":"_splitRatios","type":"uint8[]","internalType":"uint8[]"}],"outputs":[],"stateMutability":"nonpayable"},{"type":"function","name":"setSpaceOperatorRegistry","inputs":[{"name":"_spaceOperatorRegistry","type":"address","internalType":"address"}],"outputs":[],"stateMutability":"nonpayable"},{"type":"function","name":"setStakingRegistry","inputs":[{"name":"_stakingRegistry","type":"address","internalType":"address"}],"outputs":[],"stateMutability":"nonpayable"},{"type":"function","name":"setStakingSettings","inputs":[{"name":"_stakingSettings","type":"address","internalType":"address"}],"outputs":[],"stateMutability":"nonpayable"},{"type":"function","name":"setTokenAllowListConfigs","inputs":[{"name":"_contractAddress","type":"address","internalType":"address"},{"name":"_requests","type":"tuple[]","internalType":"struct IRareERC1155Listings.AllowListConfigRequest[]","components":[{"name":"tokenId","type":"uint256","internalType":"uint256"},{"name":"root","type":"bytes32","internalType":"bytes32"},{"name":"endTimestamp","type":"uint256","internalType":"uint256"}]}],"outputs":[],"stateMutability":"nonpayable"},{"type":"function","name":"setTokenMintLimits","inputs":[{"name":"_contractAddress","type":"address","internalType":"address"},{"name":"_requests","type":"tuple[]","internalType":"struct IRareERC1155Listings.TokenLimitRequest[]","components":[{"name":"tokenId","type":"uint256","internalType":"uint256"},{"name":"limit","type":"uint256","internalType":"uint256"}]}],"outputs":[],"stateMutability":"nonpayable"},{"type":"function","name":"setTokenTxLimits","inputs":[{"name":"_contractAddress","type":"address","internalType":"address"},{"name":"_requests","type":"tuple[]","internalType":"struct IRareERC1155Listings.TokenLimitRequest[]","components":[{"name":"tokenId","type":"uint256","internalType":"uint256"},{"name":"limit","type":"uint256","internalType":"uint256"}]}],"outputs":[],"stateMutability":"nonpayable"},{"type":"function","name":"transferOwnership","inputs":[{"name":"newOwner","type":"address","internalType":"address"}],"outputs":[],"stateMutability":"nonpayable"},{"type":"function","name":"upgradeTo","inputs":[{"name":"newImplementation","type":"address","internalType":"address"}],"outputs":[],"stateMutability":"nonpayable"},{"type":"function","name":"upgradeToAndCall","inputs":[{"name":"newImplementation","type":"address","internalType":"address"},{"name":"data","type":"bytes","internalType":"bytes"}],"outputs":[],"stateMutability":"payable"},{"type":"event","name":"AdminChanged","inputs":[{"name":"previousAdmin","type":"address","indexed":false,"internalType":"address"},{"name":"newAdmin","type":"address","indexed":false,"internalType":"address"}],"anonymous":false},{"type":"event","name":"BeaconUpgraded","inputs":[{"name":"beacon","type":"address","indexed":true,"internalType":"address"}],"anonymous":false},{"type":"event","name":"ContractPausedUpdated","inputs":[{"name":"isPaused","type":"bool","indexed":false,"internalType":"bool"}],"anonymous":false},{"type":"event","name":"Initialized","inputs":[{"name":"version","type":"uint8","indexed":false,"internalType":"uint8"}],"anonymous":false},{"type":"event","name":"MarketplaceDependencyUpdated","inputs":[{"name":"field","type":"bytes32","indexed":true,"internalType":"bytes32"},{"name":"dependency","type":"address","indexed":true,"internalType":"address"}],"anonymous":false},{"type":"event","name":"MintDirectSale","inputs":[{"name":"contractAddress","type":"address","indexed":true,"internalType":"address"},{"name":"tokenId","type":"uint256","indexed":true,"internalType":"uint256"},{"name":"buyer","type":"address","indexed":true,"internalType":"address"},{"name":"seller","type":"address","indexed":false,"internalType":"address"},{"name":"quantity","type":"uint256","indexed":false,"internalType":"uint256"},{"name":"currency","type":"address","indexed":false,"internalType":"address"},{"name":"price","type":"uint256","indexed":false,"internalType":"uint256"}],"anonymous":false},{"type":"event","name":"OwnershipTransferred","inputs":[{"name":"previousOwner","type":"address","indexed":true,"internalType":"address"},{"name":"newOwner","type":"address","indexed":true,"internalType":"address"}],"anonymous":false},{"type":"event","name":"PrepareMintDirectSale","inputs":[{"name":"contractAddress","type":"address","indexed":true,"internalType":"address"},{"name":"tokenId","type":"uint256","indexed":true,"internalType":"uint256"},{"name":"seller","type":"address","indexed":true,"internalType":"address"},{"name":"currency","type":"address","indexed":false,"internalType":"address"},{"name":"price","type":"uint256","indexed":false,"internalType":"uint256"},{"name":"startTime","type":"uint256","indexed":false,"internalType":"uint256"},{"name":"maxMints","type":"uint256","indexed":false,"internalType":"uint256"},{"name":"splitRecipients","type":"address[]","indexed":false,"internalType":"address payable[]"},{"name":"splitRatios","type":"uint8[]","indexed":false,"internalType":"uint8[]"}],"anonymous":false},{"type":"event","name":"SalePriceCancelled","inputs":[{"name":"seller","type":"address","indexed":true,"internalType":"address"},{"name":"contractAddress","type":"address","indexed":true,"internalType":"address"},{"name":"tokenId","type":"uint256","indexed":true,"internalType":"uint256"}],"anonymous":false},{"type":"event","name":"SalePriceSet","inputs":[{"name":"seller","type":"address","indexed":true,"internalType":"address"},{"name":"contractAddress","type":"address","indexed":true,"internalType":"address"},{"name":"tokenId","type":"uint256","indexed":true,"internalType":"uint256"},{"name":"currency","type":"address","indexed":false,"internalType":"address"},{"name":"price","type":"uint256","indexed":false,"internalType":"uint256"},{"name":"quantity","type":"uint256","indexed":false,"internalType":"uint256"},{"name":"expirationTime","type":"uint256","indexed":false,"internalType":"uint256"},{"name":"splitRecipients","type":"address[]","indexed":false,"internalType":"address payable[]"},{"name":"splitRatios","type":"uint8[]","indexed":false,"internalType":"uint8[]"}],"anonymous":false},{"type":"event","name":"SetTokenAllowListConfig","inputs":[{"name":"contractAddress","type":"address","indexed":true,"internalType":"address"},{"name":"tokenId","type":"uint256","indexed":true,"internalType":"uint256"},{"name":"root","type":"bytes32","indexed":false,"internalType":"bytes32"},{"name":"endTimestamp","type":"uint256","indexed":false,"internalType":"uint256"}],"anonymous":false},{"type":"event","name":"Sold","inputs":[{"name":"seller","type":"address","indexed":true,"internalType":"address"},{"name":"buyer","type":"address","indexed":true,"internalType":"address"},{"name":"contractAddress","type":"address","indexed":true,"internalType":"address"},{"name":"tokenId","type":"uint256","indexed":false,"internalType":"uint256"},{"name":"currency","type":"address","indexed":false,"internalType":"address"},{"name":"price","type":"uint256","indexed":false,"internalType":"uint256"},{"name":"quantity","type":"uint256","indexed":false,"internalType":"uint256"}],"anonymous":false},{"type":"event","name":"TokenMintLimitSet","inputs":[{"name":"contractAddress","type":"address","indexed":true,"internalType":"address"},{"name":"tokenId","type":"uint256","indexed":true,"internalType":"uint256"},{"name":"limit","type":"uint256","indexed":false,"internalType":"uint256"}],"anonymous":false},{"type":"event","name":"TokenTxLimitSet","inputs":[{"name":"contractAddress","type":"address","indexed":true,"internalType":"address"},{"name":"tokenId","type":"uint256","indexed":true,"internalType":"uint256"},{"name":"limit","type":"uint256","indexed":false,"internalType":"uint256"}],"anonymous":false},{"type":"event","name":"Upgraded","inputs":[{"name":"implementation","type":"address","indexed":true,"internalType":"address"}],"anonymous":false},{"type":"error","name":"AddressNotAllowlisted","inputs":[{"name":"_account","type":"address","internalType":"address"}]},{"type":"error","name":"ApprovalManagerCannotBeZero","inputs":[]},{"type":"error","name":"BatchSizeExceeded","inputs":[{"name":"supplied","type":"uint256","internalType":"uint256"},{"name":"max","type":"uint256","internalType":"uint256"}]},{"type":"error","name":"ContractHasNoOwner","inputs":[{"name":"_contractAddress","type":"address","internalType":"address"}]},{"type":"error","name":"ContractPaused","inputs":[]},{"type":"error","name":"CurrencyMismatch","inputs":[{"name":"_suppliedCurrency","type":"address","internalType":"address"},{"name":"_configuredCurrency","type":"address","internalType":"address"}]},{"type":"error","name":"CurrencyNotApproved","inputs":[{"name":"_currencyAddress","type":"address","internalType":"address"}]},{"type":"error","name":"DirectSaleNotConfigured","inputs":[{"name":"_contractAddress","type":"address","internalType":"address"},{"name":"_tokenId","type":"uint256","internalType":"uint256"}]},{"type":"error","name":"ERC20FeeOnTransferUnsupported","inputs":[{"name":"_currencyAddress","type":"address","internalType":"address"},{"name":"_expectedAmount","type":"uint256","internalType":"uint256"},{"name":"_receivedAmount","type":"uint256","internalType":"uint256"}]},{"type":"error","name":"EmptyBatch","inputs":[]},{"type":"error","name":"IncorrectETHAmount","inputs":[{"name":"_requiredAmount","type":"uint256","internalType":"uint256"},{"name":"_suppliedAmount","type":"uint256","internalType":"uint256"}]},{"type":"error","name":"InsufficientTokenBalance","inputs":[{"name":"_account","type":"address","internalType":"address"},{"name":"_contractAddress","type":"address","internalType":"address"},{"name":"_tokenId","type":"uint256","internalType":"uint256"},{"name":"_requestedQuantity","type":"uint256","internalType":"uint256"},{"name":"_availableQuantity","type":"uint256","internalType":"uint256"}]},{"type":"error","name":"InvalidERC1155Contract","inputs":[{"name":"_contractAddress","type":"address","internalType":"address"}]},{"type":"error","name":"InvalidERC1155Transfer","inputs":[{"name":"_contractAddress","type":"address","internalType":"address"},{"name":"_tokenId","type":"uint256","internalType":"uint256"},{"name":"_seller","type":"address","internalType":"address"},{"name":"_buyer","type":"address","internalType":"address"},{"name":"_quantity","type":"uint256","internalType":"uint256"}]},{"type":"error","name":"MarketConfigAddressCannotBeZero","inputs":[{"name":"_field","type":"bytes32","internalType":"bytes32"}]},{"type":"error","name":"MarketplaceNotApproved","inputs":[{"name":"_account","type":"address","internalType":"address"},{"name":"_contractAddress","type":"address","internalType":"address"}]},{"type":"error","name":"MaxMintExceeded","inputs":[{"name":"_requestedQuantity","type":"uint256","internalType":"uint256"},{"name":"_maxMints","type":"uint256","internalType":"uint256"}]},{"type":"error","name":"MintLimitExceeded","inputs":[{"name":"_contractAddress","type":"address","internalType":"address"},{"name":"_tokenId","type":"uint256","internalType":"uint256"},{"name":"_account","type":"address","internalType":"address"},{"name":"_requestedQuantity","type":"uint256","internalType":"uint256"},{"name":"_mintedQuantity","type":"uint256","internalType":"uint256"},{"name":"_limit","type":"uint256","internalType":"uint256"}]},{"type":"error","name":"MsgValueMustBeZero","inputs":[]},{"type":"error","name":"MsgValueUnsupportedForERC20","inputs":[]},{"type":"error","name":"NotContractOwner","inputs":[{"name":"_contractAddress","type":"address","internalType":"address"},{"name":"_account","type":"address","internalType":"address"}]},{"type":"error","name":"PayoutFailed","inputs":[{"name":"_revertData","type":"bytes","internalType":"bytes"}]},{"type":"error","name":"PayoutLengthMismatch","inputs":[{"name":"_recipientsLength","type":"uint256","internalType":"uint256"},{"name":"_amountsLength","type":"uint256","internalType":"uint256"}]},{"type":"error","name":"PayoutTotalMismatch","inputs":[{"name":"_expectedAmount","type":"uint256","internalType":"uint256"},{"name":"_actualAmount","type":"uint256","internalType":"uint256"}]},{"type":"error","name":"PlatformCommissionExceeded","inputs":[{"name":"_platformCommission","type":"uint256","internalType":"uint256"},{"name":"_maxPlatformCommission","type":"uint256","internalType":"uint256"}]},{"type":"error","name":"PriceMismatch","inputs":[{"name":"_suppliedPrice","type":"uint256","internalType":"uint256"},{"name":"_configuredPrice","type":"uint256","internalType":"uint256"}]},{"type":"error","name":"QuantityCannotBeZero","inputs":[]},{"type":"error","name":"QuantityExceedsSalePriceQuantity","inputs":[{"name":"_requestedQuantity","type":"uint256","internalType":"uint256"},{"name":"_availableQuantity","type":"uint256","internalType":"uint256"}]},{"type":"error","name":"RoyaltiesExceedSaleAmount","inputs":[{"name":"_royalties","type":"uint256","internalType":"uint256"},{"name":"_saleAmount","type":"uint256","internalType":"uint256"}]},{"type":"error","name":"SaleNotStarted","inputs":[{"name":"_startTime","type":"uint256","internalType":"uint256"}]},{"type":"error","name":"SalePriceCannotBeZero","inputs":[]},{"type":"error","name":"SalePriceDoesNotExist","inputs":[{"name":"_contractAddress","type":"address","internalType":"address"},{"name":"_tokenId","type":"uint256","internalType":"uint256"},{"name":"_seller","type":"address","internalType":"address"}]},{"type":"error","name":"SalePriceExpirationInvalid","inputs":[{"name":"_expirationTime","type":"uint256","internalType":"uint256"},{"name":"_currentTime","type":"uint256","internalType":"uint256"}]},{"type":"error","name":"SalePriceExpired","inputs":[{"name":"_contractAddress","type":"address","internalType":"address"},{"name":"_tokenId","type":"uint256","internalType":"uint256"},{"name":"_seller","type":"address","internalType":"address"},{"name":"_expirationTime","type":"uint256","internalType":"uint256"}]},{"type":"error","name":"SelfPurchaseUnsupported","inputs":[{"name":"_seller","type":"address","internalType":"address"}]},{"type":"error","name":"SplitLengthMismatch","inputs":[{"name":"_recipientsLength","type":"uint256","internalType":"uint256"},{"name":"_ratiosLength","type":"uint256","internalType":"uint256"}]},{"type":"error","name":"SplitRatioCannotBeZero","inputs":[{"name":"_index","type":"uint256","internalType":"uint256"}]},{"type":"error","name":"SplitRecipientCannotBeZero","inputs":[{"name":"_index","type":"uint256","internalType":"uint256"}]},{"type":"error","name":"SplitRecipientsExceededMax","inputs":[{"name":"_recipientsLength","type":"uint256","internalType":"uint256"},{"name":"_maxRecipients","type":"uint256","internalType":"uint256"}]},{"type":"error","name":"SplitRecipientsRequired","inputs":[]},{"type":"error","name":"SplitTotalInvalid","inputs":[{"name":"_totalRatio","type":"uint256","internalType":"uint256"},{"name":"_requiredTotal","type":"uint256","internalType":"uint256"}]},{"type":"error","name":"StakingFeeExceedsMarketplaceFee","inputs":[{"name":"_marketplaceFee","type":"uint256","internalType":"uint256"},{"name":"_stakingFee","type":"uint256","internalType":"uint256"}]},{"type":"error","name":"TokenIdsNotStrictlyAscending","inputs":[{"name":"index","type":"uint256","internalType":"uint256"},{"name":"previousTokenId","type":"uint256","internalType":"uint256"},{"name":"tokenId","type":"uint256","internalType":"uint256"}]},{"type":"error","name":"TokenNotFound","inputs":[{"name":"_contractAddress","type":"address","internalType":"address"},{"name":"_tokenId","type":"uint256","internalType":"uint256"}]},{"type":"error","name":"TransactionLimitExceeded","inputs":[{"name":"_contractAddress","type":"address","internalType":"address"},{"name":"_tokenId","type":"uint256","internalType":"uint256"},{"name":"_account","type":"address","internalType":"address"},{"name":"_usedTransactions","type":"uint256","internalType":"uint256"},{"name":"_limit","type":"uint256","internalType":"uint256"}]}],"bytecode":{"object":"0x60a08060405234620000e157306080526000549060ff8260081c166200008f575060ff8082160362000053575b604051616b939081620000e782396080518181816111220152818161172901526134920152f35b60ff90811916176000557f7f26b83ff96e1f2b6a682f133852f6798a09c465da95921460cefb3847402498602060405160ff8152a1386200002c565b62461bcd60e51b815260206004820152602760248201527f496e697469616c697a61626c653a20636f6e747261637420697320696e697469604482015266616c697a696e6760c81b6064820152608490fd5b600080fdfe6080604052600436101561001257600080fd5b60003560e01c80630a6ce31314610277578063176ab4401461027257806321ede0321461026d57806328fbba03146102685780632c740844146102635780632f79f3351461025e5780633492e5a8146102595780633659cfe614610254578063369679a41461024f578063373a94121461024a5780634f1ef2861461024557806352d1902d14610240578063552f791d1461023b5780635a501f8f14610236578063614bd944146102315780636442950e1461022c5780636e2f4d8b14610227578063715018a61461022257806376902b831461021d5780637777e6d7146102185780637f358230146102135780638760251a1461020e578063882796f1146102095780638da5cb5b14610204578063af231a58146101ff578063b187bd26146101fa578063be542141146101f5578063bf3d90f8146101f0578063c7c83d17146101eb578063c7ec1b98146101e6578063cfdbf254146101e1578063d7a9fb7c146101dc578063d80b23e3146101d7578063e4e87e3b146101d2578063f1035744146101cd578063f2fde38b146101c8578063ff3a52d4146101c35763ff5c83a4146101be57600080fd5b61301f565b612d26565b612c95565b612bc2565b612ae8565b612a0e565b612935565b612919565b61284a565b612814565b6127a4565b6125d6565b61250a565b61243f565b612416565b6123a7565b612378565b61229e565b611e60565b611dba565b611d5c565b611c7b565b611b1b565b6118f9565b611814565b6117d6565b611716565b611690565b6113c1565b61130d565b6110fb565b611025565b610e9f565b610d9c565b610d53565b610c56565b610b7f565b6102c2565b6001600160a01b0381160361028d57565b600080fd5b9181601f8401121561028d578235916001600160401b03831161028d576020808501946060850201011161028d57565b608036600319011261028d576102d960043561027c565b6102e460243561027c565b6102ef60443561027c565b6064356001600160401b03811161028d5761030e903690600401610292565b61031661423c565b60ff600080516020616b1e8339815191525416610b6d576103378183615e17565b6001600160a01b039133602435841614610b4b576103566044356155bc565b610361600435615678565b600080516020616a5e833981519152546103af90602090610392906001600160a01b03165b6001600160a01b031690565b6040518093819263e985e9c560e01b835260243560048401613c29565b038187600435165afa90811561074857600091610b1c575b5015610afc576103d6826142c7565b926103e0836142c7565b6103f16103ec85613ef4565b6142c7565b6103fd6103ec86613ef4565b9561040786614622565b9660008061042c610386600080516020616b3e8339815191525460018060a01b031690565b89831061089857506104419150604435615f35565b8660005b878282106107f35750506040516313849cfd60e21b815293905060008480610471858560048401614711565b038189600435165afa938415610748576000946107d8575b5060005b8881106107665750600080516020616a5e833981519152546104b7906001600160a01b0316610386565b91823b1561028d5760006040518094637ee7f69b60e01b82528183816104e88c8b3360243560043560048701614767565b03925af19182156107485761051b9360009361074d575b506040516313849cfd60e21b8152938492839260048401614711565b038188600435165afa90811561074857600091610727575b5060005b87811061064257505050505060005b838110610559576105576001606555565b005b806105bb610569600193886143bc565b51516020610577848a6143bc565b510151906040610587858b6143bc565b510151906060610597868c6143bc565b5101519160806105a7878d6143bc565b510151936024359260443590600435615265565b6105c581876143bc565b515160206105d4838888614455565b013560406105e3848989614455565b604080519485526044356001600160a01b031660208601528401929092520135606082015260043584169033906024358616907f12bc30bbc1c37d31b51d08cc6254da96f9626f008933e693e85e93074d78869490608090a401610546565b61064b81613ef4565b61065581846143bc565b5161067561066383886143bc565b5161066e858a6143bc565b5190614681565b14908115916106e9575b5061068c57600101610537565b6106a28161069b8793866143bc565b51926143bc565b51604051638791019960e01b81526001600160a01b036004803582169083015260248083019490945292359092166044830152336064830152608482015260a490fd5b0390fd5b905061071f61070d610700610706610700856143d0565b876143bc565b51936143d0565b5161071884896143bc565b51906143de565b14153861067f565b610742913d8091833e61073a81836115ff565b8101906146ec565b38610533565b613230565b8061075a61076092611544565b8061170b565b386104ff565b61076f81613ef4565b61077981876143bc565b5161078483896143bc565b5111610793575060010161048d565b6106e56107b888926107b1856107aa8b978b6143bc565b51956143bc565b51946143bc565b51604051938493636906ef1760e11b85526004356024356004870161448a565b6107ec91943d8091833e61073a81836115ff565b9238610489565b6108596002604061084d8560019761084761080f600435613d65565b6108306024359161082186868d614455565b35600052602052604060002090565b9060018060a01b0316600052602052604060002090565b96614455565b01359201918254614681565b8091551561086a575b018790610445565b61089361088e896108308c61082186610884600435613d65565b9260243595614455565b614575565b610862565b906108b56108a7848c8c614455565b604435602435600435615b8b565b6108bf848d6143bc565b526108ca838c6143bc565b506108d6838b8b614455565b356108e184876143bc565b5260406108ef848c8c614455565b01356108fb84896143bc565b5261093c602061090b85886143bc565b51604051627eeac760e11b8152602480356001600160a01b0316600483015281019190915291829081906044820190565b03818c600435165afa90811561074857600091610add575b5061095f84896143bc565b518110610aa35750610999602080610977868f6143bc565b510151604051809381926361fe24a960e11b8352600483019190602083019252565b0381865afa91821561074857600192858e6109f494600093610a69575b506040916109c3916143bc565b5101526109ee8d60406109e58860206109dc82866143bc565b510151936143bc565b510151906143de565b906143de565b926109fe81613ef4565b610a1d602435610a0e838b6143bc565b6001600160a01b039091169052565b610a3333610a0e610a2d846143d0565b8b6143bc565b610a3d82886143bc565b51610a4882886143bc565b52610a60610700610a59848a6143bc565b51926143d0565b5201919061042c565b6109c391935091610a9360409360203d602011610a9c575b610a8b81836115ff565b810190613221565b939150916109b6565b503d610a81565b876106e5610abc86610ab5818b6143bc565b51936143bc565b5192604051938493636906ef1760e11b85526004356024356004870161448a565b610af6915060203d602011610a9c57610a8b81836115ff565b38610954565b60405163d65b0d6960e01b8152806106e560043560243560048401613c29565b610b3e915060203d602011610b44575b610b3681836115ff565b810190614475565b386103c7565b503d610b2c565b60405163aac1ae8b60e01b8152602480356001600160a01b0316600483015290fd5b60405163ab35696f60e01b8152600490fd5b3461028d57602036600319011261028d57600435610b9c8161027c565b610ba4613090565b610bad816165de565b73__$c98ca6a62396e5a7a1471db151198a1f31$__90813b1561028d5760405163ed56be5b60e01b81526000805160206169de83398151915260048201526001600160a01b039091166024820181905291600090829060449082905af4801561074857610c43575b50734d41524b4554504c4143455f53455454494e475360601b600080516020616a7e833981519152600080a3005b8061075a610c5092611544565b38610c15565b3461028d57602036600319011261028d57600435610c738161027c565b610c7b613090565b610c848161661d565b73__$c98ca6a62396e5a7a1471db151198a1f31$__90813b1561028d5760405163143df10960e11b81526000805160206169de83398151915260048201526001600160a01b039091166024820181905291600090829060449082905af4801561074857610d14575b506d524f59414c54595f454e47494e4560901b600080516020616a7e833981519152600080a3005b8061075a610d2192611544565b38610cec565b606090600319011261028d57600435610d3f8161027c565b9060243590604435610d508161027c565b90565b3461028d576020610d93610d71610d6936610d27565b929091613d9e565b90600052835260406000209060018060a01b0316600052602052604060002090565b54604051908152f35b3461028d57602036600319011261028d57600435610db98161027c565b610dc1613090565b610dca81616656565b73__$c98ca6a62396e5a7a1471db151198a1f31$__90813b1561028d5760405163632c2a3160e11b81526000805160206169de83398151915260048201526001600160a01b039091166024820181905291600090829060449082905af4801561074857610e5c575b506f5354414b494e475f524547495354525960801b600080516020616a7e833981519152600080a3005b8061075a610e6992611544565b38610e32565b9181601f8401121561028d578235916001600160401b03831161028d576020808501948460051b01011161028d57565b3461028d5760408060031936011261028d576004908135610ebf8161027c565b6024356001600160401b03811161028d57610edd9036908501610e6f565b929093610ee861423c565b610ef184615ef3565b60015b848110610fa0575050506001600160a01b03811660005b838110610f1c576105576001606555565b80610f2b610f95928688614565565b356002610f4e3361083084610f3f8a613d65565b90600052602052604060002090565b015415610f9a57610f6961088e3361083084610f3f8a613d65565b83337f46227bd805037a939224e05cd991a64cb464f4b5c5317858af210838e59ce390600080a4613c59565b610f0b565b50613c59565b610fab818688614565565b6000198201903582821161102057610fc482888a614565565b351015610fda5750610fd590613c59565b610ef4565b9286610ff78388610ff06106e596988286614565565b3593614565565b915163f48f718f60e01b8152938401948552602085015235604084015290918291606090910190565b613c43565b3461028d57602036600319011261028d576004356110428161027c565b61104a613090565b61105381616691565b73__$c98ca6a62396e5a7a1471db151198a1f31$__90813b1561028d5760405163148282a760e21b81526000805160206169de83398151915260048201526001600160a01b039091166024820181905291600090829060449082905af48015610748576110e8575b50724e4554574f524b5f42454e454649434941525960681b600080516020616a7e833981519152600080a3005b8061075a6110f592611544565b386110bb565b3461028d57602036600319011261028d576004356111188161027c565b6001600160a01b037f0000000000000000000000000000000000000000000000000000000000000000811691906111513084141561315f565b61116e6000805160206169fe8339815191529382855416146131c0565b611176613090565b60405190611183826115c9565b600082527f4910fdfa16fed3260ed0e7147f7cc6da11a60208b5b9406d12a635614ffd91435460ff16156111bd57505061055791506132e9565b6020600491604094939451928380926352d1902d60e01b825286165afa60009181611214575b506112015760405162461bcd60e51b8152806106e56004820161329a565b6105579361120f911461323c565b613379565b61122d91925060203d8111610a9c57610a8b81836115ff565b90386111e3565b90815180825260208080930193019160005b828110611254575050505090565b83516001600160a01b031685529381019392810192600101611246565b90815180825260208080930193019160005b828110611291575050505090565b835160ff1685529381019392810192600101611283565b90610d50916020815260018060a01b03825116602082015260208201516040820152604082015160608201526060820151608082015260a06112f8608084015160c08385015260e0840190611234565b9201519060c0601f1982850301910152611271565b3461028d576113bd61135861133561132436610d27565b92909161132f6142f9565b50613d65565b9060005260205260406000209060018060a01b0316600052602052604060002090565b6113ac60056040519261136a8461155c565b80546001600160a01b031684526001810154602085015260028101546040850152600381015460608501526113a1600482016147bd565b608085015201614815565b60a0820152604051918291826112a8565b0390f35b3461028d5760408060031936011261028d576004356113df8161027c565b6024356001600160401b03811161028d576113fe903690600401610292565b91909261140961423c565b61141a611416338461692e565b1590565b61150d57916114298185615e17565b6001600160a01b0382169060005b818110611448576105576001606555565b80611457611508928489614455565b3561146281876157c1565b847fa3f36b03a37e1948b5a4d52ddc1d9f62ab7d4e887e3a0a03e0c68d40f6075f3f89896114ee86898c6114db866114ca8b610f3f6020958a6114b48a8a8a6114ac83838c614455565b013598614455565b01356114be611620565b95865287860152613dd7565b906020600191805184550151910155565b6114e6838388614455565b013594614455565b8b519283520135602082015280604081015b0390a3613c59565b611437565b51600162bed83560e01b03198152915081906106e590339060048401613c29565b634e487b7160e01b600052604160045260246000fd5b6001600160401b03811161155757604052565b61152e565b60c081019081106001600160401b0382111761155757604052565b61014081019081106001600160401b0382111761155757604052565b60e081019081106001600160401b0382111761155757604052565b604081019081106001600160401b0382111761155757604052565b602081019081106001600160401b0382111761155757604052565b606081019081106001600160401b0382111761155757604052565b90601f801991011681019081106001600160401b0382111761155757604052565b6040519061162d826115ae565b565b6040519061162d82611577565b6040519061162d82611593565b6040519061162d8261155c565b6040519060a082018281106001600160401b0382111761155757604052565b6001600160401b03811161155757601f01601f191660200190565b604036600319011261028d576004356116a88161027c565b602435906001600160401b03821161028d573660238301121561028d578160040135906116d482611675565b916116e260405193846115ff565b808352366024828601011161028d57602081600092602461055797018387013784010152613488565b600091031261028d57565b3461028d57600036600319011261028d577f00000000000000000000000000000000000000000000000000000000000000006001600160a01b03163003611770576040516000805160206169fe8339815191528152602090f35b60405162461bcd60e51b815260206004820152603860248201527f555550535570677261646561626c653a206d757374206e6f742062652063616c6044820152771b1959081d1a1c9bdd59da0819195b1959d85d1958d85b1b60421b6064820152608490fd5b3461028d57604036600319011261028d576117fb6004356117f68161027c565b613e10565b6024356000526020526020604060002054604051908152f35b3461028d576020610d93610d7161182a36610d27565b929091613e49565b81516001600160a01b031681526101408101929161162d91906020818101516001600160a01b0316908301526040818101516001600160a01b0316908301526060818101516001600160a01b0316908301526080818101516001600160a01b03169083015260a0818101516001600160a01b03169083015260c0818101516001600160a01b03169083015260e0818101516001600160a01b031690830152610100818101516001600160a01b031690830152610120908101516001600160a01b0316910152565b3461028d57600080600319360112611ac0576113bd90611ab460405161191e81611577565b8281528260208201528260408201528260608201528260808201528260a08201528260c08201528260e082015261010092808483015261012080920152611a8361196661162f565b6000805160206169de833981519152546001600160a01b0316815293600080516020616b3e833981519152546119b0906001600160a01b03165b6001600160a01b03166020870152565b600080516020616ade833981519152546001600160a01b03166040860152600080516020616afe833981519152546001600160a01b03166060860152600080516020616a1e833981519152546001600160a01b03166080860152600080516020616a9e833981519152546001600160a01b031660a0860152600080516020616abe833981519152546001600160a01b031660c08601526000805160206169be833981519152546001600160a01b031660e0860152600080516020616a3e833981519152546001600160a01b031690850152565b7f094ebcede13e570fe473dc3b580b6f2befba2d2420d1e71f35699327bd0e1309546001600160a01b031690830152565b60405191829182611832565b80fd5b604060031982011261028d57600435611adb8161027c565b916024356001600160401b039283821161028d578060238301121561028d57816004013593841161028d5760248460061b8301011161028d576024019190565b3461028d57611b2936611ac3565b611b3492919261423c565b611b41611416338461692e565b611bea57611b4f8184615e85565b60005b818110611b63576105576001606555565b80611b72611be5928487614465565b35611b7d81866157c1565b602080611b8b84878a614465565b0135611b9a83610f3f89613e10565b55611ba6838689614465565b60405191013581526001600160a01b038616907f2f2a73977f9734e3b74f4efe888b44cdcca6903d8ab2b5be49c3969cc6cb1b62908060208101611500565b611b52565b604051600162bed83560e01b03198152806106e5338560048401613c29565b90610d50916020815260018060a01b0380835116602083015260208301511660408201526040820151606082015260608201516080820152608082015160a082015260c0611c6660a084015160e083850152610100840190611234565b9201519060e0601f1982850301910152611271565b3461028d5760408060031936011261028d57806113bd91600435611c9e8161027c565b611cda825191611cad83611593565b606060c0600094858152856020820152858782015285838201528560808201528260a08201520152613e82565b60243582526020522090611d4d6006825193611cf585611593565b80546001600160a01b031685526001810154611d19906001600160a01b03166119a0565b6002810154848601526003810154606086015260048101546080860152611d42600582016147bd565b60a086015201614815565b60c08301525191829182611c09565b3461028d57600080600319360112611ac057611d76613090565b603380546001600160a01b0319811690915581906001600160a01b03167f8be0079c531659141344cd1fd0a4f28419497f9722a3daafe3b4186f6b6457e08280a380f35b3461028d5761016036600319011261028d57610557600435611ddb8161027c565b602435611de78161027c565b604435611df38161027c565b606435611dff8161027c565b608435611e0b8161027c565b60a435611e178161027c565b60c43591611e248361027c565b60e43593611e318561027c565b6101043595611e3f8761027c565b6101243597611e4d8961027c565b6101443599611e5b8b61027c565b613698565b606036600319011261028d576004611e78813561027c565b611e8360243561027c565b6044356001600160401b03811161028d57611ea19036908301610e6f565b91611eaa61423c565b60ff600080516020616b1e833981519152541661228f57611ecb8383615da9565b611ed66024356155bc565b611edf836142c7565b611ee8846142c7565b611ef18561432d565b916000805b87811061214c5750611f0a90602435615f35565b60005b8681106120b6575083356001600160a01b03163b1561028d57604051630d4498e760e21b81529160009183918291611f4991903389850161441f565b03818387356001600160a01b03165af18015610748576120a3575b5060005b848110611f79576105576001606555565b806020611f88600193856143bc565b510151612044575b611f9a81846143bc565b5151611fba6060611fab84876143bc565b5101516001600160a01b031690565b906040611fc8848a8a61437d565b01357f62f45af1ef781f07a7efa5cc0678ca0c3cdaed8c8bbe87e057d7eb5bcff7a18c61203b6020611ffb878d8d61437d565b013560405191829133978a8060a01b038d351696602435918590606092959493608083019660018060a01b03809316845260208401521660408201520152565b0390a401611f68565b61209e602061205383866143bc565b510151604061206284876143bc565b5101516120746060611fab86896143bc565b608061208086896143bc565b5101519160a0612090878a6143bc565b510151936024358a35614f78565b611f90565b8061075a6120b092611544565b38611f64565b806120c4600192898961437d565b356120d381610f3f8935613ebb565b54612119575b6120e781610f3f8935613e10565b546120f4575b5001611f0d565b612107906108303391610f3f8a35613e49565b61211181546143d0565b9055386120ed565b6040612126838b8b61437d565b013561214561213d3361083085610f3f8d35613d9e565b9182546143de565b90556120d9565b61216561215a828a8a61437d565b336024358935615881565b61216f82876143bc565b5261217a81866143bc565b5060208061218883886143bc565b5101516121cb575b508061219e600192876143bc565b51516121aa82866143bc565b5260406121b8828b8b61437d565b01356121c482876143bc565b5201611ef6565b600080516020616b3e83398151915254919290916121f1906001600160a01b0316610386565b906122268380612201878b6143bc565b5101516040948b86518095819482936361fe24a960e11b845283019190602083019252565b03915afa9283156107485760019461226b946109ee93600091612272575b5082612250898d6143bc565b51015261225d878b6143bc565b510151906109e5878b6143bc565b9190612190565b6122899150823d8411610a9c57610a8b81836115ff565b38612244565b60405163ab35696f60e01b8152fd5b3461028d57602036600319011261028d576004356122bb8161027c565b6122c3613090565b6122cc816166cf565b73__$c98ca6a62396e5a7a1471db151198a1f31$__90813b1561028d576040516362cd1f1560e11b81526000805160206169de83398151915260048201526001600160a01b039091166024820181905291600090829060449082905af4801561074857612365575b507653504143455f4f50455241544f525f524547495354525960481b600080516020616a7e833981519152600080a3005b8061075a61237292611544565b38612334565b3461028d57604036600319011261028d576117fb6004356123988161027c565b613ebb565b8015150361028d57565b3461028d57602036600319011261028d577fae6fb668d2dacbb6cc6e620b898a7166d67d7838c94ddeff2dbdf55995e9b19260206004356123e78161239d565b6123ef613090565b1515600080516020616b1e83398151915260ff1981541660ff8316179055604051908152a1005b3461028d57600036600319011261028d576033546040516001600160a01b039091168152602090f35b3461028d57602036600319011261028d5760043561245c8161027c565b612464613090565b61246d81616711565b73__$c98ca6a62396e5a7a1471db151198a1f31$__90813b1561028d57604051631d1d389760e11b81526000805160206169de83398151915260048201526001600160a01b039091166024820181905291600090829060449082905af48015610748576124f7575b50675041594d454e545360c01b600080516020616a7e833981519152600080a3005b8061075a61250492611544565b386124d5565b3461028d57600036600319011261028d57602060ff600080516020616b1e83398151915254166040519015158152f35b9060a060031983011261028d576004356125538161027c565b916024356125608161027c565b91604435916001600160401b039081841161028d578060238501121561028d5783600401359382851161028d578160248660071b8301011161028d57602401939260643583811161028d57826125b891600401610e6f565b9390939260843591821161028d576125d291600401610e6f565b9091565b3461028d576125e43661253a565b6125f597969197959492939561423c565b60ff600080516020616b1e8339815191525416610b6d57612619611416338961692e565b612785576126278386615d10565b612630826155bc565b61263c8189868961612c565b60005b838110612650576105576001606555565b878787838787878f8c612664868689613c7e565b3597612670898b6157c1565b8660208061267f838a8d613c7e565b0135888b60409b8c9261269192613c7e565b0135898c60609586926126a392613c7e565b0135906126ae61163c565b338152926001600160a01b038b1684860152838d01528483015260808201526126d8368686613caa565b60a08201528b8d6126ea368a8a613d0d565b60c08401526126f890613e82565b6000918252602052604090209061270e916140ad565b6127198d898c613c7e565b0135988c89612729828b85613c7e565b01359861273592613c7e565b01359651968796339b600160a01b600190031699612753978961417f565b037f4c048dfd080dcfa2cccc41ef603e5f0ed6602ca215a41581d653aadf841a560b91a461278090613c59565b61263f565b604051600162bed83560e01b03198152806106e5338a60048401613c29565b3461028d5760408060031936011261028d576127de6004356127c58161027c565b6000602084516127d4816115ae565b8281520152613dd7565b6024356000526020528060002081516127f6816115ae565b60206001835493848452015491019081528251918252516020820152f35b3461028d57600036600319011261028d57600080516020616a5e833981519152546040516001600160a01b039091168152602090f35b3461028d5761285836611ac3565b61286392919261423c565b612870611416338461692e565b611bea5761287e8184615e85565b60005b818110612892576105576001606555565b806128a1612914928487614465565b356128ac81866157c1565b6020806128ba84878a614465565b01356128c983610f3f89613ebb565b556128d5838689614465565b60405191013581526001600160a01b038616907feead0384c6f48c02c0099b2433359d43617492f06d8e3a59cbe786b9970f7e61908060208101611500565b612881565b3461028d57600036600319011261028d57602060405160648152f35b3461028d57602036600319011261028d576004356129528161027c565b61295a613090565b612963816167c1565b73__$c98ca6a62396e5a7a1471db151198a1f31$__90813b1561028d576040516328b80cf560e21b81526000805160206169de83398151915260048201526001600160a01b039091166024820181905291600090829060449082905af48015610748576129fb575b507522a92199182fa0a8282927ab20a62fa6a0a720a3a2a960511b600080516020616a7e833981519152600080a3005b8061075a612a0892611544565b386129cb565b3461028d57602036600319011261028d57600435612a2b8161027c565b612a33613090565b612a3c816167c1565b73__$c98ca6a62396e5a7a1471db151198a1f31$__90813b1561028d57604051631f1afd0d60e01b81526000805160206169de83398151915260048201526001600160a01b039091166024820181905291600090829060449082905af4801561074857612ad5575b507622a9219b9918afa0a8282927ab20a62fa6a0a720a3a2a960491b600080516020616a7e833981519152600080a3005b8061075a612ae292611544565b38612aa4565b3461028d57602036600319011261028d57600435612b058161027c565b612b0d613090565b612b1681616744565b73__$c98ca6a62396e5a7a1471db151198a1f31$__90813b1561028d57604051632867932b60e11b81526000805160206169de83398151915260048201526001600160a01b039091166024820181905291600090829060449082905af4801561074857612baf575b5076415050524f5645445f544f4b454e5f524547495354525960481b600080516020616a7e833981519152600080a3005b8061075a612bbc92611544565b38612b7e565b3461028d57602036600319011261028d57600435612bdf8161027c565b612be7613090565b612bf081616786565b73__$c98ca6a62396e5a7a1471db151198a1f31$__90813b1561028d57604051632d8b49e160e11b81526000805160206169de83398151915260048201526001600160a01b039091166024820181905291600090829060449082905af4801561074857612c82575b506f5354414b494e475f53455454494e475360801b600080516020616a7e833981519152600080a3005b8061075a612c8f92611544565b38612c58565b3461028d57602036600319011261028d57600435612cb28161027c565b612cba613090565b6001600160a01b03811615612cd25761055790613116565b60405162461bcd60e51b815260206004820152602660248201527f4f776e61626c653a206e6577206f776e657220697320746865207a65726f206160448201526564647265737360d01b6064820152608490fd5b3461028d57612d343661253a565b90612d449792969395949761423c565b60ff600080516020616b1e8339815191525416610b6d57612d658886615d10565b612d6e846155bc565b612d7a8282898961612c565b612d8383615678565b600080516020616a5e83398151915254612dc790602090612dac906001600160a01b0316610386565b6040518093819263e985e9c560e01b83523360048401613c29565b03816001600160a01b0388165afa90811561074857600091613000575b5015612fe45760005b888110612dfe576105576001606555565b612e09818a88613c7e565b35868a6060612e37856040612e2e82866020612e2683838c613c7e565b013598613c7e565b0135938c613c7e565b01358215612fd2578115612fc05780151580612fb6575b612f9657604051627eeac760e11b8152336004820152602481018590526020816044816001600160a01b038d165afa90811561074857600091612f77575b50828110612f5657507fe4cf997ce4def583f8220b51e6c89b5dbf6eeded5de4d1d78884a25d2bf46d5d839289612f498f8f8c918f97918d92612f328a612f519f9e9d8e612f2d91612eee612edf611649565b6001600160a01b039095168552565b60208401528b6040840152846060840152612f0a368888613caa565b6080840152612f1a368a8a613d0d565b60a08401526108303391610f3f8d613d65565b6144bc565b60405197889760018060a01b03169b339b8961417f565b0390a4613c59565b612ded565b604051636906ef1760e11b81529081906106e59085888d336004870161448a565b612f90915060203d602011610a9c57610a8b81836115ff565b38612e8c565b6040516346a836ff60e11b81526004810191909152426024820152604490fd5b5042811115612e4e565b60405163c6b949a960e01b8152600490fd5b6040516331cc996d60e11b8152600490fd5b60405163d65b0d6960e01b8152806106e5853360048401613c29565b613019915060203d602011610b4457610b3681836115ff565b38612de4565b3461028d57602036600319011261028d5760043561303c8161027c565b613044613090565b61304d816167c1565b6001600160a01b031661305f816130e8565b7722a92198989a9aafa0a8282927ab20a62fa6a0a720a3a2a960411b600080516020616a7e833981519152600080a3005b6033546001600160a01b031633036130a457565b606460405162461bcd60e51b815260206004820152602060248201527f4f776e61626c653a2063616c6c6572206973206e6f7420746865206f776e65726044820152fd5b600080516020616a5e83398151915280546001600160a01b0319166001600160a01b03909216919091179055565b603380546001600160a01b039283166001600160a01b0319821681179092559091167f8be0079c531659141344cd1fd0a4f28419497f9722a3daafe3b4186f6b6457e0600080a3565b1561316657565b60405162461bcd60e51b815260206004820152602c60248201527f46756e6374696f6e206d7573742062652063616c6c6564207468726f7567682060448201526b19195b1959d85d1958d85b1b60a21b6064820152608490fd5b156131c757565b60405162461bcd60e51b815260206004820152602c60248201527f46756e6374696f6e206d7573742062652063616c6c6564207468726f7567682060448201526b6163746976652070726f787960a01b6064820152608490fd5b9081602091031261028d575190565b6040513d6000823e3d90fd5b1561324357565b60405162461bcd60e51b815260206004820152602960248201527f45524331393637557067726164653a20756e737570706f727465642070726f786044820152681a58589b195555525160ba1b6064820152608490fd5b60809060208152602e60208201527f45524331393637557067726164653a206e657720696d706c656d656e7461746960408201526d6f6e206973206e6f74205555505360901b60608201520190565b803b1561331e576000805160206169fe83398151915280546001600160a01b0319166001600160a01b03909216919091179055565b60405162461bcd60e51b815260206004820152602d60248201527f455243313936373a206e657720696d706c656d656e746174696f6e206973206e60448201526c1bdd08184818dbdb9d1c9858dd609a1b6064820152608490fd5b90613383826132e9565b6001600160a01b0382167fbc7cd75a20ee27fd9adebab32041f755214dbc6bffa90cc0225b39da2e5c2d3b600080a280511580159061342d575b6133c5575050565b61342a91600080604051936133d9856115e4565b602785527f416464726573733a206c6f772d6c6576656c2064656c65676174652063616c6c6020860152660819985a5b195960ca1b6040860152602081519101845af4613424613593565b916135c3565b50565b5060006133bd565b9061343f826132e9565b6001600160a01b0382167fbc7cd75a20ee27fd9adebab32041f755214dbc6bffa90cc0225b39da2e5c2d3b600080a2805115801590613480576133c5575050565b5060016133bd565b6001600160a01b037f0000000000000000000000000000000000000000000000000000000000000000811692906134c13085141561315f565b6134de6000805160206169fe8339815191529482865416146131c0565b6134e6613090565b7f4910fdfa16fed3260ed0e7147f7cc6da11a60208b5b9406d12a635614ffd91435460ff161561351c57505061162d91506132e9565b6020600491604094939451928380926352d1902d60e01b825286165afa60009181613573575b506135605760405162461bcd60e51b8152806106e56004820161329a565b61162d9361356e911461323c565b613435565b61358c91925060203d8111610a9c57610a8b81836115ff565b9038613542565b3d156135be573d906135a482611675565b916135b260405193846115ff565b82523d6000602084013e565b606090565b9192901561362557508151156135d7575090565b3b156135e05790565b60405162461bcd60e51b815260206004820152601d60248201527f416464726573733a2063616c6c20746f206e6f6e2d636f6e74726163740000006044820152606490fd5b8251909150156136385750805190602001fd5b60405162461bcd60e51b8152602060048201529081906106e59060248301905b919082519283825260005b848110613684575050826000602080949584010152601f8019910116010190565b602081830181015184830182015201613663565b989694929099979593916000549a60ff8c60081c1615809c819d6137be575b811561379e575b5015613742576136e49a8c6136db600160ff196000541617600055565b61372957613a16565b6136ea57565b6136fa61ff001960005416600055565b604051600181527f7f26b83ff96e1f2b6a682f133852f6798a09c465da95921460cefb384740249890602090a1565b61373d61010061ff00196000541617600055565b613a16565b60405162461bcd60e51b815260206004820152602e60248201527f496e697469616c697a61626c653a20636f6e747261637420697320616c72656160448201526d191e481a5b9a5d1a585b1a5e995960921b6064820152608490fd5b303b159150816137b0575b50386136be565b6001915060ff1614386137a9565b600160ff82161091506136b7565b519061162d8261027c565b908161014091031261028d576137eb61162f565b906137f5816137cc565b8252613803602082016137cc565b6020830152613814604082016137cc565b6040830152613825606082016137cc565b6060830152613836608082016137cc565b608083015261384760a082016137cc565b60a083015261385860c082016137cc565b60c083015261386960e082016137cc565b60e083015261010061387c8183016137cc565b9083015261388e6101208092016137cc565b9082015290565b80516000805160206169de83398151915280546001600160a01b03199081166001600160a01b03938416179091556020830151600080516020616b3e833981519152805483169184169190911790556040830151600080516020616ade833981519152805483169184169190911790556060830151600080516020616afe833981519152805483169184169190911790556080830151600080516020616a1e8339815191528054831691841691909117905560a0830151600080516020616a9e8339815191528054831691841691909117905560c0830151600080516020616abe8339815191528054831691841691909117905560e08301516000805160206169be83398151915280548316918416919091179055610100830151600080516020616a3e83398151915280549092169083161790556101209091015161162d91167f094ebcede13e570fe473dc3b580b6f2befba2d2420d1e71f35699327bd0e130980546001600160a01b0319166001600160a01b03909216919091179055565b95613af1979293959a98949996613a2c81616691565b613a35836165de565b613a3e856166cf565b613a478761661d565b613a508b616711565b613a598c616744565b613a6282616786565b613a6b84616656565b613a74866167c1565b613a7d886167c1565b613a868a6167c1565b60405163ef8c824960e01b81526001600160a01b039182166004820152928116602484015293841660448301529483166064820152978216608489015297811660a488015291821660c487015295811660e48601529485166101048501528416610124840152919291565b61014080846101448173__$c98ca6a62396e5a7a1471db151198a1f31$__5af4801561074857613b3494613b2e92600092613b4c575b5050613895565b166130e8565b613b3c613bd9565b613b44613c0d565b61162d613bfc565b613b6b9250803d10613b72575b613b6381836115ff565b8101906137d7565b3880613b27565b503d613b59565b15613b8057565b60405162461bcd60e51b815260206004820152602b60248201527f496e697469616c697a61626c653a20636f6e7472616374206973206e6f74206960448201526a6e697469616c697a696e6760a81b6064820152608490fd5b613bf360ff60005460081c16613bee81613b79565b613b79565b61162d33613116565b61162d60ff60005460081c16613b79565b613c2260ff60005460081c16613bee81613b79565b6001606555565b6001600160a01b0391821681529116602082015260400190565b634e487b7160e01b600052601160045260246000fd5b60001981146110205760010190565b634e487b7160e01b600052603260045260246000fd5b9190811015613c8e5760071b0190565b613c68565b6001600160401b0381116115575760051b60200190565b9291613cb582613c93565b91613cc360405193846115ff565b829481845260208094019160051b810192831161028d57905b828210613ce95750505050565b8380918335613cf78161027c565b815201910190613cdc565b60ff81160361028d57565b9291613d1882613c93565b91613d2660405193846115ff565b829481845260208094019160051b810192831161028d57905b828210613d4c5750505050565b8380918335613d5a81613d02565b815201910190613d3f565b6001600160a01b031660009081527f094ebcede13e570fe473dc3b580b6f2befba2d2420d1e71f35699327bd0e13116020526040902090565b6001600160a01b031660009081527f094ebcede13e570fe473dc3b580b6f2befba2d2420d1e71f35699327bd0e130e6020526040902090565b6001600160a01b031660009081527f094ebcede13e570fe473dc3b580b6f2befba2d2420d1e71f35699327bd0e130c6020526040902090565b6001600160a01b031660009081527f094ebcede13e570fe473dc3b580b6f2befba2d2420d1e71f35699327bd0e130f6020526040902090565b6001600160a01b031660009081527f094ebcede13e570fe473dc3b580b6f2befba2d2420d1e71f35699327bd0e13106020526040902090565b6001600160a01b031660009081527f094ebcede13e570fe473dc3b580b6f2befba2d2420d1e71f35699327bd0e130b6020526040902090565b6001600160a01b031660009081527f094ebcede13e570fe473dc3b580b6f2befba2d2420d1e71f35699327bd0e130d6020526040902090565b908160011b918083046002149015171561102057565b8181029291811591840414171561102057565b818110613f28575050565b60008155600101613f1d565b90600160401b811161155757815490808355818110613f5257505050565b61162d9260005260206000209182019101613f1d565b90600160401b8111611557578154818355808210613f8557505050565b61162d92600052601f6020600020918180850160051c8401941680613fb1575b500160051c0190613f1d565b600019908186019182549160200360031b1c16905538613fa5565b9080516001600160401b03811161155757613fe78184613f68565b613ffb602080930193600052602060002090565b908060051c9260005b8481106140775750601f1982169091039081614022575b5050505050565b9390600094855b82811061404057505050500155388080808061401b565b909192958261406c600192846140578b5160ff1690565b919060ff809160031b9316831b921b19161790565b970193929101614029565b6000805b83811061408f575084820155600101614004565b9690836140a46001928a614057865160ff1690565b9201970161407b565b815181546001600160a01b0319166001600160a01b03918216178255909190602082810151600185810180549285166001600160a01b03166001600160a01b03199093169290921790915591604084015160028601556060840151600386015560808401516004860155600585019060a0850151928351936001600160401b03851161155757819061413f8686613f34565b0192600052806000209160005b85811061416c575050505050505090600660c061162d9301519101613fcc565b845182168482015593820193860161414c565b93928692979896919360c086019160018060a01b0380961687526020998a8801526040870152606086015260c060808601525260e08301939060005b81811061420c575050505080820360a0909101528181528201929160005b8281106141e7575050505090565b90919293828060019260ff88356141fd81613d02565b168152019501939291016141d9565b909193929897969485806001928c88356142258161027c565b1681520195019101989293949697989190916141bb565b60026065541461424d576002606555565b60405162461bcd60e51b815260206004820152601f60248201527f5265656e7472616e637947756172643a207265656e7472616e742063616c6c006044820152606490fd5b6040519061429f826115ae565b6001825260203681840137565b604051906142b9826115e4565b600282526040366020840137565b906142d182613c93565b6142de60405191826115ff565b82815280926142ef601f1991613c93565b0190602036910137565b604051906143068261155c565b606060a0836000815260006020820152600060408201526000838201528260808201520152565b9061433782613c93565b61434460405191826115ff565b8281528092614355601f1991613c93565b019060005b82811061436657505050565b6020906143716142f9565b8282850101520161435a565b9190811015613c8e5760051b81013590607e198136030182121561028d570190565b805115613c8e5760200190565b805160011015613c8e5760400190565b8051821015613c8e5760209160051b010190565b906001820180921161102057565b9190820180921161102057565b90815180825260208080930193019160005b82811061440b575050505090565b8351855293810193928101926001016143fd565b6001600160a01b039091168152606060208201819052610d50939192614447918401906143eb565b9160408184039101526143eb565b9190811015613c8e576060020190565b9190811015613c8e5760061b0190565b9081602091031261028d5751610d508161239d565b6001600160a01b0391821681529116602082015260408101919091526060810191909152608081019190915260a00190565b815181546001600160a01b0319166001600160a01b039182161782559091906020808301519160019283860155604084015160028601556060840151600386015560048501906080850151928351936001600160401b0385116115575781906145258686613f34565b0192600052806000209160005b858110614552575050505050505090600560a061162d9301519101613fcc565b8451821684820155938201938601614532565b9190811015613c8e5760051b0190565b6005600091828155826001820155826002820155826003820155600481018054848255806145cb575b50500190815490808355816145b257505050565b60208161162d94601f935220910160051c810190613f1d565b6145de9185526020852090810190613f1d565b388061459e565b6040519060a082018281106001600160401b0382111761155757604052606060808360008152600060208201526000604082015282808201520152565b9061462c82613c93565b61463960405191826115ff565b828152809261464a601f1991613c93565b019060005b82811061465b57505050565b6020906146666145e5565b8282850101520161464f565b60001981019190821161102057565b9190820391821161102057565b81601f8201121561028d578051916146a583613c93565b926146b360405194856115ff565b808452602092838086019260051b82010192831161028d578301905b8282106146dd575050505090565b815181529083019083016146cf565b9060208282031261028d5781516001600160401b03811161028d57610d50920161468e565b9092916040820191604081528451809352606081019260208096019060005b81811061474a57505050610d5093948184039101526143eb565b82516001600160a01b031686529487019491870191600101614730565b93602095926147ac9461479e9360018060a01b0392838092168952168888015216604086015260c0606086015260c08501906143eb565b9083820360808501526143eb565b9060a0818303910152600081520190565b9060405191828154918282526020928383019160005283600020936000905b8282106147f25750505061162d925003836115ff565b85546001600160a01b0316845260019586019588955093810193909101906147dc565b9060408051809380549261483c614830858560209181520190565b92600052602060002090565b9360005b81601f820110614c585761162d955492828210614c42575b828210614c28575b828210614c0e575b828210614bf4575b828210614bda575b828210614bc0575b828210614ba6575b828210614b8c575b828210614b75575b50818110614b5d575b818110614b45575b818110614b2d575b818110614b15575b818110614afd575b818110614ae5575b818110614acd575b818110614ab5575b818110614a9d575b818110614a85575b818110614a6d575b818110614a55575b818110614a3d575b818110614a25575b818110614a0d575b8181106149f5575b8181106149dd575b8181106149c5575b8181106149ad575b818110614995575b81811061497d575b818110614965575b10614957575b5003836115ff565b60f81c81526020013861494f565b60f083901c60ff168452926001906020019301614949565b60e883901c60ff168452926001906020019301614941565b60e083901c60ff168452926001906020019301614939565b60d883901c60ff168452926001906020019301614931565b60d083901c60ff168452926001906020019301614929565b60c883901c60ff168452926001906020019301614921565b60c083901c60ff168452926001906020019301614919565b60b883901c60ff168452926001906020019301614911565b60b083901c60ff168452926001906020019301614909565b60a883901c60ff168452926001906020019301614901565b60a083901c60ff1684529260019060200193016148f9565b609883901c60ff1684529260019060200193016148f1565b609083901c60ff1684529260019060200193016148e9565b608883901c60ff1684529260019060200193016148e1565b608083901c60ff1684529260019060200193016148d9565b607883901c60ff1684529260019060200193016148d1565b607083901c60ff1684529260019060200193016148c9565b606883901c60ff1684529260019060200193016148c1565b606083901c60ff1684529260019060200193016148b9565b605883901c60ff1684529260019060200193016148b1565b605083901c60ff1684529260019060200193016148a9565b604883901c60ff1684529260019060200193016148a1565b83901c60ff16845292600190602001930138614898565b603884901c60ff1685529093600190602001940190614890565b603084901c60ff1685529093600190602001940190614888565b602884901c60ff1685529093600190602001940190614880565b602084811c60ff1686529194909160019101940190614878565b601884901c60ff1685529093600190602001940190614870565b601084901c60ff1685529093600190602001940190614868565b600884901c60ff1685529093600190602001940190614860565b60ff841685529093600190602001940190614858565b919350916001610400602092614ef68854614eeb60ff614c7c8582851660ff169052565b614ec4614d29614e748d614e2489614dd48e614ca18184018a8d60081c1660ff169052565b614cb48584018a8d60101c1660ff169052565b888b610200606095614ccf878201858560181c1660ff169052565b614ce46080958585888501921c1660ff169052565b614d8a60a097614cfd898401878760281c1660ff169052565b614d3a60c09b614d168d8601898960301c1660ff169052565b60e09e8f8601898960381c1660ff169052565b87876101008701921c1660ff169052565b614d4f6101208401878760481c1660ff169052565b614d646101408401878760501c1660ff169052565b614d796101608401878760581c1660ff169052565b85856101808501921c1660ff169052565b614d9f6101a08201858560681c1660ff169052565b614db46101c08201858560701c1660ff169052565b614dc96101e08201858560781c1660ff169052565b01921c1660ff169052565b614de96102208c01888b60881c1660ff169052565b614dfe6102408c01888b60901c1660ff169052565b614e136102608c01888b60981c1660ff169052565b86896102808d01921c1660ff169052565b614e396102a08a01868960a81c1660ff169052565b614e4e6102c08a01868960b01c1660ff169052565b614e636102e08a01868960b81c1660ff169052565b84876103008b01921c1660ff169052565b614e896103208801848760c81c1660ff169052565b614e9e6103408801848760d01c1660ff169052565b614eb36103608801848760d81c1660ff169052565b82856103808901921c1660ff169052565b614ed96103a08601828560e81c1660ff169052565b6103c08501908360f01c1660ff169052565b60f81c6103e0830152565b0195019101918693919492614840565b90604051614f1381611593565b60c0614f5e6006839560018060a01b038082541686526001820154166020860152600281015460408601526003810154606086015260048101546080860152611d42600582016147bd565b910152565b9081602091031261028d5751610d5081613d02565b96959493909196614f8c8289958a866153b7565b600080516020616ade83398151915254614fae906001600160a01b0316610386565b604051635dc22eff60e01b81526001600160a01b03841660048201526020928382602481865afa918215610748576000926151a7575b5060009115615116575050604051632260494f60e01b81526001600160a01b039390931660048401529091908290829060249082905afa9081156107485760ff926000926150e9575b50505b1695606487116150c95761505261504b61162d979883613f0a565b6064900490565b9081615060575b5050616274565b816150c292945061507091614681565b92615079614292565b6000805160206169de833981519152546150a89061509f906001600160a01b0316610386565b610a0e8361439f565b6150b0614292565b91806150bb8461439f565b5284616353565b3880615059565b60405163d6849ff160e01b81526004810188905260646024820152604490fd5b6151089250803d1061510f575b61510081836115ff565b810190614f63565b388061502d565b503d6150f6565b600080516020616b3e8339815191525491945061516f92508391615142906001600160a01b0316610386565b60405163b28a7bad60e01b81526001600160a01b0390921660048301529092839190829081906024820190565b03915afa9182156107485760ff939261518a575b5050615030565b6151a09250803d1061510f5761510081836115ff565b3880615183565b6151bf919250843d8611610b4457610b3681836115ff565b9038614fe4565b91909160408184031261028d578051926001600160401b039384811161028d5782019381601f8601121561028d5784516151ff81613c93565b9061520d60405192836115ff565b808252602096878084019260051b8201019185831161028d5788809201905b83821061524c57505050509483015190811161028d57610d50920161468e565b828091835161525a8161027c565b81520191019061522c565b9692959197939061527a87968793888c6153b7565b600080516020616afe8339815191525461529c906001600160a01b0316610386565b604051637a99dc0160e11b81526001600160a01b039990991660048a01526024890191909152604488019690965260009586908890606490829084905af19788156107485786978799615378575b50865b89518810156153135761530761530d916107188a8d6143bc565b97613c59565b966152ed565b929598919497909396508883116153585761162d979883615338575b50505050616274565b8361534f94965061534891614681565b9484616353565b3880808061532f565b6040516344783bd360e11b815260048101849052602481018a9052604490fd5b9098506153989197503d8088833e61539081836115ff565b8101906151c6565b96909697386152ea565b9081602091031261028d5751610d508161027c565b600080516020616abe8339815191525461540694929391906153e1906001600160a01b0316610386565b93604051809563470d6ed960e11b825281806020998a95600483019190602083019252565b03915afa9384156107485760009461559d575b5081841161557d57811561401b5761542f6142ac565b926154b2866154556103866000805160206169de8339815191525460018060a01b031690565b9261546384610a0e8961439f565b6000805160206169be83398151915254615485906001600160a01b0316610386565b60405163e286ef3360e01b81526001600160a01b0390921660048301529092839190829081906024820190565b03915afa9081156107485761162d97600092615550575b506001600160a01b03916154e391508216610a0e876143ac565b6154fc6154ef866143ac565b516001600160a01b031690565b1661553b5761550f905b610a0e856143ac565b6155176142ac565b936155228184614681565b61552b8661439f565b52615535856143ac565b52616353565b5061550f61554b6154ef856143ac565b615506565b61556f9250803d10615576575b61556781836115ff565b8101906153a2565b38806154c9565b503d61555d565b604051639bdfbb5160e01b81526004810183905260248101859052604490fd5b6155b5919450853d8711610a9c57610a8b81836115ff565b9238615419565b6001600160a01b0381161515806155f8575b6155d55750565b60405163cd5f748960e01b81526001600160a01b03919091166004820152602490fd5b50600080516020616a9e8339815191525461561b906001600160a01b0316610386565b604051632d5ad3d560e01b81526001600160a01b038316600482015290602090829060249082905afa9081156107485760009161565a575b50156155ce565b615672915060203d8111610b4457610b3681836115ff565b38615653565b803b1580156156ab575b6156895750565b604051630f20e39960e21b81526001600160a01b039091166004820152602490fd5b5060206000604051828101906301ffc9a760e01b8083526024820152602481526156d4816115e4565b519084617530fa6000513d82615728575b508161571e575b508061570e575b806156ff575b15615682565b5061570981615791565b6156f9565b5061571881615734565b156156f3565b90501515386156ec565b602011159150386156e5565b6000602091604051838101906301ffc9a760e01b825263ffffffff60e01b602482015260248152615764816115e4565b5191617530fa6000513d82615785575b508161577e575090565b9050151590565b60201115915038615774565b6000602091604051838101906301ffc9a760e01b8252636cdb3d1360e11b602482015260248152615764816115e4565b6040516001620b695760e21b03198152600481018390526020816024816001600160a01b0386165afa9081156107485760009161582e575b5015615803575050565b604051632be7c7f360e01b81526001600160a01b039190911660048201526024810191909152604490fd5b615846915060203d8111610a9c57610a8b81836115ff565b386157f9565b903590601e198136030182121561028d57018035906001600160401b03821161028d57602001918160051b3603831361028d57565b9061588a6142f9565b5083359360409384820135916158ab6158a688610f3f88613e82565b614f06565b805190956001600160a01b03939091841615615b645786516158da90611416906001600160a01b03168461692e565b615b39576158f76158ee606085018561584c565b90838c866167e3565b8415615b285761590a89610f3f84613ebb565b5461591c826108308c610f3f87613d9e565b5481151580615b16575b615acd57505061593989610f3f84613e10565b549061594c816108308c610f3f87613e49565b549082151580615abc575b615a835750505050608085015180151580615a7a575b615a5a57506060850151428111615a415750602001359285850151808503615a21575060208501516001600160a01b03169180821690831603615a065750506159f9916159b991613f0a565b82519093906000906001600160a01b03169160c060a0860151950151956159de611649565b97885260208801528601526001600160a01b03166060850152565b608083015260a082015290565b6106e58651928392632e834cbf60e11b845260048401613c29565b8651631d6bbb8d60e11b8152600481018690526024810191909152604490fd5b865163456afd0b60e01b81526004810191909152602490fd5b8651635bdd08f560e01b8152600481018590526024810191909152604490fd5b5080841161596d565b895163ae3586c560e01b81526001600160a01b039485166004820152602481018c9052931660448401526064830152608482015260a490fd5b5082615ac7836143d0565b11615957565b8951636d03a2e560e01b81526001600160a01b039485166004820152602481018c905292909316604483015260648201869052608482019290925260a481019190915260c49150fd5b5081615b2288836143de565b11615926565b875163c6b949a960e01b8152600490fd5b86518851600162bed83560e01b031981529081906106e5906001600160a01b03168560048401613c29565b8751634ed1072f60e11b81526001600160a01b0383166004820152602481018a9052604490fd5b9192615b956145e5565b5080359360409283830135918215615cff57615bb88261083089610f3f8a613d65565b956002870154928315615cd05760038801549081151580615cc6575b615c9257505086546001600160a01b0390811692915081168203615a065750506020600186015493013592838103615c725750818110615c545750600592615c22615c4c9593600093613f0a565b615c2a611656565b9687526020870152850152615c41600482016147bd565b606085015201614815565b608082015290565b83516364b7fccd60e11b815260048101929092526024820152604490fd5b8451631d6bbb8d60e11b8152600481018590526024810191909152604490fd5b8751635493bdef60e11b81526001600160a01b039384166004820152602481018b9052921660448301526064820152608490fd5b5042821115615bd4565b8651630bac95f560e21b81526001600160a01b039283166004820152602481018a905291166044820152606490fd5b845163c6b949a960e01b8152600490fd5b90615d1a81615ef3565b60015b818110615d2957505050565b615d34818385613c7e565b6000198201903582821161102057615d4d828587613c7e565b351015615d635750615d5e90613c59565b615d1d565b8183615d77615d7e936106e5959688613c7e565b3595613c7e565b3560405193849363f48f718f60e01b8552600485016040919493926060820195825260208201520152565b90615db381615ef3565b60015b818110615dc257505050565b615dcd81838561437d565b6000198201903582821161102057615de682858761437d565b351015615dfc5750615df790613c59565b615db6565b8183615e10615d7e936106e595968861437d565b359561437d565b90615e2181615ef3565b60015b818110615e3057505050565b615e3b818385614455565b6000198201903582821161102057615e54828587614455565b351015615e6a5750615e6590613c59565b615e24565b8183615e7e615d7e936106e5959688614455565b3595614455565b90615e8f81615ef3565b60015b818110615e9e57505050565b615ea9818385614465565b6000198201903582821161102057615ec2828587614465565b351015615ed85750615ed390613c59565b615e92565b8183615eec615d7e936106e5959688614465565b3595614465565b8015615f235760648111615f045750565b6044906040519063f80a484560e01b8252600482015260646024820152fd5b60405163c2e5347d60e01b8152600490fd5b908015615f455761162d91615f60565b505034615f4e57565b60405163429465b160e01b8152600490fd5b6001600160a01b03811680156160ec57346160da576040516370a0823160e01b808252306004830152602092908383602481855afa928315610748576000936160bb575b50600080516020616a3e83398151915254615fc7906001600160a01b0316610386565b90813b1561028d57604051630aed65f560e11b81526001600160a01b038716600482015233602482015230604482015260648101889052916000908390608490829084905af19182156107485785926160a8575b5060405190815230600482015291829060249082905afa9081156107485761604c9360009261608b575b5050614681565b82810361605857505050565b604051636ff596f360e01b81526001600160a01b0392909216600483015260248201929092526044810191909152606490fd5b6160a19250803d10610a9c57610a8b81836115ff565b3880616045565b8061075a6160b592611544565b3861601b565b6160d3919350843d8611610a9c57610a8b81836115ff565b9138615fa4565b60405163d9efa38960e01b8152600490fd5b50508034036160f85750565b6040516305e4640960e21b81526004810191909152346024820152604490fd5b35610d508161027c565b35610d5081613d02565b9192909283156162625760058411616242578184036162205792919060009384935b828510616186575050505050606481036161655750565b6040516357623e5560e01b8152600481019190915260646024820152604490fd5b90919293946161a161038661619c888589614565565b616118565b15616207576161c26161bc6161b7888787614565565b616122565b60ff1690565b156161ee576161df6161e5916109ee6161bc6161b78a8989614565565b95613c59565b9392919061614e565b60405163d4c1893560e01b815260048101879052602490fd5b6040516306f5730d60e41b815260048101879052602490fd5b50604051632db4fb2960e01b8152600481018490526024810191909152604490fd5b6040516366a4d05560e01b81526004810185905260056024820152604490fd5b60405163d218e6a560e01b8152600490fd5b91929390835185519081810361632057505061629084516142c7565b92819260005b865180821015616311576162aa8991614672565b82036162cb575080856162c06162c693896143bc565b52613c59565b616296565b81956162f661504b6162f06161bc6162e96162c69761630b976143bc565b5160ff1690565b88613f0a565b616300888a6143bc565b5261066e87896143bc565b94613c59565b5050955061162d949250616353565b604051632db4fb2960e01b815260048101919091526024810191909152604490fd5b906020610d50928181520190613658565b9192939083518551908181036164a1575050600092835b865185101561638a5761630b61638491610718878a6143bc565b9361636a565b90929491935083810361648057506001600160a01b039182169283156163f1575060005b81518110156163e957806163df6163cb6154ef6163e494866143bc565b856163d6848b6143bc565b519116876164c3565b613c59565b6163ae565b505050509050565b60009495925084935061644061644e616421610386600080516020616a1e8339815191525460018060a01b031690565b94604051928391602083019663c176e63960e01b885260248401614711565b03601f1981018352826115ff565b51925af161645a613593565b90156164635750565b604051634c0fe4a160e11b81529081906106e59060048301616342565b604051633bc6f52760e21b8152600481018590526024810191909152604490fd5b6040516345e8c29760e11b815260048101919091526024810191909152604490fd5b60405163a9059cbb60e01b60208083019182526001600160a01b0394909416602483015260448083019590955293815291926165569291600090819061650a6064866115ff565b60018060a01b03169260405194616520866115ae565b8786527f5361666545524332303a206c6f772d6c6576656c2063616c6c206661696c656488870152519082855af1613424613593565b8051908282159283156165c6575b5050501561656f5750565b6084906040519062461bcd60e51b82526004820152602a60248201527f5361666545524332303a204552433230206f7065726174696f6e20646964206e6044820152691bdd081cdd58d8d9595960b21b6064820152fd5b6165d69350820181019101614475565b388281616564565b6001600160a01b0316156165ee57565b60405163602d6df560e01b8152734d41524b4554504c4143455f53455454494e475360601b6004820152602490fd5b6001600160a01b03161561662d57565b60405163602d6df560e01b81526d524f59414c54595f454e47494e4560901b6004820152602490fd5b6001600160a01b03161561666657565b60405163602d6df560e01b81526f5354414b494e475f524547495354525960801b6004820152602490fd5b6001600160a01b0316156166a157565b60405163602d6df560e01b8152724e4554574f524b5f42454e454649434941525960681b6004820152602490fd5b6001600160a01b0316156166df57565b60405163602d6df560e01b81527653504143455f4f50455241544f525f524547495354525960481b6004820152602490fd5b6001600160a01b03161561672157565b60405163602d6df560e01b8152675041594d454e545360c01b6004820152602490fd5b6001600160a01b03161561675457565b60405163602d6df560e01b815276415050524f5645445f544f4b454e5f524547495354525960481b6004820152602490fd5b6001600160a01b03161561679657565b60405163602d6df560e01b81526f5354414b494e475f53455454494e475360801b6004820152602490fd5b6001600160a01b0316156167d157565b60405163c49074af60e01b8152600490fd5b6167ef90949294613dd7565b9060005260205260406000209060405191616809836115ae565b600181549182855201549081602085015215908115616898575b50616892576168689261141692604051602081019061685d816164408a856014916bffffffffffffffffffffffff199060601b1681520190565b5190209051906168a3565b61686f5750565b60405163e2cf60cb60e01b81526001600160a01b03919091166004820152602490fd5b50505050565b905042101538616823565b92909291600080925b8084106168bb57505050501490565b909192936168fe906168ce868487614565565b35808211616906576040805160208101938452908101919091526168f58160608101616440565b51902094613c59565b9291906168ac565b604080516020810192835290810192909252906169268160608101616440565b51902061630b565b6000806040516020810190638da5cb5b60e01b825260048152616950816115ae565b5190845afa9061695e613593565b911580156169b2575b61699057508060208061697f935183010191016153a2565b6001600160a01b0390811691161490565b60405163915b8f1d60e01b81526001600160a01b039091166004820152602490fd5b50602082511061696756fe094ebcede13e570fe473dc3b580b6f2befba2d2420d1e71f35699327bd0e1307094ebcede13e570fe473dc3b580b6f2befba2d2420d1e71f35699327bd0e1300360894a13ba1a3210667c828492db98dca3e2076cc3735a920a3ca505d382bbc094ebcede13e570fe473dc3b580b6f2befba2d2420d1e71f35699327bd0e1304094ebcede13e570fe473dc3b580b6f2befba2d2420d1e71f35699327bd0e1308094ebcede13e570fe473dc3b580b6f2befba2d2420d1e71f35699327bd0e130a376c367a1420063e9671cc85404673694901b9db2c20dc84b5acbf060f7ee37a094ebcede13e570fe473dc3b580b6f2befba2d2420d1e71f35699327bd0e1305094ebcede13e570fe473dc3b580b6f2befba2d2420d1e71f35699327bd0e1306094ebcede13e570fe473dc3b580b6f2befba2d2420d1e71f35699327bd0e1302094ebcede13e570fe473dc3b580b6f2befba2d2420d1e71f35699327bd0e1303094ebcede13e570fe473dc3b580b6f2befba2d2420d1e71f35699327bd0e1312094ebcede13e570fe473dc3b580b6f2befba2d2420d1e71f35699327bd0e1301a26469706673582212204ff4f871ea35358802f3010be34de8b577d27e1796c1b5b1eae1c9afa02cf06c64736f6c63430008120033","linkReferences":{"src/v2/utils/MarketConfigV2.sol":{"MarketConfigV2":[{"start":3222,"length":20},{"start":3437,"length":20},{"start":3763,"length":20},{"start":4412,"length":20},{"start":9141,"length":20},{"start":9558,"length":20},{"start":10828,"length":20},{"start":11045,"length":20},{"start":11263,"length":20},{"start":11481,"length":20},{"start":15331,"length":20}]}}},"methodIdentifiers":{"MAX_BATCH_SIZE()":"cfdbf254","buyBatch(address,address,address,(uint256,uint256,uint256)[])":"0a6ce313","cancelSalePrices(address,uint256[])":"2f79f335","getDirectSaleConfig(address,uint256)":"6e2f4d8b","getERC1155ApprovalManager()":"c7c83d17","getMarketConfig()":"614bd944","getSalePrice(address,uint256,address)":"369679a4","getTokenAllowListConfig(address,uint256)":"bf3d90f8","getTokenMintLimit(address,uint256)":"8760251a","getTokenMintsPerAddress(address,uint256,address)":"28fbba03","getTokenTxLimit(address,uint256)":"552f791d","getTokenTxsPerAddress(address,uint256,address)":"5a501f8f","initialize(address,address,address,address,address,address,address,address,address,address,address)":"76902b83","isPaused()":"b187bd26","mintDirectSaleBatch(address,address,(uint256,uint256,uint256,bytes32[])[])":"7777e6d7","owner()":"8da5cb5b","prepareMintDirectSales(address,address,(uint256,uint256,uint256,uint256)[],address[],uint8[])":"be542141","proxiableUUID()":"52d1902d","renounceOwnership()":"715018a6","setApprovedTokenRegistry(address)":"e4e87e3b","setContractPaused(bool)":"882796f1","setERC1155ApprovalManager(address)":"ff5c83a4","setERC20ApprovalManager(address)":"d7a9fb7c","setERC721ApprovalManager(address)":"d80b23e3","setMarketplaceSettings(address)":"176ab440","setNetworkBeneficiary(address)":"3492e5a8","setPayments(address)":"af231a58","setRoyaltyEngine(address)":"21ede032","setSalePrices(address,address,(uint256,uint256,uint256,uint256)[],address[],uint8[])":"ff3a52d4","setSpaceOperatorRegistry(address)":"7f358230","setStakingRegistry(address)":"2c740844","setStakingSettings(address)":"f1035744","setTokenAllowListConfigs(address,(uint256,bytes32,uint256)[])":"373a9412","setTokenMintLimits(address,(uint256,uint256)[])":"c7ec1b98","setTokenTxLimits(address,(uint256,uint256)[])":"6442950e","transferOwnership(address)":"f2fde38b","upgradeTo(address)":"3659cfe6","upgradeToAndCall(address,bytes)":"4f1ef286"},"id":73}