{"abi":[{"type":"function","name":"checkSplits","inputs":[{"name":"_splitRecipients","type":"address[]","internalType":"address payable[]"},{"name":"_splitRatios","type":"uint8[]","internalType":"uint8[]"}],"outputs":[],"stateMutability":"pure"},{"type":"error","name":"CurrencyNotApproved","inputs":[{"name":"_currencyAddress","type":"address","internalType":"address"}]},{"type":"error","name":"ERC20FeeOnTransferUnsupported","inputs":[{"name":"_currencyAddress","type":"address","internalType":"address"},{"name":"_expectedAmount","type":"uint256","internalType":"uint256"},{"name":"_receivedAmount","type":"uint256","internalType":"uint256"}]},{"type":"error","name":"IncorrectETHAmount","inputs":[{"name":"_requiredAmount","type":"uint256","internalType":"uint256"},{"name":"_suppliedAmount","type":"uint256","internalType":"uint256"}]},{"type":"error","name":"MsgValueMustBeZero","inputs":[]},{"type":"error","name":"MsgValueUnsupportedForERC20","inputs":[]},{"type":"error","name":"PayoutFailed","inputs":[{"name":"_revertData","type":"bytes","internalType":"bytes"}]},{"type":"error","name":"PayoutLengthMismatch","inputs":[{"name":"_recipientsLength","type":"uint256","internalType":"uint256"},{"name":"_amountsLength","type":"uint256","internalType":"uint256"}]},{"type":"error","name":"PayoutTotalMismatch","inputs":[{"name":"_expectedAmount","type":"uint256","internalType":"uint256"},{"name":"_actualAmount","type":"uint256","internalType":"uint256"}]},{"type":"error","name":"PlatformCommissionExceeded","inputs":[{"name":"_platformCommission","type":"uint256","internalType":"uint256"},{"name":"_maxPlatformCommission","type":"uint256","internalType":"uint256"}]},{"type":"error","name":"RefundFailed","inputs":[{"name":"_revertData","type":"bytes","internalType":"bytes"}]},{"type":"error","name":"RoyaltiesExceedSaleAmount","inputs":[{"name":"_royalties","type":"uint256","internalType":"uint256"},{"name":"_saleAmount","type":"uint256","internalType":"uint256"}]},{"type":"error","name":"SplitLengthMismatch","inputs":[{"name":"_recipientsLength","type":"uint256","internalType":"uint256"},{"name":"_ratiosLength","type":"uint256","internalType":"uint256"}]},{"type":"error","name":"SplitRatioCannotBeZero","inputs":[{"name":"_index","type":"uint256","internalType":"uint256"}]},{"type":"error","name":"SplitRecipientCannotBeZero","inputs":[{"name":"_index","type":"uint256","internalType":"uint256"}]},{"type":"error","name":"SplitRecipientsExceededMax","inputs":[{"name":"_recipientsLength","type":"uint256","internalType":"uint256"},{"name":"_maxRecipients","type":"uint256","internalType":"uint256"}]},{"type":"error","name":"SplitRecipientsRequired","inputs":[]},{"type":"error","name":"SplitTotalInvalid","inputs":[{"name":"_totalRatio","type":"uint256","internalType":"uint256"},{"name":"_requiredTotal","type":"uint256","internalType":"uint256"}]},{"type":"error","name":"StakingFeeExceedsMarketplaceFee","inputs":[{"name":"_marketplaceFee","type":"uint256","internalType":"uint256"},{"name":"_stakingFee","type":"uint256","internalType":"uint256"}]}],"bytecode":{"object":"0x6080806040523461001c5761199490816100228239308160080152f35b600080fdfe604060808152307f0000000000000000000000000000000000000000000000000000000000000000146004918236101561003857600080fd5b600091823560e01c806330863baf1461090d57806338fa83e7146108f55780634c4c2619146108bb5780635021b71b1461082f5780635ea509b51461081757806376fb8597146106975780637baf92a314610665578063981e8fc514610549578063bc2af99e14610498578063c392415814610211578063c69cbad0146101f3578063e6e1b2dc146101925763f0859688146100d357600080fd5b61018e5760a036600319011261018e576100eb610928565b6001600160401b039360643585811161018a5761010b9036908301610a75565b9160843595861161018a573660238701121561018a57858201359561013b61013288610a5e565b95519586610a3d565b86855260209660248887019160051b8301019136831161018657602401905b82821061017757505050610174949550604435913561177b565b80f35b8135815290880190880161015a565b8780fd5b8480fd5b5080fd5b83858361018e5760a036600319011261018e576101ad610928565b6001600160401b039160643583811161018a576101cd9036908301610a75565b9060843593841161018a576101e86101749436908301610ae3565b926044359135611678565b838261020e576101746102053661096f565b93929092611147565b80fd5b5061018e5761010036600319011261018e5782359061022e610928565b90610237610943565b60a4356001600160a01b0381811695919390606435878603610494576001600160401b039660c435888111610490576102739036908d01610a75565b9760e435908111610490579061028f8c94939236908601610ae3565b996102a08399608435858b8b6110a9565b836002880154169181875196635dc22eff60e01b88528701526020958681602481875afa908115610484578f91928f938489938b979692610455575b5050156103f857505060249088519485938492632260494f60e01b84528301525afa9081156103ee579060ff918c916103c1575b505b169a60648c116103a35750606461032d6101749b9c83610e40565b04908161033f575b5050505050611678565b6103999497508161034f91610bc2565b9680519261035c846109d6565b6001845284368186013786541661037284610e53565b52519261037e846109d6565b6001845236818501378061039184610e53565b52858561177b565b3880808080610335565b845163d6849ff160e01b81529081018c905260646024820152604490fd5b6103e19150853d87116103e7575b6103d98183610a3d565b810190610e27565b38610310565b503d6103cf565b85513d8d823e3d90fd5b60018b01548a5163b28a7bad60e01b81529183169382019390935294508492506024918391165afa9081156103ee579060ff918c91610438575b50610312565b61044f9150853d87116103e7576103d98183610a3d565b38610432565b610476919250873d891161047d575b61046e8183610a3d565b810190610b7b565b90386102dc565b503d610464565b8e8951903d90823e3d90fd5b8a80fd5b8880fd5b83858480600319360112610545576001600160a01b0390816104b8610928565b169182151590816104e2575b506104cd578380f35b5163cd5f748960e01b81529182015260249150fd5b6024915060209060058635015416835192838092632d5ad3d560e01b825287898301525afa90811561053b57859161051d575b5015856104c4565b610535915060203d811161047d5761046e8183610a3d565b85610515565b82513d87823e3d90fd5b8280fd5b509291926105455761012036600319011261054557813590610569610928565b610571610959565b6001600160a01b039360c435929160a435916084359190878616860361064c576001600160401b039660e435888111610661576105b19036908c01610a75565b9761010435908111610661576105ca9036908c01610ae3565b98856105e3575050610174985089945b60443591610e84565b6006830154825163470d6ed960e11b81529b8c018690526020918c916024918391165afa90811561065857508a90610621575b6101749950946105da565b506020893d8211610650575b8161063a60209383610a3d565b8101031261064c576101749851610616565b8980fd5b3d915061062d565b513d8c823e3d90fd5b8b80fd5b83858361018e57608036600319011261018e5761017490610684610928565b61068c610943565b90606435923561142c565b83858480600319360112610545576001600160401b0390823582811161018a576106c49036908501610b4b565b91906024938435908111610813576106df9036908701610b4b565b90841561080357600585116107e6578185036107cb57939190879488935b82851061072f57505050505060648203610715578480f35b516357623e5560e01b815292830152606490820152604490fd5b909192939561073f878387610de6565b356001600160a01b0381169081900361049057156107b55760ff8061076d6107688a8888610de6565b610e0c565b161561079f5761079691610790916107896107688b8989610de6565b1690610e1a565b96610dd7565b939291906106fd565b865163d4c1893560e01b8152808b018990528990fd5b85516306f5730d60e41b8152808a018890528890fd5b604487838888885193632db4fb2960e01b8552840152820152fd5b83516366a4d05560e01b8152808801869052600581880152604490fd5b835163d218e6a560e01b81528790fd5b8680fd5b838261020e57610174610829366109ac565b91610b93565b83858361018e5761014036600319011261018e5761084b610928565b610853610959565b9160e4356001600160a01b038116810361018a576001600160401b039361010435858111610813576108889036908501610a75565b9261012435958611610813576108a46101749636908301610ae3565b9460c4359260a43592608435926044359135610e84565b83858361018e5760c036600319011261018e57610174906108da610928565b6108e2610943565b9160a43592608435926064359235611374565b838261020e57610174610907366109ac565b91610be5565b838261020e5761017461091f3661096f565b939290926110a9565b602435906001600160a01b038216820361093e57565b600080fd5b604435906001600160a01b038216820361093e57565b606435906001600160a01b038216820361093e57565b60a090600319011261093e57600435906001600160a01b0390602435828116810361093e57916044359160643591608435908116810361093e5790565b606090600319011261093e57600435906024356001600160a01b038116810361093e579060443590565b604081019081106001600160401b038211176109f157604052565b634e487b7160e01b600052604160045260246000fd5b606081019081106001600160401b038211176109f157604052565b608081019081106001600160401b038211176109f157604052565b90601f801991011681019081106001600160401b038211176109f157604052565b6001600160401b0381116109f15760051b60200190565b81601f8201121561093e57803591610a8c83610a5e565b92610a9a6040519485610a3d565b808452602092838086019260051b82010192831161093e578301905b828210610ac4575050505090565b81356001600160a01b038116810361093e578152908301908301610ab6565b81601f8201121561093e57803591610afa83610a5e565b92610b086040519485610a3d565b808452602092838086019260051b82010192831161093e578301905b828210610b32575050505090565b813560ff8116810361093e578152908301908301610b24565b9181601f8401121561093e578235916001600160401b03831161093e576020808501948460051b01011161093e57565b9081602091031261093e5751801515810361093e5790565b91908115610ba657610ba492610be5565b565b50505034610bb057565b60405163429465b160e01b8152600490fd5b91908203918211610bcf57565b634e487b7160e01b600052601160045260246000fd5b6001600160a01b038281169060008215610daa5734610d98576040938451926370a0823160e01b9081855230600486015260209283866024818a5afa958615610d8e578596610d5e575b506008015416803b15610d5a5783809160848b8a519485938492630aed65f560e11b84528c600485015233602485015230604485015260648401525af18015610d5057610d22575b508190602487518097819382523060048301525afa918215610d175791610ce7575b50610ca49250610bc2565b90838203610cb25750505050565b51636ff596f360e01b81526001600160a01b0392909216600483015260248201929092526044810191909152606490fd5b0390fd5b905082813d8311610d10575b610cfd8183610a3d565b8101031261093e57610ca4915138610c99565b503d610cf3565b8551903d90823e3d90fd5b6001600160401b038194929411610d3c5786529181610c77565b634e487b7160e01b82526041600452602482fd5b87513d86823e3d90fd5b8380fd5b9095508381813d8311610d87575b610d768183610a3d565b8101031261018a5751946008610c2f565b503d610d6c565b88513d87823e3d90fd5b60405163d9efa38960e01b8152600490fd5b5050505050803403610db95750565b604490604051906305e4640960e21b82526004820152346024820152fd5b6000198114610bcf5760010190565b9190811015610df65760051b0190565b634e487b7160e01b600052603260045260246000fd5b3560ff8116810361093e5790565b91908201809211610bcf57565b9081602091031261093e575160ff8116810361093e5790565b81810292918115918404141715610bcf57565b805115610df65760200190565b805160011015610df65760400190565b8051821015610df65760209160051b010190565b90999584989497610e9d919a9694939a89958585611147565b6003810154604051637a99dc0160e11b81526001600160a01b039b8c166004820152602481019a909a5260448a019890985297989760009788908b90606490829084908e165af1998a1561109e578899899b610f8a575b5050875b8a51891015610f2557610f19610f1f91610f128b8e610e70565b5190610e1a565b98610dd7565b97610ef8565b9295989093969991949750898311610f6c57610ba4989983610f4b575b50505050611678565b83610f63949750610f5b91610bc2565b95858561177b565b38808080610f42565b6044838b604051916344783bd360e11b835260048301526024820152fd5b919a5098503d80898b3e610f9e818b610a3d565b8901986040818b0312610494578051906001600160401b0391828111610490578101928b601f85011215610490578b845191610fd983610a5e565b95610fe76040519788610a3d565b83875260208088019460051b82010192831161109a57602001925b82841061107d5750505050602081015191821161064c57019880601f8b01121561049457895161103181610a5e565b9a61103f6040519c8d610a3d565b818c526020808d019260051b82010192831161049057602001905b82821061106d5750505097983880610ef4565b815181526020918201910161105a565b8351828116810361109657815260209384019301611002565b8e80fd5b8d80fd5b6040513d8a823e3d90fd5b9194939290811561113f57600683015460405163470d6ed960e11b81526004810197909752602090879060249082906001600160a01b03165afa928315611133576000936110fd575b610ba4959650611147565b92956020813d821161112b575b8161111760209383610a3d565b8101031261081357519495508594926110f2565b3d915061110a565b6040513d6000823e3d90fd5b505050509050565b9190811561136d5781841161134f5760409283519361116585610a07565b6002855260209681368988013782546001600160a01b0391908216908161118b89610e53565b526007850154845163e286ef3360e01b815291841660048301528a908290602490829087165afa90811561134457908391600091611309575b50166111cf88610e60565b52816111da88610e60565b51166112f7575b816111eb88610e60565b911690528151966111fb88610a07565b6002885282368a8a013761120f8187610bc2565b61121889610e53565b5261122288610e60565b5261122c87610e53565b51156112aa5761123b87610e60565b511561124d575050610ba4955061177b565b9581610ba4989761127561129a9451986112668a6109d6565b60018a528a36818c0137610e53565b511661128088610e53565b52519661128c886109d6565b600188523681890137610e53565b516112a486610e53565b5261177b565b9581610ba498976112d261129a9451986112c38a6109d6565b60018a528a36818c0137610e60565b51166112dd88610e53565b5251966112e9886109d6565b600188523681890137610e60565b508061130287610e60565b51166111e1565b9091508a81813d831161133d575b6113218183610a3d565b8101031261018e575190838216820361020e57508290386111c4565b503d611317565b84513d6000823e3d90fd5b6044828560405191639bdfbb5160e01b835260048301526024820152fd5b5050505050565b92949390919381156113a55761139061139592610ba497610e40565b610e1a565b926001600160a01b03169161142c565b505050505050565b3d156113e7573d906001600160401b0382116109f157604051916113db601f8201601f191660200184610a3d565b82523d6000602084013e565b606090565b919082519283825260005b848110611418575050826000602080949584010152601f8019910116010190565b6020818301810151848301820152016113f7565b929182156114c7576001600160a01b039182169384156114535750610ba4939116906114cd565b600094509282600486950154169260405190602082019363410085df60e01b85521660248201528160448201526044815261148d81610a22565b51925af16114996113ad565b90156114a25750565b604051635519d77560e11b815260206004820152908190610ce39060248301906113ec565b50505050565b919061155791600080604051936020968786019463a9059cbb60e01b865260018060a01b03809316602488015260448701526044865261150c86610a22565b16926040519461151b866109d6565b8786527f5361666545524332303a206c6f772d6c6576656c2063616c6c206661696c656488870152519082855af16115516113ad565b916115df565b8051908282159283156115c7575b505050156115705750565b6084906040519062461bcd60e51b82526004820152602a60248201527f5361666545524332303a204552433230206f7065726174696f6e20646964206e6044820152691bdd081cdd58d8d9595960b21b6064820152fd5b6115d79350820181019101610b7b565b388281611565565b9192901561164157508151156115f3575090565b3b156115fc5790565b60405162461bcd60e51b815260206004820152601d60248201527f416464726573733a2063616c6c20746f206e6f6e2d636f6e74726163740000006044820152606490fd5b8251909150156116545750805190602001fd5b60405162461bcd60e51b815260206004820152908190610ce39060248301906113ec565b9491949390938351825180820361175d57505083519361169785610a5e565b946116a56040519687610a3d565b8086526116b4601f1991610a5e565b013660208701378693600091825b81518082101561174b5760001981019081116117375781036116f85780876116ed6116f3938b610e70565b52610dd7565b6116c2565b956107906116f391606461171a8d60ff6117128d8d610e70565b511690610e40565b046117258a8c610e70565b52611730898b610e70565b5190610bc2565b634e487b7160e01b85526011600452602485fd5b505094509692505093610ba49461177b565b6044925060405191632db4fb2960e01b835260048301526024820152fd5b949193929081518451808203611940575050600095865b85518810156117b8576117ac6117b291610f128a89610e70565b97610dd7565b96611792565b9093965094909391948181036119225750801561136d576001600160a01b0393841692831561182f57505060005b845181101561136d57806117fd61182a9284610e70565b511561182557611825856118118389610e70565b511661181d8386610e70565b5190866114cd565b610dd7565b6117e6565b849294919350600490969596015416916040516020948582019363c176e63960e01b85526064830160406024850152895180915287608485019a01916000905b828210611909575050505081880360231901604483015280518089529086019786019060005b8181106118f5575050600095969750906118bc81879695949303601f198101835282610a3d565b51925af1906118c96113ad565b91156118d3575050565b610ce3604051928392634c0fe4a160e11b8452600484015260248301906113ec565b895183529887019891870191600101611895565b835181168c529a89019a9289019260019091019061186f565b6044925060405191633bc6f52760e21b835260048301526024820152fd5b60449250604051916345e8c29760e11b835260048301526024820152fdfea2646970667358221220e88953e8903faad022a73a2130d17f1c614e87afa599b18665910d013996eb6964736f6c63430008120033","linkReferences":{}},"methodIdentifiers":{"checkAmountAndTransfer(MarketConfigV2.Config storage,address,uint256)":"38fa83e7","checkBatchPayment(MarketConfigV2.Config storage,address,uint256)":"5ea509b5","checkIfCurrencyIsApproved(MarketConfigV2.Config storage,address)":"bc2af99e","checkSplits(address[],uint8[])":"76fb8597","payoutMarketplaceFee(MarketConfigV2.Config storage,address,uint256,uint256,address)":"30863baf","payoutMarketplaceFeeWithStakingFee(MarketConfigV2.Config storage,address,uint256,uint256,address)":"c69cbad0","payoutPrimary(MarketConfigV2.Config storage,address,address,uint256,uint256,address,address[],uint8[])":"c3924158","payoutSecondary(MarketConfigV2.Config storage,address,uint256,address,uint256,uint256,address,address[],uint8[])":"981e8fc5","payoutSecondaryWithStakingFee(MarketConfigV2.Config storage,address,uint256,address,uint256,uint256,uint256,address,address[],uint8[])":"5021b71b","payoutSplits(MarketConfigV2.Config storage,address,uint256,address[],uint8[])":"e6e1b2dc","performPayouts(MarketConfigV2.Config storage,address,uint256,address[],uint256[])":"f0859688","refund(MarketConfigV2.Config storage,address,address,uint256)":"7baf92a3","refundRemainingOffer(MarketConfigV2.Config storage,address,address,uint256,uint256,uint256)":"4c4c2619"},"id":76}