{"abi":[{"type":"constructor","inputs":[],"stateMutability":"nonpayable"},{"type":"function","name":"buy","inputs":[{"name":"_contractAddress","type":"address","internalType":"address"},{"name":"_tokenId","type":"uint256","internalType":"uint256"},{"name":"_seller","type":"address","internalType":"address"},{"name":"_currencyAddress","type":"address","internalType":"address"},{"name":"_price","type":"uint256","internalType":"uint256"},{"name":"_quantity","type":"uint256","internalType":"uint256"}],"outputs":[],"stateMutability":"payable"},{"type":"function","name":"cancelSalePrice","inputs":[{"name":"_contractAddress","type":"address","internalType":"address"},{"name":"_tokenId","type":"uint256","internalType":"uint256"}],"outputs":[],"stateMutability":"nonpayable"},{"type":"function","name":"getDirectSaleConfig","inputs":[{"name":"_contractAddress","type":"address","internalType":"address"},{"name":"_tokenId","type":"uint256","internalType":"uint256"}],"outputs":[{"name":"","type":"tuple","internalType":"struct IRareERC1155Marketplace.DirectSaleConfig","components":[{"name":"seller","type":"address","internalType":"address"},{"name":"currencyAddress","type":"address","internalType":"address"},{"name":"price","type":"uint256","internalType":"uint256"},{"name":"startTime","type":"uint256","internalType":"uint256"},{"name":"maxMints","type":"uint256","internalType":"uint256"},{"name":"splitRecipients","type":"address[]","internalType":"address payable[]"},{"name":"splitRatios","type":"uint8[]","internalType":"uint8[]"}]}],"stateMutability":"view"},{"type":"function","name":"getERC1155ApprovalManager","inputs":[],"outputs":[{"name":"","type":"address","internalType":"address"}],"stateMutability":"view"},{"type":"function","name":"getMarketConfig","inputs":[],"outputs":[{"name":"","type":"tuple","internalType":"struct MarketConfigV2.Config","components":[{"name":"networkBeneficiary","type":"address","internalType":"address"},{"name":"marketplaceSettings","type":"address","internalType":"contract IMarketplaceSettings"},{"name":"spaceOperatorRegistry","type":"address","internalType":"contract ISpaceOperatorRegistry"},{"name":"royaltyEngine","type":"address","internalType":"contract IRoyaltyEngineV1"},{"name":"payments","type":"address","internalType":"contract IPayments"},{"name":"approvedTokenRegistry","type":"address","internalType":"contract IApprovedTokenRegistry"},{"name":"stakingSettings","type":"address","internalType":"contract IStakingSettings"},{"name":"stakingRegistry","type":"address","internalType":"contract IRareStakingRegistry"},{"name":"erc20ApprovalManager","type":"address","internalType":"contract IERC20ApprovalManager"},{"name":"erc721ApprovalManager","type":"address","internalType":"contract IERC721ApprovalManager"}]}],"stateMutability":"view"},{"type":"function","name":"getSalePrice","inputs":[{"name":"_contractAddress","type":"address","internalType":"address"},{"name":"_tokenId","type":"uint256","internalType":"uint256"},{"name":"_seller","type":"address","internalType":"address"}],"outputs":[{"name":"","type":"tuple","internalType":"struct IRareERC1155Marketplace.SalePrice","components":[{"name":"currencyAddress","type":"address","internalType":"address"},{"name":"price","type":"uint256","internalType":"uint256"},{"name":"quantity","type":"uint256","internalType":"uint256"},{"name":"splitRecipients","type":"address[]","internalType":"address payable[]"},{"name":"splitRatios","type":"uint8[]","internalType":"uint8[]"}]}],"stateMutability":"view"},{"type":"function","name":"getTokenAllowListConfig","inputs":[{"name":"_contractAddress","type":"address","internalType":"address"},{"name":"_tokenId","type":"uint256","internalType":"uint256"}],"outputs":[{"name":"","type":"tuple","internalType":"struct IRareERC1155Marketplace.AllowListConfig","components":[{"name":"root","type":"bytes32","internalType":"bytes32"},{"name":"endTimestamp","type":"uint256","internalType":"uint256"}]}],"stateMutability":"view"},{"type":"function","name":"getTokenMintLimit","inputs":[{"name":"_contractAddress","type":"address","internalType":"address"},{"name":"_tokenId","type":"uint256","internalType":"uint256"}],"outputs":[{"name":"","type":"uint256","internalType":"uint256"}],"stateMutability":"view"},{"type":"function","name":"getTokenMintsPerAddress","inputs":[{"name":"_contractAddress","type":"address","internalType":"address"},{"name":"_tokenId","type":"uint256","internalType":"uint256"},{"name":"_address","type":"address","internalType":"address"}],"outputs":[{"name":"","type":"uint256","internalType":"uint256"}],"stateMutability":"view"},{"type":"function","name":"getTokenTxLimit","inputs":[{"name":"_contractAddress","type":"address","internalType":"address"},{"name":"_tokenId","type":"uint256","internalType":"uint256"}],"outputs":[{"name":"","type":"uint256","internalType":"uint256"}],"stateMutability":"view"},{"type":"function","name":"getTokenTxsPerAddress","inputs":[{"name":"_contractAddress","type":"address","internalType":"address"},{"name":"_tokenId","type":"uint256","internalType":"uint256"},{"name":"_address","type":"address","internalType":"address"}],"outputs":[{"name":"","type":"uint256","internalType":"uint256"}],"stateMutability":"view"},{"type":"function","name":"initialize","inputs":[{"name":"_networkBeneficiary","type":"address","internalType":"address"},{"name":"_marketplaceSettings","type":"address","internalType":"address"},{"name":"_spaceOperatorRegistry","type":"address","internalType":"address"},{"name":"_royaltyEngine","type":"address","internalType":"address"},{"name":"_payments","type":"address","internalType":"address"},{"name":"_approvedTokenRegistry","type":"address","internalType":"address"},{"name":"_stakingSettings","type":"address","internalType":"address"},{"name":"_stakingRegistry","type":"address","internalType":"address"},{"name":"_erc20ApprovalManager","type":"address","internalType":"address"},{"name":"_erc721ApprovalManager","type":"address","internalType":"address"},{"name":"_erc1155ApprovalManager","type":"address","internalType":"address"}],"outputs":[],"stateMutability":"nonpayable"},{"type":"function","name":"isPaused","inputs":[],"outputs":[{"name":"","type":"bool","internalType":"bool"}],"stateMutability":"view"},{"type":"function","name":"mintDirectSale","inputs":[{"name":"_contractAddress","type":"address","internalType":"address"},{"name":"_tokenId","type":"uint256","internalType":"uint256"},{"name":"_currencyAddress","type":"address","internalType":"address"},{"name":"_price","type":"uint256","internalType":"uint256"},{"name":"_quantity","type":"uint256","internalType":"uint256"},{"name":"_proof","type":"bytes32[]","internalType":"bytes32[]"}],"outputs":[],"stateMutability":"payable"},{"type":"function","name":"owner","inputs":[],"outputs":[{"name":"","type":"address","internalType":"address"}],"stateMutability":"view"},{"type":"function","name":"prepareMintDirectSale","inputs":[{"name":"_contractAddress","type":"address","internalType":"address"},{"name":"_tokenId","type":"uint256","internalType":"uint256"},{"name":"_currencyAddress","type":"address","internalType":"address"},{"name":"_price","type":"uint256","internalType":"uint256"},{"name":"_startTime","type":"uint256","internalType":"uint256"},{"name":"_maxMints","type":"uint256","internalType":"uint256"},{"name":"_splitRecipients","type":"address[]","internalType":"address payable[]"},{"name":"_splitRatios","type":"uint8[]","internalType":"uint8[]"}],"outputs":[],"stateMutability":"nonpayable"},{"type":"function","name":"proxiableUUID","inputs":[],"outputs":[{"name":"","type":"bytes32","internalType":"bytes32"}],"stateMutability":"view"},{"type":"function","name":"renounceOwnership","inputs":[],"outputs":[],"stateMutability":"nonpayable"},{"type":"function","name":"setApprovedTokenRegistry","inputs":[{"name":"_approvedTokenRegistry","type":"address","internalType":"address"}],"outputs":[],"stateMutability":"nonpayable"},{"type":"function","name":"setContractPaused","inputs":[{"name":"_isPaused","type":"bool","internalType":"bool"}],"outputs":[],"stateMutability":"nonpayable"},{"type":"function","name":"setERC1155ApprovalManager","inputs":[{"name":"_erc1155ApprovalManager","type":"address","internalType":"address"}],"outputs":[],"stateMutability":"nonpayable"},{"type":"function","name":"setERC20ApprovalManager","inputs":[{"name":"_erc20ApprovalManager","type":"address","internalType":"address"}],"outputs":[],"stateMutability":"nonpayable"},{"type":"function","name":"setERC721ApprovalManager","inputs":[{"name":"_erc721ApprovalManager","type":"address","internalType":"address"}],"outputs":[],"stateMutability":"nonpayable"},{"type":"function","name":"setMarketplaceSettings","inputs":[{"name":"_marketplaceSettings","type":"address","internalType":"address"}],"outputs":[],"stateMutability":"nonpayable"},{"type":"function","name":"setNetworkBeneficiary","inputs":[{"name":"_networkBeneficiary","type":"address","internalType":"address"}],"outputs":[],"stateMutability":"nonpayable"},{"type":"function","name":"setPayments","inputs":[{"name":"_payments","type":"address","internalType":"address"}],"outputs":[],"stateMutability":"nonpayable"},{"type":"function","name":"setRoyaltyEngine","inputs":[{"name":"_royaltyEngine","type":"address","internalType":"address"}],"outputs":[],"stateMutability":"nonpayable"},{"type":"function","name":"setSalePrice","inputs":[{"name":"_contractAddress","type":"address","internalType":"address"},{"name":"_tokenId","type":"uint256","internalType":"uint256"},{"name":"_currencyAddress","type":"address","internalType":"address"},{"name":"_price","type":"uint256","internalType":"uint256"},{"name":"_quantity","type":"uint256","internalType":"uint256"},{"name":"_splitRecipients","type":"address[]","internalType":"address payable[]"},{"name":"_splitRatios","type":"uint8[]","internalType":"uint8[]"}],"outputs":[],"stateMutability":"nonpayable"},{"type":"function","name":"setSpaceOperatorRegistry","inputs":[{"name":"_spaceOperatorRegistry","type":"address","internalType":"address"}],"outputs":[],"stateMutability":"nonpayable"},{"type":"function","name":"setStakingRegistry","inputs":[{"name":"_stakingRegistry","type":"address","internalType":"address"}],"outputs":[],"stateMutability":"nonpayable"},{"type":"function","name":"setStakingSettings","inputs":[{"name":"_stakingSettings","type":"address","internalType":"address"}],"outputs":[],"stateMutability":"nonpayable"},{"type":"function","name":"setTokenAllowListConfig","inputs":[{"name":"_root","type":"bytes32","internalType":"bytes32"},{"name":"_endTimestamp","type":"uint256","internalType":"uint256"},{"name":"_contractAddress","type":"address","internalType":"address"},{"name":"_tokenId","type":"uint256","internalType":"uint256"}],"outputs":[],"stateMutability":"nonpayable"},{"type":"function","name":"setTokenMintLimit","inputs":[{"name":"_contractAddress","type":"address","internalType":"address"},{"name":"_tokenId","type":"uint256","internalType":"uint256"},{"name":"_limit","type":"uint256","internalType":"uint256"}],"outputs":[],"stateMutability":"nonpayable"},{"type":"function","name":"setTokenTxLimit","inputs":[{"name":"_contractAddress","type":"address","internalType":"address"},{"name":"_tokenId","type":"uint256","internalType":"uint256"},{"name":"_limit","type":"uint256","internalType":"uint256"}],"outputs":[],"stateMutability":"nonpayable"},{"type":"function","name":"transferOwnership","inputs":[{"name":"newOwner","type":"address","internalType":"address"}],"outputs":[],"stateMutability":"nonpayable"},{"type":"function","name":"upgradeTo","inputs":[{"name":"newImplementation","type":"address","internalType":"address"}],"outputs":[],"stateMutability":"nonpayable"},{"type":"function","name":"upgradeToAndCall","inputs":[{"name":"newImplementation","type":"address","internalType":"address"},{"name":"data","type":"bytes","internalType":"bytes"}],"outputs":[],"stateMutability":"payable"},{"type":"event","name":"AdminChanged","inputs":[{"name":"previousAdmin","type":"address","indexed":false,"internalType":"address"},{"name":"newAdmin","type":"address","indexed":false,"internalType":"address"}],"anonymous":false},{"type":"event","name":"BeaconUpgraded","inputs":[{"name":"beacon","type":"address","indexed":true,"internalType":"address"}],"anonymous":false},{"type":"event","name":"Initialized","inputs":[{"name":"version","type":"uint8","indexed":false,"internalType":"uint8"}],"anonymous":false},{"type":"event","name":"MintDirectSale","inputs":[{"name":"contractAddress","type":"address","indexed":true,"internalType":"address"},{"name":"tokenId","type":"uint256","indexed":true,"internalType":"uint256"},{"name":"buyer","type":"address","indexed":true,"internalType":"address"},{"name":"seller","type":"address","indexed":false,"internalType":"address"},{"name":"quantity","type":"uint256","indexed":false,"internalType":"uint256"},{"name":"currency","type":"address","indexed":false,"internalType":"address"},{"name":"price","type":"uint256","indexed":false,"internalType":"uint256"}],"anonymous":false},{"type":"event","name":"OwnershipTransferred","inputs":[{"name":"previousOwner","type":"address","indexed":true,"internalType":"address"},{"name":"newOwner","type":"address","indexed":true,"internalType":"address"}],"anonymous":false},{"type":"event","name":"PrepareMintDirectSale","inputs":[{"name":"contractAddress","type":"address","indexed":true,"internalType":"address"},{"name":"tokenId","type":"uint256","indexed":true,"internalType":"uint256"},{"name":"seller","type":"address","indexed":true,"internalType":"address"},{"name":"currency","type":"address","indexed":false,"internalType":"address"},{"name":"price","type":"uint256","indexed":false,"internalType":"uint256"},{"name":"startTime","type":"uint256","indexed":false,"internalType":"uint256"},{"name":"maxMints","type":"uint256","indexed":false,"internalType":"uint256"},{"name":"splitRecipients","type":"address[]","indexed":false,"internalType":"address payable[]"},{"name":"splitRatios","type":"uint8[]","indexed":false,"internalType":"uint8[]"}],"anonymous":false},{"type":"event","name":"SalePriceCancelled","inputs":[{"name":"seller","type":"address","indexed":true,"internalType":"address"},{"name":"contractAddress","type":"address","indexed":true,"internalType":"address"},{"name":"tokenId","type":"uint256","indexed":true,"internalType":"uint256"}],"anonymous":false},{"type":"event","name":"SalePriceSet","inputs":[{"name":"seller","type":"address","indexed":true,"internalType":"address"},{"name":"contractAddress","type":"address","indexed":true,"internalType":"address"},{"name":"tokenId","type":"uint256","indexed":true,"internalType":"uint256"},{"name":"currency","type":"address","indexed":false,"internalType":"address"},{"name":"price","type":"uint256","indexed":false,"internalType":"uint256"},{"name":"quantity","type":"uint256","indexed":false,"internalType":"uint256"},{"name":"splitRecipients","type":"address[]","indexed":false,"internalType":"address payable[]"},{"name":"splitRatios","type":"uint8[]","indexed":false,"internalType":"uint8[]"}],"anonymous":false},{"type":"event","name":"SetTokenAllowListConfig","inputs":[{"name":"contractAddress","type":"address","indexed":true,"internalType":"address"},{"name":"tokenId","type":"uint256","indexed":true,"internalType":"uint256"},{"name":"root","type":"bytes32","indexed":false,"internalType":"bytes32"},{"name":"endTimestamp","type":"uint256","indexed":false,"internalType":"uint256"}],"anonymous":false},{"type":"event","name":"Sold","inputs":[{"name":"seller","type":"address","indexed":true,"internalType":"address"},{"name":"buyer","type":"address","indexed":true,"internalType":"address"},{"name":"contractAddress","type":"address","indexed":true,"internalType":"address"},{"name":"tokenId","type":"uint256","indexed":false,"internalType":"uint256"},{"name":"currency","type":"address","indexed":false,"internalType":"address"},{"name":"price","type":"uint256","indexed":false,"internalType":"uint256"},{"name":"quantity","type":"uint256","indexed":false,"internalType":"uint256"}],"anonymous":false},{"type":"event","name":"TokenMintLimitSet","inputs":[{"name":"contractAddress","type":"address","indexed":true,"internalType":"address"},{"name":"tokenId","type":"uint256","indexed":true,"internalType":"uint256"},{"name":"limit","type":"uint256","indexed":false,"internalType":"uint256"}],"anonymous":false},{"type":"event","name":"TokenTxLimitSet","inputs":[{"name":"contractAddress","type":"address","indexed":true,"internalType":"address"},{"name":"tokenId","type":"uint256","indexed":true,"internalType":"uint256"},{"name":"limit","type":"uint256","indexed":false,"internalType":"uint256"}],"anonymous":false},{"type":"event","name":"Upgraded","inputs":[{"name":"implementation","type":"address","indexed":true,"internalType":"address"}],"anonymous":false},{"type":"error","name":"AddressNotAllowlisted","inputs":[{"name":"_account","type":"address","internalType":"address"}]},{"type":"error","name":"ApprovalManagerCannotBeZero","inputs":[]},{"type":"error","name":"ContractHasNoOwner","inputs":[{"name":"_contractAddress","type":"address","internalType":"address"}]},{"type":"error","name":"ContractPaused","inputs":[]},{"type":"error","name":"CurrencyMismatch","inputs":[{"name":"_suppliedCurrency","type":"address","internalType":"address"},{"name":"_configuredCurrency","type":"address","internalType":"address"}]},{"type":"error","name":"CurrencyNotApproved","inputs":[{"name":"_currencyAddress","type":"address","internalType":"address"}]},{"type":"error","name":"DirectSaleNotConfigured","inputs":[{"name":"_contractAddress","type":"address","internalType":"address"},{"name":"_tokenId","type":"uint256","internalType":"uint256"}]},{"type":"error","name":"ERC20FeeOnTransferUnsupported","inputs":[{"name":"_currencyAddress","type":"address","internalType":"address"},{"name":"_expectedAmount","type":"uint256","internalType":"uint256"},{"name":"_receivedAmount","type":"uint256","internalType":"uint256"}]},{"type":"error","name":"IncorrectETHAmount","inputs":[{"name":"_requiredAmount","type":"uint256","internalType":"uint256"},{"name":"_suppliedAmount","type":"uint256","internalType":"uint256"}]},{"type":"error","name":"InsufficientTokenBalance","inputs":[{"name":"_account","type":"address","internalType":"address"},{"name":"_contractAddress","type":"address","internalType":"address"},{"name":"_tokenId","type":"uint256","internalType":"uint256"},{"name":"_requestedQuantity","type":"uint256","internalType":"uint256"},{"name":"_availableQuantity","type":"uint256","internalType":"uint256"}]},{"type":"error","name":"InvalidERC1155Contract","inputs":[{"name":"_contractAddress","type":"address","internalType":"address"}]},{"type":"error","name":"InvalidERC1155Transfer","inputs":[{"name":"_contractAddress","type":"address","internalType":"address"},{"name":"_tokenId","type":"uint256","internalType":"uint256"},{"name":"_seller","type":"address","internalType":"address"},{"name":"_buyer","type":"address","internalType":"address"},{"name":"_quantity","type":"uint256","internalType":"uint256"}]},{"type":"error","name":"MarketConfigAddressCannotBeZero","inputs":[{"name":"_field","type":"bytes32","internalType":"bytes32"}]},{"type":"error","name":"MarketplaceNotApproved","inputs":[{"name":"_account","type":"address","internalType":"address"},{"name":"_contractAddress","type":"address","internalType":"address"}]},{"type":"error","name":"MaxMintExceeded","inputs":[{"name":"_requestedQuantity","type":"uint256","internalType":"uint256"},{"name":"_maxMints","type":"uint256","internalType":"uint256"}]},{"type":"error","name":"MintLimitExceeded","inputs":[{"name":"_contractAddress","type":"address","internalType":"address"},{"name":"_tokenId","type":"uint256","internalType":"uint256"},{"name":"_account","type":"address","internalType":"address"},{"name":"_requestedQuantity","type":"uint256","internalType":"uint256"},{"name":"_mintedQuantity","type":"uint256","internalType":"uint256"},{"name":"_limit","type":"uint256","internalType":"uint256"}]},{"type":"error","name":"MsgValueMustBeZero","inputs":[]},{"type":"error","name":"MsgValueUnsupportedForERC20","inputs":[]},{"type":"error","name":"NotContractOwner","inputs":[{"name":"_contractAddress","type":"address","internalType":"address"},{"name":"_account","type":"address","internalType":"address"}]},{"type":"error","name":"PayoutFailed","inputs":[{"name":"_revertData","type":"bytes","internalType":"bytes"}]},{"type":"error","name":"PayoutLengthMismatch","inputs":[{"name":"_recipientsLength","type":"uint256","internalType":"uint256"},{"name":"_amountsLength","type":"uint256","internalType":"uint256"}]},{"type":"error","name":"PayoutTotalMismatch","inputs":[{"name":"_expectedAmount","type":"uint256","internalType":"uint256"},{"name":"_actualAmount","type":"uint256","internalType":"uint256"}]},{"type":"error","name":"PlatformCommissionExceeded","inputs":[{"name":"_platformCommission","type":"uint256","internalType":"uint256"},{"name":"_maxPlatformCommission","type":"uint256","internalType":"uint256"}]},{"type":"error","name":"PriceMismatch","inputs":[{"name":"_suppliedPrice","type":"uint256","internalType":"uint256"},{"name":"_configuredPrice","type":"uint256","internalType":"uint256"}]},{"type":"error","name":"QuantityCannotBeZero","inputs":[]},{"type":"error","name":"QuantityExceedsSalePriceQuantity","inputs":[{"name":"_requestedQuantity","type":"uint256","internalType":"uint256"},{"name":"_availableQuantity","type":"uint256","internalType":"uint256"}]},{"type":"error","name":"RoyaltiesExceedSaleAmount","inputs":[{"name":"_royalties","type":"uint256","internalType":"uint256"},{"name":"_saleAmount","type":"uint256","internalType":"uint256"}]},{"type":"error","name":"SaleNotStarted","inputs":[{"name":"_startTime","type":"uint256","internalType":"uint256"}]},{"type":"error","name":"SalePriceCannotBeZero","inputs":[]},{"type":"error","name":"SalePriceDoesNotExist","inputs":[{"name":"_contractAddress","type":"address","internalType":"address"},{"name":"_tokenId","type":"uint256","internalType":"uint256"},{"name":"_seller","type":"address","internalType":"address"}]},{"type":"error","name":"SelfPurchaseUnsupported","inputs":[{"name":"_seller","type":"address","internalType":"address"}]},{"type":"error","name":"SplitLengthMismatch","inputs":[{"name":"_recipientsLength","type":"uint256","internalType":"uint256"},{"name":"_ratiosLength","type":"uint256","internalType":"uint256"}]},{"type":"error","name":"SplitRatioCannotBeZero","inputs":[{"name":"_index","type":"uint256","internalType":"uint256"}]},{"type":"error","name":"SplitRecipientCannotBeZero","inputs":[{"name":"_index","type":"uint256","internalType":"uint256"}]},{"type":"error","name":"SplitRecipientsExceededMax","inputs":[{"name":"_recipientsLength","type":"uint256","internalType":"uint256"},{"name":"_maxRecipients","type":"uint256","internalType":"uint256"}]},{"type":"error","name":"SplitRecipientsRequired","inputs":[]},{"type":"error","name":"SplitTotalInvalid","inputs":[{"name":"_totalRatio","type":"uint256","internalType":"uint256"},{"name":"_requiredTotal","type":"uint256","internalType":"uint256"}]},{"type":"error","name":"StakingFeeExceedsMarketplaceFee","inputs":[{"name":"_marketplaceFee","type":"uint256","internalType":"uint256"},{"name":"_stakingFee","type":"uint256","internalType":"uint256"}]},{"type":"error","name":"TokenNotFound","inputs":[{"name":"_contractAddress","type":"address","internalType":"address"},{"name":"_tokenId","type":"uint256","internalType":"uint256"}]},{"type":"error","name":"TransactionLimitExceeded","inputs":[{"name":"_contractAddress","type":"address","internalType":"address"},{"name":"_tokenId","type":"uint256","internalType":"uint256"},{"name":"_account","type":"address","internalType":"address"},{"name":"_usedTransactions","type":"uint256","internalType":"uint256"},{"name":"_limit","type":"uint256","internalType":"uint256"}]}],"bytecode":{"object":"0x60a08060405234620000e157306080526000549060ff8260081c166200008f575060ff8082160362000053575b6040516158199081620000e7823960805181818161056201528181610a1d0152612cfe0152f35b60ff90811916176000557f7f26b83ff96e1f2b6a682f133852f6798a09c465da95921460cefb3847402498602060405160ff8152a1386200002c565b62461bcd60e51b815260206004820152602760248201527f496e697469616c697a61626c653a20636f6e747261637420697320696e697469604482015266616c697a696e6760c81b6064820152608490fd5b600080fdfe6080604052600436101561001257600080fd5b60003560e01c8063176ab4401461026757806321ede0321461026257806328fbba031461025d5780632c740844146102585780633492e5a8146102535780633659cfe61461024e578063369679a4146102495780633f83e9e0146102445780634f1ef2861461023f57806352d1902d1461023a578063552f791d146102355780635a501f8f146102305780635faec4061461022b578063614bd944146102265780636afaf006146102215780636e2f4d8b1461021c578063715018a61461021757806376902b83146102125780637b2db4bb1461020d5780637f358230146102085780638760251a14610203578063882796f1146101fe5780638da5cb5b146101f957806399273b3d146101f4578063af231a58146101ef578063b187bd26146101ea578063b64843b2146101e5578063b8aefc63146101e0578063bf3d90f8146101db578063c7c83d17146101d6578063d5f339a8146101d1578063d7a9fb7c146101cc578063d80b23e3146101c7578063e4e87e3b146101c2578063f1035744146101bd578063f2fde38b146101b85763ff5c83a4146101b357600080fd5b6128da565b612849565b6127bf565b612735565b6126ab565b612621565b61249b565b612471565b6123f4565b61237d565b612294565b612270565b6121e6565b611bc3565b611b9a565b611b5e565b611b08565b611a7e565b6119e5565b61191c565b6118be565b6117cb565b61105f565b610f29565b610b8a565b610b16565b610aca565b610a0a565b610984565b610825565b610759565b61053b565b6104b1565b610427565b6103da565b610324565b610282565b6001600160a01b0381160361027d57565b600080fd5b3461027d5760006020366003190112610321576004356102a18161026c565b6102a961292a565b6102b2816153ef565b8173__$c98ca6a62396e5a7a1471db151198a1f31$__91823b1561031d5760405163ed56be5b60e01b815260fb60048201526001600160a01b03909116602482015291829060449082905af480156103185761030c575080f35b61031590610864565b80f35b612a9c565b5080fd5b80fd5b3461027d5760006020366003190112610321576004356103438161026c565b61034b61292a565b6103548161542e565b8173__$c98ca6a62396e5a7a1471db151198a1f31$__91823b1561031d5760405163143df10960e11b815260fb60048201526001600160a01b03909116602482015291829060449082905af480156103185761030c575080f35b606090600319011261027d576004356103c68161026c565b90602435906044356103d78161026c565b90565b3461027d57602061041e6103ed366103ae565b6001600160a01b03928316600090815261010986526040808220938252928652828120919093168352602052902090565b54604051908152f35b3461027d5760006020366003190112610321576004356104468161026c565b61044e61292a565b61045781615467565b8173__$c98ca6a62396e5a7a1471db151198a1f31$__91823b1561031d5760405163632c2a3160e11b815260fb60048201526001600160a01b03909116602482015291829060449082905af480156103185761030c575080f35b3461027d5760006020366003190112610321576004356104d08161026c565b6104d861292a565b6104e1816154a2565b8173__$c98ca6a62396e5a7a1471db151198a1f31$__91823b1561031d5760405163148282a760e21b815260fb60048201526001600160a01b03909116602482015291829060449082905af480156103185761030c575080f35b3461027d57602036600319011261027d576004356105588161026c565b6001600160a01b037f000000000000000000000000000000000000000000000000000000000000000081169190610591308414156129cb565b6105ae6000805160206157c4833981519152938285541614612a2c565b6105b661292a565b604051906105c3826108e9565b600082527f4910fdfa16fed3260ed0e7147f7cc6da11a60208b5b9406d12a635614ffd91435460ff16156105ff5750506105fd9150612b55565b005b6020600491604094939451928380926352d1902d60e01b825286165afa6000918161065a575b506106475760405162461bcd60e51b81528061064360048201612b06565b0390fd5b6105fd936106559114612aa8565b612be5565b61067c91925060203d8111610683575b610674818361091f565b810190612a8d565b9038610625565b503d61066a565b90815180825260208080930193019160005b8281106106aa575050505090565b83516001600160a01b03168552938101939281019260010161069c565b90815180825260208080930193019160005b8281106106e7575050505090565b835160ff16855293810193928101926001016106d9565b906103d7916020815260018060a01b03825116602082015260208201516040820152604082015160608201526080610744606084015160a08385015260c084019061068a565b9201519060a0601f19828503019101526106c7565b3461027d5761082160046107d7610812610772366103ae565b604095929594919480958151906107888261087c565b6060608060009384815284602082015284868201528280820152015260018060a01b03809916825261010c602052828220908252602052209060018060a01b0316600052602052604060002090565b8351946107e38661087c565b8154168552600181015460208601526002810154848601526108076003820161386c565b6060860152016138c4565b608083015251918291826106fe565b0390f35b3461027d57604036600319011261027d576105fd6004356108458161026c565b6024359061422f565b634e487b7160e01b600052604160045260246000fd5b6001600160401b03811161087757604052565b61084e565b60a081019081106001600160401b0382111761087757604052565b61014081019081106001600160401b0382111761087757604052565b60e081019081106001600160401b0382111761087757604052565b604081019081106001600160401b0382111761087757604052565b602081019081106001600160401b0382111761087757604052565b606081019081106001600160401b0382111761087757604052565b90601f801991011681019081106001600160401b0382111761087757604052565b6040519061094d82610897565b565b6040519061094d826108b3565b6040519061094d8261087c565b6001600160401b03811161087757601f01601f191660200190565b604036600319011261027d5760043561099c8161026c565b602435906001600160401b03821161027d573660238301121561027d578160040135906109c882610969565b916109d6604051938461091f565b808352366024828601011161027d5760208160009260246105fd97018387013784010152612cf4565b600091031261027d57565b3461027d57600036600319011261027d577f00000000000000000000000000000000000000000000000000000000000000006001600160a01b03163003610a64576040516000805160206157c48339815191528152602090f35b60405162461bcd60e51b815260206004820152603860248201527f555550535570677261646561626c653a206d757374206e6f742062652063616c6044820152771b1959081d1a1c9bdd59da0819195b1959d85d1958d85b1b60421b6064820152608490fd5b3461027d57604036600319011261027d57600435610ae78161026c565b60018060a01b031660005261010a60205260406000206024356000526020526020604060002054604051908152f35b3461027d57602061041e610b29366103ae565b6001600160a01b03928316600090815261010b86526040808220938252928652828120919093168352602052902090565b9181601f8401121561027d578235916001600160401b03831161027d576020808501948460051b01011161027d57565b3461027d5760e036600319011261027d576004803590610ba98261026c565b60243590604435610bb98161026c565b6084356064356001600160401b0360a43581811161027d57610bde9036908701610b5a565b9160c43590811161027d57610bf69036908801610b5a565b92909160ff61010d5416610e5157610c0d87614a8a565b610c1984848484614ecf565b610c228a614b3a565b8415610e40578515610e2f5760018060a01b038a1697610c5c6040918251627eeac760e11b81528c818d8180602097889533898401614012565b03915afa90811561031857600091610e12575b50898110610df2575061010554610cb7908390610c9c906001600160a01b03165b6001600160a01b031690565b8d8651808095819463e985e9c560e01b835233898401613420565b03915afa90811561031857600091610dc5575b5015610da7575090610d9689610d918d9e610d7a7fa98b0b2592a02d5bb9ee933ec6786e7ea38ed4539557337ebe429fe35802907e9d9e9f8c610da29c9b9a9998610d25610d1661095c565b6001600160a01b039098168852565b8601528d87860152610d38368a8a613451565b6060860152610d48368c8c6134b4565b6080860152610d6b339360018060a01b031660005261010c602052604060002090565b90600052602052604060002090565b9060018060a01b0316600052602052604060002090565b6140e5565b51968796339a88614184565b0390a4005b825163d65b0d6960e01b8152908190610643908f9033908401613420565b610de59150833d8511610deb575b610ddd818361091f565b8101906140d0565b38610cca565b503d610dd3565b906106438e928b8f8751958695636906ef1760e11b87523390870161409e565b610e299150833d851161068357610674818361091f565b38610c6f565b60405163c6b949a960e01b81528890fd5b6040516331cc996d60e11b81528890fd5b60405163ab35696f60e01b81528890fd5b81516001600160a01b031681526101408101929161094d91906020818101516001600160a01b0316908301526040818101516001600160a01b0316908301526060818101516001600160a01b0316908301526080818101516001600160a01b03169083015260a0818101516001600160a01b03169083015260c0818101516001600160a01b03169083015260e0818101516001600160a01b031690830152610100818101516001600160a01b031690830152610120908101516001600160a01b0316910152565b3461027d576000806003193601126103215761082190611053604051610f4e81610897565b8281528260208201528260408201528260608201528260808201528260a08201528260c08201528260e082015261010092808483015261012080920152611040610f96610940565b60fb546001600160a01b031681529360fc54610fc6906001600160a01b03165b6001600160a01b03166020870152565b60fd546001600160a01b0316604086015260fe546001600160a01b0316606086015260ff546001600160a01b0316608086015280546001600160a01b031660a0860152610101546001600160a01b031660c0860152610102546001600160a01b031660e0860152610103546001600160a01b031690850152565b610104546001600160a01b031690830152565b60405191829182610e62565b60c036600319011261027d5761107660043561026c565b61108160443561026c565b61108c60643561026c565b611094614048565b60ff61010d54166117475760a43515611735576001600160a01b0333604435821614611712576110c5606435614a8a565b6110d0600435614b3a565b6110fb604435610d7a602435610d6b60043560018060a01b031660005261010c602052604060002090565b600281015480156116db5781546001600160a01b03168360643516848216036116bb575060018201546084358103611699575060a43581106116775750604051627eeac760e11b81526020818061115a60243560443560048401614012565b038186600435165afa90811561031857600091611658575b5060a43581106115595750610105546111b79060209061119a906001600160a01b0316610c90565b6040518093819263e985e9c560e01b835260443560048401613420565b038186600435165afa90811561031857600091611639575b5015611619576111e360843560a435613522565b60fc549091906111fb906001600160a01b0316610c90565b6040516361fe24a960e11b81526004810184905290602090829060249082905afa908115610318576112429161123a916000916115fa575b508461403b565b606435614cff565b61125260a43560028301546142c7565b90816002820155611271600461126a6003840161386c565b92016138c4565b91156115c2575b604051627eeac760e11b81526020818061129a60243560443560048401614012565b038188600435165afa908115610318576000916115a3575b50604051627eeac760e11b815290602082806112d46024353360048401614012565b038189600435165afa91821561031857600092611582575b5060a4358110611559576101055461130c906001600160a01b0316610c90565b803b1561027d5760405163eb46c45b60e01b81526001600160a01b03600480358216908301526044803591909116602480840191909152339183019190915235606482015260a48035608483015260c090820152600060c482018190529091829081838160e4810103925af1801561031857611540575b50604051627eeac760e11b815290602082806113a760243560443560048401614012565b03818a600435165afa9182156103185760009261151b575b506113cd9060a435906142c7565b14908115916114a6575b50611462576113f292604435906064356024356004356146fa565b6040805160243581526001600160a01b036064351660208201526084359181019190915260a43560608201526004358216913391604435909116907f12bc30bbc1c37d31b51d08cc6254da96f9626f008933e693e85e93074d7886949080608081015b0390a46105fd6001606555565b604051638791019960e01b81526001600160a01b03600480358216908301526024803590830152604480359091169082015233606482015260a48035608483015290fd5b604051627eeac760e11b81529150602082806114c86024353360048401614012565b038189600435165afa918215610318576000926114f6575b506114ee9060a4359061403b565b1415386113d7565b6114ee9192506115149060203d60201161068357610674818361091f565b91906114e0565b6113cd9192506115399060203d60201161068357610674818361091f565b91906113bf565b8061154d61155392610864565b806109ff565b38611383565b61064390604051918291636906ef1760e11b835260a4356024356004356044356004870161409e565b61159c91925060203d60201161068357610674818361091f565b90386112ec565b6115bc915060203d60201161068357610674818361091f565b386112b2565b6115f56115f0604435610d7a602435610d6b60043560018060a01b031660005261010c602052604060002090565b6141c5565b611278565b611613915060203d60201161068357610674818361091f565b38611233565b60405163d65b0d6960e01b81528061064360043560443560048401613420565b611652915060203d602011610deb57610ddd818361091f565b386111cf565b611671915060203d60201161068357610674818361091f565b38611172565b6040516364b7fccd60e11b815260a43560048201526024810191909152604490fd5b604051631d6bbb8d60e11b815260843560048201526024810191909152604490fd5b604051632e834cbf60e11b81529081906106439060643560048401613420565b604051630bac95f560e21b81526001600160a01b036004803582169083015260248035908301526044803590911690820152606490fd5b60405163aac1ae8b60e01b81526044356001600160a01b03166004820152602490fd5b60405163c6b949a960e01b8152600490fd5b60405163ab35696f60e01b8152600490fd5b906103d7916020815260018060a01b0380835116602083015260208301511660408201526040820151606082015260608201516080820152608082015160a082015260c06117b660a084015160e08385015261010084019061068a565b9201519060e0601f19828503019101526106c7565b3461027d5760408060031936011261027d5761082190600435906117ee8261026c565b6118af60068280516117ff816108b3565b606060c0600092838152836020820152838582015283838201528360808201528260a0820152015260018060a01b038096168152610106602052818120602435825260205220611864845195611854876108b3565b8254166001600160a01b03168652565b600181015461187b906001600160a01b0316610fb6565b60028101548486015260038101546060860152600481015460808601526118a46005820161386c565b60a0860152016138c4565b60c08301525191829182611759565b3461027d57600080600319360112610321576118d861292a565b603380546001600160a01b0319811690915581906001600160a01b03167f8be0079c531659141344cd1fd0a4f28419497f9722a3daafe3b4186f6b6457e08280a380f35b3461027d5761016036600319011261027d576105fd60043561193d8161026c565b6024356119498161026c565b6044356119558161026c565b6064356119618161026c565b60843561196d8161026c565b60a4356119798161026c565b60c435916119868361026c565b60e435936119938561026c565b61010435956119a18761026c565b61012435976119af8961026c565b61014435996119bd8b61026c565b612f04565b606090600319011261027d576004356119da8161026c565b906024359060443590565b3461027d576119f3366119c2565b916119fe3382615734565b15611a5c57611a0d8282614c83565b60018060a01b03167f2f2a73977f9734e3b74f4efe888b44cdcca6903d8ab2b5be49c3969cc6cb1b62602060009483865261010a8252604086208587528252806040872055604051908152a380f35b604051600162bed83560e01b0319815290819061064390339060048401613420565b3461027d576000602036600319011261032157600435611a9d8161026c565b611aa561292a565b611aae816154e0565b8173__$c98ca6a62396e5a7a1471db151198a1f31$__91823b1561031d576040516362cd1f1560e11b815260fb60048201526001600160a01b03909116602482015291829060449082905af480156103185761030c575080f35b3461027d57604036600319011261027d57600435611b258161026c565b60018060a01b031660005261010860205260406000206024356000526020526020604060002054604051908152f35b8015150361027d57565b3461027d57602036600319011261027d57600435611b7b81611b54565b611b8361292a565b61010d9060ff801983541691151516179055600080f35b3461027d57600036600319011261027d576033546040516001600160a01b039091168152602090f35b60c036600319011261027d576004803590611bdd8261026c565b6024359060443592611bee8461026c565b6064359360843560a4356001600160401b03811161027d57611c139036908601610b5a565b96611c1c614048565b60ff61010d54166121d557611c50611c4b88610d6b8860018060a01b0316600052610106602052604060002090565b613fb5565b805190986001600160a01b039390918416156121ba578951611c8390611c7f906001600160a01b031689615734565b1590565b61218f5790611c9491338a896155f4565b821561217e576001600160a01b038516600090815261010860205260409020611cbe908890610d6b565b54611ce433610d7a8a610d6b8a60018060a01b0316600052610109602052604060002090565b548115158061216c575b61211e5750506001600160a01b038516600090815261010a60205260409020611d18908890610d6b565b54611d3e33610d7a8a610d6b8a60018060a01b031660005261010b602052604060002090565b548115158061210d575b6120c65750506080880151801515806120bd575b6120995750606088015142811161207c57506040978881019081518084036120585750611d8886614a8a565b6020818101519097906001600160a01b03168588168682160361203c5750611db08487613522565b90888c855115600014611faa575050909192939434611f9a579088878d8d6000611e669a999897965b6001600160a01b038716600090815261010860205260409020611dfd908490610d6b565b54611f63575b6001600160a01b038716600090815261010a60205260409020611e27908490610d6b565b54611f2d575b86169e8f93519b8c9586948593632baf2acb60e01b855233908501604091949392606082019560018060a01b0316825260208201520152565b03925af1938415610318577f62f45af1ef781f07a7efa5cc0678ca0c3cdaed8c8bbe87e057d7eb5bcff7a18c9961145597611eb796611f0f575b505051611ee6575b5050516001600160a01b031690565b975193849333998590606092959493608083019660018060a01b03809316845260208401521660408201520152565b8251611f0892906001600160a01b031660a0850151918a60c0870151946143ba565b3880611ea8565b81611f2592903d1061068357610674818361091f565b503880611ea0565b611f5233610d7a85610d6b8b60018060a01b031660005261010b602052604060002090565b611f5c815461402d565b9055611e2d565b611f8833610d7a85610d6b8b60018060a01b0316600052610109602052604060002090565b611f9386825461403b565b9055611e03565b8b5163429465b160e01b81528a90fd5b60fc54611fe7929185918e90611fc8906001600160a01b0316610c90565b91516361fe24a960e11b81529081019283529384928391829160200190565b03915afa8015610318578d8d6000611e669a61201a8f968f908f9761201491869161201f575b508b61403b565b90614cff565b611dd9565b61203691508a3d8c1161068357610674818361091f565b3861200d565b8b51632e834cbf60e11b8152908190610643908a838e01613420565b8a51631d6bbb8d60e11b8152808a0185815260208101929092529081906040010390fd5b60405163456afd0b60e01b81528088019182529081906020010390fd5b60408051635bdd08f560e01b81528089018681526020810193909352918291010390fd5b50808411611d5c565b6040805163ae3586c560e01b81526001600160a01b038916818b01908152602081018c905233928101929092526060820192909252608081019290925290819060a0010390fd5b50816121188261402d565b11611d48565b60408051636d03a2e560e01b81526001600160a01b038916818b01908152602081018c9052339281019290925260608201879052608082019290925260a081019290925290819060c0010390fd5b5081612178868361403b565b11611cee565b60405163c6b949a960e01b81528690fd5b8951604051600162bed83560e01b03198152908190610643906001600160a01b03168a838d01613420565b604051634ed1072f60e11b8152806106438b8a838d01614012565b60405163ab35696f60e01b81528690fd5b3461027d5760006020366003190112610321576004356122058161026c565b61220d61292a565b61221681615522565b8173__$c98ca6a62396e5a7a1471db151198a1f31$__91823b1561031d57604051631d1d389760e11b815260fb60048201526001600160a01b03909116602482015291829060449082905af480156103185761030c575080f35b3461027d57600036600319011261027d57602060ff61010d54166040519015158152f35b3461027d57608036600319011261027d576004356044356024356122b78261026c565b606435926122c53384615734565b1561235e57907fa3f36b03a37e1948b5a4d52ddc1d9f62ab7d4e887e3a0a03e0c68d40f6075f3f916122f78585614c83565b61234c60405194612307866108ce565b82865283602087015260018060a01b0316948560005261010760205261233b87604060002090600052602052604060002090565b906020600191805184550151910155565b604080519182526020820192909252a3005b604051600162bed83560e01b0319815280610643338660048401613420565b3461027d5761238b366119c2565b916123963382615734565b15611a5c576123a58282614c83565b60018060a01b03167feead0384c6f48c02c0099b2433359d43617492f06d8e3a59cbe786b9970f7e6160206000948386526101088252604086208587528252806040872055604051908152a380f35b3461027d5760408060031936011261027d578060206004356124158161026c565b8251612420816108ce565b600080825292018290526001600160a01b03168152610107602090815282822060243583529052208151612453816108ce565b60206001835493848452015491019081528251918252516020820152f35b3461027d57600036600319011261027d57610105546040516001600160a01b039091168152602090f35b3461027d5761010036600319011261027d576004356124b98161026c565b6024356044356124c88161026c565b6084356064356001600160401b0360a43560c43582811161027d576124f1903690600401610b5a565b909260e43590811161027d5761250b903690600401610b5a565b93909260ff61010d541661174757612526611c7f338c615734565b6126025791610da293917f4c048dfd080dcfa2cccc41ef603e5f0ed6602ca215a41581d653aadf841a560b979695936125e78a6125e28d8f610d6b9061256b85614a8a565b6125778b8b8b8b614ecf565b6125818382614c83565b61259561258c61094f565b33815295610fb6565b8c60408601528d60608601528660808601526125b2368a8a613451565b60a08601526125c2368c8c6134b4565b60c08601526001600160a01b031660009081526101066020526040902090565b6136ca565b604051339c6001600160a01b03169a90988998909189613826565b604051600162bed83560e01b0319815280610643338d60048401613420565b3461027d5760006020366003190112610321576004356126408161026c565b61264861292a565b612651816155d2565b8173__$c98ca6a62396e5a7a1471db151198a1f31$__91823b1561031d576040516328b80cf560e21b815260fb60048201526001600160a01b03909116602482015291829060449082905af480156103185761030c575080f35b3461027d5760006020366003190112610321576004356126ca8161026c565b6126d261292a565b6126db816155d2565b8173__$c98ca6a62396e5a7a1471db151198a1f31$__91823b1561031d57604051631f1afd0d60e01b815260fb60048201526001600160a01b03909116602482015291829060449082905af480156103185761030c575080f35b3461027d5760006020366003190112610321576004356127548161026c565b61275c61292a565b61276581615555565b8173__$c98ca6a62396e5a7a1471db151198a1f31$__91823b1561031d57604051632867932b60e11b815260fb60048201526001600160a01b03909116602482015291829060449082905af480156103185761030c575080f35b3461027d5760006020366003190112610321576004356127de8161026c565b6127e661292a565b6127ef81615597565b8173__$c98ca6a62396e5a7a1471db151198a1f31$__91823b1561031d57604051632d8b49e160e11b815260fb60048201526001600160a01b03909116602482015291829060449082905af480156103185761030c575080f35b3461027d57602036600319011261027d576004356128668161026c565b61286e61292a565b6001600160a01b03811615612886576105fd90612982565b60405162461bcd60e51b815260206004820152602660248201527f4f776e61626c653a206e6577206f776e657220697320746865207a65726f206160448201526564647265737360d01b6064820152608490fd5b3461027d57602036600319011261027d576004356128f78161026c565b6128ff61292a565b612908816155d2565b61010580546001600160a01b0319166001600160a01b03909216919091179055005b6033546001600160a01b0316330361293e57565b606460405162461bcd60e51b815260206004820152602060248201527f4f776e61626c653a2063616c6c6572206973206e6f7420746865206f776e65726044820152fd5b603380546001600160a01b039283166001600160a01b0319821681179092559091167f8be0079c531659141344cd1fd0a4f28419497f9722a3daafe3b4186f6b6457e0600080a3565b156129d257565b60405162461bcd60e51b815260206004820152602c60248201527f46756e6374696f6e206d7573742062652063616c6c6564207468726f7567682060448201526b19195b1959d85d1958d85b1b60a21b6064820152608490fd5b15612a3357565b60405162461bcd60e51b815260206004820152602c60248201527f46756e6374696f6e206d7573742062652063616c6c6564207468726f7567682060448201526b6163746976652070726f787960a01b6064820152608490fd5b9081602091031261027d575190565b6040513d6000823e3d90fd5b15612aaf57565b60405162461bcd60e51b815260206004820152602960248201527f45524331393637557067726164653a20756e737570706f727465642070726f786044820152681a58589b195555525160ba1b6064820152608490fd5b60809060208152602e60208201527f45524331393637557067726164653a206e657720696d706c656d656e7461746960408201526d6f6e206973206e6f74205555505360901b60608201520190565b803b15612b8a576000805160206157c483398151915280546001600160a01b0319166001600160a01b03909216919091179055565b60405162461bcd60e51b815260206004820152602d60248201527f455243313936373a206e657720696d706c656d656e746174696f6e206973206e60448201526c1bdd08184818dbdb9d1c9858dd609a1b6064820152608490fd5b90612bef82612b55565b6001600160a01b0382167fbc7cd75a20ee27fd9adebab32041f755214dbc6bffa90cc0225b39da2e5c2d3b600080a2805115801590612c99575b612c31575050565b612c969160008060405193612c4585610904565b602785527f416464726573733a206c6f772d6c6576656c2064656c65676174652063616c6c6020860152660819985a5b195960ca1b6040860152602081519101845af4612c90612dff565b91612e2f565b50565b506000612c29565b90612cab82612b55565b6001600160a01b0382167fbc7cd75a20ee27fd9adebab32041f755214dbc6bffa90cc0225b39da2e5c2d3b600080a2805115801590612cec57612c31575050565b506001612c29565b6001600160a01b037f000000000000000000000000000000000000000000000000000000000000000081169290612d2d308514156129cb565b612d4a6000805160206157c4833981519152948286541614612a2c565b612d5261292a565b7f4910fdfa16fed3260ed0e7147f7cc6da11a60208b5b9406d12a635614ffd91435460ff1615612d8857505061094d9150612b55565b6020600491604094939451928380926352d1902d60e01b825286165afa60009181612ddf575b50612dcc5760405162461bcd60e51b81528061064360048201612b06565b61094d93612dda9114612aa8565b612ca1565b612df891925060203d811161068357610674818361091f565b9038612dae565b3d15612e2a573d90612e1082610969565b91612e1e604051938461091f565b82523d6000602084013e565b606090565b91929015612e915750815115612e43575090565b3b15612e4c5790565b60405162461bcd60e51b815260206004820152601d60248201527f416464726573733a2063616c6c20746f206e6f6e2d636f6e74726163740000006044820152606490fd5b825190915015612ea45750805190602001fd5b60405162461bcd60e51b8152602060048201529081906106439060248301905b919082519283825260005b848110612ef0575050826000602080949584010152601f8019910116010190565b602081830181015184830182015201612ecf565b989694929099979593916000549a60ff8c60081c1615809c819d61302a575b811561300a575b5015612fae57612f509a8c612f47600160ff196000541617600055565b612f95576131f0565b612f5657565b612f6661ff001960005416600055565b604051600181527f7f26b83ff96e1f2b6a682f133852f6798a09c465da95921460cefb384740249890602090a1565b612fa961010061ff00196000541617600055565b6131f0565b60405162461bcd60e51b815260206004820152602e60248201527f496e697469616c697a61626c653a20636f6e747261637420697320616c72656160448201526d191e481a5b9a5d1a585b1a5e995960921b6064820152608490fd5b303b1591508161301c575b5038612f2a565b6001915060ff161438613015565b600160ff8216109150612f23565b519061094d8261026c565b908161014091031261027d57613057610940565b9061306181613038565b825261306f60208201613038565b602083015261308060408201613038565b604083015261309160608201613038565b60608301526130a260808201613038565b60808301526130b360a08201613038565b60a08301526130c460c08201613038565b60c08301526130d560e08201613038565b60e08301526101006130e8818301613038565b908301526130fa610120809201613038565b9082015290565b805160fb80546001600160a01b03199081166001600160a01b0393841617909155602083015160fc80548316918416919091179055604083015160fd80548316918416919091179055606083015160fe80548316918416919091179055608083015160ff8054831691841691909117905560a08301516101008054831691841691909117815560c08401516101018054841691851691909117905560e08401516101028054841691851691909117905583015161010380549092169083161790556101209091015161094d911661010480546001600160a01b0319166001600160a01b03909216919091179055565b956132cb979293959a98949996613206816154a2565b61320f836153ef565b613218856154e0565b6132218761542e565b61322a8b615522565b6132338c615555565b61323c82615597565b61324584615467565b61324e866155d2565b613257886155d2565b6132608a6155d2565b60405163ef8c824960e01b81526001600160a01b039182166004820152928116602484015293841660448301529483166064820152978216608489015297811660a488015291821660c487015295811660e48601529485166101048501528416610124840152919291565b61014080846101448173__$c98ca6a62396e5a7a1471db151198a1f31$__5af480156103185761332b9461330892600092613343575b5050613101565b6101058054919092166001600160a01b03166001600160a01b0319909116179055565b6133336133d0565b61333b613404565b61094d6133f3565b6133629250803d10613369575b61335a818361091f565b810190613043565b3880613301565b503d613350565b1561337757565b60405162461bcd60e51b815260206004820152602b60248201527f496e697469616c697a61626c653a20636f6e7472616374206973206e6f74206960448201526a6e697469616c697a696e6760a81b6064820152608490fd5b6133ea60ff60005460081c166133e581613370565b613370565b61094d33612982565b61094d60ff60005460081c16613370565b61341960ff60005460081c166133e581613370565b6001606555565b6001600160a01b0391821681529116602082015260400190565b6001600160401b0381116108775760051b60200190565b929161345c8261343a565b9161346a604051938461091f565b829481845260208094019160051b810192831161027d57905b8282106134905750505050565b838091833561349e8161026c565b815201910190613483565b60ff81160361027d57565b92916134bf8261343a565b916134cd604051938461091f565b829481845260208094019160051b810192831161027d57905b8282106134f35750505050565b8380918335613501816134a9565b8152019101906134e6565b634e487b7160e01b600052601160045260246000fd5b8181029291811591840414171561353557565b61350c565b818110613545575050565b6000815560010161353a565b90600160401b81116108775781549080835581811061356f57505050565b61094d926000526020600020918201910161353a565b90600160401b81116108775781548183558082106135a257505050565b61094d92600052601f6020600020918180850160051c84019416806135ce575b500160051c019061353a565b600019908186019182549160200360031b1c169055386135c2565b9080516001600160401b038111610877576136048184613585565b613618602080930193600052602060002090565b908060051c9260005b8481106136945750601f198216909103908161363f575b5050505050565b9390600094855b82811061365d575050505001553880808080613638565b9091929582613689600192846136748b5160ff1690565b919060ff809160031b9316831b921b19161790565b970193929101613646565b6000805b8381106136ac575084820155600101613621565b9690836136c16001928a613674865160ff1690565b92019701613698565b815181546001600160a01b0319166001600160a01b03918216178255909190602082810151600185810180549285166001600160a01b03166001600160a01b03199093169290921790915591604084015160028601556060840151600386015560808401516004860155600585019060a0850151928351936001600160401b03851161087757819061375c8686613551565b0192600052806000209160005b858110613789575050505050505090600660c061094d93015191016135e9565b8451821684820155938201938601613769565b91908082526020809201929160005b8281106137b9575050505090565b90919293828060019287356137cd8161026c565b848060a01b031681520195019101929190926137ab565b91908082526020809201929160005b828110613801575050505090565b90919293828060019260ff8835613817816134a9565b168152019501939291016137f3565b9694926103d798969261385e959260018060a01b0316895260208901526040880152606087015260c0608087015260c086019161379c565b9260a08185039101526137e4565b9060405191828154918282526020928383019160005283600020936000905b8282106138a15750505061094d9250038361091f565b85546001600160a01b03168452600195860195889550938101939091019061388b565b906040805180938054926138eb6138df858560209181520190565b92600052602060002090565b9360005b81601f820110613d075761094d955492828210613cf1575b828210613cd7575b828210613cbd575b828210613ca3575b828210613c89575b828210613c6f575b828210613c55575b828210613c3b575b828210613c24575b50818110613c0c575b818110613bf4575b818110613bdc575b818110613bc4575b818110613bac575b818110613b94575b818110613b7c575b818110613b64575b818110613b4c575b818110613b34575b818110613b1c575b818110613b04575b818110613aec575b818110613ad4575b818110613abc575b818110613aa4575b818110613a8c575b818110613a74575b818110613a5c575b818110613a44575b818110613a2c575b818110613a14575b10613a06575b50038361091f565b60f81c8152602001386139fe565b60f083901c60ff1684529260019060200193016139f8565b60e883901c60ff1684529260019060200193016139f0565b60e083901c60ff1684529260019060200193016139e8565b60d883901c60ff1684529260019060200193016139e0565b60d083901c60ff1684529260019060200193016139d8565b60c883901c60ff1684529260019060200193016139d0565b60c083901c60ff1684529260019060200193016139c8565b60b883901c60ff1684529260019060200193016139c0565b60b083901c60ff1684529260019060200193016139b8565b60a883901c60ff1684529260019060200193016139b0565b60a083901c60ff1684529260019060200193016139a8565b609883901c60ff1684529260019060200193016139a0565b609083901c60ff168452926001906020019301613998565b608883901c60ff168452926001906020019301613990565b608083901c60ff168452926001906020019301613988565b607883901c60ff168452926001906020019301613980565b607083901c60ff168452926001906020019301613978565b606883901c60ff168452926001906020019301613970565b606083901c60ff168452926001906020019301613968565b605883901c60ff168452926001906020019301613960565b605083901c60ff168452926001906020019301613958565b604883901c60ff168452926001906020019301613950565b83901c60ff16845292600190602001930138613947565b603884901c60ff168552909360019060200194019061393f565b603084901c60ff1685529093600190602001940190613937565b602884901c60ff168552909360019060200194019061392f565b602084811c60ff1686529194909160019101940190613927565b601884901c60ff168552909360019060200194019061391f565b601084901c60ff1685529093600190602001940190613917565b600884901c60ff168552909360019060200194019061390f565b60ff841685529093600190602001940190613907565b919350916001610400602092613fa58854613f9a60ff613d2b8582851660ff169052565b613f73613dd8613f238d613ed389613e838e613d508184018a8d60081c1660ff169052565b613d638584018a8d60101c1660ff169052565b888b610200606095613d7e878201858560181c1660ff169052565b613d936080958585888501921c1660ff169052565b613e3960a097613dac898401878760281c1660ff169052565b613de960c09b613dc58d8601898960301c1660ff169052565b60e09e8f8601898960381c1660ff169052565b87876101008701921c1660ff169052565b613dfe6101208401878760481c1660ff169052565b613e136101408401878760501c1660ff169052565b613e286101608401878760581c1660ff169052565b85856101808501921c1660ff169052565b613e4e6101a08201858560681c1660ff169052565b613e636101c08201858560701c1660ff169052565b613e786101e08201858560781c1660ff169052565b01921c1660ff169052565b613e986102208c01888b60881c1660ff169052565b613ead6102408c01888b60901c1660ff169052565b613ec26102608c01888b60981c1660ff169052565b86896102808d01921c1660ff169052565b613ee86102a08a01868960a81c1660ff169052565b613efd6102c08a01868960b01c1660ff169052565b613f126102e08a01868960b81c1660ff169052565b84876103008b01921c1660ff169052565b613f386103208801848760c81c1660ff169052565b613f4d6103408801848760d01c1660ff169052565b613f626103608801848760d81c1660ff169052565b82856103808901921c1660ff169052565b613f886103a08601828560e81c1660ff169052565b6103c08501908360f01c1660ff169052565b60f81c6103e0830152565b01950191019186939194926138ef565b90604051613fc2816108b3565b60c061400d6006839560018060a01b0380825416865260018201541660208601526002810154604086015260038101546060860152600481015460808601526118a46005820161386c565b910152565b6001600160a01b039091168152602081019190915260400190565b906001820180921161353557565b9190820180921161353557565b600260655414614059576002606555565b60405162461bcd60e51b815260206004820152601f60248201527f5265656e7472616e637947756172643a207265656e7472616e742063616c6c006044820152606490fd5b6001600160a01b0391821681529116602082015260408101919091526060810191909152608081019190915260a00190565b9081602091031261027d57516103d781611b54565b815181546001600160a01b0319166001600160a01b0391821617825590919060208083015191600192838601556040840151600286015560038501906060850151928351936001600160401b0385116108775781906141448686613551565b0192600052806000209160005b8581106141715750505050505050906004608061094d93015191016135e9565b8451821684820155938201938601614151565b959391926141b7936103d798969260018060a01b031688526020880152604087015260a0606087015260a086019161379c565b9260808185039101526137e4565b600460009182815582600182015582600282015560038101805484825580614215575b50500190815490808355816141fc57505050565b60208161094d94601f935220910160051c81019061353a565b614228918552602085209081019061353a565b38806141e8565b6001600160a01b0316600081815261010c602081815260408084208685528252808420338552909152822060020154156142b2578282526020908152604080832085845282528083203360009081529252902061428b906141c5565b7f46227bd805037a939224e05cd991a64cb464f4b5c5317858af210838e59ce390339180a4565b50505050565b60001981019190821161353557565b9190820391821161353557565b906040516142e1816108ce565b602060018294805484520154910152565b9081602091031261027d57516103d7816134a9565b60405190614314826108ce565b6001825260203681840137565b6040519061432e82610904565b600282526040366020840137565b634e487b7160e01b600052603260045260246000fd5b80511561435f5760200190565b61433c565b80516001101561435f5760400190565b805182101561435f5760209160051b010190565b906143928261343a565b61439f604051918261091f565b82815280926143b0601f199161343a565b0190602036910137565b919594939286926143cc828985614846565b60fd546143e1906001600160a01b0316610c90565b604051635dc22eff60e01b81526001600160a01b03841660048201526020928382602481865afa918215610318576000926145cf575b506000911561454b575050604051632260494f60e01b81526001600160a01b039390931660048401529091908290829060249082905afa9081156103185760ff9260009261451e575b50505b1695606487116144fe5761448561447e61094d979883613522565b6064900490565b9081614493575b505061501d565b816144f79294506144a3916142c7565b926144ac614307565b60fb546144dd906144c5906001600160a01b0316610c90565b6144ce83614352565b6001600160a01b039091169052565b6144e5614307565b91806144f084614352565b528461517e565b388061448c565b60405163d6849ff160e01b81526004810188905260646024820152604490fd5b61453d9250803d10614544575b614535818361091f565b8101906142f2565b3880614460565b503d61452b565b60fc549194506145979250839161456a906001600160a01b0316610c90565b60405163b28a7bad60e01b81526001600160a01b0390921660048301529092839190829081906024820190565b03915afa9182156103185760ff93926145b2575b5050614463565b6145c89250803d1061454457614535818361091f565b38806145ab565b6145e7919250843d8611610deb57610ddd818361091f565b9038614417565b81601f8201121561027d578051916146058361343a565b92614613604051948561091f565b808452602092838086019260051b82010192831161027d578301905b82821061463d575050505090565b8151815290830190830161462f565b91909160408184031261027d578051926001600160401b039384811161027d5782019381601f8601121561027d5784516146858161343a565b90614693604051928361091f565b808252602096878084019260051b8201019185831161027d5788809201905b8382106146d257505050509483015190811161027d576103d792016145ee565b82809183516146e08161026c565b8152019101906146b2565b60001981146135355760010190565b95919692949093859461470f8692878b614846565b60fe54614724906001600160a01b0316610c90565b604051637a99dc0160e11b81526001600160a01b039990991660048a01526024890191909152604488019690965260009586908890606490829084905af19788156103185786978799614807575b50865b89518810156147a25761479661479c9161478f8a8d614374565b519061403b565b976146eb565b96614775565b929598919497909396508883116147e75761094d9798836147c7575b5050505061501d565b836147de9496506147d7916142c7565b948461517e565b388080806147be565b6040516344783bd360e11b815260048101849052602481018a9052604490fd5b9098506148279197503d8088833e61481f818361091f565b81019061464c565b9690969738614772565b9081602091031261027d57516103d78161026c565b60fc5490929061485e906001600160a01b0316610c90565b6040516361fe24a960e11b81526004810184905260209490918590839060249082905afa918215610318576148ce948691600094614a6b575b50610101546148ae906001600160a01b0316610c90565b604051808098819463470d6ed960e11b8352600483019190602083019252565b03915afa93841561031857600094614a4c575b50818411614a2c578115613638576148f7614321565b9261496186614910610c9060fb5460018060a01b031690565b9261491e846144ce89614352565b61010254614934906001600160a01b0316610c90565b60405163e286ef3360e01b81526001600160a01b0390921660048301529092839190829081906024820190565b03915afa9081156103185761094d976000926149ff575b506001600160a01b0391614992915082166144ce87614364565b6149ab61499e86614364565b516001600160a01b031690565b166149ea576149be905b6144ce85614364565b6149c6614321565b936149d181846142c7565b6149da86614352565b526149e485614364565b5261517e565b506149be6149fa61499e85614364565b6149b5565b614a1e9250803d10614a25575b614a16818361091f565b810190614831565b3880614978565b503d614a0c565b604051639bdfbb5160e01b81526004810183905260248101859052604490fd5b614a64919450853d871161068357610674818361091f565b92386148e1565b614a83919450823d841161068357610674818361091f565b9238614897565b6001600160a01b038116151580614ac6575b614aa35750565b60405163cd5f748960e01b81526001600160a01b03919091166004820152602490fd5b5061010054614add906001600160a01b0316610c90565b604051632d5ad3d560e01b81526001600160a01b038316600482015290602090829060249082905afa90811561031857600091614b1c575b5015614a9c565b614b34915060203d8111610deb57610ddd818361091f565b38614b15565b803b158015614b6d575b614b4b5750565b604051630f20e39960e21b81526001600160a01b039091166004820152602490fd5b5060206000604051828101906301ffc9a760e01b808352602482015260248152614b9681610904565b519084617530fa6000513d82614bea575b5081614be0575b5080614bd0575b80614bc1575b15614b44565b50614bcb81614c53565b614bbb565b50614bda81614bf6565b15614bb5565b9050151538614bae565b60201115915038614ba7565b6000602091604051838101906301ffc9a760e01b825263ffffffff60e01b602482015260248152614c2681610904565b5191617530fa6000513d82614c47575b5081614c40575090565b9050151590565b60201115915038614c36565b6000602091604051838101906301ffc9a760e01b8252636cdb3d1360e11b602482015260248152614c2681610904565b6040516001620b695760e21b03198152600481018390526020816024816001600160a01b0386165afa90811561031857600091614ce1575b5015614cc5575050565b610643604051928392632be7c7f360e01b845260048401614012565b614cf9915060203d811161068357610674818361091f565b38614cbb565b6001600160a01b0381168015614e7f5734614e6d576040516370a0823160e01b808252306004830152602092908383602481855afa92831561031857600093614e4e575b5061010354614d5a906001600160a01b0316610c90565b90813b1561027d57604051630aed65f560e11b81526001600160a01b038716600482015233602482015230604482015260648101889052916000908390608490829084905af1918215610318578592614e3b575b5060405190815230600482015291829060249082905afa90811561031857614ddf93600092614e1e575b50506142c7565b828103614deb57505050565b604051636ff596f360e01b81526001600160a01b0392909216600483015260248201929092526044810191909152606490fd5b614e349250803d1061068357610674818361091f565b3880614dd8565b8061154d614e4892610864565b38614dae565b614e66919350843d861161068357610674818361091f565b9138614d43565b60405163d9efa38960e01b8152600490fd5b5050803403614e8b5750565b6040516305e4640960e21b81526004810191909152346024820152604490fd5b919081101561435f5760051b0190565b356103d78161026c565b356103d7816134a9565b91929092831561500b5760058411614feb57818403614fc95792919060009384935b828510614f2957505050505060648103614f085750565b6040516357623e5560e01b8152600481019190915260646024820152604490fd5b9091929394614f44610c90614f3f888589614eab565b614ebb565b15614fb057614f65614f5f614f5a888787614eab565b614ec5565b60ff1690565b15614f9757614f88614f8e91614f82614f5f614f5a8a8989614eab565b9061403b565b956146eb565b93929190614ef1565b60405163d4c1893560e01b815260048101879052602490fd5b6040516306f5730d60e41b815260048101879052602490fd5b50604051632db4fb2960e01b8152600481018490526024810191909152604490fd5b6040516366a4d05560e01b81526004810185905260056024820152604490fd5b60405163d218e6a560e01b8152600490fd5b9192939083518551908181036150d05750506150398451614388565b92819260005b8651808210156150c15761505389916142b8565b82036150745750808561506961506f9389614374565b526146eb565b61503f565b819561509f61447e615099614f5f61509261506f976150bb97614374565b5160ff1690565b88613522565b6150a9888a614374565b526150b48789614374565b51906142c7565b946146eb565b5050955061094d94925061517e565b604051632db4fb2960e01b815260048101919091526024810191909152604490fd5b6040810190604081528251809252606081019160208094019060005b818110615150575050508281830391015281808451928381520193019160005b82811061513c575050505090565b83518552938101939281019260010161512e565b82516001600160a01b03168552938501939185019160010161510e565b9060206103d7928181520190612ec4565b9192939083518551908181036152bf575050600092835b86518510156151b5576150bb6151af9161478f878a614374565b93615195565b90929491935083810361529e57506001600160a01b0391821692831561521c575060005b8151811015615214578061520a6151f661499e61520f9486614374565b85615201848b614374565b519116876152e1565b6146eb565b6151d9565b505050509050565b60009495925084935061525e61526c61523f610c9060ff5460018060a01b031690565b94604051928391602083019663c176e63960e01b8852602484016150f2565b03601f19810183528261091f565b51925af1615278612dff565b90156152815750565b604051634c0fe4a160e11b8152908190610643906004830161516d565b604051633bc6f52760e21b8152600481018590526024810191909152604490fd5b6040516345e8c29760e11b815260048101919091526024810191909152604490fd5b615367916000806040519361531b8561530d6020998a83019763a9059cbb60e01b895260248401614012565b03601f19810187528661091f565b60018060a01b03169260405194615331866108ce565b8786527f5361666545524332303a206c6f772d6c6576656c2063616c6c206661696c656488870152519082855af1612c90612dff565b8051908282159283156153d7575b505050156153805750565b6084906040519062461bcd60e51b82526004820152602a60248201527f5361666545524332303a204552433230206f7065726174696f6e20646964206e6044820152691bdd081cdd58d8d9595960b21b6064820152fd5b6153e793508201810191016140d0565b388281615375565b6001600160a01b0316156153ff57565b60405163602d6df560e01b8152734d41524b4554504c4143455f53455454494e475360601b6004820152602490fd5b6001600160a01b03161561543e57565b60405163602d6df560e01b81526d524f59414c54595f454e47494e4560901b6004820152602490fd5b6001600160a01b03161561547757565b60405163602d6df560e01b81526f5354414b494e475f524547495354525960801b6004820152602490fd5b6001600160a01b0316156154b257565b60405163602d6df560e01b8152724e4554574f524b5f42454e454649434941525960681b6004820152602490fd5b6001600160a01b0316156154f057565b60405163602d6df560e01b81527653504143455f4f50455241544f525f524547495354525960481b6004820152602490fd5b6001600160a01b03161561553257565b60405163602d6df560e01b8152675041594d454e545360c01b6004820152602490fd5b6001600160a01b03161561556557565b60405163602d6df560e01b815276415050524f5645445f544f4b454e5f524547495354525960481b6004820152602490fd5b6001600160a01b0316156155a757565b60405163602d6df560e01b81526f5354414b494e475f53455454494e475360801b6004820152602490fd5b6001600160a01b0316156155e257565b60405163c49074af60e01b8152600490fd5b6001600160a01b031660009081526101076020908152604080832093835292905220909290615622906142d4565b90815115801561569b575b6142b25761567192611c7f9260405160208101906156668161525e8a856014916bffffffffffffffffffffffff199060601b1681520190565b5190209051906156a9565b6156785750565b60405163e2cf60cb60e01b81526001600160a01b03919091166004820152602490fd5b50602082015142101561562d565b92909291600080925b8084106156c157505050501490565b90919293615704906156d4868487614eab565b3580821161570c576040805160208101938452908101919091526156fb816060810161525e565b519020946146eb565b9291906156b2565b6040805160208101928352908101929092529061572c816060810161525e565b5190206150bb565b6000806040516020810190638da5cb5b60e01b825260048152615756816108ce565b5190845afa90615764612dff565b911580156157b8575b61579657508060208061578593518301019101614831565b6001600160a01b0390811691161490565b60405163915b8f1d60e01b81526001600160a01b039091166004820152602490fd5b50602082511061576d56fe360894a13ba1a3210667c828492db98dca3e2076cc3735a920a3ca505d382bbca26469706673582212206776b47b7048559706408dd60a0fe4349c5977fdd54c839bc5171d00c2354a2564736f6c63430008120033","linkReferences":{"src/v2/utils/MarketConfigV2.sol":{"MarketConfigV2":[{"start":924,"length":20},{"start":1086,"length":20},{"start":1345,"length":20},{"start":1483,"length":20},{"start":7064,"length":20},{"start":8960,"length":20},{"start":10043,"length":20},{"start":10181,"length":20},{"start":10319,"length":20},{"start":10457,"length":20},{"start":13245,"length":20}]}}},"methodIdentifiers":{"buy(address,uint256,address,address,uint256,uint256)":"6afaf006","cancelSalePrice(address,uint256)":"3f83e9e0","getDirectSaleConfig(address,uint256)":"6e2f4d8b","getERC1155ApprovalManager()":"c7c83d17","getMarketConfig()":"614bd944","getSalePrice(address,uint256,address)":"369679a4","getTokenAllowListConfig(address,uint256)":"bf3d90f8","getTokenMintLimit(address,uint256)":"8760251a","getTokenMintsPerAddress(address,uint256,address)":"28fbba03","getTokenTxLimit(address,uint256)":"552f791d","getTokenTxsPerAddress(address,uint256,address)":"5a501f8f","initialize(address,address,address,address,address,address,address,address,address,address,address)":"76902b83","isPaused()":"b187bd26","mintDirectSale(address,uint256,address,uint256,uint256,bytes32[])":"99273b3d","owner()":"8da5cb5b","prepareMintDirectSale(address,uint256,address,uint256,uint256,uint256,address[],uint8[])":"d5f339a8","proxiableUUID()":"52d1902d","renounceOwnership()":"715018a6","setApprovedTokenRegistry(address)":"e4e87e3b","setContractPaused(bool)":"882796f1","setERC1155ApprovalManager(address)":"ff5c83a4","setERC20ApprovalManager(address)":"d7a9fb7c","setERC721ApprovalManager(address)":"d80b23e3","setMarketplaceSettings(address)":"176ab440","setNetworkBeneficiary(address)":"3492e5a8","setPayments(address)":"af231a58","setRoyaltyEngine(address)":"21ede032","setSalePrice(address,uint256,address,uint256,uint256,address[],uint8[])":"5faec406","setSpaceOperatorRegistry(address)":"7f358230","setStakingRegistry(address)":"2c740844","setStakingSettings(address)":"f1035744","setTokenAllowListConfig(bytes32,uint256,address,uint256)":"b64843b2","setTokenMintLimit(address,uint256,uint256)":"b8aefc63","setTokenTxLimit(address,uint256,uint256)":"7b2db4bb","transferOwnership(address)":"f2fde38b","upgradeTo(address)":"3659cfe6","upgradeToAndCall(address,bytes)":"4f1ef286"},"id":95}