{"abi":[{"type":"function","name":"MAX_BATCH_SIZE","inputs":[],"outputs":[{"name":"","type":"uint256","internalType":"uint256"}],"stateMutability":"view"},{"type":"function","name":"MAX_CHECKOUT_SIZE","inputs":[],"outputs":[{"name":"","type":"uint256","internalType":"uint256"}],"stateMutability":"view"},{"type":"function","name":"checkout","inputs":[{"name":"_recipient","type":"address","internalType":"address"},{"name":"_items","type":"tuple[]","internalType":"struct IRareERC1155MarketplaceTypes.CheckoutItem[]","components":[{"name":"itemKind","type":"uint8","internalType":"uint8"},{"name":"contractAddress","type":"address","internalType":"address"},{"name":"seller","type":"address","internalType":"address"},{"name":"currencyAddress","type":"address","internalType":"address"},{"name":"tokenId","type":"uint256","internalType":"uint256"},{"name":"price","type":"uint256","internalType":"uint256"},{"name":"quantity","type":"uint256","internalType":"uint256"},{"name":"proof","type":"bytes32[]","internalType":"bytes32[]"}]}],"outputs":[{"name":"execution","type":"tuple","internalType":"struct IRareERC1155MarketplaceTypes.CheckoutExecution","components":[{"name":"summary","type":"tuple","internalType":"struct IRareERC1155MarketplaceTypes.CheckoutSummary","components":[{"name":"filledCount","type":"uint256","internalType":"uint256"},{"name":"skippedCount","type":"uint256","internalType":"uint256"},{"name":"ethSpent","type":"uint256","internalType":"uint256"},{"name":"ethRefunded","type":"uint256","internalType":"uint256"}]},{"name":"items","type":"tuple[]","internalType":"struct IRareERC1155MarketplaceTypes.CheckoutItemResult[]","components":[{"name":"itemIndex","type":"uint256","internalType":"uint256"},{"name":"itemKind","type":"uint8","internalType":"uint8"},{"name":"contractAddress","type":"address","internalType":"address"},{"name":"tokenId","type":"uint256","internalType":"uint256"},{"name":"seller","type":"address","internalType":"address"},{"name":"currencyAddress","type":"address","internalType":"address"},{"name":"price","type":"uint256","internalType":"uint256"},{"name":"quantity","type":"uint256","internalType":"uint256"},{"name":"filled","type":"bool","internalType":"bool"},{"name":"failureStage","type":"uint8","internalType":"enum IRareERC1155MarketplaceTypes.CheckoutFailureStage"},{"name":"reason","type":"bytes4","internalType":"bytes4"},{"name":"failureData","type":"bytes","internalType":"bytes"},{"name":"totalPaid","type":"uint256","internalType":"uint256"}]}]}],"stateMutability":"payable"},{"type":"function","name":"executeCheckoutItem","inputs":[{"name":"_item","type":"tuple","internalType":"struct IRareERC1155MarketplaceTypes.CheckoutItem","components":[{"name":"itemKind","type":"uint8","internalType":"uint8"},{"name":"contractAddress","type":"address","internalType":"address"},{"name":"seller","type":"address","internalType":"address"},{"name":"currencyAddress","type":"address","internalType":"address"},{"name":"tokenId","type":"uint256","internalType":"uint256"},{"name":"price","type":"uint256","internalType":"uint256"},{"name":"quantity","type":"uint256","internalType":"uint256"},{"name":"proof","type":"bytes32[]","internalType":"bytes32[]"}]},{"name":"_remainingEth","type":"uint256","internalType":"uint256"},{"name":"_recipient","type":"address","internalType":"address"},{"name":"_seller","type":"address","internalType":"address"},{"name":"_grossAmount","type":"uint256","internalType":"uint256"},{"name":"_marketplaceFee","type":"uint256","internalType":"uint256"},{"name":"_splitRecipients","type":"address[]","internalType":"address payable[]"},{"name":"_splitRatios","type":"uint8[]","internalType":"uint8[]"}],"outputs":[{"name":"totalPaid","type":"uint256","internalType":"uint256"},{"name":"newRemainingEth","type":"uint256","internalType":"uint256"}],"stateMutability":"payable"},{"type":"function","name":"executeCheckoutPayout","inputs":[{"name":"_item","type":"tuple","internalType":"struct IRareERC1155MarketplaceTypes.CheckoutItem","components":[{"name":"itemKind","type":"uint8","internalType":"uint8"},{"name":"contractAddress","type":"address","internalType":"address"},{"name":"seller","type":"address","internalType":"address"},{"name":"currencyAddress","type":"address","internalType":"address"},{"name":"tokenId","type":"uint256","internalType":"uint256"},{"name":"price","type":"uint256","internalType":"uint256"},{"name":"quantity","type":"uint256","internalType":"uint256"},{"name":"proof","type":"bytes32[]","internalType":"bytes32[]"}]},{"name":"_seller","type":"address","internalType":"address"},{"name":"_grossAmount","type":"uint256","internalType":"uint256"},{"name":"_marketplaceFee","type":"uint256","internalType":"uint256"},{"name":"_splitRecipients","type":"address[]","internalType":"address payable[]"},{"name":"_splitRatios","type":"uint8[]","internalType":"uint8[]"}],"outputs":[],"stateMutability":"payable"},{"type":"event","name":"CheckoutCompleted","inputs":[{"name":"payer","type":"address","indexed":true,"internalType":"address"},{"name":"recipient","type":"address","indexed":true,"internalType":"address"},{"name":"filledCount","type":"uint256","indexed":false,"internalType":"uint256"},{"name":"skippedCount","type":"uint256","indexed":false,"internalType":"uint256"},{"name":"ethSpent","type":"uint256","indexed":false,"internalType":"uint256"},{"name":"ethRefunded","type":"uint256","indexed":false,"internalType":"uint256"}],"anonymous":false},{"type":"event","name":"CheckoutItemProcessed","inputs":[{"name":"itemIndex","type":"uint256","indexed":false,"internalType":"uint256"},{"name":"itemKind","type":"uint8","indexed":false,"internalType":"uint8"},{"name":"contractAddress","type":"address","indexed":true,"internalType":"address"},{"name":"payer","type":"address","indexed":true,"internalType":"address"},{"name":"recipient","type":"address","indexed":true,"internalType":"address"},{"name":"tokenId","type":"uint256","indexed":false,"internalType":"uint256"},{"name":"seller","type":"address","indexed":false,"internalType":"address"},{"name":"currencyAddress","type":"address","indexed":false,"internalType":"address"},{"name":"price","type":"uint256","indexed":false,"internalType":"uint256"},{"name":"quantity","type":"uint256","indexed":false,"internalType":"uint256"},{"name":"filled","type":"bool","indexed":false,"internalType":"bool"},{"name":"failureStage","type":"uint8","indexed":false,"internalType":"enum IRareERC1155MarketplaceTypes.CheckoutFailureStage"},{"name":"reason","type":"bytes4","indexed":false,"internalType":"bytes4"},{"name":"failureData","type":"bytes","indexed":false,"internalType":"bytes"},{"name":"totalPaid","type":"uint256","indexed":false,"internalType":"uint256"}],"anonymous":false},{"type":"event","name":"ContractPausedUpdated","inputs":[{"name":"isPaused","type":"bool","indexed":false,"internalType":"bool"}],"anonymous":false},{"type":"event","name":"MarketplaceDependencyUpdated","inputs":[{"name":"field","type":"bytes32","indexed":true,"internalType":"bytes32"},{"name":"dependency","type":"address","indexed":true,"internalType":"address"}],"anonymous":false},{"type":"event","name":"MintDirectSale","inputs":[{"name":"contractAddress","type":"address","indexed":true,"internalType":"address"},{"name":"tokenId","type":"uint256","indexed":false,"internalType":"uint256"},{"name":"payer","type":"address","indexed":true,"internalType":"address"},{"name":"recipient","type":"address","indexed":true,"internalType":"address"},{"name":"seller","type":"address","indexed":false,"internalType":"address"},{"name":"quantity","type":"uint256","indexed":false,"internalType":"uint256"},{"name":"currency","type":"address","indexed":false,"internalType":"address"},{"name":"price","type":"uint256","indexed":false,"internalType":"uint256"}],"anonymous":false},{"type":"event","name":"MintDirectSaleCancelled","inputs":[{"name":"contractAddress","type":"address","indexed":true,"internalType":"address"},{"name":"tokenId","type":"uint256","indexed":true,"internalType":"uint256"}],"anonymous":false},{"type":"event","name":"OfferAccepted","inputs":[{"name":"seller","type":"address","indexed":true,"internalType":"address"},{"name":"buyer","type":"address","indexed":true,"internalType":"address"},{"name":"contractAddress","type":"address","indexed":true,"internalType":"address"},{"name":"tokenId","type":"uint256","indexed":false,"internalType":"uint256"},{"name":"currency","type":"address","indexed":false,"internalType":"address"},{"name":"price","type":"uint256","indexed":false,"internalType":"uint256"},{"name":"quantity","type":"uint256","indexed":false,"internalType":"uint256"}],"anonymous":false},{"type":"event","name":"OfferCancelled","inputs":[{"name":"buyer","type":"address","indexed":true,"internalType":"address"},{"name":"contractAddress","type":"address","indexed":true,"internalType":"address"},{"name":"tokenId","type":"uint256","indexed":true,"internalType":"uint256"},{"name":"currency","type":"address","indexed":false,"internalType":"address"},{"name":"price","type":"uint256","indexed":false,"internalType":"uint256"},{"name":"quantity","type":"uint256","indexed":false,"internalType":"uint256"},{"name":"marketplaceFeeRemaining","type":"uint256","indexed":false,"internalType":"uint256"}],"anonymous":false},{"type":"event","name":"OfferMade","inputs":[{"name":"buyer","type":"address","indexed":true,"internalType":"address"},{"name":"contractAddress","type":"address","indexed":true,"internalType":"address"},{"name":"tokenId","type":"uint256","indexed":true,"internalType":"uint256"},{"name":"currency","type":"address","indexed":false,"internalType":"address"},{"name":"price","type":"uint256","indexed":false,"internalType":"uint256"},{"name":"quantity","type":"uint256","indexed":false,"internalType":"uint256"},{"name":"marketplaceFee","type":"uint256","indexed":false,"internalType":"uint256"},{"name":"expirationTime","type":"uint256","indexed":false,"internalType":"uint256"}],"anonymous":false},{"type":"event","name":"PrepareMintDirectSale","inputs":[{"name":"contractAddress","type":"address","indexed":true,"internalType":"address"},{"name":"tokenId","type":"uint256","indexed":true,"internalType":"uint256"},{"name":"seller","type":"address","indexed":true,"internalType":"address"},{"name":"currency","type":"address","indexed":false,"internalType":"address"},{"name":"price","type":"uint256","indexed":false,"internalType":"uint256"},{"name":"startTime","type":"uint256","indexed":false,"internalType":"uint256"},{"name":"maxMints","type":"uint256","indexed":false,"internalType":"uint256"},{"name":"splitRecipients","type":"address[]","indexed":false,"internalType":"address payable[]"},{"name":"splitRatios","type":"uint8[]","indexed":false,"internalType":"uint8[]"}],"anonymous":false},{"type":"event","name":"SalePriceCancelled","inputs":[{"name":"seller","type":"address","indexed":true,"internalType":"address"},{"name":"contractAddress","type":"address","indexed":true,"internalType":"address"},{"name":"tokenId","type":"uint256","indexed":true,"internalType":"uint256"}],"anonymous":false},{"type":"event","name":"SalePriceSet","inputs":[{"name":"seller","type":"address","indexed":true,"internalType":"address"},{"name":"contractAddress","type":"address","indexed":true,"internalType":"address"},{"name":"tokenId","type":"uint256","indexed":true,"internalType":"uint256"},{"name":"currency","type":"address","indexed":false,"internalType":"address"},{"name":"price","type":"uint256","indexed":false,"internalType":"uint256"},{"name":"quantity","type":"uint256","indexed":false,"internalType":"uint256"},{"name":"expirationTime","type":"uint256","indexed":false,"internalType":"uint256"},{"name":"splitRecipients","type":"address[]","indexed":false,"internalType":"address payable[]"},{"name":"splitRatios","type":"uint8[]","indexed":false,"internalType":"uint8[]"}],"anonymous":false},{"type":"event","name":"SetTokenAllowListConfig","inputs":[{"name":"contractAddress","type":"address","indexed":true,"internalType":"address"},{"name":"tokenId","type":"uint256","indexed":true,"internalType":"uint256"},{"name":"root","type":"bytes32","indexed":false,"internalType":"bytes32"},{"name":"endTimestamp","type":"uint256","indexed":false,"internalType":"uint256"}],"anonymous":false},{"type":"event","name":"Sold","inputs":[{"name":"seller","type":"address","indexed":false,"internalType":"address"},{"name":"payer","type":"address","indexed":true,"internalType":"address"},{"name":"contractAddress","type":"address","indexed":true,"internalType":"address"},{"name":"recipient","type":"address","indexed":true,"internalType":"address"},{"name":"tokenId","type":"uint256","indexed":false,"internalType":"uint256"},{"name":"currency","type":"address","indexed":false,"internalType":"address"},{"name":"price","type":"uint256","indexed":false,"internalType":"uint256"},{"name":"quantity","type":"uint256","indexed":false,"internalType":"uint256"}],"anonymous":false},{"type":"event","name":"TokenMintLimitSet","inputs":[{"name":"contractAddress","type":"address","indexed":true,"internalType":"address"},{"name":"tokenId","type":"uint256","indexed":true,"internalType":"uint256"},{"name":"limit","type":"uint256","indexed":false,"internalType":"uint256"}],"anonymous":false},{"type":"event","name":"TokenTxLimitSet","inputs":[{"name":"contractAddress","type":"address","indexed":true,"internalType":"address"},{"name":"tokenId","type":"uint256","indexed":true,"internalType":"uint256"},{"name":"limit","type":"uint256","indexed":false,"internalType":"uint256"}],"anonymous":false},{"type":"error","name":"AddressNotAllowlisted","inputs":[{"name":"_account","type":"address","internalType":"address"}]},{"type":"error","name":"AllowListEndTimestampInvalid","inputs":[{"name":"_endTimestamp","type":"uint256","internalType":"uint256"},{"name":"_currentTime","type":"uint256","internalType":"uint256"}]},{"type":"error","name":"ApprovalManagerCannotBeZero","inputs":[]},{"type":"error","name":"BatchSizeExceeded","inputs":[{"name":"supplied","type":"uint256","internalType":"uint256"},{"name":"max","type":"uint256","internalType":"uint256"}]},{"type":"error","name":"CheckoutItemExecutionFailed","inputs":[{"name":"_stage","type":"uint8","internalType":"enum IRareERC1155MarketplaceTypes.CheckoutFailureStage"},{"name":"_failureData","type":"bytes","internalType":"bytes"}]},{"type":"error","name":"ContractHasNoOwner","inputs":[{"name":"_contractAddress","type":"address","internalType":"address"}]},{"type":"error","name":"ContractPaused","inputs":[]},{"type":"error","name":"CurrencyMismatch","inputs":[{"name":"_suppliedCurrency","type":"address","internalType":"address"},{"name":"_configuredCurrency","type":"address","internalType":"address"}]},{"type":"error","name":"CurrencyNotApproved","inputs":[{"name":"_currencyAddress","type":"address","internalType":"address"}]},{"type":"error","name":"DirectModuleCallUnsupported","inputs":[]},{"type":"error","name":"DirectSaleNotConfigured","inputs":[{"name":"_contractAddress","type":"address","internalType":"address"},{"name":"_tokenId","type":"uint256","internalType":"uint256"}]},{"type":"error","name":"ERC20FeeOnTransferUnsupported","inputs":[{"name":"_currencyAddress","type":"address","internalType":"address"},{"name":"_expectedAmount","type":"uint256","internalType":"uint256"},{"name":"_receivedAmount","type":"uint256","internalType":"uint256"}]},{"type":"error","name":"EmptyBatch","inputs":[]},{"type":"error","name":"ExecutionModuleDelegateCallFailed","inputs":[{"name":"_revertData","type":"bytes","internalType":"bytes"}]},{"type":"error","name":"IncorrectETHAmount","inputs":[{"name":"_requiredAmount","type":"uint256","internalType":"uint256"},{"name":"_suppliedAmount","type":"uint256","internalType":"uint256"}]},{"type":"error","name":"InsufficientCheckoutERC20Allowance","inputs":[{"name":"_currencyAddress","type":"address","internalType":"address"},{"name":"_requiredAmount","type":"uint256","internalType":"uint256"},{"name":"_availableAmount","type":"uint256","internalType":"uint256"}]},{"type":"error","name":"InsufficientCheckoutERC20Balance","inputs":[{"name":"_currencyAddress","type":"address","internalType":"address"},{"name":"_requiredAmount","type":"uint256","internalType":"uint256"},{"name":"_availableAmount","type":"uint256","internalType":"uint256"}]},{"type":"error","name":"InsufficientCheckoutETH","inputs":[{"name":"_requiredAmount","type":"uint256","internalType":"uint256"},{"name":"_availableAmount","type":"uint256","internalType":"uint256"}]},{"type":"error","name":"InsufficientTokenBalance","inputs":[{"name":"_account","type":"address","internalType":"address"},{"name":"_contractAddress","type":"address","internalType":"address"},{"name":"_tokenId","type":"uint256","internalType":"uint256"},{"name":"_requestedQuantity","type":"uint256","internalType":"uint256"},{"name":"_availableQuantity","type":"uint256","internalType":"uint256"}]},{"type":"error","name":"InvalidERC1155Contract","inputs":[{"name":"_contractAddress","type":"address","internalType":"address"}]},{"type":"error","name":"InvalidERC1155Mint","inputs":[{"name":"_contractAddress","type":"address","internalType":"address"},{"name":"_tokenId","type":"uint256","internalType":"uint256"},{"name":"_buyer","type":"address","internalType":"address"},{"name":"_quantity","type":"uint256","internalType":"uint256"}]},{"type":"error","name":"InvalidERC1155Transfer","inputs":[{"name":"_contractAddress","type":"address","internalType":"address"},{"name":"_tokenId","type":"uint256","internalType":"uint256"},{"name":"_seller","type":"address","internalType":"address"},{"name":"_buyer","type":"address","internalType":"address"},{"name":"_quantity","type":"uint256","internalType":"uint256"}]},{"type":"error","name":"InvalidExecutionModule","inputs":[]},{"type":"error","name":"MarketConfigAddressCannotBeZero","inputs":[{"name":"_field","type":"bytes32","internalType":"bytes32"}]},{"type":"error","name":"MarketplaceNotApproved","inputs":[{"name":"_account","type":"address","internalType":"address"},{"name":"_contractAddress","type":"address","internalType":"address"}]},{"type":"error","name":"MaxMintExceeded","inputs":[{"name":"_requestedQuantity","type":"uint256","internalType":"uint256"},{"name":"_maxMints","type":"uint256","internalType":"uint256"}]},{"type":"error","name":"MintLimitExceeded","inputs":[{"name":"_contractAddress","type":"address","internalType":"address"},{"name":"_tokenId","type":"uint256","internalType":"uint256"},{"name":"_account","type":"address","internalType":"address"},{"name":"_requestedQuantity","type":"uint256","internalType":"uint256"},{"name":"_mintedQuantity","type":"uint256","internalType":"uint256"},{"name":"_limit","type":"uint256","internalType":"uint256"}]},{"type":"error","name":"MsgValueMustBeZero","inputs":[]},{"type":"error","name":"MsgValueUnsupportedForERC20","inputs":[]},{"type":"error","name":"NotContractOwner","inputs":[{"name":"_contractAddress","type":"address","internalType":"address"},{"name":"_account","type":"address","internalType":"address"}]},{"type":"error","name":"OfferDoesNotExist","inputs":[{"name":"_contractAddress","type":"address","internalType":"address"},{"name":"_tokenId","type":"uint256","internalType":"uint256"},{"name":"_buyer","type":"address","internalType":"address"},{"name":"_currencyAddress","type":"address","internalType":"address"}]},{"type":"error","name":"OfferExpirationInvalid","inputs":[{"name":"_expirationTime","type":"uint256","internalType":"uint256"},{"name":"_currentTime","type":"uint256","internalType":"uint256"}]},{"type":"error","name":"OfferExpired","inputs":[{"name":"_contractAddress","type":"address","internalType":"address"},{"name":"_tokenId","type":"uint256","internalType":"uint256"},{"name":"_buyer","type":"address","internalType":"address"},{"name":"_currencyAddress","type":"address","internalType":"address"},{"name":"_expirationTime","type":"uint256","internalType":"uint256"}]},{"type":"error","name":"OfferPriceCannotBeZero","inputs":[]},{"type":"error","name":"PayoutFailed","inputs":[{"name":"_revertData","type":"bytes","internalType":"bytes"}]},{"type":"error","name":"PayoutLengthMismatch","inputs":[{"name":"_recipientsLength","type":"uint256","internalType":"uint256"},{"name":"_amountsLength","type":"uint256","internalType":"uint256"}]},{"type":"error","name":"PayoutTotalMismatch","inputs":[{"name":"_expectedAmount","type":"uint256","internalType":"uint256"},{"name":"_actualAmount","type":"uint256","internalType":"uint256"}]},{"type":"error","name":"PlatformCommissionExceeded","inputs":[{"name":"_platformCommission","type":"uint256","internalType":"uint256"},{"name":"_maxPlatformCommission","type":"uint256","internalType":"uint256"}]},{"type":"error","name":"PriceMismatch","inputs":[{"name":"_suppliedPrice","type":"uint256","internalType":"uint256"},{"name":"_configuredPrice","type":"uint256","internalType":"uint256"}]},{"type":"error","name":"QuantityCannotBeZero","inputs":[]},{"type":"error","name":"QuantityExceedsOfferQuantity","inputs":[{"name":"_requestedQuantity","type":"uint256","internalType":"uint256"},{"name":"_availableQuantity","type":"uint256","internalType":"uint256"}]},{"type":"error","name":"QuantityExceedsSalePriceQuantity","inputs":[{"name":"_requestedQuantity","type":"uint256","internalType":"uint256"},{"name":"_availableQuantity","type":"uint256","internalType":"uint256"}]},{"type":"error","name":"RecipientCannotBeZero","inputs":[]},{"type":"error","name":"RefundFailed","inputs":[{"name":"_revertData","type":"bytes","internalType":"bytes"}]},{"type":"error","name":"RoyaltiesExceedSaleAmount","inputs":[{"name":"_royalties","type":"uint256","internalType":"uint256"},{"name":"_saleAmount","type":"uint256","internalType":"uint256"}]},{"type":"error","name":"RoyaltyRecipientCannotBeZero","inputs":[{"name":"_index","type":"uint256","internalType":"uint256"}]},{"type":"error","name":"SaleNotStarted","inputs":[{"name":"_startTime","type":"uint256","internalType":"uint256"}]},{"type":"error","name":"SalePriceCannotBeZero","inputs":[]},{"type":"error","name":"SalePriceDoesNotExist","inputs":[{"name":"_contractAddress","type":"address","internalType":"address"},{"name":"_tokenId","type":"uint256","internalType":"uint256"},{"name":"_seller","type":"address","internalType":"address"}]},{"type":"error","name":"SalePriceExpirationInvalid","inputs":[{"name":"_expirationTime","type":"uint256","internalType":"uint256"},{"name":"_currentTime","type":"uint256","internalType":"uint256"}]},{"type":"error","name":"SalePriceExpired","inputs":[{"name":"_contractAddress","type":"address","internalType":"address"},{"name":"_tokenId","type":"uint256","internalType":"uint256"},{"name":"_seller","type":"address","internalType":"address"},{"name":"_expirationTime","type":"uint256","internalType":"uint256"}]},{"type":"error","name":"SelfOfferAcceptanceUnsupported","inputs":[{"name":"_buyer","type":"address","internalType":"address"}]},{"type":"error","name":"SelfPurchaseUnsupported","inputs":[{"name":"_seller","type":"address","internalType":"address"}]},{"type":"error","name":"SplitLengthMismatch","inputs":[{"name":"_recipientsLength","type":"uint256","internalType":"uint256"},{"name":"_ratiosLength","type":"uint256","internalType":"uint256"}]},{"type":"error","name":"SplitRatioCannotBeZero","inputs":[{"name":"_index","type":"uint256","internalType":"uint256"}]},{"type":"error","name":"SplitRecipientCannotBeZero","inputs":[{"name":"_index","type":"uint256","internalType":"uint256"}]},{"type":"error","name":"SplitRecipientsExceededMax","inputs":[{"name":"_recipientsLength","type":"uint256","internalType":"uint256"},{"name":"_maxRecipients","type":"uint256","internalType":"uint256"}]},{"type":"error","name":"SplitRecipientsRequired","inputs":[]},{"type":"error","name":"SplitTotalInvalid","inputs":[{"name":"_totalRatio","type":"uint256","internalType":"uint256"},{"name":"_requiredTotal","type":"uint256","internalType":"uint256"}]},{"type":"error","name":"TokenIdsNotStrictlyAscending","inputs":[{"name":"index","type":"uint256","internalType":"uint256"},{"name":"previousTokenId","type":"uint256","internalType":"uint256"},{"name":"tokenId","type":"uint256","internalType":"uint256"}]},{"type":"error","name":"TokenNotFound","inputs":[{"name":"_contractAddress","type":"address","internalType":"address"},{"name":"_tokenId","type":"uint256","internalType":"uint256"}]},{"type":"error","name":"TransactionLimitExceeded","inputs":[{"name":"_contractAddress","type":"address","internalType":"address"},{"name":"_tokenId","type":"uint256","internalType":"uint256"},{"name":"_account","type":"address","internalType":"address"},{"name":"_usedTransactions","type":"uint256","internalType":"uint256"},{"name":"_limit","type":"uint256","internalType":"uint256"}]},{"type":"error","name":"UnsupportedCheckoutItemKind","inputs":[{"name":"_itemKind","type":"uint8","internalType":"uint8"}]}],"bytecode":{"object":"0x60a08060405234610023573060805261484190816100298239608051816134ad0152f35b600080fdfe6080604052600436101561001257600080fd5b6000803560e01c90816342230aba1461006a57508063a3eaf4d914610065578063caa7ff9f14610060578063cfdbf2541461005b5763d65852a61461005657600080fd5b61042a565b61040e565b610376565b61034b565b60403660031901126100f857600435610082816100fb565b6024356001600160401b0381116100f457906100f0926100a96100e4933690600401610138565b9290916100b660c0604052565b604051906100c3826104c7565b8082528060208301528060408301526060820152608052606060a0526105b4565b604051918291826101da565b0390f35b8280fd5b80fd5b6001600160a01b0381160361010c57565b600080fd5b6044359061011e826100fb565b565b6064359061011e826100fb565b359061011e826100fb565b9181601f8401121561010c578235916001600160401b03831161010c576020808501948460051b01011161010c57565b634e487b7160e01b600052602160045260246000fd5b6007111561018857565b610168565b9060078210156101885752565b919082519283825260005b8481106101c6575050826000602080949584010152601f8019910116010190565b6020818301810151848301820152016101a5565b9060209182815260c09283820191835193845183830152828501516040908184015283818701516060978891828701520151926080938486015201519660a0908180860152885180975260e0918286019487848a60051b8901019b01996000975b8a89106102515750505050505050505050505090565b909192939495969798999a9b8a806001928f60df19868303018d52519081518152610284838301518483019060ff169052565b818c01516001600160a01b0316818d01528187015181880152878201516001600160a01b031688820152818901516001600160a01b0316818a0152818a0151818b01528a8201518b820152610100808301511515908201526102ef610120808401519083019061018d565b610140828101516001600160e01b0319169082015261031f61016080840151906101a0809185015283019061019a565b91610180809101519101529e0199019901979a99989695949392919061023b565b600091031261010c57565b3461010c57600036600319011261010c57602060405160328152f35b908161010091031261010c5790565b61010036600319011261010c576001600160401b0360043581811161010c576103a3903690600401610367565b6103ab610111565b6103b3610120565b9060c43584811161010c576103cc903690600401610138565b9160e43595861161010c576103e86103fc963690600401610138565b95909460a4359260843592602435906109ea565b60408051928352602083019190915290f35b3461010c57600036600319011261010c576020604051604b8152f35b60c036600319011261010c576001600160401b0360043581811161010c57610456903690600401610367565b6104616024356100fb565b60843582811161010c57610479903690600401610138565b60a49291923593841161010c576104976104af943690600401610138565b9390926104a26134aa565b6064359060443590610eac565b005b634e487b7160e01b600052604160045260246000fd5b608081019081106001600160401b038211176104e257604052565b6104b1565b6001600160401b0381116104e257604052565b60e081019081106001600160401b038211176104e257604052565b606081019081106001600160401b038211176104e257604052565b602081019081106001600160401b038211176104e257604052565b604081019081106001600160401b038211176104e257604052565b90601f801991011681019081106001600160401b038211176104e257604052565b604051906101a082018281106001600160401b038211176104e257604052565b6040519061011e82610515565b916105bd6134aa565b6105c6836146f9565b6105cf8161471a565b6105d881610883565b60a09081526105e6826108d3565b906000923494845b8281106107025750505050505080606060805101528061067a575b506080517f384a07e434e0109f1045112635ac5be1b6679f33db53df02cdcd159fcf1c4c128151916020810151936106726060604084015193015160405193849360018060a01b0316973397859094939260609260808301968352602083015260408201520152565b0390a3608090565b73__$11854c5905aa23948096e0e4d7059bb9de$__803b1561010c57604051637baf92a360e01b81526000805160206147ec833981519152600482015260006024820181905233604483015260648201939093529190829060849082905af480156106fd571561060957806106f16106f7926104e7565b80610340565b38610609565b6109de565b8761071f8787838b8661071a819d9e9c9d8b8b610960565b611054565b919790156107d657506001929161075c6107af929a61074a818c85610745898d8d610960565b6125da565b610755858989610960565b908b6126a3565b976080805161076b815161099d565b9052858060a01b036107896060610783888c8c610960565b016109bd565b16156107b8575b505b6107a9848951836107a383836109ca565b526109ca565b50612325565b019493946105ee565b6107ce60406101808401519251019182516109b0565b905238610790565b98966107af915091600193926020608051016107f2815161099d565b9052610792565b6001600160401b0381116104e25760051b60200190565b604051906101a082018281106001600160401b038211176104e257604052816101806000918281528260208201528260408201528260608201528260808201528260a08201528260c08201528260e082015282610100820152826101208201528261014082015260606101608201520152565b9061088d826107f9565b61089a6040519182610566565b82815280926108ab601f19916107f9565b019060005b8281106108bc57505050565b6020906108c7610810565b828285010152016108b0565b906108dd826107f9565b6040906108ec82519182610566565b83815280936108fd601f19916107f9565b0190600092835b838110610912575050505050565b81519060608201918083106001600160401b038411176104e25760209284528681528287818301528785830152828601015201610904565b634e487b7160e01b600052603260045260246000fd5b91908110156109825760051b8101359060fe198136030182121561010c570190565b61094a565b634e487b7160e01b600052601160045260246000fd5b90600182018092116109ab57565b610987565b919082018092116109ab57565b356109c7816100fb565b90565b80518210156109825760209160051b010190565b6040513d6000823e3d90fd5b90610a049998979695949392916109ff6134aa565b610a95565b9091565b60ff81160361010c57565b356109c781610a08565b9060406109c79260018152816020820152019061019a565b9060406109c79260028152816020820152019061019a565b9060406109c79260058152816020820152019061019a565b9060406109c79260048152816020820152019061019a565b9060406109c79260038152816020820152019061019a565b9998979695949392919060ff8b35610aac81610a08565b1615610b3057600160ff610abf8d610a13565b1614610b2657610b22610afb610b09610ad78e610a13565b60405163bb75025d60e01b602082015260ff90911660248201529182906044820190565b03601f198101835282610566565b604051631ee0c01d60e31b815291829160048301610a1d565b0390fd5b610a04999a6115dd565b989699939290919497899a610b4585846109b0565b97610b5c8c8a610b5760608b016109bd565b612979565b9c8d51610d4557610b9b98999a9b9c9d50610b81610b7c60208a016109bd565b6113a4565b868960808101359b8c809490600052602052604060002090565b54610ceb575b506001600160a01b039150610bba905060608a016109bd565b16610ca85750610bf18a7f23c89c6f5d0cd9be5a7565f18698cd630d645e8619bc0ff59c713c83d111977198999a9b9c9d9e611509565b9c5b610bff60208a016109bd565b96610c23610c0c8c6139aa565b9860c08c01359989610c1d8c6139aa565b92613233565b85610c92575b505050505050610c8b610c3e602086016109bd565b95610c4b606087016109bd565b604080519283526001600160a01b03998a166020840152820194909452928716606084015260a09485013560808401529086169533951693829190820190565b0390a49190565b610c9d958c8b612057565b388080808080610c29565b9c50899a9b610ce688999a9b610ce160607f23c89c6f5d0cd9be5a7565f18698cd630d645e8619bc0ff59c713c83d11197719b016109bd565b612bb7565b610bf3565b610d2c92610d06610d016020610d1594016109bd565b6113dd565b90600052602052604060002090565b9060018060a01b0316600052602052604060002090565b610d3b60c08a013582546109b0565b9055888689610ba1565b610b228e604051918291631ee0c01d60e31b835260048301610a35565b91908082526020809201929160005b828110610d7f575050505090565b9091929382806001928735610d93816100fb565b848060a01b03168152019501910192919092610d71565b91908082526020809201929160005b828110610dc7575050505090565b90919293828060019260ff8835610ddd81610a08565b16815201950193929101610db9565b969492610e3b94916109c79997936000805160206147ec8339815191528a5260018060a01b0380921660208b01521660408901526060880152608087015260e060a087015260e0860191610d62565b9260c0818503910152610daa565b979593906109c7999793610e9e96936000805160206147ec8339815191528b5260018060a01b0380931660208c015260408b0152166060890152608088015260a08701526101008060c0880152860191610d62565b9260e0818503910152610daa565b969591909492939460ff610ebf89610a13565b1615610f8c57600160ff610ed28a610a13565b1614610f0557610b22610ee489610a13565b60405163bb75025d60e01b815260ff90911660048201529081906024820190565b969091929394959673__$11854c5905aa23948096e0e4d7059bb9de$__93610f2f602084016109bd565b95610f3c606085016109bd565b98863b1561010c57600098608096610f6e956040519c8d9b8c9a8b9a63034a3a4560e21b8c5201359060048b01610e49565b03915af480156106fd57610f7f5750565b806106f161011e926104e7565b959690959373__$11854c5905aa23948096e0e4d7059bb9de$__9392610fc06060610fb9602086016109bd565b94016109bd565b93853b1561010c57600097610f6e936040519a8b998a9889986306fb4ae360e11b8a5260048a01610dec565b60405190610ff982610530565b60008252565b3d15611039573d906001600160401b0382116104e2576040519161102d601f8201601f191660200184610566565b82523d6000602084013e565b606090565b919082604091031261010c576020825192015190565b91939492908261106c91611066610810565b5061217e565b93809561109761108e611081602087016109bd565b6080870135908885612569565b151584866117e0565b8051909792906001600160a01b03168061118a575b50156111785750906110c491606087015191866124c4565b8051611169575060009384939261110b926111057f5e94cc2b8b9fd616c1ffff3497627b534929331e1f3b26d7dc3360464546d50c5460018060a01b031690565b946112da565b90602082519201905af461111d610fff565b901561114f576111389192506020808251830101910161103e565b600161010084015291906101808201529160019190565b61115b611162916123f5565b9083612281565b9160009190565b92505050611162915082612258565b94505050945050611162915082612258565b6001600160a01b031660808a0152386110ac565b9035601e198236030181121561010c5701602081359101916001600160401b03821161010c578160051b3603831361010c57565b81835290916001600160fb1b03831161010c5760209260051b809284830137010190565b906112906109c79260ff813561120b81610a08565b168352602081013561121c816100fb565b6001600160a01b031660208401526112496112396040830161012d565b6001600160a01b03166040850152565b6112686112586060830161012d565b6001600160a01b03166060850152565b6080810135608084015260a081013560a084015260c081013560c084015260e081019061119e565b9091610100908160e082015201916111d2565b90815180825260208080930193019160005b8281106112c3575050505090565b835160ff16855293810193928101926001016112b5565b909161132b939260018060a01b038085511691602092838701516040880151918460a060808b01519a0151976040519b8c9a63caa7ff9f60e01b8a8d015261010060248d01526101248c01906111f6565b9560448b0152166064890152608488015260a487015260c486015260231992838683030160e48701528080885193848152019701926000905b838210611387575050505050828403016101048301526109c792610afb916112a3565b845181168952978201978997509382019360019190910190611364565b6001600160a01b031660009081527f5e94cc2b8b9fd616c1ffff3497627b534929331e1f3b26d7dc3360464546d50f6020526040902090565b6001600160a01b031660009081527f5e94cc2b8b9fd616c1ffff3497627b534929331e1f3b26d7dc3360464546d5106020526040902090565b6001600160a01b031660009081527f5e94cc2b8b9fd616c1ffff3497627b534929331e1f3b26d7dc3360464546d5136020526040902090565b6001600160a01b031660009081527f5e94cc2b8b9fd616c1ffff3497627b534929331e1f3b26d7dc3360464546d5126020526040902090565b6001600160a01b031660009081527f5e94cc2b8b9fd616c1ffff3497627b534929331e1f3b26d7dc3360464546d50d6020526040902090565b6001600160a01b031660009081527f5e94cc2b8b9fd616c1ffff3497627b534929331e1f3b26d7dc3360464546d5116020526040902090565b6063198101919082116109ab57565b919082039182116109ab57565b818102929181159184041417156109ab57565b818110611534575050565b60008155600101611529565b600560009182815582600182015582600282015582600382015560048101805484825580611596575b505001908154908083558161157d57505050565b60208161011e94601f935220910160051c810190611529565b6115a99185526020852090810190611529565b3880611569565b919594939060809360a084019760018060a01b038093168552602085015216604083015260608201520152565b9499969098929597919397899a6115f4818b6109b0565b9a611606818d610b5760608c016109bd565b9c8d51610d45579b9c508c9b6001600160a01b0361162660608b016109bd565b1661177c57506116e0969798999a9b61163e91611509565b9a5b60026116718b610d158c608061166061165b602084016109bd565b611416565b910135600052602052604060002090565b0161168160c08b01358254611509565b80915515611753575b7f5e94cc2b8b9fd616c1ffff3497627b534929331e1f3b26d7dc3360464546d50a546116d9906001600160a01b03168a8a8d60c0830135936116d36020608086013595016109bd565b90612de7565b8989612057565b7f857740d63aaa9598f8360ee80e7eb51d65b40b9cd2c7cfa85743bb160df9cb1961170d602084016109bd565b9361171a606085016109bd565b6040516001600160a01b039485169690941694339492839261174e9260c08101359260a082013592916080013590866115b0565b0390a4565b6117776117728b610d158c610d0661165b6020608084013593016109bd565b611540565b61168a565b9b88999a9b915061179790610ce160606116e09a9b016109bd565b611640565b6040519060c082018281106001600160401b038211176104e257604052606060a0836000815260006020820152600060408201526000838201528260808201520152565b929091926117ec61179c565b928135916117f983610a08565b60ff8316958615611861575061180e83610a08565b6001861461184b57505061182190610a08565b6040519263bb75025d60e01b602085015260248401526024835261184483610515565b6000929190565b915091935061185a9250611bc5565b9192909190565b93955090915061185a93506118b5565b903590601e198136030182121561010c57018035906001600160401b03821161010c57602001918160051b3603831361010c57565b9081602091031261010c575190565b916118be61179c565b9260608101916118dc6118d86118d3856109bd565b6127a3565b1590565b611acb576020938483016118fa6118d86118f5836109bd565b612831565b611a8257908161194461191161193c9695946109bd565b9361191b886109bd565b60808701359560a08801359788888860c08401359c8460e08f960190611871565b9690956141d1565b60808101516001600160a01b03168b52979092909115611a555750505050505050818101518083850152806119a3575b506060915060a0810151608084015260c081015160a08401520151606082015260019161199f610fec565b9190565b7f5e94cc2b8b9fd616c1ffff3497627b534929331e1f3b26d7dc3360464546d50154611a059184916119e5906001600160a01b03165b6001600160a01b031690565b60405180809581946361fe24a960e11b8352600483019190602083019252565b03915afa9081156106fd57606093600092611a28575b5050604084015238611974565b611a479250803d10611a4e575b611a3f8183610566565b8101906118a6565b3880611a1b565b503d611a35565b611a7a9850611a749192939495969750611a6e906109bd565b916109bd565b916134ee565b916000929190565b9150506118449250611a9791509492946109bd565b604051630f20e39960e21b958101959095526001600160a01b0316602485015283604481015b03601f198101855284610566565b5050611abd939150611adf611844916109bd565b60405163cd5f748960e01b60208201526001600160a01b0390911660248201529384906044820190565b6040519060a082018281106001600160401b038211176104e257604052606060808360008152600060208201526000604082015282808201520152565b9081602091031261010c5751801515810361010c5790565b6001600160a01b0391821681529116602082015260400190565b6001600160a01b039091168152602081019190915260400190565b6001600160a01b0391821681529116602082015260408101919091526060810191909152608081019190915260a00190565b91611bce61179c565b91604080850191611bee611be1846109bd565b6001600160a01b03168652565b611bfa6119d9846109bd565b3314908115612037575b50611ffd576060850190611c1d6118d86118d3846109bd565b611fc05760209182870196611c376118d86118f58a6109bd565b611f8157611c43611b09565b50611c4d886109bd565b9160c0611c80611c5c886109bd565b94611c66846109bd565b946080810135809660a083013595869301359889946145ce565b93909115611f5957505050611c9a6119d96119d98b6109bd565b611cf686611ca7896109bd565b7f5e94cc2b8b9fd616c1ffff3497627b534929331e1f3b26d7dc3360464546d50a54611cdb906001600160a01b03166119d9565b885163e985e9c560e01b815293849283929060048401611b5e565b0381855afa60009181611f2a575b50611d41575050505050611abd90611d27611d21611844956109bd565b976109bd565b905196879363d65b0d6960e01b9085015260248401611b5e565b96929493959615611f11578685611d7592611d5b866109bd565b8751809581948293627eeac760e11b845260048401611b78565b03915afa60009181611ef2575b50611de957505091611844949391611da5611d9f611abd956109bd565b996109bd565b9051988995636906ef1760e11b90870152602486019093600093608093969560a084019760018060a01b038092168552166020840152604083015260608201520152565b92949182849a959297989a10611eba57505050508284018051868601527f5e94cc2b8b9fd616c1ffff3497627b534929331e1f3b26d7dc3360464546d50154611e65939250859190611e43906001600160a01b03166119d9565b905190835180809681946361fe24a960e11b8352600483019190602083019252565b03915afa9182156106fd57608094600093611e9b575b5050840152606081015182840152015160a082015260019161199f610fec565b611eb2929350803d10611a4e57611a3f8183610566565b903880611e7b565b611844965094611ed8611ed2611abd969b99976109bd565b9a6109bd565b9051998a96636906ef1760e11b9088015260248701611b93565b611f0a919250883d8a11611a4e57611a3f8183610566565b9038611d82565b5050611844949350611abd9250611d21611d27916109bd565b611f4b919250883d8a11611f52575b611f438183610566565b810190611b46565b9038611d04565b503d611f39565b939550939691509450611f7b611f75611f75611a7a999b6109bd565b926109bd565b92613811565b5050946118449250611f95611abd916109bd565b9551630f20e39960e21b928101929092526001600160a01b0390951660248201529384906044820190565b90611abd95506118449250611fd4906109bd565b905163cd5f748960e01b60208201526001600160a01b0390911660248201529384906044820190565b611abd945061200e611844926109bd565b905163aac1ae8b60e01b60208201526001600160a01b0390911660248201529384906044820190565b90506120456119d9846109bd565b6001600160a01b039091161438611c04565b9497969795919593929360018060a01b0390817f5e94cc2b8b9fd616c1ffff3497627b534929331e1f3b26d7dc3360464546d50c54169760405196602091846120b8848b019b636b2c295360e11b8d5260c060248d015260e48c01906111f6565b961660448a0152606489015260848801528060231994858982030160a48a01528381520195926000905b83821061214057505050505092610afb836000989961210e948a999897858098030160c4860152610daa565b51915af461211a610fff565b90156121235750565b604051631ee0c01d60e31b8152908190610b229060048301610a4d565b90919293968380600192848b35612156816100fb565b16815201980194939201906120e2565b60405161217281610530565b60008152906000368137565b90612187610810565b5060c061219382610a13565b9161221f6121a3602083016109bd565b61220f6121b2604085016109bd565b6121f36121c1606087016109bd565b936121e36121cd612166565b996121d6610587565b9b8c5260ff1660208c0152565b6001600160a01b031660408a0152565b60808581013560608a01526001600160a01b0390911690880152565b6001600160a01b031660a0860152565b60a081013582850152013560e0830152600061010083015260006101208301526000610140830152610160820152600061018082015290565b6001610120820152610160906001600160e01b0319612276846139cf565b166101408201520152565b6007821015610188576101609161012082015263ffffffff60e01b612276846139cf565b9c9b9a979390946101609a979360408f60ff6122fd9a966123209e9a835216602082015201528d606060018060a01b038094169101521660808d015260a08c015260c08b0152151560e08a015261010089019061018d565b6001600160e01b031916610120870152610180610140870181905286019061019a565b930152565b9081519160208101516123389060ff1690565b60408201516060830151608084015160a085015160c086015160e087015161010088015194996001600160a01b0396871699979894871697969095931693921515610120840151916123898361017e565b6101408501516001600160e01b03191693610160860151956101800151966040519a8b9a600160a01b60019003169e339e600160a01b60019003169d6123cf9b8d6122a5565b037fc543452f20854d5a1a0323a9ece90c2520c81824ed0cc5ebd55398431c62086391a4565b906123ff82612411565b9161240c57505060069190565b925090565b631ee0c01d60e31b6001600160e01b031961242b836139cf565b16148015906124b9575b6124aa57602481015191604482015160648301928351916006861190811561249e575b5061248b5761246790516114fa565b1061247c576124758361017e565b6001929190565b600092508291506109c7610fec565b50509150506000906000906109c7610fec565b60409150141538612458565b506000906000906109c7610fec565b506064815110612435565b9060ff82356124d281610a08565b1615801590612561575b61254a5761250260c09161250b946124f6602086016109bd565b90608086013592612569565b910135906109b0565b8181111561254057604051635bdd08f560e01b6020820152602481019190915260448101919091526109c78160648101610afb565b50506109c7610fec565b5050505060405161255a81610530565b6000815290565b5083156124dc565b9192909260005b848110612581575050505050600090565b6001600160a01b038061259483876109ca565b51511690831614806125c3575b6125ad57600101612570565b915050604092506125bd916109ca565b51015190565b508260206125d183876109ca565b510151146125a1565b92909160ff84356125ea81610a08565b1661269d57602084019182356125ff816100fb565b60018060a01b03166000527f5e94cc2b8b9fd616c1ffff3497627b534929331e1f3b26d7dc3360464546d51160205261264c60806040600020960135809690600052602052604060002090565b541561269657612667918591612661856109bd565b91612569565b6126915761268392610d0661267e610d15936109bd565b61144f565b61268d815461099d565b9055565b505050565b5050505050565b50505050565b9160ff6126af82610a13565b1661279d5760005b8281106127125750816109c7938260c06126d6602061270c96016109bd565b916126f16126e26105a7565b6001600160a01b039094168452565b60808101356020840152013560408201526107a383836109ca565b5061099d565b61272d61271f82866109ca565b51516001600160a01b031690565b60209061273e6119d98386016109bd565b6001600160a01b03909116149081612782575b5061275e576001016126b7565b604061277160c09261277d9495966109ca565b510192013582516109b0565b905290565b905061278e82866109ca565b51015160808301351438612751565b50905090565b6001600160a01b0390811690811561282a576020907f5e94cc2b8b9fd616c1ffff3497627b534929331e1f3b26d7dc3360464546d505541691602460405180948193632d5ad3d560e01b835260048301525afa6000918161280a575b506109c75750600090565b61282391925060203d8111611f5257611f438183610566565b90386127ff565b5050600190565b803b1515908161283f575090565b90506040519060208083018160006301ffc9a760e01b958684528660248201526024815261286c81610515565b51617530938685fa933d6000519086612911575b5085612907575b50846128a4575b5050508161289a575090565b6109c7915061291c565b83945090600091839460405185810192835263ffffffff60e01b6024820152602481526128d081610515565b5192fa60005190913d836128fc575b5050816128f2575b50159038808061288e565b90501515386128e7565b1015915038806128df565b1515945038612887565b841115955038612880565b6000602091604051838101906301ffc9a760e01b8252636cdb3d1360e11b60248201526024815261294c81610515565b5191617530fa6000513d8261296d575b5081612966575090565b9050151590565b6020111591503861295c565b918115612bac576001600160a01b038316908115612b745750604080516370a0823160e01b8152336004820152602092908381602481855afa60009181612b55575b506129fb575050516364db3d5960e01b918101919091526001600160a01b0390921660248301526044820152600060648201526109c78160848101610afb565b848110612b1657507f5e94cc2b8b9fd616c1ffff3497627b534929331e1f3b26d7dc3360464546d50854612a59918491612a3d906001600160a01b03166119d9565b9084518080958194636eb1769f60e11b83523360048401611b5e565b03915afa60009181612af7575b50612aa55750516337a950bb60e01b918101919091526001600160a01b0390921660248301526044820152600060648201526109c78160848101610afb565b838110612ab95750505050506109c7610fec565b90516337a950bb60e01b928101929092526001600160a01b039093166024820152604481019190915260648101919091526109c78160848101610afb565b612b0f919250843d8611611a4e57611a3f8183610566565b9038612a66565b91516364db3d5960e01b93810193909352506001600160a01b039093166024820152604481019190915260648101919091526109c78160848101610afb565b612b6d919250853d8711611a4e57611a3f8183610566565b90386129bb565b92505080821015612540576040516310da2c1360e21b6020820152602481019190915260448101919091526109c78160648101610afb565b5050506109c7610fec565b90918215612de257604080516370a0823160e01b8082523060048084019190915292959294926020929091906001600160a01b0385169060008582602481865afa909181612dc3575b50612c28578888610b22612c12610fff565b9251631ee0c01d60e31b81529283928301610a35565b7f5e94cc2b8b9fd616c1ffff3497627b534929331e1f3b26d7dc3360464546d50854909290612c5f906001600160a01b03166119d9565b803b1561010c578951630aed65f560e11b81526001600160a01b038816818b0190815233602082015230604082015260608101879052909160009183919082908490829060800103925af19081612db0575b50612cc3578888610b22612c12610fff565b8851908152308882019081529091600091869184918290819060200103915afa909181612d91575b50612cfd578787610b22612c12610fff565b949693959460009190818110612d8957612d179250611509565b905b808203612d2857505050505050565b8351636ff596f360e01b938101939093526001600160a01b03909516602483015260448201949094526064810193909352610b2290612d7484608481015b03601f198101865285610566565b51631ee0c01d60e31b81529283928301610a35565b505090612d19565b612da9919250853d8711611a4e57611a3f8183610566565b9038612ceb565b806106f1612dbd926104e7565b38612cb1565b612ddb919250863d8811611a4e57611a3f8183610566565b9038612c00565b915050565b95939194909285600093604098895195627eeac760e11b80885287612e118560049d8e8401611b78565b038860018060a01b0393848c169260209b8c9181865afa9091816130db575b50612e58578d8d610b22612e42610fff565b9251631ee0c01d60e31b81529283928301610a65565b928884106130ae57858e8b8f8b90612e7c6000945195869384938b85528401611b78565b0381875afa90918161308f575b50612e9b578e8e610b22612e42610fff565b9416803b1561010c576000878f928f838f91612f078f8f988e9051998a988997889663eb46c45b60e01b885287019391909260e0959360018060a01b03928380921687521660208601521660408401526060830152608082015260c060a0820152600060c08201520190565b03925af1908161307c575b50612f24578c8c610b22612e42610fff565b8c518281528d908d9060008c8280612f3f8c8e838901611b78565b0381885afa90918161305d575b50612f5d5750610b22612e42610fff565b87938c928b9296612f7b600096519788958694859485528401611b78565b03915afa90918161303e575b50612f99578c8c610b22612e42610fff565b90612fab8880939e9b9d9c9e94611509565b1492831593613029575b505050612fc6575050505050505050565b8551638791019960e01b958101959095526001600160a01b039788166024860152604485015286166064840152909416608482015260a4810193909352610b22906130148460c48101612d66565b51631ee0c01d60e31b81529283928301610a65565b6130349293506109b0565b1415388581612fb5565b6130569192508a3d8c11611a4e57611a3f8183610566565b9038612f87565b6130759192508d803d10611a4e57611a3f8183610566565b9038612f4c565b806106f1613089926104e7565b38612f12565b6130a79192508c8d3d10611a4e57611a3f8183610566565b9038612e89565b50858c610b228f6130148d8f898f8d612d669387519a8b96636906ef1760e11b9088015260248701611b93565b6130f39192508b3d8d11611a4e57611a3f8183610566565b9038612e30565b602090818184031261010c578051906001600160401b03821161010c57019180601f8401121561010c57825161312f816107f9565b9361313d6040519586610566565b818552838086019260051b82010192831161010c578301905b828210613164575050505090565b81518152908301908301613156565b90815180825260208080930193019160005b828110613193575050505090565b835185529381019392810192600101613185565b9092916040820191604081528451809352606081019260208096019060005b8181106131e0575050506109c79394818403910152613173565b82516001600160a01b0316865294870194918701916001016131c6565b6001600160a01b0390911681526060602082018190526109c793919261322591840190613173565b916040818403910152613173565b82516001600160a01b03821695939493929061324f908261344d565b604080516313849cfd60e21b80825291986004989392916000818061327788888f84016131a7565b0381855afa60009181613432575b506132ad578a8a610b22613297610fff565b9251631ee0c01d60e31b81529283928301610a7d565b92813b1561010c578a51630d4498e760e21b81528b92908b90600081806132d88f8c8e8489016131fd565b038183875af1908161341f575b506132f7578390610b22613297610fff565b86946133106000955196879586948594855284016131a7565b03915afa600091816133fc575b5061332f578888610b22613297610fff565b979496959760005b83518110156133f05761334a81836109ca565b5161336b8b6133648461335d81896109ca565b51926109ca565b51906109b0565b0361337857600101613337565b8988610b22896133db8a612d668b61339b89613394818f6109ca565b51996109ca565b518551631b3c965960e21b60208201526001600160a01b0394851660248201526044810199909952921660648801526084870191909152859060a4820190565b51631ee0c01d60e31b81529283928301610a7d565b50505050505050509050565b61341891923d8091833e6134108183610566565b8101906130fa565b903861331d565b806106f161342c926104e7565b386132e5565b61344691923d8091833e6134108183610566565b9038613285565b9190613458816107f9565b926134666040519485610566565b818452601f19613475836107f9565b013660208601378360005b83811061348d5750505050565b8061349a600192846109ca565b828060a01b038516905201613480565b307f00000000000000000000000000000000000000000000000000000000000000006001600160a01b0316146134dc57565b60405163197ba25b60e01b8152600490fd5b94929395919561350181610d0684611488565b956001600160e01b03191694634ed1072f60e11b8087146137ec575063915b8f1d60e01b8681146137b75750600162bed83560e01b0319868114613799575063e2cf60cb60e01b868114613765575063c6b949a960e01b8681146137465750636d03a2e560e01b8681146136d0575063ae3586c560e01b918683146136895750635bdd08f560e01b92505050838114613658575063456afd0b60e01b905082811461362f5750631d6bbb8d60e11b8281146136005750632e834cbf60e11b91821490506135d3575050506109c7610fec565b610afb6135ec60016109c794015460018060a01b031690565b604051948593602085015260248401611b5e565b600293909301546040516020810194909452602484019190915260448301525090506109c78160648101610afb565b9350505060036109c791015491610afb6040519384926020840152602483019190602083019252565b9250935050610afb60046109c793015460405194859360208501526024840160209093929193604081019481520152565b929750925093506109c79450610afb92506136a781610d06886114c1565b54916136ba81610d1584610d068b61144f565b54916040519788966020880152602487016115b0565b955092909196506109c79550610afb93506136ee82610d06896113a4565b549261370181610d1585610d068c6113dd565b5492604051988997602089015260248801929060a09491979695929760c0850198600180881b0380931686526020860152166040840152606083015260808201520152565b975050505050505050604051906020820152600481526109c78161054b565b60405160208101919091526001600160a01b03909116602482015296506109c7955086945050604484019250610afb915050565b9550505094505050610afb6135ec6109c7935460018060a01b031690565b60405160208101919091526001600160a01b039093166024840152509095506109c7945085935050604483019150610afb9050565b955050915094506109c79350610afb9150604051948593602085015260248401611b78565b94929161382581610d1587610d0686611416565b956001600160e01b0319169463c6b949a960e01b8087146137465750630bac95f560e21b86811461396a5750635493bdef60e11b9186831461391d5750632e834cbf60e11b925050508381146138ff5750631d6bbb8d60e11b90508281146138d057506364b7fccd60e11b91821490506138a4575050506109c7610fec565b610afb60026109c793015460405194859360208501526024840160209093929193604081019481520152565b600193909301546040516020810194909452602484019190915260448301525090506109c78160648101610afb565b93549094506109c7939250610afb91506001600160a01b03166135ec565b6003979097015460405160208101939093526001600160a01b03938416602484015260448301919091529190951660648601526084850152509192506109c7915082905060a48101610afb565b60405160208101919091526001600160a01b03938416602482015260448101919091529116606482015294506109c7935084925050608482019050610afb565b90604051916139b88361054b565b600183526020830160203682378351156109825752565b60048151106139df576020015190565b50600090565b604051906139f2826104fa565b606060c083600081526000602082015260006040820152600083820152600060808201528260a08201520152565b9060405191828154918282526020928383019160005283600020936000905b828210613a555750505061011e92500383610566565b85546001600160a01b031684526001958601958895509381019390910190613a3f565b90604080518093805492613a9f613a93858560209181520190565b92600052602060002090565b9360005b81601f820110613ebb5761011e955492828210613ea5575b828210613e8b575b828210613e71575b828210613e57575b828210613e3d575b828210613e23575b828210613e09575b828210613def575b828210613dd8575b50818110613dc0575b818110613da8575b818110613d90575b818110613d78575b818110613d60575b818110613d48575b818110613d30575b818110613d18575b818110613d00575b818110613ce8575b818110613cd0575b818110613cb8575b818110613ca0575b818110613c88575b818110613c70575b818110613c58575b818110613c40575b818110613c28575b818110613c10575b818110613bf8575b818110613be0575b818110613bc8575b10613bba575b500383610566565b60f81c815260200138613bb2565b60f083901c60ff168452926001906020019301613bac565b60e883901c60ff168452926001906020019301613ba4565b60e083901c60ff168452926001906020019301613b9c565b60d883901c60ff168452926001906020019301613b94565b60d083901c60ff168452926001906020019301613b8c565b60c883901c60ff168452926001906020019301613b84565b60c083901c60ff168452926001906020019301613b7c565b60b883901c60ff168452926001906020019301613b74565b60b083901c60ff168452926001906020019301613b6c565b60a883901c60ff168452926001906020019301613b64565b60a083901c60ff168452926001906020019301613b5c565b609883901c60ff168452926001906020019301613b54565b609083901c60ff168452926001906020019301613b4c565b608883901c60ff168452926001906020019301613b44565b608083901c60ff168452926001906020019301613b3c565b607883901c60ff168452926001906020019301613b34565b607083901c60ff168452926001906020019301613b2c565b606883901c60ff168452926001906020019301613b24565b606083901c60ff168452926001906020019301613b1c565b605883901c60ff168452926001906020019301613b14565b605083901c60ff168452926001906020019301613b0c565b604883901c60ff168452926001906020019301613b04565b83901c60ff16845292600190602001930138613afb565b603884901c60ff1685529093600190602001940190613af3565b603084901c60ff1685529093600190602001940190613aeb565b602884901c60ff1685529093600190602001940190613ae3565b602084811c60ff1686529194909160019101940190613adb565b601884901c60ff1685529093600190602001940190613ad3565b601084901c60ff1685529093600190602001940190613acb565b600884901c60ff1685529093600190602001940190613ac3565b60ff841685529093600190602001940190613abb565b919350916001610400602092614159885461414e60ff613edf8582851660ff169052565b614127613f8c6140d78d614087896140378e613f048184018a8d60081c1660ff169052565b613f178584018a8d60101c1660ff169052565b888b610200606095613f32878201858560181c1660ff169052565b613f476080958585888501921c1660ff169052565b613fed60a097613f60898401878760281c1660ff169052565b613f9d60c09b613f798d8601898960301c1660ff169052565b60e09e8f8601898960381c1660ff169052565b87876101008701921c1660ff169052565b613fb26101208401878760481c1660ff169052565b613fc76101408401878760501c1660ff169052565b613fdc6101608401878760581c1660ff169052565b85856101808501921c1660ff169052565b6140026101a08201858560681c1660ff169052565b6140176101c08201858560701c1660ff169052565b61402c6101e08201858560781c1660ff169052565b01921c1660ff169052565b61404c6102208c01888b60881c1660ff169052565b6140616102408c01888b60901c1660ff169052565b6140766102608c01888b60981c1660ff169052565b86896102808d01921c1660ff169052565b61409c6102a08a01868960a81c1660ff169052565b6140b16102c08a01868960b01c1660ff169052565b6140c66102e08a01868960b81c1660ff169052565b84876103008b01921c1660ff169052565b6140ec6103208801848760c81c1660ff169052565b6141016103408801848760d01c1660ff169052565b6141166103608801848760d81c1660ff169052565b82856103808901921c1660ff169052565b61413c6103a08601828560e81c1660ff169052565b6103c08501908360f01c1660ff169052565b60f81c6103e0830152565b0195019101918693919492613aa3565b90604051614176816104fa565b60c06141cc6006839560018060a01b0380825416865260018201541660208601526002810154604086015260038101546060860152600481015460808601526141c160058201613a20565b60a086015201613a78565b910152565b909396919795926141e06139e5565b986141f66141f183610d0686611488565b614169565b828b5280516001600160a01b031660808c01529760808901805160608d015289516001600160a01b0397919691908816801561445b576142369087614478565b901561443e571561441f57614251916118d8918587896144fd565b6144055787156143eb5761426883610d06866113a4565b5461427a83610d1586610d06896113dd565b54908981151592836143d7575b5050506143bd571561435c575b505050518015159081614352575b5061433d5760608401514210614328576040840151850361431357602084015191811691166001600160a01b0316036143005760c0926142e191611516565b602084015260a081015160a0840152015160c082015260019160009190565b50600093632e834cbf60e11b9392509050565b50600095631d6bbb8d60e11b95945092505050565b5060009563456afd0b60e01b95945092505050565b50600095635bdd08f560e01b95945092505050565b90508311386142a2565b610d1582610d0661437361437a95610d06886114c1565b549561144f565b549080151591826143aa575b505061439457388080614294565b5060009663ae3586c560e01b9695509350505050565b6143b591925061099d565b113880614386565b5060009a636d03a2e560e01b9a9950975050505050505050565b6143e29293506109b0565b11388981614287565b5060009a63c6b949a960e01b9a9950975050505050505050565b5060009a63e2cf60cb60e01b9a9950975050505050505050565b5060009c600162bed83560e01b03199c9b509950505050505050505050565b5060009d63915b8f1d60e01b9d9c509a5050505050505050505050565b5060009d634ed1072f60e11b9d9c509a5050505050505050505050565b604051638da5cb5b60e01b60208201908152600482529293929061449b8161054b565b6000928392839251915afa906144af610fff565b911580156144f2575b6144eb576020828051810103126100f85750602001516144d7816100fb565b6001926001600160a01b0391821691161490565b9250508190565b5060208251106144b8565b6001600160a01b031660009081527f5e94cc2b8b9fd616c1ffff3497627b534929331e1f3b26d7dc3360464546d50e602052604090209193929190600052602052604060002060405190604082018281106001600160401b038211176104e2576040526001815491828452015490816020840152159081156145c3575b506145ba5760405160609490941b6bffffffffffffffffffffffff1916602085019081526109c7946145af8160348101610afb565b51902090519061475c565b50505050600190565b90504210153861457a565b949392906145da611b09565b9582875285156146e3576145f492610d06610d1592611416565b9060028201549081156146ce57600383015480151590816146c3575b506146ae5782546001600160a01b0391821691160361469a57826001830154036146865783116146735761464960059261466594611516565b602085015261465a60048201613a20565b606085015201613a78565b608082015260019160009190565b506000936364b7fccd60e11b9392509050565b50600094631d6bbb8d60e11b949350915050565b50600094632e834cbf60e11b949350915050565b50600095635493bdef60e11b95945092505050565b905042101538614610565b50600095630bac95f560e21b95945092505050565b5060009663c6b949a960e01b9695509350505050565b6001600160a01b03161561470957565b60405162e18e7f60e71b8152600490fd5b801561474a576032811161472b5750565b6044906040519063f80a484560e01b8252600482015260326024820152fd5b60405163c2e5347d60e01b8152600490fd5b9291909291600080925b82841061477557505050501490565b909192938460051b820135808211156000146147c3576040805160208101938452908101919091526147aa8160608101610afb565b5190205b9360001981146109ab57600101929190614766565b604080516020810192835290810192909252906147e38160608101610afb565b5190206147ae56fe5e94cc2b8b9fd616c1ffff3497627b534929331e1f3b26d7dc3360464546d500a26469706673582212203968d276906ef071b00aacd306c79750e648a5a28ae4369434b9db172c49365f64736f6c63430008120033","linkReferences":{"src/marketplace/RareERC1155MarketplacePayments.sol":{"RareERC1155MarketplacePayments":[{"start":1701,"length":20},{"start":3896,"length":20},{"start":4028,"length":20}]}}},"methodIdentifiers":{"MAX_BATCH_SIZE()":"cfdbf254","MAX_CHECKOUT_SIZE()":"a3eaf4d9","checkout(address,(uint8,address,address,address,uint256,uint256,uint256,bytes32[])[])":"42230aba","executeCheckoutItem((uint8,address,address,address,uint256,uint256,uint256,bytes32[]),uint256,address,address,uint256,uint256,address[],uint8[])":"caa7ff9f","executeCheckoutPayout((uint8,address,address,address,uint256,uint256,uint256,bytes32[]),address,uint256,uint256,address[],uint8[])":"d65852a6"},"id":74}