{"abi":[{"type":"function","name":"checkSplits","inputs":[{"name":"_splitRecipients","type":"address[]","internalType":"address payable[]"},{"name":"_splitRatios","type":"uint8[]","internalType":"uint8[]"}],"outputs":[],"stateMutability":"pure"},{"type":"error","name":"CurrencyNotApproved","inputs":[{"name":"_currencyAddress","type":"address","internalType":"address"}]},{"type":"error","name":"ERC20FeeOnTransferUnsupported","inputs":[{"name":"_currencyAddress","type":"address","internalType":"address"},{"name":"_expectedAmount","type":"uint256","internalType":"uint256"},{"name":"_receivedAmount","type":"uint256","internalType":"uint256"}]},{"type":"error","name":"IncorrectETHAmount","inputs":[{"name":"_requiredAmount","type":"uint256","internalType":"uint256"},{"name":"_suppliedAmount","type":"uint256","internalType":"uint256"}]},{"type":"error","name":"MsgValueMustBeZero","inputs":[]},{"type":"error","name":"MsgValueUnsupportedForERC20","inputs":[]},{"type":"error","name":"PayoutFailed","inputs":[{"name":"_revertData","type":"bytes","internalType":"bytes"}]},{"type":"error","name":"PayoutLengthMismatch","inputs":[{"name":"_recipientsLength","type":"uint256","internalType":"uint256"},{"name":"_amountsLength","type":"uint256","internalType":"uint256"}]},{"type":"error","name":"PayoutTotalMismatch","inputs":[{"name":"_expectedAmount","type":"uint256","internalType":"uint256"},{"name":"_actualAmount","type":"uint256","internalType":"uint256"}]},{"type":"error","name":"PlatformCommissionExceeded","inputs":[{"name":"_platformCommission","type":"uint256","internalType":"uint256"},{"name":"_maxPlatformCommission","type":"uint256","internalType":"uint256"}]},{"type":"error","name":"RefundFailed","inputs":[{"name":"_revertData","type":"bytes","internalType":"bytes"}]},{"type":"error","name":"RoyaltiesExceedSaleAmount","inputs":[{"name":"_royalties","type":"uint256","internalType":"uint256"},{"name":"_saleAmount","type":"uint256","internalType":"uint256"}]},{"type":"error","name":"SplitLengthMismatch","inputs":[{"name":"_recipientsLength","type":"uint256","internalType":"uint256"},{"name":"_ratiosLength","type":"uint256","internalType":"uint256"}]},{"type":"error","name":"SplitRatioCannotBeZero","inputs":[{"name":"_index","type":"uint256","internalType":"uint256"}]},{"type":"error","name":"SplitRecipientCannotBeZero","inputs":[{"name":"_index","type":"uint256","internalType":"uint256"}]},{"type":"error","name":"SplitRecipientsExceededMax","inputs":[{"name":"_recipientsLength","type":"uint256","internalType":"uint256"},{"name":"_maxRecipients","type":"uint256","internalType":"uint256"}]},{"type":"error","name":"SplitRecipientsRequired","inputs":[]},{"type":"error","name":"SplitTotalInvalid","inputs":[{"name":"_totalRatio","type":"uint256","internalType":"uint256"},{"name":"_requiredTotal","type":"uint256","internalType":"uint256"}]},{"type":"error","name":"StakingFeeExceedsMarketplaceFee","inputs":[{"name":"_marketplaceFee","type":"uint256","internalType":"uint256"},{"name":"_stakingFee","type":"uint256","internalType":"uint256"}]}],"bytecode":{"object":"0x6080806040523461001c576116c090816100228239308160070152f35b600080fdfe6080604052307f000000000000000000000000000000000000000000000000000000000000000014600436101561003557600080fd5b60003560e01c806330863baf146109a657806338fa83e71461098f5780634c4c2619146109575780635ea509b51461094057806376fb8597146107bb5780637baf92a31461078b578063981e8fc5146104e1578063bc2af99e1461043c578063c3924158146101d1578063e6e1b2dc1461016f5763f0859688146100b857600080fd5b61016a5760a036600319011261016a576100d06109e6565b6001600160401b0360643581811161016a576100f0903690600401610b0b565b60843591821161016a573660238301121561016a5781600401359261011484610af4565b926101226040519485610ad3565b84845260209460248686019160051b8301019136831161016a57602401905b82821061015b576101598686604435876004356114c5565b005b81358152908601908601610141565b600080fd5b5061016a5760a036600319011261016a576101886109e6565b6001600160401b039060643582811161016a576101a9903690600401610b0b565b60843592831161016a576101c4610159933690600401610b79565b91604435906004356113c2565b5061016a5761010036600319011261016a576004356101ee6109e6565b6101f66109fc565b6001600160a01b039260a4358481169392909160643585840361016a576001600160401b039460c43586811161016a57610234903690600401610b0b565b9560e43590811161016a5761024d903690600401610b79565b9661025e8396608435858888610eee565b886002850154169060405190635dc22eff60e01b82528060048301526020938483602481875afa80156103a657859360009161040f575b50156103b25750602460405180948193632260494f60e01b835260048301525afa80156103a65760ff91600091610379575b505b1697606489116103595760646102e26101599a85610eaa565b0492836102f3575b505050506113c2565b8361035094975061030391610c28565b956040519161031183610a6c565b6001835283368185013785541661032783610ebd565b526040519261033584610a6c565b6001845236818501378061034884610ebd565b5285856114c5565b388080806102ea565b60405163d6849ff160e01b8152600481018a905260646024820152604490fd5b6103999150833d851161039f575b6103918183610ad3565b810190610e91565b386102c7565b503d610387565b6040513d6000823e3d90fd5b600187015460405163b28a7bad60e01b8152918d16600483015290935083915060249082908d165afa80156103a65760ff916000916103f2575b506102c9565b6104099150833d851161039f576103918183610ad3565b386103ec565b61042f9150843d8611610435575b6104278183610ad3565b810190610be1565b38610295565b503d61041d565b604036600319011261016a576001600160a01b03806104596109e6565b16908115159081610484575b5061046c57005b6024906040519063cd5f748960e01b82526004820152fd5b60249150602090600560043501541660405192838092632d5ad3d560e01b82528660048301525afa9081156103a6576000916104c3575b501582610465565b6104db915060203d8111610435576104278183610ad3565b826104bb565b5061016a5761012036600319011261016a576104fb6109e6565b6001600160a01b03606435808216900361016a5760c43590808216820361016a576001600160401b0360e43581811161016a5761053c903690600401610b0b565b93610104359180831161016a5760006105c161055d82953690600401610b79565b936105766084359860a435608435606435600435610eee565b6004803560030154604051637a99dc0160e11b81526001600160a01b039093169183019190915260448035602484015260843590830152909586929188169183919082906064820190565b03925af19384156103a657600093600095610679575b5050506000946000955b845187101561060e57610602610608916105fb8988610eda565b5190610e84565b96610e41565b956105e1565b8590856084358211610658576101599582610632575b5050506064356004356113c2565b82935061064461065093608435610c28565b936064356004356114c5565b848080610624565b6040516344783bd360e11b8152600481018390526084356024820152604490fd5b9193509193503d90816000823e6106908282610ad3565b604081838101031261016a57805184811161016a578101828201601f8201121561016a578051906106c082610af4565b946106ce6040519687610ad3565b82865260208087019360051b83010191858501831161016a57602001925b8284106107725750505050602081015193841161016a57818101601f85830101121561016a57838101519061072082610af4565b9461072e6040519687610ad3565b82865260208087019360051b8284010101938201841161016a5701602001905b8282106107625750505090913880806105d7565b815181526020918201910161074e565b8351828116810361016a578152602093840193016106ec565b5061016a57608036600319011261016a576101596107a76109e6565b6107af6109fc565b60643591600435611176565b604036600319011261016a576001600160401b0360043581811161016a576107e7903690600401610a3c565b90602492833590811161016a57610802903690600401610a3c565b90831561092e576005841161090f578184036108f2579291906000936000935b8285106108525786866064810361083557005b6064604492604051926357623e5560e01b84526004840152820152fd5b9091929394610862868387610e50565b356001600160a01b0381169081900361016a57156108da5760ff8061089061088b898888610e50565b610e76565b16156108c2576108b9916108b3916108ac61088b8a8989610e50565b1690610e84565b95610e41565b93929190610822565b60405163d4c1893560e01b8152600481018890528890fd5b6040516306f5730d60e41b8152600481018790528790fd5b604484838760405192632db4fb2960e01b84526004840152820152fd5b6040516366a4d05560e01b815260048101859052600581870152604490fd5b60405163d218e6a560e01b8152600490fd5b5061016a5761015961095136610a12565b91610bf9565b5061016a5760c036600319011261016a576101596109736109e6565b61097b6109fc565b60a4359160843591606435916004356110be565b5061016a576101596109a036610a12565b91610c4b565b5061016a5760a036600319011261016a576109bf6109e6565b6084356001600160a01b038116810361016a57610159916064359060443590600435610eee565b602435906001600160a01b038216820361016a57565b604435906001600160a01b038216820361016a57565b606090600319011261016a57600435906024356001600160a01b038116810361016a579060443590565b9181601f8401121561016a578235916001600160401b03831161016a576020808501948460051b01011161016a57565b604081019081106001600160401b03821117610a8757604052565b634e487b7160e01b600052604160045260246000fd5b606081019081106001600160401b03821117610a8757604052565b608081019081106001600160401b03821117610a8757604052565b90601f801991011681019081106001600160401b03821117610a8757604052565b6001600160401b038111610a875760051b60200190565b81601f8201121561016a57803591610b2283610af4565b92610b306040519485610ad3565b808452602092838086019260051b82010192831161016a578301905b828210610b5a575050505090565b81356001600160a01b038116810361016a578152908301908301610b4c565b81601f8201121561016a57803591610b9083610af4565b92610b9e6040519485610ad3565b808452602092838086019260051b82010192831161016a578301905b828210610bc8575050505090565b813560ff8116810361016a578152908301908301610bba565b9081602091031261016a5751801515810361016a5790565b91908115610c0c57610c0a92610c4b565b565b50505034610c1657565b60405163429465b160e01b8152600490fd5b91908203918211610c3557565b634e487b7160e01b600052601160045260246000fd5b6001600160a01b038281169060008215610e145734610e02576040938451926370a0823160e01b9081855230600486015260209283866024818a5afa958615610df8578596610dc4575b506008015416803b15610dc05783809160848b8a519485938492630aed65f560e11b84528c600485015233602485015230604485015260648401525af18015610db657610d88575b508190602487518097819382523060048301525afa918215610d7d5791610d4d575b50610d0a9250610c28565b90838203610d185750505050565b51636ff596f360e01b81526001600160a01b0392909216600483015260248201929092526044810191909152606490fd5b0390fd5b905082813d8311610d76575b610d638183610ad3565b8101031261016a57610d0a915138610cff565b503d610d59565b8551903d90823e3d90fd5b6001600160401b038194929411610da25786529181610cdd565b634e487b7160e01b82526041600452602482fd5b87513d86823e3d90fd5b8380fd5b9095508381813d8311610df1575b610ddc8183610ad3565b81010312610ded5751946008610c95565b8480fd5b503d610dd2565b88513d87823e3d90fd5b60405163d9efa38960e01b8152600490fd5b5050505050803403610e235750565b604490604051906305e4640960e21b82526004820152346024820152fd5b6000198114610c355760010190565b9190811015610e605760051b0190565b634e487b7160e01b600052603260045260246000fd5b3560ff8116810361016a5790565b91908201809211610c3557565b9081602091031261016a575160ff8116810361016a5790565b81810292918115918404141715610c3557565b805115610e605760200190565b805160011015610e605760400190565b8051821015610e605760209160051b010190565b91929094939481156110b65760018060a01b039283600682015416946040805196879263470d6ed960e11b845260048401528260246020998a935afa9182156110ab5760009261107c575b5084821161105f57805195610f4d87610a9d565b600287528136898901378084541680610f6589610ebd565b526007850154835163e286ef3360e01b81529b831660048d015289908c90602490829086165afa9a8b156110545760009b611017575b5081610c0a9a9b16610fac89610eca565b5281610fb789610eca565b511661100457905b610fc888610eca565b91169052805196610fd888610a9d565b600288523690880137610feb8185610c28565b610ff487610ebd565b52610ffe86610eca565b526114c5565b508061100f88610eca565b511690610fbf565b8981813d831161104d575b61102c8183610ad3565b8101031261104957519a828c168c03611046575081610f9b565b80fd5b8b80fd5b503d611022565b83513d6000823e3d90fd5b60449185915191639bdfbb5160e01b835260048301526024820152fd5b90918782813d83116110a4575b6110938183610ad3565b810103126110465750519038610f39565b503d611089565b50513d6000823e3d90fd5b505050509050565b92949390919381156110ef576110da6110df92610c0a97610eaa565b610e84565b926001600160a01b031691611176565b505050505050565b3d15611131573d906001600160401b038211610a875760405191611125601f8201601f191660200184610ad3565b82523d6000602084013e565b606090565b919082519283825260005b848110611162575050826000602080949584010152601f8019910116010190565b602081830181015184830182015201611141565b92918215611211576001600160a01b0391821693841561119d5750610c0a93911690611217565b600094509282600486950154169260405190602082019363410085df60e01b8552166024820152816044820152604481526111d781610ab8565b51925af16111e36110f7565b90156111ec5750565b604051635519d77560e11b815260206004820152908190610d49906024830190611136565b50505050565b91906112a191600080604051936020968786019463a9059cbb60e01b865260018060a01b03809316602488015260448701526044865261125686610ab8565b16926040519461126586610a6c565b8786527f5361666545524332303a206c6f772d6c6576656c2063616c6c206661696c656488870152519082855af161129b6110f7565b91611329565b805190828215928315611311575b505050156112ba5750565b6084906040519062461bcd60e51b82526004820152602a60248201527f5361666545524332303a204552433230206f7065726174696f6e20646964206e6044820152691bdd081cdd58d8d9595960b21b6064820152fd5b6113219350820181019101610be1565b3882816112af565b9192901561138b575081511561133d575090565b3b156113465790565b60405162461bcd60e51b815260206004820152601d60248201527f416464726573733a2063616c6c20746f206e6f6e2d636f6e74726163740000006044820152606490fd5b82519091501561139e5750805190602001fd5b60405162461bcd60e51b815260206004820152908190610d49906024830190611136565b949194939093835182518082036114a75750508351936113e185610af4565b946113ef6040519687610ad3565b8086526113fe601f1991610af4565b013660208701378693600091825b81518082101561149557600019810190811161148157810361144257808761143761143d938b610eda565b52610e41565b61140c565b9561060261143d9160646114648d60ff61145c8d8d610eda565b511690610eaa565b0461146f8a8c610eda565b5261147a898b610eda565b5190610c28565b634e487b7160e01b85526011600452602485fd5b505094509692505093610c0a946114c5565b6044925060405191632db4fb2960e01b835260048301526024820152fd5b9194909392938451845180820361166c575050600094855b85518710156114fd576106026114f7916105fb8989610eda565b956114dd565b909295509590929581810361164e57506001600160a01b0392831695861561155d57505060005b81518110156110b657806115538461153f6115589486610eda565b511661154b8388610eda565b519089611217565b610e41565b611524565b83929650600490939193015416916040516020948582019363c176e63960e01b85526064830160406024850152895180915287608485019a01916000905b828210611635575050505081880360231901604483015280518089529086019786019060005b818110611621575050600095969750906115e881879695949303601f198101835282610ad3565b51925af1906115f56110f7565b91156115ff575050565b610d49604051928392634c0fe4a160e11b845260048401526024830190611136565b8951835298870198918701916001016115c1565b835181168c529a89019a9289019260019091019061159b565b6044925060405191633bc6f52760e21b835260048301526024820152fd5b60449250604051916345e8c29760e11b835260048301526024820152fdfea2646970667358221220a2555de9b654ddef2b36d90dd859edf136e2146fc8bb7c7add19b1699a9d680864736f6c63430008120033","linkReferences":{}},"methodIdentifiers":{"checkAmountAndTransfer(MarketConfigV2.Config storage,address,uint256)":"38fa83e7","checkBatchPayment(MarketConfigV2.Config storage,address,uint256)":"5ea509b5","checkIfCurrencyIsApproved(MarketConfigV2.Config storage,address)":"bc2af99e","checkSplits(address[],uint8[])":"76fb8597","payoutMarketplaceFee(MarketConfigV2.Config storage,address,uint256,uint256,address)":"30863baf","payoutPrimary(MarketConfigV2.Config storage,address,address,uint256,uint256,address,address[],uint8[])":"c3924158","payoutSecondary(MarketConfigV2.Config storage,address,uint256,address,uint256,uint256,address,address[],uint8[])":"981e8fc5","payoutSplits(MarketConfigV2.Config storage,address,uint256,address[],uint8[])":"e6e1b2dc","performPayouts(MarketConfigV2.Config storage,address,uint256,address[],uint256[])":"f0859688","refund(MarketConfigV2.Config storage,address,address,uint256)":"7baf92a3","refundRemainingOffer(MarketConfigV2.Config storage,address,address,uint256,uint256,uint256)":"4c4c2619"},"id":167}