{"abi":[{"type":"constructor","inputs":[],"stateMutability":"nonpayable"},{"type":"function","name":"OFFER_CANCELATION_DELAY","inputs":[],"outputs":[{"name":"","type":"uint256","internalType":"uint256"}],"stateMutability":"view"},{"type":"function","name":"buyWithMerkleProof","inputs":[{"name":"_originContract","type":"address","internalType":"address"},{"name":"_tokenId","type":"uint256","internalType":"uint256"},{"name":"_creator","type":"address","internalType":"address"},{"name":"_merkleRoot","type":"bytes32","internalType":"bytes32"},{"name":"_proof","type":"bytes32[]","internalType":"bytes32[]"}],"outputs":[],"stateMutability":"payable"},{"type":"function","name":"creatorRootToConfig","inputs":[{"name":"","type":"address","internalType":"address"},{"name":"","type":"bytes32","internalType":"bytes32"}],"outputs":[{"name":"currency","type":"address","internalType":"address"},{"name":"amount","type":"uint256","internalType":"uint256"},{"name":"nonce","type":"uint256","internalType":"uint256"}],"stateMutability":"view"},{"type":"function","name":"getCreatorSalePriceMerkleRootNonce","inputs":[{"name":"_user","type":"address","internalType":"address"},{"name":"_root","type":"bytes32","internalType":"bytes32"}],"outputs":[{"name":"","type":"uint256","internalType":"uint256"}],"stateMutability":"view"},{"type":"function","name":"getMerkleSalePriceConfig","inputs":[{"name":"_creator","type":"address","internalType":"address"},{"name":"_root","type":"bytes32","internalType":"bytes32"}],"outputs":[{"name":"","type":"tuple","internalType":"struct IRareBatchListingMarketplace.MerkleSalePriceConfig","components":[{"name":"currency","type":"address","internalType":"address"},{"name":"amount","type":"uint256","internalType":"uint256"},{"name":"splitRecipients","type":"address[]","internalType":"address payable[]"},{"name":"splitRatios","type":"uint8[]","internalType":"uint8[]"},{"name":"nonce","type":"uint256","internalType":"uint256"}]}],"stateMutability":"view"},{"type":"function","name":"getTokenSalePriceNonce","inputs":[{"name":"_creator","type":"address","internalType":"address"},{"name":"_root","type":"bytes32","internalType":"bytes32"},{"name":"_tokenContract","type":"address","internalType":"address"},{"name":"_tokenId","type":"uint256","internalType":"uint256"}],"outputs":[{"name":"","type":"uint256","internalType":"uint256"}],"stateMutability":"view"},{"type":"function","name":"getUserSalePriceMerkleRoots","inputs":[{"name":"_user","type":"address","internalType":"address"}],"outputs":[{"name":"","type":"bytes32[]","internalType":"bytes32[]"}],"stateMutability":"view"},{"type":"function","name":"initialize","inputs":[{"name":"_marketplaceSettings","type":"address","internalType":"address"},{"name":"_royaltyEngine","type":"address","internalType":"address"},{"name":"_spaceOperatorRegistry","type":"address","internalType":"address"},{"name":"_approvedTokenRegistry","type":"address","internalType":"address"},{"name":"_payments","type":"address","internalType":"address"},{"name":"_stakingRegistry","type":"address","internalType":"address"},{"name":"_stakingSettings","type":"address","internalType":"address"},{"name":"_networkBeneficiary","type":"address","internalType":"address"},{"name":"_erc20ApprovalManager","type":"address","internalType":"address"},{"name":"_erc721ApprovalManager","type":"address","internalType":"address"}],"outputs":[],"stateMutability":"nonpayable"},{"type":"function","name":"isTokenInRoot","inputs":[{"name":"_root","type":"bytes32","internalType":"bytes32"},{"name":"_origin","type":"address","internalType":"address"},{"name":"_tokenId","type":"uint256","internalType":"uint256"},{"name":"_proof","type":"bytes32[]","internalType":"bytes32[]"}],"outputs":[{"name":"","type":"bool","internalType":"bool"}],"stateMutability":"pure"},{"type":"function","name":"owner","inputs":[],"outputs":[{"name":"","type":"address","internalType":"address"}],"stateMutability":"view"},{"type":"function","name":"registerSalePriceMerkleRoot","inputs":[{"name":"_merkleRoot","type":"bytes32","internalType":"bytes32"},{"name":"_currency","type":"address","internalType":"address"},{"name":"_amount","type":"uint256","internalType":"uint256"},{"name":"_splitAddresses","type":"address[]","internalType":"address payable[]"},{"name":"_splitRatios","type":"uint8[]","internalType":"uint8[]"}],"outputs":[],"stateMutability":"nonpayable"},{"type":"function","name":"renounceOwnership","inputs":[],"outputs":[],"stateMutability":"nonpayable"},{"type":"function","name":"transferOwnership","inputs":[{"name":"newOwner","type":"address","internalType":"address"}],"outputs":[],"stateMutability":"nonpayable"},{"type":"event","name":"Initialized","inputs":[{"name":"version","type":"uint8","indexed":false,"internalType":"uint8"}],"anonymous":false},{"type":"event","name":"MerkleSalePriceExecuted","inputs":[{"name":"contractAddress","type":"address","indexed":true,"internalType":"address"},{"name":"tokenId","type":"uint256","indexed":true,"internalType":"uint256"},{"name":"buyer","type":"address","indexed":true,"internalType":"address"},{"name":"seller","type":"address","indexed":false,"internalType":"address"},{"name":"merkleRoot","type":"bytes32","indexed":false,"internalType":"bytes32"},{"name":"amount","type":"uint256","indexed":false,"internalType":"uint256"},{"name":"nonce","type":"uint256","indexed":false,"internalType":"uint256"}],"anonymous":false},{"type":"event","name":"OfferPlaced","inputs":[{"name":"originContract","type":"address","indexed":true,"internalType":"address"},{"name":"bidder","type":"address","indexed":true,"internalType":"address"},{"name":"currencyAddress","type":"address","indexed":true,"internalType":"address"},{"name":"amount","type":"uint256","indexed":false,"internalType":"uint256"},{"name":"tokenId","type":"uint256","indexed":false,"internalType":"uint256"},{"name":"convertible","type":"bool","indexed":false,"internalType":"bool"}],"anonymous":false},{"type":"event","name":"OwnershipTransferred","inputs":[{"name":"previousOwner","type":"address","indexed":true,"internalType":"address"},{"name":"newOwner","type":"address","indexed":true,"internalType":"address"}],"anonymous":false},{"type":"event","name":"SalePriceMerkleRootRegistered","inputs":[{"name":"creator","type":"address","indexed":true,"internalType":"address"},{"name":"merkleRoot","type":"bytes32","indexed":true,"internalType":"bytes32"},{"name":"currency","type":"address","indexed":false,"internalType":"address"},{"name":"amount","type":"uint256","indexed":false,"internalType":"uint256"},{"name":"nonce","type":"uint256","indexed":false,"internalType":"uint256"}],"anonymous":false},{"type":"event","name":"SetSalePrice","inputs":[{"name":"originContract","type":"address","indexed":true,"internalType":"address"},{"name":"currencyAddress","type":"address","indexed":true,"internalType":"address"},{"name":"target","type":"address","indexed":true,"internalType":"address"},{"name":"amount","type":"uint256","indexed":false,"internalType":"uint256"},{"name":"tokenId","type":"uint256","indexed":false,"internalType":"uint256"},{"name":"splitAddresses","type":"address[]","indexed":false,"internalType":"address payable[]"},{"name":"splitRatios","type":"uint8[]","indexed":false,"internalType":"uint8[]"}],"anonymous":false},{"type":"event","name":"Sold","inputs":[{"name":"originContract","type":"address","indexed":true,"internalType":"address"},{"name":"buyer","type":"address","indexed":true,"internalType":"address"},{"name":"seller","type":"address","indexed":true,"internalType":"address"},{"name":"currencyAddress","type":"address","indexed":false,"internalType":"address"},{"name":"amount","type":"uint256","indexed":false,"internalType":"uint256"},{"name":"tokenId","type":"uint256","indexed":false,"internalType":"uint256"}],"anonymous":false}],"bytecode":{"object":"0x60808060405234620000c6576000549060ff8260081c1662000074575060ff8082160362000038575b604051613b109081620000cc8239f35b60ff90811916176000557f7f26b83ff96e1f2b6a682f133852f6798a09c465da95921460cefb3847402498602060405160ff8152a13862000028565b62461bcd60e51b815260206004820152602760248201527f496e697469616c697a61626c653a20636f6e747261637420697320696e697469604482015266616c697a696e6760c81b6064820152608490fd5b600080fdfe608080604052600436101561001357600080fd5b600090813560e01c908163453c8558146130865750806345935d18146128bf5780635e51b2d41461282a5780636a11a64d146127e7578063715018a61461278a57806375c9c23e1461270a5780637f516380146112755780638da5cb5b1461124c578063a435bac514611230578063bb120e66146111bb578063c306b37814610882578063d72a541a146101435763f2fde38b146100b057600080fd5b34610140576020366003190112610140576100c9613133565b6100d16131a5565b6001600160a01b038116156100ec576100e9906131fd565b80f35b60405162461bcd60e51b815260206004820152602660248201527f4f776e61626c653a206e6577206f776e657220697320746865207a65726f206160448201526564647265737360d01b6064820152608490fd5b80fd5b50346101405760403660031901126101405761015d613133565b81608060405161016c81613246565b82815282602082015260606040820152606080820152015260018060a01b0316815260a2602052604081206024358252602052604081206040516101af81613246565b60018060a01b03825416815260018201546020820152600282016040518082602082945493848152019087526020872092875b8181106108605750506101f7925003826132aa565b6040820152600382019160405180938491602082549182815201918752602087209087915b81601f8401106106d7579161033c9391600496959354918181106106c3575b8181106106ac575b818110610695575b81811061067e575b818110610668575b818110610651575b81811061063a575b818110610623575b81811061060c575b8181106105f5575b8181106105de575b8181106105c7575b8181106105b0575b818110610599575b818110610582575b81811061056b575b818110610554575b81811061053d575b818110610526575b81811061050f575b8181106104f8575b8181106104e1575b8181106104ca575b8181106104b3575b81811061049c575b818110610485575b81811061046e575b818110610457575b818110610440575b818110610429575b818110610412575b10610404575b5096949603856132aa565b606085019384520154608084019081526040519260208452604060c085019560018060a01b03815116602087015260208101518287015201519460a060608601528551809152602060e08601960190845b8181106103e5575050505191601f1984860301608085015260208084519687815201930190945b8086106103ca5750508293505160a08301520390f35b909260208060019260ff8751168152019401950194906103b4565b82516001600160a01b031688526020978801979092019160010161038d565b60f81c815260200138610331565b92602060019160ff8560f01c16815201930161032b565b92602060019160ff8560e81c168152019301610323565b92602060019160ff8560e01c16815201930161031b565b92602060019160ff8560d81c168152019301610313565b92602060019160ff8560d01c16815201930161030b565b92602060019160ff8560c81c168152019301610303565b92602060019160ff8560c01c1681520193016102fb565b92602060019160ff8560b81c1681520193016102f3565b92602060019160ff8560b01c1681520193016102eb565b92602060019160ff8560a81c1681520193016102e3565b92602060019160ff8560a01c1681520193016102db565b92602060019160ff8560981c1681520193016102d3565b92602060019160ff8560901c1681520193016102cb565b92602060019160ff8560881c1681520193016102c3565b92602060019160ff8560801c1681520193016102bb565b92602060019160ff8560781c1681520193016102b3565b92602060019160ff8560701c1681520193016102ab565b92602060019160ff8560681c1681520193016102a3565b92602060019160ff8560601c16815201930161029b565b92602060019160ff8560581c168152019301610293565b92602060019160ff8560501c16815201930161028b565b92602060019160ff8560481c168152019301610283565b92602060019160ff8560401c16815201930161027b565b92602060019160ff8560381c168152019301610273565b92602060019160ff8560301c16815201930161026b565b92602060019160ff8560281c168152019301610263565b92602060019160ff85831c16815201930161025b565b92602060019160ff8560181c168152019301610253565b92602060019160ff8560101c16815201930161024b565b92602060019160ff8560081c168152019301610243565b92602060019160ff8516815201930161023b565b935090916001610400602092865460ff8082168352808260081c1686840152808260101c166040840152808260181c1660608401528082871c166080840152808260a0828260281c1681870152828260c092828260301c16848a0152828260381c1660e08a0152828260401c166101008a0152828260481c166101208a0152828260501c166101408a0152828260581c166101608a0152828260601c166101808a0152828260681c166101a08a0152828260701c166101c08a0152828260781c166101e08a0152828260801c166102008a0152828260881c166102208a0152828260901c166102408a0152828260981c166102608a01521c16610280870152828260a81c166102a0870152828260b01c166102c0870152828260b81c166102e08701521c16610300840152808260c81c16610320840152808260d01c16610340840152808260d81c16610360840152808260e01c16610380840152808260e81c166103a08401528160f01c166103c083015260f81c6103e082015201940192019086939261021c565b84546001600160a01b03168352600194850194869450602090930192016101e2565b5034610140576101403660031901126101405761089d613133565b6108a5613149565b6108ad61315f565b606435916001600160a01b03831683036111b657608435926001600160a01b03841684036111b65760a435906001600160a01b03821682036111b65760c435906001600160a01b03821682036111b65760e435956001600160a01b03871687036111b65761010435946001600160a01b03861686036111b65761012435966001600160a01b03881688036111b6578a549960ff8b60081c16159a8b809c6111a9575b8015611192575b156111365760ff1981166001178d558b611125575b506001600160a01b038116156110c4576001600160a01b03831615611069576001600160a01b03821615611006576001600160a01b03851615610fa3576001600160a01b03841615610f4d576001600160a01b03871615610ef0576001600160a01b03861615610e93576001600160a01b038a1615610e33576001600160a01b03881615610dd1576001600160a01b03891615610d6e5760405163ef8c824960e01b81526001600160a01b039a8b166004820152908a16602482015290891660448201529088166064820152908716608482015290861660a482015290851660c482015290841660e48201529083166101048201529116610124820152610140816101448173__$c98ca6a62396e5a7a1471db151198a1f31$__5af4908115610d63578391610bf8575b5060018060a01b03815116906001600160601b0360a01b9182609754161760975560018060a01b0360208201511682609854161760985560018060a01b0360408201511682609954161760995560018060a01b0360608201511682609a541617609a5560018060a01b0360808201511682609b541617609b5560018060a01b0360a08201511682609c541617609c5560018060a01b0360c08201511682609d541617609d5560018060a01b0360e08201511682609e541617609e5560018060a01b036101008201511682609f541617609f5561012060018060a01b03910151169060a054161760a055610b9760ff835460081c16610b92816132df565b6132df565b610ba0336131fd565b815490610bb660ff8360081c16610b92816132df565b6001606555610bc3575080f35b61ff00191681557f7f26b83ff96e1f2b6a682f133852f6798a09c465da95921460cefb3847402498602060405160018152a180f35b9050610140813d61014011610d5b575b81610c1661014093836132aa565b81010312610d57576040519061014082018281106001600160401b03821117610d4157604052610c45816132cb565b825260208101516001600160a01b0381168103610d3957602083015260408101516001600160a01b0381168103610d3957604083015260608101516001600160a01b0381168103610d3957606083015260808101516001600160a01b0381168103610d3957608083015260a08101516001600160a01b0381168103610d395760a083015260c08101516001600160a01b0381168103610d395760c083015260e08101516001600160a01b0381168103610d395760e083015261010081810151906001600160a01b0382168203610d3d5783015261012090810151906001600160a01b0382168203610d395782015238610a95565b8480fd5b8580fd5b634e487b7160e01b600052604160045260246000fd5b8280fd5b3d9150610c08565b6040513d85823e3d90fd5b60405162461bcd60e51b815260206004820152603560248201527f696e697469616c697a653a3a657263373231417070726f76616c4d616e616765604482015274722063616e6e6f742062652030206164647265737360581b6064820152608490fd5b60405162461bcd60e51b815260206004820152603460248201527f696e697469616c697a653a3a6572633230417070726f76616c4d616e616765726044820152732063616e6e6f742062652030206164647265737360601b6064820152608490fd5b60405162461bcd60e51b815260206004820152603260248201527f696e697469616c697a653a3a6e6574776f726b42656e65666963696172792063604482015271616e6e6f742062652030206164647265737360701b6064820152608490fd5b60405162461bcd60e51b815260206004820152602f60248201527f696e697469616c697a653a3a7374616b696e6753657474696e67732063616e6e60448201526e6f742062652030206164647265737360881b6064820152608490fd5b60405162461bcd60e51b815260206004820152602f60248201527f696e697469616c697a653a3a7374616b696e6752656769737472792063616e6e60448201526e6f742062652030206164647265737360881b6064820152608490fd5b60405162461bcd60e51b815260206004820152602860248201527f696e697469616c697a653a3a7061796d656e74732063616e6e6f742062652030604482015267206164647265737360c01b6064820152608490fd5b60405162461bcd60e51b815260206004820152603560248201527f696e697469616c697a653a3a617070726f766564546f6b656e52656769737472604482015274792063616e6e6f742062652030206164647265737360581b6064820152608490fd5b60405162461bcd60e51b815260206004820152603560248201527f696e697469616c697a653a3a73706163654f70657261746f7252656769737472604482015274792063616e6e6f742062652030206164647265737360581b6064820152608490fd5b60405162461bcd60e51b815260206004820152602d60248201527f696e697469616c697a653a3a726f79616c7479456e67696e652063616e6e6f7460448201526c2062652030206164647265737360981b6064820152608490fd5b60405162461bcd60e51b815260206004820152603360248201527f696e697469616c697a653a3a6d61726b6574706c61636553657474696e67732060448201527263616e6e6f742062652030206164647265737360681b6064820152608490fd5b61ffff1916610101178c553861096b565b60405162461bcd60e51b815260206004820152602e60248201527f496e697469616c697a61626c653a20636f6e747261637420697320616c72656160448201526d191e481a5b9a5d1a585b1a5e995960921b6064820152608490fd5b50303b1580156109565750600160ff821614610956565b50600160ff82161061094f565b600080fd5b5034610140576040366003190112610140576001600160a01b0390604090826111e2613133565b16815260a26020528181206024358252602052209081541661122c6004600184015493015460405193849384604091949392606082019560018060a01b0316825260208201520152565b0390f35b5034610140578060031936011261014057602060405160788152f35b50346101405780600319360112610140576033546040516001600160a01b039091168152602090f35b5060a03660031901126101405761128a613133565b61129261315f565b906084356001600160401b038111611c2b576112b561130a913690600401613175565b604051606085901b6bffffffffffffffffffffffff1916602082019081526024356034830152611305916112f681605481015b03601f1981018352826132aa565b51902092606435923691613416565b613464565b156126b45760018060a01b038216835260a160205261133e6064356040852060019160005201602052604060002054151590565b156126585760018060a01b038216835260a2602052604083206064358452602052604083209260405161137081613246565b60018060a01b03855416815260018501546020820152600285016040518082602082945493848152019086526020862092865b8181106126365750506113b8925003826132aa565b6040820152600385019460405180602088549182815201978552602085209085915b81601f8401106124b457928981936114f8936004979654918181106124a0575b818110612489575b818110612472575b81811061245b575b818110612445575b81811061242e575b818110612417575b818110612400575b8181106123e9575b8181106123d2575b8181106123bb575b8181106123a4575b81811061238d575b818110612376575b81811061235f575b818110612348575b818110612331575b81811061231a575b818110612303575b8181106122ec575b8181106122d5575b8181106122be575b8181106122a7575b818110612290575b818110612279575b818110612262575b81811061224b575b818110612234575b81811061221d575b818110612206575b8181106121ef575b106121e1575b5003826132aa565b6060840152015460808201526040516020810190611549816112e8602435886064358b8892606894926001600160601b0319809360601b168552601485015260601b16603483015260488201520190565b5190209360018060a01b038116835260a360205260408320606435845260205260408320549480845260a46020528560408520541015612176576040516331a9108f60e11b81526024803560048301526020908290816001600160a01b038a165afa9081156120e057859161213c575b506001600160a01b038381169116036120eb5760a05460405163e985e9c560e01b81526001600160a01b038481166004830152918216602482015290602090829060449082908a165afa9081156120e05785916120c1575b501561207c576020838101516098546040516361fe24a960e11b815260048101839052919290829060249082906001600160a01b03165afa90811561207157869161203d575b50611665906116759261333f565b84516001600160a01b0316613526565b835260a46020526040832085905560a0546001600160a01b0316803b15611c2b57604051630aed65f560e11b81526001600160a01b03868116600483015283166024808301919091523360448301523560648201529084908290608490829084905af180156120325761201f575b5060018060a01b03825116916020810151946040820151926060830151918451835103611fbe576098546040516361fe24a960e11b8152600481018a90528991602090829060249082906001600160a01b03165afa908115611fb3578991611f81575b506040519061175482613274565b6002825260403660208401376097546001600160a01b031680611776846134d0565b52609e5460405163e286ef3360e01b81526001600160a01b038881166004830152909160209183916024918391165afa908115611e8b578c91611f43575b506001600160a01b03166117c7846134dd565b526001600160a01b036117d9846134dd565b5116611f2a575b6117e9836134dd565b6001600160a01b03909116905260405161180281613274565b600281526040366020830137609d546040516303fdde1160e21b8152600481018690526001600160a01b0390911690602081602481855afa908115611f1f578d91611eec575b50602491602091611858856134d0565b526040519283809263470d6ed960e11b82528960048301525afa908115611e8b579084918d91611eb5575b509261189993611892846134dd565b528b613811565b609854604051631446f21360e21b81526001600160a01b038581166004830152602480359083015290911690602081604481855afa908115611d9257908b9695949392918791611e96575b5015611c2f575b5050609a54604051637a99dc0160e11b81526001600160a01b038481166004830152602480359083015260448201939093529985928b921690829081606481015b03925af1998a15610d63578398849b611ae2575b50839884995b8c518b10156119745761196861196e916119618f8e906134ed565b519061333f565b9a6134c1565b99611946565b96979899508b61198f91611988898e613519565b988c613811565b84519661199b88613362565b976119a9604051998a6132aa565b8089526119b8601f1991613362565b013660208a0137845b86518110156119fd578060646119e760ff6119df6119f8958c6134ed565b51168b613379565b046119f2828c6134ed565b526134c1565b6119c1565b50611a0a888a898d613811565b60985485906001600160a01b0316803b15611ade57604051635a3c652d60e01b81526001600160a01b03861660048201526024803590820152600160448201529082908290606490829084905af18015611ad357611abf575b5050602001516040519360018060a01b0316845260643560208501526040840152606083015233917f9fae626246a186689a17d9e521c572bbd8580b261555b36b1a5fb66f85740ad860806024359360018060a01b031692a480f35b611ac890613261565b610d39578486611a63565b6040513d84823e3d90fd5b5080fd5b985099503d978884823e611af689826132aa565b6040818a81010312611c2b5780516001600160401b038111610d3957810190898101601f83011215610d3957815191611b2e83613362565b92611b3c60405194856132aa565b80845260208401918c840160208360051b83010111611c035760208101925b60208360051b8301018410611c0757505050506020810151996001600160401b038b11610d3d57808201601f8c8401011215610d3d578a82015191611b9f83613362565b9b611bad6040519d8e6132aa565b838d5260208d0192820160208560051b838501010111611c03579190602083820101925b60208560051b82840101018410611bef57505050505097998b611940565b602080809486518152019401939250611bd1565b8780fd5b83516001600160a01b0381168103611c2757815260209384019301611b5b565b8980fd5b8380fd5b90919293945060405190611c428261328f565b600182526020368184013760405192611c5a8461328f565b60018452602036818601376001600160a01b0390611c77906134d0565b5116611c82846134d0565b52609954604051635dc22eff60e01b81526001600160a01b038881166004830152909160209183916024918391165afa908115611e8b578c91611e5c575b5015611d9d5750609954604051632260494f60e01b81526001600160a01b038781166004830152909160209183916024918391165afa908115611d92579160ff8c97969593928895938691611d63575b50169c611d1d8e85613379565b60649004611d2a91613519565b9c611d359084613379565b60649004611d42826134d0565b52611d4c816134d0565b5191611d58928c613811565b61192c905b916118eb565b611d85915060203d602011611d8b575b611d7d81836132aa565b810190613770565b38611d10565b503d611d73565b6040513d8d823e3d90fd5b60405163b28a7bad60e01b81526001600160a01b0386166004820152919b50602090829060249082905afa908115611e51579160ff8b9695949287948591611e32575b50169b611ded8d84613379565b60649004611dfb9084613519565b9c611e069084613379565b60649004611e13826134d0565b52611e1d816134d0565b5191611e29928c613811565b61192c90611d5d565b611e4b915060203d602011611d8b57611d7d81836132aa565b8f611de0565b6040513d8c823e3d90fd5b611e7e915060203d602011611e84575b611e7681836132aa565b810190613501565b8e611cc0565b503d611e6c565b6040513d8e823e3d90fd5b611eaf915060203d602011611e8457611e7681836132aa565b8e6118e4565b9150506020813d602011611ee4575b81611ed1602093836132aa565b810103126111b657518390611899611883565b3d9150611ec4565b90506020813d602011611f17575b81611f07602093836132aa565b810103126111b657516024611848565b3d9150611efa565b6040513d8f823e3d90fd5b506001600160a01b03611f3c836134dd565b51166117e0565b90506020813d602011611f79575b81611f5e602093836132aa565b81010312611f7557611f6f906132cb565b8e6117b4565b8b80fd5b3d9150611f51565b90506020813d602011611fab575b81611f9c602093836132aa565b810103126111b657518b611746565b3d9150611f8f565b6040513d8b823e3d90fd5b60405162461bcd60e51b815260206004820152603360248201527f4e756d626572206f662073706c69742061646472657373657320616e642072616044820152723a34b7b99036bab9ba1031329032b8bab0b61760691b6064820152608490fd5b61202b90939193613261565b91856116e3565b6040513d86823e3d90fd5b90506020813d602011612069575b81612058602093836132aa565b81010312610d3d5751611675611657565b3d915061204b565b6040513d88823e3d90fd5b60405162461bcd60e51b815260206004820152601e60248201527f6f776e6572206d757374206861766520617070726f76656420746f6b656e00006044820152606490fd5b6120da915060203d602011611e8457611e7681836132aa565b87611611565b6040513d87823e3d90fd5b60405162461bcd60e51b815260206004820152602360248201527f627579576974684d65726b6c6550726f6f663a3a4e6f7420746f6b656e206f776044820152623732b960e91b6064820152608490fd5b90506020813d60201161216e575b81612157602093836132aa565b81010312610d3957612168906132cb565b876115b9565b3d915061214a565b60405162461bcd60e51b815260206004820152603b60248201527f627579576974684d65726b6c6550726f6f663a3a546f6b656e20616c7265616460448201527f79207573656420666f722074686973204d65726b6c6520726f6f7400000000006064820152608490fd5b60f81c81526020018a6114f0565b92602060019160ff8560f01c1681520193016114ea565b92602060019160ff8560e81c1681520193016114e2565b92602060019160ff8560e01c1681520193016114da565b92602060019160ff8560d81c1681520193016114d2565b92602060019160ff8560d01c1681520193016114ca565b92602060019160ff8560c81c1681520193016114c2565b92602060019160ff8560c01c1681520193016114ba565b92602060019160ff8560b81c1681520193016114b2565b92602060019160ff8560b01c1681520193016114aa565b92602060019160ff8560a81c1681520193016114a2565b92602060019160ff8560a01c16815201930161149a565b92602060019160ff8560981c168152019301611492565b92602060019160ff8560901c16815201930161148a565b92602060019160ff8560881c168152019301611482565b92602060019160ff8560801c16815201930161147a565b92602060019160ff8560781c168152019301611472565b92602060019160ff8560701c16815201930161146a565b92602060019160ff8560681c168152019301611462565b92602060019160ff8560601c16815201930161145a565b92602060019160ff8560581c168152019301611452565b92602060019160ff8560501c16815201930161144a565b92602060019160ff8560481c168152019301611442565b92602060019160ff8560401c16815201930161143a565b92602060019160ff8560381c168152019301611432565b92602060019160ff8560301c16815201930161142a565b92602060019160ff8560281c168152019301611422565b92602060019160ff85831c16815201930161141a565b92602060019160ff8560181c168152019301611412565b92602060019160ff8560101c16815201930161140a565b92602060019160ff8560081c168152019301611402565b92602060019160ff851681520193016113fa565b9860016104006020928c5460ff8082168352808260081c1686840152808260101c16604084015280826060828260181c16818701528282608082828d1c16818a0152828260281c1660a08a0152828260c095828260301c16878d0152828260381c1660e08d0152828260401c166101008d0152828260481c166101208d0152828260501c166101408d0152828260581c166101608d01521c166101808a0152828260681c166101a08a0152828260701c166101c08a0152828260781c166101e08a01521c16610200870152828260881c16610220870152828260901c16610240870152828260981c16610260870152828260a01c16610280870152828260a81c166102a0870152828260b01c166102c0870152828260b81c166102e08701521c16610300840152808260c81c16610320840152808260d01c16610340840152808260d81c16610360840152808260e01c16610380840152808260e81c166103a08401528160f01c166103c083015260f81c6103e0820152019a019201916113da565b84546001600160a01b03168352600194850194869450602090930192016113a3565b60405162461bcd60e51b815260206004820152602e60248201527f627579576974684d65726b6c6550726f6f663a3a4d65726b6c6520726f6f742060448201526d1b9bdd081c9959da5cdd195c995960921b6064820152608490fd5b60405162461bcd60e51b815260206004820152602860248201527f627579576974684d65726b6c6550726f6f663a3a496e76616c6964204d65726b604482015267363290383937b7b360c11b6064820152608490fd5b5034610140576080366003190112610140576040602091612729613133565b6112e861277761273761315f565b9285519283918883019560643591602435908892606894926001600160601b0319809360601b168552601485015260601b16603483015260488201520190565b519020815260a483522054604051908152f35b50346101405780600319360112610140576127a36131a5565b603380546001600160a01b0319811690915581906001600160a01b03167f8be0079c531659141344cd1fd0a4f28419497f9722a3daafe3b4186f6b6457e08280a380f35b5034610140576040366003190112610140576020906040906001600160a01b0361280f613133565b16815260a38352818120602435825283522054604051908152f35b503461014057608036600319011261014057612844613149565b90606435906001600160401b0382116101405760206128b58461130561286d3660048801613175565b60405160609490941b6bffffffffffffffffffffffff191686850190815260443560148201529193909291906128a681603484016112e8565b51902092600435923691613416565b6040519015158152f35b50346101405760a0366003190112610140576128d9613149565b6064356001600160401b038111610d57576128f8903690600401613175565b608480356001600160401b038111610d3d57612918903690600401613175565b916001600160a01b038616158015613024575b15612fe757609854604051637cd11f4360e11b81526001600160a01b0390911690602081600481855afa908115611fb3578991612fb1575b5060443511159081612f3f575b5015612ee2578315612e905760058411612e4257828403612deb5786805b848210612dbf576064915003612d6d575033865260a16020526129b6600435604088206133a3565b5033865260a3602052604086206004358752602052604086205493600185018511612d595733875260a360205260408720600435885260205260018501604088205560405193612a0585613246565b6001600160a01b03871685526044356020860152612a2281613362565b91612a3060405193846132aa565b818352602083019160051b810190368211611c2757915b818310612d35575050506040840152612a5f82613362565b91612a6d60405193846132aa565b8083526020830191368260051b820111611c035780925b8260051b82018410612d1b5750505050606082015260018201608082015233845260a2602052604084206004358552602052604084209060018060a01b038151166001600160601b0360a01b8354161782556020810151600183015560408101518051906001600160401b038211612d0757600160401b8211612d0757602060028501918254848455808510612ced575b500190875260208720875b838110612cd057505050506003820160608201518051906001600160401b038211612cbc57600160401b8211612cbc576020908354838555808410612c72575b5001918752602087208160051c91885b838110612c335750601f198116900380612be7575b5050505060800151600491820155604080516001600160a01b03949094168452604435602085015260019290920191830191909152359033907f6ac61a1aee451307d73de9183ea0a92ddcb00bb73b49d4479e78501e7905f22a90606090a380f35b928893895b818110612c03575050500155608060043880612b85565b9091946020612c296001928460ff8a5116919060ff809160031b9316831b921b19161790565b9601929101612bec565b898a5b60208110612c4b575083820155600101612b70565b865190969160019160209160ff60038b901b81811b199092169216901b1792019601612c36565b612c9c90858b52838b20601f80870160051c82019281881680612ca2575b500160051c019061338c565b38612b60565b60001990818601918254918a0360031b1c16905538612c90565b634e487b7160e01b88526041600452602488fd5b82516001600160a01b031681830155602090920191600101612b20565b838a52828a20612d0191810190860161338c565b38612b15565b634e487b7160e01b87526041600452602487fd5b833560ff81168103611c2757815260209384019301612a84565b82356001600160a01b0381168103612d5557815260209283019201612a47565b8a80fd5b634e487b7160e01b87526011600452602487fd5b60405162461bcd60e51b815260206004820152602760248201527f636865636b53706c6974733a3a546f74616c206d75737420626520657175616c604482015266020746f203130360cc1b6064820152fd5b8160051b8401359060ff8216809203611c2757612de591612ddf9161333f565b916134c1565b9061298e565b60405162461bcd60e51b815260206004820152602c60248201527f636865636b53706c6974733a3a53706c69747320616e6420726174696f73206d60448201526b1d5cdd08189948195c5d585b60a21b6064820152fd5b60405162461bcd60e51b8152602060048201526024808201527f636865636b53706c6974733a3a53706c6974206578636565646564206d61782060448201526373697a6560e01b6064820152fd5b60405162461bcd60e51b815260206004820152602760248201527f636865636b53706c6974733a3a4d7573742068617665206174206c65617374206044820152660c481cdc1b1a5d60ca1b6064820152fd5b60405162461bcd60e51b815260206004820152603260248201527f726567697374657253616c6550726963654d65726b6c65526f6f743a3a416d6f604482015271756e74206f75747369646520626f756e647360701b6064820152fd5b604051635c1b40f160e01b81529150602090829060049082905afa908115612fa6578891612f74575b50604435101538612970565b90506020813d602011612f9e575b81612f8f602093836132aa565b81010312611c03575138612f68565b3d9150612f82565b6040513d8a823e3d90fd5b90506020813d602011612fdf575b81612fcc602093836132aa565b81010312612fdb575138612963565b8880fd5b3d9150612fbf565b60405162461bcd60e51b81526020600482015260156024820152744e6f7420617070726f7665642063757272656e637960581b6044820152606490fd5b50609c54604051632d5ad3d560e01b81526001600160a01b038881166004830152909160209183916024918391165afa908115612fa6578891613068575b5061292b565b613080915060203d8111611e8457611e7681836132aa565b38613062565b905034611ade5760209081600319360112610d5757916001600160a01b036130ac613133565b16815260a1825260408120908154808552838501908193835284832090835b81811061311f57505050846130e19103856132aa565b60405193838594850191818652518092526040850193925b82811061310857505050500390f35b8351855286955093810193928101926001016130f9565b8254845292860192600192830192016130cb565b600435906001600160a01b03821682036111b657565b602435906001600160a01b03821682036111b657565b604435906001600160a01b03821682036111b657565b9181601f840112156111b6578235916001600160401b0383116111b6576020808501948460051b0101116111b657565b6033546001600160a01b031633036131b957565b606460405162461bcd60e51b815260206004820152602060248201527f4f776e61626c653a2063616c6c6572206973206e6f7420746865206f776e65726044820152fd5b603380546001600160a01b039283166001600160a01b0319821681179092559091167f8be0079c531659141344cd1fd0a4f28419497f9722a3daafe3b4186f6b6457e0600080a3565b60a081019081106001600160401b03821117610d4157604052565b6001600160401b038111610d4157604052565b606081019081106001600160401b03821117610d4157604052565b604081019081106001600160401b03821117610d4157604052565b90601f801991011681019081106001600160401b03821117610d4157604052565b51906001600160a01b03821682036111b657565b156132e657565b60405162461bcd60e51b815260206004820152602b60248201527f496e697469616c697a61626c653a20636f6e7472616374206973206e6f74206960448201526a6e697469616c697a696e6760a81b6064820152608490fd5b9190820180921161334c57565b634e487b7160e01b600052601160045260246000fd5b6001600160401b038111610d415760051b60200190565b8181029291811591840414171561334c57565b818110613397575050565b6000815560010161338c565b600082815260018201602052604090205461340f57805490600160401b821015610d4157600182018082558210156133f95782600192826000526020600020015580549260005201602052604060002055600190565b634e487b7160e01b600052603260045260246000fd5b5050600090565b929161342182613362565b9161342f60405193846132aa565b829481845260208094019160051b81019283116111b657905b8282106134555750505050565b81358152908301908301613448565b929091906000915b84518310156134b95761347f83866134ed565b51906000828210156134a757506000526020526134a160406000205b926134c1565b9161346c565b6040916134a19382526020522061349b565b915092501490565b600019811461334c5760010190565b8051156133f95760200190565b8051600110156133f95760400190565b80518210156133f95760209160051b010190565b908160209103126111b6575180151581036111b65790565b9190820391821161334c57565b6001600160a01b039160009183811690811561372857346136d2576040938451916370a0823160e01b908184523060048501526020978885602481895afa9485156136c8578495613699575b50609f541690813b15611c2b578751630aed65f560e11b81526001600160a01b03919091166004820152336024820152306044820152606481018790529083908290608490829084905af1801561368f579088929161367c575b50602487518096819382523060048301525afa9081156136715790613642575b6135f69250613519565b036135ff575050565b60649250519062461bcd60e51b82526004820152601c60248201527f6e6f7420656e6f75676820746f6b656e73207472616e736665726564000000006044820152fd5b508482813d831161366a575b61365881836132aa565b810103126111b6576135f691516135ec565b503d61364e565b8551903d90823e3d90fd5b61368890939193613261565b91386135cc565b87513d85823e3d90fd5b9094508881813d83116136c1575b6136b181836132aa565b81010312611c2b57519338613572565b503d6136a7565b88513d86823e3d90fd5b60405162461bcd60e51b815260206004820152602860248201527f6d73672e76616c75652073686f756c642062652030207768656e206e6f7420756044820152670e6d2dcce40cae8d60c31b6064820152608490fd5b5050915050340361373557565b60405162461bcd60e51b81526020600482015260136024820152721b9bdd08195b9bdd59da08195d1a081cd95b9d606a1b6044820152606490fd5b908160209103126111b6575160ff811681036111b65790565b3d156137c3573d906001600160401b038211610d4157604051916137b7601f8201601f1916602001846132aa565b82523d6000602084013e565b606090565b6020808252825181830181905290939260005b8281106137fd57505060409293506000838284010152601f8019910116010190565b8181018601518482016040015285016137db565b9192916001600160a01b0390811691821561397c5750600093845b8151811015613974578261384082846134ed565b511661384c82876134ed565b516040805163a9059cbb60e01b60208083019182526001600160a01b03959095166024808401919091526044808401959095529382526138df91908b9081906138966064856132aa565b8551936138a28561328f565b8885527f5361666545524332303a206c6f772d6c6576656c2063616c6c206661696c6564898601525190828d5af16138d8613789565b908a613a65565b80519084821592831561395c575b5050501561390657505050613901906134c1565b61382c565b5162461bcd60e51b81526004810192909252602a908201527f5361666545524332303a204552433230206f7065726174696f6e20646964206e6044820152691bdd081cdd58d8d9595960b21b6064820152608490fd5b61396c9350820181019101613501565b3884816138ed565b505050505050565b9150919282609b541693604051916020908184019563c176e63960e01b87526064850160406024870152825180915283608487019301916000905b828210613a4c575050505083810360231901604485015282518082529082019282019160005b828110613a3857505050509181613a03600096949387969403601f1981018352826132aa565b51925af1613a0f613789565b9015613a185750565b60405162461bcd60e51b8152908190613a3490600483016137c8565b0390fd5b8351855293810193928101926001016139dd565b83518116855293850193928501926001909101906139b7565b91929015613ac75750815115613a79575090565b3b15613a825790565b60405162461bcd60e51b815260206004820152601d60248201527f416464726573733a2063616c6c20746f206e6f6e2d636f6e74726163740000006044820152606490fd5b825190915015613a185750805190602001fdfea26469706673582212208a0c880bc4d23214e7b545413d4775a92cc419897d840dd48eb12c6a2bdb32ee64736f6c63430008120033","linkReferences":{"src/v2/utils/MarketConfigV2.sol":{"MarketConfigV2":[{"start":2878,"length":20}]}}},"methodIdentifiers":{"OFFER_CANCELATION_DELAY()":"a435bac5","buyWithMerkleProof(address,uint256,address,bytes32,bytes32[])":"7f516380","creatorRootToConfig(address,bytes32)":"bb120e66","getCreatorSalePriceMerkleRootNonce(address,bytes32)":"6a11a64d","getMerkleSalePriceConfig(address,bytes32)":"d72a541a","getTokenSalePriceNonce(address,bytes32,address,uint256)":"75c9c23e","getUserSalePriceMerkleRoots(address)":"453c8558","initialize(address,address,address,address,address,address,address,address,address,address)":"c306b378","isTokenInRoot(bytes32,address,uint256,bytes32[])":"5e51b2d4","owner()":"8da5cb5b","registerSalePriceMerkleRoot(bytes32,address,uint256,address[],uint8[])":"45935d18","renounceOwnership()":"715018a6","transferOwnership(address)":"f2fde38b"},"id":66}