{"abi":[{"type":"receive","stateMutability":"payable"},{"type":"function","name":"auctionBids","inputs":[{"name":"","type":"address","internalType":"address"},{"name":"","type":"uint256","internalType":"uint256"}],"outputs":[{"name":"bidder","type":"address","internalType":"address"},{"name":"amount","type":"uint128","internalType":"uint128"},{"name":"marketplaceFeeAtTime","type":"uint8","internalType":"uint8"}],"stateMutability":"view"},{"type":"function","name":"auctionLengthExtension","inputs":[],"outputs":[{"name":"","type":"uint256","internalType":"uint256"}],"stateMutability":"view"},{"type":"function","name":"bid","inputs":[{"name":"_originContract","type":"address","internalType":"address"},{"name":"_tokenId","type":"uint256","internalType":"uint256"},{"name":"_currencyAddress","type":"address","internalType":"address"},{"name":"_amount","type":"uint128","internalType":"uint128"}],"outputs":[],"stateMutability":"payable"},{"type":"function","name":"bidWithAuctionMerkleProof","inputs":[{"name":"_currencyAddress","type":"address","internalType":"address"},{"name":"_originContract","type":"address","internalType":"address"},{"name":"_tokenId","type":"uint256","internalType":"uint256"},{"name":"_creator","type":"address","internalType":"address"},{"name":"_merkleRoot","type":"bytes32","internalType":"bytes32"},{"name":"_bidAmount","type":"uint128","internalType":"uint128"},{"name":"_proof","type":"bytes32[]","internalType":"bytes32[]"}],"outputs":[],"stateMutability":"payable"},{"type":"function","name":"cancelAuctionMerkleRoot","inputs":[{"name":"_root","type":"bytes32","internalType":"bytes32"}],"outputs":[],"stateMutability":"nonpayable"},{"type":"function","name":"creatorRootToConfig","inputs":[{"name":"","type":"address","internalType":"address"},{"name":"","type":"bytes32","internalType":"bytes32"}],"outputs":[{"name":"currency","type":"address","internalType":"address"},{"name":"startingAmount","type":"uint128","internalType":"uint128"},{"name":"duration","type":"uint64","internalType":"uint64"},{"name":"nonce","type":"uint32","internalType":"uint32"}],"stateMutability":"view"},{"type":"function","name":"getAuctionDetails","inputs":[{"name":"_originContract","type":"address","internalType":"address"},{"name":"_tokenId","type":"uint256","internalType":"uint256"}],"outputs":[{"name":"","type":"address","internalType":"address"},{"name":"","type":"uint32","internalType":"uint32"},{"name":"","type":"uint64","internalType":"uint64"},{"name":"","type":"uint64","internalType":"uint64"},{"name":"","type":"address","internalType":"address"},{"name":"","type":"uint128","internalType":"uint128"},{"name":"","type":"address[]","internalType":"address payable[]"},{"name":"","type":"uint8[]","internalType":"uint8[]"}],"stateMutability":"view"},{"type":"function","name":"getCreatorAuctionMerkleRootNonce","inputs":[{"name":"_user","type":"address","internalType":"address"},{"name":"_root","type":"bytes32","internalType":"bytes32"}],"outputs":[{"name":"","type":"uint32","internalType":"uint32"}],"stateMutability":"view"},{"type":"function","name":"getCurrentBid","inputs":[{"name":"_originContract","type":"address","internalType":"address"},{"name":"_tokenId","type":"uint256","internalType":"uint256"}],"outputs":[{"name":"bidder","type":"address","internalType":"address"},{"name":"currencyAddress","type":"address","internalType":"address"},{"name":"amount","type":"uint128","internalType":"uint128"},{"name":"marketplaceFeeAtTime","type":"uint8","internalType":"uint8"}],"stateMutability":"view"},{"type":"function","name":"getMerkleAuctionConfig","inputs":[{"name":"_creator","type":"address","internalType":"address"},{"name":"_root","type":"bytes32","internalType":"bytes32"}],"outputs":[{"name":"","type":"tuple","internalType":"struct IRareBatchAuctionHouse.MerkleAuctionConfig","components":[{"name":"currency","type":"address","internalType":"address"},{"name":"startingAmount","type":"uint128","internalType":"uint128"},{"name":"duration","type":"uint64","internalType":"uint64"},{"name":"nonce","type":"uint32","internalType":"uint32"},{"name":"splitAddresses","type":"address[]","internalType":"address payable[]"},{"name":"splitRatios","type":"uint8[]","internalType":"uint8[]"}]}],"stateMutability":"view"},{"type":"function","name":"getTokenAuctionNonce","inputs":[{"name":"_creator","type":"address","internalType":"address"},{"name":"_root","type":"bytes32","internalType":"bytes32"},{"name":"_tokenContract","type":"address","internalType":"address"},{"name":"_tokenId","type":"uint256","internalType":"uint256"}],"outputs":[{"name":"","type":"uint32","internalType":"uint32"}],"stateMutability":"view"},{"type":"function","name":"getUserAuctionMerkleRoots","inputs":[{"name":"_user","type":"address","internalType":"address"}],"outputs":[{"name":"","type":"bytes32[]","internalType":"bytes32[]"}],"stateMutability":"view"},{"type":"function","name":"initialize","inputs":[{"name":"_marketplaceSettings","type":"address","internalType":"address"},{"name":"_royaltyEngine","type":"address","internalType":"address"},{"name":"_spaceOperatorRegistry","type":"address","internalType":"address"},{"name":"_approvedTokenRegistry","type":"address","internalType":"address"},{"name":"_payments","type":"address","internalType":"address"},{"name":"_stakingRegistry","type":"address","internalType":"address"},{"name":"_stakingSettings","type":"address","internalType":"address"},{"name":"_networkBeneficiary","type":"address","internalType":"address"},{"name":"_erc20ApprovalManager","type":"address","internalType":"address"},{"name":"_erc721ApprovalManager","type":"address","internalType":"address"}],"outputs":[],"stateMutability":"nonpayable"},{"type":"function","name":"isTokenInRoot","inputs":[{"name":"_root","type":"bytes32","internalType":"bytes32"},{"name":"_origin","type":"address","internalType":"address"},{"name":"_tokenId","type":"uint256","internalType":"uint256"},{"name":"_proof","type":"bytes32[]","internalType":"bytes32[]"}],"outputs":[{"name":"","type":"bool","internalType":"bool"}],"stateMutability":"pure"},{"type":"function","name":"maxAuctionLength","inputs":[],"outputs":[{"name":"","type":"uint256","internalType":"uint256"}],"stateMutability":"view"},{"type":"function","name":"minimumBidIncreasePercentage","inputs":[],"outputs":[{"name":"","type":"uint256","internalType":"uint256"}],"stateMutability":"view"},{"type":"function","name":"owner","inputs":[],"outputs":[{"name":"","type":"address","internalType":"address"}],"stateMutability":"view"},{"type":"function","name":"registerAuctionMerkleRoot","inputs":[{"name":"_merkleRoot","type":"bytes32","internalType":"bytes32"},{"name":"_currency","type":"address","internalType":"address"},{"name":"_startingAmount","type":"uint128","internalType":"uint128"},{"name":"_duration","type":"uint64","internalType":"uint64"},{"name":"_splitAddresses","type":"address[]","internalType":"address payable[]"},{"name":"_splitRatios","type":"uint8[]","internalType":"uint8[]"}],"outputs":[],"stateMutability":"nonpayable"},{"type":"function","name":"renounceOwnership","inputs":[],"outputs":[],"stateMutability":"nonpayable"},{"type":"function","name":"setAuctionLengthExtension","inputs":[{"name":"_auctionLengthExtension","type":"uint256","internalType":"uint256"}],"outputs":[],"stateMutability":"nonpayable"},{"type":"function","name":"setMaxAuctionLength","inputs":[{"name":"_maxAuctionLength","type":"uint256","internalType":"uint256"}],"outputs":[],"stateMutability":"nonpayable"},{"type":"function","name":"setMinimumBidIncreasePercentage","inputs":[{"name":"_minimumBidIncreasePercentage","type":"uint8","internalType":"uint8"}],"outputs":[],"stateMutability":"nonpayable"},{"type":"function","name":"settleAuction","inputs":[{"name":"_originContract","type":"address","internalType":"address"},{"name":"_tokenId","type":"uint256","internalType":"uint256"}],"outputs":[],"stateMutability":"nonpayable"},{"type":"function","name":"tokenAuctions","inputs":[{"name":"","type":"address","internalType":"address"},{"name":"","type":"uint256","internalType":"uint256"}],"outputs":[{"name":"auctionCreator","type":"address","internalType":"address payable"},{"name":"currencyAddress","type":"address","internalType":"address"},{"name":"creationBlock","type":"uint32","internalType":"uint32"},{"name":"startingTime","type":"uint64","internalType":"uint64"},{"name":"lengthOfAuction","type":"uint64","internalType":"uint64"},{"name":"minimumBid","type":"uint128","internalType":"uint128"}],"stateMutability":"view"},{"type":"function","name":"transferOwnership","inputs":[{"name":"newOwner","type":"address","internalType":"address"}],"outputs":[],"stateMutability":"nonpayable"},{"type":"event","name":"AuctionBid","inputs":[{"name":"contractAddress","type":"address","indexed":true,"internalType":"address"},{"name":"bidder","type":"address","indexed":true,"internalType":"address"},{"name":"tokenId","type":"uint256","indexed":true,"internalType":"uint256"},{"name":"currencyAddress","type":"address","indexed":false,"internalType":"address"},{"name":"amount","type":"uint128","indexed":false,"internalType":"uint128"},{"name":"marketplaceFee","type":"uint8","indexed":false,"internalType":"uint8"},{"name":"previousBidder","type":"address","indexed":false,"internalType":"address"}],"anonymous":false},{"type":"event","name":"AuctionMerkleBid","inputs":[{"name":"contractAddress","type":"address","indexed":true,"internalType":"address"},{"name":"tokenId","type":"uint256","indexed":true,"internalType":"uint256"},{"name":"bidder","type":"address","indexed":true,"internalType":"address"},{"name":"creator","type":"address","indexed":false,"internalType":"address"},{"name":"merkleRoot","type":"bytes32","indexed":false,"internalType":"bytes32"},{"name":"amount","type":"uint128","indexed":false,"internalType":"uint128"},{"name":"nonce","type":"uint32","indexed":false,"internalType":"uint32"}],"anonymous":false},{"type":"event","name":"AuctionMerkleRootCancelled","inputs":[{"name":"creator","type":"address","indexed":true,"internalType":"address"},{"name":"merkleRoot","type":"bytes32","indexed":true,"internalType":"bytes32"}],"anonymous":false},{"type":"event","name":"AuctionMerkleRootRegistered","inputs":[{"name":"creator","type":"address","indexed":true,"internalType":"address"},{"name":"merkleRoot","type":"bytes32","indexed":true,"internalType":"bytes32"},{"name":"currencyAddress","type":"address","indexed":false,"internalType":"address"},{"name":"startingAmount","type":"uint128","indexed":false,"internalType":"uint128"},{"name":"duration","type":"uint64","indexed":false,"internalType":"uint64"},{"name":"nonce","type":"uint32","indexed":false,"internalType":"uint32"}],"anonymous":false},{"type":"event","name":"AuctionSettled","inputs":[{"name":"contractAddress","type":"address","indexed":true,"internalType":"address"},{"name":"tokenId","type":"uint256","indexed":true,"internalType":"uint256"},{"name":"seller","type":"address","indexed":false,"internalType":"address"},{"name":"bidder","type":"address","indexed":false,"internalType":"address"},{"name":"amount","type":"uint128","indexed":false,"internalType":"uint128"},{"name":"currencyAddress","type":"address","indexed":false,"internalType":"address"},{"name":"marketplaceFee","type":"uint8","indexed":false,"internalType":"uint8"}],"anonymous":false},{"type":"event","name":"CancelAuction","inputs":[{"name":"contractAddress","type":"address","indexed":true,"internalType":"address"},{"name":"tokenId","type":"uint256","indexed":true,"internalType":"uint256"},{"name":"auctionCreator","type":"address","indexed":false,"internalType":"address"}],"anonymous":false},{"type":"event","name":"Initialized","inputs":[{"name":"version","type":"uint8","indexed":false,"internalType":"uint8"}],"anonymous":false},{"type":"event","name":"OwnershipTransferred","inputs":[{"name":"previousOwner","type":"address","indexed":true,"internalType":"address"},{"name":"newOwner","type":"address","indexed":true,"internalType":"address"}],"anonymous":false}],"bytecode":{"object":"0x60808060405234610016576152bb908161001c8239f35b600080fdfe60806040526004361015610068575b361561001957600080fd5b60405162461bcd60e51b815260206004820152602160248201527f455448207061796d656e74206e6f74206163636570746564206469726563746c6044820152607960f81b6064820152608490fd5b6000803560e01c80630cd87c6814613ceb5780630e519ef914613ccd57806310f7978914613caa578063299a0e1e14613c3f578063301aa5141461346557806348626b90146134375780634ebade5f146133895780635138b08c146127955780635e51b2d4146127055780636699ee4314611ec35780636fe9f44c14611ea5578063715018a614611e4757806376ffb5a714611c8a5780638da5cb5b14611c6157806395cf6b9014610fb8578063ac964f8e14610eaf578063affdafd814610e8c578063bb120e6614610e11578063c306b378146104d1578063c47c35c11461043c578063d97f7657146103a8578063daa264991461038a578063e29ac89014610340578063e35ed75a1461021a5763f2fde38b14610187575061000e565b34610217576020366003190112610217576101a0613e73565b6101a8613f79565b6001600160a01b038116156101c3576101c090613fd1565b80f35b60405162461bcd60e51b815260206004820152602660248201527f4f776e61626c653a206e6577206f776e657220697320746865207a65726f206160448201526564647265737360d01b6064820152608490fd5b80fd5b503461021757604036600319011261021757608090610237613e73565b906024359060018060a01b038093169182825260ff60209360a28552604084208385528552604084209580604060018151996102728b614051565b838154168b52015496888a01966001600160801b0395868a16895287848d019a8e1c168a52825260a18a52828220908252895220976040516102b38161401a565b828a5416815260e061031c600460018d01549c8c85019d8e888216905263ffffffff8160a01c16604087015260c01c60608601528860028201546001600160401b038116608088015260401c1660a08601526103116003820161412f565b60c086015201614189565b91015251169651169251169251169260405194855284015260408301526060820152f35b50346102175760403660031901126102175760209063ffffffff906040906001600160a01b0361036e613e73565b16815260a8845281812060243582528452205416604051908152f35b5034610217578060031936011261021757602060a554604051908152f35b50346102175760803660031901126102175763ffffffff60406020926103cc613e73565b61041a6104286103da613e9f565b9285519283918983019560643591602435908892606894926001600160601b0319809360601b168552601485015260601b16603483015260488201520190565b03601f19810183528261409a565b519020815260a98452205416604051908152f35b50346102175760403660031901126102175760c0906001600160a01b03906001600160801b03906040908361046f613e73565b16815260a160205281812060243582526020522091808354169260026001820154910154916040519485528116602085015263ffffffff8160a01c166040850152841c60608401526001600160401b038116608084015260401c1660a0820152f35b503461021757610140366003190112610217576104ec613e73565b6104f4613e89565b6104fc613e9f565b610504613eb5565b60843592906001600160a01b0384168403610e0c5760a435906001600160a01b0382168203610e0c5760c435906001600160a01b0382168203610e0c5760e435956001600160a01b0387168703610e0c5761010435946001600160a01b0386168603610e0c5761012435966001600160a01b0388168803610e0c578a549960ff8b60081c16159a8b809c610dff575b8015610de8575b15610d8c5760ff1981166001178d558b610d7b575b506001600160a01b03811615610d1a576001600160a01b03831615610cbf576001600160a01b03821615610c5c576001600160a01b03851615610bf9576001600160a01b03841615610ba3576001600160a01b03871615610b46576001600160a01b03861615610ae9576001600160a01b038a1615610a89576001600160a01b03881615610a27576001600160a01b038916156109c45760405163ef8c824960e01b81526001600160a01b039a8b166004820152908a16602482015290891660448201529088166064820152908716608482015290861660a482015290851660c482015290841660e48201529083166101048201529116610124820152610140816101448173__$c98ca6a62396e5a7a1471db151198a1f31$__5af49081156109b957839161084e575b5060018060a01b03815116906001600160601b0360a01b9182609754161760975560018060a01b0360208201511682609854161760985560018060a01b0360408201511682609954161760995560018060a01b0360608201511682609a541617609a5560018060a01b0360808201511682609b541617609b5560018060a01b0360a08201511682609c541617609c5560018060a01b0360c08201511682609d541617609d5560018060a01b0360e08201511682609e541617609e5560018060a01b036101008201511682609f541617609f5561012060018060a01b03910151169060a054161760a055600160a35562093a8060a45561038460a5556107ed60ff835460081c166107e8816140cf565b6140cf565b6107f633613fd1565b81549061080c60ff8360081c166107e8816140cf565b6001606555610819575080f35b61ff00191681557f7f26b83ff96e1f2b6a682f133852f6798a09c465da95921460cefb3847402498602060405160018152a180f35b9050610140813d610140116109b1575b8161086c610140938361409a565b810103126109ad576040519061014082018281106001600160401b038211176109975760405261089b816140bb565b825260208101516001600160a01b038116810361098f57602083015260408101516001600160a01b038116810361098f57604083015260608101516001600160a01b038116810361098f57606083015260808101516001600160a01b038116810361098f57608083015260a08101516001600160a01b038116810361098f5760a083015260c08101516001600160a01b038116810361098f5760c083015260e08101516001600160a01b038116810361098f5760e083015261010081810151906001600160a01b03821682036109935783015261012090810151906001600160a01b038216820361098f57820152386106d9565b8480fd5b8580fd5b634e487b7160e01b600052604160045260246000fd5b8280fd5b3d915061085e565b6040513d85823e3d90fd5b60405162461bcd60e51b815260206004820152603560248201527f696e697469616c697a653a3a657263373231417070726f76616c4d616e616765604482015274722063616e6e6f742062652030206164647265737360581b6064820152608490fd5b60405162461bcd60e51b815260206004820152603460248201527f696e697469616c697a653a3a6572633230417070726f76616c4d616e616765726044820152732063616e6e6f742062652030206164647265737360601b6064820152608490fd5b60405162461bcd60e51b815260206004820152603260248201527f696e697469616c697a653a3a6e6574776f726b42656e65666963696172792063604482015271616e6e6f742062652030206164647265737360701b6064820152608490fd5b60405162461bcd60e51b815260206004820152602f60248201527f696e697469616c697a653a3a7374616b696e6753657474696e67732063616e6e60448201526e6f742062652030206164647265737360881b6064820152608490fd5b60405162461bcd60e51b815260206004820152602f60248201527f696e697469616c697a653a3a7374616b696e6752656769737472792063616e6e60448201526e6f742062652030206164647265737360881b6064820152608490fd5b60405162461bcd60e51b815260206004820152602860248201527f696e697469616c697a653a3a7061796d656e74732063616e6e6f742062652030604482015267206164647265737360c01b6064820152608490fd5b60405162461bcd60e51b815260206004820152603560248201527f696e697469616c697a653a3a617070726f766564546f6b656e52656769737472604482015274792063616e6e6f742062652030206164647265737360581b6064820152608490fd5b60405162461bcd60e51b815260206004820152603560248201527f696e697469616c697a653a3a73706163654f70657261746f7252656769737472604482015274792063616e6e6f742062652030206164647265737360581b6064820152608490fd5b60405162461bcd60e51b815260206004820152602d60248201527f696e697469616c697a653a3a726f79616c7479456e67696e652063616e6e6f7460448201526c2062652030206164647265737360981b6064820152608490fd5b60405162461bcd60e51b815260206004820152603360248201527f696e697469616c697a653a3a6d61726b6574706c61636553657474696e67732060448201527263616e6e6f742062652030206164647265737360681b6064820152608490fd5b61ffff1916610101178c55386105af565b60405162461bcd60e51b815260206004820152602e60248201527f496e697469616c697a61626c653a20636f6e747261637420697320616c72656160448201526d191e481a5b9a5d1a585b1a5e995960921b6064820152608490fd5b50303b15801561059a5750600160ff82161461059a565b50600160ff821610610593565b600080fd5b5034610217576040366003190112610217576001600160a01b039060019060409083610e3b613e73565b16815260a760205281812060243582526020522091825416910154610e88604051928263ffffffff859460c01c16916001600160801b036001600160401b038360801c1692169085613f38565b0390f35b503461021757602036600319011261021757610ea6613f79565b60043560a45580f35b503461021757602080600319360112610fb4576004359033835260a68152610eea826040852060019160005201602052604060002054151590565b15610f605733835260a68152610f038260408520614989565b5033835260a78152604083209082845252610f38600360408420848155846001820155610f32600282016147f0565b01614848565b337f6c4be52b9a419eb78a1483e27346ba15e73a3f933dfc4310e9728ddf33c695f88380a380f35b6084906040519062461bcd60e51b82526004820152602760248201527f63616e63656c41756374696f6e4d65726b6c65526f6f743a3a4e6f7420726f6f6044820152663a1037bbb732b960c91b6064820152fd5b5080fd5b5060e036600319011261021757610fcd613e73565b610fd5613e89565b610fdd613eb5565b9160a4356001600160801b0381168103610e0c5760c4356001600160401b03811161099357611013611061913690600401613f08565b61101b614783565b604051606087901b6001600160601b03191660208201908152604435603483015261105c9161104d816054810161041a565b51902092608435923691614a65565b614ab3565b15611c045760018060a01b036098541660018060a01b038516865260a66020526110a06084356040882060019160005201602052604060002054151590565b15611ba15760018060a01b038516865260a760205260408620608435875260205260408620926111316003604051956110d887614036565b80546001600160a01b0316875260018101546001600160801b0381166020890152608081901c6001600160401b0316604089015260c01c63ffffffff1660608801526111266002820161412f565b608088015201614189565b60a085015283516001600160a01b03908116911603611b4157604051606086811b6001600160601b03199081166020840190815260843560348501529187901b16605483015260443560688301529061118d816088810161041a565b5190209260018060a01b038616875260a860205260408720608435885260205263ffffffff6040882054169380885260a96020528463ffffffff60408a2054161015611acb576001600160a01b038616885260a160209081526040808a206044358b5290915288206001015460c01c611a6c576001600160801b03841615611a1857604051637cd11f4360e11b8152602081600481875afa9081156118025789916119e6575b506001600160801b03851611611982576001600160801b036020830151166001600160801b03851610611917576040516331a9108f60e11b815260443560048201526020816024816001600160a01b038b165afa9081156118025789916118d9575b506001600160a01b038881169116036118815760a05460405163e985e9c560e01b81526001600160a01b0389811660048301529091166024820152602081806044810103816001600160a01b038b165afa908115611802578991611852575b501561180d576040516361fe24a960e11b81526001600160801b0385166004820152602081602481875afa9081156118025789916117ce575b50611344611354916001600160801b038716614750565b83516001600160a01b0316614c74565b875260a9602052604087208463ffffffff1982541617905560018060a01b03815116906001600160401b03604082015116906001600160801b0360208201511660a0608083015192015192604051946113ac8661401a565b60018060a01b038b168652602086015263ffffffff431660408601526001600160401b0342166060860152608085015260a084015260c083015260e082015260018060a01b038516875260a1602052604087206044358852602052604087209060018060a01b038151166001600160601b0360a01b83541617825560018060a01b0360208201511663ffffffff60a01b604083015160a01b16906001600160401b0360c01b9182606085015160c01b16911717600184015560028301906001600160401b0360808401511682549177ffffffffffffffffffffffffffffffff000000000000000060a086015160401b1692161717905560c08101518051906001600160401b0382116117ba57602060038501916114c98484614814565b01908a5260208a208a5b83811061179d575050505060e00151908151906001600160401b03821161178957600460209101926115058385614872565b019188526020882090885b8160051c811061174a5750601f19811681036116fa575b505050602060049160405192838092638347592160e01b82525afa9081156116ef5786916116c0575b506040519061155e82614051565b3382526001600160801b0360016020840193828616855260ff6040820194168452818060a01b0388168a5260a260205260408a206044358b5260205260408a2090828060a01b039051166001600160601b0360a01b8254161781550192511682549160ff60801b905160801b16916001600160881b031916171790558460018060a01b0360a05416803b15610fb457604051630aed65f560e11b81526001600160a01b03868116600483015287166024820152306044808301919091523560648201529082908290608490829084905af180156116b5576116a1575b50506001600160801b03906040519460018060a01b031685526084356020860152166040840152606083015233917f770c760f90bd1068bf31baad2aabf2d50917fb8abd6f1fce2a5385266e388e1760806044359360018060a01b031692a4600160655580f35b6116aa9061406c565b61098f57843861163a565b6040513d84823e3d90fd5b6116e2915060203d6020116116e8575b6116da818361409a565b81019061476a565b38611550565b503d6116d0565b6040513d88823e3d90fd5b8892895b601f1983168303811061171c57505060051c01556020600438611527565b909360206117416001928460ff895116919060ff809160031b9316831b921b19161790565b950191016116fe565b898a5b60208110611762575083820155600101611510565b855190959160019160209160ff60038a901b81811b199092169216901b179201950161174d565b634e487b7160e01b89526041600452602489fd5b82516001600160a01b0316818301556020909201916001016114d3565b634e487b7160e01b8a52604160045260248afd5b90506020813d6020116117fa575b816117e96020938361409a565b81010312610e0c575161134461132d565b3d91506117dc565b6040513d8b823e3d90fd5b60405162461bcd60e51b815260206004820152601e60248201527f6f776e6572206d757374206861766520617070726f76656420746f6b656e00006044820152606490fd5b611874915060203d60201161187a575b61186c818361409a565b810190614b50565b386112f4565b503d611862565b60405162461bcd60e51b815260206004820152602a60248201527f6269645769746841756374696f6e4d65726b6c6550726f6f663a3a4e6f74207460448201526937b5b2b71037bbb732b960b11b6064820152608490fd5b90506020813d60201161190f575b816118f46020938361409a565b8101031261190b57611905906140bb565b38611295565b8880fd5b3d91506118e7565b60405162461bcd60e51b815260206004820152603b60248201527f6269645769746841756374696f6e4d65726b6c6550726f6f663a3a43616e6e6f60448201527f74206265206c6f776572207468616e206d696e696d756d2062696400000000006064820152608490fd5b60405162461bcd60e51b815260206004820152603660248201527f6269645769746841756374696f6e4d65726b6c6550726f6f663a3a4d757374206044820152756265206c657373207468616e206d61782076616c756560501b6064820152608490fd5b90506020813d602011611a10575b81611a016020938361409a565b81010312610e0c575138611233565b3d91506119f4565b60405162461bcd60e51b815260206004820152602660248201527f6269645769746841756374696f6e4d65726b6c6550726f6f663a3a43616e6e6f60448201526507420626520360d41b6064820152608490fd5b60405162461bcd60e51b815260206004820152603160248201527f6269645769746841756374696f6e4d65726b6c6550726f6f663a3a41756374696044820152706f6e20616c72656164792065786973747360781b6064820152608490fd5b60405162461bcd60e51b815260206004820152604260248201527f6269645769746841756374696f6e4d65726b6c6550726f6f663a3a546f6b656e60448201527f20616c7265616479207573656420666f722074686973204d65726b6c6520726f6064820152611bdd60f21b608482015260a490fd5b60405162461bcd60e51b815260206004820152603260248201527f6269645769746841756374696f6e4d65726b6c6550726f6f663a3a43757272656044820152710dcc6f240c8decae640dcdee840dac2e8c6d60731b6064820152608490fd5b60405162461bcd60e51b815260206004820152603560248201527f6269645769746841756374696f6e4d65726b6c6550726f6f663a3a4d65726b6c60448201527419481c9bdbdd081b9bdd081c9959da5cdd195c9959605a1b6064820152608490fd5b60405162461bcd60e51b815260206004820152602f60248201527f6269645769746841756374696f6e4d65726b6c6550726f6f663a3a496e76616c60448201526e34b21026b2b935b63290383937b7b360891b6064820152608490fd5b50346102175780600319360112610217576033546040516001600160a01b039091168152602090f35b503461021757604036600319011261021757611ca4613e73565b606060a0604051611cb481614036565b8481528460208201528460408201528483820152826080820152015260018060a01b0316815260a76020526040812060243582526020526040812090611d5b600360405193611d0285614036565b80546001600160a01b0316855260018101546001600160801b0381166020870152608081901c6001600160401b0316604087015260c01c63ffffffff166060860152611d506002820161412f565b608086015201614189565b60a08301526040519182916020835260e083019160018060a01b0381511660208501526001600160801b0360208201511660408501526001600160401b03604082015116606085015263ffffffff606082015116608085015260808101519260c060a0860152835180915260206101008601940190835b818110611e255750505060a0015191601f198482030160c0850152602080845192838152019301915b818110611e09575050500390f35b825160ff16845285945060209384019390920191600101611dfb565b82516001600160a01b0316865287965060209586019590920191600101611dd2565b5034610217578060031936011261021757611e60613f79565b603380546001600160a01b031981169091556000906001600160a01b03167f8be0079c531659141344cd1fd0a4f28419497f9722a3daafe3b4186f6b6457e08280a380f35b5034610217578060031936011261021757602060a354604051908152f35b50608036600319011261021757611ed8613e73565b611ee0613e9f565b906064356001600160801b0381168103610e0c57611efc614783565b6098546040516361fe24a960e11b81526001600160801b03831660048201526001600160a01b039091169190602081602481865afa80156116ef5786906126cc575b6001600160801b039150166001600160801b03821601916001600160801b0383116126b857611f766001600160801b03841686614b68565b60018060a01b038416865260a16020526040862060243587526020526040862090612010600460405193611fa98561401a565b60018060a01b038154168552600181015460018060a01b038116602087015263ffffffff8160a01c16604087015260c01c60608601526001600160801b0360028201546001600160401b038116608088015260401c1660a08601526103116003820161412f565b60e08301526001600160401b03606083015116156126745781516001600160a01b03163314612623576001600160401b0361205881606085015116826080860151169061470c565b164210156125e55760208201516001600160a01b039081169087160361258a576001600160801b0360a0830151166001600160801b03841610612545576001600160801b038316156124f157602060049160405192838092637cd11f4360e11b82525afa90811561233b5787916124bf575b506001600160801b0383161161247a576001600160a01b038416865260a2602090815260408088206024358952909152808720905160019461210b82614051565b858060a01b0383541695869384845201546001600160801b038116602084015260ff8160801c166040840152836123d7575b50926121616001600160801b036121a2951660018060a01b03602084015116614c74565b6001600160401b0360608201511680612346575b506020908101519082015160409092015160ff16916001600160801b0316906001600160a01b0316614f6e565b609854604051638347592160e01b8082529291602090829060049082906001600160a01b03165afa90811561233b57879161231c575b50604051906121e682614051565b3382526001600160801b0360016020840193828616855260ff6040820194168452818060a01b0389168b5260a260205260408b206024358c5260205260408b2090828060a01b039051166001600160601b0360a01b8254161781550192511682549160ff60801b905160801b16916001600160881b03191617179055602060018060a01b03609854169260046040518095819382525afa9081156116ef5760ff9287926122f2575b506001600160801b03906040519660018060a01b031687521660208601521660408401526060830152602435917f05d5a145b6996460db14669f3bb9bebeb953e570716e24c3d1af0c8e42d2bab36080339360018060a01b031692a4600160655580f35b6001600160801b039192506123159060203d6020116116e8576116da818361409a565b919061228e565b612335915060203d6020116116e8576116da818361409a565b386121d8565b6040513d89823e3d90fd5b61236a906001600160401b036123644292826080870151169061470c565b1661475d565b60a55480821061237b575b50612175565b6001600160401b039161239761239c9284608087015116614750565b61475d565b1660018060a01b0388168a5260a160205260408a206024358b52602052600260408b2001906001600160401b03198254161790553880612375565b6124099193506123f56064916001600160801b0360a354911661473d565b046001600160801b03602084015116614750565b6001600160801b038516106124205784913861213d565b60405162461bcd60e51b815260206004820152602c60248201527f6269643a3a4d75737420696e63726561736520626964206279206d696e696d7560448201526b6d2070657263656e7461676560a01b6064820152608490fd5b60405162461bcd60e51b815260206004820152601a60248201527f6269643a3a4269642065786365656473206d61782076616c75650000000000006044820152606490fd5b90506020813d6020116124e9575b816124da6020938361409a565b81010312610e0c5751386120ca565b3d91506124cd565b60405162461bcd60e51b815260206004820152602660248201527f6269643a3a42696420616d6f756e74206d75737420626520677265617465722060448201526507468616e20360d41b6064820152608490fd5b60405162461bcd60e51b815260206004820152601760248201527f6269643a3a42696420616d6f756e7420746f6f206c6f770000000000000000006044820152606490fd5b60405162461bcd60e51b815260206004820152602d60248201527f6269643a3a43757272656e637920646f6573206e6f74206d617463682061756360448201526c74696f6e2063757272656e637960981b6064820152608490fd5b60405162461bcd60e51b8152602060048201526016602482015275189a590e8e905d58dd1a5bdb881a185cc8195b99195960521b6044820152606490fd5b60405162461bcd60e51b815260206004820152602360248201527f6269643a3a43616e6e6f7420626964206f6e20796f7572206f776e206175637460448201526234b7b760e91b6064820152608490fd5b606460405162461bcd60e51b815260206004820152602060248201527f6269643a3a4d757374206861766520612063757272656e742061756374696f6e6044820152fd5b634e487b7160e01b86526011600452602486fd5b506020813d6020116126fd575b816126e66020938361409a565b81010312610e0c576001600160801b039051611f3e565b3d91506126d9565b50346102175760803660031901126102175761271f613e89565b90606435906001600160401b03821161021757602061278b8461105c6127483660048801613f08565b60405160609490941b6001600160601b031916868501908152604435601482015291939092919061277c816034840161041a565b51902092600435923691614a65565b6040519015158152f35b5034610217576040366003190112610217576127af613e73565b60018060a01b038116825260a1602052604082206024358352602052604082206128536004604051926127e18461401a565b60018060a01b038154168452600181015460018060a01b038116602086015263ffffffff8160a01c16604086015260c01c60608501526001600160801b0360028201546001600160401b038116608087015260401c1660a08501526128486003820161412f565b60c085015201614189565b60e082015260018060a01b038216835260a2602052604083206024358452602052604083209160ff60016040519461288a86614051565b818060a01b03815416865201546001600160801b038116602086015260801c1660408401526001600160401b0360608301511615613345576001600160401b036128e181606085015116826080860151169061470c565b1642106132f45760018060a01b038116845260a1602052604084206024358552602052612928600460408620868155866001820155866002820155610f32600382016147f0565b6001600160a01b03818116855260a260209081526040808720602435885290915285208581556001018590558351161561327657825184906001600160a01b039081169083163b15610fb4576040516323b872dd60e01b8152306004820152602480820192909252903560448201528181606481836001600160a01b0388165af180156116b557613262575b505060208281015190840151835160c085015160e0860151815181516001600160a01b03948516999690941696929591946001600160801b03169303613201576024838a9499602060018060a01b0360985416604051948580926361fe24a960e11b82528660048301525afa9283156116ef5786936131ca575b5060405192612a3c84614051565b6002845260403660208601376097546001600160a01b031680612a5e86614b1f565b52609e5460405163e286ef3360e01b81526004810185905290602090829060249082906001600160a01b03165afa908115611802578991613190575b506001600160a01b0316612aad86614b2c565b526001600160a01b03612abf86614b2c565b5116613177575b612acf85614b2c565b6001600160a01b03909116905260405190612ae982614051565b600282526040366020840137609d546040516303fdde1160e21b8152600481018690526001600160a01b0390911690602081602481855afa90811561316c578a91613134575b50602491602091612b3f86614b1f565b526040519283809263470d6ed960e11b82528960048301525afa9081156118025789916130f9575b5082918691612b78612b7f95614b2c565b528c6151a2565b609854604051631446f21360e21b81526001600160a01b038781166004830152602480359083015290949116602085604481845afa80156130ee57889586916130cf575b5015612ebf575b5050609a54604051637a99dc0160e11b81526001600160a01b038781166004830152602480359083015260448201949094529c8d93606493508492165af19687156109b95783998498612d71575b508399849a5b89518c1015612c4b57612c3f612c4591612c388e8d614b3c565b5190614750565b9b614b10565b9a612c1e565b9a50612c628b612c699496989a939597999b61475d565b9a8a6151a2565b845195612c75876148d6565b96612c83604051988961409a565b808852612c92601f19916148d6565b01366020890137845b8651811015612cd757806064612cc160ff612cb9612cd2958c614b3c565b51168d61473d565b04612ccc828b614b3c565b52614b10565b612c9b565b5091959296612ce994989195506151a2565b60018060a01b038151169160018060a01b038151169160ff60406001600160801b0360208501511692602060018060a01b0391015116930151169260405194855260208501526040840152606083015260808201527fd6bafd8fc8591640c77fad1fe6a63cf44843ab5139aa025ba7e18c94fd3686c060a060243593600180831b031692a380f35b995096503d988984823e612d858a8261409a565b6040818b81010312612ebb5780516001600160401b03811161098f578101908a8101601f8301121561098f57815191612dbd836148d6565b92612dcb604051948561409a565b80845260208401918d840160208360051b83010111612e935760208101925b60208360051b8301018410612e97575050505060208101519a6001600160401b038c1161099357808201601f8d8401011215610993578b82015191612e2e836148d6565b9c6040519d612e3d908f61409a565b8d8481526020019282018460051b8284010160200111612e93579190602083820101925b60208560051b82840101018410612e7f575050505050989638612c18565b602080809486518152019401939250612e61565b8780fd5b83516001600160a01b0381168103612eb757815260209384019301612dea565b8980fd5b8380fd5b9091935060405190612ed08261407f565b600182526020368184013760405192612ee88461407f565b60018452602036818601376001600160a01b0390612f0590614b1f565b5116612f1084614b1f565b52609954604051635dc22eff60e01b81526004810187905290602090829060249082906001600160a01b03165afa9081156118025789916130b0575b50156130025750609954604051632260494f60e01b81526004810195909552602090859060249082906001600160a01b03165afa93841561233b57879460ff918691612fe3575b50169b612fa08d8561473d565b60649004612fad9161475d565b9b612fb8908461473d565b60649004612fc582614b1f565b52612fcf81614b1f565b5191612fdb928b6151a2565b388080612bca565b612ffc915060203d6020116116e8576116da818361409a565b38612f93565b60405163b28a7bad60e01b81526001600160a01b0388166004820152919c50909350602090849060249082905afa9283156116ef57869360ff918591613091575b50169a6130508c8461473d565b6064900461305e908461475d565b9b613069908461473d565b6064900461307682614b1f565b5261308081614b1f565b519161308c928b6151a2565b612fdb565b6130aa915060203d6020116116e8576116da818361409a565b38613043565b6130c9915060203d60201161187a5761186c818361409a565b38612f4c565b6130e8915060203d60201161187a5761186c818361409a565b38612bc3565b6040513d8a823e3d90fd5b985050906020883d60201161312c575b816131166020938361409a565b81010312610e0c5796518d979190612b7f612b67565b3d9150613109565b9950506020893d602011613164575b816131506020938361409a565b81010312610e0c5797518e98906024612b2f565b3d9150613143565b6040513d8c823e3d90fd5b506001600160a01b0361318985614b2c565b5116612ac6565b90506020813d6020116131c2575b816131ab6020938361409a565b8101031261190b576131bc906140bb565b38612a9a565b3d915061319e565b955091506020853d6020116131f9575b816131e76020938361409a565b81010312610e0c578a94519138612a2e565b3d91506131da565b60405162461bcd60e51b815260206004820152603360248201527f4e756d626572206f662073706c69742061646472657373657320616e642072616044820152723a34b7b99036bab9ba1031329032b8bab0b61760691b6064820152608490fd5b61326b9061406c565b612ebb5783386129b4565b8151909291906001600160a01b039081169084163b1561098f576040516323b872dd60e01b8152306004820152602480820192909252903560448201528481606481836001600160a01b0389165af180156132e9576132d6575b50612ce9565b6132e29094919461406c565b92386132d0565b6040513d87823e3d90fd5b60405162461bcd60e51b8152602060048201526024808201527f736574746c6541756374696f6e3a3a41756374696f6e20686173206e6f7420656044820152631b99195960e21b6064820152608490fd5b606460405162461bcd60e51b815260206004820152602060248201527f736574746c6541756374696f6e3a3a4e6f2061756374696f6e206578697374736044820152fd5b503461021757602080600319360112610fb4576001600160a01b036133ac613e73565b16825260a681526040822060405192838383549182815201908193835284832090835b81811061342357505050846133e591038561409a565b60405193838594850191818652518092526040850193925b82811061340c57505050500390f35b8351855286955093810193928101926001016133fd565b8254845292860192600192830192016133cf565b50346102175760203660031901126102175760043560ff8116809103610fb45761345f613f79565b60a35580f35b50346102175760c03660031901126102175761347f613e89565b6001600160801b036044351660443503610fb4576001600160401b036064351660643503610fb4576084356001600160401b0381116109ad576134c6903690600401613f08565b919060a4356001600160401b03811161098f576134e7903690600401613f08565b906001600160a01b038416158015613bdd575b15613ba0578415613b4b5760058511613afa57818503613aa05785805b838210613a74576064915003613a1f5760a4546001600160401b0360643516116139c557609854604051637cd11f4360e11b815290602090829060049082906001600160a01b03165afa90811561233b57879161398f575b506001600160801b0360443516116139255733865260a66020526135986004356040882061491b565b5033865260a8602052604086206004358752602052600163ffffffff604088205416019463ffffffff86116139115733875260a8602052604087206004358852602052604087209363ffffffff8716948563ffffffff198254161790556040519461360286614036565b6001600160a01b03871686526044356001600160801b031660208701526064356001600160401b03166040870152606086015261363e826148d6565b9161364c604051938461409a565b8083526020830191368260051b820111612eb75780925b8260051b820184106138ed57505050506080840152613681826148d6565b9161368f604051938461409a565b8083526020830191368260051b820111612e935780925b8260051b820184106138d3575050505060a082015233845260a76020526040842060043585526020526040842060018060a01b038251166001600160601b0360a01b825416178155600181016001600160801b036020840151168154906001600160401b0360801b604086015160801b169063ffffffff60c01b606087015160c01b169263ffffffff60e01b16171717905560808201518051906001600160401b0382116138bf576020600284019161375f8484614814565b0190875260208720875b8381106138a25750505050600360a091019101518051906001600160401b03821161388e5760209061379b8385614872565b01918552602085208160051c91865b83811061384f5750601f198116900380613805575b505050507f0ab992cc17951860858a996357021e201f2a5dc931b948bee54c7c5e665f70cb604051806137ff600435953395606435906044359085613f38565b0390a380f35b928693875b81811061381f575050500155388080806137bf565b90919460206138456001928460ff8a5116919060ff809160031b9316831b921b19161790565b960192910161380a565b87885b602081106138675750838201556001016137aa565b865190969160019160209160ff60038b901b81811b199092169216901b1792019601613852565b634e487b7160e01b86526041600452602486fd5b82516001600160a01b031681830155602090920191600101613769565b634e487b7160e01b87526041600452602487fd5b833560ff81168103612eb7578152602093840193016136a6565b83356001600160a01b038116810361390d57815260209384019301613663565b8b80fd5b634e487b7160e01b87526011600452602487fd5b608460405162461bcd60e51b815260206004820152604060248201527f726567697374657241756374696f6e4d65726b6c65526f6f743a3a537461727460448201527f696e6720616d6f756e742065786365656473206d6178696d756d2076616c75656064820152fd5b90506020813d6020116139bd575b816139aa6020938361409a565b810103126139b957513861356f565b8680fd5b3d915061399d565b60405162461bcd60e51b815260206004820152602c60248201527f726567697374657241756374696f6e4d65726b6c65526f6f743a3a447572617460448201526b696f6e20746f6f206c6f6e6760a01b6064820152608490fd5b60405162461bcd60e51b815260206004820152602760248201527f636865636b53706c6974733a3a546f74616c206d75737420626520657175616c604482015266020746f203130360cc1b6064820152608490fd5b8160051b8301359060ff821680920361190b57613a9a91613a9491614750565b91614b10565b90613517565b60405162461bcd60e51b815260206004820152602c60248201527f636865636b53706c6974733a3a53706c69747320616e6420726174696f73206d60448201526b1d5cdd08189948195c5d585b60a21b6064820152608490fd5b60405162461bcd60e51b8152602060048201526024808201527f636865636b53706c6974733a3a53706c6974206578636565646564206d61782060448201526373697a6560e01b6064820152608490fd5b60405162461bcd60e51b815260206004820152602760248201527f636865636b53706c6974733a3a4d7573742068617665206174206c65617374206044820152660c481cdc1b1a5d60ca1b6064820152608490fd5b60405162461bcd60e51b81526020600482015260156024820152744e6f7420617070726f7665642063757272656e637960581b6044820152606490fd5b50609c54604051632d5ad3d560e01b81526001600160a01b038681166004830152909160209183916024918391165afa90811561233b578791613c21575b506134fa565b613c39915060203d811161187a5761186c818361409a565b38613c1b565b5034610217576040366003190112610217576060906001600160a01b039060ff9060019060409084613c6f613e73565b16815260a2602052818120602435825260205220928354169201546040519283526001600160801b038116602084015260801c166040820152f35b503461021757602036600319011261021757613cc4613f79565b60043560a55580f35b5034610217578060031936011261021757602060a454604051908152f35b5034610217576040366003190112610217576001600160a01b03613d0d613e73565b16815260a1602052604081206024358252602052613d9c600460408320613d34608061401a565b80546001600160a01b03908116608052600182015490811660a090815281901c63ffffffff1660c09081521c60e05260028101546001600160401b0381166101005260401c6001600160801b031661012052613d926003820161412f565b6101405201614189565b8060e06080015260018060a01b03608051169063ffffffff6040608001511692613e336001600160401b03606060800151166001600160401b0360808001511660018060a01b03602060800151166001600160801b0360a060800151169160c06080015193604051998a998a5260208a015260408901526060880152608087015260a08601526101008060c0870152850190613ecb565b83810360e0850152602080845192838152019301915b818110613e57575050500390f35b825160ff16845285945060209384019390920191600101613e49565b600435906001600160a01b0382168203610e0c57565b602435906001600160a01b0382168203610e0c57565b604435906001600160a01b0382168203610e0c57565b606435906001600160a01b0382168203610e0c57565b90815180825260208080930193019160005b828110613eeb575050505090565b83516001600160a01b031685529381019392810192600101613edd565b9181601f84011215610e0c578235916001600160401b038311610e0c576020808501948460051b010111610e0c57565b6001600160a01b0390911681526001600160801b039190911660208201526001600160401b03909116604082015263ffffffff909116606082015260800190565b6033546001600160a01b03163303613f8d57565b606460405162461bcd60e51b815260206004820152602060248201527f4f776e61626c653a2063616c6c6572206973206e6f7420746865206f776e65726044820152fd5b603380546001600160a01b039283166001600160a01b0319821681179092559091167f8be0079c531659141344cd1fd0a4f28419497f9722a3daafe3b4186f6b6457e0600080a3565b61010081019081106001600160401b0382111761099757604052565b60c081019081106001600160401b0382111761099757604052565b606081019081106001600160401b0382111761099757604052565b6001600160401b03811161099757604052565b604081019081106001600160401b0382111761099757604052565b90601f801991011681019081106001600160401b0382111761099757604052565b51906001600160a01b0382168203610e0c57565b156140d657565b60405162461bcd60e51b815260206004820152602b60248201527f496e697469616c697a61626c653a20636f6e7472616374206973206e6f74206960448201526a6e697469616c697a696e6760a81b6064820152608490fd5b9060405191828154918282526020928383019160005283600020936000905b828210614166575050506141649250038361409a565b565b85546001600160a01b03168452600195860195889550938101939091019061414e565b90604051918281549182825260209081830190600052816000206000905b85601f830110614575579461416495549184828210614562575b82821061454c575b828210614536575b828210614520575b82821061450b575b8282106144f5575b8282106144df575b8282106144c9575b8282106144b3575b82821061449d575b828210614487575b828210614471575b82821061445b575b828210614445575b82821061442f575b828210614419575b828210614403575b8282106143ed575b8282106143d7575b8282106143c1575b8282106143ab575b828210614395575b82821061437f575b828210614369575b828210614353575b82821061433d575b828210614327575b828210614311575b8282106142fb575b8282106142e5575b8282106142cf575b50106142c2575b509050038361409a565b60f81c81520180386142b8565b6001919460ff8560f01c168152019301846142b1565b6001919460ff8560e81c168152019301846142a9565b6001919460ff8560e01c168152019301846142a1565b6001919460ff8560d81c16815201930184614299565b6001919460ff8560d01c16815201930184614291565b6001919460ff8560c81c16815201930184614289565b6001919460ff8560c01c16815201930184614281565b6001919460ff8560b81c16815201930184614279565b6001919460ff8560b01c16815201930184614271565b6001919460ff8560a81c16815201930184614269565b6001919460ff8560a01c16815201930184614261565b6001919460ff8560981c16815201930184614259565b6001919460ff8560901c16815201930184614251565b6001919460ff8560881c16815201930184614249565b6001919460ff8560801c16815201930184614241565b6001919460ff8560781c16815201930184614239565b6001919460ff8560701c16815201930184614231565b6001919460ff8560681c16815201930184614229565b6001919460ff8560601c16815201930184614221565b6001919460ff8560581c16815201930184614219565b6001919460ff8560501c16815201930184614211565b6001919460ff8560481c16815201930184614209565b6001919460ff8560401c16815201930184614201565b6001919460ff8560381c168152019301846141f9565b6001919460ff8560301c168152019301846141f1565b6001919460ff8560281c168152019301846141e9565b6001919460ff85831c168152019301846141e1565b6001919460ff8560181c168152019301846141d9565b6001919460ff8560101c168152019301846141d1565b6001919460ff8560081c168152019301846141c9565b6001919460ff85168152019301846141c1565b9350916001610400829693865460ff8116825260ff8160081c168583015260ff8160101c16604083015260ff816060828260181c16818601528282608082828c1c1681890152828260a092828260281c16848c0152828260c0988d8a848460301c169101528d60e0848460381c169101528d610100848460401c169101528d610120848460481c169101528d610140848460501c169101528d610160848460581c169101521c166101808c0152828260681c166101a08c0152828260701c166101c08c0152828260781c166101e08c01521c16610200890152828260881c16610220890152828260901c16610240890152828260981c166102608901521c16610280860152828260a81c166102a0860152828260b01c166102c0860152828260b81c166102e08601521c1661030083015260ff8160c81c1661032083015260ff8160d01c1661034083015260ff8160d81c1661036083015260ff8160e01c1661038083015260ff8160e81c166103a083015260ff8160f01c166103c083015260f81c6103e0820152019401920186939194926141a7565b9190916001600160401b038080941691160191821161472757565b634e487b7160e01b600052601160045260246000fd5b8181029291811591840414171561472757565b9190820180921161472757565b9190820391821161472757565b90816020910312610e0c575160ff81168103610e0c5790565b600260655414614794576002606555565b60405162461bcd60e51b815260206004820152601f60248201527f5265656e7472616e637947756172643a207265656e7472616e742063616c6c006044820152606490fd5b8181106147e4575050565b600081556001016147d9565b805460008255806147ff575050565b614164916000526020600020908101906147d9565b90600160401b81116109975781549080835581811061483257505050565b61416492600052602060002091820191016147d9565b80546000825580614857575050565b61416491600052601f6020600020910160051c8101906147d9565b90600160401b811161099757815481835580821061488f57505050565b61416492600052601f6020600020918180850160051c84019416806148bb575b500160051c01906147d9565b600019908186019182549160200360031b1c169055386148af565b6001600160401b0381116109975760051b60200190565b80548210156149055760005260206000200190600090565b634e487b7160e01b600052603260045260246000fd5b600082815260018201602052604090205461498257805490600160401b821015610997578261496b6149548460018096018555846148ed565b819391549060031b91821b91600019901b19161790565b905580549260005201602052604060002055600190565b5050600090565b90600182019060009281845282602052604084205490811515600014614a5e576000199180830181811161391157825490848201918211614a4a57808203614a15575b50505080548015614a01578201916149e483836148ed565b909182549160031b1b191690555582526020526040812055600190565b634e487b7160e01b86526031600452602486fd5b614a35614a2561495493866148ed565b90549060031b1c928392866148ed565b905586528460205260408620553880806149cc565b634e487b7160e01b88526011600452602488fd5b5050505090565b9291614a70826148d6565b91614a7e604051938461409a565b829481845260208094019160051b8101928311610e0c57905b828210614aa45750505050565b81358152908301908301614a97565b929091906000915b8451831015614b0857614ace8386614b3c565b5190600082821015614af65750600052602052614af060406000205b92614b10565b91614abb565b604091614af093825260205220614aea565b915092501490565b60001981146147275760010190565b8051156149055760200190565b8051600110156149055760400190565b80518210156149055760209160051b010190565b90816020910312610e0c57518015158103610e0c5790565b6001600160a01b03908116908115614c6f57609f54604051636eb1769f60e11b815233600482015291166001600160a01b0316602482015290602090829081806044810103915afa908115614c6357600091614c32575b5010614bc757565b60405162461bcd60e51b815260206004820152603960248201527f73656e646572206e6565647320746f20617070726f766520455243323041707060448201527f726f76616c4d616e6167657220666f722063757272656e6379000000000000006064820152608490fd5b906020823d8211614c5b575b81614c4b6020938361409a565b8101031261021757505138614bbf565b3d9150614c3e565b6040513d6000823e3d90fd5b505050565b6001600160a01b0391600091838116908115614e765734614e20576040938451916370a0823160e01b908184523060048501526020978885602481895afa948515614e16578495614de7575b50609f541690813b15612ebb578751630aed65f560e11b81526001600160a01b03919091166004820152336024820152306044820152606481018790529083908290608490829084905af18015614ddd5790889291614dca575b50602487518096819382523060048301525afa908115614dbf5790614d90575b614d44925061475d565b03614d4d575050565b60649250519062461bcd60e51b82526004820152601c60248201527f6e6f7420656e6f75676820746f6b656e73207472616e736665726564000000006044820152fd5b508482813d8311614db8575b614da6818361409a565b81010312610e0c57614d449151614d3a565b503d614d9c565b8551903d90823e3d90fd5b614dd69093919361406c565b9138614d1a565b87513d85823e3d90fd5b9094508881813d8311614e0f575b614dff818361409a565b81010312612ebb57519338614cc0565b503d614df5565b88513d86823e3d90fd5b60405162461bcd60e51b815260206004820152602860248201527f6d73672e76616c75652073686f756c642062652030207768656e206e6f7420756044820152670e6d2dcce40cae8d60c31b6064820152608490fd5b50509150503403614e8357565b60405162461bcd60e51b81526020600482015260136024820152721b9bdd08195b9bdd59da08195d1a081cd95b9d606a1b6044820152606490fd5b3d15614ef8573d906001600160401b0382116109975760405191614eec601f8201601f19166020018461409a565b82523d6000602084013e565b606090565b6020808252825181830181905290939260005b828110614f3257505060409293506000838284010152601f8019910116010190565b818101860151848201604001528501614f10565b15614f4e5750565b60405162461bcd60e51b8152908190614f6a9060048301614efd565b0390fd5b9291908015615006576064614f86614f8d938361473d565b0490614750565b6001600160a01b039290919083168015614fab57614164935061500c565b50609b5460405163410085df60e01b602082019081526001600160a01b03909316602482015260448101849052614164946000948594939091169291614ff4816064810161041a565b51925af1615000614ebe565b90614f46565b50505050565b60405163a9059cbb60e01b60208083019182526001600160a01b0394909416602483015260448083019590955293815291926150a59291600090819061505360648661409a565b60018060a01b031692604051946150698661407f565b8786527f5361666545524332303a206c6f772d6c6576656c2063616c6c206661696c656488870152519082855af161509f614ebe565b9161512d565b805190828215928315615115575b505050156150be5750565b6084906040519062461bcd60e51b82526004820152602a60248201527f5361666545524332303a204552433230206f7065726174696f6e20646964206e6044820152691bdd081cdd58d8d9595960b21b6064820152fd5b6151259350820181019101614b50565b3882816150b3565b9192901561518f5750815115615141575090565b3b1561514a5790565b60405162461bcd60e51b815260206004820152601d60248201527f416464726573733a2063616c6c20746f206e6f6e2d636f6e74726163740000006044820152606490fd5b825190915015614f4e5750805190602001fd5b6001600160a01b03908116949392909185156151fd575060005b81518110156151f557806151eb846151d76151f09486614b3c565b51166151e38388614b3c565b51908961500c565b614b10565b6151bc565b505050509050565b92945090609b541691604051602061522d8183019463c176e63960e01b8652604060248501526064840190613ecb565b82810360231901604484015287518082529082019782019160005b8281106152715750505050916000939183614ff48695614164989903601f19810183528261409a565b83518a52988101989281019260010161524856fea26469706673582212205d541a2c75fa912ee004b8294705047108181f666604ab1e7eaa8bd5de81c5d264736f6c63430008120033","linkReferences":{"src/v2/utils/MarketConfigV2.sol":{"MarketConfigV2":[{"start":1746,"length":20}]}}},"methodIdentifiers":{"auctionBids(address,uint256)":"299a0e1e","auctionLengthExtension()":"daa26499","bid(address,uint256,address,uint128)":"6699ee43","bidWithAuctionMerkleProof(address,address,uint256,address,bytes32,uint128,bytes32[])":"95cf6b90","cancelAuctionMerkleRoot(bytes32)":"ac964f8e","creatorRootToConfig(address,bytes32)":"bb120e66","getAuctionDetails(address,uint256)":"0cd87c68","getCreatorAuctionMerkleRootNonce(address,bytes32)":"e29ac890","getCurrentBid(address,uint256)":"e35ed75a","getMerkleAuctionConfig(address,bytes32)":"76ffb5a7","getTokenAuctionNonce(address,bytes32,address,uint256)":"d97f7657","getUserAuctionMerkleRoots(address)":"4ebade5f","initialize(address,address,address,address,address,address,address,address,address,address)":"c306b378","isTokenInRoot(bytes32,address,uint256,bytes32[])":"5e51b2d4","maxAuctionLength()":"0e519ef9","minimumBidIncreasePercentage()":"6fe9f44c","owner()":"8da5cb5b","registerAuctionMerkleRoot(bytes32,address,uint128,uint64,address[],uint8[])":"301aa514","renounceOwnership()":"715018a6","setAuctionLengthExtension(uint256)":"10f79789","setMaxAuctionLength(uint256)":"affdafd8","setMinimumBidIncreasePercentage(uint8)":"48626b90","settleAuction(address,uint256)":"5138b08c","tokenAuctions(address,uint256)":"c47c35c1","transferOwnership(address)":"f2fde38b"},"id":59}