{"abi":[{"type":"constructor","inputs":[],"stateMutability":"nonpayable"},{"type":"function","name":"MAX_BATCH_SIZE","inputs":[],"outputs":[{"name":"","type":"uint256","internalType":"uint256"}],"stateMutability":"view"},{"type":"function","name":"MAX_CHECKOUT_SIZE","inputs":[],"outputs":[{"name":"","type":"uint256","internalType":"uint256"}],"stateMutability":"view"},{"type":"function","name":"acceptOffer","inputs":[{"name":"_contractAddress","type":"address","internalType":"address"},{"name":"_tokenId","type":"uint256","internalType":"uint256"},{"name":"_buyer","type":"address","internalType":"address"},{"name":"_currencyAddress","type":"address","internalType":"address"},{"name":"_price","type":"uint256","internalType":"uint256"},{"name":"_quantity","type":"uint256","internalType":"uint256"},{"name":"_splitRecipients","type":"address[]","internalType":"address payable[]"},{"name":"_splitRatios","type":"uint8[]","internalType":"uint8[]"}],"outputs":[],"stateMutability":"nonpayable"},{"type":"function","name":"buyBatch","inputs":[{"name":"_contractAddress","type":"address","internalType":"address"},{"name":"_seller","type":"address","internalType":"address"},{"name":"_currencyAddress","type":"address","internalType":"address"},{"name":"_requests","type":"tuple[]","internalType":"struct IRareERC1155MarketplaceTypes.BuyRequest[]","components":[{"name":"tokenId","type":"uint256","internalType":"uint256"},{"name":"price","type":"uint256","internalType":"uint256"},{"name":"quantity","type":"uint256","internalType":"uint256"}]}],"outputs":[],"stateMutability":"payable"},{"type":"function","name":"cancelMintDirectSales","inputs":[{"name":"_contractAddress","type":"address","internalType":"address"},{"name":"_tokenIds","type":"uint256[]","internalType":"uint256[]"}],"outputs":[],"stateMutability":"nonpayable"},{"type":"function","name":"cancelOffer","inputs":[{"name":"_contractAddress","type":"address","internalType":"address"},{"name":"_tokenId","type":"uint256","internalType":"uint256"},{"name":"_currencyAddress","type":"address","internalType":"address"}],"outputs":[],"stateMutability":"nonpayable"},{"type":"function","name":"cancelSalePrices","inputs":[{"name":"_contractAddress","type":"address","internalType":"address"},{"name":"_tokenIds","type":"uint256[]","internalType":"uint256[]"}],"outputs":[],"stateMutability":"nonpayable"},{"type":"function","name":"checkout","inputs":[{"name":"_items","type":"tuple[]","internalType":"struct IRareERC1155MarketplaceTypes.CheckoutItem[]","components":[{"name":"itemKind","type":"uint8","internalType":"uint8"},{"name":"contractAddress","type":"address","internalType":"address"},{"name":"seller","type":"address","internalType":"address"},{"name":"currencyAddress","type":"address","internalType":"address"},{"name":"tokenId","type":"uint256","internalType":"uint256"},{"name":"price","type":"uint256","internalType":"uint256"},{"name":"quantity","type":"uint256","internalType":"uint256"},{"name":"proof","type":"bytes32[]","internalType":"bytes32[]"}]}],"outputs":[{"name":"","type":"tuple","internalType":"struct IRareERC1155MarketplaceTypes.CheckoutExecution","components":[{"name":"summary","type":"tuple","internalType":"struct IRareERC1155MarketplaceTypes.CheckoutSummary","components":[{"name":"filledCount","type":"uint256","internalType":"uint256"},{"name":"skippedCount","type":"uint256","internalType":"uint256"},{"name":"ethSpent","type":"uint256","internalType":"uint256"},{"name":"ethRefunded","type":"uint256","internalType":"uint256"}]},{"name":"items","type":"tuple[]","internalType":"struct IRareERC1155MarketplaceTypes.CheckoutItemResult[]","components":[{"name":"itemIndex","type":"uint256","internalType":"uint256"},{"name":"itemKind","type":"uint8","internalType":"uint8"},{"name":"contractAddress","type":"address","internalType":"address"},{"name":"tokenId","type":"uint256","internalType":"uint256"},{"name":"seller","type":"address","internalType":"address"},{"name":"currencyAddress","type":"address","internalType":"address"},{"name":"price","type":"uint256","internalType":"uint256"},{"name":"quantity","type":"uint256","internalType":"uint256"},{"name":"filled","type":"bool","internalType":"bool"},{"name":"failureStage","type":"uint8","internalType":"enum IRareERC1155MarketplaceTypes.CheckoutFailureStage"},{"name":"reason","type":"bytes4","internalType":"bytes4"},{"name":"failureData","type":"bytes","internalType":"bytes"},{"name":"totalPaid","type":"uint256","internalType":"uint256"}]}]}],"stateMutability":"payable"},{"type":"function","name":"getCheckoutExecutionModule","inputs":[],"outputs":[{"name":"","type":"address","internalType":"address"}],"stateMutability":"view"},{"type":"function","name":"getDirectSaleConfig","inputs":[{"name":"_contractAddress","type":"address","internalType":"address"},{"name":"_tokenId","type":"uint256","internalType":"uint256"}],"outputs":[{"name":"","type":"tuple","internalType":"struct IRareERC1155MarketplaceTypes.DirectSaleConfig","components":[{"name":"seller","type":"address","internalType":"address"},{"name":"currencyAddress","type":"address","internalType":"address"},{"name":"price","type":"uint256","internalType":"uint256"},{"name":"startTime","type":"uint256","internalType":"uint256"},{"name":"maxMints","type":"uint256","internalType":"uint256"},{"name":"splitRecipients","type":"address[]","internalType":"address payable[]"},{"name":"splitRatios","type":"uint8[]","internalType":"uint8[]"}]}],"stateMutability":"view"},{"type":"function","name":"getERC1155ApprovalManager","inputs":[],"outputs":[{"name":"","type":"address","internalType":"address"}],"stateMutability":"view"},{"type":"function","name":"getMarketConfig","inputs":[],"outputs":[{"name":"","type":"tuple","internalType":"struct MarketConfigV2.Config","components":[{"name":"networkBeneficiary","type":"address","internalType":"address"},{"name":"marketplaceSettings","type":"address","internalType":"contract IMarketplaceSettings"},{"name":"spaceOperatorRegistry","type":"address","internalType":"contract ISpaceOperatorRegistry"},{"name":"royaltyEngine","type":"address","internalType":"contract IRoyaltyEngineV1"},{"name":"payments","type":"address","internalType":"contract IPayments"},{"name":"approvedTokenRegistry","type":"address","internalType":"contract IApprovedTokenRegistry"},{"name":"stakingSettings","type":"address","internalType":"contract IStakingSettings"},{"name":"stakingRegistry","type":"address","internalType":"contract IRareStakingRegistry"},{"name":"erc20ApprovalManager","type":"address","internalType":"contract IERC20ApprovalManager"},{"name":"erc721ApprovalManager","type":"address","internalType":"contract IERC721ApprovalManager"}]}],"stateMutability":"view"},{"type":"function","name":"getOffer","inputs":[{"name":"_contractAddress","type":"address","internalType":"address"},{"name":"_tokenId","type":"uint256","internalType":"uint256"},{"name":"_buyer","type":"address","internalType":"address"},{"name":"_currencyAddress","type":"address","internalType":"address"}],"outputs":[{"name":"","type":"tuple","internalType":"struct IRareERC1155MarketplaceTypes.Offer","components":[{"name":"currencyAddress","type":"address","internalType":"address"},{"name":"price","type":"uint256","internalType":"uint256"},{"name":"quantity","type":"uint256","internalType":"uint256"},{"name":"initialQuantity","type":"uint256","internalType":"uint256"},{"name":"marketplaceFeeRemaining","type":"uint256","internalType":"uint256"},{"name":"marketplaceFeeTotal","type":"uint256","internalType":"uint256"},{"name":"stakingFeeRemaining","type":"uint256","internalType":"uint256"},{"name":"stakingFeeTotal","type":"uint256","internalType":"uint256"},{"name":"expirationTime","type":"uint256","internalType":"uint256"}]}],"stateMutability":"view"},{"type":"function","name":"getSalePrice","inputs":[{"name":"_contractAddress","type":"address","internalType":"address"},{"name":"_tokenId","type":"uint256","internalType":"uint256"},{"name":"_seller","type":"address","internalType":"address"}],"outputs":[{"name":"","type":"tuple","internalType":"struct IRareERC1155MarketplaceTypes.SalePrice","components":[{"name":"currencyAddress","type":"address","internalType":"address"},{"name":"price","type":"uint256","internalType":"uint256"},{"name":"quantity","type":"uint256","internalType":"uint256"},{"name":"expirationTime","type":"uint256","internalType":"uint256"},{"name":"splitRecipients","type":"address[]","internalType":"address payable[]"},{"name":"splitRatios","type":"uint8[]","internalType":"uint8[]"}]}],"stateMutability":"view"},{"type":"function","name":"getTokenAllowListConfig","inputs":[{"name":"_contractAddress","type":"address","internalType":"address"},{"name":"_tokenId","type":"uint256","internalType":"uint256"}],"outputs":[{"name":"","type":"tuple","internalType":"struct IRareERC1155MarketplaceTypes.AllowListConfig","components":[{"name":"root","type":"bytes32","internalType":"bytes32"},{"name":"endTimestamp","type":"uint256","internalType":"uint256"}]}],"stateMutability":"view"},{"type":"function","name":"getTokenMintLimit","inputs":[{"name":"_contractAddress","type":"address","internalType":"address"},{"name":"_tokenId","type":"uint256","internalType":"uint256"}],"outputs":[{"name":"","type":"uint256","internalType":"uint256"}],"stateMutability":"view"},{"type":"function","name":"getTokenMintsPerAddress","inputs":[{"name":"_contractAddress","type":"address","internalType":"address"},{"name":"_tokenId","type":"uint256","internalType":"uint256"},{"name":"_account","type":"address","internalType":"address"}],"outputs":[{"name":"","type":"uint256","internalType":"uint256"}],"stateMutability":"view"},{"type":"function","name":"getTokenTxLimit","inputs":[{"name":"_contractAddress","type":"address","internalType":"address"},{"name":"_tokenId","type":"uint256","internalType":"uint256"}],"outputs":[{"name":"","type":"uint256","internalType":"uint256"}],"stateMutability":"view"},{"type":"function","name":"getTokenTxsPerAddress","inputs":[{"name":"_contractAddress","type":"address","internalType":"address"},{"name":"_tokenId","type":"uint256","internalType":"uint256"},{"name":"_account","type":"address","internalType":"address"}],"outputs":[{"name":"","type":"uint256","internalType":"uint256"}],"stateMutability":"view"},{"type":"function","name":"getTradeExecutionModule","inputs":[],"outputs":[{"name":"","type":"address","internalType":"address"}],"stateMutability":"view"},{"type":"function","name":"initialize","inputs":[{"name":"_networkBeneficiary","type":"address","internalType":"address"},{"name":"_marketplaceSettings","type":"address","internalType":"address"},{"name":"_spaceOperatorRegistry","type":"address","internalType":"address"},{"name":"_royaltyEngine","type":"address","internalType":"address"},{"name":"_payments","type":"address","internalType":"address"},{"name":"_approvedTokenRegistry","type":"address","internalType":"address"},{"name":"_stakingSettings","type":"address","internalType":"address"},{"name":"_stakingRegistry","type":"address","internalType":"address"},{"name":"_erc20ApprovalManager","type":"address","internalType":"address"},{"name":"_erc721ApprovalManager","type":"address","internalType":"address"},{"name":"_erc1155ApprovalManager","type":"address","internalType":"address"},{"name":"_tradeExecutionModule","type":"address","internalType":"address"},{"name":"_checkoutExecutionModule","type":"address","internalType":"address"}],"outputs":[],"stateMutability":"nonpayable"},{"type":"function","name":"isPaused","inputs":[],"outputs":[{"name":"","type":"bool","internalType":"bool"}],"stateMutability":"view"},{"type":"function","name":"makeOffer","inputs":[{"name":"_contractAddress","type":"address","internalType":"address"},{"name":"_tokenId","type":"uint256","internalType":"uint256"},{"name":"_currencyAddress","type":"address","internalType":"address"},{"name":"_price","type":"uint256","internalType":"uint256"},{"name":"_quantity","type":"uint256","internalType":"uint256"},{"name":"_expirationTime","type":"uint256","internalType":"uint256"}],"outputs":[],"stateMutability":"payable"},{"type":"function","name":"mintDirectSaleBatch","inputs":[{"name":"_contractAddress","type":"address","internalType":"address"},{"name":"_currencyAddress","type":"address","internalType":"address"},{"name":"_requests","type":"tuple[]","internalType":"struct IRareERC1155MarketplaceTypes.MintRequest[]","components":[{"name":"tokenId","type":"uint256","internalType":"uint256"},{"name":"price","type":"uint256","internalType":"uint256"},{"name":"quantity","type":"uint256","internalType":"uint256"},{"name":"proof","type":"bytes32[]","internalType":"bytes32[]"}]}],"outputs":[],"stateMutability":"payable"},{"type":"function","name":"owner","inputs":[],"outputs":[{"name":"","type":"address","internalType":"address"}],"stateMutability":"view"},{"type":"function","name":"prepareMintDirectSales","inputs":[{"name":"_contractAddress","type":"address","internalType":"address"},{"name":"_currencyAddress","type":"address","internalType":"address"},{"name":"_requests","type":"tuple[]","internalType":"struct IRareERC1155MarketplaceTypes.DirectSaleRequest[]","components":[{"name":"tokenId","type":"uint256","internalType":"uint256"},{"name":"price","type":"uint256","internalType":"uint256"},{"name":"startTime","type":"uint256","internalType":"uint256"},{"name":"maxMints","type":"uint256","internalType":"uint256"}]},{"name":"_splitRecipients","type":"address[]","internalType":"address payable[]"},{"name":"_splitRatios","type":"uint8[]","internalType":"uint8[]"}],"outputs":[],"stateMutability":"nonpayable"},{"type":"function","name":"proxiableUUID","inputs":[],"outputs":[{"name":"","type":"bytes32","internalType":"bytes32"}],"stateMutability":"view"},{"type":"function","name":"renounceOwnership","inputs":[],"outputs":[],"stateMutability":"nonpayable"},{"type":"function","name":"setApprovedTokenRegistry","inputs":[{"name":"_approvedTokenRegistry","type":"address","internalType":"address"}],"outputs":[],"stateMutability":"nonpayable"},{"type":"function","name":"setCheckoutExecutionModule","inputs":[{"name":"_checkoutExecutionModule","type":"address","internalType":"address"}],"outputs":[],"stateMutability":"nonpayable"},{"type":"function","name":"setContractPaused","inputs":[{"name":"_isPaused","type":"bool","internalType":"bool"}],"outputs":[],"stateMutability":"nonpayable"},{"type":"function","name":"setERC1155ApprovalManager","inputs":[{"name":"_erc1155ApprovalManager","type":"address","internalType":"address"}],"outputs":[],"stateMutability":"nonpayable"},{"type":"function","name":"setERC20ApprovalManager","inputs":[{"name":"_erc20ApprovalManager","type":"address","internalType":"address"}],"outputs":[],"stateMutability":"nonpayable"},{"type":"function","name":"setERC721ApprovalManager","inputs":[{"name":"_erc721ApprovalManager","type":"address","internalType":"address"}],"outputs":[],"stateMutability":"nonpayable"},{"type":"function","name":"setMarketplaceSettings","inputs":[{"name":"_marketplaceSettings","type":"address","internalType":"address"}],"outputs":[],"stateMutability":"nonpayable"},{"type":"function","name":"setNetworkBeneficiary","inputs":[{"name":"_networkBeneficiary","type":"address","internalType":"address"}],"outputs":[],"stateMutability":"nonpayable"},{"type":"function","name":"setPayments","inputs":[{"name":"_payments","type":"address","internalType":"address"}],"outputs":[],"stateMutability":"nonpayable"},{"type":"function","name":"setRoyaltyEngine","inputs":[{"name":"_royaltyEngine","type":"address","internalType":"address"}],"outputs":[],"stateMutability":"nonpayable"},{"type":"function","name":"setSalePrices","inputs":[{"name":"_contractAddress","type":"address","internalType":"address"},{"name":"_currencyAddress","type":"address","internalType":"address"},{"name":"_requests","type":"tuple[]","internalType":"struct IRareERC1155MarketplaceTypes.SalePriceRequest[]","components":[{"name":"tokenId","type":"uint256","internalType":"uint256"},{"name":"price","type":"uint256","internalType":"uint256"},{"name":"quantity","type":"uint256","internalType":"uint256"},{"name":"expirationTime","type":"uint256","internalType":"uint256"}]},{"name":"_splitRecipients","type":"address[]","internalType":"address payable[]"},{"name":"_splitRatios","type":"uint8[]","internalType":"uint8[]"}],"outputs":[],"stateMutability":"nonpayable"},{"type":"function","name":"setSpaceOperatorRegistry","inputs":[{"name":"_spaceOperatorRegistry","type":"address","internalType":"address"}],"outputs":[],"stateMutability":"nonpayable"},{"type":"function","name":"setStakingRegistry","inputs":[{"name":"_stakingRegistry","type":"address","internalType":"address"}],"outputs":[],"stateMutability":"nonpayable"},{"type":"function","name":"setStakingSettings","inputs":[{"name":"_stakingSettings","type":"address","internalType":"address"}],"outputs":[],"stateMutability":"nonpayable"},{"type":"function","name":"setTokenAllowListConfigs","inputs":[{"name":"_contractAddress","type":"address","internalType":"address"},{"name":"_requests","type":"tuple[]","internalType":"struct IRareERC1155MarketplaceTypes.AllowListConfigRequest[]","components":[{"name":"tokenId","type":"uint256","internalType":"uint256"},{"name":"root","type":"bytes32","internalType":"bytes32"},{"name":"endTimestamp","type":"uint256","internalType":"uint256"}]}],"outputs":[],"stateMutability":"nonpayable"},{"type":"function","name":"setTokenMintLimits","inputs":[{"name":"_contractAddress","type":"address","internalType":"address"},{"name":"_requests","type":"tuple[]","internalType":"struct IRareERC1155MarketplaceTypes.TokenLimitRequest[]","components":[{"name":"tokenId","type":"uint256","internalType":"uint256"},{"name":"limit","type":"uint256","internalType":"uint256"}]}],"outputs":[],"stateMutability":"nonpayable"},{"type":"function","name":"setTokenTxLimits","inputs":[{"name":"_contractAddress","type":"address","internalType":"address"},{"name":"_requests","type":"tuple[]","internalType":"struct IRareERC1155MarketplaceTypes.TokenLimitRequest[]","components":[{"name":"tokenId","type":"uint256","internalType":"uint256"},{"name":"limit","type":"uint256","internalType":"uint256"}]}],"outputs":[],"stateMutability":"nonpayable"},{"type":"function","name":"setTradeExecutionModule","inputs":[{"name":"_tradeExecutionModule","type":"address","internalType":"address"}],"outputs":[],"stateMutability":"nonpayable"},{"type":"function","name":"transferOwnership","inputs":[{"name":"newOwner","type":"address","internalType":"address"}],"outputs":[],"stateMutability":"nonpayable"},{"type":"function","name":"upgradeTo","inputs":[{"name":"newImplementation","type":"address","internalType":"address"}],"outputs":[],"stateMutability":"nonpayable"},{"type":"function","name":"upgradeToAndCall","inputs":[{"name":"newImplementation","type":"address","internalType":"address"},{"name":"data","type":"bytes","internalType":"bytes"}],"outputs":[],"stateMutability":"payable"},{"type":"event","name":"AdminChanged","inputs":[{"name":"previousAdmin","type":"address","indexed":false,"internalType":"address"},{"name":"newAdmin","type":"address","indexed":false,"internalType":"address"}],"anonymous":false},{"type":"event","name":"BeaconUpgraded","inputs":[{"name":"beacon","type":"address","indexed":true,"internalType":"address"}],"anonymous":false},{"type":"event","name":"CheckoutCompleted","inputs":[{"name":"buyer","type":"address","indexed":true,"internalType":"address"},{"name":"filledCount","type":"uint256","indexed":false,"internalType":"uint256"},{"name":"skippedCount","type":"uint256","indexed":false,"internalType":"uint256"},{"name":"ethSpent","type":"uint256","indexed":false,"internalType":"uint256"},{"name":"ethRefunded","type":"uint256","indexed":false,"internalType":"uint256"}],"anonymous":false},{"type":"event","name":"CheckoutItemProcessed","inputs":[{"name":"itemIndex","type":"uint256","indexed":true,"internalType":"uint256"},{"name":"itemKind","type":"uint8","indexed":true,"internalType":"uint8"},{"name":"contractAddress","type":"address","indexed":true,"internalType":"address"},{"name":"tokenId","type":"uint256","indexed":false,"internalType":"uint256"},{"name":"seller","type":"address","indexed":false,"internalType":"address"},{"name":"currencyAddress","type":"address","indexed":false,"internalType":"address"},{"name":"price","type":"uint256","indexed":false,"internalType":"uint256"},{"name":"quantity","type":"uint256","indexed":false,"internalType":"uint256"},{"name":"filled","type":"bool","indexed":false,"internalType":"bool"},{"name":"failureStage","type":"uint8","indexed":false,"internalType":"enum IRareERC1155MarketplaceTypes.CheckoutFailureStage"},{"name":"reason","type":"bytes4","indexed":false,"internalType":"bytes4"},{"name":"failureData","type":"bytes","indexed":false,"internalType":"bytes"},{"name":"totalPaid","type":"uint256","indexed":false,"internalType":"uint256"}],"anonymous":false},{"type":"event","name":"ContractPausedUpdated","inputs":[{"name":"isPaused","type":"bool","indexed":false,"internalType":"bool"}],"anonymous":false},{"type":"event","name":"Initialized","inputs":[{"name":"version","type":"uint8","indexed":false,"internalType":"uint8"}],"anonymous":false},{"type":"event","name":"MarketplaceDependencyUpdated","inputs":[{"name":"field","type":"bytes32","indexed":true,"internalType":"bytes32"},{"name":"dependency","type":"address","indexed":true,"internalType":"address"}],"anonymous":false},{"type":"event","name":"MintDirectSale","inputs":[{"name":"contractAddress","type":"address","indexed":true,"internalType":"address"},{"name":"tokenId","type":"uint256","indexed":true,"internalType":"uint256"},{"name":"buyer","type":"address","indexed":true,"internalType":"address"},{"name":"seller","type":"address","indexed":false,"internalType":"address"},{"name":"quantity","type":"uint256","indexed":false,"internalType":"uint256"},{"name":"currency","type":"address","indexed":false,"internalType":"address"},{"name":"price","type":"uint256","indexed":false,"internalType":"uint256"}],"anonymous":false},{"type":"event","name":"MintDirectSaleCancelled","inputs":[{"name":"contractAddress","type":"address","indexed":true,"internalType":"address"},{"name":"tokenId","type":"uint256","indexed":true,"internalType":"uint256"}],"anonymous":false},{"type":"event","name":"OfferAccepted","inputs":[{"name":"seller","type":"address","indexed":true,"internalType":"address"},{"name":"buyer","type":"address","indexed":true,"internalType":"address"},{"name":"contractAddress","type":"address","indexed":true,"internalType":"address"},{"name":"tokenId","type":"uint256","indexed":false,"internalType":"uint256"},{"name":"currency","type":"address","indexed":false,"internalType":"address"},{"name":"price","type":"uint256","indexed":false,"internalType":"uint256"},{"name":"quantity","type":"uint256","indexed":false,"internalType":"uint256"}],"anonymous":false},{"type":"event","name":"OfferCancelled","inputs":[{"name":"buyer","type":"address","indexed":true,"internalType":"address"},{"name":"contractAddress","type":"address","indexed":true,"internalType":"address"},{"name":"tokenId","type":"uint256","indexed":true,"internalType":"uint256"},{"name":"currency","type":"address","indexed":false,"internalType":"address"},{"name":"price","type":"uint256","indexed":false,"internalType":"uint256"},{"name":"quantity","type":"uint256","indexed":false,"internalType":"uint256"},{"name":"marketplaceFeeRemaining","type":"uint256","indexed":false,"internalType":"uint256"}],"anonymous":false},{"type":"event","name":"OfferMade","inputs":[{"name":"buyer","type":"address","indexed":true,"internalType":"address"},{"name":"contractAddress","type":"address","indexed":true,"internalType":"address"},{"name":"tokenId","type":"uint256","indexed":true,"internalType":"uint256"},{"name":"currency","type":"address","indexed":false,"internalType":"address"},{"name":"price","type":"uint256","indexed":false,"internalType":"uint256"},{"name":"quantity","type":"uint256","indexed":false,"internalType":"uint256"},{"name":"marketplaceFee","type":"uint256","indexed":false,"internalType":"uint256"},{"name":"expirationTime","type":"uint256","indexed":false,"internalType":"uint256"}],"anonymous":false},{"type":"event","name":"OwnershipTransferred","inputs":[{"name":"previousOwner","type":"address","indexed":true,"internalType":"address"},{"name":"newOwner","type":"address","indexed":true,"internalType":"address"}],"anonymous":false},{"type":"event","name":"PrepareMintDirectSale","inputs":[{"name":"contractAddress","type":"address","indexed":true,"internalType":"address"},{"name":"tokenId","type":"uint256","indexed":true,"internalType":"uint256"},{"name":"seller","type":"address","indexed":true,"internalType":"address"},{"name":"currency","type":"address","indexed":false,"internalType":"address"},{"name":"price","type":"uint256","indexed":false,"internalType":"uint256"},{"name":"startTime","type":"uint256","indexed":false,"internalType":"uint256"},{"name":"maxMints","type":"uint256","indexed":false,"internalType":"uint256"},{"name":"splitRecipients","type":"address[]","indexed":false,"internalType":"address payable[]"},{"name":"splitRatios","type":"uint8[]","indexed":false,"internalType":"uint8[]"}],"anonymous":false},{"type":"event","name":"SalePriceCancelled","inputs":[{"name":"seller","type":"address","indexed":true,"internalType":"address"},{"name":"contractAddress","type":"address","indexed":true,"internalType":"address"},{"name":"tokenId","type":"uint256","indexed":true,"internalType":"uint256"}],"anonymous":false},{"type":"event","name":"SalePriceSet","inputs":[{"name":"seller","type":"address","indexed":true,"internalType":"address"},{"name":"contractAddress","type":"address","indexed":true,"internalType":"address"},{"name":"tokenId","type":"uint256","indexed":true,"internalType":"uint256"},{"name":"currency","type":"address","indexed":false,"internalType":"address"},{"name":"price","type":"uint256","indexed":false,"internalType":"uint256"},{"name":"quantity","type":"uint256","indexed":false,"internalType":"uint256"},{"name":"expirationTime","type":"uint256","indexed":false,"internalType":"uint256"},{"name":"splitRecipients","type":"address[]","indexed":false,"internalType":"address payable[]"},{"name":"splitRatios","type":"uint8[]","indexed":false,"internalType":"uint8[]"}],"anonymous":false},{"type":"event","name":"SetTokenAllowListConfig","inputs":[{"name":"contractAddress","type":"address","indexed":true,"internalType":"address"},{"name":"tokenId","type":"uint256","indexed":true,"internalType":"uint256"},{"name":"root","type":"bytes32","indexed":false,"internalType":"bytes32"},{"name":"endTimestamp","type":"uint256","indexed":false,"internalType":"uint256"}],"anonymous":false},{"type":"event","name":"Sold","inputs":[{"name":"seller","type":"address","indexed":true,"internalType":"address"},{"name":"buyer","type":"address","indexed":true,"internalType":"address"},{"name":"contractAddress","type":"address","indexed":true,"internalType":"address"},{"name":"tokenId","type":"uint256","indexed":false,"internalType":"uint256"},{"name":"currency","type":"address","indexed":false,"internalType":"address"},{"name":"price","type":"uint256","indexed":false,"internalType":"uint256"},{"name":"quantity","type":"uint256","indexed":false,"internalType":"uint256"}],"anonymous":false},{"type":"event","name":"TokenMintLimitSet","inputs":[{"name":"contractAddress","type":"address","indexed":true,"internalType":"address"},{"name":"tokenId","type":"uint256","indexed":true,"internalType":"uint256"},{"name":"limit","type":"uint256","indexed":false,"internalType":"uint256"}],"anonymous":false},{"type":"event","name":"TokenTxLimitSet","inputs":[{"name":"contractAddress","type":"address","indexed":true,"internalType":"address"},{"name":"tokenId","type":"uint256","indexed":true,"internalType":"uint256"},{"name":"limit","type":"uint256","indexed":false,"internalType":"uint256"}],"anonymous":false},{"type":"event","name":"Upgraded","inputs":[{"name":"implementation","type":"address","indexed":true,"internalType":"address"}],"anonymous":false},{"type":"error","name":"AddressNotAllowlisted","inputs":[{"name":"_account","type":"address","internalType":"address"}]},{"type":"error","name":"AllowListEndTimestampInvalid","inputs":[{"name":"_endTimestamp","type":"uint256","internalType":"uint256"},{"name":"_currentTime","type":"uint256","internalType":"uint256"}]},{"type":"error","name":"ApprovalManagerCannotBeZero","inputs":[]},{"type":"error","name":"BatchSizeExceeded","inputs":[{"name":"supplied","type":"uint256","internalType":"uint256"},{"name":"max","type":"uint256","internalType":"uint256"}]},{"type":"error","name":"CheckoutItemExecutionFailed","inputs":[{"name":"_stage","type":"uint8","internalType":"enum IRareERC1155MarketplaceTypes.CheckoutFailureStage"},{"name":"_failureData","type":"bytes","internalType":"bytes"}]},{"type":"error","name":"ContractHasNoOwner","inputs":[{"name":"_contractAddress","type":"address","internalType":"address"}]},{"type":"error","name":"ContractPaused","inputs":[]},{"type":"error","name":"CurrencyMismatch","inputs":[{"name":"_suppliedCurrency","type":"address","internalType":"address"},{"name":"_configuredCurrency","type":"address","internalType":"address"}]},{"type":"error","name":"CurrencyNotApproved","inputs":[{"name":"_currencyAddress","type":"address","internalType":"address"}]},{"type":"error","name":"DirectModuleCallUnsupported","inputs":[]},{"type":"error","name":"DirectSaleNotConfigured","inputs":[{"name":"_contractAddress","type":"address","internalType":"address"},{"name":"_tokenId","type":"uint256","internalType":"uint256"}]},{"type":"error","name":"ERC20FeeOnTransferUnsupported","inputs":[{"name":"_currencyAddress","type":"address","internalType":"address"},{"name":"_expectedAmount","type":"uint256","internalType":"uint256"},{"name":"_receivedAmount","type":"uint256","internalType":"uint256"}]},{"type":"error","name":"EmptyBatch","inputs":[]},{"type":"error","name":"ExecutionModuleDelegateCallFailed","inputs":[{"name":"_revertData","type":"bytes","internalType":"bytes"}]},{"type":"error","name":"IncorrectETHAmount","inputs":[{"name":"_requiredAmount","type":"uint256","internalType":"uint256"},{"name":"_suppliedAmount","type":"uint256","internalType":"uint256"}]},{"type":"error","name":"InsufficientCheckoutERC20Allowance","inputs":[{"name":"_currencyAddress","type":"address","internalType":"address"},{"name":"_requiredAmount","type":"uint256","internalType":"uint256"},{"name":"_availableAmount","type":"uint256","internalType":"uint256"}]},{"type":"error","name":"InsufficientCheckoutERC20Balance","inputs":[{"name":"_currencyAddress","type":"address","internalType":"address"},{"name":"_requiredAmount","type":"uint256","internalType":"uint256"},{"name":"_availableAmount","type":"uint256","internalType":"uint256"}]},{"type":"error","name":"InsufficientCheckoutETH","inputs":[{"name":"_requiredAmount","type":"uint256","internalType":"uint256"},{"name":"_availableAmount","type":"uint256","internalType":"uint256"}]},{"type":"error","name":"InsufficientTokenBalance","inputs":[{"name":"_account","type":"address","internalType":"address"},{"name":"_contractAddress","type":"address","internalType":"address"},{"name":"_tokenId","type":"uint256","internalType":"uint256"},{"name":"_requestedQuantity","type":"uint256","internalType":"uint256"},{"name":"_availableQuantity","type":"uint256","internalType":"uint256"}]},{"type":"error","name":"InvalidERC1155Contract","inputs":[{"name":"_contractAddress","type":"address","internalType":"address"}]},{"type":"error","name":"InvalidERC1155Mint","inputs":[{"name":"_contractAddress","type":"address","internalType":"address"},{"name":"_tokenId","type":"uint256","internalType":"uint256"},{"name":"_buyer","type":"address","internalType":"address"},{"name":"_quantity","type":"uint256","internalType":"uint256"}]},{"type":"error","name":"InvalidERC1155Transfer","inputs":[{"name":"_contractAddress","type":"address","internalType":"address"},{"name":"_tokenId","type":"uint256","internalType":"uint256"},{"name":"_seller","type":"address","internalType":"address"},{"name":"_buyer","type":"address","internalType":"address"},{"name":"_quantity","type":"uint256","internalType":"uint256"}]},{"type":"error","name":"InvalidExecutionModule","inputs":[]},{"type":"error","name":"MarketConfigAddressCannotBeZero","inputs":[{"name":"_field","type":"bytes32","internalType":"bytes32"}]},{"type":"error","name":"MarketplaceNotApproved","inputs":[{"name":"_account","type":"address","internalType":"address"},{"name":"_contractAddress","type":"address","internalType":"address"}]},{"type":"error","name":"MaxMintExceeded","inputs":[{"name":"_requestedQuantity","type":"uint256","internalType":"uint256"},{"name":"_maxMints","type":"uint256","internalType":"uint256"}]},{"type":"error","name":"MintLimitExceeded","inputs":[{"name":"_contractAddress","type":"address","internalType":"address"},{"name":"_tokenId","type":"uint256","internalType":"uint256"},{"name":"_account","type":"address","internalType":"address"},{"name":"_requestedQuantity","type":"uint256","internalType":"uint256"},{"name":"_mintedQuantity","type":"uint256","internalType":"uint256"},{"name":"_limit","type":"uint256","internalType":"uint256"}]},{"type":"error","name":"MsgValueMustBeZero","inputs":[]},{"type":"error","name":"MsgValueUnsupportedForERC20","inputs":[]},{"type":"error","name":"NotContractOwner","inputs":[{"name":"_contractAddress","type":"address","internalType":"address"},{"name":"_account","type":"address","internalType":"address"}]},{"type":"error","name":"OfferDoesNotExist","inputs":[{"name":"_contractAddress","type":"address","internalType":"address"},{"name":"_tokenId","type":"uint256","internalType":"uint256"},{"name":"_buyer","type":"address","internalType":"address"},{"name":"_currencyAddress","type":"address","internalType":"address"}]},{"type":"error","name":"OfferExpirationInvalid","inputs":[{"name":"_expirationTime","type":"uint256","internalType":"uint256"},{"name":"_currentTime","type":"uint256","internalType":"uint256"}]},{"type":"error","name":"OfferExpired","inputs":[{"name":"_contractAddress","type":"address","internalType":"address"},{"name":"_tokenId","type":"uint256","internalType":"uint256"},{"name":"_buyer","type":"address","internalType":"address"},{"name":"_currencyAddress","type":"address","internalType":"address"},{"name":"_expirationTime","type":"uint256","internalType":"uint256"}]},{"type":"error","name":"OfferPriceCannotBeZero","inputs":[]},{"type":"error","name":"PayoutFailed","inputs":[{"name":"_revertData","type":"bytes","internalType":"bytes"}]},{"type":"error","name":"PayoutLengthMismatch","inputs":[{"name":"_recipientsLength","type":"uint256","internalType":"uint256"},{"name":"_amountsLength","type":"uint256","internalType":"uint256"}]},{"type":"error","name":"PayoutTotalMismatch","inputs":[{"name":"_expectedAmount","type":"uint256","internalType":"uint256"},{"name":"_actualAmount","type":"uint256","internalType":"uint256"}]},{"type":"error","name":"PlatformCommissionExceeded","inputs":[{"name":"_platformCommission","type":"uint256","internalType":"uint256"},{"name":"_maxPlatformCommission","type":"uint256","internalType":"uint256"}]},{"type":"error","name":"PriceMismatch","inputs":[{"name":"_suppliedPrice","type":"uint256","internalType":"uint256"},{"name":"_configuredPrice","type":"uint256","internalType":"uint256"}]},{"type":"error","name":"QuantityCannotBeZero","inputs":[]},{"type":"error","name":"QuantityExceedsOfferQuantity","inputs":[{"name":"_requestedQuantity","type":"uint256","internalType":"uint256"},{"name":"_availableQuantity","type":"uint256","internalType":"uint256"}]},{"type":"error","name":"QuantityExceedsSalePriceQuantity","inputs":[{"name":"_requestedQuantity","type":"uint256","internalType":"uint256"},{"name":"_availableQuantity","type":"uint256","internalType":"uint256"}]},{"type":"error","name":"RefundFailed","inputs":[{"name":"_revertData","type":"bytes","internalType":"bytes"}]},{"type":"error","name":"RoyaltiesExceedSaleAmount","inputs":[{"name":"_royalties","type":"uint256","internalType":"uint256"},{"name":"_saleAmount","type":"uint256","internalType":"uint256"}]},{"type":"error","name":"SaleNotStarted","inputs":[{"name":"_startTime","type":"uint256","internalType":"uint256"}]},{"type":"error","name":"SalePriceCannotBeZero","inputs":[]},{"type":"error","name":"SalePriceDoesNotExist","inputs":[{"name":"_contractAddress","type":"address","internalType":"address"},{"name":"_tokenId","type":"uint256","internalType":"uint256"},{"name":"_seller","type":"address","internalType":"address"}]},{"type":"error","name":"SalePriceExpirationInvalid","inputs":[{"name":"_expirationTime","type":"uint256","internalType":"uint256"},{"name":"_currentTime","type":"uint256","internalType":"uint256"}]},{"type":"error","name":"SalePriceExpired","inputs":[{"name":"_contractAddress","type":"address","internalType":"address"},{"name":"_tokenId","type":"uint256","internalType":"uint256"},{"name":"_seller","type":"address","internalType":"address"},{"name":"_expirationTime","type":"uint256","internalType":"uint256"}]},{"type":"error","name":"SelfOfferAcceptanceUnsupported","inputs":[{"name":"_buyer","type":"address","internalType":"address"}]},{"type":"error","name":"SelfPurchaseUnsupported","inputs":[{"name":"_seller","type":"address","internalType":"address"}]},{"type":"error","name":"SplitLengthMismatch","inputs":[{"name":"_recipientsLength","type":"uint256","internalType":"uint256"},{"name":"_ratiosLength","type":"uint256","internalType":"uint256"}]},{"type":"error","name":"SplitRatioCannotBeZero","inputs":[{"name":"_index","type":"uint256","internalType":"uint256"}]},{"type":"error","name":"SplitRecipientCannotBeZero","inputs":[{"name":"_index","type":"uint256","internalType":"uint256"}]},{"type":"error","name":"SplitRecipientsExceededMax","inputs":[{"name":"_recipientsLength","type":"uint256","internalType":"uint256"},{"name":"_maxRecipients","type":"uint256","internalType":"uint256"}]},{"type":"error","name":"SplitRecipientsRequired","inputs":[]},{"type":"error","name":"SplitTotalInvalid","inputs":[{"name":"_totalRatio","type":"uint256","internalType":"uint256"},{"name":"_requiredTotal","type":"uint256","internalType":"uint256"}]},{"type":"error","name":"StakingFeeExceedsMarketplaceFee","inputs":[{"name":"_marketplaceFee","type":"uint256","internalType":"uint256"},{"name":"_stakingFee","type":"uint256","internalType":"uint256"}]},{"type":"error","name":"TokenIdsNotStrictlyAscending","inputs":[{"name":"index","type":"uint256","internalType":"uint256"},{"name":"previousTokenId","type":"uint256","internalType":"uint256"},{"name":"tokenId","type":"uint256","internalType":"uint256"}]},{"type":"error","name":"TokenNotFound","inputs":[{"name":"_contractAddress","type":"address","internalType":"address"},{"name":"_tokenId","type":"uint256","internalType":"uint256"}]},{"type":"error","name":"TransactionLimitExceeded","inputs":[{"name":"_contractAddress","type":"address","internalType":"address"},{"name":"_tokenId","type":"uint256","internalType":"uint256"},{"name":"_account","type":"address","internalType":"address"},{"name":"_usedTransactions","type":"uint256","internalType":"uint256"},{"name":"_limit","type":"uint256","internalType":"uint256"}]},{"type":"error","name":"UnsupportedCheckoutItemKind","inputs":[{"name":"_itemKind","type":"uint8","internalType":"uint8"}]}],"bytecode":{"object":"0x60a08060405234620000e157306080526000549060ff8260081c166200008f575060ff8082160362000053575b6040516160df9081620000e78239608051818181610eaf015281816115520152613af90152f35b60ff90811916176000557f7f26b83ff96e1f2b6a682f133852f6798a09c465da95921460cefb3847402498602060405160ff8152a1386200002c565b62461bcd60e51b815260206004820152602760248201527f496e697469616c697a61626c653a20636f6e747261637420697320696e697469604482015266616c697a696e6760c81b6064820152608490fd5b600080fdfe6080604052600436101561001257600080fd5b60003560e01c80630a6ce31314610327578063176ab4401461032257806321ede0321461031d57806328fbba03146103185780632c0c49ee146103135780632c7408441461030e5780632f79f335146103095780632fdd983d146103045780633492e5a8146102ff5780633659cfe6146102fa578063369679a4146102f5578063373a9412146102f05780634f1ef286146102eb57806352d1902d146102e6578063552f791d146102e15780635a501f8f146102dc5780635e50c42e146102d7578063614bd944146102d257806363cf9cef146102cd5780636442950e146102c85780636e2f4d8b146102c3578063715018a6146102be5780637777e6d7146102b95780637f358230146102b45780638760251a146102af578063882796f1146102aa5780638da5cb5b146102a55780639400d601146102a0578063a0f597dd1461029b578063a3eaf4d914610296578063af231a5814610291578063b187bd261461028c578063b38df71f14610287578063b8e6b50f14610282578063be5421411461027d578063bf3d90f814610278578063c7c83d1714610273578063c7ec1b981461026e578063cfdbf25414610269578063d7a9fb7c14610264578063d80b23e31461025f578063e3409ce31461025a578063e4e87e3b14610255578063e92f94d114610250578063ed5b25b51461024b578063f103574414610246578063f2fde38b14610241578063ff3a52d41461023c5763ff5c83a41461023757600080fd5b61362a565b613244565b6131b3565b6130e0565b6130aa565b613084565b612faa565b612e19565b612d3f565b612c66565b612c4a565b612b73565b612b3d565b612acd565b61286a565b61274a565b6122a8565b612278565b6121ad565b612191565b612122565b6120ec565b6120c3565b612054565b612025565b611f4b565b611e05565b611da7565b611cc6565b611b5e565b611a94565b61185e565b61169f565b61163d565b6115ff565b61153f565b6114b9565b61117f565b6110ae565b610e88565b610db2565b610d00565b610c13565b610b04565b610912565b6106a6565b6105a9565b6104c7565b6103a9565b6001600160a01b0381160361033d57565b600080fd5b61014435906103508261032c565b565b61016435906103508261032c565b61018435906103508261032c565b35906103508261032c565b9181601f8401121561033d578235916001600160401b03831161033d576020808501946060850201011161033d57565b608036600319011261033d576004356103c18161032c565b6024356103cd8161032c565b604435906103da8261032c565b6064356001600160401b03811161033d576103f9903690600401610379565b6104049291926149df565b61040c6158c2565b60008051602061602a8339815191525460408051630a6ce31360e01b6020808301919091526001600160a01b039889166024830152948816604482015295871660648701526080608487015260a4860183905295169460c485019392600091905b83831061049e57610491878961048c828a03601f19810184528361141c565b61586f565b5061049c6001606555565b005b84358652848101358682015284820135868301526060958601959094019360019092019161046d565b3461033d57602036600319011261033d576004356104e48161032c565b6104ec61369b565b6104f5816159cf565b73__$c98ca6a62396e5a7a1471db151198a1f31$__90813b1561033d5760405163ed56be5b60e01b8152600080516020615faa83398151915260048201526001600160a01b039091166024820181905291600090829060449082905af480156105a45761058b575b50734d41524b4554504c4143455f53455454494e475360601b60008051602061600a833981519152600080a3005b8061059861059e9261132a565b80611534565b3861055d565b613897565b3461033d57602036600319011261033d576004356105c68161032c565b6105ce61369b565b6105d781615a0e565b73__$c98ca6a62396e5a7a1471db151198a1f31$__90813b1561033d5760405163143df10960e11b8152600080516020615faa83398151915260048201526001600160a01b039091166024820181905291600090829060449082905af480156105a457610667575b506d524f59414c54595f454e47494e4560901b60008051602061600a833981519152600080a3005b806105986106749261132a565b3861063f565b606090600319011261033d576004356106928161032c565b90602435906044356106a38161032c565b90565b3461033d5760206107086106b93661067a565b6001600160a01b0392831660009081527f5e94cc2b8b9fd616c1ffff3497627b534929331e1f3b26d7dc3360464546d51086526040808220938252928652828120919093168352602052902090565b54604051908152f35b9181601f8401121561033d578235916001600160401b03831161033d576020808501948460051b01011161033d57565b90600682101561074e5752565b634e487b7160e01b600052602160045260246000fd5b60005b8381106107775750506000910152565b8181015183820152602001610767565b906020916107a081518092818552858086019101610764565b601f01601f1916010190565b9060209182815260c09283820191835193845183830152828501516040908184015283818701516060978891828701520151926080938486015201519660a0908180860152885180975260e0918286019487848a60051b8901019b01996000975b8a89106108235750505050505050505050505090565b909192939495969798999a9b8a806001928f60df19868303018d52519081518152610856838301518483019060ff169052565b818c01516001600160a01b0316818d01528187015181880152878201516001600160a01b031688820152818901516001600160a01b0316818a0152818a0151818b01528a8201518b820152610100808301511515908201526108c16101208084015190830190610741565b610140828101516001600160e01b031916908201526108f161016080840151906101a08091850152830190610787565b91610180809101519101529e0199019901979a99989695949392919061080d565b60208060031936011261033d576004356001600160401b03811161033d5761093e903690600401610711565b9091604091825161094e81611342565b83519461095a8661135d565b600095868152868582015286868201528460609382898680950152815201526109816149df565b6109896158c2565b60018060a01b03600080516020615f8a83398151915254169585519363160624f760e11b86860152806044860187602488015252606485019160648260051b8701019484825b848410610a1e575050610a1a89610a058a6109f88b8f61048c828e03601f19810184528361141c565b8051810182019101615099565b90610a106001606555565b51918291826107ac565b0390f35b90919293949596606319898203018752873560fe1984360301811215610b00578a610af16001938e610a95888596019160ff8335610a5b8161433a565b168452610a7b610a6c87850161036e565b6001600160a01b031685880152565b610a8681840161036e565b6001600160a01b031690840152565b610ab2610aa38a830161036e565b6001600160a01b0316838b0152565b6080808201359083015260a0808201359083015260c08082013590830152610adf60e09182810190614dab565b91909261010080928201520191614ddf565b990197019594019291906109cf565b8280fd5b3461033d57602036600319011261033d57600435610b218161032c565b610b2961369b565b610b3281615a47565b73__$c98ca6a62396e5a7a1471db151198a1f31$__90813b1561033d5760405163632c2a3160e11b8152600080516020615faa83398151915260048201526001600160a01b039091166024820181905291600090829060449082905af480156105a457610bc4575b506f5354414b494e475f524547495354525960801b60008051602061600a833981519152600080a3005b80610598610bd19261132a565b38610b9a565b90604060031983011261033d57600435610bf08161032c565b91602435906001600160401b03821161033d57610c0f91600401610711565b9091565b3461033d57610c2136610bd7565b9091610c2b6149df565b610c358284615e75565b60005b828110610c495761049c6001606555565b80610c58610cf5928587614a35565b35610c62846144f6565b600082815260209182526040808220338352909252206002015415610cfa57610cc0610cbb33610ca484610c95896144f6565b90600052602052604060002090565b9060018060a01b0316600052602052604060002090565b614b66565b6001600160a01b038416337f46227bd805037a939224e05cd991a64cb464f4b5c5317858af210838e59ce390600080a46143f0565b610c38565b506143f0565b3461033d576101a036600319011261033d5761049c600435610d218161032c565b602435610d2d8161032c565b604435610d398161032c565b606435610d458161032c565b608435610d518161032c565b60a435610d5d8161032c565b60c435610d698161032c565b60e43591610d768361032c565b6101043593610d848561032c565b6101243595610d928761032c565b610d9a610342565b97610da3610352565b99610dac610360565b9b613cc3565b3461033d57602036600319011261033d57600435610dcf8161032c565b610dd761369b565b610de081615a82565b73__$c98ca6a62396e5a7a1471db151198a1f31$__90813b1561033d5760405163148282a760e21b8152600080516020615faa83398151915260048201526001600160a01b039091166024820181905291600090829060449082905af480156105a457610e75575b50724e4554574f524b5f42454e454649434941525960681b60008051602061600a833981519152600080a3005b80610598610e829261132a565b38610e48565b3461033d57602036600319011261033d57600435610ea58161032c565b6001600160a01b037f000000000000000000000000000000000000000000000000000000000000000081169190610ede308414156137c6565b610efb600080516020615fea833981519152938285541614613827565b610f0361369b565b60405190610f10826113e6565b600082527f4910fdfa16fed3260ed0e7147f7cc6da11a60208b5b9406d12a635614ffd91435460ff1615610f4a57505061049c9150613950565b6020600491604094939451928380926352d1902d60e01b825286165afa60009181610fa5575b50610f925760405162461bcd60e51b815280610f8e60048201613901565b0390fd5b61049c93610fa091146138a3565b6139e0565b610fc791925060203d8111610fce575b610fbf818361141c565b810190613888565b9038610f70565b503d610fb5565b90815180825260208080930193019160005b828110610ff5575050505090565b83516001600160a01b031685529381019392810192600101610fe7565b90815180825260208080930193019160005b828110611032575050505090565b835160ff1685529381019392810192600101611024565b906106a3916020815260018060a01b03825116602082015260208201516040820152604082015160608201526060820151608082015260a0611099608084015160c08385015260e0840190610fd5565b9201519060c0601f1982850301910152611012565b3461033d57610a1a61111d6110c23661067a565b906040939284916110ff8351926110d884611378565b606060a06000958681528660208201528688820152868382015282608082015201526144f6565b908252602052209060018060a01b0316600052602052604060002090565b90611170600582519361112f85611378565b80546001600160a01b03168552600181015460208601526002810154848601526003810154606086015261116560048201615126565b60808601520161517e565b60a08301525191829182611049565b3461033d5760408060031936011261033d57600490813561119f8161032c565b6024356001600160401b03811161033d576111bd9036908501610379565b906111c66149df565b6111ce6158c2565b6111df6111db3385615dde565b1590565b6112f7576111f08282959395615941565b6001600160a01b0383169160005b85811061120f5761049c6001606555565b61121a818785614a7d565b35602080611229848a88614a7d565b013584611237858b89614a7d565b013591611244848a615d53565b811515806112ed575b6112cc578288926112ac7fa3f36b03a37e1948b5a4d52ddc1d9f62ab7d4e887e3a0a03e0c68d40f6075f3f9361129b88610c958f6112c79c9b9a61128f61143d565b9588875286015261452f565b906020600191805184550151910155565b8751908152602081019190915280604081015b0390a36143f0565b6111fe565b8551639359452360e01b8152808c0184815242602082015281906040010390fd5b504283111561124d565b8351600162bed83560e01b0319815280610f8e3386838a016142f9565b634e487b7160e01b600052604160045260246000fd5b6001600160401b03811161133d57604052565b611314565b604081019081106001600160401b0382111761133d57604052565b608081019081106001600160401b0382111761133d57604052565b60c081019081106001600160401b0382111761133d57604052565b61014081019081106001600160401b0382111761133d57604052565b60e081019081106001600160401b0382111761133d57604052565b61012081019081106001600160401b0382111761133d57604052565b602081019081106001600160401b0382111761133d57604052565b606081019081106001600160401b0382111761133d57604052565b90601f801991011681019081106001600160401b0382111761133d57604052565b6040519061035082611342565b6040519061035082611393565b60405190610350826113ca565b60405190610350826113af565b6040519061035082611378565b604051906101a082018281106001600160401b0382111761133d57604052565b6001600160401b03811161133d57601f01601f191660200190565b604036600319011261033d576004356114d18161032c565b602435906001600160401b03821161033d573660238301121561033d578160040135906114fd8261149e565b9161150b604051938461141c565b808352366024828601011161033d57602081600092602461049c97018387013784010152613aef565b600091031261033d57565b3461033d57600036600319011261033d577f00000000000000000000000000000000000000000000000000000000000000006001600160a01b0316300361159957604051600080516020615fea8339815191528152602090f35b60405162461bcd60e51b815260206004820152603860248201527f555550535570677261646561626c653a206d757374206e6f742062652063616c6044820152771b1959081d1a1c9bdd59da0819195b1959d85d1958d85b1b60421b6064820152608490fd5b3461033d57604036600319011261033d5761162460043561161f8161032c565b614568565b6024356000526020526020604060002054604051908152f35b3461033d5760206107086116503661067a565b6001600160a01b0392831660009081527f5e94cc2b8b9fd616c1ffff3497627b534929331e1f3b26d7dc3360464546d51286526040808220938252928652828120919093168352602052902090565b3461033d576116ad36610bd7565b90916116b76149df565b6116c46111db3383615dde565b611775576116d28284615e75565b60005b8281106116e65761049c6001606555565b806116f5611770928587614a35565b3561172261171661170983610c95886145a1565b546001600160a01b031690565b6001600160a01b031690565b15610cfa5761173c61173782610c95876145a1565b614a45565b6001600160a01b0384167fda6836b3af7ccd9683b9c04bdbe253e29f59637fae61c508b62142e0c45b6dea600080a36143f0565b6116d5565b604051600162bed83560e01b03198152908190610f8e903390600484016142f9565b81516001600160a01b031681526101408101929161035091906020818101516001600160a01b0316908301526040818101516001600160a01b0316908301526060818101516001600160a01b0316908301526080818101516001600160a01b03169083015260a0818101516001600160a01b03169083015260c0818101516001600160a01b03169083015260e0818101516001600160a01b031690830152610100818101516001600160a01b031690830152610120908101516001600160a01b0316910152565b3461033d57600080600319360112611a9157610a1a90611a8560405161188381611393565b8281528260208201528260408201528260608201528260808201528260a08201528260c08201528260e082015261010092808483015261012080920152611a546118cb61144a565b600080516020615faa833981519152546001600160a01b0316815293600080516020615fca83398151915254611915906001600160a01b03165b6001600160a01b03166020870152565b7f5e94cc2b8b9fd616c1ffff3497627b534929331e1f3b26d7dc3360464546d502546001600160a01b031660408601527f5e94cc2b8b9fd616c1ffff3497627b534929331e1f3b26d7dc3360464546d503546001600160a01b031660608601527f5e94cc2b8b9fd616c1ffff3497627b534929331e1f3b26d7dc3360464546d504546001600160a01b031660808601527f5e94cc2b8b9fd616c1ffff3497627b534929331e1f3b26d7dc3360464546d505546001600160a01b031660a086015260008051602061606a833981519152546001600160a01b031660c08601527f5e94cc2b8b9fd616c1ffff3497627b534929331e1f3b26d7dc3360464546d507546001600160a01b031660e08601527f5e94cc2b8b9fd616c1ffff3497627b534929331e1f3b26d7dc3360464546d508546001600160a01b031690850152565b7f5e94cc2b8b9fd616c1ffff3497627b534929331e1f3b26d7dc3360464546d509546001600160a01b031690830152565b60405191829182611797565b80fd5b3461033d57602036600319011261033d57600435611ab18161032c565b611ab961369b565b611ac281615bd4565b611acb816136f3565b6001600160a01b031678434845434b4f55545f455845435554494f4e5f4d4f44554c4560381b60008051602061600a833981519152600080a3005b604060031982011261033d57600435611b1e8161032c565b916024356001600160401b039283821161033d578060238301121561033d57816004013593841161033d5760248460061b8301011161033d576024019190565b3461033d57611b6c36611b06565b611b779291926149df565b611b7f6158c2565b611b8c6111db3384615dde565b611c3557611b9a8184615988565b60005b818110611bae5761049c6001606555565b80611bbd611c30928487614a8d565b35611bc88186615d53565b602080611bd684878a614a8d565b0135611be583610c9589614568565b55611bf1838689614a8d565b60405191013581526001600160a01b038616907f2f2a73977f9734e3b74f4efe888b44cdcca6903d8ab2b5be49c3969cc6cb1b629080602081016112bf565b611b9d565b604051600162bed83560e01b0319815280610f8e3385600484016142f9565b906106a3916020815260018060a01b0380835116602083015260208301511660408201526040820151606082015260608201516080820152608082015160a082015260c0611cb160a084015160e083850152610100840190610fd5565b9201519060e0601f1982850301910152611012565b3461033d5760408060031936011261033d5780610a1a91600435611ce98161032c565b611d25825191611cf8836113af565b606060c0600094858152856020820152858782015285838201528560808201528260a082015201526145a1565b60243582526020522090611d986006825193611d40856113af565b80546001600160a01b031685526001810154611d64906001600160a01b0316611905565b6002810154848601526003810154606086015260048101546080860152611d8d60058201615126565b60a08601520161517e565b60c08301525191829182611c54565b3461033d57600080600319360112611a9157611dc161369b565b603380546001600160a01b0319811690915581906001600160a01b03167f8be0079c531659141344cd1fd0a4f28419497f9722a3daafe3b4186f6b6457e08280a380f35b60608060031936011261033d5760043590611e1f8261032c565b60243590611e2c8261032c565b6044356001600160401b03811161033d57611e4c84913690600401610711565b92611e556149df565b611e5d6158c2565b60018060a01b03938460008051602061602a83398151915254169581604095865197602093637777e6d760e01b858b01528160848b01931660248b01521660448901528460648901525260a486019360a48360051b8801019581956000925b858410611edb576104918a8c61048c828d03601f19810184528361141c565b909192939495969760a3198a82030183528835607e198336030181121561033d5786611f396001938b611f28878596018035845285810135868501528a8101358b85015282810190614dab565b919092608080928201520191614ddf565b9a019301940192919695949390611ebc565b3461033d57602036600319011261033d57600435611f688161032c565b611f7061369b565b611f7981615ac0565b73__$c98ca6a62396e5a7a1471db151198a1f31$__90813b1561033d576040516362cd1f1560e11b8152600080516020615faa83398151915260048201526001600160a01b039091166024820181905291600090829060449082905af480156105a457612012575b507653504143455f4f50455241544f525f524547495354525960481b60008051602061600a833981519152600080a3005b8061059861201f9261132a565b38611fe1565b3461033d57604036600319011261033d576116246004356120458161032c565b6145da565b8015150361033d57565b3461033d57602036600319011261033d577fae6fb668d2dacbb6cc6e620b898a7166d67d7838c94ddeff2dbdf55995e9b19260206004356120948161204a565b61209c61369b565b151560008051602061604a83398151915260ff1981541660ff8316179055604051908152a1005b3461033d57600036600319011261033d576033546040516001600160a01b039091168152602090f35b3461033d57600036600319011261033d57600080516020615f8a833981519152546040516001600160a01b039091168152602090f35b3461033d57602036600319011261033d5760043561213f8161032c565b61214761369b565b61215081615bd4565b61215981613721565b6001600160a01b03167554524144455f455845435554494f4e5f4d4f44554c4560501b60008051602061600a833981519152600080a3005b3461033d57600036600319011261033d57602060405160328152f35b3461033d57602036600319011261033d576004356121ca8161032c565b6121d261369b565b6121db81615b02565b73__$c98ca6a62396e5a7a1471db151198a1f31$__90813b1561033d57604051631d1d389760e11b8152600080516020615faa83398151915260048201526001600160a01b039091166024820181905291600090829060449082905af480156105a457612265575b50675041594d454e545360c01b60008051602061600a833981519152600080a3005b806105986122729261132a565b38612243565b3461033d57600036600319011261033d57602060ff60008051602061604a83398151915254166040519015158152f35b60c036600319011261033d57600480356122c18161032c565b602435604435926122d18461032c565b606435916084359160a435956122e56149df565b6122ed6158c2565b6122f686615c0a565b73__$11854c5905aa23948096e0e4d7059bb9de$__92833b1561033d57604094855198635e157ccf60e11b8a526000998a8180612335888a8301614313565b03818a5af480156105a457612737575b508715612727578115612717578015158061270d575b6126eb57906123b29161236e828a61464c565b9960208b612393611716600080516020615fca8339815191525460018060a01b031690565b8b516361fe24a960e11b81528a81019283529687928391829160200190565b03915afa9384156105a4578c946126ca575b5060008051602061606a83398151915254895163470d6ed960e11b81528881018d8152909c916001600160a01b0316908d90819003602001815a93602094fa9b8c156105a4578d9c6126a9575b50848c11612687578461242391614b91565b998c893b15611a91578a516338fa83e760e01b8152600080516020615faa8339815191528a82019081526001600160a01b038a166020820152604081019d909d529b8c90819060600103818c5af49a8b156105a4578d9b612674575b50868661248b84614613565b60009182526020908152604080832033845282528083206001600160a01b03949094168352929052206124bd90614b9e565b9b6124c6611457565b6001600160a01b038916815290826020830152858c8301528560608301528660808301528660a08301528060c083015260e08201528361010082015287338861250e86614613565b6000918252602090815260408083206001600160a01b03948516845282528083209490931682529290925290206125b19190815181546001600160a01b0319166001600160a01b0390911617815590600890610100906020810151600185015560408101516002850155606081015160038501556080810151600485015560a0810151600585015560c0810151600685015560e081015160078501550151910155565b89516001600160a01b03888116825260208201929092526040810194909452606084019490945260808301919091529091169033907ec827db726736dd1c3f5c4643456d97cc22d1613afeae6f8576124e65e8e1bc9060a090a4602086015193808701519660800151843b1561267057612640915197889687958695634c4c261960e01b875233918701614c10565b03915af480156105a45761265d575b5061265a6001606555565b80f35b8061059861266a9261132a565b3861264f565b8680fd5b806105986126819261132a565b3861247f565b8951639bdfbb5160e01b8152808901868152602081018e905281906040010390fd5b6126c3919c5060203d602011610fce57610fbf818361141c565b9a38612411565b6126e491945060203d602011610fce57610fbf818361141c565b92386123c4565b8651633312a4fd60e21b81528086019182524260208301529081906040010390fd5b504281111561235b565b865163c6b949a960e01b81528590fd5b865163473ae14d60e01b81528590fd5b806105986127449261132a565b38612345565b3461033d5761010036600319011261033d576004356127688161032c565b604435906127758261032c565b6064356127818161032c565b6001600160401b039260c43584811161033d576127a2903690600401610711565b9160e43595861161033d576127be61049c963690600401610711565b95909460a435926084359260243590614e03565b9060a060031983011261033d576004356127eb8161032c565b916024356127f88161032c565b91604435916001600160401b039081841161033d578060238501121561033d5783600401359382851161033d578160248660071b8301011161033d57602401939260643583811161033d578261285091600401610711565b9390939260843591821161033d57610c0f91600401610711565b3461033d57612878366127d2565b969492939091956128876149df565b61288f6158c2565b61289886615c0a565b6128a56111db3388615dde565b612aae576128b382856158ed565b73__$11854c5905aa23948096e0e4d7059bb9de$__97883b1561033d57604093845199635e157ccf60e11b8b5260009a8b81806128f38860048301614313565b0381855af480156105a457612a9b575b508a813b15611a91578284928c8b6129308b51968795869485946376fb859760e01b865260048601614345565b03915af480156105a457612a88575b50895b848110612954578a61265a6001606555565b8888888888888f888a916129698a868961441a565b3597612975898b615d53565b8a602087898b848461298882868561441a565b0135936129949261441a565b0135898c60609586926129a69261441a565b0135906129b1611464565b338152926001600160a01b038b1684860152838d01528483015260808201526129db368686614446565b60a08201528b8d6129ed368a8a61449e565b60c08401526129fb906145a1565b60009182526020526040902090612a119161483d565b612a1c8d898c61441a565b0135988c89612a2c828b8561441a565b013598612a389261441a565b01359651968796339b600160a01b600190031699612a569789614999565b037f4c048dfd080dcfa2cccc41ef603e5f0ed6602ca215a41581d653aadf841a560b91a4612a83906143f0565b612942565b80610598612a959261132a565b3861293f565b80610598612aa89261132a565b38612903565b604051600162bed83560e01b0319815280610f8e3389600484016142f9565b3461033d5760408060031936011261033d57612b07600435612aee8161032c565b600060208451612afd81611342565b828152015261452f565b602435600052602052806000208151612b1f81611342565b60206001835493848452015491019081528251918252516020820152f35b3461033d57600036600319011261033d5760008051602061608a833981519152546040516001600160a01b039091168152602090f35b3461033d57612b8136611b06565b612b8c9291926149df565b612b946158c2565b612ba16111db3384615dde565b611c3557612baf8184615988565b60005b818110612bc35761049c6001606555565b80612bd2612c45928487614a8d565b35612bdd8186615d53565b602080612beb84878a614a8d565b0135612bfa83610c95896145da565b55612c06838689614a8d565b60405191013581526001600160a01b038616907feead0384c6f48c02c0099b2433359d43617492f06d8e3a59cbe786b9970f7e619080602081016112bf565b612bb2565b3461033d57600036600319011261033d576020604051604b8152f35b3461033d57602036600319011261033d57600435612c838161032c565b612c8b61369b565b612c9481615bb2565b73__$c98ca6a62396e5a7a1471db151198a1f31$__90813b1561033d576040516328b80cf560e21b8152600080516020615faa83398151915260048201526001600160a01b039091166024820181905291600090829060449082905af480156105a457612d2c575b507522a92199182fa0a8282927ab20a62fa6a0a720a3a2a960511b60008051602061600a833981519152600080a3005b80610598612d399261132a565b38612cfc565b3461033d57602036600319011261033d57600435612d5c8161032c565b612d6461369b565b612d6d81615bb2565b73__$c98ca6a62396e5a7a1471db151198a1f31$__90813b1561033d57604051631f1afd0d60e01b8152600080516020615faa83398151915260048201526001600160a01b039091166024820181905291600090829060449082905af480156105a457612e06575b507622a9219b9918afa0a8282927ab20a62fa6a0a720a3a2a960491b60008051602061600a833981519152600080a3005b80610598612e139261132a565b38612dd5565b3461033d57608036600319011261033d57610a1a600435612e398161032c565b612ec5604435612e488161032c565b610ca460643591612e588361032c565b6040805195612e66876113ca565b612ea56000918289528260208a015282848a01528260608a01528260808a01528260a08a01528260c08a01528260e08a015282610100809a0152614613565b6024358252602052209060018060a01b0316600052602052604060002090565b906008612ed0611457565b8354909390612ef0906001600160a01b03165b6001600160a01b03168552565b60018101546020850152600281015460408501526003810154606085015260048101546080850152600581015460a0850152600681015460c0850152600781015460e08501520154908201526040519182918291909161012081019260018060a01b0381511682526020810151602083015260408101516040830152606081015160608301526080810151608083015260a081015160a083015260c081015160c083015260e081015160e083015261010080910151910152565b3461033d57602036600319011261033d57600435612fc78161032c565b612fcf61369b565b612fd881615b35565b73__$c98ca6a62396e5a7a1471db151198a1f31$__90813b1561033d57604051632867932b60e11b8152600080516020615faa83398151915260048201526001600160a01b039091166024820181905291600090829060449082905af480156105a457613071575b5076415050524f5645445f544f4b454e5f524547495354525960481b60008051602061600a833981519152600080a3005b8061059861307e9261132a565b38613040565b3461033d576130a36130953661067a565b9161309e6149df565b614c56565b6001606555005b3461033d57600036600319011261033d5760008051602061602a833981519152546040516001600160a01b039091168152602090f35b3461033d57602036600319011261033d576004356130fd8161032c565b61310561369b565b61310e81615b77565b73__$c98ca6a62396e5a7a1471db151198a1f31$__90813b1561033d57604051632d8b49e160e11b8152600080516020615faa83398151915260048201526001600160a01b039091166024820181905291600090829060449082905af480156105a4576131a0575b506f5354414b494e475f53455454494e475360801b60008051602061600a833981519152600080a3005b806105986131ad9261132a565b38613176565b3461033d57602036600319011261033d576004356131d08161032c565b6131d861369b565b6001600160a01b038116156131f05761049c9061377d565b60405162461bcd60e51b815260206004820152602660248201527f4f776e61626c653a206e6577206f776e657220697320746865207a65726f206160448201526564647265737360d01b6064820152608490fd5b3461033d57613252366127d2565b90613262979296939594976149df565b61326a6158c2565b61327488866158ed565b73__$11854c5905aa23948096e0e4d7059bb9de$__3b1561033d57604051635e157ccf60e11b8152600081806132ad8860048301614313565b038173__$11854c5905aa23948096e0e4d7059bb9de$__5af480156105a457613617575b5073__$11854c5905aa23948096e0e4d7059bb9de$__3b1561033d576040516376fb859760e01b81526000818061330e86868d8d60048601614345565b038173__$11854c5905aa23948096e0e4d7059bb9de$__5af480156105a457613604575b5061333c83615c0a565b60008051602061608a8339815191525461338090602090613365906001600160a01b0316611716565b6040518093819263e985e9c560e01b835233600484016142f9565b03816001600160a01b0388165afa9081156105a4576000916135d5575b50156135b95760005b8881106133b75761049c6001606555565b6133c2818a8861441a565b35868a60606133f08560406133e7828660206133df83838c61441a565b01359861441a565b0135938c61441a565b013582156135a7578115613595578015158061358b575b61356b57604051627eeac760e11b8152336004820152602481018590526020816044816001600160a01b038d165afa9081156105a45760009161354c575b5082811061350f57507fe4cf997ce4def583f8220b51e6c89b5dbf6eeded5de4d1d78884a25d2bf46d5d8392896135028f8f8c918f97918d926134eb8a61350a9f9e9d8e6134e6916134a7613498611471565b6001600160a01b039095168552565b60208401528b60408401528460608401526134c3368888614446565b60808401526134d3368a8a61449e565b60a0840152610ca43391610c958d6144f6565b614abd565b60405197889760018060a01b03169b339b89614999565b0390a46143f0565b6133a6565b604051636906ef1760e11b81523360048201526001600160a01b038a1660248201526044810186905260648101849052608481019190915260a490fd5b613565915060203d602011610fce57610fbf818361141c565b38613445565b6040516346a836ff60e11b81526004810191909152426024820152604490fd5b5042811115613407565b60405163c6b949a960e01b8152600490fd5b6040516331cc996d60e11b8152600490fd5b60405163d65b0d6960e01b815280610f8e8533600484016142f9565b6135f7915060203d6020116135fd575b6135ef818361141c565b810190614aa8565b3861339d565b503d6135e5565b806105986136119261132a565b38613332565b806105986136249261132a565b386132d1565b3461033d57602036600319011261033d576004356136478161032c565b61364f61369b565b61365881615bb2565b6001600160a01b031661366a8161374f565b7722a92198989a9aafa0a8282927ab20a62fa6a0a720a3a2a960411b60008051602061600a833981519152600080a3005b6033546001600160a01b031633036136af57565b606460405162461bcd60e51b815260206004820152602060248201527f4f776e61626c653a2063616c6c6572206973206e6f7420746865206f776e65726044820152fd5b600080516020615f8a83398151915280546001600160a01b0319166001600160a01b03909216919091179055565b60008051602061602a83398151915280546001600160a01b0319166001600160a01b03909216919091179055565b60008051602061608a83398151915280546001600160a01b0319166001600160a01b03909216919091179055565b603380546001600160a01b039283166001600160a01b0319821681179092559091167f8be0079c531659141344cd1fd0a4f28419497f9722a3daafe3b4186f6b6457e0600080a3565b156137cd57565b60405162461bcd60e51b815260206004820152602c60248201527f46756e6374696f6e206d7573742062652063616c6c6564207468726f7567682060448201526b19195b1959d85d1958d85b1b60a21b6064820152608490fd5b1561382e57565b60405162461bcd60e51b815260206004820152602c60248201527f46756e6374696f6e206d7573742062652063616c6c6564207468726f7567682060448201526b6163746976652070726f787960a01b6064820152608490fd5b9081602091031261033d575190565b6040513d6000823e3d90fd5b156138aa57565b60405162461bcd60e51b815260206004820152602960248201527f45524331393637557067726164653a20756e737570706f727465642070726f786044820152681a58589b195555525160ba1b6064820152608490fd5b60809060208152602e60208201527f45524331393637557067726164653a206e657720696d706c656d656e7461746960408201526d6f6e206973206e6f74205555505360901b60608201520190565b803b1561398557600080516020615fea83398151915280546001600160a01b0319166001600160a01b03909216919091179055565b60405162461bcd60e51b815260206004820152602d60248201527f455243313936373a206e657720696d706c656d656e746174696f6e206973206e60448201526c1bdd08184818dbdb9d1c9858dd609a1b6064820152608490fd5b906139ea82613950565b6001600160a01b0382167fbc7cd75a20ee27fd9adebab32041f755214dbc6bffa90cc0225b39da2e5c2d3b600080a2805115801590613a94575b613a2c575050565b613a919160008060405193613a4085611401565b602785527f416464726573733a206c6f772d6c6576656c2064656c65676174652063616c6c6020860152660819985a5b195960ca1b6040860152602081519101845af4613a8b613bfa565b91613c2a565b50565b506000613a24565b90613aa682613950565b6001600160a01b0382167fbc7cd75a20ee27fd9adebab32041f755214dbc6bffa90cc0225b39da2e5c2d3b600080a2805115801590613ae757613a2c575050565b506001613a24565b6001600160a01b037f000000000000000000000000000000000000000000000000000000000000000081169290613b28308514156137c6565b613b45600080516020615fea833981519152948286541614613827565b613b4d61369b565b7f4910fdfa16fed3260ed0e7147f7cc6da11a60208b5b9406d12a635614ffd91435460ff1615613b835750506103509150613950565b6020600491604094939451928380926352d1902d60e01b825286165afa60009181613bda575b50613bc75760405162461bcd60e51b815280610f8e60048201613901565b61035093613bd591146138a3565b613a9c565b613bf391925060203d8111610fce57610fbf818361141c565b9038613ba9565b3d15613c25573d90613c0b8261149e565b91613c19604051938461141c565b82523d6000602084013e565b606090565b91929015613c8c5750815115613c3e575090565b3b15613c475790565b60405162461bcd60e51b815260206004820152601d60248201527f416464726573733a2063616c6c20746f206e6f6e2d636f6e74726163740000006044820152606490fd5b825190915015613c9f5750805190602001fd5b60405162461bcd60e51b815260206004820152908190610f8e906024830190610787565b9a98969492909160ff9c9a989694926000549d8e60081c1615809e819f613dec575b8115613dcc575b5015613d7057613d129c8e613d09600160ff196000541617600055565b613d57576140b0565b613d1857565b613d2861ff001960005416600055565b604051600181527f7f26b83ff96e1f2b6a682f133852f6798a09c465da95921460cefb384740249890602090a1565b613d6b61010061ff00196000541617600055565b6140b0565b60405162461bcd60e51b815260206004820152602e60248201527f496e697469616c697a61626c653a20636f6e747261637420697320616c72656160448201526d191e481a5b9a5d1a585b1a5e995960921b6064820152608490fd5b303b15915081613dde575b5038613cec565b6001915060ff161438613dd7565b600160ff8216109150613ce5565b51906103508261032c565b908161014091031261033d57613e1961144a565b90613e2381613dfa565b8252613e3160208201613dfa565b6020830152613e4260408201613dfa565b6040830152613e5360608201613dfa565b6060830152613e6460808201613dfa565b6080830152613e7560a08201613dfa565b60a0830152613e8660c08201613dfa565b60c0830152613e9760e08201613dfa565b60e0830152610100613eaa818301613dfa565b90830152613ebc610120809201613dfa565b9082015290565b8051600080516020615faa83398151915280546001600160a01b03199081166001600160a01b03938416179091556020830151600080516020615fca8339815191528054831691841691909117905560408301517f5e94cc2b8b9fd616c1ffff3497627b534929331e1f3b26d7dc3360464546d5028054831691841691909117905560608301517f5e94cc2b8b9fd616c1ffff3497627b534929331e1f3b26d7dc3360464546d5038054831691841691909117905560808301517f5e94cc2b8b9fd616c1ffff3497627b534929331e1f3b26d7dc3360464546d5048054831691841691909117905560a08301517f5e94cc2b8b9fd616c1ffff3497627b534929331e1f3b26d7dc3360464546d5058054831691841691909117905560c083015160008051602061606a8339815191528054831691841691909117905560e08301517f5e94cc2b8b9fd616c1ffff3497627b534929331e1f3b26d7dc3360464546d507805483169184169190911790556101008301517f5e94cc2b8b9fd616c1ffff3497627b534929331e1f3b26d7dc3360464546d50880549092169083161790556101209091015161035091167f5e94cc2b8b9fd616c1ffff3497627b534929331e1f3b26d7dc3360464546d50980546001600160a01b0319166001600160a01b03909216919091179055565b95909691999b9a9893946141ac9561014099946141398f8f908f8f90614134928f8f926140eb6140f0926140e661413496615a82565b6159cf565b615ac0565b6140f987615a0e565b61410288615b02565b61410b89615b35565b6141148a615b77565b61411d8b615a47565b6141268c615bb2565b61412f8d615bb2565b615bb2565b615bd4565b60405163ef8c824960e01b81526001600160a01b03998a16600482015299891660248b01529b881660448a01529a87166064890152998616608488015298851660a487015297841660c486015296831660e485015295821661010484015294166101248201529283908190610144820190565b038173__$c98ca6a62396e5a7a1471db151198a1f31$__5af480156105a457614200946141e86141f6926141fb95600091614218575b50613ec3565b6001600160a01b031661374f565b613721565b6136f3565b6142086142a9565b6142106142dd565b6103506142cc565b61423c91506101403d61014011614242575b614234818361141c565b810190613e05565b386141e2565b503d61422a565b1561425057565b60405162461bcd60e51b815260206004820152602b60248201527f496e697469616c697a61626c653a20636f6e7472616374206973206e6f74206960448201526a6e697469616c697a696e6760a81b6064820152608490fd5b6142c360ff60005460081c166142be81614249565b614249565b6103503361377d565b61035060ff60005460081c16614249565b6142f260ff60005460081c166142be81614249565b6001606555565b6001600160a01b0391821681529116602082015260400190565b600080516020615faa83398151915281526001600160a01b03909116602082015260400190565b60ff81160361033d57565b909293918060408301604084525260608201939060005b8181106143ad57505050808303602091820152818352918201929160005b828110614388575050505090565b90919293828060019260ff883561439e8161433a565b1681520195019392910161437a565b9091939460019085356143bf8161032c565b60a083901b839003168152602090810196950192910161435c565b634e487b7160e01b600052601160045260246000fd5b60001981146143ff5760010190565b6143da565b634e487b7160e01b600052603260045260246000fd5b919081101561442a5760071b0190565b614404565b6001600160401b03811161133d5760051b60200190565b92916144518261442f565b9161445f604051938461141c565b829481845260208094019160051b810192831161033d57905b8282106144855750505050565b83809183356144938161032c565b815201910190614478565b92916144a98261442f565b916144b7604051938461141c565b829481845260208094019160051b810192831161033d57905b8282106144dd5750505050565b83809183356144eb8161433a565b8152019101906144d0565b6001600160a01b031660009081527f5e94cc2b8b9fd616c1ffff3497627b534929331e1f3b26d7dc3360464546d5136020526040902090565b6001600160a01b031660009081527f5e94cc2b8b9fd616c1ffff3497627b534929331e1f3b26d7dc3360464546d50e6020526040902090565b6001600160a01b031660009081527f5e94cc2b8b9fd616c1ffff3497627b534929331e1f3b26d7dc3360464546d5116020526040902090565b6001600160a01b031660009081527f5e94cc2b8b9fd616c1ffff3497627b534929331e1f3b26d7dc3360464546d50d6020526040902090565b6001600160a01b031660009081527f5e94cc2b8b9fd616c1ffff3497627b534929331e1f3b26d7dc3360464546d50f6020526040902090565b6001600160a01b031660009081527f5e94cc2b8b9fd616c1ffff3497627b534929331e1f3b26d7dc3360464546d5146020526040902090565b818102929181159184041417156143ff57565b81811061466a575050565b6000815560010161465f565b80546000825580614685575050565b6103509160005260206000209081019061465f565b90600160401b811161133d578154908083558181106146b857505050565b610350926000526020600020918201910161465f565b805460008255806146dd575050565b61035091600052601f6020600020910160051c81019061465f565b90600160401b811161133d57815481835580821061471557505050565b61035092600052601f6020600020918180850160051c8401941680614741575b500160051c019061465f565b600019908186019182549160200360031b1c16905538614735565b9080516001600160401b03811161133d5761477781846146f8565b61478b602080930193600052602060002090565b908060051c9260005b8481106148075750601f19821690910390816147b2575b5050505050565b9390600094855b8281106147d05750505050015538808080806147ab565b90919295826147fc600192846147e78b5160ff1690565b919060ff809160031b9316831b921b19161790565b9701939291016147b9565b6000805b83811061481f575084820155600101614794565b9690836148346001928a6147e7865160ff1690565b9201970161480b565b815181546001600160a01b0319166001600160a01b03918216178255909190602082810151600185810180549285166001600160a01b03166001600160a01b03199093169290921790915591604084015160028601556060840151600386015560808401516004860155600585019060a0850151928351936001600160401b03851161133d5781906148cf868661469a565b0192600052806000209160005b8581106148fc575050505050505090600660c0610350930151910161475c565b84518216848201559382019386016148dc565b91908082526020809201929160005b82811061492c575050505090565b90919293828060019287356149408161032c565b848060a01b0316815201950191019291909261491e565b91908082526020809201929160005b828110614974575050505090565b90919293828060019260ff883561498a8161433a565b16815201950193929101614966565b9694926106a39896926149d1959260018060a01b0316895260208901526040880152606087015260c0608087015260c086019161490f565b9260a0818503910152614957565b6002606554146149f0576002606555565b60405162461bcd60e51b815260206004820152601f60248201527f5265656e7472616e637947756172643a207265656e7472616e742063616c6c006044820152606490fd5b919081101561442a5760051b0190565b6006610350916000815560006001820155600060028201556000600382015560006004820155614a7760058201614676565b016146ce565b919081101561442a576060020190565b919081101561442a5760061b0190565b51906103508261204a565b9081602091031261033d57516106a38161204a565b815181546001600160a01b0319166001600160a01b039182161782559091906020808301519160019283860155604084015160028601556060840151600386015560048501906080850151928351936001600160401b03851161133d578190614b26868661469a565b0192600052806000209160005b858110614b53575050505050505090600560a0610350930151910161475c565b8451821684820155938201938601614b33565b60056103509160008155600060018201556000600282015560006003820155614a7760048201614676565b919082018092116143ff57565b906008614ba9611457565b8354909390614bc0906001600160a01b0316612ee3565b60018101546020850152600281015460408501526003810154606085015260048101546080850152600581015460a0850152600681015460c0850152600781015460e08501520154610100830152565b600080516020615faa83398151915281526001600160a01b039182166020820152911660408201526060810191909152608081019190915260a081019190915260c00190565b919091614c88614c8383610ca4614c7087610c9587614613565b3360009081526020919091526040902090565b614b9e565b60408101938451156147ab57614ce2614cac85610ca433610ca486610c958a614613565b60086000918281558260018201558260028201558260038201558260048201558260058201558260068201558260078201550155565b60208281018051875160809586018051604080516001600160a01b038c81168252978101959095528401929092526060830191909152959194919092169133917fb00a321de530b83262da5c2b572508a21b98c8d189dba9939e0359e8c9fbfeac91a473__$11854c5905aa23948096e0e4d7059bb9de$__90519351915193813b1561033d57600093614d8d60405196879586948594634c4c261960e01b8652339060048701614c10565b03915af480156105a457614d9e5750565b806105986103509261132a565b9035601e198236030181121561033d5701602081359101916001600160401b03821161033d578160051b3603831361033d57565b81835290916001600160fb1b03831161033d5760209260051b809284830137010190565b969297959390989491614e146149df565b614e1c6158c2565b60008051602061602a8339815191525460405163b8e6b50f60e01b60208201526001600160a01b03998a166024820152604481019b909b5290881660648b015297871660848a015260a489015260c488015261010060e48801529490931694938493614e8d9161012486019161490f565b9060231984830301610104850152614ea492614957565b03601f1981018252614eb6908261141c565b614ebf9161586f565b506103506001606555565b51906103508261433a565b5190600682101561033d57565b51906001600160e01b03198216820361033d57565b81601f8201121561033d578051614f0d8161149e565b92614f1b604051948561141c565b8184526020828401011161033d576106a39160208085019101610764565b81601f8201121561033d57805190614f508261442f565b92604092614f608451958661141c565b808552602093848087019260051b8501019383851161033d57858101925b858410614f8f575050505050505090565b83516001600160401b039081811161033d578301916101a09283601f19828a03011261033d57614fbd61147e565b908a8101518252614fcf878201614eca565b8b830152606094614fe1868301613dfa565b88840152608095868301519084015260a095614ffe878401613dfa565b9084015260c095615010878401613dfa565b9084015260e09586830151908401526101009586830151908401526101209561503a878401614a9d565b908401526101409561504d878401614ed5565b9084015261016095615060878401614ee2565b90840152610180918281015195861161033d578c966150848c898099850101614ef7565b90850152015190820152815201930192614f7e565b9060208282031261033d5781516001600160401b039283821161033d5701908181039260a0841261033d576080604051946150d386611342565b1261033d576040516150e48161135d565b835181526020840151602082015260408401516040820152606084015160608201528452608083015190811161033d5761511e9201614f39565b602082015290565b9060405191828154918282526020928383019160005283600020936000905b82821061515b575050506103509250038361141c565b85546001600160a01b031684526001958601958895509381019390910190615145565b906040805180938054926151a5615199858560209181520190565b92600052602060002090565b9360005b81601f8201106155c1576103509554928282106155ab575b828210615591575b828210615577575b82821061555d575b828210615543575b828210615529575b82821061550f575b8282106154f5575b8282106154de575b508181106154c6575b8181106154ae575b818110615496575b81811061547e575b818110615466575b81811061544e575b818110615436575b81811061541e575b818110615406575b8181106153ee575b8181106153d6575b8181106153be575b8181106153a6575b81811061538e575b818110615376575b81811061535e575b818110615346575b81811061532e575b818110615316575b8181106152fe575b8181106152e6575b8181106152ce575b106152c0575b50038361141c565b60f81c8152602001386152b8565b60f083901c60ff1684529260019060200193016152b2565b60e883901c60ff1684529260019060200193016152aa565b60e083901c60ff1684529260019060200193016152a2565b60d883901c60ff16845292600190602001930161529a565b60d083901c60ff168452926001906020019301615292565b60c883901c60ff16845292600190602001930161528a565b60c083901c60ff168452926001906020019301615282565b60b883901c60ff16845292600190602001930161527a565b60b083901c60ff168452926001906020019301615272565b60a883901c60ff16845292600190602001930161526a565b60a083901c60ff168452926001906020019301615262565b609883901c60ff16845292600190602001930161525a565b609083901c60ff168452926001906020019301615252565b608883901c60ff16845292600190602001930161524a565b608083901c60ff168452926001906020019301615242565b607883901c60ff16845292600190602001930161523a565b607083901c60ff168452926001906020019301615232565b606883901c60ff16845292600190602001930161522a565b606083901c60ff168452926001906020019301615222565b605883901c60ff16845292600190602001930161521a565b605083901c60ff168452926001906020019301615212565b604883901c60ff16845292600190602001930161520a565b83901c60ff16845292600190602001930138615201565b603884901c60ff16855290936001906020019401906151f9565b603084901c60ff16855290936001906020019401906151f1565b602884901c60ff16855290936001906020019401906151e9565b602084811c60ff16865291949091600191019401906151e1565b601884901c60ff16855290936001906020019401906151d9565b601084901c60ff16855290936001906020019401906151d1565b600884901c60ff16855290936001906020019401906151c9565b60ff8416855290936001906020019401906151c1565b91935091600161040060209261585f885461585460ff6155e58582851660ff169052565b61582d6156926157dd8d61578d8961573d8e61560a8184018a8d60081c1660ff169052565b61561d8584018a8d60101c1660ff169052565b888b610200606095615638878201858560181c1660ff169052565b61564d6080958585888501921c1660ff169052565b6156f360a097615666898401878760281c1660ff169052565b6156a360c09b61567f8d8601898960301c1660ff169052565b60e09e8f8601898960381c1660ff169052565b87876101008701921c1660ff169052565b6156b86101208401878760481c1660ff169052565b6156cd6101408401878760501c1660ff169052565b6156e26101608401878760581c1660ff169052565b85856101808501921c1660ff169052565b6157086101a08201858560681c1660ff169052565b61571d6101c08201858560701c1660ff169052565b6157326101e08201858560781c1660ff169052565b01921c1660ff169052565b6157526102208c01888b60881c1660ff169052565b6157676102408c01888b60901c1660ff169052565b61577c6102608c01888b60981c1660ff169052565b86896102808d01921c1660ff169052565b6157a26102a08a01868960a81c1660ff169052565b6157b76102c08a01868960b01c1660ff169052565b6157cc6102e08a01868960b81c1660ff169052565b84876103008b01921c1660ff169052565b6157f26103208801848760c81c1660ff169052565b6158076103408801848760d01c1660ff169052565b61581c6103608801848760d81c1660ff169052565b82856103808901921c1660ff169052565b6158426103a08601828560e81c1660ff169052565b6103c08501908360f01c1660ff169052565b60f81c6103e0830152565b01950191019186939194926151a9565b6000918291602082519201905af4615885613bfa565b901561588e5790565b80511561589d57602081519101fd5b60405163d4c4c23d60e01b815260206004820152908190610f8e906024830190610787565b60ff60008051602061604a83398151915254166158db57565b60405163ab35696f60e01b8152600490fd5b6158f682615f0e565b60015b82811061590557505050565b6000198101908082116143ff5761593761592361593c93868661441a565b3561592f83878761441a565b359083615f50565b6143f0565b6158f9565b61594a82615f0e565b60015b82811061595957505050565b6000198101908082116143ff57615937615977615983938686614a7d565b3561592f838787614a7d565b61594d565b61599182615f0e565b60015b8281106159a057505050565b6000198101908082116143ff576159376159be6159ca938686614a8d565b3561592f838787614a8d565b615994565b6001600160a01b0316156159df57565b60405163602d6df560e01b8152734d41524b4554504c4143455f53455454494e475360601b6004820152602490fd5b6001600160a01b031615615a1e57565b60405163602d6df560e01b81526d524f59414c54595f454e47494e4560901b6004820152602490fd5b6001600160a01b031615615a5757565b60405163602d6df560e01b81526f5354414b494e475f524547495354525960801b6004820152602490fd5b6001600160a01b031615615a9257565b60405163602d6df560e01b8152724e4554574f524b5f42454e454649434941525960681b6004820152602490fd5b6001600160a01b031615615ad057565b60405163602d6df560e01b81527653504143455f4f50455241544f525f524547495354525960481b6004820152602490fd5b6001600160a01b031615615b1257565b60405163602d6df560e01b8152675041594d454e545360c01b6004820152602490fd5b6001600160a01b031615615b4557565b60405163602d6df560e01b815276415050524f5645445f544f4b454e5f524547495354525960481b6004820152602490fd5b6001600160a01b031615615b8757565b60405163602d6df560e01b81526f5354414b494e475f53455454494e475360801b6004820152602490fd5b6001600160a01b031615615bc257565b60405163c49074af60e01b8152600490fd5b6001600160a01b03811615908115615c00575b50615bee57565b60405163d94b7f7760e01b8152600490fd5b90503b1538615be7565b803b158015615c3d575b615c1b5750565b604051630f20e39960e21b81526001600160a01b039091166004820152602490fd5b5060206000604051828101906301ffc9a760e01b808352602482015260248152615c6681611401565b519084617530fa6000513d82615cba575b5081615cb0575b5080615ca0575b80615c91575b15615c14565b50615c9b81615d23565b615c8b565b50615caa81615cc6565b15615c85565b9050151538615c7e565b60201115915038615c77565b6000602091604051838101906301ffc9a760e01b825263ffffffff60e01b602482015260248152615cf681611401565b5191617530fa6000513d82615d17575b5081615d10575090565b9050151590565b60201115915038615d06565b6000602091604051838101906301ffc9a760e01b8252636cdb3d1360e11b602482015260248152615cf681611401565b6040516001620b695760e21b03198152600481018390526020816024816001600160a01b0386165afa9081156105a457600091615dc0575b5015615d95575050565b604051632be7c7f360e01b81526001600160a01b039190911660048201526024810191909152604490fd5b615dd8915060203d8111610fce57610fbf818361141c565b38615d8b565b6000806040516020810190638da5cb5b60e01b825260048152615e0081611342565b5190845afa90615e0e613bfa565b91158015615e6a575b615e48575060208180518101031261033d576020015190615e378261032c565b6001600160a01b0391821691161490565b60405163915b8f1d60e01b81526001600160a01b039091166004820152602490fd5b506020825110615e17565b90615e7f81615f0e565b60015b818110615e8e57505050565b615e99818385614a35565b600019820190358282116143ff57615eb2828587614a35565b351015615ec85750615ec3906143f0565b615e82565b8183615edc615ee393610f8e959688614a35565b3595614a35565b3560405193849363f48f718f60e01b8552600485016040919493926060820195825260208201520152565b8015615f3e57604b8111615f1f5750565b6044906040519063f80a484560e01b82526004820152604b6024820152fd5b60405163c2e5347d60e01b8152600490fd5b909182811115615f5f57505050565b60405163f48f718f60e01b8152600481019290925260248201929092526044810191909152606490fdfe5e94cc2b8b9fd616c1ffff3497627b534929331e1f3b26d7dc3360464546d50c5e94cc2b8b9fd616c1ffff3497627b534929331e1f3b26d7dc3360464546d5005e94cc2b8b9fd616c1ffff3497627b534929331e1f3b26d7dc3360464546d501360894a13ba1a3210667c828492db98dca3e2076cc3735a920a3ca505d382bbc376c367a1420063e9671cc85404673694901b9db2c20dc84b5acbf060f7ee37a5e94cc2b8b9fd616c1ffff3497627b534929331e1f3b26d7dc3360464546d50b5e94cc2b8b9fd616c1ffff3497627b534929331e1f3b26d7dc3360464546d5155e94cc2b8b9fd616c1ffff3497627b534929331e1f3b26d7dc3360464546d5065e94cc2b8b9fd616c1ffff3497627b534929331e1f3b26d7dc3360464546d50aa2646970667358221220a652df5bd491578dc76ab50c5f6a70f8bd2669050474e0cd6903fad7bb0f4ee064736f6c63430008120033","linkReferences":{"src/marketplace/RareERC1155MarketplacePayments.sol":{"RareERC1155MarketplacePayments":[{"start":9183,"length":20},{"start":10652,"length":20},{"start":13149,"length":20},{"start":13208,"length":20},{"start":13243,"length":20},{"start":13305,"length":20},{"start":20014,"length":20}]},"src/v2/utils/MarketConfigV2.sol":{"MarketConfigV2":[{"start":1502,"length":20},{"start":1728,"length":20},{"start":3099,"length":20},{"start":3785,"length":20},{"start":8290,"length":20},{"start":8900,"length":20},{"start":11645,"length":20},{"start":11862,"length":20},{"start":12481,"length":20},{"start":12791,"length":20},{"start":17047,"length":20}]}}},"methodIdentifiers":{"MAX_BATCH_SIZE()":"cfdbf254","MAX_CHECKOUT_SIZE()":"a3eaf4d9","acceptOffer(address,uint256,address,address,uint256,uint256,address[],uint8[])":"b8e6b50f","buyBatch(address,address,address,(uint256,uint256,uint256)[])":"0a6ce313","cancelMintDirectSales(address,uint256[])":"5e50c42e","cancelOffer(address,uint256,address)":"e92f94d1","cancelSalePrices(address,uint256[])":"2f79f335","checkout((uint8,address,address,address,uint256,uint256,uint256,bytes32[])[])":"2c0c49ee","getCheckoutExecutionModule()":"9400d601","getDirectSaleConfig(address,uint256)":"6e2f4d8b","getERC1155ApprovalManager()":"c7c83d17","getMarketConfig()":"614bd944","getOffer(address,uint256,address,address)":"e3409ce3","getSalePrice(address,uint256,address)":"369679a4","getTokenAllowListConfig(address,uint256)":"bf3d90f8","getTokenMintLimit(address,uint256)":"8760251a","getTokenMintsPerAddress(address,uint256,address)":"28fbba03","getTokenTxLimit(address,uint256)":"552f791d","getTokenTxsPerAddress(address,uint256,address)":"5a501f8f","getTradeExecutionModule()":"ed5b25b5","initialize(address,address,address,address,address,address,address,address,address,address,address,address,address)":"2fdd983d","isPaused()":"b187bd26","makeOffer(address,uint256,address,uint256,uint256,uint256)":"b38df71f","mintDirectSaleBatch(address,address,(uint256,uint256,uint256,bytes32[])[])":"7777e6d7","owner()":"8da5cb5b","prepareMintDirectSales(address,address,(uint256,uint256,uint256,uint256)[],address[],uint8[])":"be542141","proxiableUUID()":"52d1902d","renounceOwnership()":"715018a6","setApprovedTokenRegistry(address)":"e4e87e3b","setCheckoutExecutionModule(address)":"63cf9cef","setContractPaused(bool)":"882796f1","setERC1155ApprovalManager(address)":"ff5c83a4","setERC20ApprovalManager(address)":"d7a9fb7c","setERC721ApprovalManager(address)":"d80b23e3","setMarketplaceSettings(address)":"176ab440","setNetworkBeneficiary(address)":"3492e5a8","setPayments(address)":"af231a58","setRoyaltyEngine(address)":"21ede032","setSalePrices(address,address,(uint256,uint256,uint256,uint256)[],address[],uint8[])":"ff3a52d4","setSpaceOperatorRegistry(address)":"7f358230","setStakingRegistry(address)":"2c740844","setStakingSettings(address)":"f1035744","setTokenAllowListConfigs(address,(uint256,bytes32,uint256)[])":"373a9412","setTokenMintLimits(address,(uint256,uint256)[])":"c7ec1b98","setTokenTxLimits(address,(uint256,uint256)[])":"6442950e","setTradeExecutionModule(address)":"a0f597dd","transferOwnership(address)":"f2fde38b","upgradeTo(address)":"3659cfe6","upgradeToAndCall(address,bytes)":"4f1ef286"},"id":75}