{"abi":[{"type":"constructor","inputs":[],"stateMutability":"nonpayable"},{"type":"function","name":"MAX_BATCH_SIZE","inputs":[],"outputs":[{"name":"","type":"uint256","internalType":"uint256"}],"stateMutability":"view"},{"type":"function","name":"balanceOf","inputs":[{"name":"account","type":"address","internalType":"address"},{"name":"id","type":"uint256","internalType":"uint256"}],"outputs":[{"name":"","type":"uint256","internalType":"uint256"}],"stateMutability":"view"},{"type":"function","name":"balanceOfBatch","inputs":[{"name":"accounts","type":"address[]","internalType":"address[]"},{"name":"ids","type":"uint256[]","internalType":"uint256[]"}],"outputs":[{"name":"","type":"uint256[]","internalType":"uint256[]"}],"stateMutability":"view"},{"type":"function","name":"burn","inputs":[{"name":"account","type":"address","internalType":"address"},{"name":"id","type":"uint256","internalType":"uint256"},{"name":"value","type":"uint256","internalType":"uint256"}],"outputs":[],"stateMutability":"nonpayable"},{"type":"function","name":"burnBatch","inputs":[{"name":"account","type":"address","internalType":"address"},{"name":"ids","type":"uint256[]","internalType":"uint256[]"},{"name":"values","type":"uint256[]","internalType":"uint256[]"}],"outputs":[],"stateMutability":"nonpayable"},{"type":"function","name":"createToken","inputs":[{"name":"_tokenURI","type":"string","internalType":"string"},{"name":"_maxSupply","type":"uint256","internalType":"uint256"}],"outputs":[{"name":"","type":"uint256","internalType":"uint256"}],"stateMutability":"nonpayable"},{"type":"function","name":"disableContract","inputs":[],"outputs":[],"stateMutability":"nonpayable"},{"type":"function","name":"disabled","inputs":[],"outputs":[{"name":"","type":"bool","internalType":"bool"}],"stateMutability":"view"},{"type":"function","name":"exists","inputs":[{"name":"id","type":"uint256","internalType":"uint256"}],"outputs":[{"name":"","type":"bool","internalType":"bool"}],"stateMutability":"view"},{"type":"function","name":"init","inputs":[{"name":"_name","type":"string","internalType":"string"},{"name":"_symbol","type":"string","internalType":"string"},{"name":"_baseURI","type":"string","internalType":"string"},{"name":"_creator","type":"address","internalType":"address"},{"name":"_defaultMinter","type":"address","internalType":"address"}],"outputs":[],"stateMutability":"nonpayable"},{"type":"function","name":"isApprovedForAll","inputs":[{"name":"account","type":"address","internalType":"address"},{"name":"operator","type":"address","internalType":"address"}],"outputs":[{"name":"","type":"bool","internalType":"bool"}],"stateMutability":"view"},{"type":"function","name":"isApprovedMinter","inputs":[{"name":"_address","type":"address","internalType":"address"}],"outputs":[{"name":"","type":"bool","internalType":"bool"}],"stateMutability":"view"},{"type":"function","name":"maxSupplyForToken","inputs":[{"name":"_tokenId","type":"uint256","internalType":"uint256"}],"outputs":[{"name":"","type":"uint256","internalType":"uint256"}],"stateMutability":"view"},{"type":"function","name":"mintBatchTo","inputs":[{"name":"_receiver","type":"address","internalType":"address"},{"name":"_tokenIds","type":"uint256[]","internalType":"uint256[]"},{"name":"_amounts","type":"uint256[]","internalType":"uint256[]"}],"outputs":[],"stateMutability":"nonpayable"},{"type":"function","name":"mintTo","inputs":[{"name":"_receiver","type":"address","internalType":"address"},{"name":"_tokenId","type":"uint256","internalType":"uint256"},{"name":"_amount","type":"uint256","internalType":"uint256"}],"outputs":[{"name":"","type":"uint256","internalType":"uint256"}],"stateMutability":"nonpayable"},{"type":"function","name":"name","inputs":[],"outputs":[{"name":"","type":"string","internalType":"string"}],"stateMutability":"view"},{"type":"function","name":"owner","inputs":[],"outputs":[{"name":"","type":"address","internalType":"address"}],"stateMutability":"view"},{"type":"function","name":"renounceOwnership","inputs":[],"outputs":[],"stateMutability":"nonpayable"},{"type":"function","name":"royaltyInfo","inputs":[{"name":"tokenId","type":"uint256","internalType":"uint256"},{"name":"salePrice","type":"uint256","internalType":"uint256"}],"outputs":[{"name":"","type":"address","internalType":"address"},{"name":"","type":"uint256","internalType":"uint256"}],"stateMutability":"view"},{"type":"function","name":"safeBatchTransferFrom","inputs":[{"name":"from","type":"address","internalType":"address"},{"name":"to","type":"address","internalType":"address"},{"name":"ids","type":"uint256[]","internalType":"uint256[]"},{"name":"amounts","type":"uint256[]","internalType":"uint256[]"},{"name":"data","type":"bytes","internalType":"bytes"}],"outputs":[],"stateMutability":"nonpayable"},{"type":"function","name":"safeTransferFrom","inputs":[{"name":"from","type":"address","internalType":"address"},{"name":"to","type":"address","internalType":"address"},{"name":"id","type":"uint256","internalType":"uint256"},{"name":"amount","type":"uint256","internalType":"uint256"},{"name":"data","type":"bytes","internalType":"bytes"}],"outputs":[],"stateMutability":"nonpayable"},{"type":"function","name":"setApprovalForAll","inputs":[{"name":"operator","type":"address","internalType":"address"},{"name":"approved","type":"bool","internalType":"bool"}],"outputs":[],"stateMutability":"nonpayable"},{"type":"function","name":"setDefaultRoyaltyPercentage","inputs":[{"name":"_percentage","type":"uint256","internalType":"uint256"}],"outputs":[],"stateMutability":"nonpayable"},{"type":"function","name":"setDefaultRoyaltyReceiver","inputs":[{"name":"_receiver","type":"address","internalType":"address"}],"outputs":[],"stateMutability":"nonpayable"},{"type":"function","name":"setMinterApproval","inputs":[{"name":"_minter","type":"address","internalType":"address"},{"name":"_isMinter","type":"bool","internalType":"bool"}],"outputs":[],"stateMutability":"nonpayable"},{"type":"function","name":"supportsInterface","inputs":[{"name":"_interfaceId","type":"bytes4","internalType":"bytes4"}],"outputs":[{"name":"","type":"bool","internalType":"bool"}],"stateMutability":"view"},{"type":"function","name":"symbol","inputs":[],"outputs":[{"name":"","type":"string","internalType":"string"}],"stateMutability":"view"},{"type":"function","name":"tokenCreator","inputs":[{"name":"_tokenId","type":"uint256","internalType":"uint256"}],"outputs":[{"name":"","type":"address","internalType":"address payable"}],"stateMutability":"view"},{"type":"function","name":"totalMintedForToken","inputs":[{"name":"_tokenId","type":"uint256","internalType":"uint256"}],"outputs":[{"name":"","type":"uint256","internalType":"uint256"}],"stateMutability":"view"},{"type":"function","name":"totalSupply","inputs":[{"name":"id","type":"uint256","internalType":"uint256"}],"outputs":[{"name":"","type":"uint256","internalType":"uint256"}],"stateMutability":"view"},{"type":"function","name":"transferOwnership","inputs":[{"name":"newOwner","type":"address","internalType":"address"}],"outputs":[],"stateMutability":"nonpayable"},{"type":"function","name":"updateTokenURI","inputs":[{"name":"_tokenId","type":"uint256","internalType":"uint256"},{"name":"_tokenURI","type":"string","internalType":"string"}],"outputs":[],"stateMutability":"nonpayable"},{"type":"function","name":"uri","inputs":[{"name":"_tokenId","type":"uint256","internalType":"uint256"}],"outputs":[{"name":"","type":"string","internalType":"string"}],"stateMutability":"view"},{"type":"event","name":"ApprovalForAll","inputs":[{"name":"account","type":"address","indexed":true,"internalType":"address"},{"name":"operator","type":"address","indexed":true,"internalType":"address"},{"name":"approved","type":"bool","indexed":false,"internalType":"bool"}],"anonymous":false},{"type":"event","name":"ContractDisabled","inputs":[{"name":"user","type":"address","indexed":true,"internalType":"address"}],"anonymous":false},{"type":"event","name":"Initialized","inputs":[{"name":"version","type":"uint8","indexed":false,"internalType":"uint8"}],"anonymous":false},{"type":"event","name":"MinterApprovalUpdated","inputs":[{"name":"minter","type":"address","indexed":true,"internalType":"address"},{"name":"isMinter","type":"bool","indexed":false,"internalType":"bool"}],"anonymous":false},{"type":"event","name":"OwnershipTransferred","inputs":[{"name":"previousOwner","type":"address","indexed":true,"internalType":"address"},{"name":"newOwner","type":"address","indexed":true,"internalType":"address"}],"anonymous":false},{"type":"event","name":"TokenCreated","inputs":[{"name":"tokenId","type":"uint256","indexed":true,"internalType":"uint256"},{"name":"creator","type":"address","indexed":true,"internalType":"address"},{"name":"maxSupply","type":"uint256","indexed":false,"internalType":"uint256"},{"name":"tokenURI","type":"string","indexed":false,"internalType":"string"}],"anonymous":false},{"type":"event","name":"TransferBatch","inputs":[{"name":"operator","type":"address","indexed":true,"internalType":"address"},{"name":"from","type":"address","indexed":true,"internalType":"address"},{"name":"to","type":"address","indexed":true,"internalType":"address"},{"name":"ids","type":"uint256[]","indexed":false,"internalType":"uint256[]"},{"name":"values","type":"uint256[]","indexed":false,"internalType":"uint256[]"}],"anonymous":false},{"type":"event","name":"TransferSingle","inputs":[{"name":"operator","type":"address","indexed":true,"internalType":"address"},{"name":"from","type":"address","indexed":true,"internalType":"address"},{"name":"to","type":"address","indexed":true,"internalType":"address"},{"name":"id","type":"uint256","indexed":false,"internalType":"uint256"},{"name":"value","type":"uint256","indexed":false,"internalType":"uint256"}],"anonymous":false},{"type":"event","name":"URI","inputs":[{"name":"value","type":"string","indexed":false,"internalType":"string"},{"name":"id","type":"uint256","indexed":true,"internalType":"uint256"}],"anonymous":false},{"type":"error","name":"AmountCannotBeZero","inputs":[]},{"type":"error","name":"BatchLengthMismatch","inputs":[]},{"type":"error","name":"BatchSizeExceeded","inputs":[{"name":"supplied","type":"uint256","internalType":"uint256"},{"name":"max","type":"uint256","internalType":"uint256"}]},{"type":"error","name":"CallerCannotMint","inputs":[{"name":"_caller","type":"address","internalType":"address"}]},{"type":"error","name":"ContractIsDisabled","inputs":[]},{"type":"error","name":"EmptyBatch","inputs":[]},{"type":"error","name":"ExceededMaxSupply","inputs":[{"name":"_tokenId","type":"uint256","internalType":"uint256"},{"name":"_requestedTotalMinted","type":"uint256","internalType":"uint256"},{"name":"_maxSupply","type":"uint256","internalType":"uint256"}]},{"type":"error","name":"MaxSupplyCannotBeZero","inputs":[]},{"type":"error","name":"RoyaltyPercentageTooHigh","inputs":[{"name":"supplied","type":"uint256","internalType":"uint256"},{"name":"max","type":"uint256","internalType":"uint256"}]},{"type":"error","name":"TokenDoesNotExist","inputs":[{"name":"_tokenId","type":"uint256","internalType":"uint256"}]},{"type":"error","name":"TokenIdsNotStrictlyAscending","inputs":[{"name":"tokenId","type":"uint256","internalType":"uint256"}]},{"type":"error","name":"ZeroAddressUnsupported","inputs":[]}],"bytecode":{"object":"0x608080604052346100c2576000549060ff8260081c16610070575060ff80821603610035575b6040516132d49081620000c88239f35b60ff90811916176000557f7f26b83ff96e1f2b6a682f133852f6798a09c465da95921460cefb3847402498602060405160ff8152a138610025565b62461bcd60e51b815260206004820152602760248201527f496e697469616c697a61626c653a20636f6e747261637420697320696e697469604482015266616c697a696e6760c81b6064820152608490fd5b600080fdfe6080604052600436101561001257600080fd5b60003560e01c8062fdd58e146123d757806301ffc9a71461231d57806306fdde031461228b5780630de54ba0146122075780630e89341c1461208557806318e97fd114611f025780632a55205a14611e3e5780632baf2acb14611dcd5780632eb2c2d614611a055780633512639c146119855780633a3d146f146119455780633ebc82c51461190c57806340c1a064146118d75780634e1273f4146117395780634f558e791461170b5780636b20c454146114c3578063715018a61461146657806372b3b620146111f6578063894ba833146111a75780638da5cb5b1461117e57806395d89b41146110ab578063a22cb46514610fd4578063a7eae21c14610917578063bd85b039146108eb578063c33ae88f146108be578063cfdbf254146108a2578063e27a41bf14610852578063e985e9c5146107fc578063ee070805146107d8578063f242432a14610442578063f2fde38b146103b5578063f5298aca146101b85763ffd25aa41461018657600080fd5b346101b35760203660031901126101b3576004356000526101636020526020604060002054604051908152f35b600080fd5b346101b3576101c636612557565b6001600160a01b039092169190338314801561038c575b6101e690612835565b8215926101f38415612b4f565b6101fc82612b2a565b9161020684612b2a565b9460006040516102158161247f565b52610338575b60005b83518110156102b9576102318185612821565b5161023c8288612821565b51908060005260fb6020818152604060002054928484106102755790610270959493929160005252036040600020556127ef565b61021e565b60405162461bcd60e51b8152600481018390526028602482015260008051602061327f833981519152604482015267616c537570706c7960c01b6064820152608490fd5b60008383878184526097602052604084208385526020528060408520546102e282821015612ba7565b83865260976020526040862085875260205203604085205560405191825260208201527fc3d58168c5ae7397731d063d5bbf3d657854427343f4c083240f7aacaa2d0f6260403392a461033660405161247f565b005b929060005b8351811015610384578061035461037f9288612821565b5161035f8287612821565b5160005260fb6020526103786040600020918254612951565b90556127ef565b61033d565b50909261021b565b508260005260986020526040600020336000526020526101e660ff6040600020541690506101dd565b346101b35760203660031901126101b3576103ce6123fe565b6103d66126c9565b6001600160a01b038116156103ee5761033690612721565b60405162461bcd60e51b815260206004820152602660248201527f4f776e61626c653a206e6577206f776e657220697320746865207a65726f206160448201526564647265737360d01b6064820152608490fd5b346101b35760a03660031901126101b35761045b6123fe565b610463612414565b90608480356001600160401b0381116101b35761048490369060040161264a565b6001600160a01b039190838316331480156107ad575b6104a390612835565b828516156104b18115612898565b6104bc604435612b2a565b6104c7606435612b2a565b918587161561076d575b6106bf575b505060443560005260209460978652604060002084861660005286526040600020546105066064358210156128f2565b60443560005260978752604060002085871660005287526064359003604060002055604435600052609786526040600020848216600052865260406000206105516064358254612951565b905560405160443581526064358782015284821690858716907fc3d58168c5ae7397731d063d5bbf3d657854427343f4c083240f7aacaa2d0f6260403392a4803b61059857005b60a060006105e2958895604051978896879586938563f23a6e6160e01b9d8e87523360048801521660248601526044356044860152606435606486015284015260a48301906124bb565b0393165af160009181610690575b50610666575050600190610602612a49565b6308c379a014610631575b5061061457005b60405162461bcd60e51b81528061062d60048201612ad5565b0390fd5b610639612a67565b9081610645575061060d565b61062d60405192839262461bcd60e51b8452600484015260248301906124bb565b6001600160e01b0319161490506103365760405162461bcd60e51b81528061062d60048201612a00565b6106b1919250843d86116106b8575b6106a9818361249a565b8101906129e0565b90846105f0565b503d61069f565b92959194909360005b845181101561075e576106db8186612821565b51906106e78188612821565b518260005260fb60205260406000205481811061071b576107169360005260fb602052036040600020556127ef565b6106c8565b60405162461bcd60e51b8152602060048201526028602482015260008051602061327f833981519152604482015267616c537570706c7960c01b60648201528b90fd5b509350939094915085806104d6565b959260009794919592975b865181101561079f578061078f61079a928b612821565b5161035f828a612821565b610778565b5092959691949093966104d1565b5082841660005260986020526040600020336000526020526104a360ff60406000205416905061049a565b346101b35760003660031901126101b357602060ff61016154166040519015158152f35b346101b35760403660031901126101b3576108156123fe565b61081d612414565b9060018060a01b03809116600052609860205260406000209116600052602052602060ff604060002054166040519015158152f35b346101b35760203660031901126101b35761086b6126c9565b60ff6101615416610890576101675461033690600435906001600160a01b0316613120565b604051637abbf1c960e01b8152600490fd5b346101b35760003660031901126101b357602060405160648152f35b346101b35760203660031901126101b3576004356000526101666020526020604060002054604051908152f35b346101b35760203660031901126101b35760043560005260fb6020526020604060002054604051908152f35b346101b35760a03660031901126101b3576004356001600160401b0381116101b35761094790369060040161252a565b906024356001600160401b0381116101b35761096790369060040161252a565b6044356001600160401b0381116101b35761098690369060040161252a565b90929091906064356001600160a01b03811690036101b357608435956001600160a01b03871687036101b3576000549560ff8760081c161596878098610fc7575b8015610fb0575b15610f545760ff19811660011760005587610f42575b506064356001600160a01b031615610f30576001600160401b038211610d38578190610a1261015f5461242a565b601f8111610ec2575b50600090601f8311600114610e3957600092610e2e575b50508160011b916000199060031b1c19161761015f555b6001600160401b038211610d3857610a636101605461242a565b601f8111610dcc575b50600090601f8311600114610d5957610ad79493929160009183610d4e575b50508160011b916000199060031b1c191617610160555b61016160ff198154169055610ac760ff60005460081c16610ac281612c53565b612c53565b610ad033612721565b3691612604565b91610aed60ff60005460081c16610ac281612c53565b82516001600160401b038111610d3857610b0860995461242a565b601f8111610cd3575b506020601f8211600114610c6c5781929394600092610c61575b50508160011b916000199060031b1c1916176099555b610b5f60ff60005460081c16610b5681612c53565b610ac281612c53565b61016780546001600160a01b0319166064356001600160a01b0316179055600a610168556040516103e890602090610b9681612464565b6001600160a01b0360643581168083529290910192909252607d60a31b1761012d558116610c09575b50610bcb606435612721565b610bd157005b61ff0019600054166000557f7f26b83ff96e1f2b6a682f133852f6798a09c465da95921460cefb3847402498602060405160018152a1005b6001600160a01b031660008181526101656020908152604091829020805460ff1916600190811790915591519182527f88cb6d0a56ba73e5f130e544fa6649e4173e9051add4f3fc61b46502074b44b591a281610bbf565b015190508480610b2b565b601f198216906099600052806000209160005b818110610cbb57509583600195969710610ca2575b505050811b01609955610b41565b015160001960f88460031b161c19169055848080610c94565b9192602060018192868b015181550194019201610c7f565b60996000527f72a152ddfb8e864297c917af52ea6c1c68aead0fee1a62673fcc7e0c94979d00601f830160051c81019160208410610d2e575b601f0160051c01905b818110610d225750610b11565b60008155600101610d15565b9091508190610d0c565b634e487b7160e01b600052604160045260246000fd5b013590508780610a8b565b61016060005260206000209160005b601f1985168110610db45750918391600193610ad7979695601f19811610610d9a575b505050811b0161016055610aa2565b0135600019600384901b60f8161c19169055878080610d8b565b90926020600181928686013581550194019101610d68565b6101606000527fec7e130cdeeae65215fabbcddb1de429e603c4887cc659532eda903e49339663601f840160051c810160208510610e27575b601f830160051c82018110610e1b575050610a6c565b60008155600101610e05565b5080610e05565b013590508880610a32565b61015f600090815293507f8c9815a58669fc89297bdc7dd447c098116f98e79093735c0992d0967b696ed9915b601f1984168510610eaa576001945083601f19811610610e90575b505050811b0161015f55610a49565b0135600019600384901b60f8161c19169055888080610e81565b81810135835560209485019460019093019201610e66565b61015f6000529091507f8c9815a58669fc89297bdc7dd447c098116f98e79093735c0992d0967b696ed9601f840160051c810160208510610f29575b90849392915b601f830160051c82018110610f1a575050610a1b565b60008155859450600101610f04565b5080610efe565b604051637827912560e01b8152600490fd5b61ffff191661010117600055886109e4565b60405162461bcd60e51b815260206004820152602e60248201527f496e697469616c697a61626c653a20636f6e747261637420697320616c72656160448201526d191e481a5b9a5d1a585b1a5e995960921b6064820152608490fd5b50303b1580156109ce5750600160ff8216146109ce565b50600160ff8216106109c7565b346101b357610fe2366124fb565b6001600160a01b0390911690338214611054573360005260986020526040600020826000526020526110248160406000209060ff801983541691151516179055565b60405190151581527f17307eab39ab6107e8899845ad3d59bd9653f200f220920489ca2b5937696c3160203392a3005b60405162461bcd60e51b815260206004820152602960248201527f455243313135353a2073657474696e6720617070726f76616c20737461747573604482015268103337b91039b2b63360b91b6064820152608490fd5b346101b35760003660031901126101b3576040516000906101608054906110d18261242a565b9081845260019283811690816000146111565750600114611115575b611111846110fd8188038261249a565b6040519182916020835260208301906124bb565b0390f35b90935060005260209283600020916000925b8284106111435750505081611111936110fd92820101936110ed565b8054858501870152928501928101611127565b61111196506110fd9450602092508593915060ff191682840152151560051b820101936110ed565b346101b35760003660031901126101b3576033546040516001600160a01b039091168152602090f35b346101b35760003660031901126101b3576111c06126c9565b610161805460ff19166001179055337f793bc6423dd0257d64f9d47db72fd4b2162f4541aa41740ba1c5fb5e2cd41bcd600080a2005b346101b35760403660031901126101b3576001600160401b036004358181116101b35761122790369060040161252a565b61122f6126c9565b60ff61016154166108905760243515611454576101629161125083546127ef565b809355604051906060820182811086821117610d38576040526024358252611279368483612604565b6020830190815260016040840152846000526101636020526040600020908351825551928351968711610d38578686946112c56020996112bc600187015461242a565b60018701612bff565b8890601f83116001146113b55760407f7775d6ac27837184534d17b6cdcdcc82f564fa44d02ec9e6a2efa2aee69fe58196948461133b9561139f98956002956000926113aa575b50508160011b916000199060031b1c19161760018501555b0151151591019060ff801983541691151516179055565b6000848152610164885260409081902080546001600160a01b0319163317905551878152849060008051602061325f833981519152908061137f818c018a876130ff565b0390a26040519182916024358352604089840152339660408401916130ff565b0390a3604051908152f35b015190508e8061130c565b9060018501600052896000209160005b601f198516811061143a57507f7775d6ac27837184534d17b6cdcdcc82f564fa44d02ec9e6a2efa2aee69fe581969460018561139f989560029560409561133b99601f19811610611421575b505050811b016001850155611324565b015160001960f88460031b161c191690558e8080611411565b8183015184558a9850600190930192918b01918b016113c5565b604051631dd0e19360e01b8152600490fd5b346101b35760003660031901126101b35761147f6126c9565b603380546001600160a01b031981169091556000906001600160a01b03167f8be0079c531659141344cd1fd0a4f28419497f9722a3daafe3b4186f6b6457e08280a3005b346101b35760603660031901126101b3576114dc6123fe565b6024906001600160401b039082358281116101b3576114ff9036906004016125e6565b9160449081359081116101b35761151a9036906004016125e6565b6001600160a01b039092169233841480156116e2575b61153990612835565b83156115458115612b4f565b611552825185511461295e565b60006040516115608161247f565b526116aa575b60005b81518110156116025761157c8183612821565b516115878286612821565b51908060005260fb6020818152604060002054928484106115c057906115bb959493929160005252036040600020556127ef565b611569565b60405162461bcd60e51b8152600481018390526028818d015260008051602061327f833981519152818a015267616c537570706c7960c01b6064820152608490fd5b83828660005b8251811015611677578061161f6116729285612821565b5161162a8287612821565b519080600052609760209080825260406000208760005282526040600020549261165685851015612ba7565b60005281526040600020908660005252036040600020556127ef565b611608565b509060008051602061323f83398151915261169c6000946040519182913395836129bb565b0390a461033660405161247f565b9260009491945b84518110156116d857806116c86116d39286612821565b5161035f8288612821565b6116b1565b5092939093611566565b5083600052609860205260406000203360005260205261153960ff604060002054169050611530565b346101b35760203660031901126101b35760043560005260fb60205260206040600020541515604051908152f35b346101b35760403660031901126101b3576004356001600160401b038082116101b357366023830112156101b35781600401359061177682612581565b92611784604051948561249a565b82845260209260248486019160051b830101913683116101b357602401905b8282106118b8575050506024359081116101b3576117c59036906004016125e6565b8251815103611861578251926117da84612581565b936117e8604051958661249a565b8085526117f7601f1991612581565b01368486013760005b815181101561184a57611845906118356001600160a01b036118228386612821565b511661182e8387612821565b519061276a565b61183f8288612821565b526127ef565b611800565b505050611111604051928284938452830190612695565b60405162461bcd60e51b815260048101839052602960248201527f455243313135353a206163636f756e747320616e6420696473206c656e677468604482015268040dad2e6dac2e8c6d60bb1b6064820152608490fd5b81356001600160a01b03811681036101b35781529084019084016117a3565b346101b35760203660031901126101b357600435600052610164602052602060018060a01b0360406000205416604051908152f35b346101b35760203660031901126101b3576119256123fe565b61192d6126c9565b60ff6101615416610890576101685461033691613120565b346101b35760203660031901126101b3576001600160a01b036119666123fe565b16600052610165602052602060ff604060002054166040519015158152f35b346101b35760603660031901126101b35761199e6123fe565b6001600160401b03906024358281116101b3576119bf903690600401612665565b926044359081116101b3576119d8903690600401612665565b919060ff6101615416610890576119f76119ff92610336963691612598565b923691612598565b91612cb3565b346101b35760031960a0368201126101b357611a1f6123fe565b90611a28612414565b6044908135926001600160401b03938481116101b357611a4c9036906004016125e6565b606480358681116101b357611a659036906004016125e6565b9460849687359081116101b357611a8090369060040161264a565b6001600160a01b039489861633148015611da2575b611a9e90612835565b611aab855189511461295e565b85871615611ab98115612898565b868b1615611d5f575b611caa575b60005b8551811015611b5f5780611ae1611b5a9288612821565b518c611aed838d612821565b519180600052609790838c6020948486526040600020828216600052865260406000205491611b1e848410156128f2565b846000528587526040600020911660005285520360406000205560005281526040600020908a8c16600052526103786040600020918254612951565b611aca565b50888a9897969497896040518860008051602061323f83398151915289808d1694169280611b8f873395836129bb565b0390a4873b611b9a57005b60405198899788968863bc197c8160e01b9d8e8a523360048b0152166024890152870160a0905260a48701611bce91612695565b90848783030190870152611be191612695565b918483030190840152611bf3916124bb565b03921691815a602094600091f160009181611c8a575b50611c625750506001611c1a612a49565b6308c379a014611c2b575b61061457005b611c33612a67565b80611c3e5750611c25565b60405162461bcd60e51b81526020600482015290819061062d9060248301906124bb565b6001600160e01b031916146103365760405162461bcd60e51b81528061062d60048201612a00565b611ca391925060203d81116106b8576106a9818361249a565b9083611c09565b9796949060009993999692965b8551811015611d4f57611cca8187612821565b51611cd58289612821565b519080600052602060fb815260406000205491838310611d0e57611d099493929160fb9160005252036040600020556127ef565b611cb7565b508b9067616c537570706c7960c01b8f60008051602061327f8339815191528e6040519462461bcd60e51b8652600486015260286024860152840152820152fd5b5090949697989298959195611ac7565b99969498959392919060005b8a51811015611d9357808b61035f82611d87611d8e958f612821565b5192612821565b611d6b565b50909192939598949699611ac2565b50858a166000526098602052604060002033600052602052611a9e60ff604060002054169050611a95565b346101b357611ddb36612557565b9160ff610161541661089057602092611e369160405190611dfb82612464565b6001825285368184013760405192611e1284612464565b6001845286368186013785611e26846127fe565b52611e30846127fe565b52612cb3565b604051908152f35b346101b35760403660031901126101b35760243560043560005261012e60205260406000209060405191611e7183612464565b546001600160a01b0380821680855260a09290921c6020850152929015611edf575b6001600160601b0360208201511691828102928184041490151715611ec957604092612710915116918351928352046020820152f35b634e487b7160e01b600052601160045260246000fd5b50604051611eec81612464565b61012d54838116825260a01c6020820152611e93565b346101b35760403660031901126101b3576004356001600160401b036024358181116101b357611f3690369060040161252a565b9190611f406126c9565b60ff610161541661089057836000526101639160209280845260ff600260406000200154161561206c57856000528352600180604060002001918511610d3857611f9485611f8e845461242a565b84612bff565b6000601f8611600114611ff55791858060008051602061325f83398151915297969593611fe595600093611fea575b501b906000198760031b1c19161790555b6040519383859485528401916130ff565b0390a2005b85013592508a611fc3565b601f1986169083600052856000209160005b818110612057575091879695939160008051602061325f83398151915298611fe596941061203d575b505085811b019055611fd4565b840135600019600389901b60f8161c191690558880612030565b86830135845592840192918701918701612007565b60405163c927e5bf60e01b815260048101879052602490fd5b346101b3576020806003193601126101b3576004356000526101638152600180604060002001908260405180936000908054906120c18261242a565b808552918681169081156121e657506001146121a5575b50506120e69250038361249a565b8151156121045750905b6111116040519282849384528301906124bb565b905060405190600090836099549161211b8361242a565b9283865285828216918260001461218557505060011461214b575b5050508161214591038261249a565b906120f0565b91909250609960005282600020916000925b82841061217257505050820101818385612136565b805486850186015292840192810161215d565b60ff19168482015293151560051b84019092019350859150869050612136565b9091506000528260002090846000925b8284106121cf57505050916120e6928201018592876120d8565b8054888501870152879450928501928691016121b5565b9150506120e694925060ff191682840152151560051b8201018592876120d8565b346101b357612215366124fb565b9061221e6126c9565b60ff6101615416610890576001600160a01b0316908115610f305760207f88cb6d0a56ba73e5f130e544fa6649e4173e9051add4f3fc61b46502074b44b5918360005261016582526122808160406000209060ff801983541691151516179055565b6040519015158152a2005b346101b35760003660031901126101b35760405160009061015f8054906122b18261242a565b90818452600192838116908160001461115657506001146122dc57611111846110fd8188038261249a565b90935060005260209283600020916000925b82841061230a5750505081611111936110fd92820101936110ed565b80548585018701529285019281016122ee565b346101b35760203660031901126101b35760043563ffffffff60e01b81168091036101b3576020906306380de360e31b81149081156123c6575b8115612369575b506040519015158152f35b63152a902d60e11b811491508115612383575b508261235e565b636cdb3d1360e11b8114915081156123b5575b81156123a4575b508261237c565b6301ffc9a760e01b1490508261239d565b6303a24d0760e21b81149150612396565b631030681960e21b81149150612357565b346101b35760403660031901126101b3576020611e366123f56123fe565b6024359061276a565b600435906001600160a01b03821682036101b357565b602435906001600160a01b03821682036101b357565b90600182811c9216801561245a575b602083101461244457565b634e487b7160e01b600052602260045260246000fd5b91607f1691612439565b604081019081106001600160401b03821117610d3857604052565b602081019081106001600160401b03821117610d3857604052565b90601f801991011681019081106001600160401b03821117610d3857604052565b919082519283825260005b8481106124e7575050826000602080949584010152601f8019910116010190565b6020818301810151848301820152016124c6565b60409060031901126101b3576004356001600160a01b03811681036101b3579060243580151581036101b35790565b9181601f840112156101b3578235916001600160401b0383116101b357602083818601950101116101b357565b60609060031901126101b3576004356001600160a01b03811681036101b357906024359060443590565b6001600160401b038111610d385760051b60200190565b92916125a382612581565b916125b1604051938461249a565b829481845260208094019160051b81019283116101b357905b8282106125d75750505050565b813581529083019083016125ca565b9080601f830112156101b35781602061260193359101612598565b90565b9291926001600160401b038211610d38576040519161262d601f8201601f19166020018461249a565b8294818452818301116101b3578281602093846000960137010152565b9080601f830112156101b35781602061260193359101612604565b9181601f840112156101b3578235916001600160401b0383116101b3576020808501948460051b0101116101b357565b90815180825260208080930193019160005b8281106126b5575050505090565b8351855293810193928101926001016126a7565b6033546001600160a01b031633036126dd57565b606460405162461bcd60e51b815260206004820152602060248201527f4f776e61626c653a2063616c6c6572206973206e6f7420746865206f776e65726044820152fd5b603380546001600160a01b039283166001600160a01b0319821681179092559091167f8be0079c531659141344cd1fd0a4f28419497f9722a3daafe3b4186f6b6457e0600080a3565b6001600160a01b031690811561279757600052609760205260406000209060005260205260406000205490565b60405162461bcd60e51b815260206004820152602a60248201527f455243313135353a2061646472657373207a65726f206973206e6f742061207660448201526930b634b21037bbb732b960b11b6064820152608490fd5b6000198114611ec95760010190565b80511561280b5760200190565b634e487b7160e01b600052603260045260246000fd5b805182101561280b5760209160051b010190565b1561283c57565b60405162461bcd60e51b815260206004820152602e60248201527f455243313135353a2063616c6c6572206973206e6f7420746f6b656e206f776e60448201526d195c881bdc88185c1c1c9bdd995960921b6064820152608490fd5b1561289f57565b60405162461bcd60e51b815260206004820152602560248201527f455243313135353a207472616e7366657220746f20746865207a65726f206164604482015264647265737360d81b6064820152608490fd5b156128f957565b60405162461bcd60e51b815260206004820152602a60248201527f455243313135353a20696e73756666696369656e742062616c616e636520666f60448201526939103a3930b739b332b960b11b6064820152608490fd5b91908201809211611ec957565b1561296557565b60405162461bcd60e51b815260206004820152602860248201527f455243313135353a2069647320616e6420616d6f756e7473206c656e677468206044820152670dad2e6dac2e8c6d60c31b6064820152608490fd5b90916129d261260193604084526040840190612695565b916020818403910152612695565b908160209103126101b357516001600160e01b0319811681036101b35790565b60809060208152602860208201527f455243313135353a204552433131353552656365697665722072656a656374656040820152676420746f6b656e7360c01b60608201520190565b60009060033d11612a5657565b905060046000803e60005160e01c90565b600060443d1061260157604051600319913d83016004833e81516001600160401b03918282113d602484011117612ac457818401948551938411612acc573d85010160208487010111612ac457506126019291016020019061249a565b949350505050565b50949350505050565b60809060208152603460208201527f455243313135353a207472616e7366657220746f206e6f6e2d455243313135356040820152732932b1b2b4bb32b91034b6b83632b6b2b73a32b960611b60608201520190565b60405190612b3782612464565b6001825260203681840137612b4b826127fe565b5290565b15612b5657565b60405162461bcd60e51b815260206004820152602360248201527f455243313135353a206275726e2066726f6d20746865207a65726f206164647260448201526265737360e81b6064820152608490fd5b15612bae57565b60405162461bcd60e51b8152602060048201526024808201527f455243313135353a206275726e20616d6f756e7420657863656564732062616c604482015263616e636560e01b6064820152608490fd5b90601f8111612c0d57505050565b600091825260208220906020601f850160051c83019410612c49575b601f0160051c01915b828110612c3e57505050565b818155600101612c32565b9092508290612c29565b15612c5a57565b60405162461bcd60e51b815260206004820152602b60248201527f496e697469616c697a61626c653a20636f6e7472616374206973206e6f74206960448201526a6e697469616c697a696e6760a81b6064820152608490fd5b90916001600160a01b038083169291908315610f305760335416331415806130e5575b6130cd578351156130bb5783518151036130a95783519260649384811161308b575060015b8551811015612d7157612d0e8187612821565b516000198201828111612d5c57612d259088612821565b511015612d3a57612d35906127ef565b612cfb565b612d4660249187612821565b5160405190636a671dfb60e11b82526004820152fd5b60246000634e487b7160e01b81526011600452fd5b509493909192946000945b8251861015612e6357612d8f8684612821565b519586600052610163602081815260409060ff60028360002001541615612e4b57612dba8489612821565b5115612e3a578960005261016690818152612de48360002054612ddd878c612821565b5190612951565b938b60005281528260002054808511612e185750612e0e95969798999a60005252600020556127ef565b9493929190612d7c565b8b8d9186865192630d6f5ed560e11b8452600484015260248301526044820152fd5b815163d11b25af60e01b8152600490fd5b815163c927e5bf60e01b8152600481018b9052602490fd5b92919390959450604092835195612e798761247f565b60008752612e8a865185511461295e565b60005b8651811015612ecc5780612ea4612ec79287612821565b51612eaf828a612821565b5160005260fb60205261037888600020918254612951565b612e8d565b5090919560005b8651811015612f1d5780612eea612f189287612821565b51612ef5828a612821565b5160005260206097815288600020908c6000525261037888600020918254612951565b612ed3565b509196909395816000885160008051602061323f833981519152339180612f458a8d836129bb565b0390a43b612f56575b505050505050565b612fa96000602094612fb8895197889687958694612f9663bc197c8160e01b9d8e885233600489015288602489015260a0604489015260a4880190612695565b9060031994858884030190880152612695565b918483030160848501526124bb565b03925af16000918161306b575b5061303f5750506001612fd6612a49565b6308c379a014613009575b612ff257505b388080808080612f4e565b5162461bcd60e51b81528061062d60048201612ad5565b613011612a67565b8061301c5750612fe1565b825162461bcd60e51b81526020600482015290819061062d9060248301906124bb565b6001600160e01b031916036130545750612fe7565b5162461bcd60e51b81528061062d60048201612a00565b61308491925060203d81116106b8576106a9818361249a565b9038612fc5565b604490856040519163f80a484560e01b835260048301526024820152fd5b6040516305f8ded760e21b8152600490fd5b60405163c2e5347d60e01b8152600490fd5b60405163fc8b94cd60e01b8152336004820152602490fd5b503360005261016560205260ff6040600020541615612cd6565b908060209392818452848401376000828201840152601f01601f1916010190565b6001600160a01b0390811691908215610f30576064821161321e5760018060a01b03199261016781858254161790558261016855606483029280840460641490151715611ec9576001600160601b0383169061271082116131c6576131b491602060405161318d81612464565b838152015261012d80546001600160a01b0319166001600160a01b03909216919091179055565b61012d9283549260a01b169116179055565b60405162461bcd60e51b815260206004820152602a60248201527f455243323938313a20726f79616c7479206665652077696c6c206578636565646044820152692073616c65507269636560b01b6064820152608490fd5b604051637bbc1b3760e11b81526004810183905260646024820152604490fdfe4a39dc06d4c0dbc64b70af90fd698a233a518aa5d07e595d983b8c0526c8f7fb6bb7ff708619ba0610cba295a58592e0451dee2622938c8755667688daf3529b455243313135353a206275726e20616d6f756e74206578636565647320746f74a26469706673582212204ca4ff283ff7cda1cad3d691ee2843143f55cef369b79a0c13172ba44fe5a53564736f6c63430008120033","linkReferences":{}},"methodIdentifiers":{"MAX_BATCH_SIZE()":"cfdbf254","balanceOf(address,uint256)":"00fdd58e","balanceOfBatch(address[],uint256[])":"4e1273f4","burn(address,uint256,uint256)":"f5298aca","burnBatch(address,uint256[],uint256[])":"6b20c454","createToken(string,uint256)":"72b3b620","disableContract()":"894ba833","disabled()":"ee070805","exists(uint256)":"4f558e79","init(string,string,string,address,address)":"a7eae21c","isApprovedForAll(address,address)":"e985e9c5","isApprovedMinter(address)":"3a3d146f","maxSupplyForToken(uint256)":"ffd25aa4","mintBatchTo(address,uint256[],uint256[])":"3512639c","mintTo(address,uint256,uint256)":"2baf2acb","name()":"06fdde03","owner()":"8da5cb5b","renounceOwnership()":"715018a6","royaltyInfo(uint256,uint256)":"2a55205a","safeBatchTransferFrom(address,address,uint256[],uint256[],bytes)":"2eb2c2d6","safeTransferFrom(address,address,uint256,uint256,bytes)":"f242432a","setApprovalForAll(address,bool)":"a22cb465","setDefaultRoyaltyPercentage(uint256)":"e27a41bf","setDefaultRoyaltyReceiver(address)":"3ebc82c5","setMinterApproval(address,bool)":"0de54ba0","supportsInterface(bytes4)":"01ffc9a7","symbol()":"95d89b41","tokenCreator(uint256)":"40c1a064","totalMintedForToken(uint256)":"c33ae88f","totalSupply(uint256)":"bd85b039","transferOwnership(address)":"f2fde38b","updateTokenURI(uint256,string)":"18e97fd1","uri(uint256)":"0e89341c"},"id":83}