{"abi":[{"type":"receive","stateMutability":"payable"},{"type":"function","name":"auctionBids","inputs":[{"name":"","type":"address","internalType":"address"},{"name":"","type":"uint256","internalType":"uint256"}],"outputs":[{"name":"bidder","type":"address","internalType":"address"},{"name":"amount","type":"uint128","internalType":"uint128"},{"name":"marketplaceFeeAtTime","type":"uint8","internalType":"uint8"}],"stateMutability":"view"},{"type":"function","name":"auctionLengthExtension","inputs":[],"outputs":[{"name":"","type":"uint256","internalType":"uint256"}],"stateMutability":"view"},{"type":"function","name":"bid","inputs":[{"name":"_originContract","type":"address","internalType":"address"},{"name":"_tokenId","type":"uint256","internalType":"uint256"},{"name":"_currencyAddress","type":"address","internalType":"address"},{"name":"_amount","type":"uint128","internalType":"uint128"}],"outputs":[],"stateMutability":"payable"},{"type":"function","name":"bidWithAuctionMerkleProof","inputs":[{"name":"_currencyAddress","type":"address","internalType":"address"},{"name":"_originContract","type":"address","internalType":"address"},{"name":"_tokenId","type":"uint256","internalType":"uint256"},{"name":"_creator","type":"address","internalType":"address"},{"name":"_merkleRoot","type":"bytes32","internalType":"bytes32"},{"name":"_bidAmount","type":"uint128","internalType":"uint128"},{"name":"_proof","type":"bytes32[]","internalType":"bytes32[]"}],"outputs":[],"stateMutability":"payable"},{"type":"function","name":"cancelAuctionMerkleRoot","inputs":[{"name":"_root","type":"bytes32","internalType":"bytes32"}],"outputs":[],"stateMutability":"nonpayable"},{"type":"function","name":"creatorRootToConfig","inputs":[{"name":"","type":"address","internalType":"address"},{"name":"","type":"bytes32","internalType":"bytes32"}],"outputs":[{"name":"currency","type":"address","internalType":"address"},{"name":"startingAmount","type":"uint128","internalType":"uint128"},{"name":"duration","type":"uint64","internalType":"uint64"},{"name":"nonce","type":"uint32","internalType":"uint32"}],"stateMutability":"view"},{"type":"function","name":"getAuctionDetails","inputs":[{"name":"_originContract","type":"address","internalType":"address"},{"name":"_tokenId","type":"uint256","internalType":"uint256"}],"outputs":[{"name":"","type":"address","internalType":"address"},{"name":"","type":"uint32","internalType":"uint32"},{"name":"","type":"uint64","internalType":"uint64"},{"name":"","type":"uint64","internalType":"uint64"},{"name":"","type":"address","internalType":"address"},{"name":"","type":"uint128","internalType":"uint128"},{"name":"","type":"address[]","internalType":"address payable[]"},{"name":"","type":"uint8[]","internalType":"uint8[]"}],"stateMutability":"view"},{"type":"function","name":"getCreatorAuctionMerkleRootNonce","inputs":[{"name":"_user","type":"address","internalType":"address"},{"name":"_root","type":"bytes32","internalType":"bytes32"}],"outputs":[{"name":"","type":"uint32","internalType":"uint32"}],"stateMutability":"view"},{"type":"function","name":"getCurrentBid","inputs":[{"name":"_originContract","type":"address","internalType":"address"},{"name":"_tokenId","type":"uint256","internalType":"uint256"}],"outputs":[{"name":"bidder","type":"address","internalType":"address"},{"name":"currencyAddress","type":"address","internalType":"address"},{"name":"amount","type":"uint128","internalType":"uint128"},{"name":"marketplaceFeeAtTime","type":"uint8","internalType":"uint8"}],"stateMutability":"view"},{"type":"function","name":"getMerkleAuctionConfig","inputs":[{"name":"_creator","type":"address","internalType":"address"},{"name":"_root","type":"bytes32","internalType":"bytes32"}],"outputs":[{"name":"","type":"tuple","internalType":"struct IRareBatchAuctionHouse.MerkleAuctionConfig","components":[{"name":"currency","type":"address","internalType":"address"},{"name":"startingAmount","type":"uint128","internalType":"uint128"},{"name":"duration","type":"uint64","internalType":"uint64"},{"name":"nonce","type":"uint32","internalType":"uint32"},{"name":"splitAddresses","type":"address[]","internalType":"address payable[]"},{"name":"splitRatios","type":"uint8[]","internalType":"uint8[]"}]}],"stateMutability":"view"},{"type":"function","name":"getTokenAuctionNonce","inputs":[{"name":"_creator","type":"address","internalType":"address"},{"name":"_root","type":"bytes32","internalType":"bytes32"},{"name":"_tokenContract","type":"address","internalType":"address"},{"name":"_tokenId","type":"uint256","internalType":"uint256"}],"outputs":[{"name":"","type":"uint32","internalType":"uint32"}],"stateMutability":"view"},{"type":"function","name":"getUserAuctionMerkleRoots","inputs":[{"name":"_user","type":"address","internalType":"address"}],"outputs":[{"name":"","type":"bytes32[]","internalType":"bytes32[]"}],"stateMutability":"view"},{"type":"function","name":"initialize","inputs":[{"name":"_marketplaceSettings","type":"address","internalType":"address"},{"name":"_royaltyEngine","type":"address","internalType":"address"},{"name":"_spaceOperatorRegistry","type":"address","internalType":"address"},{"name":"_approvedTokenRegistry","type":"address","internalType":"address"},{"name":"_payments","type":"address","internalType":"address"},{"name":"_stakingRegistry","type":"address","internalType":"address"},{"name":"_stakingSettings","type":"address","internalType":"address"},{"name":"_networkBeneficiary","type":"address","internalType":"address"},{"name":"_erc20ApprovalManager","type":"address","internalType":"address"},{"name":"_erc721ApprovalManager","type":"address","internalType":"address"}],"outputs":[],"stateMutability":"nonpayable"},{"type":"function","name":"isTokenInRoot","inputs":[{"name":"_root","type":"bytes32","internalType":"bytes32"},{"name":"_origin","type":"address","internalType":"address"},{"name":"_tokenId","type":"uint256","internalType":"uint256"},{"name":"_proof","type":"bytes32[]","internalType":"bytes32[]"}],"outputs":[{"name":"","type":"bool","internalType":"bool"}],"stateMutability":"pure"},{"type":"function","name":"maxAuctionLength","inputs":[],"outputs":[{"name":"","type":"uint256","internalType":"uint256"}],"stateMutability":"view"},{"type":"function","name":"minimumBidIncreasePercentage","inputs":[],"outputs":[{"name":"","type":"uint256","internalType":"uint256"}],"stateMutability":"view"},{"type":"function","name":"owner","inputs":[],"outputs":[{"name":"","type":"address","internalType":"address"}],"stateMutability":"view"},{"type":"function","name":"registerAuctionMerkleRoot","inputs":[{"name":"_merkleRoot","type":"bytes32","internalType":"bytes32"},{"name":"_currency","type":"address","internalType":"address"},{"name":"_startingAmount","type":"uint128","internalType":"uint128"},{"name":"_duration","type":"uint64","internalType":"uint64"},{"name":"_splitAddresses","type":"address[]","internalType":"address payable[]"},{"name":"_splitRatios","type":"uint8[]","internalType":"uint8[]"}],"outputs":[],"stateMutability":"nonpayable"},{"type":"function","name":"renounceOwnership","inputs":[],"outputs":[],"stateMutability":"nonpayable"},{"type":"function","name":"setAuctionLengthExtension","inputs":[{"name":"_auctionLengthExtension","type":"uint256","internalType":"uint256"}],"outputs":[],"stateMutability":"nonpayable"},{"type":"function","name":"setMaxAuctionLength","inputs":[{"name":"_maxAuctionLength","type":"uint256","internalType":"uint256"}],"outputs":[],"stateMutability":"nonpayable"},{"type":"function","name":"setMinimumBidIncreasePercentage","inputs":[{"name":"_minimumBidIncreasePercentage","type":"uint8","internalType":"uint8"}],"outputs":[],"stateMutability":"nonpayable"},{"type":"function","name":"settleAuction","inputs":[{"name":"_originContract","type":"address","internalType":"address"},{"name":"_tokenId","type":"uint256","internalType":"uint256"}],"outputs":[],"stateMutability":"nonpayable"},{"type":"function","name":"tokenAuctions","inputs":[{"name":"","type":"address","internalType":"address"},{"name":"","type":"uint256","internalType":"uint256"}],"outputs":[{"name":"auctionCreator","type":"address","internalType":"address payable"},{"name":"currencyAddress","type":"address","internalType":"address"},{"name":"creationBlock","type":"uint32","internalType":"uint32"},{"name":"startingTime","type":"uint64","internalType":"uint64"},{"name":"lengthOfAuction","type":"uint64","internalType":"uint64"},{"name":"minimumBid","type":"uint128","internalType":"uint128"}],"stateMutability":"view"},{"type":"function","name":"transferOwnership","inputs":[{"name":"newOwner","type":"address","internalType":"address"}],"outputs":[],"stateMutability":"nonpayable"},{"type":"event","name":"AuctionBid","inputs":[{"name":"contractAddress","type":"address","indexed":true,"internalType":"address"},{"name":"bidder","type":"address","indexed":true,"internalType":"address"},{"name":"tokenId","type":"uint256","indexed":true,"internalType":"uint256"},{"name":"currencyAddress","type":"address","indexed":false,"internalType":"address"},{"name":"amount","type":"uint128","indexed":false,"internalType":"uint128"},{"name":"marketplaceFee","type":"uint8","indexed":false,"internalType":"uint8"},{"name":"previousBidder","type":"address","indexed":false,"internalType":"address"}],"anonymous":false},{"type":"event","name":"AuctionMerkleBid","inputs":[{"name":"contractAddress","type":"address","indexed":true,"internalType":"address"},{"name":"tokenId","type":"uint256","indexed":true,"internalType":"uint256"},{"name":"bidder","type":"address","indexed":true,"internalType":"address"},{"name":"creator","type":"address","indexed":false,"internalType":"address"},{"name":"currencyAddress","type":"address","indexed":false,"internalType":"address"},{"name":"merkleRoot","type":"bytes32","indexed":false,"internalType":"bytes32"},{"name":"amount","type":"uint128","indexed":false,"internalType":"uint128"},{"name":"nonce","type":"uint32","indexed":false,"internalType":"uint32"}],"anonymous":false},{"type":"event","name":"AuctionMerkleRootCancelled","inputs":[{"name":"creator","type":"address","indexed":true,"internalType":"address"},{"name":"merkleRoot","type":"bytes32","indexed":true,"internalType":"bytes32"}],"anonymous":false},{"type":"event","name":"AuctionMerkleRootRegistered","inputs":[{"name":"creator","type":"address","indexed":true,"internalType":"address"},{"name":"merkleRoot","type":"bytes32","indexed":true,"internalType":"bytes32"},{"name":"currencyAddress","type":"address","indexed":false,"internalType":"address"},{"name":"startingAmount","type":"uint128","indexed":false,"internalType":"uint128"},{"name":"duration","type":"uint64","indexed":false,"internalType":"uint64"},{"name":"nonce","type":"uint32","indexed":false,"internalType":"uint32"}],"anonymous":false},{"type":"event","name":"AuctionSettled","inputs":[{"name":"contractAddress","type":"address","indexed":true,"internalType":"address"},{"name":"tokenId","type":"uint256","indexed":true,"internalType":"uint256"},{"name":"seller","type":"address","indexed":false,"internalType":"address"},{"name":"bidder","type":"address","indexed":false,"internalType":"address"},{"name":"amount","type":"uint128","indexed":false,"internalType":"uint128"},{"name":"currencyAddress","type":"address","indexed":false,"internalType":"address"},{"name":"marketplaceFee","type":"uint8","indexed":false,"internalType":"uint8"}],"anonymous":false},{"type":"event","name":"Initialized","inputs":[{"name":"version","type":"uint8","indexed":false,"internalType":"uint8"}],"anonymous":false},{"type":"event","name":"OwnershipTransferred","inputs":[{"name":"previousOwner","type":"address","indexed":true,"internalType":"address"},{"name":"newOwner","type":"address","indexed":true,"internalType":"address"}],"anonymous":false}],"bytecode":{"object":"0x6080806040523461001657615339908161001c8239f35b600080fdfe60806040526004361015610068575b361561001957600080fd5b60405162461bcd60e51b815260206004820152602160248201527f455448207061796d656e74206e6f74206163636570746564206469726563746c6044820152607960f81b6064820152608490fd5b6000803560e01c80630cd87c6814613d695780630e519ef914613d4b57806310f7978914613d28578063299a0e1e14613cbd578063301aa514146134e357806348626b90146134b55780634ebade5f146134075780635138b08c146127a15780635e51b2d4146127115780636699ee4314611ecf5780636fe9f44c14611eb1578063715018a614611e5357806376ffb5a714611c965780638da5cb5b14611c6d57806395cf6b9014610fb8578063ac964f8e14610eaf578063affdafd814610e8c578063bb120e6614610e11578063c306b378146104d1578063c47c35c11461043c578063d97f7657146103a8578063daa264991461038a578063e29ac89014610340578063e35ed75a1461021a5763f2fde38b14610187575061000e565b34610217576020366003190112610217576101a0613ef1565b6101a8613ff7565b6001600160a01b038116156101c3576101c09061404f565b80f35b60405162461bcd60e51b815260206004820152602660248201527f4f776e61626c653a206e6577206f776e657220697320746865207a65726f206160448201526564647265737360d01b6064820152608490fd5b80fd5b503461021757604036600319011261021757608090610237613ef1565b906024359060018060a01b038093169182825260ff60209360a28552604084208385528552604084209580604060018151996102728b6140cf565b838154168b52015496888a01966001600160801b0395868a16895287848d019a8e1c168a52825260a18a52828220908252895220976040516102b381614098565b828a5416815260e061031c600460018d01549c8c85019d8e888216905263ffffffff8160a01c16604087015260c01c60608601528860028201546001600160401b038116608088015260401c1660a0860152610311600382016141ad565b60c086015201614207565b91015251169651169251169251169260405194855284015260408301526060820152f35b50346102175760403660031901126102175760209063ffffffff906040906001600160a01b0361036e613ef1565b16815260a8845281812060243582528452205416604051908152f35b5034610217578060031936011261021757602060a554604051908152f35b50346102175760803660031901126102175763ffffffff60406020926103cc613ef1565b61041a6104286103da613f1d565b9285519283918983019560643591602435908892606894926001600160601b0319809360601b168552601485015260601b16603483015260488201520190565b03601f198101835282614118565b519020815260a98452205416604051908152f35b50346102175760403660031901126102175760c0906001600160a01b03906001600160801b03906040908361046f613ef1565b16815260a160205281812060243582526020522091808354169260026001820154910154916040519485528116602085015263ffffffff8160a01c166040850152841c60608401526001600160401b038116608084015260401c1660a0820152f35b503461021757610140366003190112610217576104ec613ef1565b6104f4613f07565b6104fc613f1d565b610504613f33565b60843592906001600160a01b0384168403610e0c5760a435906001600160a01b0382168203610e0c5760c435906001600160a01b0382168203610e0c5760e435956001600160a01b0387168703610e0c5761010435946001600160a01b0386168603610e0c5761012435966001600160a01b0388168803610e0c578a549960ff8b60081c16159a8b809c610dff575b8015610de8575b15610d8c5760ff1981166001178d558b610d7b575b506001600160a01b03811615610d1a576001600160a01b03831615610cbf576001600160a01b03821615610c5c576001600160a01b03851615610bf9576001600160a01b03841615610ba3576001600160a01b03871615610b46576001600160a01b03861615610ae9576001600160a01b038a1615610a89576001600160a01b03881615610a27576001600160a01b038916156109c45760405163ef8c824960e01b81526001600160a01b039a8b166004820152908a16602482015290891660448201529088166064820152908716608482015290861660a482015290851660c482015290841660e48201529083166101048201529116610124820152610140816101448173__$c98ca6a62396e5a7a1471db151198a1f31$__5af49081156109b957839161084e575b5060018060a01b03815116906001600160601b0360a01b9182609754161760975560018060a01b0360208201511682609854161760985560018060a01b0360408201511682609954161760995560018060a01b0360608201511682609a541617609a5560018060a01b0360808201511682609b541617609b5560018060a01b0360a08201511682609c541617609c5560018060a01b0360c08201511682609d541617609d5560018060a01b0360e08201511682609e541617609e5560018060a01b036101008201511682609f541617609f5561012060018060a01b03910151169060a054161760a055600160a35562093a8060a45561038460a5556107ed60ff835460081c166107e88161414d565b61414d565b6107f63361404f565b81549061080c60ff8360081c166107e88161414d565b6001606555610819575080f35b61ff00191681557f7f26b83ff96e1f2b6a682f133852f6798a09c465da95921460cefb3847402498602060405160018152a180f35b9050610140813d610140116109b1575b8161086c6101409383614118565b810103126109ad576040519061014082018281106001600160401b038211176109975760405261089b81614139565b825260208101516001600160a01b038116810361098f57602083015260408101516001600160a01b038116810361098f57604083015260608101516001600160a01b038116810361098f57606083015260808101516001600160a01b038116810361098f57608083015260a08101516001600160a01b038116810361098f5760a083015260c08101516001600160a01b038116810361098f5760c083015260e08101516001600160a01b038116810361098f5760e083015261010081810151906001600160a01b03821682036109935783015261012090810151906001600160a01b038216820361098f57820152386106d9565b8480fd5b8580fd5b634e487b7160e01b600052604160045260246000fd5b8280fd5b3d915061085e565b6040513d85823e3d90fd5b60405162461bcd60e51b815260206004820152603560248201527f696e697469616c697a653a3a657263373231417070726f76616c4d616e616765604482015274722063616e6e6f742062652030206164647265737360581b6064820152608490fd5b60405162461bcd60e51b815260206004820152603460248201527f696e697469616c697a653a3a6572633230417070726f76616c4d616e616765726044820152732063616e6e6f742062652030206164647265737360601b6064820152608490fd5b60405162461bcd60e51b815260206004820152603260248201527f696e697469616c697a653a3a6e6574776f726b42656e65666963696172792063604482015271616e6e6f742062652030206164647265737360701b6064820152608490fd5b60405162461bcd60e51b815260206004820152602f60248201527f696e697469616c697a653a3a7374616b696e6753657474696e67732063616e6e60448201526e6f742062652030206164647265737360881b6064820152608490fd5b60405162461bcd60e51b815260206004820152602f60248201527f696e697469616c697a653a3a7374616b696e6752656769737472792063616e6e60448201526e6f742062652030206164647265737360881b6064820152608490fd5b60405162461bcd60e51b815260206004820152602860248201527f696e697469616c697a653a3a7061796d656e74732063616e6e6f742062652030604482015267206164647265737360c01b6064820152608490fd5b60405162461bcd60e51b815260206004820152603560248201527f696e697469616c697a653a3a617070726f766564546f6b656e52656769737472604482015274792063616e6e6f742062652030206164647265737360581b6064820152608490fd5b60405162461bcd60e51b815260206004820152603560248201527f696e697469616c697a653a3a73706163654f70657261746f7252656769737472604482015274792063616e6e6f742062652030206164647265737360581b6064820152608490fd5b60405162461bcd60e51b815260206004820152602d60248201527f696e697469616c697a653a3a726f79616c7479456e67696e652063616e6e6f7460448201526c2062652030206164647265737360981b6064820152608490fd5b60405162461bcd60e51b815260206004820152603360248201527f696e697469616c697a653a3a6d61726b6574706c61636553657474696e67732060448201527263616e6e6f742062652030206164647265737360681b6064820152608490fd5b61ffff1916610101178c55386105af565b60405162461bcd60e51b815260206004820152602e60248201527f496e697469616c697a61626c653a20636f6e747261637420697320616c72656160448201526d191e481a5b9a5d1a585b1a5e995960921b6064820152608490fd5b50303b15801561059a5750600160ff82161461059a565b50600160ff821610610593565b600080fd5b5034610217576040366003190112610217576001600160a01b039060019060409083610e3b613ef1565b16815260a760205281812060243582526020522091825416910154610e88604051928263ffffffff859460c01c16916001600160801b036001600160401b038360801c1692169085613fb6565b0390f35b503461021757602036600319011261021757610ea6613ff7565b60043560a45580f35b503461021757602080600319360112610fb4576004359033835260a68152610eea826040852060019160005201602052604060002054151590565b15610f605733835260a68152610f038260408520614a07565b5033835260a78152604083209082845252610f38600360408420848155846001820155610f326002820161486e565b016148c6565b337f6c4be52b9a419eb78a1483e27346ba15e73a3f933dfc4310e9728ddf33c695f88380a380f35b6084906040519062461bcd60e51b82526004820152602760248201527f63616e63656c41756374696f6e4d65726b6c65526f6f743a3a4e6f7420726f6f6044820152663a1037bbb732b960c91b6064820152fd5b5080fd5b5060e036600319011261021757610fcd613ef1565b610fd5613f07565b610fdd613f33565b9160a435906001600160801b0382168203610e0c5760c4356001600160401b03811161099357611014611064913690600401613f86565b61101c614801565b604051606087901b6001600160601b0319166020820152604435603482015261105f9061104c816054810161041a565b6020815191012092608435923691614ae3565b614b31565b15611c105760018060a01b03609854169160018060a01b038516865260a66020526110a46084356040882060019160005201602052604060002054151590565b15611bad5760018060a01b038516865260a760205260408620608435875260205260408620926111356003604051956110dc876140b4565b80546001600160a01b0316875260018101546001600160801b0381166020890152608081901c6001600160401b0316604089015260c01c63ffffffff16606088015261112a600282016141ad565b608088015201614207565b60a085015283516001600160a01b0390811690841603611b4d57604051606087811b6001600160601b03199081166020840190815260843560348501529188901b166054830152604435606883015290611192816088810161041a565b5190209360018060a01b038716885260a860205260408820608435895260205263ffffffff6040892054169480895260a96020528563ffffffff60408b2054161015611ad7576001600160a01b038716895260a160209081526040808b206044358c5290915289206001015460c01c611a78576001600160801b03841615611a2457604051637cd11f4360e11b8152602081600481875afa90811561180e578a916119f2575b506001600160801b0385161161198e576001600160801b036020830151166001600160801b03851610611923576040516331a9108f60e11b815260443560048201526020816024816001600160a01b038c165afa90811561180e578a916118e5575b506001600160a01b0389811691160361188d5760a05460405163e985e9c560e01b81526001600160a01b038a811660048301529091166024820152602081806044810103816001600160a01b038c165afa90811561180e578a9161185e575b5015611819576040516361fe24a960e11b81526001600160801b0385166004820152602081602481875afa90811561180e578a916117da575b50611349611359916001600160801b0387166147ce565b83516001600160a01b0316614cf2565b885260a9602052604088208563ffffffff1982541617905560018060a01b03815116906001600160401b03604082015116906001600160801b0360208201511660a0608083015192015192604051946113b186614098565b60018060a01b038c168652602086015263ffffffff431660408601526001600160401b0342166060860152608085015260a084015260c083015260e082015260018060a01b038616885260a1602052604088206044358952602052604088209060018060a01b038151166001600160601b0360a01b83541617825560018060a01b0360208201511663ffffffff60a01b604083015160a01b16906001600160401b0360c01b9182606085015160c01b16911717600184015560028301906001600160401b0360808401511682549177ffffffffffffffffffffffffffffffff000000000000000060a086015160401b1692161717905560c08101518051906001600160401b0382116117c657602060038501916114ce8484614892565b01908b5260208b208b5b8381106117a9575050505060e00151908151906001600160401b038211611795576004602091019261150a83856148f0565b019189526020892090895b8160051c81106117565750601f1981168103611706575b505050602060049160405192838092638347592160e01b82525afa9081156116fb5787916116cc575b5060405190611563826140cf565b3382526001600160801b0360016020840193828616855260ff6040820194168452818060a01b0389168b5260a260205260408b206044358c5260205260408b2090828060a01b039051166001600160601b0360a01b8254161781550192511682549160ff60801b905160801b16916001600160881b031916171790558560018060a01b0360a05416803b15610fb457604051630aed65f560e11b81526001600160a01b03878116600483015288166024820152306044808301919091523560648201529082908290608490829084905af180156116c1576116ad575b5050604080516001600160a01b0396871681529286166020840152608435908301526001600160801b03166060820152608081019190915233926044359216907f5355b558f02261d348034db859415d5317f7b01cdddd74bb117cfed50d40d1089060a090a4600160655580f35b6116b6906140ea565b61099357853861163f565b6040513d84823e3d90fd5b6116ee915060203d6020116116f4575b6116e68183614118565b8101906147e8565b38611555565b503d6116dc565b6040513d89823e3d90fd5b89928a5b601f1983168303811061172857505060051c0155602060043861152c565b9093602061174d6001928460ff895116919060ff809160031b9316831b921b19161790565b9501910161170a565b8a8b5b6020811061176e575083820155600101611515565b855190959160019160209160ff60038a901b81811b199092169216901b1792019501611759565b634e487b7160e01b8a52604160045260248afd5b82516001600160a01b0316818301556020909201916001016114d8565b634e487b7160e01b8b52604160045260248bfd5b90506020813d602011611806575b816117f560209383614118565b81010312610e0c5751611349611332565b3d91506117e8565b6040513d8c823e3d90fd5b60405162461bcd60e51b815260206004820152601e60248201527f6f776e6572206d757374206861766520617070726f76656420746f6b656e00006044820152606490fd5b611880915060203d602011611886575b6118788183614118565b810190614bce565b386112f9565b503d61186e565b60405162461bcd60e51b815260206004820152602a60248201527f6269645769746841756374696f6e4d65726b6c6550726f6f663a3a4e6f74207460448201526937b5b2b71037bbb732b960b11b6064820152608490fd5b90506020813d60201161191b575b8161190060209383614118565b810103126119175761191190614139565b3861129a565b8980fd5b3d91506118f3565b60405162461bcd60e51b815260206004820152603b60248201527f6269645769746841756374696f6e4d65726b6c6550726f6f663a3a43616e6e6f60448201527f74206265206c6f776572207468616e206d696e696d756d2062696400000000006064820152608490fd5b60405162461bcd60e51b815260206004820152603660248201527f6269645769746841756374696f6e4d65726b6c6550726f6f663a3a4d757374206044820152756265206c657373207468616e206d61782076616c756560501b6064820152608490fd5b90506020813d602011611a1c575b81611a0d60209383614118565b81010312610e0c575138611238565b3d9150611a00565b60405162461bcd60e51b815260206004820152602660248201527f6269645769746841756374696f6e4d65726b6c6550726f6f663a3a43616e6e6f60448201526507420626520360d41b6064820152608490fd5b60405162461bcd60e51b815260206004820152603160248201527f6269645769746841756374696f6e4d65726b6c6550726f6f663a3a41756374696044820152706f6e20616c72656164792065786973747360781b6064820152608490fd5b60405162461bcd60e51b815260206004820152604260248201527f6269645769746841756374696f6e4d65726b6c6550726f6f663a3a546f6b656e60448201527f20616c7265616479207573656420666f722074686973204d65726b6c6520726f6064820152611bdd60f21b608482015260a490fd5b60405162461bcd60e51b815260206004820152603260248201527f6269645769746841756374696f6e4d65726b6c6550726f6f663a3a43757272656044820152710dcc6f240c8decae640dcdee840dac2e8c6d60731b6064820152608490fd5b60405162461bcd60e51b815260206004820152603560248201527f6269645769746841756374696f6e4d65726b6c6550726f6f663a3a4d65726b6c60448201527419481c9bdbdd081b9bdd081c9959da5cdd195c9959605a1b6064820152608490fd5b60405162461bcd60e51b815260206004820152602f60248201527f6269645769746841756374696f6e4d65726b6c6550726f6f663a3a496e76616c60448201526e34b21026b2b935b63290383937b7b360891b6064820152608490fd5b50346102175780600319360112610217576033546040516001600160a01b039091168152602090f35b503461021757604036600319011261021757611cb0613ef1565b606060a0604051611cc0816140b4565b8481528460208201528460408201528483820152826080820152015260018060a01b0316815260a76020526040812060243582526020526040812090611d67600360405193611d0e856140b4565b80546001600160a01b0316855260018101546001600160801b0381166020870152608081901c6001600160401b0316604087015260c01c63ffffffff166060860152611d5c600282016141ad565b608086015201614207565b60a08301526040519182916020835260e083019160018060a01b0381511660208501526001600160801b0360208201511660408501526001600160401b03604082015116606085015263ffffffff606082015116608085015260808101519260c060a0860152835180915260206101008601940190835b818110611e315750505060a0015191601f198482030160c0850152602080845192838152019301915b818110611e15575050500390f35b825160ff16845285945060209384019390920191600101611e07565b82516001600160a01b0316865287965060209586019590920191600101611dde565b5034610217578060031936011261021757611e6c613ff7565b603380546001600160a01b031981169091556000906001600160a01b03167f8be0079c531659141344cd1fd0a4f28419497f9722a3daafe3b4186f6b6457e08280a380f35b5034610217578060031936011261021757602060a354604051908152f35b50608036600319011261021757611ee4613ef1565b611eec613f1d565b906064356001600160801b0381168103610e0c57611f08614801565b6098546040516361fe24a960e11b81526001600160801b03831660048201526001600160a01b039091169190602081602481865afa80156123285786906126d8575b6001600160801b039150166001600160801b03821601916001600160801b0383116126c457611f826001600160801b03841686614be6565b60018060a01b038416865260a1602052604086206024358752602052604086209061201c600460405193611fb585614098565b60018060a01b038154168552600181015460018060a01b038116602087015263ffffffff8160a01c16604087015260c01c60608601526001600160801b0360028201546001600160401b038116608088015260401c1660a0860152610311600382016141ad565b60e08301526001600160401b03606083015116156126805781516001600160a01b0316331461262f576001600160401b0361206481606085015116826080860151169061478a565b164210156125f15760208201516001600160a01b0390811690871603612596576001600160801b0360a0830151166001600160801b03841610612551576001600160801b038316156124fd57602060049160405192838092637cd11f4360e11b82525afa9081156116fb5787916124cb575b506001600160801b03831611612486576001600160a01b038416865260a26020908152604080882060243589529091528087209051600194612117826140cf565b858060a01b0383541695869384845201546001600160801b038116602084015260ff8160801c166040840152836123e3575b509261216d6001600160801b036121ae951660018060a01b03602084015116614cf2565b6001600160401b0360608201511680612352575b506020908101519082015160409092015160ff16916001600160801b0316906001600160a01b0316614fec565b609854604051638347592160e01b8082529291602090829060049082906001600160a01b03165afa9081156116fb578791612333575b50604051906121f2826140cf565b3382526001600160801b0360016020840193828616855260ff6040820194168452818060a01b0389168b5260a260205260408b206024358c5260205260408b2090828060a01b039051166001600160601b0360a01b8254161781550192511682549160ff60801b905160801b16916001600160881b03191617179055602060018060a01b03609854169260046040518095819382525afa9081156123285760ff9287926122fe575b506001600160801b03906040519660018060a01b031687521660208601521660408401526060830152602435917f05d5a145b6996460db14669f3bb9bebeb953e570716e24c3d1af0c8e42d2bab36080339360018060a01b031692a4600160655580f35b6001600160801b039192506123219060203d6020116116f4576116e68183614118565b919061229a565b6040513d88823e3d90fd5b61234c915060203d6020116116f4576116e68183614118565b386121e4565b612376906001600160401b036123704292826080870151169061478a565b166147db565b60a554808210612387575b50612181565b6001600160401b03916123a36123a892846080870151166147ce565b6147db565b1660018060a01b0388168a5260a160205260408a206024358b52602052600260408b2001906001600160401b03198254161790553880612381565b6124159193506124016064916001600160801b0360a35491166147bb565b046001600160801b036020840151166147ce565b6001600160801b0385161061242c57849138612149565b60405162461bcd60e51b815260206004820152602c60248201527f6269643a3a4d75737420696e63726561736520626964206279206d696e696d7560448201526b6d2070657263656e7461676560a01b6064820152608490fd5b60405162461bcd60e51b815260206004820152601a60248201527f6269643a3a4269642065786365656473206d61782076616c75650000000000006044820152606490fd5b90506020813d6020116124f5575b816124e660209383614118565b81010312610e0c5751386120d6565b3d91506124d9565b60405162461bcd60e51b815260206004820152602660248201527f6269643a3a42696420616d6f756e74206d75737420626520677265617465722060448201526507468616e20360d41b6064820152608490fd5b60405162461bcd60e51b815260206004820152601760248201527f6269643a3a42696420616d6f756e7420746f6f206c6f770000000000000000006044820152606490fd5b60405162461bcd60e51b815260206004820152602d60248201527f6269643a3a43757272656e637920646f6573206e6f74206d617463682061756360448201526c74696f6e2063757272656e637960981b6064820152608490fd5b60405162461bcd60e51b8152602060048201526016602482015275189a590e8e905d58dd1a5bdb881a185cc8195b99195960521b6044820152606490fd5b60405162461bcd60e51b815260206004820152602360248201527f6269643a3a43616e6e6f7420626964206f6e20796f7572206f776e206175637460448201526234b7b760e91b6064820152608490fd5b606460405162461bcd60e51b815260206004820152602060248201527f6269643a3a4d757374206861766520612063757272656e742061756374696f6e6044820152fd5b634e487b7160e01b86526011600452602486fd5b506020813d602011612709575b816126f260209383614118565b81010312610e0c576001600160801b039051611f4a565b3d91506126e5565b50346102175760803660031901126102175761272b613f07565b90606435906001600160401b0382116102175760206127978461105f6127543660048801613f86565b60405160609490941b6001600160601b0319168685019081526044356014820152919390929190612788816034840161041a565b51902092600435923691614ae3565b6040519015158152f35b5034610217576040366003190112610217576127bb613ef1565b60018060a01b038116825260a16020526040822060243583526020526040822061285f6004604051926127ed84614098565b60018060a01b038154168452600181015460018060a01b038116602086015263ffffffff8160a01c16604086015260c01c60608501526001600160801b0360028201546001600160401b038116608087015260401c1660a0850152612854600382016141ad565b60c085015201614207565b60e082015260018060a01b038216835260a2602052604083206024358452602052604083209160ff600160405194612896866140cf565b818060a01b03815416865201546001600160801b038116602086015260801c1660408401526001600160401b03606083015116156133c3576001600160401b036128ed81606085015116826080860151169061478a565b1642106133725760018060a01b038116845260a1602052604084206024358552602052612934600460408620868155866001820155866002820155610f326003820161486e565b6001600160a01b03818116855260a26020908152604080872060243588529091528520858155600101859055835116156132f457825184906001600160a01b039081169083163b15610fb4576040516323b872dd60e01b8152306004820152602480820192909252903560448201528181606481836001600160a01b0388165af180156116c1576132e0575b505060208281015190840151835160c085015160e0860151815181516001600160a01b03948516999690941696929591946001600160801b0316930361327f576024838a9499602060018060a01b0360985416604051948580926361fe24a960e11b82528660048301525afa928315612328578693613248575b5060405192612a48846140cf565b6002845260403660208601376097546001600160a01b031680612a6a86614b9d565b52609e5460405163e286ef3360e01b81526004810185905290602090829060249082906001600160a01b03165afa90811561314957899161320a575b506001600160a01b0316612ab986614baa565b526001600160a01b03612acb86614baa565b51166131f1575b612adb85614baa565b6001600160a01b03909116905260405190612af5826140cf565b600282526040366020840137609d546040516303fdde1160e21b8152600481018690526001600160a01b0390911690602081602481855afa90811561180e578a916131b9575b50602491602091612b4b86614b9d565b526040519283809263470d6ed960e11b82528960048301525afa90811561314957899161317e575b5082918691612b84612b8b95614baa565b528c615220565b609854604051631446f21360e21b81526001600160a01b038781166004830152602480359083015290949116602085604481845afa80156131735788958691613154575b5015612f39575b5050609a54604051637a99dc0160e11b81526001600160a01b038781166004830152602480359083015260448201949094529c8d93606493508492165af19687156109b95783998498612deb575b508399849a5b89518c1015612c5757612c4b612c5191612c448e8d614bba565b51906147ce565b9b614b8e565b9a612c2a565b9a50612c6e8b612c759496989a939597999b6147db565b9a8a615220565b845195612c8187614954565b96612c8f6040519889614118565b808852612c9e601f1991614954565b01366020890137845b8651811015612ce357806064612ccd60ff612cc5612cde958c614bba565b51168d6147bb565b04612cd8828b614bba565b52614b8e565b612ca7565b5091959296612cf59498919550615220565b60985484906001600160a01b0316803b15610fb457604051635a3c652d60e01b81526001600160a01b03861660048201526024803590820152600160448201529082908290606490829084905af1612dd3575b50505b60018060a01b038151169160018060a01b038151169160ff60406001600160801b0360208501511692602060018060a01b0391015116930151169260405194855260208501526040840152606083015260808201527fd6bafd8fc8591640c77fad1fe6a63cf44843ab5139aa025ba7e18c94fd3686c060a060243593600180831b031692a380f35b612ddc906140ea565b612de7578338612d48565b8380fd5b995096503d988984823e612dff8a82614118565b6040818b81010312612de7578051906001600160401b03821161098f578a8101601f83830101121561098f578181015191612e3983614954565b92612e476040519485614118565b80845260208401918d840160208360051b838701010111612f1557602081850101925b60208360051b83870101018410612f19575050505060208101519a6001600160401b038c1161099357808201601f8d8401011215610993578b82015191612eb083614954565b9c6040519d612ebf908f614118565b8d8481526020019282018460051b8284010160200111612f15579190602083820101925b60208560051b82840101018410612f01575050505050989638612c24565b602080809486518152019401939250612ee3565b8780fd5b83516001600160a01b038116810361191757815260209384019301612e6a565b9091935060405190612f4a826140fd565b600182526020368184013760405192612f62846140fd565b60018452602036818601376001600160a01b0390612f7f90614b9d565b5116612f8a84614b9d565b52609954604051635dc22eff60e01b81526004810187905290602090829060249082906001600160a01b03165afa90811561314957899161312a575b501561307c5750609954604051632260494f60e01b81526004810195909552602090859060249082906001600160a01b03165afa9384156116fb57879460ff91869161305d575b50169b61301a8d856147bb565b60649004613027916147db565b9b61303290846147bb565b6064900461303f82614b9d565b5261304981614b9d565b5191613055928b615220565b388080612bd6565b613076915060203d6020116116f4576116e68183614118565b3861300d565b60405163b28a7bad60e01b81526001600160a01b0388166004820152919c50909350602090849060249082905afa92831561232857869360ff91859161310b575b50169a6130ca8c846147bb565b606490046130d890846147db565b9b6130e390846147bb565b606490046130f082614b9d565b526130fa81614b9d565b5191613106928b615220565b613055565b613124915060203d6020116116f4576116e68183614118565b386130bd565b613143915060203d602011611886576118788183614118565b38612fc6565b6040513d8b823e3d90fd5b61316d915060203d602011611886576118788183614118565b38612bcf565b6040513d8a823e3d90fd5b985050906020883d6020116131b1575b8161319b60209383614118565b81010312610e0c5796518d979190612b8b612b73565b3d915061318e565b9950506020893d6020116131e9575b816131d560209383614118565b81010312610e0c5797518e98906024612b3b565b3d91506131c8565b506001600160a01b0361320385614baa565b5116612ad2565b90506020813d602011613240575b8161322560209383614118565b8101031261323c5761323690614139565b38612aa6565b8880fd5b3d9150613218565b955091506020853d602011613277575b8161326560209383614118565b81010312610e0c578a94519138612a3a565b3d9150613258565b60405162461bcd60e51b815260206004820152603360248201527f4e756d626572206f662073706c69742061646472657373657320616e642072616044820152723a34b7b99036bab9ba1031329032b8bab0b61760691b6064820152608490fd5b6132e9906140ea565b612de75783386129c0565b8151909291906001600160a01b039081169084163b1561098f576040516323b872dd60e01b8152306004820152602480820192909252903560448201528481606481836001600160a01b0389165af1801561336757613354575b50612d4b565b613360909491946140ea565b923861334e565b6040513d87823e3d90fd5b60405162461bcd60e51b8152602060048201526024808201527f736574746c6541756374696f6e3a3a41756374696f6e20686173206e6f7420656044820152631b99195960e21b6064820152608490fd5b606460405162461bcd60e51b815260206004820152602060248201527f736574746c6541756374696f6e3a3a4e6f2061756374696f6e206578697374736044820152fd5b503461021757602080600319360112610fb4576001600160a01b0361342a613ef1565b16825260a681526040822060405192838383549182815201908193835284832090835b8181106134a15750505084613463910385614118565b60405193838594850191818652518092526040850193925b82811061348a57505050500390f35b83518552869550938101939281019260010161347b565b82548452928601926001928301920161344d565b50346102175760203660031901126102175760043560ff8116809103610fb4576134dd613ff7565b60a35580f35b50346102175760c0366003190112610217576134fd613f07565b6001600160801b036044351660443503610fb4576001600160401b036064351660643503610fb4576084356001600160401b0381116109ad57613544903690600401613f86565b919060a4356001600160401b03811161098f57613565903690600401613f86565b906001600160a01b038416158015613c5b575b15613c1e578415613bc95760058511613b7857818503613b1e5785805b838210613af2576064915003613a9d5760a4546001600160401b036064351611613a4357609854604051637cd11f4360e11b815290602090829060049082906001600160a01b03165afa9081156116fb578791613a0d575b506001600160801b0360443516116139a35733865260a660205261361660043560408820614999565b5033865260a8602052604086206004358752602052600163ffffffff604088205416019463ffffffff861161398f5733875260a8602052604087206004358852602052604087209363ffffffff8716948563ffffffff1982541617905560405194613680866140b4565b6001600160a01b03871686526044356001600160801b031660208701526064356001600160401b0316604087015260608601526136bc82614954565b916136ca6040519384614118565b8083526020830191368260051b8201116119175780925b8260051b8201841061396b575050505060808401526136ff82614954565b9161370d6040519384614118565b8083526020830191368260051b820111612f155780925b8260051b82018410613951575050505060a082015233845260a76020526040842060043585526020526040842060018060a01b038251166001600160601b0360a01b825416178155600181016001600160801b036020840151168154906001600160401b0360801b604086015160801b169063ffffffff60c01b606087015160c01b169263ffffffff60e01b16171717905560808201518051906001600160401b03821161393d57602060028401916137dd8484614892565b0190875260208720875b8381106139205750505050600360a091019101518051906001600160401b03821161390c5760209061381983856148f0565b01918552602085208160051c91865b8381106138cd5750601f198116900380613883575b505050507f0ab992cc17951860858a996357021e201f2a5dc931b948bee54c7c5e665f70cb6040518061387d600435953395606435906044359085613fb6565b0390a380f35b928693875b81811061389d5750505001553880808061383d565b90919460206138c36001928460ff8a5116919060ff809160031b9316831b921b19161790565b9601929101613888565b87885b602081106138e5575083820155600101613828565b865190969160019160209160ff60038b901b81811b199092169216901b17920196016138d0565b634e487b7160e01b86526041600452602486fd5b82516001600160a01b0316818301556020909201916001016137e7565b634e487b7160e01b87526041600452602487fd5b833560ff8116810361191757815260209384019301613724565b83356001600160a01b038116810361398b578152602093840193016136e1565b8b80fd5b634e487b7160e01b87526011600452602487fd5b608460405162461bcd60e51b815260206004820152604060248201527f726567697374657241756374696f6e4d65726b6c65526f6f743a3a537461727460448201527f696e6720616d6f756e742065786365656473206d6178696d756d2076616c75656064820152fd5b90506020813d602011613a3b575b81613a2860209383614118565b81010312613a375751386135ed565b8680fd5b3d9150613a1b565b60405162461bcd60e51b815260206004820152602c60248201527f726567697374657241756374696f6e4d65726b6c65526f6f743a3a447572617460448201526b696f6e20746f6f206c6f6e6760a01b6064820152608490fd5b60405162461bcd60e51b815260206004820152602760248201527f636865636b53706c6974733a3a546f74616c206d75737420626520657175616c604482015266020746f203130360cc1b6064820152608490fd5b8160051b8301359060ff821680920361323c57613b1891613b12916147ce565b91614b8e565b90613595565b60405162461bcd60e51b815260206004820152602c60248201527f636865636b53706c6974733a3a53706c69747320616e6420726174696f73206d60448201526b1d5cdd08189948195c5d585b60a21b6064820152608490fd5b60405162461bcd60e51b8152602060048201526024808201527f636865636b53706c6974733a3a53706c6974206578636565646564206d61782060448201526373697a6560e01b6064820152608490fd5b60405162461bcd60e51b815260206004820152602760248201527f636865636b53706c6974733a3a4d7573742068617665206174206c65617374206044820152660c481cdc1b1a5d60ca1b6064820152608490fd5b60405162461bcd60e51b81526020600482015260156024820152744e6f7420617070726f7665642063757272656e637960581b6044820152606490fd5b50609c54604051632d5ad3d560e01b81526001600160a01b038681166004830152909160209183916024918391165afa9081156116fb578791613c9f575b50613578565b613cb7915060203d8111611886576118788183614118565b38613c99565b5034610217576040366003190112610217576060906001600160a01b039060ff9060019060409084613ced613ef1565b16815260a2602052818120602435825260205220928354169201546040519283526001600160801b038116602084015260801c166040820152f35b503461021757602036600319011261021757613d42613ff7565b60043560a55580f35b5034610217578060031936011261021757602060a454604051908152f35b5034610217576040366003190112610217576001600160a01b03613d8b613ef1565b16815260a1602052604081206024358252602052613e1a600460408320613db26080614098565b80546001600160a01b03908116608052600182015490811660a090815281901c63ffffffff1660c09081521c60e05260028101546001600160401b0381166101005260401c6001600160801b031661012052613e10600382016141ad565b6101405201614207565b8060e06080015260018060a01b03608051169063ffffffff6040608001511692613eb16001600160401b03606060800151166001600160401b0360808001511660018060a01b03602060800151166001600160801b0360a060800151169160c06080015193604051998a998a5260208a015260408901526060880152608087015260a08601526101008060c0870152850190613f49565b83810360e0850152602080845192838152019301915b818110613ed5575050500390f35b825160ff16845285945060209384019390920191600101613ec7565b600435906001600160a01b0382168203610e0c57565b602435906001600160a01b0382168203610e0c57565b604435906001600160a01b0382168203610e0c57565b606435906001600160a01b0382168203610e0c57565b90815180825260208080930193019160005b828110613f69575050505090565b83516001600160a01b031685529381019392810192600101613f5b565b9181601f84011215610e0c578235916001600160401b038311610e0c576020808501948460051b010111610e0c57565b6001600160a01b0390911681526001600160801b039190911660208201526001600160401b03909116604082015263ffffffff909116606082015260800190565b6033546001600160a01b0316330361400b57565b606460405162461bcd60e51b815260206004820152602060248201527f4f776e61626c653a2063616c6c6572206973206e6f7420746865206f776e65726044820152fd5b603380546001600160a01b039283166001600160a01b0319821681179092559091167f8be0079c531659141344cd1fd0a4f28419497f9722a3daafe3b4186f6b6457e0600080a3565b61010081019081106001600160401b0382111761099757604052565b60c081019081106001600160401b0382111761099757604052565b606081019081106001600160401b0382111761099757604052565b6001600160401b03811161099757604052565b604081019081106001600160401b0382111761099757604052565b90601f801991011681019081106001600160401b0382111761099757604052565b51906001600160a01b0382168203610e0c57565b1561415457565b60405162461bcd60e51b815260206004820152602b60248201527f496e697469616c697a61626c653a20636f6e7472616374206973206e6f74206960448201526a6e697469616c697a696e6760a81b6064820152608490fd5b9060405191828154918282526020928383019160005283600020936000905b8282106141e4575050506141e292500383614118565b565b85546001600160a01b0316845260019586019588955093810193909101906141cc565b90604051918281549182825260209081830190600052816000206000905b85601f8301106145f357946141e2955491848282106145e0575b8282106145ca575b8282106145b4575b82821061459e575b828210614589575b828210614573575b82821061455d575b828210614547575b828210614531575b82821061451b575b828210614505575b8282106144ef575b8282106144d9575b8282106144c3575b8282106144ad575b828210614497575b828210614481575b82821061446b575b828210614455575b82821061443f575b828210614429575b828210614413575b8282106143fd575b8282106143e7575b8282106143d1575b8282106143bb575b8282106143a5575b82821061438f575b828210614379575b828210614363575b82821061434d575b5010614340575b5090500383614118565b60f81c8152018038614336565b6001919460ff8560f01c1681520193018461432f565b6001919460ff8560e81c16815201930184614327565b6001919460ff8560e01c1681520193018461431f565b6001919460ff8560d81c16815201930184614317565b6001919460ff8560d01c1681520193018461430f565b6001919460ff8560c81c16815201930184614307565b6001919460ff8560c01c168152019301846142ff565b6001919460ff8560b81c168152019301846142f7565b6001919460ff8560b01c168152019301846142ef565b6001919460ff8560a81c168152019301846142e7565b6001919460ff8560a01c168152019301846142df565b6001919460ff8560981c168152019301846142d7565b6001919460ff8560901c168152019301846142cf565b6001919460ff8560881c168152019301846142c7565b6001919460ff8560801c168152019301846142bf565b6001919460ff8560781c168152019301846142b7565b6001919460ff8560701c168152019301846142af565b6001919460ff8560681c168152019301846142a7565b6001919460ff8560601c1681520193018461429f565b6001919460ff8560581c16815201930184614297565b6001919460ff8560501c1681520193018461428f565b6001919460ff8560481c16815201930184614287565b6001919460ff8560401c1681520193018461427f565b6001919460ff8560381c16815201930184614277565b6001919460ff8560301c1681520193018461426f565b6001919460ff8560281c16815201930184614267565b6001919460ff85831c1681520193018461425f565b6001919460ff8560181c16815201930184614257565b6001919460ff8560101c1681520193018461424f565b6001919460ff8560081c16815201930184614247565b6001919460ff851681520193018461423f565b9350916001610400829693865460ff8116825260ff8160081c168583015260ff8160101c16604083015260ff816060828260181c16818601528282608082828c1c1681890152828260a092828260281c16848c0152828260c0988d8a848460301c169101528d60e0848460381c169101528d610100848460401c169101528d610120848460481c169101528d610140848460501c169101528d610160848460581c169101521c166101808c0152828260681c166101a08c0152828260701c166101c08c0152828260781c166101e08c01521c16610200890152828260881c16610220890152828260901c16610240890152828260981c166102608901521c16610280860152828260a81c166102a0860152828260b01c166102c0860152828260b81c166102e08601521c1661030083015260ff8160c81c1661032083015260ff8160d01c1661034083015260ff8160d81c1661036083015260ff8160e01c1661038083015260ff8160e81c166103a083015260ff8160f01c166103c083015260f81c6103e082015201940192018693919492614225565b9190916001600160401b03808094169116019182116147a557565b634e487b7160e01b600052601160045260246000fd5b818102929181159184041417156147a557565b919082018092116147a557565b919082039182116147a557565b90816020910312610e0c575160ff81168103610e0c5790565b600260655414614812576002606555565b60405162461bcd60e51b815260206004820152601f60248201527f5265656e7472616e637947756172643a207265656e7472616e742063616c6c006044820152606490fd5b818110614862575050565b60008155600101614857565b8054600082558061487d575050565b6141e291600052602060002090810190614857565b90600160401b8111610997578154908083558181106148b057505050565b6141e29260005260206000209182019101614857565b805460008255806148d5575050565b6141e291600052601f6020600020910160051c810190614857565b90600160401b811161099757815481835580821061490d57505050565b6141e292600052601f6020600020918180850160051c8401941680614939575b500160051c0190614857565b600019908186019182549160200360031b1c1690553861492d565b6001600160401b0381116109975760051b60200190565b80548210156149835760005260206000200190600090565b634e487b7160e01b600052603260045260246000fd5b6000828152600182016020526040902054614a0057805490600160401b82101561099757826149e96149d284600180960185558461496b565b819391549060031b91821b91600019901b19161790565b905580549260005201602052604060002055600190565b5050600090565b90600182019060009281845282602052604084205490811515600014614adc576000199180830181811161398f57825490848201918211614ac857808203614a93575b50505080548015614a7f57820191614a62838361496b565b909182549160031b1b191690555582526020526040812055600190565b634e487b7160e01b86526031600452602486fd5b614ab3614aa36149d2938661496b565b90549060031b1c9283928661496b565b90558652846020526040862055388080614a4a565b634e487b7160e01b88526011600452602488fd5b5050505090565b9291614aee82614954565b91614afc6040519384614118565b829481845260208094019160051b8101928311610e0c57905b828210614b225750505050565b81358152908301908301614b15565b929091906000915b8451831015614b8657614b4c8386614bba565b5190600082821015614b745750600052602052614b6e60406000205b92614b8e565b91614b39565b604091614b6e93825260205220614b68565b915092501490565b60001981146147a55760010190565b8051156149835760200190565b8051600110156149835760400190565b80518210156149835760209160051b010190565b90816020910312610e0c57518015158103610e0c5790565b6001600160a01b03908116908115614ced57609f54604051636eb1769f60e11b815233600482015291166001600160a01b0316602482015290602090829081806044810103915afa908115614ce157600091614cb0575b5010614c4557565b60405162461bcd60e51b815260206004820152603960248201527f73656e646572206e6565647320746f20617070726f766520455243323041707060448201527f726f76616c4d616e6167657220666f722063757272656e6379000000000000006064820152608490fd5b906020823d8211614cd9575b81614cc960209383614118565b8101031261021757505138614c3d565b3d9150614cbc565b6040513d6000823e3d90fd5b505050565b6001600160a01b0391600091838116908115614ef45734614e9e576040938451916370a0823160e01b908184523060048501526020978885602481895afa948515614e94578495614e65575b50609f541690813b15612de7578751630aed65f560e11b81526001600160a01b03919091166004820152336024820152306044820152606481018790529083908290608490829084905af18015614e5b5790889291614e48575b50602487518096819382523060048301525afa908115614e3d5790614e0e575b614dc292506147db565b03614dcb575050565b60649250519062461bcd60e51b82526004820152601c60248201527f6e6f7420656e6f75676820746f6b656e73207472616e736665726564000000006044820152fd5b508482813d8311614e36575b614e248183614118565b81010312610e0c57614dc29151614db8565b503d614e1a565b8551903d90823e3d90fd5b614e54909391936140ea565b9138614d98565b87513d85823e3d90fd5b9094508881813d8311614e8d575b614e7d8183614118565b81010312612de757519338614d3e565b503d614e73565b88513d86823e3d90fd5b60405162461bcd60e51b815260206004820152602860248201527f6d73672e76616c75652073686f756c642062652030207768656e206e6f7420756044820152670e6d2dcce40cae8d60c31b6064820152608490fd5b50509150503403614f0157565b60405162461bcd60e51b81526020600482015260136024820152721b9bdd08195b9bdd59da08195d1a081cd95b9d606a1b6044820152606490fd5b3d15614f76573d906001600160401b0382116109975760405191614f6a601f8201601f191660200184614118565b82523d6000602084013e565b606090565b6020808252825181830181905290939260005b828110614fb057505060409293506000838284010152601f8019910116010190565b818101860151848201604001528501614f8e565b15614fcc5750565b60405162461bcd60e51b8152908190614fe89060048301614f7b565b0390fd5b929190801561508457606461500461500b93836147bb565b04906147ce565b6001600160a01b039290919083168015615029576141e2935061508a565b50609b5460405163410085df60e01b602082019081526001600160a01b039093166024820152604481018490526141e2946000948594939091169291615072816064810161041a565b51925af161507e614f3c565b90614fc4565b50505050565b60405163a9059cbb60e01b60208083019182526001600160a01b039490941660248301526044808301959095529381529192615123929160009081906150d1606486614118565b60018060a01b031692604051946150e7866140fd565b8786527f5361666545524332303a206c6f772d6c6576656c2063616c6c206661696c656488870152519082855af161511d614f3c565b916151ab565b805190828215928315615193575b5050501561513c5750565b6084906040519062461bcd60e51b82526004820152602a60248201527f5361666545524332303a204552433230206f7065726174696f6e20646964206e6044820152691bdd081cdd58d8d9595960b21b6064820152fd5b6151a39350820181019101614bce565b388281615131565b9192901561520d57508151156151bf575090565b3b156151c85790565b60405162461bcd60e51b815260206004820152601d60248201527f416464726573733a2063616c6c20746f206e6f6e2d636f6e74726163740000006044820152606490fd5b825190915015614fcc5750805190602001fd5b6001600160a01b039081169493929091851561527b575060005b815181101561527357806152698461525561526e9486614bba565b51166152618388614bba565b51908961508a565b614b8e565b61523a565b505050509050565b92945090609b54169160405160206152ab8183019463c176e63960e01b8652604060248501526064840190613f49565b82810360231901604484015287518082529082019782019160005b8281106152ef575050505091600093918361507286956141e2989903601f198101835282614118565b83518a5298810198928101926001016152c656fea2646970667358221220cc1ca998abc394c2395024e0387ed41a6642f970820e9610c03676a92ef67a5a64736f6c63430008120033","linkReferences":{"src/v2/utils/MarketConfigV2.sol":{"MarketConfigV2":[{"start":1746,"length":20}]}}},"methodIdentifiers":{"auctionBids(address,uint256)":"299a0e1e","auctionLengthExtension()":"daa26499","bid(address,uint256,address,uint128)":"6699ee43","bidWithAuctionMerkleProof(address,address,uint256,address,bytes32,uint128,bytes32[])":"95cf6b90","cancelAuctionMerkleRoot(bytes32)":"ac964f8e","creatorRootToConfig(address,bytes32)":"bb120e66","getAuctionDetails(address,uint256)":"0cd87c68","getCreatorAuctionMerkleRootNonce(address,bytes32)":"e29ac890","getCurrentBid(address,uint256)":"e35ed75a","getMerkleAuctionConfig(address,bytes32)":"76ffb5a7","getTokenAuctionNonce(address,bytes32,address,uint256)":"d97f7657","getUserAuctionMerkleRoots(address)":"4ebade5f","initialize(address,address,address,address,address,address,address,address,address,address)":"c306b378","isTokenInRoot(bytes32,address,uint256,bytes32[])":"5e51b2d4","maxAuctionLength()":"0e519ef9","minimumBidIncreasePercentage()":"6fe9f44c","owner()":"8da5cb5b","registerAuctionMerkleRoot(bytes32,address,uint128,uint64,address[],uint8[])":"301aa514","renounceOwnership()":"715018a6","setAuctionLengthExtension(uint256)":"10f79789","setMaxAuctionLength(uint256)":"affdafd8","setMinimumBidIncreasePercentage(uint8)":"48626b90","settleAuction(address,uint256)":"5138b08c","tokenAuctions(address,uint256)":"c47c35c1","transferOwnership(address)":"f2fde38b"},"id":69}