{"abi":[{"type":"constructor","inputs":[{"name":"_marketplaceSettings","type":"address","internalType":"address"},{"name":"_spaceOperatorRegistry","type":"address","internalType":"address"}],"stateMutability":"nonpayable"},{"type":"function","name":"createRareSpaceNFTContract","inputs":[{"name":"_name","type":"string","internalType":"string"},{"name":"_symbol","type":"string","internalType":"string"}],"outputs":[{"name":"","type":"address","internalType":"address"}],"stateMutability":"nonpayable"},{"type":"function","name":"marketplaceSettings","inputs":[],"outputs":[{"name":"","type":"address","internalType":"contract IMarketplaceSettings"}],"stateMutability":"view"},{"type":"function","name":"owner","inputs":[],"outputs":[{"name":"","type":"address","internalType":"address"}],"stateMutability":"view"},{"type":"function","name":"rareSpaceNFT","inputs":[],"outputs":[{"name":"","type":"address","internalType":"address"}],"stateMutability":"view"},{"type":"function","name":"renounceOwnership","inputs":[],"outputs":[],"stateMutability":"nonpayable"},{"type":"function","name":"setIMarketplaceSettings","inputs":[{"name":"_marketplaceSettings","type":"address","internalType":"address"}],"outputs":[],"stateMutability":"nonpayable"},{"type":"function","name":"setRareSpaceNFT","inputs":[{"name":"_rareSpaceNFT","type":"address","internalType":"address"}],"outputs":[],"stateMutability":"nonpayable"},{"type":"function","name":"spaceOperatorRegistry","inputs":[],"outputs":[{"name":"","type":"address","internalType":"contract ISpaceOperatorRegistry"}],"stateMutability":"view"},{"type":"function","name":"transferOwnership","inputs":[{"name":"newOwner","type":"address","internalType":"address"}],"outputs":[],"stateMutability":"nonpayable"},{"type":"event","name":"OwnershipTransferred","inputs":[{"name":"previousOwner","type":"address","indexed":true,"internalType":"address"},{"name":"newOwner","type":"address","indexed":true,"internalType":"address"}],"anonymous":false},{"type":"event","name":"RareSpaceNFTContractCreated","inputs":[{"name":"_contractAddress","type":"address","indexed":true,"internalType":"address"},{"name":"_operator","type":"address","indexed":true,"internalType":"address"}],"anonymous":false}],"bytecode":{"object":"0x60803461012d576001600160401b0390601f61272e38819003918201601f19168301918483118484101761013257808492604094855283398101031261012d57610054602061004d83610148565b9201610148565b600080546001600160a01b031980821633908117845560405191966001600160a01b039694959294909387929083167f8be0079c531659141344cd1fd0a4f28419497f9722a3daafe3b4186f6b6457e08880a31690811561012957851690811561012957866001541617600155856002541617600255611f748083019183831090831117610115579082916107ba8339039082f090811561010957501690600354161760035560405161065d908161015d8239f35b604051903d90823e3d90fd5b634e487b7160e01b84526041600452602484fd5b8480fd5b600080fd5b634e487b7160e01b600052604160045260246000fd5b51906001600160a01b038216820361012d5756fe6040608081526004908136101561001557600080fd5b600091823560e01c908163030f3ee6146105075781630bcba09d146104de578163715018a61461048157816374384883146104375781638da5cb5b1461040f578163ba50b632146103e6578163d0ba7ef814610185578163f2fde38b146100b1575063f506ea791461008657600080fd5b346100ad57816003193601126100ad5760035490516001600160a01b039091168152602090f35b5080fd5b91905034610181576020366003190112610181576001600160a01b0382358181169391929084900361017d576100e5610584565b831561012b575050600054826001600160601b0360a01b821617600055167f8be0079c531659141344cd1fd0a4f28419497f9722a3daafe3b4186f6b6457e0600080a380f35b906020608492519162461bcd60e51b8352820152602660248201527f4f776e61626c653a206e6577206f776e657220697320746865207a65726f206160448201526564647265737360d01b6064820152fd5b8480fd5b8280fd5b91905034610181576003199181833601126103e25767ffffffffffffffff81358181116103de576101b99036908401610551565b916024359081116103da576101d19036908501610551565b600354608881901c62ffffff16763d602d80600a3d3981f3363d3d373d3d3d363d7300000017895260781b6effffffffffffffffffffffffffffff19166e5af43d82803e903d91602b57fd5bf3176020526001600160a01b039390929184603760098bf01697881561039e579089939291893b1561017d578851633772ba0d60e11b815260608982015295869485946102829491610273916064880191610606565b92858403016024860152610606565b336044830152038183895af180156103945761037f575b50908491835133867fabe0dd57947693bae591655c14bbe6fd911ea23c65899a1882a49ac2ce5f1f558680a38160015416803b1561017d578160448187809463ae312a9760e01b83528b89840152600f60248401525af1801561037557908491610361575b505060025416803b15610181576044839285519485938492634623c80960e11b84523390840152600560248401525af1801561035757610343575b6020838351908152f35b61034d84916105dc565b6101815782610339565b82513d86823e3d90fd5b61036a906105dc565b6101815782386102fe565b85513d86823e3d90fd5b61038c90959192956105dc565b939038610299565b84513d88823e3d90fd5b875162461bcd60e51b81526020818901526016602482015275115490cc4c4d8dce8818dc99585d194819985a5b195960521b6044820152606490fd5b8680fd5b8580fd5b8380fd5b5050346100ad57816003193601126100ad5760015490516001600160a01b039091168152602090f35b5050346100ad57816003193601126100ad57905490516001600160a01b039091168152602090f35b8390346100ad5760203660031901126100ad57356001600160a01b038116908190036100ad57610465610584565b80156100ad576001600160601b0360a01b600154161760015580f35b83346104db57806003193601126104db5761049a610584565b80546001600160a01b03198116825581906001600160a01b03167f8be0079c531659141344cd1fd0a4f28419497f9722a3daafe3b4186f6b6457e08280a380f35b80fd5b5050346100ad57816003193601126100ad5760025490516001600160a01b039091168152602090f35b8390346100ad5760203660031901126100ad57356001600160a01b038116908190036100ad57610535610584565b80156100ad576001600160601b0360a01b600354161760035580f35b9181601f8401121561057f5782359167ffffffffffffffff831161057f576020838186019501011161057f57565b600080fd5b6000546001600160a01b0316330361059857565b606460405162461bcd60e51b815260206004820152602060248201527f4f776e61626c653a2063616c6c6572206973206e6f7420746865206f776e65726044820152fd5b67ffffffffffffffff81116105f057604052565b634e487b7160e01b600052604160045260246000fd5b908060209392818452848401376000828201840152601f01601f191601019056fea2646970667358221220f2a6f9ac6af2d9509ff6e6bbbaa010c0c3207b72c7990fbc3b4c0ea6a6bad51764736f6c634300081200336080806040523461002457610101805460ff19166001179055611f4a908161002a8239f35b600080fdfe6080604081815260048036101561001557600080fd5b600092833560e01c90816301ffc9a7146115d75750806306fdde031461152d578063081812fc1461150d578063095ea7b31461139d5780631029f46714611370578063139d8325146113505780631ef87a5d146112a257806323b872dd1461127d5780632a55205a146111eb5780632d13f7d8146111c35780633403c4e91461119a5780633af32abf1461115c57806340c1a0641461112a57806342842e0e146111015783816342966c68146110c3575080634aa52c4114610d9c57806351fb012d14610d77578381636297c16c14610ca5575080636352211e14610c745780636ee5741a1461082257806370a082311461078c578063715018a61461072c57806380e3f1ad146106f357806381b97161146106ba5780638ab1d681146106545780638da5cb5b1461062b57806395d89b4114610546578063a22cb4651461047b578063ab69607a1461045c578063b88d4fde146103f7578063c87b56dd14610387578063e43252d71461031c578063e5cff4871461028e578063e985e9c51461023c5763f2fde38b146101a857600080fd5b34610238576020366003190112610238576101c16116b7565b916101ca611829565b6001600160a01b038316156101e657836101e384611881565b80f35b906020608492519162461bcd60e51b8352820152602660248201527f4f776e61626c653a206e6577206f776e657220697320746865207a65726f206160448201526564647265737360d01b6064820152fd5b8280fd5b50503461028a578060031936011261028a5760ff8160209361025c6116b7565b6102646116d2565b6001600160a01b039182168352609c875283832091168252855220549151911615158152f35b5080fd5b50346102385781600319360112610238578035916102aa6116d2565b83855260c96020528185205490936001600160a01b03939091841633036102eb5750845260fe602052832091166001600160601b0360a01b82541617905580f35b606490602084519162461bcd60e51b8352820152600b60248201526a2737ba1031b932b0ba37b960a91b6044820152fd5b50503461028a57602036600319011261028a577fbc6a3f008d10f4c6e9c2a833342ba74f94b2beb3479cfb358034d6e1bc7e5c3e602061035a6116b7565b610362611829565b6001600160a01b0316808552610100825283852060001990819055935193845292a280f35b5091903461028a57602036600319011261028a576103c66103c16103f39435600052609960205260018060a01b0360406000205416151590565b6118ca565b8181516103d281611764565b528051916103df83611764565b825251918291602083526020830190611677565b0390f35b83823461028a57608036600319011261028a576104126116b7565b61041a6116d2565b9060643567ffffffffffffffff81116104585736602382011215610458576101e39381602461044e933693013591016117d4565b9160443591611a13565b8480fd5b50503461028a578160031936011261028a5760209060fd549051908152f35b5090346102385780600319360112610238576104956116b7565b9060243591821515809303610458576001600160a01b0316923384146105045750338452609c60205280842083855260205280842060ff1981541660ff8416179055519081527f17307eab39ab6107e8899845ad3d59bd9653f200f220920489ca2b5937696c3160203392a380f35b6020606492519162461bcd60e51b8352820152601960248201527f4552433732313a20617070726f766520746f2063616c6c6572000000000000006044820152fd5b50503461028a578160031936011261028a578051908260985461056881611939565b8085529160019180831690811561060357506001146105a6575b505050610594826103f3940383611796565b51918291602083526020830190611677565b9450609885527f2237a976fa961f5921fd19f2b03c925c725d77b20ce8f790c19709c03de4d8145b8286106105eb575050506105948260206103f39582010194610582565b805460208787018101919091529095019481016105ce565b6103f397508693506020925061059494915060ff191682840152151560051b82010194610582565b50503461028a578160031936011261028a5760335490516001600160a01b039091168152602090f35b50503461028a57602036600319011261028a577fbc6a3f008d10f4c6e9c2a833342ba74f94b2beb3479cfb358034d6e1bc7e5c3e60206106926116b7565b61069a611829565b6001600160a01b031680855261010082528385208590559251848152a280f35b50503461028a57602036600319011261028a5760209181906001600160a01b036106e26116b7565b168152610100845220549051908152f35b83823461028a57602036600319011261028a573580151580910361028a57610719611829565b6101019060ff8019835416911617905580f35b8334610789578060031936011261078957610745611829565b603380546001600160a01b0319811690915581906001600160a01b03167f8be0079c531659141344cd1fd0a4f28419497f9722a3daafe3b4186f6b6457e08280a380f35b80fd5b5082903461028a57602036600319011261028a576001600160a01b036107b06116b7565b169081156107cd576020848085858152609a845220549051908152f35b608490602085519162461bcd60e51b8352820152602960248201527f4552433732313a2061646472657373207a65726f206973206e6f7420612076616044820152683634b21037bbb732b960b91b6064820152fd5b5090346102385760603660031901126102385767ffffffffffffffff91803583811161045857610855903690830161180b565b602435848111610c705761086c903690840161180b565b936108756116e8565b9186549560ff8760081c161594858096610c63575b8015610c4c575b15610bf257600197868960ff198316178b55610be1575b506001600160a01b03851615610bdd57600a610104556108d760ff8a5460081c166108d281611da8565b611da8565b8251848111610bca57806108ec609754611939565b94601f95868111610b5c575b50602090868311600114610add578c92610ad2575b5050600019600383901b1c191690891b176097555b8151938411610abf5750610937609854611939565b828111610a5c575b5060209183116001146109d85761098c9392918891836109cd575b5050600019600383901b1c191690861b176098555b61097f60ff875460081c16611da8565b610987611829565b611881565b610994578280f35b825461ff0019168355519081527f7f26b83ff96e1f2b6a682f133852f6798a09c465da95921460cefb384740249890602090a138808280f35b01519050388061095a565b60988852929186917f2237a976fa961f5921fd19f2b03c925c725d77b20ce8f790c19709c03de4d81490601f1983168a5b818110610a445750958361098c9710610a2b575b505050811b0160985561096f565b015160001960f88460031b161c19169055388080610a1d565b8288015184558a959093019260209283019201610a09565b609889527f2237a976fa961f5921fd19f2b03c925c725d77b20ce8f790c19709c03de4d8148380860160051c82019260208710610ab6575b0160051c019088905b828110610aab57505061093f565b8a8155018890610a9d565b92508192610a94565b634e487b7160e01b895260419052602488fd5b01519050388061090d565b60978d528b93507f354a83ed9988f79f6038d4c7a7dadbad8af32f4ad6df893e0e5807a1b1944ff99190601f1984168e5b818110610b4457508411610b2b575b505050811b01609755610922565b015160001960f88460031b161c19169055388080610b1d565b8284015185558e969094019360209384019301610b0e565b90915060978c527f354a83ed9988f79f6038d4c7a7dadbad8af32f4ad6df893e0e5807a1b1944ff98680850160051c82019260208610610bc1575b918d91869594930160051c01915b828110610bb35750506108f8565b8e81558594508d9101610ba5565b92508192610b97565b634e487b7160e01b8a526041825260248afd5b8880fd5b61ffff1916610101178955386108a8565b608490602088519162461bcd60e51b8352820152602e60248201527f496e697469616c697a61626c653a20636f6e747261637420697320616c72656160448201526d191e481a5b9a5d1a585b1a5e995960921b6064820152fd5b50303b1580156108915750600160ff891614610891565b50600160ff89161061088a565b8580fd5b5091346107895760203660031901126107895750610c9460209235611916565b90516001600160a01b039091168152f35b9190503461028a57602036600319011261028a573591610cc483611916565b6001600160a01b03903390821603610238573381610ce186611916565b160361023857610cf9610cf48533611aae565b6119b1565b610d0284611916565b50610d0c84611916565b90848452609b602052828420916001600160601b0360a01b928381541690551691828452609a6020528084206000198154019055848452609960205283209081541690557fddf252ad1be2c89b69c2b068fc378daa952ba7f163c4a11628f55a4df523b3ef8280a480f35b50503461028a578160031936011261028a5760209060ff610101541690519015158152f35b50903461023857606036600319011261023857813567ffffffffffffffff8082116104585736602383011215610458578184013590808211610c70573660248385010111610c7057610dec6116d2565b90610df56116e8565b9060019485610e0333611ee5565b10610bdd57610e1b90610104549560243692016117d4565b9261010393610e2a8554611e08565b808655966001600160a01b0392831693841561108057600089815260996020526040902054610e65906001600160a01b031615155b15611e53565b600089815260996020526040902054610e88906001600160a01b03161515610e5f565b848c52602098609a8a528a8d20838154019055808d5260998a528a8d20956001600160601b0360a01b9681888254161790558d7fddf252ad1be2c89b69c2b068fc378daa952ba7f163c4a11628f55a4df523b3ef8180a486548c526101028952898c2092805191821161106d578c8a610f018654611939565b91601f8311611025575b9150505089908d601f8411600114610fc45791839491849394610fb9575b50501b916000199060031b1c19161790555b8354895260c9865286892033838254161790558354895260fe865286892092169082541617905554855260ff82528285205560ff6101015416610f7c578380f35b3384526101009081815282852054936000198501948511610fa65750338552528220553880808380f35b634e487b7160e01b865260119052602485fd5b015192503880610f29565b919083601f1981168785528d80862095905b8883831061100d5750505010610ff4575b505050811b019055610f3b565b015160001960f88460031b161c19169055388080610fe7565b8686015188559096019594850194879350018e610fd6565b86815220601f840160051c8101918c8510611063575b601f0160051c019084908f5b8382106110585790508c9150610f0b565b81550184908f611047565b909150819061103b565b634e487b7160e01b8d5260418c5260248dfd5b895162461bcd60e51b81526020818d0181905260248201527f4552433732313a206d696e7420746f20746865207a65726f20616464726573736044820152606490fd5b9190503461028a57602036600319011261028a5735916110e283611916565b6001600160a01b0390339082160361023857610cf9610cf48533611aae565b50503461028a576101e3906111153661172f565b9192519261112284611764565b858452611a13565b50346102385760203660031901126102385735825260c96020908152918190205490516001600160a01b039091168152f35b50503461028a57602036600319011261028a5760209161118261117d6116b7565b611ee5565b1561119457506001905b519015158152f35b9061118c565b50503461028a578160031936011261028a5760fc5490516001600160a01b039091168152602090f35b50503461028a57602036600319011261028a576020906111e461117d6116b7565b9051908152f35b5091346107895781600319360112610789578235815260fe60205281812054602435906001600160a01b03908116801561127157925b60ff60205284812054801561126757925b8381029381850414901517156112545750835192168252606490046020820152f35b634e487b7160e01b815260118652602490fd5b5060fd5492611232565b508060fc541692611221565b8334610789576101e361128f3661172f565b9161129d610cf48433611aae565b611b76565b5090346102385736600319011261028a5767ffffffffffffffff813581811161134c576112d290369084016116fe565b919092602435918211610458576112eb913691016116fe565b916112f4611829565b82810361045857845b818110611308578580f35b611313818387611e2d565b35906001600160a01b03821682036113485761133e61134392611337838888611e2d565b3590611e9f565b611e08565b6112fd565b8680fd5b8380fd5b50503461028a578160031936011261028a57602090610104549051908152f35b50503461028a57366003190112610789576101e361138c6116b7565b611394611829565b60243590611e9f565b50346102385781600319360112610238576113b66116b7565b6024359290916001600160a01b03919082806113d187611916565b169416938085146114c0578033149081156114a1575b50156114395750838552609b602052842080546001600160a01b0319168317905561141183611916565b167f8c5be1e5ebec7d5bd14f71427d1e84f3dd0314c0f7b2291e5b200ac8c7c3b9258480a480f35b6020608492519162461bcd60e51b8352820152603d60248201527f4552433732313a20617070726f76652063616c6c6572206973206e6f7420746f60448201527f6b656e206f776e6572206f7220617070726f76656420666f7220616c6c0000006064820152fd5b90508652609c60205281862033875260205260ff8287205416386113e7565b506020608492519162461bcd60e51b8352820152602160248201527f4552433732313a20617070726f76616c20746f2063757272656e74206f776e656044820152603960f91b6064820152fd5b5091346107895760203660031901126107895750610c9460209235611973565b50503461028a578160031936011261028a578051908260975461154f81611939565b80855291600191808316908115610603575060011461157a57505050610594826103f3940383611796565b9450609785527f354a83ed9988f79f6038d4c7a7dadbad8af32f4ad6df893e0e5807a1b1944ff95b8286106115bf575050506105948260206103f39582010194610582565b805460208787018101919091529095019481016115a2565b92505034610238576020366003190112610238573563ffffffff60e01b81168091036102385760209250631030681960e21b811490811561161a575b5015158152f35b63152a902d60e11b811491508115611634575b5038611613565b6380ac58cd60e01b811491508115611666575b8115611655575b503861162d565b6301ffc9a760e01b1490503861164e565b635b5e139f60e01b81149150611647565b919082519283825260005b8481106116a3575050826000602080949584010152601f8019910116010190565b602081830181015184830182015201611682565b600435906001600160a01b03821682036116cd57565b600080fd5b602435906001600160a01b03821682036116cd57565b604435906001600160a01b03821682036116cd57565b9181601f840112156116cd5782359167ffffffffffffffff83116116cd576020808501948460051b0101116116cd57565b60609060031901126116cd576001600160a01b039060043582811681036116cd579160243590811681036116cd579060443590565b6020810190811067ffffffffffffffff82111761178057604052565b634e487b7160e01b600052604160045260246000fd5b90601f8019910116810190811067ffffffffffffffff82111761178057604052565b67ffffffffffffffff811161178057601f01601f191660200190565b9291926117e0826117b8565b916117ee6040519384611796565b8294818452818301116116cd578281602093846000960137010152565b9080601f830112156116cd57816020611826933591016117d4565b90565b6033546001600160a01b0316330361183d57565b606460405162461bcd60e51b815260206004820152602060248201527f4f776e61626c653a2063616c6c6572206973206e6f7420746865206f776e65726044820152fd5b603380546001600160a01b039283166001600160a01b0319821681179092559091167f8be0079c531659141344cd1fd0a4f28419497f9722a3daafe3b4186f6b6457e0600080a3565b156118d157565b60405162461bcd60e51b815260206004820152601860248201527f4552433732313a20696e76616c696420746f6b656e20494400000000000000006044820152606490fd5b6000908152609960205260409020546001600160a01b03166118268115156118ca565b90600182811c92168015611969575b602083101461195357565b634e487b7160e01b600052602260045260246000fd5b91607f1691611948565b600081815260996020526040902054611996906001600160a01b031615156118ca565b6000908152609b60205260409020546001600160a01b031690565b156119b857565b60405162461bcd60e51b815260206004820152602d60248201527f4552433732313a2063616c6c6572206973206e6f7420746f6b656e206f776e6560448201526c1c881bdc88185c1c1c9bdd9959609a1b6064820152608490fd5b90611a37939291611a27610cf48433611aae565b611a32838383611b76565b611c87565b15611a3e57565b60405162461bcd60e51b815280611a5760048201611a5b565b0390fd5b60809060208152603260208201527f4552433732313a207472616e7366657220746f206e6f6e20455243373231526560408201527131b2b4bb32b91034b6b83632b6b2b73a32b960711b60608201520190565b906001600160a01b038080611ac284611916565b16931691838314938415611af5575b508315611adf575b50505090565b611aeb91929350611973565b1614388080611ad9565b909350600052609c60205260406000208260005260205260ff604060002054169238611ad1565b15611b2357565b60405162461bcd60e51b815260206004820152602560248201527f4552433732313a207472616e736665722066726f6d20696e636f72726563742060448201526437bbb732b960d91b6064820152608490fd5b90611b9e91611b8484611916565b6001600160a01b0393918416928492909183168414611b1c565b16918215611c365781611bbb91611bb486611916565b1614611b1c565b7fddf252ad1be2c89b69c2b068fc378daa952ba7f163c4a11628f55a4df523b3ef6000848152609b602052604081206001600160601b0360a01b90818154169055838252609a6020526040822060001981540190558482526040822060018154019055858252609960205284604083209182541617905580a4565b60405162461bcd60e51b8152602060048201526024808201527f4552433732313a207472616e7366657220746f20746865207a65726f206164646044820152637265737360e01b6064820152608490fd5b9293600093909291803b15611d9d57948491611ce19660405180948193630a85bd0160e11b9788845233600485015260018060a01b0380921660248501526044840152608060648401528260209b8c976084830190611677565b0393165af1849181611d5d575b50611d4c575050503d600014611d44573d611d08816117b8565b90611d166040519283611796565b81528091833d92013e5b80519182611d415760405162461bcd60e51b815280611a5760048201611a5b565b01fd5b506060611d20565b6001600160e01b0319161492509050565b9091508581813d8311611d96575b611d758183611796565b8101031261045857516001600160e01b031981168103610458579038611cee565b503d611d6b565b505050915050600190565b15611daf57565b60405162461bcd60e51b815260206004820152602b60248201527f496e697469616c697a61626c653a20636f6e7472616374206973206e6f74206960448201526a6e697469616c697a696e6760a81b6064820152608490fd5b6000198114611e175760010190565b634e487b7160e01b600052601160045260246000fd5b9190811015611e3d5760051b0190565b634e487b7160e01b600052603260045260246000fd5b15611e5a57565b60405162461bcd60e51b815260206004820152601c60248201527f4552433732313a20746f6b656e20616c7265616479206d696e746564000000006044820152606490fd5b60207fbc6a3f008d10f4c6e9c2a833342ba74f94b2beb3479cfb358034d6e1bc7e5c3e9160018060a01b03169283600052610100825280604060002055604051908152a2565b6101015460ff1615611f0d576001600160a01b03166000908152610100602052604090205490565b506000199056fea2646970667358221220a877b024cbaec56540e20c41347502ca708dde1f1b158ea5a00134dc8030e02464736f6c63430008120033","linkReferences":{}},"methodIdentifiers":{"createRareSpaceNFTContract(string,string)":"d0ba7ef8","marketplaceSettings()":"ba50b632","owner()":"8da5cb5b","rareSpaceNFT()":"f506ea79","renounceOwnership()":"715018a6","setIMarketplaceSettings(address)":"74384883","setRareSpaceNFT(address)":"030f3ee6","spaceOperatorRegistry()":"0bcba09d","transferOwnership(address)":"f2fde38b"},"id":182}