{"abi":[{"type":"function","name":"MAX_BATCH_SIZE","inputs":[],"outputs":[{"name":"","type":"uint256","internalType":"uint256"}],"stateMutability":"view"},{"type":"function","name":"MAX_CHECKOUT_SIZE","inputs":[],"outputs":[{"name":"","type":"uint256","internalType":"uint256"}],"stateMutability":"view"},{"type":"function","name":"acceptOffer","inputs":[{"name":"_contractAddress","type":"address","internalType":"address"},{"name":"_tokenId","type":"uint256","internalType":"uint256"},{"name":"_buyer","type":"address","internalType":"address"},{"name":"_currencyAddress","type":"address","internalType":"address"},{"name":"_price","type":"uint256","internalType":"uint256"},{"name":"_quantity","type":"uint256","internalType":"uint256"},{"name":"_splitRecipients","type":"address[]","internalType":"address payable[]"},{"name":"_splitRatios","type":"uint8[]","internalType":"uint8[]"}],"outputs":[],"stateMutability":"nonpayable"},{"type":"function","name":"buyBatch","inputs":[{"name":"_contractAddress","type":"address","internalType":"address"},{"name":"_seller","type":"address","internalType":"address"},{"name":"_currencyAddress","type":"address","internalType":"address"},{"name":"_requests","type":"tuple[]","internalType":"struct IRareERC1155MarketplaceTypes.BuyRequest[]","components":[{"name":"tokenId","type":"uint256","internalType":"uint256"},{"name":"price","type":"uint256","internalType":"uint256"},{"name":"quantity","type":"uint256","internalType":"uint256"}]}],"outputs":[],"stateMutability":"payable"},{"type":"function","name":"checkout","inputs":[{"name":"_items","type":"tuple[]","internalType":"struct IRareERC1155MarketplaceTypes.CheckoutItem[]","components":[{"name":"itemKind","type":"uint8","internalType":"uint8"},{"name":"contractAddress","type":"address","internalType":"address"},{"name":"seller","type":"address","internalType":"address"},{"name":"currencyAddress","type":"address","internalType":"address"},{"name":"tokenId","type":"uint256","internalType":"uint256"},{"name":"price","type":"uint256","internalType":"uint256"},{"name":"quantity","type":"uint256","internalType":"uint256"},{"name":"proof","type":"bytes32[]","internalType":"bytes32[]"}]}],"outputs":[{"name":"execution","type":"tuple","internalType":"struct IRareERC1155MarketplaceTypes.CheckoutExecution","components":[{"name":"summary","type":"tuple","internalType":"struct IRareERC1155MarketplaceTypes.CheckoutSummary","components":[{"name":"filledCount","type":"uint256","internalType":"uint256"},{"name":"skippedCount","type":"uint256","internalType":"uint256"},{"name":"ethSpent","type":"uint256","internalType":"uint256"},{"name":"ethRefunded","type":"uint256","internalType":"uint256"}]},{"name":"items","type":"tuple[]","internalType":"struct IRareERC1155MarketplaceTypes.CheckoutItemResult[]","components":[{"name":"itemIndex","type":"uint256","internalType":"uint256"},{"name":"itemKind","type":"uint8","internalType":"uint8"},{"name":"contractAddress","type":"address","internalType":"address"},{"name":"tokenId","type":"uint256","internalType":"uint256"},{"name":"seller","type":"address","internalType":"address"},{"name":"currencyAddress","type":"address","internalType":"address"},{"name":"price","type":"uint256","internalType":"uint256"},{"name":"quantity","type":"uint256","internalType":"uint256"},{"name":"filled","type":"bool","internalType":"bool"},{"name":"failureStage","type":"uint8","internalType":"enum IRareERC1155MarketplaceTypes.CheckoutFailureStage"},{"name":"reason","type":"bytes4","internalType":"bytes4"},{"name":"failureData","type":"bytes","internalType":"bytes"},{"name":"totalPaid","type":"uint256","internalType":"uint256"}]}]}],"stateMutability":"payable"},{"type":"function","name":"executeCheckoutItem","inputs":[{"name":"_item","type":"tuple","internalType":"struct IRareERC1155MarketplaceTypes.CheckoutItem","components":[{"name":"itemKind","type":"uint8","internalType":"uint8"},{"name":"contractAddress","type":"address","internalType":"address"},{"name":"seller","type":"address","internalType":"address"},{"name":"currencyAddress","type":"address","internalType":"address"},{"name":"tokenId","type":"uint256","internalType":"uint256"},{"name":"price","type":"uint256","internalType":"uint256"},{"name":"quantity","type":"uint256","internalType":"uint256"},{"name":"proof","type":"bytes32[]","internalType":"bytes32[]"}]},{"name":"_remainingEth","type":"uint256","internalType":"uint256"},{"name":"_seller","type":"address","internalType":"address"},{"name":"_grossAmount","type":"uint256","internalType":"uint256"},{"name":"_marketplaceFee","type":"uint256","internalType":"uint256"},{"name":"_splitRecipients","type":"address[]","internalType":"address payable[]"},{"name":"_splitRatios","type":"uint8[]","internalType":"uint8[]"}],"outputs":[{"name":"totalPaid","type":"uint256","internalType":"uint256"},{"name":"newRemainingEth","type":"uint256","internalType":"uint256"}],"stateMutability":"payable"},{"type":"function","name":"executeCheckoutPayout","inputs":[{"name":"_item","type":"tuple","internalType":"struct IRareERC1155MarketplaceTypes.CheckoutItem","components":[{"name":"itemKind","type":"uint8","internalType":"uint8"},{"name":"contractAddress","type":"address","internalType":"address"},{"name":"seller","type":"address","internalType":"address"},{"name":"currencyAddress","type":"address","internalType":"address"},{"name":"tokenId","type":"uint256","internalType":"uint256"},{"name":"price","type":"uint256","internalType":"uint256"},{"name":"quantity","type":"uint256","internalType":"uint256"},{"name":"proof","type":"bytes32[]","internalType":"bytes32[]"}]},{"name":"_seller","type":"address","internalType":"address"},{"name":"_grossAmount","type":"uint256","internalType":"uint256"},{"name":"_marketplaceFee","type":"uint256","internalType":"uint256"},{"name":"_splitRecipients","type":"address[]","internalType":"address payable[]"},{"name":"_splitRatios","type":"uint8[]","internalType":"uint8[]"}],"outputs":[],"stateMutability":"payable"},{"type":"function","name":"mintDirectSaleBatch","inputs":[{"name":"_contractAddress","type":"address","internalType":"address"},{"name":"_currencyAddress","type":"address","internalType":"address"},{"name":"_requests","type":"tuple[]","internalType":"struct IRareERC1155MarketplaceTypes.MintRequest[]","components":[{"name":"tokenId","type":"uint256","internalType":"uint256"},{"name":"price","type":"uint256","internalType":"uint256"},{"name":"quantity","type":"uint256","internalType":"uint256"},{"name":"proof","type":"bytes32[]","internalType":"bytes32[]"}]}],"outputs":[],"stateMutability":"payable"},{"type":"event","name":"CheckoutCompleted","inputs":[{"name":"buyer","type":"address","indexed":true,"internalType":"address"},{"name":"filledCount","type":"uint256","indexed":false,"internalType":"uint256"},{"name":"skippedCount","type":"uint256","indexed":false,"internalType":"uint256"},{"name":"ethSpent","type":"uint256","indexed":false,"internalType":"uint256"},{"name":"ethRefunded","type":"uint256","indexed":false,"internalType":"uint256"}],"anonymous":false},{"type":"event","name":"CheckoutItemProcessed","inputs":[{"name":"itemIndex","type":"uint256","indexed":true,"internalType":"uint256"},{"name":"itemKind","type":"uint8","indexed":true,"internalType":"uint8"},{"name":"contractAddress","type":"address","indexed":true,"internalType":"address"},{"name":"tokenId","type":"uint256","indexed":false,"internalType":"uint256"},{"name":"seller","type":"address","indexed":false,"internalType":"address"},{"name":"currencyAddress","type":"address","indexed":false,"internalType":"address"},{"name":"price","type":"uint256","indexed":false,"internalType":"uint256"},{"name":"quantity","type":"uint256","indexed":false,"internalType":"uint256"},{"name":"filled","type":"bool","indexed":false,"internalType":"bool"},{"name":"failureStage","type":"uint8","indexed":false,"internalType":"enum IRareERC1155MarketplaceTypes.CheckoutFailureStage"},{"name":"reason","type":"bytes4","indexed":false,"internalType":"bytes4"},{"name":"failureData","type":"bytes","indexed":false,"internalType":"bytes"},{"name":"totalPaid","type":"uint256","indexed":false,"internalType":"uint256"}],"anonymous":false},{"type":"event","name":"ContractPausedUpdated","inputs":[{"name":"isPaused","type":"bool","indexed":false,"internalType":"bool"}],"anonymous":false},{"type":"event","name":"MarketplaceDependencyUpdated","inputs":[{"name":"field","type":"bytes32","indexed":true,"internalType":"bytes32"},{"name":"dependency","type":"address","indexed":true,"internalType":"address"}],"anonymous":false},{"type":"event","name":"MintDirectSale","inputs":[{"name":"contractAddress","type":"address","indexed":true,"internalType":"address"},{"name":"tokenId","type":"uint256","indexed":true,"internalType":"uint256"},{"name":"buyer","type":"address","indexed":true,"internalType":"address"},{"name":"seller","type":"address","indexed":false,"internalType":"address"},{"name":"quantity","type":"uint256","indexed":false,"internalType":"uint256"},{"name":"currency","type":"address","indexed":false,"internalType":"address"},{"name":"price","type":"uint256","indexed":false,"internalType":"uint256"}],"anonymous":false},{"type":"event","name":"OfferAccepted","inputs":[{"name":"seller","type":"address","indexed":true,"internalType":"address"},{"name":"buyer","type":"address","indexed":true,"internalType":"address"},{"name":"contractAddress","type":"address","indexed":true,"internalType":"address"},{"name":"tokenId","type":"uint256","indexed":false,"internalType":"uint256"},{"name":"currency","type":"address","indexed":false,"internalType":"address"},{"name":"price","type":"uint256","indexed":false,"internalType":"uint256"},{"name":"quantity","type":"uint256","indexed":false,"internalType":"uint256"}],"anonymous":false},{"type":"event","name":"OfferCancelled","inputs":[{"name":"buyer","type":"address","indexed":true,"internalType":"address"},{"name":"contractAddress","type":"address","indexed":true,"internalType":"address"},{"name":"tokenId","type":"uint256","indexed":true,"internalType":"uint256"},{"name":"currency","type":"address","indexed":false,"internalType":"address"},{"name":"price","type":"uint256","indexed":false,"internalType":"uint256"},{"name":"quantity","type":"uint256","indexed":false,"internalType":"uint256"},{"name":"marketplaceFeeRemaining","type":"uint256","indexed":false,"internalType":"uint256"}],"anonymous":false},{"type":"event","name":"OfferMade","inputs":[{"name":"buyer","type":"address","indexed":true,"internalType":"address"},{"name":"contractAddress","type":"address","indexed":true,"internalType":"address"},{"name":"tokenId","type":"uint256","indexed":true,"internalType":"uint256"},{"name":"currency","type":"address","indexed":false,"internalType":"address"},{"name":"price","type":"uint256","indexed":false,"internalType":"uint256"},{"name":"quantity","type":"uint256","indexed":false,"internalType":"uint256"},{"name":"marketplaceFee","type":"uint256","indexed":false,"internalType":"uint256"},{"name":"expirationTime","type":"uint256","indexed":false,"internalType":"uint256"}],"anonymous":false},{"type":"event","name":"PrepareMintDirectSale","inputs":[{"name":"contractAddress","type":"address","indexed":true,"internalType":"address"},{"name":"tokenId","type":"uint256","indexed":true,"internalType":"uint256"},{"name":"seller","type":"address","indexed":true,"internalType":"address"},{"name":"currency","type":"address","indexed":false,"internalType":"address"},{"name":"price","type":"uint256","indexed":false,"internalType":"uint256"},{"name":"startTime","type":"uint256","indexed":false,"internalType":"uint256"},{"name":"maxMints","type":"uint256","indexed":false,"internalType":"uint256"},{"name":"splitRecipients","type":"address[]","indexed":false,"internalType":"address payable[]"},{"name":"splitRatios","type":"uint8[]","indexed":false,"internalType":"uint8[]"}],"anonymous":false},{"type":"event","name":"SalePriceCancelled","inputs":[{"name":"seller","type":"address","indexed":true,"internalType":"address"},{"name":"contractAddress","type":"address","indexed":true,"internalType":"address"},{"name":"tokenId","type":"uint256","indexed":true,"internalType":"uint256"}],"anonymous":false},{"type":"event","name":"SalePriceSet","inputs":[{"name":"seller","type":"address","indexed":true,"internalType":"address"},{"name":"contractAddress","type":"address","indexed":true,"internalType":"address"},{"name":"tokenId","type":"uint256","indexed":true,"internalType":"uint256"},{"name":"currency","type":"address","indexed":false,"internalType":"address"},{"name":"price","type":"uint256","indexed":false,"internalType":"uint256"},{"name":"quantity","type":"uint256","indexed":false,"internalType":"uint256"},{"name":"expirationTime","type":"uint256","indexed":false,"internalType":"uint256"},{"name":"splitRecipients","type":"address[]","indexed":false,"internalType":"address payable[]"},{"name":"splitRatios","type":"uint8[]","indexed":false,"internalType":"uint8[]"}],"anonymous":false},{"type":"event","name":"SetTokenAllowListConfig","inputs":[{"name":"contractAddress","type":"address","indexed":true,"internalType":"address"},{"name":"tokenId","type":"uint256","indexed":true,"internalType":"uint256"},{"name":"root","type":"bytes32","indexed":false,"internalType":"bytes32"},{"name":"endTimestamp","type":"uint256","indexed":false,"internalType":"uint256"}],"anonymous":false},{"type":"event","name":"Sold","inputs":[{"name":"seller","type":"address","indexed":true,"internalType":"address"},{"name":"buyer","type":"address","indexed":true,"internalType":"address"},{"name":"contractAddress","type":"address","indexed":true,"internalType":"address"},{"name":"tokenId","type":"uint256","indexed":false,"internalType":"uint256"},{"name":"currency","type":"address","indexed":false,"internalType":"address"},{"name":"price","type":"uint256","indexed":false,"internalType":"uint256"},{"name":"quantity","type":"uint256","indexed":false,"internalType":"uint256"}],"anonymous":false},{"type":"event","name":"TokenMintLimitSet","inputs":[{"name":"contractAddress","type":"address","indexed":true,"internalType":"address"},{"name":"tokenId","type":"uint256","indexed":true,"internalType":"uint256"},{"name":"limit","type":"uint256","indexed":false,"internalType":"uint256"}],"anonymous":false},{"type":"event","name":"TokenTxLimitSet","inputs":[{"name":"contractAddress","type":"address","indexed":true,"internalType":"address"},{"name":"tokenId","type":"uint256","indexed":true,"internalType":"uint256"},{"name":"limit","type":"uint256","indexed":false,"internalType":"uint256"}],"anonymous":false},{"type":"error","name":"AddressNotAllowlisted","inputs":[{"name":"_account","type":"address","internalType":"address"}]},{"type":"error","name":"ApprovalManagerCannotBeZero","inputs":[]},{"type":"error","name":"BatchSizeExceeded","inputs":[{"name":"supplied","type":"uint256","internalType":"uint256"},{"name":"max","type":"uint256","internalType":"uint256"}]},{"type":"error","name":"CheckoutItemExecutionFailed","inputs":[{"name":"_stage","type":"uint8","internalType":"enum IRareERC1155MarketplaceTypes.CheckoutFailureStage"},{"name":"_failureData","type":"bytes","internalType":"bytes"}]},{"type":"error","name":"ContractHasNoOwner","inputs":[{"name":"_contractAddress","type":"address","internalType":"address"}]},{"type":"error","name":"ContractPaused","inputs":[]},{"type":"error","name":"CurrencyMismatch","inputs":[{"name":"_suppliedCurrency","type":"address","internalType":"address"},{"name":"_configuredCurrency","type":"address","internalType":"address"}]},{"type":"error","name":"CurrencyNotApproved","inputs":[{"name":"_currencyAddress","type":"address","internalType":"address"}]},{"type":"error","name":"DirectSaleNotConfigured","inputs":[{"name":"_contractAddress","type":"address","internalType":"address"},{"name":"_tokenId","type":"uint256","internalType":"uint256"}]},{"type":"error","name":"DirectSettlementCallUnsupported","inputs":[]},{"type":"error","name":"ERC20FeeOnTransferUnsupported","inputs":[{"name":"_currencyAddress","type":"address","internalType":"address"},{"name":"_expectedAmount","type":"uint256","internalType":"uint256"},{"name":"_receivedAmount","type":"uint256","internalType":"uint256"}]},{"type":"error","name":"EmptyBatch","inputs":[]},{"type":"error","name":"IncorrectETHAmount","inputs":[{"name":"_requiredAmount","type":"uint256","internalType":"uint256"},{"name":"_suppliedAmount","type":"uint256","internalType":"uint256"}]},{"type":"error","name":"InsufficientCheckoutERC20Allowance","inputs":[{"name":"_currencyAddress","type":"address","internalType":"address"},{"name":"_requiredAmount","type":"uint256","internalType":"uint256"},{"name":"_availableAmount","type":"uint256","internalType":"uint256"}]},{"type":"error","name":"InsufficientCheckoutERC20Balance","inputs":[{"name":"_currencyAddress","type":"address","internalType":"address"},{"name":"_requiredAmount","type":"uint256","internalType":"uint256"},{"name":"_availableAmount","type":"uint256","internalType":"uint256"}]},{"type":"error","name":"InsufficientCheckoutETH","inputs":[{"name":"_requiredAmount","type":"uint256","internalType":"uint256"},{"name":"_availableAmount","type":"uint256","internalType":"uint256"}]},{"type":"error","name":"InsufficientTokenBalance","inputs":[{"name":"_account","type":"address","internalType":"address"},{"name":"_contractAddress","type":"address","internalType":"address"},{"name":"_tokenId","type":"uint256","internalType":"uint256"},{"name":"_requestedQuantity","type":"uint256","internalType":"uint256"},{"name":"_availableQuantity","type":"uint256","internalType":"uint256"}]},{"type":"error","name":"InvalidERC1155Contract","inputs":[{"name":"_contractAddress","type":"address","internalType":"address"}]},{"type":"error","name":"InvalidERC1155Transfer","inputs":[{"name":"_contractAddress","type":"address","internalType":"address"},{"name":"_tokenId","type":"uint256","internalType":"uint256"},{"name":"_seller","type":"address","internalType":"address"},{"name":"_buyer","type":"address","internalType":"address"},{"name":"_quantity","type":"uint256","internalType":"uint256"}]},{"type":"error","name":"MarketConfigAddressCannotBeZero","inputs":[{"name":"_field","type":"bytes32","internalType":"bytes32"}]},{"type":"error","name":"MarketplaceNotApproved","inputs":[{"name":"_account","type":"address","internalType":"address"},{"name":"_contractAddress","type":"address","internalType":"address"}]},{"type":"error","name":"MaxMintExceeded","inputs":[{"name":"_requestedQuantity","type":"uint256","internalType":"uint256"},{"name":"_maxMints","type":"uint256","internalType":"uint256"}]},{"type":"error","name":"MintLimitExceeded","inputs":[{"name":"_contractAddress","type":"address","internalType":"address"},{"name":"_tokenId","type":"uint256","internalType":"uint256"},{"name":"_account","type":"address","internalType":"address"},{"name":"_requestedQuantity","type":"uint256","internalType":"uint256"},{"name":"_mintedQuantity","type":"uint256","internalType":"uint256"},{"name":"_limit","type":"uint256","internalType":"uint256"}]},{"type":"error","name":"MsgValueMustBeZero","inputs":[]},{"type":"error","name":"MsgValueUnsupportedForERC20","inputs":[]},{"type":"error","name":"NotContractOwner","inputs":[{"name":"_contractAddress","type":"address","internalType":"address"},{"name":"_account","type":"address","internalType":"address"}]},{"type":"error","name":"OfferDoesNotExist","inputs":[{"name":"_contractAddress","type":"address","internalType":"address"},{"name":"_tokenId","type":"uint256","internalType":"uint256"},{"name":"_buyer","type":"address","internalType":"address"},{"name":"_currencyAddress","type":"address","internalType":"address"}]},{"type":"error","name":"OfferExpirationInvalid","inputs":[{"name":"_expirationTime","type":"uint256","internalType":"uint256"},{"name":"_currentTime","type":"uint256","internalType":"uint256"}]},{"type":"error","name":"OfferExpired","inputs":[{"name":"_contractAddress","type":"address","internalType":"address"},{"name":"_tokenId","type":"uint256","internalType":"uint256"},{"name":"_buyer","type":"address","internalType":"address"},{"name":"_currencyAddress","type":"address","internalType":"address"},{"name":"_expirationTime","type":"uint256","internalType":"uint256"}]},{"type":"error","name":"OfferPriceCannotBeZero","inputs":[]},{"type":"error","name":"PayoutFailed","inputs":[{"name":"_revertData","type":"bytes","internalType":"bytes"}]},{"type":"error","name":"PayoutLengthMismatch","inputs":[{"name":"_recipientsLength","type":"uint256","internalType":"uint256"},{"name":"_amountsLength","type":"uint256","internalType":"uint256"}]},{"type":"error","name":"PayoutTotalMismatch","inputs":[{"name":"_expectedAmount","type":"uint256","internalType":"uint256"},{"name":"_actualAmount","type":"uint256","internalType":"uint256"}]},{"type":"error","name":"PlatformCommissionExceeded","inputs":[{"name":"_platformCommission","type":"uint256","internalType":"uint256"},{"name":"_maxPlatformCommission","type":"uint256","internalType":"uint256"}]},{"type":"error","name":"PriceMismatch","inputs":[{"name":"_suppliedPrice","type":"uint256","internalType":"uint256"},{"name":"_configuredPrice","type":"uint256","internalType":"uint256"}]},{"type":"error","name":"QuantityCannotBeZero","inputs":[]},{"type":"error","name":"QuantityExceedsOfferQuantity","inputs":[{"name":"_requestedQuantity","type":"uint256","internalType":"uint256"},{"name":"_availableQuantity","type":"uint256","internalType":"uint256"}]},{"type":"error","name":"QuantityExceedsSalePriceQuantity","inputs":[{"name":"_requestedQuantity","type":"uint256","internalType":"uint256"},{"name":"_availableQuantity","type":"uint256","internalType":"uint256"}]},{"type":"error","name":"RefundFailed","inputs":[{"name":"_revertData","type":"bytes","internalType":"bytes"}]},{"type":"error","name":"RoyaltiesExceedSaleAmount","inputs":[{"name":"_royalties","type":"uint256","internalType":"uint256"},{"name":"_saleAmount","type":"uint256","internalType":"uint256"}]},{"type":"error","name":"SaleNotStarted","inputs":[{"name":"_startTime","type":"uint256","internalType":"uint256"}]},{"type":"error","name":"SalePriceCannotBeZero","inputs":[]},{"type":"error","name":"SalePriceDoesNotExist","inputs":[{"name":"_contractAddress","type":"address","internalType":"address"},{"name":"_tokenId","type":"uint256","internalType":"uint256"},{"name":"_seller","type":"address","internalType":"address"}]},{"type":"error","name":"SalePriceExpirationInvalid","inputs":[{"name":"_expirationTime","type":"uint256","internalType":"uint256"},{"name":"_currentTime","type":"uint256","internalType":"uint256"}]},{"type":"error","name":"SalePriceExpired","inputs":[{"name":"_contractAddress","type":"address","internalType":"address"},{"name":"_tokenId","type":"uint256","internalType":"uint256"},{"name":"_seller","type":"address","internalType":"address"},{"name":"_expirationTime","type":"uint256","internalType":"uint256"}]},{"type":"error","name":"SelfOfferAcceptanceUnsupported","inputs":[{"name":"_buyer","type":"address","internalType":"address"}]},{"type":"error","name":"SelfPurchaseUnsupported","inputs":[{"name":"_seller","type":"address","internalType":"address"}]},{"type":"error","name":"SettlementCannotBeZero","inputs":[]},{"type":"error","name":"SettlementDelegateCallFailed","inputs":[{"name":"_revertData","type":"bytes","internalType":"bytes"}]},{"type":"error","name":"SplitLengthMismatch","inputs":[{"name":"_recipientsLength","type":"uint256","internalType":"uint256"},{"name":"_ratiosLength","type":"uint256","internalType":"uint256"}]},{"type":"error","name":"SplitRatioCannotBeZero","inputs":[{"name":"_index","type":"uint256","internalType":"uint256"}]},{"type":"error","name":"SplitRecipientCannotBeZero","inputs":[{"name":"_index","type":"uint256","internalType":"uint256"}]},{"type":"error","name":"SplitRecipientsExceededMax","inputs":[{"name":"_recipientsLength","type":"uint256","internalType":"uint256"},{"name":"_maxRecipients","type":"uint256","internalType":"uint256"}]},{"type":"error","name":"SplitRecipientsRequired","inputs":[]},{"type":"error","name":"SplitTotalInvalid","inputs":[{"name":"_totalRatio","type":"uint256","internalType":"uint256"},{"name":"_requiredTotal","type":"uint256","internalType":"uint256"}]},{"type":"error","name":"StakingFeeExceedsMarketplaceFee","inputs":[{"name":"_marketplaceFee","type":"uint256","internalType":"uint256"},{"name":"_stakingFee","type":"uint256","internalType":"uint256"}]},{"type":"error","name":"TokenIdsNotStrictlyAscending","inputs":[{"name":"index","type":"uint256","internalType":"uint256"},{"name":"previousTokenId","type":"uint256","internalType":"uint256"},{"name":"tokenId","type":"uint256","internalType":"uint256"}]},{"type":"error","name":"TokenNotFound","inputs":[{"name":"_contractAddress","type":"address","internalType":"address"},{"name":"_tokenId","type":"uint256","internalType":"uint256"}]},{"type":"error","name":"TransactionLimitExceeded","inputs":[{"name":"_contractAddress","type":"address","internalType":"address"},{"name":"_tokenId","type":"uint256","internalType":"uint256"},{"name":"_account","type":"address","internalType":"address"},{"name":"_usedTransactions","type":"uint256","internalType":"uint256"},{"name":"_limit","type":"uint256","internalType":"uint256"}]},{"type":"error","name":"UnsupportedCheckoutItemKind","inputs":[{"name":"_itemKind","type":"uint8","internalType":"uint8"}]}],"bytecode":{"object":"0x60a080604052346100245730608052615db290816200002a8239608051816110bb0152f35b600080fdfe6080604052600436101561001257600080fd5b6000803560e01c9081630a6ce3131461009a575080632c0c49ee1461009557806359a8a40a146100905780637777e6d71461008b578063a3eaf4d914610086578063b8e6b50f14610081578063cfdbf2541461007c5763d65852a61461007757600080fd5b610ad2565b610ab6565b610a2c565b610a10565b61047d565b6103ea565b610347565b6080366003190112610119576004356100b28161011c565b6024356100be8161011c565b604435916100cb8361011c565b606435926001600160401b039283851161011557366023860112156101155784600401359384116101155736602460608602870101116101155760246101129501926110fc565b80f35b8580fd5b80fd5b6001600160a01b0381160361012d57565b600080fd5b359061013d8261011c565b565b9181601f8401121561012d578235916001600160401b03831161012d576020808501948460051b01011161012d57565b634e487b7160e01b600052602160045260246000fd5b6006111561018f57565b61016f565b90600682101561018f5752565b919082519283825260005b8481106101cd575050826000602080949584010152601f8019910116010190565b6020818301810151848301820152016101ac565b9060209182815260c09283820191835193845183830152828501516040908184015283818701516060978891828701520151926080938486015201519660a0908180860152885180975260e0918286019487848a60051b8901019b01996000975b8a89106102585750505050505050505050505090565b909192939495969798999a9b8a806001928f60df19868303018d5251908151815261028b838301518483019060ff169052565b818c01516001600160a01b0316818d01528187015181880152878201516001600160a01b031688820152818901516001600160a01b0316818a0152818a0151818b01528a8201518b820152610100808301511515908201526102f66101208084015190830190610194565b610140828101516001600160e01b0319169082015261032661016080840151906101a080918501528301906101a1565b91610180809101519101529e0199019901979a999896959493929190610242565b602036600319011261012d576001600160401b0360043581811161012d5761037390369060040161013f565b604051929161038184610b6d565b6040519360808501938411858510176103d6576103d2946103c69460405260008152600060208201526000604082015260006060820152815260606020820152611e38565b604051918291826101e1565b0390f35b610b57565b908161010091031261012d5790565b60e036600319011261012d576001600160401b0360043581811161012d576104169036906004016103db565b604435906104238261011c565b60a43583811161012d5761043b90369060040161013f565b9060c43594851161012d5761045761046b95369060040161013f565b94909360843591606435916024359061246f565b60408051928352602083019190915290f35b606036600319011261012d5761049460043561011c565b61049f60243561011c565b6044356001600160401b03811161012d576104be90369060040161013f565b6104c66110b8565b6104d08183615bff565b73__$11854c5905aa23948096e0e4d7059bb9de$__3b1561012d57604051635e157ccf60e11b81526000818061050b60243560048301610c0d565b038173__$11854c5905aa23948096e0e4d7059bb9de$__5af4801561079a576109f2575b5061053981610c77565b9061054381610c77565b61054c82610cdd565b926000805b848110610885575073__$11854c5905aa23948096e0e4d7059bb9de$__3b1561012d5760006105979160405180938192635ea509b560e01b835260243560048401610dc3565b038173__$11854c5905aa23948096e0e4d7059bb9de$__5af4801561079a57610872575b5060005b8381106107b257506004356001600160a01b03163b1561012d57604051630d4498e760e21b815291600091839182916105fd91903360048501610f7c565b0381836004356001600160a01b03165af1801561079a5761079f575b5060005b81811061062657005b60206106328285610d6a565b5101516106be575b8061064760019285610d6a565b515161066760606106588488610d6a565b5101516001600160a01b031690565b90604061067584878a610d43565b0135600080516020615d3d8339815191526106b56020610696878a8d610d43565b013560405191829133978a8060a01b036004351696602435918561108d565b0390a40161061d565b60206106ca8285610d6a565b5101519060406106da8286610d6a565b510151916106ed60606106588488610d6a565b9260806106fa8488610d6a565b5101519160a061070a8589610d6a565b5101519273__$11854c5905aa23948096e0e4d7059bb9de$__3b1561012d57600093610751916040519788958695631872482b60e31b875260243560043560048901611029565b038173__$11854c5905aa23948096e0e4d7059bb9de$__5af491821561079a57600192610781575b50905061063a565b8061078e61079492610b88565b80610a05565b38610779565b610c34565b8061078e6107ac92610b88565b38610619565b806107c06001928689610d43565b356107df816107d0600435610df2565b90600052602052604060002090565b5461083e575b6107f4816107d0600435610e64565b54610801575b50016105bf565b61082c9061081533916107d0600435610e9d565b9060018060a01b0316600052602052604060002090565b6108368154610da3565b9055386107fa565b604061084b83888b610d43565b013561086b61086333610815856107d0600435610e2b565b918254610db6565b90556107e5565b8061078e61087f92610b88565b386105bb565b61089f61089382878a610d43565b336024356004356144b1565b6108a98288610d6a565b526108b48187610d6a565b506020806108c28389610d6a565b510151610905575b50806108d860019288610d6a565b51516108e48286610d6a565b5260406108f282888b610d43565b01356108fe8287610d6a565b5201610551565b9091610968908261093961092d600080516020615d1d8339815191525460018060a01b031690565b6001600160a01b031690565b81610944878c610d6a565b5101519060405180809681946361fe24a960e11b8352600483019190602083019252565b03915afa91821561079a576001936109be936109b8926000916109c5575b506040610993888d610d6a565b5101526109a0868b610d6a565b51015160406109af878c610d6a565b51015190610db6565b90610db6565b91906108ca565b6109e59150823d84116109eb575b6109dd8183610bec565b810190610d7e565b38610986565b503d6109d3565b8061078e6109ff92610b88565b3861052f565b600091031261012d57565b3461012d57600036600319011261012d57602060405160328152f35b3461012d5761010036600319011261012d57600435610a4a8161011c565b60443590610a578261011c565b606435610a638161011c565b6001600160401b039260c43584811161012d57610a8490369060040161013f565b9160e43595861161012d57610aa0610ab496369060040161013f565b95909460a435926084359260243590611adf565b005b3461012d57600036600319011261012d576020604051604b8152f35b60c036600319011261012d576001600160401b0360043581811161012d57610afe9036906004016103db565b60243590610b0b8261011c565b60843583811161012d57610b2390369060040161013f565b9060a43594851161012d57610b3f610ab495369060040161013f565b949093610b4a6110b8565b606435916044359161297f565b634e487b7160e01b600052604160045260246000fd5b604081019081106001600160401b038211176103d657604052565b6001600160401b0381116103d657604052565b60c081019081106001600160401b038211176103d657604052565b606081019081106001600160401b038211176103d657604052565b602081019081106001600160401b038211176103d657604052565b90601f801991011681019081106001600160401b038211176103d657604052565b600080516020615cfd83398151915281526001600160a01b03909116602082015260400190565b6040513d6000823e3d90fd5b604051906101a082018281106001600160401b038211176103d657604052565b6001600160401b0381116103d65760051b60200190565b90610c8182610c60565b610c8e6040519182610bec565b8281528092610c9f601f1991610c60565b0190602036910137565b60405190610cb682610b9b565b606060a0836000815260006020820152600060408201526000838201528260808201520152565b90610ce782610c60565b610cf46040519182610bec565b8281528092610d05601f1991610c60565b019060005b828110610d1657505050565b602090610d21610ca9565b82828501015201610d0a565b634e487b7160e01b600052603260045260246000fd5b9190811015610d655760051b81013590607e198136030182121561012d570190565b610d2d565b8051821015610d655760209160051b010190565b9081602091031261012d575190565b634e487b7160e01b600052601160045260246000fd5b9060018201809211610db157565b610d8d565b91908201809211610db157565b600080516020615cfd83398151915281526001600160a01b039091166020820152604081019190915260600190565b6001600160a01b031660009081527f5e94cc2b8b9fd616c1ffff3497627b534929331e1f3b26d7dc3360464546d50e6020526040902090565b6001600160a01b031660009081527f5e94cc2b8b9fd616c1ffff3497627b534929331e1f3b26d7dc3360464546d50f6020526040902090565b6001600160a01b031660009081527f5e94cc2b8b9fd616c1ffff3497627b534929331e1f3b26d7dc3360464546d5106020526040902090565b6001600160a01b031660009081527f5e94cc2b8b9fd616c1ffff3497627b534929331e1f3b26d7dc3360464546d5116020526040902090565b6001600160a01b031660009081527f5e94cc2b8b9fd616c1ffff3497627b534929331e1f3b26d7dc3360464546d5126020526040902090565b6001600160a01b031660009081527f5e94cc2b8b9fd616c1ffff3497627b534929331e1f3b26d7dc3360464546d50c6020526040902090565b90815180825260208080930193019160005b828110610f68575050505090565b835185529381019392810192600101610f5a565b6001600160a01b039091168152606060208201819052610fb2939192610fa491840190610f48565b916040818403910152610f48565b90565b90815180825260208080930193019160005b828110610fd5575050505090565b83516001600160a01b031685529381019392810192600101610fc7565b90815180825260208080930193019160005b828110611012575050505090565b835160ff1685529381019392810192600101611004565b95929361107f94610fb2989692600080516020615cfd833981519152895260018060a01b03948580921660208b0152166040890152606088015260808701521660a08501526101008060c0860152840190610fb5565b9160e0818403910152610ff2565b6001600160a01b03918216815260208101929092529091166040820152606081019190915260800190565b307f00000000000000000000000000000000000000000000000000000000000000006001600160a01b0316146110ea57565b604051636a5f212f60e11b8152600490fd5b92936111066110b8565b6111108186615cb5565b6001600160a01b039233838516146116cc5773__$11854c5905aa23948096e0e4d7059bb9de$__3b1561012d57604051635e157ccf60e11b81526000818061115b8560048301610c0d565b038173__$11854c5905aa23948096e0e4d7059bb9de$__5af4801561079a576116b9575b5061118985611964565b600080516020615d5d833981519152546111cd906020906111b2906001600160a01b031661092d565b6040518093819263e985e9c560e01b83528860048401611705565b0381888a165afa90811561079a5760009161168a575b501561166e576111f282610c77565b906111fc83610c77565b6112058461175c565b9260008061122a61092d600080516020615d1d8339815191525460018060a01b031690565b878c888d898d8588106114ba57505050505050505073__$11854c5905aa23948096e0e4d7059bb9de$__3b1561012d57600061127b9160405180938192635ea509b560e01b83528860048401610dc3565b038173__$11854c5905aa23948096e0e4d7059bb9de$__5af4801561079a576114a7575b5090859160005b89878c81841061141357505050506112c1925033878a6158d2565b60005b8381106112d5575050505050505050565b6112df8184610d6a565b51519060206112ee8286610d6a565b51015160406112fd8387610d6a565b51015192606061130d8488610d6a565b51015191608061131d8589610d6a565b5101519473__$11854c5905aa23948096e0e4d7059bb9de$__3b1561012d5786956000948b611363938f956040519a8b98899863981e8fc560e01b8a5260048a016118d5565b038173__$11854c5905aa23948096e0e4d7059bb9de$__5af491821561079a5786867f12bc30bbc1c37d31b51d08cc6254da96f9626f008933e693e85e93074d7886948a8c6113f78f60406113e18a6113c98f829060019f9d8a9e611400575b50610d6a565b51519860206113d98383886117ac565b0135946117ac565b0135908b60405195869516993399169785611940565b0390a4016112c4565b8061078e61140d92610b88565b386113c3565b95839160019596976114458361081561142b88610ed6565b6114368887876117ac565b35600052602052604060002090565b611463600260406114578887876117ac565b01359201918254611818565b8091551561147b575b505050505001908692916112a6565b611436611498946108159361149261149d98610ed6565b936117ac565b611865565b898189898e61146c565b8061078e6114b492610b88565b3861129f565b926114e7886114e188958895839d9b9c986114db8560409d61150f9d6117ac565b9261450a565b92610d6a565b526114f2838d610d6a565b506114fe8383836117ac565b35611509848b610d6a565b526117ac565b013561151b8487610d6a565b5261154b60208b8d8c61152e888a610d6a565b5192604051809681958294627eeac760e11b8452600484016117bc565b0392165afa90811561079a5760009161164f575b5061156a8487610d6a565b51811061161457506115a4602080611582868b610d6a565b510151604051809381926361fe24a960e11b8352600483019190602083019252565b0381865afa91821561079a576001926115ed926000916115f5575b5060406115cc878c610d6a565b5101526109b860206115de878c610d6a565b51015160406109af888d610d6a565b92019061122a565b61160e915060203d6020116109eb576109dd8183610bec565b386115bf565b8961164b8d928861163088611629818c610d6a565b5192610d6a565b5190604051958695636906ef1760e11b8752600487016117d7565b0390fd5b611668915060203d6020116109eb576109dd8183610bec565b3861155f565b60405163d65b0d6960e01b81528061164b878660048401611705565b6116ac915060203d6020116116b2575b6116a48183610bec565b8101906116ed565b386111e3565b503d61169a565b8061078e6116c692610b88565b3861117f565b60405163aac1ae8b60e01b81526001600160a01b0384166004820152602490fd5b9081602091031261012d5751801515810361012d5790565b6001600160a01b0391821681529116602082015260400190565b6040519060a082018281106001600160401b038211176103d657604052606060808360008152600060208201526000604082015282808201520152565b9061176682610c60565b6117736040519182610bec565b8281528092611784601f1991610c60565b019060005b82811061179557505050565b6020906117a061171f565b82828501015201611789565b9190811015610d65576060020190565b6001600160a01b039091168152602081019190915260400190565b6001600160a01b0391821681529116602082015260408101919091526060810191909152608081019190915260a00190565b606319810191908211610db157565b91908203918211610db157565b908160011b9180830460021490151715610db157565b81810292918115918404141715610db157565b818110611859575050565b6000815560010161184e565b6005600091828155826001820155826002820155826003820155600481018054848255806118bb575b50500190815490808355816118a257505050565b60208161013d94601f935220910160051c81019061184e565b6118ce918552602085209081019061184e565b388061188e565b96936119319591610fb299979394600080516020615cfd8339815191528a5260018060a01b03958680931660208c015260408b0152166060890152608088015260a08701521660c08501526101208060e0860152840190610fb5565b91610100818403910152610ff2565b909493926060926080830196835260018060a01b0316602083015260408201520152565b803b158015611997575b6119755750565b604051630f20e39960e21b81526001600160a01b039091166004820152602490fd5b506119a1816119a7565b1561196e565b6040519060208083018160006301ffc9a760e01b95868452866024820152602481526119d281610bb6565b51617530938685fa933d6000519086611a77575b5085611a6d575b5084611a0a575b50505081611a00575090565b610fb29150611a82565b83945090600091839460405185810192835263ffffffff60e01b602482015260248152611a3681610bb6565b5192fa60005190913d83611a62575b505081611a58575b5015903880806119f4565b9050151538611a4d565b101591503880611a45565b15159450386119ed565b8411159550386119e6565b6000602091604051838101906301ffc9a760e01b8252636cdb3d1360e11b602482015260248152611ab281610bb6565b5191617530fa6000513d82611ad3575b5081611acc575090565b9050151590565b60201115915038611ac2565b9491959296909397611aef6110b8565b60409384519a611afe8c610b9b565b6001600160a01b039788168c5260208c01968752978716858c0181815299881660608d0190815260808d019b8c5260a08d01958652999890338114611e1657508b51611b52906001600160a01b0316611964565b895173__$11854c5905aa23948096e0e4d7059bb9de$__93906001600160a01b031694843b1561012d578751635e157ccf60e11b8152600096879082908190611b9e9060048301610c0d565b0381895af4801561079a57611e03575b50843b156101155787516376fb859760e01b8152868180611bd58787878b60048601612ac4565b0381895af4801561079a57611df0575b50865115611ddf57918d939161092d9897969593611c5d6020611c1f61092d611c0d8a615293565b9a519a9e909a6001600160a01b031690565b600080516020615d5d83398151915254611c41906001600160a01b031661092d565b908c51808095819463e985e9c560e01b83523360048401611705565b03915afa90811561079a578891611dc1575b5015611d9957908f91611cc08f94938f611cb3908f8d90611ca7611c99865160018060a01b031690565b93516001600160a01b031690565b90519151923390615561565b516001600160a01b031690565b8c5194516001600160a01b03169590873b15611d955790611cfc949392918c519d8e9a8b998a9963981e8fc560e01b8b52339460048c01612910565b03915af4801561079a57611d68611d58611d4a7fd6c105ec24ddd771e44ffc25e8a8603b6b78ba980a72645a26740b3d8437388599611d7d978a95611d82575b50516001600160a01b031690565b9b516001600160a01b031690565b955198516001600160a01b031690565b98519151925195869516991697339785611940565b0390a4565b8061078e611d8f92610b88565b38611d3c565b8980fd5b8f51895163d65b0d6960e01b815290819061164b906001600160a01b03163360048401611705565b611dd9915060203d81116116b2576116a48183610bec565b38611c6f565b875163c6b949a960e01b8152600490fd5b8061078e611dfd92610b88565b38611be5565b8061078e611e1092610b88565b38611bae565b8651630bfa508960e41b81526001600160a01b03919091166004820152602490fd5b9190611e426110b8565b611e4b826120eb565b611e548261206f565b91602092838501908152349260005b838110611f4d57505050508060608451015280611ed0575b50815180519181015160408083015160609384015182519586526020860193909352908401529082015233907ff769e48349f9b4903ef362e95411b2c4778d3bdaf9dc87b0d25f29f2813ea16390608090a290565b73__$11854c5905aa23948096e0e4d7059bb9de$__803b1561012d57604051637baf92a360e01b8152600080516020615cfd833981519152600482015260006024820181905233604483015260648201939093529190829060849082905af4801561079a5715611e7b578061078e611f4792610b88565b38611e7b565b611f628582611f5d8188876120bf565b612195565b91969015611fe4575090611fc1600192968951611f7f8151610da3565b9052838060a01b03611f9d6060611f97868b8a6120bf565b016120e1565b1615611fc7575b611fbb83875183611fb58383610d6a565b52610d6a565b50613d68565b01611e63565b610180810151611fdd60408c5101918251610db6565b9052611fa4565b956001929150611fc190888a5101611fdd8151610da3565b604051906101a082018281106001600160401b038211176103d657604052816101806000918281528260208201528260408201528260608201528260808201528260a08201528260c08201528260e082015282610100820152826101208201528261014082015260606101608201520152565b9061207982610c60565b6120866040519182610bec565b8281528092612097601f1991610c60565b019060005b8281106120a857505050565b6020906120b3611ffc565b8282850101520161209c565b9190811015610d655760051b8101359060fe198136030182121561012d570190565b35610fb28161011c565b801561211b57603281116120fc5750565b6044906040519063f80a484560e01b8252600482015260326024820152fd5b60405163c2e5347d60e01b8152600490fd5b6040519061213a82610bd1565b60008252565b3d1561217a573d906001600160401b0382116103d6576040519161216e601f8201601f191660200184610bec565b82523d6000602084013e565b606090565b919082604091031261012d576020825192015190565b90816121a9916121a3611ffc565b50613bcf565b90826121b482612c8a565b8051909392906001600160a01b031680612279575b501561226a57507f5e94cc2b8b9fd616c1ffff3497627b534929331e1f3b26d7dc3360464546d50b546000938493909261220c926001600160a01b03169361239d565b90602082519201905af461221e612140565b9015612250576122399192506020808251830101910161217f565b600161010084015291906101808201529160019190565b61225c61226391613e41565b9083613cd2565b9160009190565b91509350612263915082613ca9565b6001600160a01b03166080870152386121c9565b60ff81160361012d57565b9035601e198236030181121561012d5701602081359101916001600160401b03821161012d578160051b3603831361012d57565b81835290916001600160fb1b03831161012d5760209260051b809284830137010190565b9061238a610fb29260ff81356123058161228d565b16835260208101356123168161011c565b6001600160a01b0316602084015261234361233360408301610132565b6001600160a01b03166040850152565b61236261235260608301610132565b6001600160a01b03166060850152565b6080810135608084015260a081013560a084015260c081013560c084015260e0810190612298565b9091610100908160e082015201916122cc565b825160208085015160408087015160608801516080909801519151632cd4520560e11b8186015260e060248201529796889692956001600160a01b03949193908516906123ef906101048a01906122f0565b9360448901526064880152608487015260a486015260231992838683030160c48701528080885193848152019701926000905b8382106124525750505050508284030160e4830152610fb29261244491610ff2565b03601f198101835282610bec565b845181168952978201978997509382019360019190910190612422565b9061248898979695949392916124836110b8565b61250e565b9091565b35610fb28161228d565b906040610fb2926001815281602082015201906101a1565b906040610fb2926002815281602082015201906101a1565b906040610fb2926003815281602082015201906101a1565b906040610fb2926004815281602082015201906101a1565b906040610fb2926005815281602082015201906101a1565b989796959493929190600060ff8b356125268161228d565b16156125995750600160ff61253a8c61248c565b161461258f5761164b6124446125766125528d61248c565b60405163bb75025d60e01b602082015260ff90911660248201529182906044820190565b604051631ee0c01d60e31b815291829160048301612496565b6124889899612aeb565b91826125c69895939b96929794999b5087936125b5818c610db6565b9a6125cb8a8d60608c019d8e6120e1565b6132ef565b80516128045750602089016125e76125e2826120e1565b610df2565b9a61260160808c0135809d90600052602052604060002090565b5415158b8d61261b816107d0612616886120e1565b610e64565b541515926127d4575b5050612798575b61263a61092d61092d846120e1565b946126448d614476565b60c08d01359661265388614476565b91813b1561279457604051630d4498e760e21b81529392849291839185918391612681913360048501610f7c565b03925af19081612781575b506126b55761164b61269c612140565b604051631ee0c01d60e31b8152918291600483016124c6565b6001600160a01b0397886126c88f6120e1565b1661274557506126d98e8c92611818565b9f600080516020615d3d8339815191529a60a09a612728996127149761270e975b8b8161272f575b50505050505050506120e1565b996120e1565b90604051958695339b16980135928561108d565b0390a49190565b61273897613aa8565b893880808080808b612701565b9f8b9150600080516020615d3d8339815191529a8f9a8f996127149761270e9761277c60a09f6127776127289f6120e1565b613537565b6126fa565b8061078e61278e92610b88565b3861268c565b8380fd5b6127c36127b08d6107d06127ab866120e1565b610e9d565b3360009081526020919091526040902090565b6127cd8154610da3565b905561262b565b60c06127f16127b06127fb936107d06127ec8a6120e1565b610e2b565b9201358254610db6565b90558b8d612624565b604051631ee0c01d60e31b815290819061164b90600483016124ae565b91908082526020809201929160005b82811061283e575050505090565b90919293828060019287356128528161011c565b848060a01b03168152019501910192919092612830565b91908082526020809201929160005b828110612886575050505090565b90919293828060019260ff883561289c8161228d565b16815201950193929101612878565b979593610fb29997936129029692600080516020615cfd8339815191528b5260018060a01b03948580921660208d01521660408b015260608a015260808901521660a08701526101008060c0880152860191612821565b9260e0818503910152612869565b9896949093610fb29a98946020946129709894600080516020615cfd8339815191528d528c60018060a01b03978880951691015260408d01521660608b015260808a015260a08901521660c08701526101208060e0880152860191612821565b92610100818503910152612869565b97969592919094939560ff6129938a61248c565b1615612a6057600160ff6129a68b61248c565b16146129d95761164b6129b88a61248c565b60405163bb75025d60e01b815260ff90911660048201529081906024820190565b979192939495969773__$11854c5905aa23948096e0e4d7059bb9de$__94612a03602085016120e1565b96612a10606086016120e1565b99873b1561012d57600099608097612a42966040519d8e9c8d9b8c9b63981e8fc560e01b8d5201359060048c01612910565b03915af4801561079a57612a535750565b8061078e61013d92610b88565b9791969794909493929373__$11854c5905aa23948096e0e4d7059bb9de$__94612a986060612a91602087016120e1565b95016120e1565b94863b1561012d57600098612a42946040519b8c9a8b998a99631872482b60e31b8b5260048b016128ab565b9290612add90610fb29593604086526040860191612821565b926020818503910152612869565b949895909792969193988899612b01818a610db6565b99612b13818c6125c660608c016120e1565b9b8c51612c6f579a9b508b9a6001600160a01b03612b3360608b016120e1565b16612c505750612bc0969798999a612b4a91611818565b995b6002612b7d896108158c6080612b6c612b67602084016120e1565b610ed6565b910135600052602052604060002090565b01612b8d60c08b01358254611818565b80915515612c2c575b612bb9612ba560208b016120e1565b60c08b01359060808c0135908b33916137d0565b8789613aa8565b612bcc602083016120e1565b917f12bc30bbc1c37d31b51d08cc6254da96f9626f008933e693e85e93074d788694611d7d612bfd606084016120e1565b6040516001600160a01b03968716963396169490928392909160c08101359160a0820135916080013585611940565b612c4b611498896108158c6107d0612b676020608084013593016120e1565b612b96565b9a88999a9150612c6a906127776060612bc09a9b016120e1565b612b4c565b604051631ee0c01d60e31b81528061164b8f600483016124ae565b90612c9361171f565b908235612c9f8161228d565b60ff8116938415612d0457612cb38261228d565b60018514612cef5750612cc59061228d565b6040519263bb75025d60e01b6020850152602484015260248352612ce883610bb6565b6000929190565b91935050612cfd9150612f0b565b9192909190565b91935050612cfd9150612d47565b903590601e198136030182121561012d57018035906001600160401b03821161012d57602001918160051b3603831361012d57565b612d4f61171f565b9060608101612d6c612d68612d63836120e1565b6143d0565b1590565b612ec157612db160209283810192612d83846120e1565b90612dbb612d90826120e1565b9260808501359360a086013595868660c0830135998360e08c950190612d12565b9590943391614d14565b60608101516001600160a01b03168a5296909115612e955750505050505081810151808385015280612e0d575b5060a091506080810151606084015201516080820152600191612e0961212d565b9190565b600080516020615d1d83398151915254612e55918491612e35906001600160a01b031661092d565b60405180809581946361fe24a960e11b8352600483019190602083019252565b03915afa90811561079a5760a093600092612e78575b5050604084015238612de8565b612e8e9250803d106109eb576109dd8183610bec565b3880612e6b565b612eb99750612ea9919293949596506120e1565b612eb333936120e1565b91613f10565b916000929190565b612efd939150612ed3612ce8916120e1565b60405163cd5f748960e01b60208201526001600160a01b0390911660248201529384906044820190565b03601f198101855284610bec565b90612f1461171f565b90604080840190612f34612f27836120e1565b6001600160a01b03168552565b612f4061092d836120e1565b33146132b55760209081860195612f61612d68612f5c896120e1565b61445e565b61327757612f6d61171f565b50612f77876120e1565b90612f81856120e1565b9160c0612faf6060840192612f95846120e1565b946080810135809660a08301359586930135988994615168565b9390911561324f57505050612fc961092d61092d8b6120e1565b61301386612fd6896120e1565b600080516020615d5d83398151915254612ff8906001600160a01b031661092d565b885163e985e9c560e01b815293849283929060048401611705565b0381855afa60009181613230575b5061305e575050505050612efd9061304461303e612ce8956120e1565b976120e1565b905196879363d65b0d6960e01b9085015260248401611705565b9692949395961561321757868561309292613078866120e1565b8751809581948293627eeac760e11b8452600484016117bc565b03915afa600091816131f8575b5061310057505091612ce89493916130bc61270e612efd956120e1565b9051988995636906ef1760e11b90870152602486019093600093608093969560a084019760018060a01b038092168552166020840152604083015260608201520152565b92949182849a959297989a106131c05750505050828401805186860152600080516020615d1d8339815191525461316a939250859190613148906001600160a01b031661092d565b905190835180809681946361fe24a960e11b8352600483019190602083019252565b03915afa91821561079a576080946000936131a1575b50508401526060810151606084015201516080820152600191612e0961212d565b6131b8929350803d106109eb576109dd8183610bec565b903880613180565b612ce89650946131de6131d8612efd969b99976120e1565b9a6120e1565b9051998a96636906ef1760e11b90880152602487016117d7565b613210919250883d8a116109eb576109dd8183610bec565b903861309f565b5050612ce8949350612efd925061303e613044916120e1565b613248919250883d8a116116b2576116a48183610bec565b9038613021565b93955093969150945061327161326b61326b612eb9999b6120e1565b926120e1565b9261425b565b5094612ce8925061328a612efd916120e1565b9551630f20e39960e21b928101929092526001600160a01b0390951660248201529384906044820190565b612efd94506132c6612ce8926120e1565b905163aac1ae8b60e01b60208201526001600160a01b0390911660248201529384906044820190565b91811561352c576001600160a01b0383169081156134ea5750604080516370a0823160e01b8152336004820152602092908381602481855afa600091816134cb575b50613371575050516364db3d5960e01b918101919091526001600160a01b039092166024830152604482015260006064820152610fb28160848101612444565b84811061348c57507f5e94cc2b8b9fd616c1ffff3497627b534929331e1f3b26d7dc3360464546d508546133cf9184916133b3906001600160a01b031661092d565b9084518080958194636eb1769f60e11b83523360048401611705565b03915afa6000918161346d575b5061341b5750516337a950bb60e01b918101919091526001600160a01b039092166024830152604482015260006064820152610fb28160848101612444565b83811061342f575050505050610fb261212d565b90516337a950bb60e01b928101929092526001600160a01b03909316602482015260448101919091526064810191909152610fb28160848101612444565b613485919250843d86116109eb576109dd8183610bec565b90386133dc565b91516364db3d5960e01b93810193909352506001600160a01b03909316602482015260448101919091526064810191909152610fb28160848101612444565b6134e3919250853d87116109eb576109dd8183610bec565b9038613331565b92505080821015613522576040516310da2c1360e21b602082015260248101919091526044810191909152610fb28160648101612444565b5050610fb261212d565b505050610fb261212d565b9091821561375b57604080516370a0823160e01b8082523060048084019190915292959294926020929091906001600160a01b0385169060008582602481865afa90918161373c575b506135a857888861164b613592612140565b9251631ee0c01d60e31b815292839283016124ae565b7f5e94cc2b8b9fd616c1ffff3497627b534929331e1f3b26d7dc3360464546d508549092906135df906001600160a01b031661092d565b803b1561012d578951630aed65f560e11b81526001600160a01b038816818b0190815233602082015230604082015260608101879052909160009183919082908490829060800103925af19081613729575b5061364357888861164b613592612140565b8851908152308882019081529091600091869184918290819060200103915afa90918161370a575b5061367d57878761164b613592612140565b949693959460009190818110613702576136979250611818565b905b8082036136a857505050505050565b8351636ff596f360e01b938101939093526001600160a01b03959095166024830152604482019490945260648082019490945292835261164b906136ed608485610bec565b51631ee0c01d60e31b815292839283016124ae565b505090613699565b613722919250853d87116109eb576109dd8183610bec565b903861366b565b8061078e61373692610b88565b38613631565b613754919250863d88116109eb576109dd8183610bec565b9038613580565b915050565b9391909260e0959360018060a01b03928380921687521660208601521660408401526060830152608082015260c060a0820152600060c08201520190565b6001600160a01b0391821681526020810192909252918216604082015291166060820152608081019190915260a00190565b60408051627eeac760e11b8082529196929560209593949290916001600160a01b03881691906000888280613809888a600484016117bc565b0381875afa909181613a89575b5061383f5761164b8a613827612140565b9051631ee0c01d60e31b8152918291600483016124de565b90868210613a5d578951818152600089828061385f898c600484016117bc565b0381885afa909181613a3e575b5061387d5761164b8b613827612140565b600080516020615d5d833981519152549093906138a2906001600160a01b031661092d565b803b1561012d576000888792898f8f6138d28f8793519889978896879563eb46c45b60e01b875260048701613760565b03925af19081613a2b575b506138ee5761164b8b613827612140565b8a5182815260008a82806139068a8c600484016117bc565b0381865afa909181613a0c575b506139245761164b8c613827612140565b8b5192835291906000908a90839081806139428b8e600484016117bc565b03915afa9091816139ed575b5061395f5761164b8b613827612140565b9061396f8880939c9b9c94611818565b14928315936139d8575b5050506139895750505050505050565b61164b9750916139c19493916139b3938751988996638791019960e01b908801526024870161379e565b03601f198101845283610bec565b51631ee0c01d60e31b8152918291600483016124de565b6139e3929350610db6565b1415388581613979565b613a059192508a3d8c116109eb576109dd8183610bec565b903861394e565b613a249192508b3d8d116109eb576109dd8183610bec565b9038613913565b8061078e613a3892610b88565b386138dd565b613a569192508a3d8c116109eb576109dd8183610bec565b903861386c565b508851636906ef1760e11b8189015261164b918a906139c19083906139b3908b898f8c602487016117d7565b613aa1919250893d8b116109eb576109dd8183610bec565b9038613816565b9497969795919593929360018060a01b0390817f5e94cc2b8b9fd616c1ffff3497627b534929331e1f3b26d7dc3360464546d50b5416976040519660209184613b09848b019b636b2c295360e11b8d5260c060248d015260e48c01906122f0565b961660448a0152606489015260848801528060231994858982030160a48a01528381520195926000905b838210613b91575050505050926124448360009899613b5f948a999897858098030160c4860152612869565b51915af4613b6b612140565b9015613b745750565b604051631ee0c01d60e31b815290819061164b90600483016124f6565b90919293968380600192848b35613ba78161011c565b1681520198019493920190613b33565b604051613bc381610bd1565b60008152906000368137565b90613bd8611ffc565b5060c0613be48261248c565b91613c70613bf4602083016120e1565b613c60613c03604085016120e1565b613c44613c12606087016120e1565b93613c34613c1e613bb7565b99613c27610c40565b9b8c5260ff1660208c0152565b6001600160a01b031660408a0152565b60808581013560608a01526001600160a01b0390911690880152565b6001600160a01b031660a0860152565b60a081013582850152013560e0830152600061010083015260006101208301526000610140830152610160820152600061018082015290565b6001610120820152610160906001600160e01b0319613cc78461449b565b166101408201520152565b600682101561018f576101609161012082015263ffffffff60e01b613cc78461449b565b9081526001600160a01b039182166020820152911660408201526060810191909152608081019190915290151560a082015294939261012092613d6392613d419060c0890190610194565b6001600160e01b03191660e087015261014061010087018190528601906101a1565b930152565b8051906020810151613d7a9060ff1690565b60408201519092906001600160a01b031660608301516080840151909391906001600160a01b031660a08301519094906001600160a01b03169260c08101519060e0810151610100820151613dce90151590565b61012083015190613dde82610185565b6101408401516001600160e01b0319169261016085015194610180015195604051998a99600160a01b60019003169d60ff169c613e1b998b613cf6565b037f844491b54cb1a58801f9eb51fecfaf5076847131d8f6ec580232d9766e3fae4f91a4565b90613e4b82613e5d565b91613e5857505060059190565b925090565b631ee0c01d60e31b6001600160e01b0319613e778361449b565b1614801590613f05575b613ef6576024810151916044820151606483019283519160058611908115613eea575b50613ed757613eb39051611809565b10613ec857613ec183610185565b6001929190565b60009250829150610fb261212d565b5050915050600090600090610fb261212d565b60409150141538613ea4565b50600090600090610fb261212d565b506064815110613e81565b949293959195613f23816107d084610f0f565b956001600160e01b03191694634ed1072f60e11b808714614236575063915b8f1d60e01b8681146142015750600162bed83560e01b03198681146141e3575063e2cf60cb60e01b8681146141af575063c6b949a960e01b8681146141905750636d03a2e560e01b86811461411a575063ae3586c560e01b918683146140ab5750635bdd08f560e01b9250505083811461407a575063456afd0b60e01b90508281146140515750631d6bbb8d60e11b8281146140225750632e834cbf60e11b9182149050613ff557505050610fb261212d565b61244461400e6001610fb294015460018060a01b031690565b604051948593602085015260248401611705565b60029390930154604051602081019490945260248401919091526044830152509050610fb28160648101612444565b935050506003610fb2910154916124446040519384926020840152602483019190602083019252565b92509350506124446004610fb293015460405194859360208501526024840160209093929193604081019481520152565b92975092509350610fb2945061244492506140c9816107d088610e64565b54916140dc81610815846107d08b610e9d565b5491604051978896602088015260248701919594939060809360a084019760018060a01b038093168552602085015216604083015260608201520152565b95509290919650610fb295506124449350614138826107d089610df2565b549261414b81610815856107d08c610e2b565b5492604051988997602089015260248801929060a09491979695929760c0850198600180881b0380931686526020860152166040840152606083015260808201520152565b97505050505050505060405190602082015260048152610fb281610b6d565b60405160208101919091526001600160a01b0390911660248201529650610fb2955086945050604484019250612444915050565b955050509450505061244461400e610fb2935460018060a01b031690565b60405160208101919091526001600160a01b03909316602484015250909550610fb29450859350506044830191506124449050565b95505091509450610fb2935061244491506040519485936020850152602484016117bc565b94929161426f81610815876107d086610ed6565b956001600160e01b0319169463c6b949a960e01b8087146141905750630bac95f560e21b8681146143905750635493bdef60e11b918683146143675750632e834cbf60e11b925050508381146143495750631d6bbb8d60e11b905082811461431a57506364b7fccd60e11b91821490506142ee57505050610fb261212d565b6124446002610fb293015460405194859360208501526024840160209093929193604081019481520152565b60019390930154604051602081019490945260248401919091526044830152509050610fb28160648101612444565b9354909450610fb293925061244491506001600160a01b031661400e565b9297509250935061244492506003610fb29501549160405196879560208701526024860161108d565b60405160208101919091526001600160a01b0393841660248201526044810191909152911660648201529450610fb2935084925050608482019050612444565b6001600160a01b03908116908115614457576020907f5e94cc2b8b9fd616c1ffff3497627b534929331e1f3b26d7dc3360464546d505541691602460405180948193632d5ad3d560e01b835260048301525afa60009181614437575b50610fb25750600090565b61445091925060203d81116116b2576116a48183610bec565b903861442c565b5050600190565b803b1515908161446c575090565b610fb291506119a7565b906040519161448483610b6d565b60018352602083016020368237835115610d655752565b60048151106144ab576020015190565b50600090565b92916144bb610ca9565b508235906020840135926144e76144db6040870135966060810190612d12565b9087878787878d614d14565b9791156144f8575050505050505090565b6145029750613f10565b602081519101fd5b92909161451561171f565b50813590604060208401359301359361453285858585858b615168565b979115614543575050505050505090565b614502975061425b565b9060405191828154918282526020928383019160005283600020936000905b8282106145825750505061013d92500383610bec565b85546001600160a01b03168452600195860195889550938101939091019061456c565b906040805180938054926145cc6145c0858560209181520190565b92600052602060002090565b9360005b81601f8201106149e85761013d9554928282106149d2575b8282106149b8575b82821061499e575b828210614984575b82821061496a575b828210614950575b828210614936575b82821061491c575b828210614905575b508181106148ed575b8181106148d5575b8181106148bd575b8181106148a5575b81811061488d575b818110614875575b81811061485d575b818110614845575b81811061482d575b818110614815575b8181106147fd575b8181106147e5575b8181106147cd575b8181106147b5575b81811061479d575b818110614785575b81811061476d575b818110614755575b81811061473d575b818110614725575b81811061470d575b8181106146f5575b106146e7575b500383610bec565b60f81c8152602001386146df565b60f083901c60ff1684529260019060200193016146d9565b60e883901c60ff1684529260019060200193016146d1565b60e083901c60ff1684529260019060200193016146c9565b60d883901c60ff1684529260019060200193016146c1565b60d083901c60ff1684529260019060200193016146b9565b60c883901c60ff1684529260019060200193016146b1565b60c083901c60ff1684529260019060200193016146a9565b60b883901c60ff1684529260019060200193016146a1565b60b083901c60ff168452926001906020019301614699565b60a883901c60ff168452926001906020019301614691565b60a083901c60ff168452926001906020019301614689565b609883901c60ff168452926001906020019301614681565b609083901c60ff168452926001906020019301614679565b608883901c60ff168452926001906020019301614671565b608083901c60ff168452926001906020019301614669565b607883901c60ff168452926001906020019301614661565b607083901c60ff168452926001906020019301614659565b606883901c60ff168452926001906020019301614651565b606083901c60ff168452926001906020019301614649565b605883901c60ff168452926001906020019301614641565b605083901c60ff168452926001906020019301614639565b604883901c60ff168452926001906020019301614631565b83901c60ff16845292600190602001930138614628565b603884901c60ff1685529093600190602001940190614620565b603084901c60ff1685529093600190602001940190614618565b602884901c60ff1685529093600190602001940190614610565b602084811c60ff1686529194909160019101940190614608565b601884901c60ff1685529093600190602001940190614600565b601084901c60ff16855290936001906020019401906145f8565b600884901c60ff16855290936001906020019401906145f0565b60ff8416855290936001906020019401906145e8565b919350916001610400602092614c868854614c7b60ff614a0c8582851660ff169052565b614c54614ab9614c048d614bb489614b648e614a318184018a8d60081c1660ff169052565b614a448584018a8d60101c1660ff169052565b888b610200606095614a5f878201858560181c1660ff169052565b614a746080958585888501921c1660ff169052565b614b1a60a097614a8d898401878760281c1660ff169052565b614aca60c09b614aa68d8601898960301c1660ff169052565b60e09e8f8601898960381c1660ff169052565b87876101008701921c1660ff169052565b614adf6101208401878760481c1660ff169052565b614af46101408401878760501c1660ff169052565b614b096101608401878760581c1660ff169052565b85856101808501921c1660ff169052565b614b2f6101a08201858560681c1660ff169052565b614b446101c08201858560701c1660ff169052565b614b596101e08201858560781c1660ff169052565b01921c1660ff169052565b614b796102208c01888b60881c1660ff169052565b614b8e6102408c01888b60901c1660ff169052565b614ba36102608c01888b60981c1660ff169052565b86896102808d01921c1660ff169052565b614bc96102a08a01868960a81c1660ff169052565b614bde6102c08a01868960b01c1660ff169052565b614bf36102e08a01868960b81c1660ff169052565b84876103008b01921c1660ff169052565b614c196103208801848760c81c1660ff169052565b614c2e6103408801848760d01c1660ff169052565b614c436103608801848760d81c1660ff169052565b82856103808901921c1660ff169052565b614c696103a08601828560e81c1660ff169052565b6103c08501908360f01c1660ff169052565b60f81c6103e0830152565b01950191019186939194926145d0565b9060405160e081018181106001600160401b038211176103d65760405282546001600160a01b039081168252600184015416602082015291829060c090614d0f90600690600281015460408601526003810154606086015260048101546080860152614d046005820161454d565b60a0860152016145a5565b910152565b9092969493959196614d24610ca9565b97614d3a614d35836107d086610f0f565b614c96565b828a5280516001600160a01b031660608b01529687516001600160a01b03959086168015614f7957614d6c9086614f94565b9015614f5e5715614f4157614d8791612d6891848688615019565b614f29578515614f1157614d9e826107d085610df2565b54614db082610815856107d088610e2b565b5490878115159283614efd575b505050614ee557610815826107d0614ddb614de2956107d088610e64565b5495610e9d565b54908015159182614ed2575b5050614ebd5760808401518015159081614eb3575b50614e9e5760608401514210614e895760408401518503614e7457602084015191811691166001600160a01b031603614e615760c092614e429161183b565b602084015260a08101516080840152015160a082015260019160009190565b50600093632e834cbf60e11b9392509050565b50600095631d6bbb8d60e11b95945092505050565b5060009563456afd0b60e01b95945092505050565b50600095635bdd08f560e01b95945092505050565b9050831138614e03565b5060009563ae3586c560e01b95945092505050565b614edd919250610da3565b113880614dee565b50600098636d03a2e560e01b98975095505050505050565b614f08929350610db6565b11388781614dbd565b5060009863c6b949a960e01b98975095505050505050565b5060009863e2cf60cb60e01b98975095505050505050565b5060009a600162bed83560e01b03199a9950975050505050505050565b5060009b63915b8f1d60e01b9b9a5098505050505050505050565b5060009b634ed1072f60e11b9b9a5098505050505050505050565b604051638da5cb5b60e01b602082019081526004825292939290614fb781610b6d565b6000928392839251915afa90614fcb612140565b9115801561500e575b61500757602082805181010312610119575060200151614ff38161011c565b6001926001600160a01b0391821691161490565b9250508190565b506020825110614fd4565b6001600160a01b031660009081527f5e94cc2b8b9fd616c1ffff3497627b534929331e1f3b26d7dc3360464546d50d60209081526040808320938352928152828220835196949061506988610b6d565b6001815491828a5201549081848a01521590811561514e575b506151425783929195949351868101916bffffffffffffffffffffffff199060601b168252601481526150b481610b6d565b5190209551959481945b8486106150cf575050505050501490565b909192939495615112908760051b8301358082111560001461511c57865185810192835260208301919091526151088160408401612444565b5190205b96615159565b94939291906150be565b865185810191825260208201929092529061513a8160408401612444565b51902061510c565b50505050505050600190565b905042101538615082565b6000198114610db15760010190565b9493929061517461171f565b95828752851561527d5761518e926107d061081592610ed6565b906002820154908115615268576003830154801515908161525d575b506152485782546001600160a01b03918216911603615234578260018301540361522057831161520d576151e36005926151ff9461183b565b60208501526151f46004820161454d565b6060850152016145a5565b608082015260019160009190565b506000936364b7fccd60e11b9392509050565b50600094631d6bbb8d60e11b949350915050565b50600094632e834cbf60e11b949350915050565b50600095635493bdef60e11b95945092505050565b9050421015386151aa565b50600095630bac95f560e21b95945092505050565b5060009663c6b949a960e01b9695509350505050565b80516001600160a01b031660009081527f5e94cc2b8b9fd616c1ffff3497627b534929331e1f3b26d7dc3360464546d51360205260409020909190916152e760208201938451600052602052604060002090565b9060409361531885830193615302855160018060a01b031690565b60018060a01b0316600052602052604060002090565b6060830180519091615332916001600160a01b0316615302565b93600285015492831561547157600486015480151580615467575b615423575050845461537291506001600160a01b03165b91516001600160a01b031690565b6001600160a01b0381811690831603615408575050600183015491608081019283518082036153e757505060a001948551908282116153c757505050906153bf610fb2925185519061183b565b9351906154d9565b5163587ced0f60e01b815260048101919091526024810191909152604490fd5b8751631d6bbb8d60e11b815260048101919091526024810191909152604490fd5b61164b8751928392632e834cbf60e11b845260048401611705565b61164b90898561544f61536461543f8b5160018060a01b031690565b965197516001600160a01b031690565b915163581fa6b560e01b81529586956004870161379e565b504281111561534d565b61164b888461549c61536461548c8a5160018060a01b031690565b955196516001600160a01b031690565b915163b9c59b5760e01b81526001600160a01b03948516600482015260248101959095528316604485015291909116606483015281906084820190565b9190916002810190815490818514615534576003019182546154fb868261183b565b831561551e57839004958303928311610db15761551a92869255611818565b9055565b634e487b7160e01b600052601260045260246000fd5b6000809394955060049250600382018181549660018060a01b031985541685558160018601555555015590565b60408051627eeac760e11b8082529296600496909594939092916001600160a01b03891691602091828180615599898b8f84016117bc565b0381875afa90811561079a57600091615790575b5088811061577157908291869493898c6155d18951988993849388855284016117bc565b0381875afa94851561079a57600095615752575b50600080516020615d5d83398151915254615608906001600160a01b031661092d565b803b1561012d576000898b928f8f8f9061563886928f8f51998a988997889663eb46c45b60e01b88528701613760565b03925af1801561079a5761573f575b508683898d6156608a51948593849389855284016117bc565b0381885afa92831561079a5788958d8c928794600097615720575b506156918b51998a9586948594855284016117bc565b03915afa93841561079a578a936000956156fb575b5050826156b291611818565b14928315936156e6575b5050506156cc5750505050505050565b51638791019960e01b81529650869561164b95870161379e565b6156f1929350610db6565b14153886816156bc565b6156b292955084918161571992903d106109eb576109dd8183610bec565b94916156a6565b615738919750853d87116109eb576109dd8183610bec565b953861567b565b8061078e61574c92610b88565b38615647565b61576a919550833d85116109eb576109dd8183610bec565b93386155e5565b8961164b88928b898f8a51968796636906ef1760e11b885287016117d7565b6157a79150833d85116109eb576109dd8183610bec565b386155ad565b602090818184031261012d578051906001600160401b03821161012d57019180601f8401121561012d5782516157e281610c60565b936157f06040519586610bec565b818552838086019260051b82010192831161012d578301905b828210615817575050505090565b81518152908301908301615809565b9092916040820191604081528451809352606081019260208096019060005b81811061585f57505050610fb29394818403910152610f48565b82516001600160a01b031686529487019491870191600101615845565b93602095926158c1946158b39360018060a01b0392838092168952168888015216604086015260c0606086015260c0850190610f48565b908382036080850152610f48565b9060a0818303910152600081520190565b835190949093926001600160a01b0386169290916158f76158f287611825565b610c77565b946159046158f288611825565b809660005b898110615b8157506040968751916313849cfd60e21b918284528084808460049e8f83019161593792615826565b03815a93600094fa93841561079a57600094615b66575b5060005b8c8110615af65750600080516020615d5d8339815191525461597c906001600160a01b031661092d565b92833b1561012d576000898f958c968f8f906159ae8e8e8894519c8d9889978896637ee7f69b60e01b8852870161587c565b03925af190811561079a576000948d92615ae3575b506159d98c519788958694859485528401615826565b03915afa91821561079a57600092615ac0575b5060005b898110615a04575050505050505050505050565b615a0d81611825565b615a178185610d6a565b51615a37615a258386610d6a565b51615a30858a610d6a565b5190611818565b1490811591615a7c575b50615a4e576001016159f0565b61164b9899508092506116299150615a6593610d6a565b519351638791019960e01b8152968796870161379e565b9050615ab8615aa6615aa0615a99615a9385610da3565b88610d6a565b5193610da3565b85610d6a565b51615ab18489610d6a565b5190610db6565b141538615a41565b615adc91923d8091833e615ad48183610bec565b8101906157ad565b90386159ec565b8061078e615af092610b88565b386159c3565b615aff81611825565b615b098187610d6a565b51615b14838b610d6a565b5111615b235750600101615952565b8c8f8d888c61164b938f96615b4f908f8a615b4181615b4893610d6a565b5195610d6a565b5194610d6a565b519351636906ef1760e11b815296879687016117d7565b615b7a91943d8091833e615ad48183610bec565b923861594e565b6001919250615b8f81611825565b615bac87615b9d8387610d6a565b6001600160a01b039091169052565b615bc288615b9d615bbc84610da3565b87610d6a565b615bcc8286610d6a565b51615bd7828c610d6a565b52615bf5615bef615be88488610d6a565b5192610da3565b8b610d6a565b5201908791615909565b615c0882615c53565b60015b828110615c1757505050565b600019810190808211610db157615c49615c35615c4e938686610d43565b35615c41838787610d43565b359083615c83565b615159565b615c0b565b801561211b57604b8111615c645750565b6044906040519063f80a484560e01b82526004820152604b6024820152fd5b919080821115615c9257505050565b606493506040519263f48f718f60e01b8452600484015260248301526044820152fd5b615cbe82615c53565b60015b828110615ccd57505050565b600019810190808211610db157615c49615ceb615cf79386866117ac565b35615c418387876117ac565b615cc156fe5e94cc2b8b9fd616c1ffff3497627b534929331e1f3b26d7dc3360464546d5005e94cc2b8b9fd616c1ffff3497627b534929331e1f3b26d7dc3360464546d50162f45af1ef781f07a7efa5cc0678ca0c3cdaed8c8bbe87e057d7eb5bcff7a18c5e94cc2b8b9fd616c1ffff3497627b534929331e1f3b26d7dc3360464546d50aa264697066735822122021551e17cf731138ae2156496b9e33f430ab60311f2b323732364712508edc7664736f6c63430008120033","linkReferences":{"src/marketplace/RareERC1155MarketplacePayments.sol":{"RareERC1155MarketplacePayments":[{"start":1276,"length":20},{"start":1337,"length":20},{"start":1413,"length":20},{"start":1477,"length":20},{"start":1850,"length":20},{"start":1919,"length":20},{"start":4430,"length":20},{"start":4489,"length":20},{"start":4715,"length":20},{"start":4777,"length":20},{"start":4941,"length":20},{"start":5009,"length":20},{"start":7040,"length":20},{"start":7932,"length":20},{"start":10765,"length":20},{"start":10902,"length":20}]}}},"methodIdentifiers":{"MAX_BATCH_SIZE()":"cfdbf254","MAX_CHECKOUT_SIZE()":"a3eaf4d9","acceptOffer(address,uint256,address,address,uint256,uint256,address[],uint8[])":"b8e6b50f","buyBatch(address,address,address,(uint256,uint256,uint256)[])":"0a6ce313","checkout((uint8,address,address,address,uint256,uint256,uint256,bytes32[])[])":"2c0c49ee","executeCheckoutItem((uint8,address,address,address,uint256,uint256,uint256,bytes32[]),uint256,address,uint256,uint256,address[],uint8[])":"59a8a40a","executeCheckoutPayout((uint8,address,address,address,uint256,uint256,uint256,bytes32[]),address,uint256,uint256,address[],uint8[])":"d65852a6","mintDirectSaleBatch(address,address,(uint256,uint256,uint256,bytes32[])[])":"7777e6d7"},"id":75}