{"abi":[{"type":"function","name":"getContractAllowListConfig","inputs":[{"name":"_contractAddress","type":"address","internalType":"address"}],"outputs":[{"name":"","type":"tuple","internalType":"struct IRareMinter.AllowListConfig","components":[{"name":"root","type":"bytes32","internalType":"bytes32"},{"name":"endTimestamp","type":"uint256","internalType":"uint256"}]}],"stateMutability":"view"},{"type":"function","name":"getContractMintLimit","inputs":[{"name":"_contractAddress","type":"address","internalType":"address"}],"outputs":[{"name":"","type":"uint256","internalType":"uint256"}],"stateMutability":"view"},{"type":"function","name":"getContractMintsPerAddress","inputs":[{"name":"_contractAddress","type":"address","internalType":"address"},{"name":"_address","type":"address","internalType":"address"}],"outputs":[{"name":"","type":"uint256","internalType":"uint256"}],"stateMutability":"view"},{"type":"function","name":"getContractSellerStakingMinimum","inputs":[{"name":"_contractAddress","type":"address","internalType":"address"}],"outputs":[{"name":"","type":"tuple","internalType":"struct IRareMinter.StakingMinimum","components":[{"name":"amount","type":"uint256","internalType":"uint256"},{"name":"endTimestamp","type":"uint256","internalType":"uint256"}]}],"stateMutability":"view"},{"type":"function","name":"getContractTxLimit","inputs":[{"name":"_contractAddress","type":"address","internalType":"address"}],"outputs":[{"name":"","type":"uint256","internalType":"uint256"}],"stateMutability":"view"},{"type":"function","name":"getContractTxsPerAddress","inputs":[{"name":"_contractAddress","type":"address","internalType":"address"},{"name":"_address","type":"address","internalType":"address"}],"outputs":[{"name":"","type":"uint256","internalType":"uint256"}],"stateMutability":"view"},{"type":"function","name":"getDirectSaleConfig","inputs":[{"name":"_contractAddress","type":"address","internalType":"address"}],"outputs":[{"name":"","type":"tuple","internalType":"struct IRareMinter.DirectSaleConfig","components":[{"name":"seller","type":"address","internalType":"address"},{"name":"currencyAddress","type":"address","internalType":"address"},{"name":"price","type":"uint256","internalType":"uint256"},{"name":"startTime","type":"uint256","internalType":"uint256"},{"name":"maxMints","type":"uint256","internalType":"uint256"},{"name":"splitRecipients","type":"address[]","internalType":"address payable[]"},{"name":"splitRatios","type":"uint8[]","internalType":"uint8[]"}]}],"stateMutability":"view"},{"type":"function","name":"initialize","inputs":[{"name":"_networkBeneficiary","type":"address","internalType":"address"},{"name":"_marketplaceSettings","type":"address","internalType":"address"},{"name":"_spaceOperatorRegistry","type":"address","internalType":"address"},{"name":"_royaltyEngine","type":"address","internalType":"address"},{"name":"_payments","type":"address","internalType":"address"},{"name":"_approvedTokenRegistry","type":"address","internalType":"address"},{"name":"_stakingSettings","type":"address","internalType":"address"},{"name":"_stakingRegistry","type":"address","internalType":"address"}],"outputs":[],"stateMutability":"nonpayable"},{"type":"function","name":"mintDirectSale","inputs":[{"name":"_contractAddress","type":"address","internalType":"address"},{"name":"_currencyAddress","type":"address","internalType":"address"},{"name":"_price","type":"uint256","internalType":"uint256"},{"name":"_numMints","type":"uint8","internalType":"uint8"},{"name":"_proof","type":"bytes32[]","internalType":"bytes32[]"}],"outputs":[],"stateMutability":"payable"},{"type":"function","name":"owner","inputs":[],"outputs":[{"name":"","type":"address","internalType":"address"}],"stateMutability":"view"},{"type":"function","name":"prepareMintDirectSale","inputs":[{"name":"_contractAddress","type":"address","internalType":"address"},{"name":"_currencyAddress","type":"address","internalType":"address"},{"name":"_price","type":"uint256","internalType":"uint256"},{"name":"_startTime","type":"uint256","internalType":"uint256"},{"name":"_maxMints","type":"uint256","internalType":"uint256"},{"name":"_splitRecipients","type":"address[]","internalType":"address payable[]"},{"name":"_splitRatios","type":"uint8[]","internalType":"uint8[]"}],"outputs":[],"stateMutability":"nonpayable"},{"type":"function","name":"proxiableUUID","inputs":[],"outputs":[{"name":"","type":"bytes32","internalType":"bytes32"}],"stateMutability":"view"},{"type":"function","name":"renounceOwnership","inputs":[],"outputs":[],"stateMutability":"nonpayable"},{"type":"function","name":"setApprovedTokenRegistry","inputs":[{"name":"_approvedTokenRegistry","type":"address","internalType":"address"}],"outputs":[],"stateMutability":"nonpayable"},{"type":"function","name":"setContractAllowListConfig","inputs":[{"name":"_root","type":"bytes32","internalType":"bytes32"},{"name":"_endTimestamp","type":"uint256","internalType":"uint256"},{"name":"_contractAddress","type":"address","internalType":"address"}],"outputs":[],"stateMutability":"nonpayable"},{"type":"function","name":"setContractMintLimit","inputs":[{"name":"_contractAddress","type":"address","internalType":"address"},{"name":"_limit","type":"uint256","internalType":"uint256"}],"outputs":[],"stateMutability":"nonpayable"},{"type":"function","name":"setContractSellerStakingMinimum","inputs":[{"name":"_contractAddress","type":"address","internalType":"address"},{"name":"_minimum","type":"uint256","internalType":"uint256"},{"name":"_endTimestamp","type":"uint256","internalType":"uint256"}],"outputs":[],"stateMutability":"nonpayable"},{"type":"function","name":"setContractTxLimit","inputs":[{"name":"_contractAddress","type":"address","internalType":"address"},{"name":"_limit","type":"uint256","internalType":"uint256"}],"outputs":[],"stateMutability":"nonpayable"},{"type":"function","name":"setMarketplaceSettings","inputs":[{"name":"_marketplaceSettings","type":"address","internalType":"address"}],"outputs":[],"stateMutability":"nonpayable"},{"type":"function","name":"setNetworkBeneficiary","inputs":[{"name":"_networkBeneficiary","type":"address","internalType":"address"}],"outputs":[],"stateMutability":"nonpayable"},{"type":"function","name":"setPayments","inputs":[{"name":"_payments","type":"address","internalType":"address"}],"outputs":[],"stateMutability":"nonpayable"},{"type":"function","name":"setRoyaltyEngine","inputs":[{"name":"_royaltyEngine","type":"address","internalType":"address"}],"outputs":[],"stateMutability":"nonpayable"},{"type":"function","name":"setSpaceOperatorRegistry","inputs":[{"name":"_spaceOperatorRegistry","type":"address","internalType":"address"}],"outputs":[],"stateMutability":"nonpayable"},{"type":"function","name":"transferOwnership","inputs":[{"name":"newOwner","type":"address","internalType":"address"}],"outputs":[],"stateMutability":"nonpayable"},{"type":"function","name":"upgradeTo","inputs":[{"name":"newImplementation","type":"address","internalType":"address"}],"outputs":[],"stateMutability":"nonpayable"},{"type":"function","name":"upgradeToAndCall","inputs":[{"name":"newImplementation","type":"address","internalType":"address"},{"name":"data","type":"bytes","internalType":"bytes"}],"outputs":[],"stateMutability":"payable"},{"type":"event","name":"AdminChanged","inputs":[{"name":"previousAdmin","type":"address","indexed":false,"internalType":"address"},{"name":"newAdmin","type":"address","indexed":false,"internalType":"address"}],"anonymous":false},{"type":"event","name":"BeaconUpgraded","inputs":[{"name":"beacon","type":"address","indexed":true,"internalType":"address"}],"anonymous":false},{"type":"event","name":"ContractMintLimitSet","inputs":[{"name":"contractAddress","type":"address","indexed":true,"internalType":"address"},{"name":"limit","type":"uint256","indexed":false,"internalType":"uint256"}],"anonymous":false},{"type":"event","name":"ContractStakingMinimumSet","inputs":[{"name":"contractAddress","type":"address","indexed":true,"internalType":"address"},{"name":"minimum","type":"uint256","indexed":false,"internalType":"uint256"},{"name":"endTimestamp","type":"uint256","indexed":false,"internalType":"uint256"}],"anonymous":false},{"type":"event","name":"ContractTxLimitSet","inputs":[{"name":"contractAddress","type":"address","indexed":true,"internalType":"address"},{"name":"limit","type":"uint256","indexed":false,"internalType":"uint256"}],"anonymous":false},{"type":"event","name":"Initialized","inputs":[{"name":"version","type":"uint8","indexed":false,"internalType":"uint8"}],"anonymous":false},{"type":"event","name":"MintDirectSale","inputs":[{"name":"_contractAddress","type":"address","indexed":true,"internalType":"address"},{"name":"_seller","type":"address","indexed":true,"internalType":"address"},{"name":"_buyer","type":"address","indexed":true,"internalType":"address"},{"name":"_tokenIdStart","type":"uint256","indexed":false,"internalType":"uint256"},{"name":"_tokenIdEnd","type":"uint256","indexed":false,"internalType":"uint256"},{"name":"_currency","type":"address","indexed":false,"internalType":"address"},{"name":"_price","type":"uint256","indexed":false,"internalType":"uint256"}],"anonymous":false},{"type":"event","name":"OwnershipTransferred","inputs":[{"name":"previousOwner","type":"address","indexed":true,"internalType":"address"},{"name":"newOwner","type":"address","indexed":true,"internalType":"address"}],"anonymous":false},{"type":"event","name":"PrepareMintDirectSale","inputs":[{"name":"_contractAddress","type":"address","indexed":true,"internalType":"address"},{"name":"_currency","type":"address","indexed":true,"internalType":"address"},{"name":"_seller","type":"address","indexed":true,"internalType":"address"},{"name":"_price","type":"uint256","indexed":false,"internalType":"uint256"},{"name":"_startTime","type":"uint256","indexed":false,"internalType":"uint256"},{"name":"_maxMints","type":"uint256","indexed":false,"internalType":"uint256"},{"name":"splitRecipients","type":"address[]","indexed":false,"internalType":"address payable[]"},{"name":"splitRatios","type":"uint8[]","indexed":false,"internalType":"uint8[]"}],"anonymous":false},{"type":"event","name":"SetContractAllowListConfig","inputs":[{"name":"_root","type":"bytes32","indexed":true,"internalType":"bytes32"},{"name":"_endTimestamp","type":"uint256","indexed":false,"internalType":"uint256"},{"name":"_contractAddress","type":"address","indexed":true,"internalType":"address"}],"anonymous":false},{"type":"event","name":"Upgraded","inputs":[{"name":"implementation","type":"address","indexed":true,"internalType":"address"}],"anonymous":false}],"bytecode":{"object":"0x60a08060405234610031573060805261469e90816100378239608051818181612e7301528181612f9f01526133400152f35b600080fdfe60a080604052600436101561001357600080fd5b600090813560e01c90816304c1ff071461384f575080630fc635b3146136fd578063176ab4401461367857806321ede032146135fb57806323946f1f146135c15780632da45e8e146135715780633492e5a8146134f45780633659cfe61461331b5780634cf5f910146131f35780634f1ef28614612f2457806352d1902d14612e60578063677b198414612c54578063715018a614612bf657806378c19898146126715780637f358230146125f45780638a29e2de146121cc5780638da5cb5b146121a35780639890cddf146121365780639dbef5d114612010578063a01fa6a914611b6c578063af231a5814611aef578063ca774e6814611a9f578063d647ed3c146102a8578063e4e87e3b1461020c578063f2fde38b1461017b5763fa5312c81461013f57600080fd5b34610178576020366003190112610178576020906040906001600160a01b0361016661389e565b16815261010783522054604051908152f35b80fd5b50346101785760203660031901126101785761019561389e565b61019d6139be565b6001600160a01b038116156101b8576101b590613a16565b80f35b60405162461bcd60e51b815260206004820152602660248201527f4f776e61626c653a206e6577206f776e657220697320746865207a65726f206160448201526564647265737360d01b6064820152608490fd5b5034610178576020366003190112610178578061022761389e565b61022f6139be565b73__$7682c538d2a75d26dfca907f0e750789f4$__90813b156102a4576040516386e5800760e01b815260fb60048201526001600160a01b039091166024820152908290829060449082905af48015610299576102895750f35b610292906138fb565b6101785780f35b6040513d84823e3d90fd5b5050fd5b5060a0366003190112610178576102bd61389e565b6102c56138ca565b6064359060ff82168203610846576084356001600160401b038111610f3f576102f2903690600401613980565b9190600260655414611a5a5760026065556001600160a01b03851686526101036020526040808720905193906103278561390e565b60018060a01b03815416855260018060a01b036001820154166020860152600281015460408601526003810154606086015260048101546080860152604051806005830190602082549182815201918b5260208b20908b5b818110611a3b575050509061039981600694930382613944565b60a0870152604051910180548083529089526020808a209183918201908b905b80601f8301106118a6576104cf945491818110611892575b81811061187b575b818110611864575b81811061184d575b818110611837575b818110611820575b818110611809575b8181106117f2575b8181106117db575b8181106117c4575b8181106117ad575b818110611796575b81811061177f575b818110611768575b818110611751575b81811061173a575b818110611723575b81811061170c575b8181106116f5575b8181106116de575b8181106116c7575b8181106116b0575b818110611699575b818110611682575b81811061166b575b818110611654575b81811061163d575b818110611626575b81811061160f575b8181106115f8575b8181106115e1575b106115d3575b500382613944565b60c085015283516001600160a01b031615611570576104ed81613d33565b916104fb6040519384613944565b8183526020830190368360051b820111610f635780915b8360051b82018310611560575050505061052d903386613f79565b8151610542906001600160a01b031685613dc7565b60ff831615611506576001600160a01b038416855261010560205260408520541580156114c4575b15611467576001600160a01b03841685526101076020526040852054158015611421575b156113bd57608082015180159081156113af575b501561134457606082015142106112f357604082015160443503611292576105c981614120565b60208201516001600160a01b0390811690821603611227576105f060443560ff8516613d5e565b608052604082015161119c575b6001600160a01b03841685526101056020526040852054611171575b6001600160a01b03841685526101076020526040852054611131575b60405163755edd1760e01b815233600482015291602083602481896001600160a01b038a165af19283156110915786936110fd575b506040810151610879575b60fc5486906001600160a01b0316803b1561087557604051635a3c652d60e01b81526001600160a01b038816600482015260248101869052600160448201529082908290606490829084905af161085d575b505060015b60ff851681106107675750516001600160a01b0316926106ef9060ff1683613d9e565b6000198101908111610753576040805193845260208401919091526001600160a01b03918216908301526044356060830152339316907f3bbd73fed0f94290f16db112f6b7113697c2502dd42aa0ddf8f971472523f10090608090a4600160655580f35b634e487b7160e01b86526011600452602486fd5b60405163755edd1760e01b81523360048201526020816024818b6001600160a01b038c165af1801561085257610822575b5060fc5487906001600160a01b03166107b18387613d9e565b813b1561081e57604051635a3c652d60e01b81526001600160a01b038a1660048201526024810191909152600160448201529082908290606490829084905af1610806575b505061080190613dab565b6106cc565b61080f906138fb565b61081a5786386107f6565b8680fd5b8280fd5b602090813d831161084b575b6108388183613944565b810103126108465738610798565b600080fd5b503d61082e565b6040513d8a823e3d90fd5b610866906138fb565b6108715785386106c7565b8580fd5b5080fd5b92939460018060a01b038451169560a08501519560c086015194875186510361109c576080805160fc546040516361fe24a960e11b815292516004840152909a90602090839060249082906001600160a01b03165afa91821561109157869261105d575b50604051916108eb83613929565b60028352604036602085013760fb546001600160a01b03168061090d856140c1565b526101025460405163e286ef3360e01b81526004810185905290602090829060249082906001600160a01b03165afa908115610fc1578991611023575b506001600160a01b031661095d856140e4565b526001600160a01b0361096f856140e4565b511661100a575b61097f846140e4565b6001600160a01b03909116905260405161099881613929565b600281526040366020830137610101546040516303fdde1160e21b815260805160048201526001600160a01b0390911690602081602481855afa908115610fff578a91610fcc575b506024916020916109f0856140c1565b5260405163470d6ed960e11b8152608051600482015292839182905afa908115610fc1579085918a91610f8a575b5092610a3493610a2d846140e4565b528a6144f1565b60fc54604051631446f21360e21b81526001600160a01b03878116600483015260248201869052909160209183916044918391165afa908115610c7d578791610f6b575b50610d6c5760405190610a8a826138e0565b600182526020368184013760405192610aa2846138e0565b60018452602036818601376001600160a01b0390610abf906140c1565b5116610aca846140c1565b5260fd54604051635dc22eff60e01b81526004810183905290602090829060249082906001600160a01b03165afa908115610852578891610d3d575b5015610c885760fd54604051632260494f60e01b81526004810192909252602090829060249082906001600160a01b03165afa908115610c7d579060ff918891610c4e575b50169a8b60805190610b5c91613d5e565b60649004610b6991613dba565b9a60805190610b7791613d5e565b60649004610b84826140c1565b52610b8e816140c1565b5191610b9a92886144f1565b875194610ba686613d33565b95610bb46040519788613944565b808752610bc3601f1991613d33565b01366020880137849785985b8a518a1015610c3357610c27610c2d916064610c208f60ff8f8f908f91610c1892610c128389610c0b88610c0384886140f4565b51168a613d5e565b04926140f4565b526140f4565b511690613d5e565b0490613d9e565b99613dab565b98610bcf565b9196939850949950610c499398919650856144f1565b610675565b610c70915060203d602011610c76575b610c688183613944565b8101906144d8565b38610b4b565b503d610c5e565b6040513d89823e3d90fd5b5060fc5460405163b28a7bad60e01b81526001600160a01b038781166004830152909160209183916024918391165afa908115610c7d579060ff918891610d1e575b50169a8b60805190610cdb91613d5e565b60649004610ce891613dba565b9a60805190610cf691613d5e565b60649004610d03826140c1565b52610d0d816140c1565b5191610d1992886144f1565b610b9a565b610d37915060203d602011610c7657610c688183613944565b38610cca565b610d5f915060203d602011610d65575b610d578183613944565b810190614108565b38610b06565b503d610d4d565b505060fe54604051637a99dc0160e11b81526001600160a01b038086166004830152602482018490526080516044830152929a5098929792969295929492939183918a9160649183918591165af19687156102995782988398610e1e575b508299839a5b89518c1015610dfd57610df1610df791610dea8e8d6140f4565b5190613d9e565b9b613dab565b9a610dd0565b9a5091939597610d199193959799610e178c608051613dba565b9b886144f1565b985096503d978883823e610e328982613944565b6040818a8101031261081e5780516001600160401b038111610f6757810190898101601f83011215610f6757815191610e6a83613d33565b92610e786040519485613944565b80845260208401918c840160208360051b8301011161081a5760208101925b60208360051b8301018410610f4357505050506020810151996001600160401b038b11610f3f57808201601f8c8401011215610f3f578a82015191610edb83613d33565b9b610ee96040519d8e613944565b838d5260208d0192820160208560051b83850101011161081a579190602083820101925b60208560051b82840101018410610f2b575050505050979638610dca565b602080809486518152019401939250610f0d565b8480fd5b83516001600160a01b0381168103610f6357815260209384019301610e97565b8880fd5b8380fd5b610f84915060203d602011610d6557610d578183613944565b38610a78565b9150506020813d602011610fb9575b81610fa660209383613944565b8101031261084657518490610a34610a1e565b3d9150610f99565b6040513d8b823e3d90fd5b90506020813d602011610ff7575b81610fe760209383613944565b81010312610846575160246109e0565b3d9150610fda565b6040513d8c823e3d90fd5b506001600160a01b0361101c846140e4565b5116610976565b90506020813d602011611055575b8161103e60209383613944565b81010312610f635761104f90613cbf565b3861094a565b3d9150611031565b9091506020813d602011611089575b8161107960209383613944565b81010312610846575190386108dd565b3d915061106c565b6040513d88823e3d90fd5b60405162461bcd60e51b815260206004820152603360248201527f4e756d626572206f662073706c69742061646472657373657320616e642072616044820152723a34b7b99036bab9ba1031329032b8bab0b61760691b6064820152608490fd5b9092506020813d602011611129575b8161111960209383613944565b810103126108465751913861066a565b3d915061110c565b61010860205260408520336000526020526040600020805460018101811161115d576001019055610635565b634e487b7160e01b87526011600452602487fd5b6101066020526040852033600052602052604060002061119560ff85168254613d9e565b9055610619565b60fc546040516361fe24a960e11b8152608051600482015290602090829060249082906001600160a01b03165afa9081156110915786916111f3575b506111e86111ee91608051613d9e565b826141e1565b6105fd565b90506020813d60201161121f575b8161120e60209383613944565b8101031261084657516111e86111d8565b3d9150611201565b60405162461bcd60e51b815260206004820152603960248201527f6d696e7444697265637453616c653a3a43757272656e637920646f6573206e6f60448201527f74206d617463682072657175697265642063757272656e6379000000000000006064820152608490fd5b60405162461bcd60e51b815260206004820152603360248201527f6d696e7444697265637453616c653a3a507269636520646f6573206e6f74206d6044820152726174636820726571756972656420707269636560681b6064820152608490fd5b60405162461bcd60e51b8152602060048201526024808201527f6d696e7444697265637453616c653a3a53616c6520686173206e6f74207374616044820152631c9d195960e21b6064820152608490fd5b60405162461bcd60e51b815260206004820152603a60248201527f6d696e7444697265637453616c653a3a4d696e7473206d757374206265206c6560448201527f7373207468616e206d61784d696e7420696620656e61626c65640000000000006064820152608490fd5b905060ff84161115386105a2565b60405162461bcd60e51b815260206004820152603660248201527f6d696e7444697265637453616c653a3a4578636565646564207472616e73616360448201527574696f6e206c696d697420666f72206164647265737360501b6064820152608490fd5b506101086020526040852033600052602052604060002054600181018111610753576001600160a01b03851686526101076020526040862054600191909101111561058e565b60405162461bcd60e51b815260206004820152602f60248201527f6d696e7444697265637453616c653a3a4578636565646564206d696e74206c6960448201526e6d697420666f72206164647265737360881b6064820152608490fd5b5061010660205260408520336000526020526114e860ff8416604060002054613d9e565b6001600160a01b03851686526101056020526040862054101561056a565b60405162461bcd60e51b815260206004820152602c60248201527f6d696e7444697265637453616c653a3a4d696e7473206d75737420626520677260448201526b06561746572207468616e20360a41b6064820152608490fd5b8235815260209283019201610512565b60405162461bcd60e51b815260206004820152603560248201527f6d696e7444697265637453616c653a3a436f6e7472616374206e6f7420707265604482015274706172656420666f72206469726563742073616c6560581b6064820152608490fd5b60f81c8152602001386104c7565b92602060019160ff8560f01c1681520193016104c1565b92602060019160ff8560e81c1681520193016104b9565b92602060019160ff8560e01c1681520193016104b1565b92602060019160ff8560d81c1681520193016104a9565b92602060019160ff8560d01c1681520193016104a1565b92602060019160ff8560c81c168152019301610499565b92602060019160ff8560c01c168152019301610491565b92602060019160ff8560b81c168152019301610489565b92602060019160ff8560b01c168152019301610481565b92602060019160ff8560a81c168152019301610479565b92602060019160ff8560a01c168152019301610471565b92602060019160ff8560981c168152019301610469565b92602060019160ff8560901c168152019301610461565b92602060019160ff8560881c168152019301610459565b92602060019160ff8560801c168152019301610451565b92602060019160ff8560781c168152019301610449565b92602060019160ff8560701c168152019301610441565b92602060019160ff8560681c168152019301610439565b92602060019160ff8560601c168152019301610431565b92602060019160ff8560581c168152019301610429565b92602060019160ff8560501c168152019301610421565b92602060019160ff8560481c168152019301610419565b92602060019160ff8560401c168152019301610411565b92602060019160ff8560381c168152019301610409565b92602060019160ff8560301c168152019301610401565b92602060019160ff8560281c1681520193016103f9565b92602060019160ff85831c1681520193016103f1565b92602060019160ff8560181c1681520193016103e9565b92602060019160ff8560101c1681520193016103e1565b92602060019160ff8560081c1681520193016103d9565b92602060019160ff851681520193016103d1565b916020919350610400600191865460ff8116825260ff8160081c168583015260ff8160101c16604083015260ff8160181c16606083015260ff81861c16608083015260ff8160281c1660a083015260ff8160c0828260301c1681860152828260381c1660e0860152828260401c16610100860152828260481c16610120860152828260501c16610140860152828260581c16610160860152828260601c16610180860152828260681c166101a0860152828260701c166101c0860152828260781c166101e0860152828260801c16610200860152828260881c16610220860152828260901c16610240860152828260981c16610260860152828260a01c16610280860152828260a81c166102a0860152828260b01c166102c0860152828260b81c166102e08601521c1661030083015260ff8160c81c1661032083015260ff8160d01c1661034083015260ff8160d81c1661036083015260ff8160e01c1661038083015260ff8160e81c166103a083015260ff8160f01c166103c083015260f81c6103e08201520194019201849293916103b9565b82546001600160a01b031684526020909301926001928301920161037f565b60405162461bcd60e51b815260206004820152601f60248201527f5265656e7472616e637947756172643a207265656e7472616e742063616c6c006044820152606490fd5b503461017857604036600319011261017857611ab961389e565b6040611ac36138ca565b9260018060a01b0380931681526101066020522091166000526020526020604060002054604051908152f35b50346101785760203660031901126101785780611b0a61389e565b611b126139be565b73__$7682c538d2a75d26dfca907f0e750789f4$__90813b156102a45760405163c70c56c760e01b815260fb60048201526001600160a01b039091166024820152908290829060449082905af48015610299576102895750f35b503461017857602036600319011261017857611b8661389e565b606060c0604051611b968161390e565b84815284602082015284604082015284838201528460808201528260a0820152015260018060a01b03168152610103602052604081209060405191611bda8361390e565b60018060a01b03815416835260018060a01b0360018201541660208401526002810154604084015260038101546060840152600481015460808401526005810160405190816020825491828152019185526020852090855b818110611ff15750505090611c4c81600694930382613944565b60a085015260405191018054808352908352602080842091839182019085905b80601f830110611e4957611d629454918181106118925781811061187b578181106118645781811061184d578181106118375781811061182057818110611809578181106117f2578181106117db578181106117c4578181106117ad578181106117965781811061177f57818110611768578181106117515781811061173a578181106117235781811061170c578181106116f5578181106116de578181106116c7578181106116b057818110611699578181106116825781811061166b578181106116545781811061163d578181106116265781811061160f578181106115f8578181106115e157106115d357500382613944565b60c08301526040519182916020835261010083019160018060a01b03815116602085015260018060a01b0360208201511660408501526040810151606085015260608101516080850152608081015160a085015260a08101519260e060c0860152835180915260206101208601940190835b818110611e275750505060c0015191601f198482030160e0850152602080845192838152019301915b818110611e0b575050500390f35b825160ff16845285945060209384019390920191600101611dfd565b82516001600160a01b0316865287965060209586019590920191600101611dd4565b916020919350610400600191865460ff8116825260ff8160081c168583015260ff8160101c16604083015260ff8160181c16606083015260ff81861c16608083015260ff8160281c1660a083015260ff8160301c1660c083015260ff8160381c1660e083015260ff8160401c1661010083015260ff8160481c1661012083015260ff8160501c1661014083015260ff8160581c1661016083015260ff8160601c1661018083015260ff8160681c166101a083015260ff8160701c166101c083015260ff8160781c166101e083015260ff8160801c1661020083015260ff8160881c1661022083015260ff8160901c1661024083015260ff8160981c1661026083015260ff8160a01c1661028083015260ff8160a81c166102a083015260ff8160b01c166102c083015260ff8160b81c166102e083015260ff8160c01c1661030083015260ff8160c81c1661032083015260ff8160d01c1661034083015260ff8160d81c1661036083015260ff8160e01c1661038083015260ff8160e81c166103a083015260ff8160f01c166103c083015260f81c6103e0820152019401920184929391611c6c565b82546001600160a01b0316845260209093019260019283019201611c32565b50346101785760403660031901126101785761202a61389e565b604051638da5cb5b60e01b81526001600160a01b039182169160209160243591908381600481885afa908115611091578691612101575b501633036120a457907f5c8158ce792c8da34f9a8974acdb882c2c9cecc225c4ccf3c4a119aa2c726070918385526101078252806040862055604051908152a280f35b60405162461bcd60e51b815260048101839052602f60248201527f736574436f6e747261637454784c696d69743a3a4f6e6c7920636f6e7472616360448201526e1d081bdddb995c8818d85b881cd95d608a1b6064820152608490fd5b90508381813d831161212f575b6121188183613944565b810103126108715761212990613cbf565b38612061565b503d61210e565b5034610178576020366003190112610178576040809161215461389e565b600060208451612163816138e0565b82815201526001600160a01b03168152610109602052208151612185816138e0565b60206001835493848452015491019081528251918252516020820152f35b50346101785780600319360112610178576033546040516001600160a01b039091168152602090f35b503461017857610100366003190112610178576121e761389e565b6121ef6138ca565b906121f86138b4565b6064356001600160a01b0381168103610846576084356001600160a01b03811681036108465760a435906001600160a01b03821682036108465760c435926001600160a01b03841684036108465760e435946001600160a01b03861686036108465788549760ff8960081c16159889809a6125e7575b80156125d0575b156125745760ff1981166001178b5589612563575b506040516323e95fa960e01b81526001600160a01b039889166004820152908816602482015290871660448201529086166064820152908516608482015290841660a482015290831660c4820152911660e4820152610100816101048173__$7682c538d2a75d26dfca907f0e750789f4$__5af490811561255857839161242c575b5060018060a01b03815116906001600160601b0360a01b918260fb54161760fb5560018060a01b036020820151168260fc54161760fc5560018060a01b036040820151168260fd54161760fd5560018060a01b036060820151168260fe54161760fe5560018060a01b036080820151168260ff54161760ff5560018060a01b0360a082015116826101005416176101005560018060a01b0360c082015116610101908382541617905560e060018060a01b0391015116610102918254161790556123e560ff835460081c166123e081613cd3565b613cd3565b6123ee33613a16565b6123f55780f35b61ff001981541681557f7f26b83ff96e1f2b6a682f133852f6798a09c465da95921460cefb3847402498602060405160018152a180f35b9050610100813d61010011612550575b8161244a6101009383613944565b8101031261081e576040519061010082018281106001600160401b0382111761253a5760405261247981613cbf565b825260208101516001600160a01b0381168103610f3f57602083015260408101516001600160a01b0381168103610f3f57604083015260608101516001600160a01b0381168103610f3f57606083015260808101516001600160a01b0381168103610f3f57608083015260a08101516001600160a01b0381168103610f3f5760a083015260c0810151906001600160a01b0382168203610f3f5760c083019190915260e001516001600160a01b0381168103610f675760e08201523861230c565b634e487b7160e01b600052604160045260246000fd5b3d915061243c565b6040513d85823e3d90fd5b61ffff1916610101178a553861228a565b60405162461bcd60e51b815260206004820152602e60248201527f496e697469616c697a61626c653a20636f6e747261637420697320616c72656160448201526d191e481a5b9a5d1a585b1a5e995960921b6064820152608490fd5b50303b1580156122755750600160ff821614612275565b50600160ff82161061226e565b5034610178576020366003190112610178578061260f61389e565b6126176139be565b73__$7682c538d2a75d26dfca907f0e750789f4$__90813b156102a457604051630cf1420760e21b815260fb60048201526001600160a01b039091166024820152908290829060449082905af48015610299576102895750f35b50346101785760e03660031901126101785761268b61389e565b6126936138ca565b9060a4356001600160401b038111610f67576126b3903690600401613980565b60c4356001600160401b038111610871576126d2903690600401613980565b604051638da5cb5b60e01b8152919390916020816004816001600160a01b038a165afa908115610852578891612bb8575b50336001600160a01b0390911603612b415761271e86614120565b60405161272a8161390e565b3381526001600160a01b038716602082015260443560408201526064356060820152608435608082015261275d84613d33565b61276a6040519182613944565b84815260208101368660051b850111612b255783905b8660051b85018210612b2957505060a082015261279c83613d33565b6127a96040519182613944565b83815260208101368560051b880111612b255786905b8560051b88018210612b0d57505060c082015260018060a01b0386168852610103602052604088209060018060a01b038151166001600160601b0360a01b8354161782556001820160018060a01b036020830151166001600160601b0360a01b82541617905560408101516002830155606081015160038301556080810151600483015560a08101518051906001600160401b038211612af957600160401b8211612af9576020908b600586015484600588015584818110612adb575b50505001600584018b5260208b208b5b838110612abe575050505060c00151908151906001600160401b038211612aaa57600160401b8211612aaa57600660209101928354838555808410612a60575b50019189526020892090895b8160051c8110612a215750601f1981168103806129d4575b5050505091604051928160a0850160443586526064356020870152608435604087015260a060608701525260c084019091885b8181106129a8575050602091508381036080850152828152019290865b818110612986575033956001600160a01b039081169516937f36de0d2c8eec9296de665d70b6b6e55d8c29bfa7a36e0178e805ef54725d9f5c939081900392509050a480f35b90919360208060019260ff61299a896139b0565b168152019501929101612940565b909160019060209081906001600160a01b036129c388613d4a565b168152019401910192919092612923565b928a938b5b8181106129f15750505060051c0155388080806128f0565b9091946020612a176001928460ff8a5116919060ff809160031b9316831b921b19161790565b96019291016129d9565b8a8b5b60208110612a395750838201556001016128d8565b855190959160019160209160ff60038a901b81811b199092169216901b1792019501612a24565b612a8a90858d52838d20601f80870160051c82019281881680612a90575b500160051c0190613d87565b386128cc565b60001990818601918254918a0360031b1c16905538612a7e565b634e487b7160e01b8a52604160045260248afd5b82516001600160a01b03168183015560209092019160010161288c565b84612af19360058a018152209182019101613d87565b8b388461287c565b634e487b7160e01b8b52604160045260248bfd5b60208091612b1a846139b0565b8152019101906127bf565b8980fd5b60208091612b3684613d4a565b815201910190612780565b60a460405162461bcd60e51b815260206004820152604460248201527f707265706172654d696e7444697265637453616c653a3a4f6e6c79206d696e7460448201527f20636f6e7472616374206f776e65722063616e207072657061726520746865206064820152631b5a5b9d60e21b6084820152fd5b90506020813d602011612bee575b81612bd360209383613944565b81010312612bea57612be490613cbf565b38612703565b8780fd5b3d9150612bc6565b5034610178578060031936011261017857612c0f6139be565b603380546001600160a01b031981169091556000906001600160a01b03167f8be0079c531659141344cd1fd0a4f28419497f9722a3daafe3b4186f6b6457e08280a380f35b5034610178576060366003190112610178576001600160a01b0380612c7761389e565b1660405191638da5cb5b60e01b83526020928381600481865afa8015612db25782918691612e28575b50163303612dbd57602483826101025416604051928380926381d0606b60e01b82523360048301525afa908115612db2578591612d7d575b501615612d125760019061010960405193612cf2856138e0565b602435855280850192604435845286525260408420925183555191015580f35b60405162461bcd60e51b815260048101839052603c60248201527f736574436f6e747261637453656c6c65725374616b696e674d696e696d756d3a60448201527f3a53656c6c657220646f6573206e6f742068617665206120706f6f6c000000006064820152608490fd5b90508381813d8311612dab575b612d948183613944565b81010312610f3f57612da590613cbf565b38612cd8565b503d612d8a565b6040513d87823e3d90fd5b60405162461bcd60e51b815260048101849052603c60248201527f736574436f6e747261637453656c6c65725374616b696e674d696e696d756d3a60448201527f3a4f6e6c7920636f6e7472616374206f776e65722063616e20736574000000006064820152608490fd5b809250858092503d8311612e59575b612e418183613944565b81010312610f3f57612e538291613cbf565b38612ca0565b503d612e37565b50346101785780600319360112610178577f00000000000000000000000000000000000000000000000000000000000000006001600160a01b03163003612eb95760206040516000805160206146498339815191528152f35b60405162461bcd60e51b815260206004820152603860248201527f555550535570677261646561626c653a206d757374206e6f742062652063616c60448201527f6c6564207468726f7567682064656c656761746563616c6c00000000000000006064820152608490fd5b50604036600319011261017857612f3961389e565b602435906001600160401b03821161081e573660238301121561081e578160040135612f6481613965565b90612f726040519283613944565b8082528460209485840192366024828401011161081e578060248893018537840101526001600160a01b037f0000000000000000000000000000000000000000000000000000000000000000811690612fcd30831415613a5f565b612fea600080516020614649833981519152928284541614613ac0565b612ff26139be565b7f4910fdfa16fed3260ed0e7147f7cc6da11a60208b5b9406d12a635614ffd91435460ff161561302a57505050506101b59150613b21565b84939416906040516352d1902d60e01b81528681600481865afa600091816131c4575b506130ae5760405162461bcd60e51b815260048101889052602e60248201527f45524331393637557067726164653a206e657720696d706c656d656e7461746960448201526d6f6e206973206e6f74205555505360901b6064820152608490fd5b9594950361316d576130bf83613b21565b7fbc7cd75a20ee27fd9adebab32041f755214dbc6bffa90cc0225b39da2e5c2d3b600080a2835115801590613165575b6130fb575b5050505080f35b6000809161315b957f416464726573733a206c6f772d6c6576656c2064656c65676174652063616c6c6040519661313188613929565b60278852870152660819985a5b195960ca1b60408701525190845af4613155613bb1565b91613be1565b50388080806130f4565b5060016130ef565b60405162461bcd60e51b815260048101859052602960248201527f45524331393637557067726164653a20756e737570706f727465642070726f786044820152681a58589b195555525160ba1b6064820152608490fd5b90918882813d83116131ec575b6131db8183613944565b81010312610178575051903861304d565b503d6131d1565b50346101785760403660031901126101785761320d61389e565b604051638da5cb5b60e01b81526001600160a01b039182169160209160243591908381600481885afa9081156110915786916132e6575b5016330361328757907fa9d9d6bd10e1caf4891001b6ccccdad5384a544c63cc903d40182c0a5a139cd9918385526101058252806040862055604051908152a280f35b60405162461bcd60e51b815260048101839052603160248201527f736574436f6e74726163744d696e744c696d69743a3a4f6e6c7920636f6e74726044820152701858dd081bdddb995c8818d85b881cd95d607a1b6064820152608490fd5b90508381813d8311613314575b6132fd8183613944565b810103126108715761330e90613cbf565b38613244565b503d6132f3565b5034610178576020806003193601126108755761333661389e565b6001600160a01b037f000000000000000000000000000000000000000000000000000000000000000081169061336e30831415613a5f565b61338b600080516020614649833981519152928284541614613ac0565b6133936139be565b60405191848301918383106001600160401b0384111761253a578260405286845260ff7f4910fdfa16fed3260ed0e7147f7cc6da11a60208b5b9406d12a635614ffd914354166000146133ee57505050506101b59150613b21565b84939416906040516352d1902d60e01b81528681600481865afa600091816134c5575b506134725760405162461bcd60e51b815260048101889052602e60248201527f45524331393637557067726164653a206e657720696d706c656d656e7461746960448201526d6f6e206973206e6f74205555505360901b6064820152608490fd5b9594950361316d5761348383613b21565b7fbc7cd75a20ee27fd9adebab32041f755214dbc6bffa90cc0225b39da2e5c2d3b600080a28351158015906134bd576130fb575050505080f35b5060006130ef565b90918882813d83116134ed575b6134dc8183613944565b810103126101785750519038613411565b503d6134d2565b5034610178576020366003190112610178578061350f61389e565b6135176139be565b73__$7682c538d2a75d26dfca907f0e750789f4$__90813b156102a45760405163dec30e3360e01b815260fb60048201526001600160a01b039091166024820152908290829060449082905af48015610299576102895750f35b50346101785760403660031901126101785761358b61389e565b60406135956138ca565b9260018060a01b0380931681526101086020522091166000526020526020604060002054604051908152f35b5034610178576020366003190112610178576020906040906001600160a01b036135e961389e565b16815261010583522054604051908152f35b5034610178576020366003190112610178578061361661389e565b61361e6139be565b73__$7682c538d2a75d26dfca907f0e750789f4$__90813b156102a45760405163ebda042b60e01b815260fb60048201526001600160a01b039091166024820152908290829060449082905af48015610299576102895750f35b50346101785760203660031901126101785761369261389e565b61369a6139be565b8173__$7682c538d2a75d26dfca907f0e750789f4$__91823b1561087557604051632c55921b60e01b815260fb60048201526001600160a01b03909116602482015291829060449082905af48015610299576136f4575080f35b6101b5906138fb565b5034610178576060366003190112610178576024356004356001600160a01b03806137266138b4565b169260405191638da5cb5b60e01b83526020928381600481895afa908115610c7d57879161381a575b501633036137af57907fff2ce9a528a62cad638cc9f5bccd36a62ecfa9aa0b1ab82c98957cb3498b4b6791604051613786816138e0565b84815260018382018381528789526101048552604089209251835551910155604051908152a380f35b60405162461bcd60e51b815260048101839052603760248201527f736574436f6e7472616374416c6c6f774c697374436f6e6669673a3a4f6e6c7960448201527f20636f6e7472616374206f776e65722063616e207365740000000000000000006064820152608490fd5b90508381813d8311613848575b6138318183613944565b8101031261081a5761384290613cbf565b3861374f565b503d613827565b90503461087557602036600319011261087557604082819281602061387261389e565b9261387c816138e0565b82815201526001600160a01b03168152610104602052208151612185816138e0565b600435906001600160a01b038216820361084657565b604435906001600160a01b038216820361084657565b602435906001600160a01b038216820361084657565b604081019081106001600160401b0382111761253a57604052565b6001600160401b03811161253a57604052565b60e081019081106001600160401b0382111761253a57604052565b606081019081106001600160401b0382111761253a57604052565b90601f801991011681019081106001600160401b0382111761253a57604052565b6001600160401b03811161253a57601f01601f191660200190565b9181601f84011215610846578235916001600160401b038311610846576020808501948460051b01011161084657565b359060ff8216820361084657565b6033546001600160a01b031633036139d257565b606460405162461bcd60e51b815260206004820152602060248201527f4f776e61626c653a2063616c6c6572206973206e6f7420746865206f776e65726044820152fd5b603380546001600160a01b039283166001600160a01b0319821681179092559091167f8be0079c531659141344cd1fd0a4f28419497f9722a3daafe3b4186f6b6457e0600080a3565b15613a6657565b60405162461bcd60e51b815260206004820152602c60248201527f46756e6374696f6e206d7573742062652063616c6c6564207468726f7567682060448201526b19195b1959d85d1958d85b1b60a21b6064820152608490fd5b15613ac757565b60405162461bcd60e51b815260206004820152602c60248201527f46756e6374696f6e206d7573742062652063616c6c6564207468726f7567682060448201526b6163746976652070726f787960a01b6064820152608490fd5b803b15613b565760008051602061464983398151915280546001600160a01b0319166001600160a01b03909216919091179055565b60405162461bcd60e51b815260206004820152602d60248201527f455243313936373a206e657720696d706c656d656e746174696f6e206973206e60448201526c1bdd08184818dbdb9d1c9858dd609a1b6064820152608490fd5b3d15613bdc573d90613bc282613965565b91613bd06040519384613944565b82523d6000602084013e565b606090565b91929015613c435750815115613bf5575090565b3b15613bfe5790565b60405162461bcd60e51b815260206004820152601d60248201527f416464726573733a2063616c6c20746f206e6f6e2d636f6e74726163740000006044820152606490fd5b825190915015613c565750805190602001fd5b60405162461bcd60e51b8152908190613c729060048301613c76565b0390fd5b6020808252825181830181905290939260005b828110613cab57505060409293506000838284010152601f8019910116010190565b818101860151848201604001528501613c89565b51906001600160a01b038216820361084657565b15613cda57565b60405162461bcd60e51b815260206004820152602b60248201527f496e697469616c697a61626c653a20636f6e7472616374206973206e6f74206960448201526a6e697469616c697a696e6760a81b6064820152608490fd5b6001600160401b03811161253a5760051b60200190565b35906001600160a01b038216820361084657565b81810292918115918404141715613d7157565b634e487b7160e01b600052601160045260246000fd5b818110613d92575050565b60008155600101613d87565b91908201809211613d7157565b6000198114613d715760010190565b91908203918211613d7157565b6001600160a01b03908116600081815261010960208181526040808420805492979196959215613f6f5760010154421015613f66576101025486516381d0606b60e01b8152918616600483015287908290602490829089165afa908115613f5c579087918591613f26575b506024875180978193630e67667b60e21b8352336004840152165afa938415613f1c5790839291869495613ee5575b5082528552205411613e71575050565b60a49250519062461bcd60e51b82526004820152604260248201527f5f656e666f726365436f6e747261637453656c6c65725374616b696e674d696e60448201527f696d756d3a3a41646472657373206e6f74206f6e207374616b656420656e6f756064820152610ced60f31b6084820152fd5b878092965081939495503d8311613f15575b613f018183613944565b8101031261081e5790849291519338613e61565b503d613ef7565b85513d85823e3d90fd5b82819392503d8311613f55575b613f3d8183613944565b81010312610f6757613f4f8791613cbf565b38613e32565b503d613f33565b86513d86823e3d90fd5b50505050505050565b5050505050505050565b6001600160a01b03166000908152610104602090815260408083208054929591949293928415613f6657600180920154421015613f6657908092918651888101916001600160601b03199060601b16825260148152613fd7816138e0565b5190209380935b61404a575b5050505003613ff0575050565b60849250519062461bcd60e51b82526004820152602e60248201527f5f656e666f726365416c6c6f774c69737465643a3a41646472657373206e6f7460448201526d081bdb88185b1b1bddc81b1a5cdd60921b6064820152fd5b9091929383518510156140bb576140909061406586866140f4565b51808211614099578851908a82019283528982015288815261408681613929565b5190205b94613dab565b92919081613fde565b908851908a8201928352898201528881526140b381613929565b51902061408a565b93613fe3565b8051156140ce5760200190565b634e487b7160e01b600052603260045260246000fd5b8051600110156140ce5760400190565b80518210156140ce5760209160051b010190565b90816020910312610846575180151581036108465790565b6001600160a01b03908116801591821561417b575b50501561413e57565b60405162461bcd60e51b81526020600482015260156024820152744e6f7420617070726f7665642063757272656e637960581b6044820152606490fd5b6020919250610100541691602460405180948193632d5ad3d560e01b835260048301525afa9081156141d5576000916141b7575b503880614135565b6141cf915060203d8111610d6557610d578183613944565b386141af565b6040513d6000823e3d90fd5b6001600160a01b03169081156143b3573461435d5760409081516370a0823160e01b938482523060048301526020948583602481855afa92831561435257600093614323575b5084516323b872dd60e01b87820152336024820152306044820152606480820186905281529060a082016001600160401b0381118382101761253a578792614271918852846143f8565b602486518094819382523060048301525afa908115614318576000916142e9575b509061429d91613dba565b036142a6575050565b60649250519062461bcd60e51b82526004820152601c60248201527f6e6f7420656e6f75676820746f6b656e73207472616e736665726564000000006044820152fd5b908582813d8311614311575b6142ff8183613944565b8101031261017857505161429d614292565b503d6142f5565b84513d6000823e3d90fd5b90928682813d831161434b575b61433a8183613944565b810103126101785750519138614227565b503d614330565b85513d6000823e3d90fd5b60405162461bcd60e51b815260206004820152602860248201527f6d73672e76616c75652073686f756c642062652030207768656e206e6f7420756044820152670e6d2dcce40cae8d60c31b6064820152608490fd5b905034036143bd57565b60405162461bcd60e51b81526020600482015260136024820152721b9bdd08195b9bdd59da08195d1a081cd95b9d606a1b6044820152606490fd5b604051614450916001600160a01b0316614411826138e0565b6000806020958685527f5361666545524332303a206c6f772d6c6576656c2063616c6c206661696c656487860152868151910182855af1613155613bb1565b8051908282159283156144c0575b505050156144695750565b6084906040519062461bcd60e51b82526004820152602a60248201527f5361666545524332303a204552433230206f7065726174696f6e20646964206e6044820152691bdd081cdd58d8d9595960b21b6064820152fd5b6144d09350820181019101614108565b38828161445e565b90816020910312610846575160ff811681036108465790565b6001600160a01b0392908316806145c857508260ff541693604051916020908184019563c176e63960e01b87526064850160406024870152825180915283608487019301916000905b8282106145af575050505083810360231901604485015282518082529082019282019160005b82811061459b57505050509181614586600096949387969403601f198101835282613944565b51925af1614592613bb1565b9015613c565750565b835185529381019392810192600101614560565b835181168552938501939285019260019091019061453a565b92915060009493945b81518110156146405780614636846145ec61463b94866140f4565b51166146306145fb848b6140f4565b5160405163a9059cbb60e01b60208201526001600160a01b039390931660248401526044808401919091528252606482613944565b866143f8565b613dab565b6145d1565b50505050905056fe360894a13ba1a3210667c828492db98dca3e2076cc3735a920a3ca505d382bbca26469706673582212203910265fe71e7df1d861f7a5c2155ce23f071116fafed6231a2c8fed115e2b4a64736f6c63430008120033","linkReferences":{"src/utils/structs/MarketConfig.sol":{"MarketConfig":[{"start":616,"length":20},{"start":6987,"length":20},{"start":8992,"length":20},{"start":9808,"length":20},{"start":13648,"length":20},{"start":13911,"length":20},{"start":14036,"length":20}]}}},"methodIdentifiers":{"getContractAllowListConfig(address)":"04c1ff07","getContractMintLimit(address)":"23946f1f","getContractMintsPerAddress(address,address)":"ca774e68","getContractSellerStakingMinimum(address)":"9890cddf","getContractTxLimit(address)":"fa5312c8","getContractTxsPerAddress(address,address)":"2da45e8e","getDirectSaleConfig(address)":"a01fa6a9","initialize(address,address,address,address,address,address,address,address)":"8a29e2de","mintDirectSale(address,address,uint256,uint8,bytes32[])":"d647ed3c","owner()":"8da5cb5b","prepareMintDirectSale(address,address,uint256,uint256,uint256,address[],uint8[])":"78c19898","proxiableUUID()":"52d1902d","renounceOwnership()":"715018a6","setApprovedTokenRegistry(address)":"e4e87e3b","setContractAllowListConfig(bytes32,uint256,address)":"0fc635b3","setContractMintLimit(address,uint256)":"4cf5f910","setContractSellerStakingMinimum(address,uint256,uint256)":"677b1984","setContractTxLimit(address,uint256)":"9dbef5d1","setMarketplaceSettings(address)":"176ab440","setNetworkBeneficiary(address)":"3492e5a8","setPayments(address)":"af231a58","setRoyaltyEngine(address)":"21ede032","setSpaceOperatorRegistry(address)":"7f358230","transferOwnership(address)":"f2fde38b","upgradeTo(address)":"3659cfe6","upgradeToAndCall(address,bytes)":"4f1ef286"},"id":169}