{"abi":[{"type":"constructor","inputs":[],"stateMutability":"nonpayable"},{"type":"function","name":"MAX_BATCH_SIZE","inputs":[],"outputs":[{"name":"","type":"uint256","internalType":"uint256"}],"stateMutability":"view"},{"type":"function","name":"MAX_CHECKOUT_SIZE","inputs":[],"outputs":[{"name":"","type":"uint256","internalType":"uint256"}],"stateMutability":"view"},{"type":"function","name":"acceptOffer","inputs":[{"name":"_contractAddress","type":"address","internalType":"address"},{"name":"_tokenId","type":"uint256","internalType":"uint256"},{"name":"_buyer","type":"address","internalType":"address"},{"name":"_currencyAddress","type":"address","internalType":"address"},{"name":"_price","type":"uint256","internalType":"uint256"},{"name":"_quantity","type":"uint256","internalType":"uint256"},{"name":"_splitRecipients","type":"address[]","internalType":"address payable[]"},{"name":"_splitRatios","type":"uint8[]","internalType":"uint8[]"}],"outputs":[],"stateMutability":"nonpayable"},{"type":"function","name":"buyBatch","inputs":[{"name":"_contractAddress","type":"address","internalType":"address"},{"name":"_seller","type":"address","internalType":"address"},{"name":"_currencyAddress","type":"address","internalType":"address"},{"name":"_requests","type":"tuple[]","internalType":"struct IRareERC1155MarketplaceTypes.BuyRequest[]","components":[{"name":"tokenId","type":"uint256","internalType":"uint256"},{"name":"price","type":"uint256","internalType":"uint256"},{"name":"quantity","type":"uint256","internalType":"uint256"}]}],"outputs":[],"stateMutability":"payable"},{"type":"function","name":"cancelOffer","inputs":[{"name":"_contractAddress","type":"address","internalType":"address"},{"name":"_tokenId","type":"uint256","internalType":"uint256"},{"name":"_currencyAddress","type":"address","internalType":"address"}],"outputs":[],"stateMutability":"nonpayable"},{"type":"function","name":"cancelSalePrices","inputs":[{"name":"_contractAddress","type":"address","internalType":"address"},{"name":"_tokenIds","type":"uint256[]","internalType":"uint256[]"}],"outputs":[],"stateMutability":"nonpayable"},{"type":"function","name":"checkout","inputs":[{"name":"_items","type":"tuple[]","internalType":"struct IRareERC1155MarketplaceTypes.CheckoutItem[]","components":[{"name":"itemKind","type":"uint8","internalType":"uint8"},{"name":"contractAddress","type":"address","internalType":"address"},{"name":"seller","type":"address","internalType":"address"},{"name":"currencyAddress","type":"address","internalType":"address"},{"name":"tokenId","type":"uint256","internalType":"uint256"},{"name":"price","type":"uint256","internalType":"uint256"},{"name":"quantity","type":"uint256","internalType":"uint256"},{"name":"proof","type":"bytes32[]","internalType":"bytes32[]"}]}],"outputs":[{"name":"","type":"tuple","internalType":"struct IRareERC1155MarketplaceTypes.CheckoutExecution","components":[{"name":"summary","type":"tuple","internalType":"struct IRareERC1155MarketplaceTypes.CheckoutSummary","components":[{"name":"filledCount","type":"uint256","internalType":"uint256"},{"name":"skippedCount","type":"uint256","internalType":"uint256"},{"name":"ethSpent","type":"uint256","internalType":"uint256"},{"name":"ethRefunded","type":"uint256","internalType":"uint256"}]},{"name":"items","type":"tuple[]","internalType":"struct IRareERC1155MarketplaceTypes.CheckoutItemResult[]","components":[{"name":"itemIndex","type":"uint256","internalType":"uint256"},{"name":"itemKind","type":"uint8","internalType":"uint8"},{"name":"contractAddress","type":"address","internalType":"address"},{"name":"tokenId","type":"uint256","internalType":"uint256"},{"name":"seller","type":"address","internalType":"address"},{"name":"currencyAddress","type":"address","internalType":"address"},{"name":"price","type":"uint256","internalType":"uint256"},{"name":"quantity","type":"uint256","internalType":"uint256"},{"name":"filled","type":"bool","internalType":"bool"},{"name":"failureStage","type":"uint8","internalType":"enum IRareERC1155MarketplaceTypes.CheckoutFailureStage"},{"name":"reason","type":"bytes4","internalType":"bytes4"},{"name":"failureData","type":"bytes","internalType":"bytes"},{"name":"totalPaid","type":"uint256","internalType":"uint256"}]}]}],"stateMutability":"payable"},{"type":"function","name":"getDirectSaleConfig","inputs":[{"name":"_contractAddress","type":"address","internalType":"address"},{"name":"_tokenId","type":"uint256","internalType":"uint256"}],"outputs":[{"name":"","type":"tuple","internalType":"struct IRareERC1155MarketplaceTypes.DirectSaleConfig","components":[{"name":"seller","type":"address","internalType":"address"},{"name":"currencyAddress","type":"address","internalType":"address"},{"name":"price","type":"uint256","internalType":"uint256"},{"name":"startTime","type":"uint256","internalType":"uint256"},{"name":"maxMints","type":"uint256","internalType":"uint256"},{"name":"splitRecipients","type":"address[]","internalType":"address payable[]"},{"name":"splitRatios","type":"uint8[]","internalType":"uint8[]"}]}],"stateMutability":"view"},{"type":"function","name":"getERC1155ApprovalManager","inputs":[],"outputs":[{"name":"","type":"address","internalType":"address"}],"stateMutability":"view"},{"type":"function","name":"getMarketConfig","inputs":[],"outputs":[{"name":"","type":"tuple","internalType":"struct MarketConfigV2.Config","components":[{"name":"networkBeneficiary","type":"address","internalType":"address"},{"name":"marketplaceSettings","type":"address","internalType":"contract IMarketplaceSettings"},{"name":"spaceOperatorRegistry","type":"address","internalType":"contract ISpaceOperatorRegistry"},{"name":"royaltyEngine","type":"address","internalType":"contract IRoyaltyEngineV1"},{"name":"payments","type":"address","internalType":"contract IPayments"},{"name":"approvedTokenRegistry","type":"address","internalType":"contract IApprovedTokenRegistry"},{"name":"stakingSettings","type":"address","internalType":"contract IStakingSettings"},{"name":"stakingRegistry","type":"address","internalType":"contract IRareStakingRegistry"},{"name":"erc20ApprovalManager","type":"address","internalType":"contract IERC20ApprovalManager"},{"name":"erc721ApprovalManager","type":"address","internalType":"contract IERC721ApprovalManager"}]}],"stateMutability":"view"},{"type":"function","name":"getOffer","inputs":[{"name":"_contractAddress","type":"address","internalType":"address"},{"name":"_tokenId","type":"uint256","internalType":"uint256"},{"name":"_buyer","type":"address","internalType":"address"},{"name":"_currencyAddress","type":"address","internalType":"address"}],"outputs":[{"name":"","type":"tuple","internalType":"struct IRareERC1155MarketplaceTypes.Offer","components":[{"name":"currencyAddress","type":"address","internalType":"address"},{"name":"price","type":"uint256","internalType":"uint256"},{"name":"quantity","type":"uint256","internalType":"uint256"},{"name":"marketplaceFeeRemaining","type":"uint256","internalType":"uint256"},{"name":"expirationTime","type":"uint256","internalType":"uint256"}]}],"stateMutability":"view"},{"type":"function","name":"getSalePrice","inputs":[{"name":"_contractAddress","type":"address","internalType":"address"},{"name":"_tokenId","type":"uint256","internalType":"uint256"},{"name":"_seller","type":"address","internalType":"address"}],"outputs":[{"name":"","type":"tuple","internalType":"struct IRareERC1155MarketplaceTypes.SalePrice","components":[{"name":"currencyAddress","type":"address","internalType":"address"},{"name":"price","type":"uint256","internalType":"uint256"},{"name":"quantity","type":"uint256","internalType":"uint256"},{"name":"expirationTime","type":"uint256","internalType":"uint256"},{"name":"splitRecipients","type":"address[]","internalType":"address payable[]"},{"name":"splitRatios","type":"uint8[]","internalType":"uint8[]"}]}],"stateMutability":"view"},{"type":"function","name":"getSettlement","inputs":[],"outputs":[{"name":"","type":"address","internalType":"address"}],"stateMutability":"view"},{"type":"function","name":"getTokenAllowListConfig","inputs":[{"name":"_contractAddress","type":"address","internalType":"address"},{"name":"_tokenId","type":"uint256","internalType":"uint256"}],"outputs":[{"name":"","type":"tuple","internalType":"struct IRareERC1155MarketplaceTypes.AllowListConfig","components":[{"name":"root","type":"bytes32","internalType":"bytes32"},{"name":"endTimestamp","type":"uint256","internalType":"uint256"}]}],"stateMutability":"view"},{"type":"function","name":"getTokenMintLimit","inputs":[{"name":"_contractAddress","type":"address","internalType":"address"},{"name":"_tokenId","type":"uint256","internalType":"uint256"}],"outputs":[{"name":"","type":"uint256","internalType":"uint256"}],"stateMutability":"view"},{"type":"function","name":"getTokenMintsPerAddress","inputs":[{"name":"_contractAddress","type":"address","internalType":"address"},{"name":"_tokenId","type":"uint256","internalType":"uint256"},{"name":"_account","type":"address","internalType":"address"}],"outputs":[{"name":"","type":"uint256","internalType":"uint256"}],"stateMutability":"view"},{"type":"function","name":"getTokenTxLimit","inputs":[{"name":"_contractAddress","type":"address","internalType":"address"},{"name":"_tokenId","type":"uint256","internalType":"uint256"}],"outputs":[{"name":"","type":"uint256","internalType":"uint256"}],"stateMutability":"view"},{"type":"function","name":"getTokenTxsPerAddress","inputs":[{"name":"_contractAddress","type":"address","internalType":"address"},{"name":"_tokenId","type":"uint256","internalType":"uint256"},{"name":"_account","type":"address","internalType":"address"}],"outputs":[{"name":"","type":"uint256","internalType":"uint256"}],"stateMutability":"view"},{"type":"function","name":"initialize","inputs":[{"name":"_networkBeneficiary","type":"address","internalType":"address"},{"name":"_marketplaceSettings","type":"address","internalType":"address"},{"name":"_spaceOperatorRegistry","type":"address","internalType":"address"},{"name":"_royaltyEngine","type":"address","internalType":"address"},{"name":"_payments","type":"address","internalType":"address"},{"name":"_approvedTokenRegistry","type":"address","internalType":"address"},{"name":"_stakingSettings","type":"address","internalType":"address"},{"name":"_stakingRegistry","type":"address","internalType":"address"},{"name":"_erc20ApprovalManager","type":"address","internalType":"address"},{"name":"_erc721ApprovalManager","type":"address","internalType":"address"},{"name":"_erc1155ApprovalManager","type":"address","internalType":"address"},{"name":"_settlement","type":"address","internalType":"address"}],"outputs":[],"stateMutability":"nonpayable"},{"type":"function","name":"isPaused","inputs":[],"outputs":[{"name":"","type":"bool","internalType":"bool"}],"stateMutability":"view"},{"type":"function","name":"makeOffer","inputs":[{"name":"_contractAddress","type":"address","internalType":"address"},{"name":"_tokenId","type":"uint256","internalType":"uint256"},{"name":"_currencyAddress","type":"address","internalType":"address"},{"name":"_price","type":"uint256","internalType":"uint256"},{"name":"_quantity","type":"uint256","internalType":"uint256"},{"name":"_expirationTime","type":"uint256","internalType":"uint256"}],"outputs":[],"stateMutability":"payable"},{"type":"function","name":"mintDirectSaleBatch","inputs":[{"name":"_contractAddress","type":"address","internalType":"address"},{"name":"_currencyAddress","type":"address","internalType":"address"},{"name":"_requests","type":"tuple[]","internalType":"struct IRareERC1155MarketplaceTypes.MintRequest[]","components":[{"name":"tokenId","type":"uint256","internalType":"uint256"},{"name":"price","type":"uint256","internalType":"uint256"},{"name":"quantity","type":"uint256","internalType":"uint256"},{"name":"proof","type":"bytes32[]","internalType":"bytes32[]"}]}],"outputs":[],"stateMutability":"payable"},{"type":"function","name":"owner","inputs":[],"outputs":[{"name":"","type":"address","internalType":"address"}],"stateMutability":"view"},{"type":"function","name":"prepareMintDirectSales","inputs":[{"name":"_contractAddress","type":"address","internalType":"address"},{"name":"_currencyAddress","type":"address","internalType":"address"},{"name":"_requests","type":"tuple[]","internalType":"struct IRareERC1155MarketplaceTypes.DirectSaleRequest[]","components":[{"name":"tokenId","type":"uint256","internalType":"uint256"},{"name":"price","type":"uint256","internalType":"uint256"},{"name":"startTime","type":"uint256","internalType":"uint256"},{"name":"maxMints","type":"uint256","internalType":"uint256"}]},{"name":"_splitRecipients","type":"address[]","internalType":"address payable[]"},{"name":"_splitRatios","type":"uint8[]","internalType":"uint8[]"}],"outputs":[],"stateMutability":"nonpayable"},{"type":"function","name":"proxiableUUID","inputs":[],"outputs":[{"name":"","type":"bytes32","internalType":"bytes32"}],"stateMutability":"view"},{"type":"function","name":"renounceOwnership","inputs":[],"outputs":[],"stateMutability":"nonpayable"},{"type":"function","name":"setApprovedTokenRegistry","inputs":[{"name":"_approvedTokenRegistry","type":"address","internalType":"address"}],"outputs":[],"stateMutability":"nonpayable"},{"type":"function","name":"setContractPaused","inputs":[{"name":"_isPaused","type":"bool","internalType":"bool"}],"outputs":[],"stateMutability":"nonpayable"},{"type":"function","name":"setERC1155ApprovalManager","inputs":[{"name":"_erc1155ApprovalManager","type":"address","internalType":"address"}],"outputs":[],"stateMutability":"nonpayable"},{"type":"function","name":"setERC20ApprovalManager","inputs":[{"name":"_erc20ApprovalManager","type":"address","internalType":"address"}],"outputs":[],"stateMutability":"nonpayable"},{"type":"function","name":"setERC721ApprovalManager","inputs":[{"name":"_erc721ApprovalManager","type":"address","internalType":"address"}],"outputs":[],"stateMutability":"nonpayable"},{"type":"function","name":"setMarketplaceSettings","inputs":[{"name":"_marketplaceSettings","type":"address","internalType":"address"}],"outputs":[],"stateMutability":"nonpayable"},{"type":"function","name":"setNetworkBeneficiary","inputs":[{"name":"_networkBeneficiary","type":"address","internalType":"address"}],"outputs":[],"stateMutability":"nonpayable"},{"type":"function","name":"setPayments","inputs":[{"name":"_payments","type":"address","internalType":"address"}],"outputs":[],"stateMutability":"nonpayable"},{"type":"function","name":"setRoyaltyEngine","inputs":[{"name":"_royaltyEngine","type":"address","internalType":"address"}],"outputs":[],"stateMutability":"nonpayable"},{"type":"function","name":"setSalePrices","inputs":[{"name":"_contractAddress","type":"address","internalType":"address"},{"name":"_currencyAddress","type":"address","internalType":"address"},{"name":"_requests","type":"tuple[]","internalType":"struct IRareERC1155MarketplaceTypes.SalePriceRequest[]","components":[{"name":"tokenId","type":"uint256","internalType":"uint256"},{"name":"price","type":"uint256","internalType":"uint256"},{"name":"quantity","type":"uint256","internalType":"uint256"},{"name":"expirationTime","type":"uint256","internalType":"uint256"}]},{"name":"_splitRecipients","type":"address[]","internalType":"address payable[]"},{"name":"_splitRatios","type":"uint8[]","internalType":"uint8[]"}],"outputs":[],"stateMutability":"nonpayable"},{"type":"function","name":"setSettlement","inputs":[{"name":"_settlement","type":"address","internalType":"address"}],"outputs":[],"stateMutability":"nonpayable"},{"type":"function","name":"setSpaceOperatorRegistry","inputs":[{"name":"_spaceOperatorRegistry","type":"address","internalType":"address"}],"outputs":[],"stateMutability":"nonpayable"},{"type":"function","name":"setStakingRegistry","inputs":[{"name":"_stakingRegistry","type":"address","internalType":"address"}],"outputs":[],"stateMutability":"nonpayable"},{"type":"function","name":"setStakingSettings","inputs":[{"name":"_stakingSettings","type":"address","internalType":"address"}],"outputs":[],"stateMutability":"nonpayable"},{"type":"function","name":"setTokenAllowListConfigs","inputs":[{"name":"_contractAddress","type":"address","internalType":"address"},{"name":"_requests","type":"tuple[]","internalType":"struct IRareERC1155MarketplaceTypes.AllowListConfigRequest[]","components":[{"name":"tokenId","type":"uint256","internalType":"uint256"},{"name":"root","type":"bytes32","internalType":"bytes32"},{"name":"endTimestamp","type":"uint256","internalType":"uint256"}]}],"outputs":[],"stateMutability":"nonpayable"},{"type":"function","name":"setTokenMintLimits","inputs":[{"name":"_contractAddress","type":"address","internalType":"address"},{"name":"_requests","type":"tuple[]","internalType":"struct IRareERC1155MarketplaceTypes.TokenLimitRequest[]","components":[{"name":"tokenId","type":"uint256","internalType":"uint256"},{"name":"limit","type":"uint256","internalType":"uint256"}]}],"outputs":[],"stateMutability":"nonpayable"},{"type":"function","name":"setTokenTxLimits","inputs":[{"name":"_contractAddress","type":"address","internalType":"address"},{"name":"_requests","type":"tuple[]","internalType":"struct IRareERC1155MarketplaceTypes.TokenLimitRequest[]","components":[{"name":"tokenId","type":"uint256","internalType":"uint256"},{"name":"limit","type":"uint256","internalType":"uint256"}]}],"outputs":[],"stateMutability":"nonpayable"},{"type":"function","name":"transferOwnership","inputs":[{"name":"newOwner","type":"address","internalType":"address"}],"outputs":[],"stateMutability":"nonpayable"},{"type":"function","name":"upgradeTo","inputs":[{"name":"newImplementation","type":"address","internalType":"address"}],"outputs":[],"stateMutability":"nonpayable"},{"type":"function","name":"upgradeToAndCall","inputs":[{"name":"newImplementation","type":"address","internalType":"address"},{"name":"data","type":"bytes","internalType":"bytes"}],"outputs":[],"stateMutability":"payable"},{"type":"event","name":"AdminChanged","inputs":[{"name":"previousAdmin","type":"address","indexed":false,"internalType":"address"},{"name":"newAdmin","type":"address","indexed":false,"internalType":"address"}],"anonymous":false},{"type":"event","name":"BeaconUpgraded","inputs":[{"name":"beacon","type":"address","indexed":true,"internalType":"address"}],"anonymous":false},{"type":"event","name":"CheckoutCompleted","inputs":[{"name":"buyer","type":"address","indexed":true,"internalType":"address"},{"name":"filledCount","type":"uint256","indexed":false,"internalType":"uint256"},{"name":"skippedCount","type":"uint256","indexed":false,"internalType":"uint256"},{"name":"ethSpent","type":"uint256","indexed":false,"internalType":"uint256"},{"name":"ethRefunded","type":"uint256","indexed":false,"internalType":"uint256"}],"anonymous":false},{"type":"event","name":"CheckoutItemProcessed","inputs":[{"name":"itemIndex","type":"uint256","indexed":true,"internalType":"uint256"},{"name":"itemKind","type":"uint8","indexed":true,"internalType":"uint8"},{"name":"contractAddress","type":"address","indexed":true,"internalType":"address"},{"name":"tokenId","type":"uint256","indexed":false,"internalType":"uint256"},{"name":"seller","type":"address","indexed":false,"internalType":"address"},{"name":"currencyAddress","type":"address","indexed":false,"internalType":"address"},{"name":"price","type":"uint256","indexed":false,"internalType":"uint256"},{"name":"quantity","type":"uint256","indexed":false,"internalType":"uint256"},{"name":"filled","type":"bool","indexed":false,"internalType":"bool"},{"name":"failureStage","type":"uint8","indexed":false,"internalType":"enum IRareERC1155MarketplaceTypes.CheckoutFailureStage"},{"name":"reason","type":"bytes4","indexed":false,"internalType":"bytes4"},{"name":"failureData","type":"bytes","indexed":false,"internalType":"bytes"},{"name":"totalPaid","type":"uint256","indexed":false,"internalType":"uint256"}],"anonymous":false},{"type":"event","name":"ContractPausedUpdated","inputs":[{"name":"isPaused","type":"bool","indexed":false,"internalType":"bool"}],"anonymous":false},{"type":"event","name":"Initialized","inputs":[{"name":"version","type":"uint8","indexed":false,"internalType":"uint8"}],"anonymous":false},{"type":"event","name":"MarketplaceDependencyUpdated","inputs":[{"name":"field","type":"bytes32","indexed":true,"internalType":"bytes32"},{"name":"dependency","type":"address","indexed":true,"internalType":"address"}],"anonymous":false},{"type":"event","name":"MintDirectSale","inputs":[{"name":"contractAddress","type":"address","indexed":true,"internalType":"address"},{"name":"tokenId","type":"uint256","indexed":true,"internalType":"uint256"},{"name":"buyer","type":"address","indexed":true,"internalType":"address"},{"name":"seller","type":"address","indexed":false,"internalType":"address"},{"name":"quantity","type":"uint256","indexed":false,"internalType":"uint256"},{"name":"currency","type":"address","indexed":false,"internalType":"address"},{"name":"price","type":"uint256","indexed":false,"internalType":"uint256"}],"anonymous":false},{"type":"event","name":"OfferAccepted","inputs":[{"name":"seller","type":"address","indexed":true,"internalType":"address"},{"name":"buyer","type":"address","indexed":true,"internalType":"address"},{"name":"contractAddress","type":"address","indexed":true,"internalType":"address"},{"name":"tokenId","type":"uint256","indexed":false,"internalType":"uint256"},{"name":"currency","type":"address","indexed":false,"internalType":"address"},{"name":"price","type":"uint256","indexed":false,"internalType":"uint256"},{"name":"quantity","type":"uint256","indexed":false,"internalType":"uint256"}],"anonymous":false},{"type":"event","name":"OfferCancelled","inputs":[{"name":"buyer","type":"address","indexed":true,"internalType":"address"},{"name":"contractAddress","type":"address","indexed":true,"internalType":"address"},{"name":"tokenId","type":"uint256","indexed":true,"internalType":"uint256"},{"name":"currency","type":"address","indexed":false,"internalType":"address"},{"name":"price","type":"uint256","indexed":false,"internalType":"uint256"},{"name":"quantity","type":"uint256","indexed":false,"internalType":"uint256"},{"name":"marketplaceFeeRemaining","type":"uint256","indexed":false,"internalType":"uint256"}],"anonymous":false},{"type":"event","name":"OfferMade","inputs":[{"name":"buyer","type":"address","indexed":true,"internalType":"address"},{"name":"contractAddress","type":"address","indexed":true,"internalType":"address"},{"name":"tokenId","type":"uint256","indexed":true,"internalType":"uint256"},{"name":"currency","type":"address","indexed":false,"internalType":"address"},{"name":"price","type":"uint256","indexed":false,"internalType":"uint256"},{"name":"quantity","type":"uint256","indexed":false,"internalType":"uint256"},{"name":"marketplaceFee","type":"uint256","indexed":false,"internalType":"uint256"},{"name":"expirationTime","type":"uint256","indexed":false,"internalType":"uint256"}],"anonymous":false},{"type":"event","name":"OwnershipTransferred","inputs":[{"name":"previousOwner","type":"address","indexed":true,"internalType":"address"},{"name":"newOwner","type":"address","indexed":true,"internalType":"address"}],"anonymous":false},{"type":"event","name":"PrepareMintDirectSale","inputs":[{"name":"contractAddress","type":"address","indexed":true,"internalType":"address"},{"name":"tokenId","type":"uint256","indexed":true,"internalType":"uint256"},{"name":"seller","type":"address","indexed":true,"internalType":"address"},{"name":"currency","type":"address","indexed":false,"internalType":"address"},{"name":"price","type":"uint256","indexed":false,"internalType":"uint256"},{"name":"startTime","type":"uint256","indexed":false,"internalType":"uint256"},{"name":"maxMints","type":"uint256","indexed":false,"internalType":"uint256"},{"name":"splitRecipients","type":"address[]","indexed":false,"internalType":"address payable[]"},{"name":"splitRatios","type":"uint8[]","indexed":false,"internalType":"uint8[]"}],"anonymous":false},{"type":"event","name":"SalePriceCancelled","inputs":[{"name":"seller","type":"address","indexed":true,"internalType":"address"},{"name":"contractAddress","type":"address","indexed":true,"internalType":"address"},{"name":"tokenId","type":"uint256","indexed":true,"internalType":"uint256"}],"anonymous":false},{"type":"event","name":"SalePriceSet","inputs":[{"name":"seller","type":"address","indexed":true,"internalType":"address"},{"name":"contractAddress","type":"address","indexed":true,"internalType":"address"},{"name":"tokenId","type":"uint256","indexed":true,"internalType":"uint256"},{"name":"currency","type":"address","indexed":false,"internalType":"address"},{"name":"price","type":"uint256","indexed":false,"internalType":"uint256"},{"name":"quantity","type":"uint256","indexed":false,"internalType":"uint256"},{"name":"expirationTime","type":"uint256","indexed":false,"internalType":"uint256"},{"name":"splitRecipients","type":"address[]","indexed":false,"internalType":"address payable[]"},{"name":"splitRatios","type":"uint8[]","indexed":false,"internalType":"uint8[]"}],"anonymous":false},{"type":"event","name":"SetTokenAllowListConfig","inputs":[{"name":"contractAddress","type":"address","indexed":true,"internalType":"address"},{"name":"tokenId","type":"uint256","indexed":true,"internalType":"uint256"},{"name":"root","type":"bytes32","indexed":false,"internalType":"bytes32"},{"name":"endTimestamp","type":"uint256","indexed":false,"internalType":"uint256"}],"anonymous":false},{"type":"event","name":"Sold","inputs":[{"name":"seller","type":"address","indexed":true,"internalType":"address"},{"name":"buyer","type":"address","indexed":true,"internalType":"address"},{"name":"contractAddress","type":"address","indexed":true,"internalType":"address"},{"name":"tokenId","type":"uint256","indexed":false,"internalType":"uint256"},{"name":"currency","type":"address","indexed":false,"internalType":"address"},{"name":"price","type":"uint256","indexed":false,"internalType":"uint256"},{"name":"quantity","type":"uint256","indexed":false,"internalType":"uint256"}],"anonymous":false},{"type":"event","name":"TokenMintLimitSet","inputs":[{"name":"contractAddress","type":"address","indexed":true,"internalType":"address"},{"name":"tokenId","type":"uint256","indexed":true,"internalType":"uint256"},{"name":"limit","type":"uint256","indexed":false,"internalType":"uint256"}],"anonymous":false},{"type":"event","name":"TokenTxLimitSet","inputs":[{"name":"contractAddress","type":"address","indexed":true,"internalType":"address"},{"name":"tokenId","type":"uint256","indexed":true,"internalType":"uint256"},{"name":"limit","type":"uint256","indexed":false,"internalType":"uint256"}],"anonymous":false},{"type":"event","name":"Upgraded","inputs":[{"name":"implementation","type":"address","indexed":true,"internalType":"address"}],"anonymous":false},{"type":"error","name":"AddressNotAllowlisted","inputs":[{"name":"_account","type":"address","internalType":"address"}]},{"type":"error","name":"ApprovalManagerCannotBeZero","inputs":[]},{"type":"error","name":"BatchSizeExceeded","inputs":[{"name":"supplied","type":"uint256","internalType":"uint256"},{"name":"max","type":"uint256","internalType":"uint256"}]},{"type":"error","name":"CheckoutItemExecutionFailed","inputs":[{"name":"_stage","type":"uint8","internalType":"enum IRareERC1155MarketplaceTypes.CheckoutFailureStage"},{"name":"_failureData","type":"bytes","internalType":"bytes"}]},{"type":"error","name":"ContractHasNoOwner","inputs":[{"name":"_contractAddress","type":"address","internalType":"address"}]},{"type":"error","name":"ContractPaused","inputs":[]},{"type":"error","name":"CurrencyMismatch","inputs":[{"name":"_suppliedCurrency","type":"address","internalType":"address"},{"name":"_configuredCurrency","type":"address","internalType":"address"}]},{"type":"error","name":"CurrencyNotApproved","inputs":[{"name":"_currencyAddress","type":"address","internalType":"address"}]},{"type":"error","name":"DirectSaleNotConfigured","inputs":[{"name":"_contractAddress","type":"address","internalType":"address"},{"name":"_tokenId","type":"uint256","internalType":"uint256"}]},{"type":"error","name":"DirectSettlementCallUnsupported","inputs":[]},{"type":"error","name":"ERC20FeeOnTransferUnsupported","inputs":[{"name":"_currencyAddress","type":"address","internalType":"address"},{"name":"_expectedAmount","type":"uint256","internalType":"uint256"},{"name":"_receivedAmount","type":"uint256","internalType":"uint256"}]},{"type":"error","name":"EmptyBatch","inputs":[]},{"type":"error","name":"IncorrectETHAmount","inputs":[{"name":"_requiredAmount","type":"uint256","internalType":"uint256"},{"name":"_suppliedAmount","type":"uint256","internalType":"uint256"}]},{"type":"error","name":"InsufficientCheckoutERC20Allowance","inputs":[{"name":"_currencyAddress","type":"address","internalType":"address"},{"name":"_requiredAmount","type":"uint256","internalType":"uint256"},{"name":"_availableAmount","type":"uint256","internalType":"uint256"}]},{"type":"error","name":"InsufficientCheckoutERC20Balance","inputs":[{"name":"_currencyAddress","type":"address","internalType":"address"},{"name":"_requiredAmount","type":"uint256","internalType":"uint256"},{"name":"_availableAmount","type":"uint256","internalType":"uint256"}]},{"type":"error","name":"InsufficientCheckoutETH","inputs":[{"name":"_requiredAmount","type":"uint256","internalType":"uint256"},{"name":"_availableAmount","type":"uint256","internalType":"uint256"}]},{"type":"error","name":"InsufficientTokenBalance","inputs":[{"name":"_account","type":"address","internalType":"address"},{"name":"_contractAddress","type":"address","internalType":"address"},{"name":"_tokenId","type":"uint256","internalType":"uint256"},{"name":"_requestedQuantity","type":"uint256","internalType":"uint256"},{"name":"_availableQuantity","type":"uint256","internalType":"uint256"}]},{"type":"error","name":"InvalidERC1155Contract","inputs":[{"name":"_contractAddress","type":"address","internalType":"address"}]},{"type":"error","name":"InvalidERC1155Transfer","inputs":[{"name":"_contractAddress","type":"address","internalType":"address"},{"name":"_tokenId","type":"uint256","internalType":"uint256"},{"name":"_seller","type":"address","internalType":"address"},{"name":"_buyer","type":"address","internalType":"address"},{"name":"_quantity","type":"uint256","internalType":"uint256"}]},{"type":"error","name":"MarketConfigAddressCannotBeZero","inputs":[{"name":"_field","type":"bytes32","internalType":"bytes32"}]},{"type":"error","name":"MarketplaceNotApproved","inputs":[{"name":"_account","type":"address","internalType":"address"},{"name":"_contractAddress","type":"address","internalType":"address"}]},{"type":"error","name":"MaxMintExceeded","inputs":[{"name":"_requestedQuantity","type":"uint256","internalType":"uint256"},{"name":"_maxMints","type":"uint256","internalType":"uint256"}]},{"type":"error","name":"MintLimitExceeded","inputs":[{"name":"_contractAddress","type":"address","internalType":"address"},{"name":"_tokenId","type":"uint256","internalType":"uint256"},{"name":"_account","type":"address","internalType":"address"},{"name":"_requestedQuantity","type":"uint256","internalType":"uint256"},{"name":"_mintedQuantity","type":"uint256","internalType":"uint256"},{"name":"_limit","type":"uint256","internalType":"uint256"}]},{"type":"error","name":"MsgValueMustBeZero","inputs":[]},{"type":"error","name":"MsgValueUnsupportedForERC20","inputs":[]},{"type":"error","name":"NotContractOwner","inputs":[{"name":"_contractAddress","type":"address","internalType":"address"},{"name":"_account","type":"address","internalType":"address"}]},{"type":"error","name":"OfferDoesNotExist","inputs":[{"name":"_contractAddress","type":"address","internalType":"address"},{"name":"_tokenId","type":"uint256","internalType":"uint256"},{"name":"_buyer","type":"address","internalType":"address"},{"name":"_currencyAddress","type":"address","internalType":"address"}]},{"type":"error","name":"OfferExpirationInvalid","inputs":[{"name":"_expirationTime","type":"uint256","internalType":"uint256"},{"name":"_currentTime","type":"uint256","internalType":"uint256"}]},{"type":"error","name":"OfferExpired","inputs":[{"name":"_contractAddress","type":"address","internalType":"address"},{"name":"_tokenId","type":"uint256","internalType":"uint256"},{"name":"_buyer","type":"address","internalType":"address"},{"name":"_currencyAddress","type":"address","internalType":"address"},{"name":"_expirationTime","type":"uint256","internalType":"uint256"}]},{"type":"error","name":"OfferPriceCannotBeZero","inputs":[]},{"type":"error","name":"PayoutFailed","inputs":[{"name":"_revertData","type":"bytes","internalType":"bytes"}]},{"type":"error","name":"PayoutLengthMismatch","inputs":[{"name":"_recipientsLength","type":"uint256","internalType":"uint256"},{"name":"_amountsLength","type":"uint256","internalType":"uint256"}]},{"type":"error","name":"PayoutTotalMismatch","inputs":[{"name":"_expectedAmount","type":"uint256","internalType":"uint256"},{"name":"_actualAmount","type":"uint256","internalType":"uint256"}]},{"type":"error","name":"PlatformCommissionExceeded","inputs":[{"name":"_platformCommission","type":"uint256","internalType":"uint256"},{"name":"_maxPlatformCommission","type":"uint256","internalType":"uint256"}]},{"type":"error","name":"PriceMismatch","inputs":[{"name":"_suppliedPrice","type":"uint256","internalType":"uint256"},{"name":"_configuredPrice","type":"uint256","internalType":"uint256"}]},{"type":"error","name":"QuantityCannotBeZero","inputs":[]},{"type":"error","name":"QuantityExceedsOfferQuantity","inputs":[{"name":"_requestedQuantity","type":"uint256","internalType":"uint256"},{"name":"_availableQuantity","type":"uint256","internalType":"uint256"}]},{"type":"error","name":"QuantityExceedsSalePriceQuantity","inputs":[{"name":"_requestedQuantity","type":"uint256","internalType":"uint256"},{"name":"_availableQuantity","type":"uint256","internalType":"uint256"}]},{"type":"error","name":"RefundFailed","inputs":[{"name":"_revertData","type":"bytes","internalType":"bytes"}]},{"type":"error","name":"RoyaltiesExceedSaleAmount","inputs":[{"name":"_royalties","type":"uint256","internalType":"uint256"},{"name":"_saleAmount","type":"uint256","internalType":"uint256"}]},{"type":"error","name":"SaleNotStarted","inputs":[{"name":"_startTime","type":"uint256","internalType":"uint256"}]},{"type":"error","name":"SalePriceCannotBeZero","inputs":[]},{"type":"error","name":"SalePriceDoesNotExist","inputs":[{"name":"_contractAddress","type":"address","internalType":"address"},{"name":"_tokenId","type":"uint256","internalType":"uint256"},{"name":"_seller","type":"address","internalType":"address"}]},{"type":"error","name":"SalePriceExpirationInvalid","inputs":[{"name":"_expirationTime","type":"uint256","internalType":"uint256"},{"name":"_currentTime","type":"uint256","internalType":"uint256"}]},{"type":"error","name":"SalePriceExpired","inputs":[{"name":"_contractAddress","type":"address","internalType":"address"},{"name":"_tokenId","type":"uint256","internalType":"uint256"},{"name":"_seller","type":"address","internalType":"address"},{"name":"_expirationTime","type":"uint256","internalType":"uint256"}]},{"type":"error","name":"SelfOfferAcceptanceUnsupported","inputs":[{"name":"_buyer","type":"address","internalType":"address"}]},{"type":"error","name":"SelfPurchaseUnsupported","inputs":[{"name":"_seller","type":"address","internalType":"address"}]},{"type":"error","name":"SettlementCannotBeZero","inputs":[]},{"type":"error","name":"SettlementDelegateCallFailed","inputs":[{"name":"_revertData","type":"bytes","internalType":"bytes"}]},{"type":"error","name":"SplitLengthMismatch","inputs":[{"name":"_recipientsLength","type":"uint256","internalType":"uint256"},{"name":"_ratiosLength","type":"uint256","internalType":"uint256"}]},{"type":"error","name":"SplitRatioCannotBeZero","inputs":[{"name":"_index","type":"uint256","internalType":"uint256"}]},{"type":"error","name":"SplitRecipientCannotBeZero","inputs":[{"name":"_index","type":"uint256","internalType":"uint256"}]},{"type":"error","name":"SplitRecipientsExceededMax","inputs":[{"name":"_recipientsLength","type":"uint256","internalType":"uint256"},{"name":"_maxRecipients","type":"uint256","internalType":"uint256"}]},{"type":"error","name":"SplitRecipientsRequired","inputs":[]},{"type":"error","name":"SplitTotalInvalid","inputs":[{"name":"_totalRatio","type":"uint256","internalType":"uint256"},{"name":"_requiredTotal","type":"uint256","internalType":"uint256"}]},{"type":"error","name":"StakingFeeExceedsMarketplaceFee","inputs":[{"name":"_marketplaceFee","type":"uint256","internalType":"uint256"},{"name":"_stakingFee","type":"uint256","internalType":"uint256"}]},{"type":"error","name":"TokenIdsNotStrictlyAscending","inputs":[{"name":"index","type":"uint256","internalType":"uint256"},{"name":"previousTokenId","type":"uint256","internalType":"uint256"},{"name":"tokenId","type":"uint256","internalType":"uint256"}]},{"type":"error","name":"TokenNotFound","inputs":[{"name":"_contractAddress","type":"address","internalType":"address"},{"name":"_tokenId","type":"uint256","internalType":"uint256"}]},{"type":"error","name":"TransactionLimitExceeded","inputs":[{"name":"_contractAddress","type":"address","internalType":"address"},{"name":"_tokenId","type":"uint256","internalType":"uint256"},{"name":"_account","type":"address","internalType":"address"},{"name":"_usedTransactions","type":"uint256","internalType":"uint256"},{"name":"_limit","type":"uint256","internalType":"uint256"}]},{"type":"error","name":"UnsupportedCheckoutItemKind","inputs":[{"name":"_itemKind","type":"uint8","internalType":"uint8"}]}],"bytecode":{"object":"0x60a08060405234620000e157306080526000549060ff8260081c166200008f575060ff8082160362000053575b604051615bd69081620000e78239608051818181610ebd0152818161153b01526137970152f35b60ff90811916176000557f7f26b83ff96e1f2b6a682f133852f6798a09c465da95921460cefb3847402498602060405160ff8152a1386200002c565b62461bcd60e51b815260206004820152602760248201527f496e697469616c697a61626c653a20636f6e747261637420697320696e697469604482015266616c697a696e6760c81b6064820152608490fd5b600080fdfe6080604052600436101561001257600080fd5b60003560e01c80630a6ce313146102f75780630b800f48146102f2578063176ab440146102ed57806321ede032146102e857806328fbba03146102e35780632c0c49ee146102de5780632c740844146102d95780632f79f335146102d45780633492e5a8146102cf5780633659cfe6146102ca578063369679a4146102c5578063373a9412146102c05780634f1ef286146102bb57806352d1902d146102b6578063552f791d146102b15780635a501f8f146102ac578063614bd944146102a75780636442950e146102a25780636e2f4d8b1461029d578063715018a6146102985780637777e6d7146102935780637f3582301461028e5780638760251a14610289578063882796f1146102845780638da5cb5b1461027f5780638f4e6f371461027a578063a3eaf4d914610275578063af231a5814610270578063b187bd261461026b578063b38df71f14610266578063b8e6b50f14610261578063be5421411461025c578063bf3d90f814610257578063c7c83d1714610252578063c7ec1b981461024d578063cfdbf25414610248578063d7a9fb7c14610243578063d80b23e31461023e578063defad60c14610239578063e3409ce314610234578063e4e87e3b1461022f578063e92f94d11461022a578063f103574414610225578063f2fde38b14610220578063ff3a52d41461021b5763ff5c83a41461021657600080fd5b6132f6565b612f10565b612e7f565b612dac565b612d86565b612cac565b612b98565b612b62565b612a88565b6129af565b612993565b6128bc565b612886565b612816565b6125bc565b612498565b6120e9565b6120b9565b611fee565b611fd2565b611f6f565b611f46565b611ed7565b611ea8565b611dce565b611c96565b611c38565b611b57565b6119ef565b61174f565b611626565b6115e8565b611528565b6114a2565b611189565b6110b8565b610e96565b610dc0565b610c1a565b610b47565b61096c565b610700565b610603565b610521565b610477565b61036b565b6001600160a01b0381160361030d57565b600080fd5b6101443590610320826102fc565b565b6101643590610320826102fc565b3590610320826102fc565b9181601f8401121561030d578235916001600160401b03831161030d576020808501946060850201011161030d57565b608036600319011261030d57600435610383816102fc565b60243561038f816102fc565b60443561039b816102fc565b6064356001600160401b03811161030d57836103bc8492369060040161033b565b90936103c661461d565b6103ce6154a6565b60408051630a6ce31360e01b6020808301919091526001600160a01b03958616602483015295851660448201529390911660648401526080608484015260a4830182905260c48301949293600091905b83831061044e576104418661043c818a03601f198101835282611405565b615439565b5061044c6001606555565b005b84358752848101358782015284820135878301526060968701969094019360019092019161041e565b3461030d5761018036600319011261030d5761044c600435610498816102fc565b6024356104a4816102fc565b6044356104b0816102fc565b6064356104bc816102fc565b6084356104c8816102fc565b60a4356104d4816102fc565b60c435906104e1826102fc565b60e435926104ee846102fc565b61010435946104fc866102fc565b610124359661050a886102fc565b610512610312565b9861051b610322565b9a613961565b3461030d57602036600319011261030d5760043561053e816102fc565b610546613367565b61054f816155b3565b73__$c98ca6a62396e5a7a1471db151198a1f31$__90813b1561030d5760405163ed56be5b60e01b8152600080516020615ac183398151915260048201526001600160a01b039091166024820181905291600090829060449082905af480156105fe576105e5575b50734d41524b4554504c4143455f53455454494e475360601b600080516020615b21833981519152600080a3005b806105f26105f892611314565b8061151d565b386105b7565b613535565b3461030d57602036600319011261030d57600435610620816102fc565b610628613367565b610631816155f2565b73__$c98ca6a62396e5a7a1471db151198a1f31$__90813b1561030d5760405163143df10960e11b8152600080516020615ac183398151915260048201526001600160a01b039091166024820181905291600090829060449082905af480156105fe576106c1575b506d524f59414c54595f454e47494e4560901b600080516020615b21833981519152600080a3005b806105f26106ce92611314565b38610699565b606090600319011261030d576004356106ec816102fc565b90602435906044356106fd816102fc565b90565b3461030d576020610762610713366106d4565b6001600160a01b0392831660009081527f5e94cc2b8b9fd616c1ffff3497627b534929331e1f3b26d7dc3360464546d50f86526040808220938252928652828120919093168352602052902090565b54604051908152f35b9181601f8401121561030d578235916001600160401b03831161030d576020808501948460051b01011161030d57565b9060068210156107a85752565b634e487b7160e01b600052602160045260246000fd5b60005b8381106107d15750506000910152565b81810151838201526020016107c1565b906020916107fa815180928185528580860191016107be565b601f01601f1916010190565b9060209182815260c09283820191835193845183830152828501516040908184015283818701516060978891828701520151926080938486015201519660a0908180860152885180975260e0918286019487848a60051b8901019b01996000975b8a891061087d5750505050505050505050505090565b909192939495969798999a9b8a806001928f60df19868303018d525190815181526108b0838301518483019060ff169052565b818c01516001600160a01b0316818d01528187015181880152878201516001600160a01b031688820152818901516001600160a01b0316818a0152818a0151818b01528a8201518b8201526101008083015115159082015261091b610120808401519083019061079b565b610140828101516001600160e01b0319169082015261094b61016080840151906101a080918501528301906107e1565b91610180809101519101529e0199019901979a999896959493929190610867565b60208060031936011261030d576004356001600160401b03811161030d5761099890369060040161076b565b90916040918251936109a98561132c565b8351906109b582611347565b600091828152828582015282868201528460609782858a80950152815201526109dc61461d565b6109e46154a6565b84519263160624f760e11b85850152806044850186602487015252606484019260648260051b8601019783825b848410610a5e57610a5a8a610a458b610a388f61043c8e809203601f198101835282611405565b8051810182019101614c63565b90610a506001606555565b5191829182610806565b0390f35b90919293949599606319888203018b52863560fe1984360301811215610b435789610b316001938d610ad5888596019160ff8335610a9b81613fcb565b168452610abb610aac878501610330565b6001600160a01b031685880152565b610ac6818401610330565b6001600160a01b031690840152565b610af2610ae38a8301610330565b6001600160a01b0316838b0152565b6080808201359083015260a0808201359083015260c08082013590830152610b1f60e09182810190614997565b919092610100809282015201916149cb565b9c919091019701959401929190610a11565b8280fd5b3461030d57602036600319011261030d57600435610b64816102fc565b610b6c613367565b610b758161562b565b73__$c98ca6a62396e5a7a1471db151198a1f31$__90813b1561030d5760405163632c2a3160e11b8152600080516020615ac183398151915260048201526001600160a01b039091166024820181905291600090829060449082905af480156105fe57610c07575b506f5354414b494e475f524547495354525960801b600080516020615b21833981519152600080a3005b806105f2610c1492611314565b38610bdd565b3461030d5760408060031936011261030d576004908135610c3a816102fc565b6024356001600160401b03811161030d57610c58903690850161076b565b929093610c6361461d565b610c6c84615a45565b60015b848110610d37575050506001600160a01b03811660005b838110610c975761044c6001606555565b80610ca6610d2c92868861475c565b356002610ce033610cc984610cba8a614182565b90600052602052604060002090565b9060018060a01b0316600052602052604060002090565b015415610d3157610d00610cfb33610cc984610cba8a614182565b61476c565b83337f46227bd805037a939224e05cd991a64cb464f4b5c5317858af210838e59ce390600080a4614081565b610c86565b50614081565b610d4281868861475c565b60001982019035828211610dbb57610d5b82888a61475c565b351015610d715750610d6c90614081565b610c6f565b9286610d8e8388610d87610db79698828661475c565b359361475c565b915163f48f718f60e01b8152938401948552602085015235604084015290918291606090910190565b0390fd5b61406b565b3461030d57602036600319011261030d57600435610ddd816102fc565b610de5613367565b610dee81615666565b73__$c98ca6a62396e5a7a1471db151198a1f31$__90813b1561030d5760405163148282a760e21b8152600080516020615ac183398151915260048201526001600160a01b039091166024820181905291600090829060449082905af480156105fe57610e83575b50724e4554574f524b5f42454e454649434941525960681b600080516020615b21833981519152600080a3005b806105f2610e9092611314565b38610e56565b3461030d57602036600319011261030d57600435610eb3816102fc565b6001600160a01b037f000000000000000000000000000000000000000000000000000000000000000081169190610eec30841415613464565b610f09600080516020615b018339815191529382855416146134c5565b610f11613367565b60405190610f1e826113cf565b600082527f4910fdfa16fed3260ed0e7147f7cc6da11a60208b5b9406d12a635614ffd91435460ff1615610f5857505061044c91506135ee565b6020600491604094939451928380926352d1902d60e01b825286165afa60009181610faf575b50610f9c5760405162461bcd60e51b815280610db76004820161359f565b61044c93610faa9114613541565b61367e565b610fd191925060203d8111610fd8575b610fc98183611405565b810190613526565b9038610f7e565b503d610fbf565b90815180825260208080930193019160005b828110610fff575050505090565b83516001600160a01b031685529381019392810192600101610ff1565b90815180825260208080930193019160005b82811061103c575050505090565b835160ff168552938101939281019260010161102e565b906106fd916020815260018060a01b03825116602082015260208201516040820152604082015160608201526060820151608082015260a06110a3608084015160c08385015260e0840190610fdf565b9201519060c0601f198285030191015261101c565b3461030d57610a5a6111276110cc366106d4565b906040939284916111098351926110e284611362565b606060a0600095868152866020820152868882015286838201528260808201520152614182565b908252602052209060018060a01b0316600052602052604060002090565b9061117a600582519361113985611362565b80546001600160a01b03168552600181015460208601526002810154848601526003810154606086015261116f60048201614cf0565b608086015201614d48565b60a08301525191829182611053565b3461030d5760408060031936011261030d576004356111a7816102fc565b6024356001600160401b03811161030d576111c690369060040161033b565b9190926111d161461d565b6111d96154a6565b6111ea6111e633846159ae565b1590565b6112dd57916111f98185615525565b6001600160a01b0382169060005b8181106112185761044c6001606555565b806112276112d8928489614673565b356112328187615923565b847fa3f36b03a37e1948b5a4d52ddc1d9f62ab7d4e887e3a0a03e0c68d40f6075f3f89896112be86898c6112ab8661129a8b610cba6020958a6112848a8a8a61127c83838c614673565b013598614673565b013561128e611426565b958652878601526141bb565b906020600191805184550151910155565b6112b6838388614673565b013594614673565b8b519283520135602082015280604081015b0390a3614081565b611207565b51600162bed83560e01b0319815291508190610db790339060048401613f8a565b634e487b7160e01b600052604160045260246000fd5b6001600160401b03811161132757604052565b6112fe565b604081019081106001600160401b0382111761132757604052565b608081019081106001600160401b0382111761132757604052565b60c081019081106001600160401b0382111761132757604052565b61014081019081106001600160401b0382111761132757604052565b60e081019081106001600160401b0382111761132757604052565b60a081019081106001600160401b0382111761132757604052565b602081019081106001600160401b0382111761132757604052565b606081019081106001600160401b0382111761132757604052565b90601f801991011681019081106001600160401b0382111761132757604052565b604051906103208261132c565b604051906103208261137d565b60405190610320826113b4565b6040519061032082611399565b6040519061032082611362565b604051906101a082018281106001600160401b0382111761132757604052565b6001600160401b03811161132757601f01601f191660200190565b604036600319011261030d576004356114ba816102fc565b602435906001600160401b03821161030d573660238301121561030d578160040135906114e682611487565b916114f46040519384611405565b808352366024828601011161030d57602081600092602461044c9701838701378401015261378d565b600091031261030d57565b3461030d57600036600319011261030d577f00000000000000000000000000000000000000000000000000000000000000006001600160a01b0316300361158257604051600080516020615b018339815191528152602090f35b60405162461bcd60e51b815260206004820152603860248201527f555550535570677261646561626c653a206d757374206e6f742062652063616c6044820152771b1959081d1a1c9bdd59da0819195b1959d85d1958d85b1b60421b6064820152608490fd5b3461030d57604036600319011261030d5761160d600435611608816102fc565b6141f4565b6024356000526020526020604060002054604051908152f35b3461030d576020610762611639366106d4565b6001600160a01b0392831660009081527f5e94cc2b8b9fd616c1ffff3497627b534929331e1f3b26d7dc3360464546d51186526040808220938252928652828120919093168352602052902090565b81516001600160a01b031681526101408101929161032091906020818101516001600160a01b0316908301526040818101516001600160a01b0316908301526060818101516001600160a01b0316908301526080818101516001600160a01b03169083015260a0818101516001600160a01b03169083015260c0818101516001600160a01b03169083015260e0818101516001600160a01b031690830152610100818101516001600160a01b031690830152610120908101516001600160a01b0316910152565b3461030d5760008060031936011261199457610a5a906119886040516117748161137d565b8281528260208201528260408201528260608201528260808201528260a08201528260c08201528260e0820152610100928084830152610120809201526119576117bc611433565b600080516020615ac1833981519152546001600160a01b0316815293600080516020615ae183398151915254611806906001600160a01b03165b6001600160a01b03166020870152565b7f5e94cc2b8b9fd616c1ffff3497627b534929331e1f3b26d7dc3360464546d502546001600160a01b031660408601527f5e94cc2b8b9fd616c1ffff3497627b534929331e1f3b26d7dc3360464546d503546001600160a01b031660608601527f5e94cc2b8b9fd616c1ffff3497627b534929331e1f3b26d7dc3360464546d504546001600160a01b031660808601527f5e94cc2b8b9fd616c1ffff3497627b534929331e1f3b26d7dc3360464546d505546001600160a01b031660a08601527f5e94cc2b8b9fd616c1ffff3497627b534929331e1f3b26d7dc3360464546d506546001600160a01b031660c08601527f5e94cc2b8b9fd616c1ffff3497627b534929331e1f3b26d7dc3360464546d507546001600160a01b031660e08601527f5e94cc2b8b9fd616c1ffff3497627b534929331e1f3b26d7dc3360464546d508546001600160a01b031690850152565b7f5e94cc2b8b9fd616c1ffff3497627b534929331e1f3b26d7dc3360464546d509546001600160a01b031690830152565b60405191829182611688565b80fd5b604060031982011261030d576004356119af816102fc565b916024356001600160401b039283821161030d578060238301121561030d57816004013593841161030d5760248460061b8301011161030d576024019190565b3461030d576119fd36611997565b611a0892919261461d565b611a106154a6565b611a1d6111e633846159ae565b611ac657611a2b818461556c565b60005b818110611a3f5761044c6001606555565b80611a4e611ac1928487614683565b35611a598186615923565b602080611a6784878a614683565b0135611a7683610cba896141f4565b55611a82838689614683565b60405191013581526001600160a01b038616907f2f2a73977f9734e3b74f4efe888b44cdcca6903d8ab2b5be49c3969cc6cb1b629080602081016112d0565b611a2e565b604051600162bed83560e01b0319815280610db7338560048401613f8a565b906106fd916020815260018060a01b0380835116602083015260208301511660408201526040820151606082015260608201516080820152608082015160a082015260c0611b4260a084015160e083850152610100840190610fdf565b9201519060e0601f198285030191015261101c565b3461030d5760408060031936011261030d5780610a5a91600435611b7a816102fc565b611bb6825191611b8983611399565b606060c0600094858152856020820152858782015285838201528560808201528260a0820152015261422d565b60243582526020522090611c296006825193611bd185611399565b80546001600160a01b031685526001810154611bf5906001600160a01b03166117f6565b6002810154848601526003810154606086015260048101546080860152611c1e60058201614cf0565b60a086015201614d48565b60c08301525191829182611ae5565b3461030d5760008060031936011261199457611c52613367565b603380546001600160a01b0319811690915581906001600160a01b03167f8be0079c531659141344cd1fd0a4f28419497f9722a3daafe3b4186f6b6457e08280a380f35b60608060031936011261030d5760043590611cb0826102fc565b60243590611cbd826102fc565b6044356001600160401b03811161030d57611cdc90369060040161076b565b611ce792919261461d565b611cef6154a6565b60408051637777e6d760e01b6020808301919091526001600160a01b0397881660248301529690951660448601526064850183905260848501829052600582901b850160a490810196916000918701865b858410611d5e576104418961043c818d03601f198101835282611405565b909192939495969860a3198982030183528935607e198336030181121561030d5786611dbc6001938b611dab878596018035845285810135868501528a8101358b85015282810190614997565b9190926080809282015201916149cb565b9b019301940192919695949390611d40565b3461030d57602036600319011261030d57600435611deb816102fc565b611df3613367565b611dfc816156a4565b73__$c98ca6a62396e5a7a1471db151198a1f31$__90813b1561030d576040516362cd1f1560e11b8152600080516020615ac183398151915260048201526001600160a01b039091166024820181905291600090829060449082905af480156105fe57611e95575b507653504143455f4f50455241544f525f524547495354525960481b600080516020615b21833981519152600080a3005b806105f2611ea292611314565b38611e64565b3461030d57604036600319011261030d5761160d600435611ec8816102fc565b614266565b8015150361030d57565b3461030d57602036600319011261030d577fae6fb668d2dacbb6cc6e620b898a7166d67d7838c94ddeff2dbdf55995e9b1926020600435611f1781611ecd565b611f1f613367565b1515600080516020615b6183398151915260ff1981541660ff8316179055604051908152a1005b3461030d57600036600319011261030d576033546040516001600160a01b039091168152602090f35b3461030d57602036600319011261030d57600435611f8c816102fc565b611f94613367565b611f9d816157b8565b611fa6816133bf565b6001600160a01b03166914d1551513115351539560b21b600080516020615b21833981519152600080a3005b3461030d57600036600319011261030d57602060405160328152f35b3461030d57602036600319011261030d5760043561200b816102fc565b612013613367565b61201c816156e6565b73__$c98ca6a62396e5a7a1471db151198a1f31$__90813b1561030d57604051631d1d389760e11b8152600080516020615ac183398151915260048201526001600160a01b039091166024820181905291600090829060449082905af480156105fe576120a6575b50675041594d454e545360c01b600080516020615b21833981519152600080a3005b806105f26120b392611314565b38612084565b3461030d57600036600319011261030d57602060ff600080516020615b6183398151915254166040519015158152f35b60c036600319011261030d576004803590612103826102fc565b6024359160443591612114836102fc565b606435936084359160a4359461212861461d565b6121306154a6565b612139856157da565b73__$11854c5905aa23948096e0e4d7059bb9de$__92833b1561030d57604094855198635e157ccf60e11b8a526000998a8180612178888a8301613fa4565b03818a5af480156105fe57612485575b508015612475578115612465578815158061245b575b61243a576121ac82826142d8565b600080516020615ae1833981519152549098906121d9906001600160a01b03165b6001600160a01b031690565b9860208951809b6361fe24a960e11b825281806121fd868d83019190602083019252565b03915afa998a156105fe578c9a612416575b508961221a916147dc565b988b883b156119945789516338fa83e760e01b8152600080516020615ac18339815191528982019081526001600160a01b0389166020820152604081019c909c529a8b90819060600103818b5af49182156105fe578c9a7ec827db726736dd1c3f5c4643456d97cc22d1613afeae6f8576124e65e8e1bc93612403575b506123976122ca6122c589610cc96122b28b610cba8861429f565b3360009081526020919091526040902090565b6147e9565b9c6123598c886122d8611440565b6001600160a01b038d168152918960208401528201528560608201528260808201526123108b610cc98c610cc93391610cba8b61429f565b815181546001600160a01b0319166001600160a01b0391909116178155906004906080906020810151600185015560408101516002850155606081015160038501550151910155565b8b516001600160a01b038a811682526020820197909752604081019790975260608701939093526080860192909252909216923392819060a0820190565b0390a4602086015193606081880151970151843b156123ff576123cf915197889687958695634c4c261960e01b87523391870161482e565b03915af480156105fe576123ec575b506123e96001606555565b80f35b806105f26123f992611314565b386123de565b8680fd5b806105f261241092611314565b38612297565b61221a919a506124339060203d8111610fd857610fc98183611405565b999061220f565b8651633312a4fd60e21b81528086018a815242602082015281906040010390fd5b504289111561219e565b865163c6b949a960e01b81528590fd5b865163473ae14d60e01b81528590fd5b806105f261249292611314565b38612188565b3461030d5761010036600319011261030d576004356124b6816102fc565b604435906124c3826102fc565b6064356124cf816102fc565b6001600160401b039260c43584811161030d576124f090369060040161076b565b9160e43595861161030d5761250c61044c96369060040161076b565b95909460a4359260843592602435906149ef565b9060a060031983011261030d57600435612539816102fc565b91602435612546816102fc565b91604435916001600160401b039081841161030d578060238501121561030d5783600401359382851161030d578160248660071b8301011161030d57602401939260643583811161030d578261259e9160040161076b565b9390939260843591821161030d576125b89160040161076b565b9091565b3461030d576125ca36612520565b969492939091956125d961461d565b6125e16154a6565b6125ee6111e633886159ae565b6127f7576125fc82856154d1565b73__$11854c5905aa23948096e0e4d7059bb9de$__97883b1561030d57604093845199635e157ccf60e11b8b5260009a8b818061263c8860048301613fa4565b0381855af480156105fe576127e4575b508a813b15611994578284928c8b6126798b51968795869485946376fb859760e01b865260048601613fd6565b03915af480156105fe576127d1575b50895b84811061269d578a6123e96001606555565b8888888888888f888a916126b28a86896140a6565b35976126be898b615923565b8a602087898b84846126d18286856140a6565b0135936126dd926140a6565b0135898c60609586926126ef926140a6565b0135906126fa61144d565b338152926001600160a01b038b1684860152838d01528483015260808201526127243686866140d2565b60a08201528b8d612736368a8a61412a565b60c08401526127449061422d565b6000918252602052604090209061275a9161447b565b6127658d898c6140a6565b0135988c89612775828b856140a6565b013598612781926140a6565b01359651968796339b600160a01b60019003169961279f97896145d7565b037f4c048dfd080dcfa2cccc41ef603e5f0ed6602ca215a41581d653aadf841a560b91a46127cc90614081565b61268b565b806105f26127de92611314565b38612688565b806105f26127f192611314565b3861264c565b604051600162bed83560e01b0319815280610db7338960048401613f8a565b3461030d5760408060031936011261030d57612850600435612837816102fc565b6000602084516128468161132c565b82815201526141bb565b6024356000526020528060002081516128688161132c565b60206001835493848452015491019081528251918252516020820152f35b3461030d57600036600319011261030d57600080516020615b81833981519152546040516001600160a01b039091168152602090f35b3461030d576128ca36611997565b6128d592919261461d565b6128dd6154a6565b6128ea6111e633846159ae565b611ac6576128f8818461556c565b60005b81811061290c5761044c6001606555565b8061291b61298e928487614683565b356129268186615923565b60208061293484878a614683565b013561294383610cba89614266565b5561294f838689614683565b60405191013581526001600160a01b038616907feead0384c6f48c02c0099b2433359d43617492f06d8e3a59cbe786b9970f7e619080602081016112d0565b6128fb565b3461030d57600036600319011261030d576020604051604b8152f35b3461030d57602036600319011261030d576004356129cc816102fc565b6129d4613367565b6129dd81615796565b73__$c98ca6a62396e5a7a1471db151198a1f31$__90813b1561030d576040516328b80cf560e21b8152600080516020615ac183398151915260048201526001600160a01b039091166024820181905291600090829060449082905af480156105fe57612a75575b507522a92199182fa0a8282927ab20a62fa6a0a720a3a2a960511b600080516020615b21833981519152600080a3005b806105f2612a8292611314565b38612a45565b3461030d57602036600319011261030d57600435612aa5816102fc565b612aad613367565b612ab681615796565b73__$c98ca6a62396e5a7a1471db151198a1f31$__90813b1561030d57604051631f1afd0d60e01b8152600080516020615ac183398151915260048201526001600160a01b039091166024820181905291600090829060449082905af480156105fe57612b4f575b507622a9219b9918afa0a8282927ab20a62fa6a0a720a3a2a960491b600080516020615b21833981519152600080a3005b806105f2612b5c92611314565b38612b1e565b3461030d57600036600319011261030d57600080516020615b41833981519152546040516001600160a01b039091168152602090f35b3461030d57608036600319011261030d57610a5a612c0c612c2c600435612bbe816102fc565b610cc9604435612bcd816102fc565b60643592612bda846102fc565b608060409687928351612bec816113b4565b60009381858093528260208201528287820152826060820152015261429f565b6024358252602052209060018060a01b0316600052602052604060002090565b906004815192612c3b846113b4565b60018060a01b038154168452600181015460208501526002810154838501526003810154606085015201546080830152519182918291909160808060a083019460018060a01b0381511684526020810151602085015260408101516040850152606081015160608501520151910152565b3461030d57602036600319011261030d57600435612cc9816102fc565b612cd1613367565b612cda81615719565b73__$c98ca6a62396e5a7a1471db151198a1f31$__90813b1561030d57604051632867932b60e11b8152600080516020615ac183398151915260048201526001600160a01b039091166024820181905291600090829060449082905af480156105fe57612d73575b5076415050524f5645445f544f4b454e5f524547495354525960481b600080516020615b21833981519152600080a3005b806105f2612d8092611314565b38612d42565b3461030d57612da5612d97366106d4565b91612da061461d565b614874565b6001606555005b3461030d57602036600319011261030d57600435612dc9816102fc565b612dd1613367565b612dda8161575b565b73__$c98ca6a62396e5a7a1471db151198a1f31$__90813b1561030d57604051632d8b49e160e11b8152600080516020615ac183398151915260048201526001600160a01b039091166024820181905291600090829060449082905af480156105fe57612e6c575b506f5354414b494e475f53455454494e475360801b600080516020615b21833981519152600080a3005b806105f2612e7992611314565b38612e42565b3461030d57602036600319011261030d57600435612e9c816102fc565b612ea4613367565b6001600160a01b03811615612ebc5761044c9061341b565b60405162461bcd60e51b815260206004820152602660248201527f4f776e61626c653a206e6577206f776e657220697320746865207a65726f206160448201526564647265737360d01b6064820152608490fd5b3461030d57612f1e36612520565b90612f2e9792969395949761461d565b612f366154a6565b612f4088866154d1565b73__$11854c5905aa23948096e0e4d7059bb9de$__3b1561030d57604051635e157ccf60e11b815260008180612f798860048301613fa4565b038173__$11854c5905aa23948096e0e4d7059bb9de$__5af480156105fe576132e3575b5073__$11854c5905aa23948096e0e4d7059bb9de$__3b1561030d576040516376fb859760e01b815260008180612fda86868d8d60048601613fd6565b038173__$11854c5905aa23948096e0e4d7059bb9de$__5af480156105fe576132d0575b50613008836157da565b600080516020615b818339815191525461304c90602090613031906001600160a01b03166121cd565b6040518093819263e985e9c560e01b83523360048401613f8a565b03816001600160a01b0388165afa9081156105fe576000916132a1575b50156132855760005b8881106130835761044c6001606555565b61308e818a886140a6565b35868a60606130bc8560406130b3828660206130ab83838c6140a6565b0135986140a6565b0135938c6140a6565b013582156132735781156132615780151580613257575b61323757604051627eeac760e11b8152336004820152602481018590526020816044816001600160a01b038d165afa9081156105fe57600091613218575b508281106131db57507fe4cf997ce4def583f8220b51e6c89b5dbf6eeded5de4d1d78884a25d2bf46d5d8392896131ce8f8f8c918f97918d926131b78a6131d69f9e9d8e6131b29161317361316461145a565b6001600160a01b039095168552565b60208401528b604084015284606084015261318f3688886140d2565b608084015261319f368a8a61412a565b60a0840152610cc93391610cba8d614182565b6146b3565b60405197889760018060a01b03169b339b896145d7565b0390a4614081565b613072565b604051636906ef1760e11b81523360048201526001600160a01b038a1660248201526044810186905260648101849052608481019190915260a490fd5b613231915060203d602011610fd857610fc98183611405565b38613111565b6040516346a836ff60e11b81526004810191909152426024820152604490fd5b50428111156130d3565b60405163c6b949a960e01b8152600490fd5b6040516331cc996d60e11b8152600490fd5b60405163d65b0d6960e01b815280610db7853360048401613f8a565b6132c3915060203d6020116132c9575b6132bb8183611405565b81019061469e565b38613069565b503d6132b1565b806105f26132dd92611314565b38612ffe565b806105f26132f092611314565b38612f9d565b3461030d57602036600319011261030d57600435613313816102fc565b61331b613367565b61332481615796565b6001600160a01b0316613336816133ed565b7722a92198989a9aafa0a8282927ab20a62fa6a0a720a3a2a960411b600080516020615b21833981519152600080a3005b6033546001600160a01b0316330361337b57565b606460405162461bcd60e51b815260206004820152602060248201527f4f776e61626c653a2063616c6c6572206973206e6f7420746865206f776e65726044820152fd5b600080516020615b4183398151915280546001600160a01b0319166001600160a01b03909216919091179055565b600080516020615b8183398151915280546001600160a01b0319166001600160a01b03909216919091179055565b603380546001600160a01b039283166001600160a01b0319821681179092559091167f8be0079c531659141344cd1fd0a4f28419497f9722a3daafe3b4186f6b6457e0600080a3565b1561346b57565b60405162461bcd60e51b815260206004820152602c60248201527f46756e6374696f6e206d7573742062652063616c6c6564207468726f7567682060448201526b19195b1959d85d1958d85b1b60a21b6064820152608490fd5b156134cc57565b60405162461bcd60e51b815260206004820152602c60248201527f46756e6374696f6e206d7573742062652063616c6c6564207468726f7567682060448201526b6163746976652070726f787960a01b6064820152608490fd5b9081602091031261030d575190565b6040513d6000823e3d90fd5b1561354857565b60405162461bcd60e51b815260206004820152602960248201527f45524331393637557067726164653a20756e737570706f727465642070726f786044820152681a58589b195555525160ba1b6064820152608490fd5b60809060208152602e60208201527f45524331393637557067726164653a206e657720696d706c656d656e7461746960408201526d6f6e206973206e6f74205555505360901b60608201520190565b803b1561362357600080516020615b0183398151915280546001600160a01b0319166001600160a01b03909216919091179055565b60405162461bcd60e51b815260206004820152602d60248201527f455243313936373a206e657720696d706c656d656e746174696f6e206973206e60448201526c1bdd08184818dbdb9d1c9858dd609a1b6064820152608490fd5b90613688826135ee565b6001600160a01b0382167fbc7cd75a20ee27fd9adebab32041f755214dbc6bffa90cc0225b39da2e5c2d3b600080a2805115801590613732575b6136ca575050565b61372f91600080604051936136de856113ea565b602785527f416464726573733a206c6f772d6c6576656c2064656c65676174652063616c6c6020860152660819985a5b195960ca1b6040860152602081519101845af4613729613898565b916138c8565b50565b5060006136c2565b90613744826135ee565b6001600160a01b0382167fbc7cd75a20ee27fd9adebab32041f755214dbc6bffa90cc0225b39da2e5c2d3b600080a2805115801590613785576136ca575050565b5060016136c2565b6001600160a01b037f0000000000000000000000000000000000000000000000000000000000000000811692906137c630851415613464565b6137e3600080516020615b018339815191529482865416146134c5565b6137eb613367565b7f4910fdfa16fed3260ed0e7147f7cc6da11a60208b5b9406d12a635614ffd91435460ff161561382157505061032091506135ee565b6020600491604094939451928380926352d1902d60e01b825286165afa60009181613878575b506138655760405162461bcd60e51b815280610db76004820161359f565b610320936138739114613541565b61373a565b61389191925060203d8111610fd857610fc98183611405565b9038613847565b3d156138c3573d906138a982611487565b916138b76040519384611405565b82523d6000602084013e565b606090565b9192901561392a57508151156138dc575090565b3b156138e55790565b60405162461bcd60e51b815260206004820152601d60248201527f416464726573733a2063616c6c20746f206e6f6e2d636f6e74726163740000006044820152606490fd5b82519091501561393d5750805190602001fd5b60405162461bcd60e51b815260206004820152908190610db79060248301906107e1565b99979593919a98969492909a6000549b60ff8d60081c1615809d819e613a89575b8115613a69575b5015613a0d576139af9b8d6139a6600160ff196000541617600055565b6139f457613d5f565b6139b557565b6139c561ff001960005416600055565b604051600181527f7f26b83ff96e1f2b6a682f133852f6798a09c465da95921460cefb384740249890602090a1565b613a0861010061ff00196000541617600055565b613d5f565b60405162461bcd60e51b815260206004820152602e60248201527f496e697469616c697a61626c653a20636f6e747261637420697320616c72656160448201526d191e481a5b9a5d1a585b1a5e995960921b6064820152608490fd5b303b15915081613a7b575b5038613989565b6001915060ff161438613a74565b600160ff8216109150613982565b5190610320826102fc565b908161014091031261030d57613ab6611433565b90613ac081613a97565b8252613ace60208201613a97565b6020830152613adf60408201613a97565b6040830152613af060608201613a97565b6060830152613b0160808201613a97565b6080830152613b1260a08201613a97565b60a0830152613b2360c08201613a97565b60c0830152613b3460e08201613a97565b60e0830152610100613b47818301613a97565b90830152613b59610120809201613a97565b9082015290565b8051600080516020615ac183398151915280546001600160a01b03199081166001600160a01b03938416179091556020830151600080516020615ae18339815191528054831691841691909117905560408301517f5e94cc2b8b9fd616c1ffff3497627b534929331e1f3b26d7dc3360464546d5028054831691841691909117905560608301517f5e94cc2b8b9fd616c1ffff3497627b534929331e1f3b26d7dc3360464546d5038054831691841691909117905560808301517f5e94cc2b8b9fd616c1ffff3497627b534929331e1f3b26d7dc3360464546d5048054831691841691909117905560a08301517f5e94cc2b8b9fd616c1ffff3497627b534929331e1f3b26d7dc3360464546d5058054831691841691909117905560c08301517f5e94cc2b8b9fd616c1ffff3497627b534929331e1f3b26d7dc3360464546d5068054831691841691909117905560e08301517f5e94cc2b8b9fd616c1ffff3497627b534929331e1f3b26d7dc3360464546d507805483169184169190911790556101008301517f5e94cc2b8b9fd616c1ffff3497627b534929331e1f3b26d7dc3360464546d50880549092169083161790556101209091015161032091167f5e94cc2b8b9fd616c1ffff3497627b534929331e1f3b26d7dc3360464546d50980546001600160a01b0319166001600160a01b03909216919091179055565b93959a9997919a98929498969096613d7685615666565b613d7f886155b3565b613d888c6156a4565b613d91866155f2565b613d9a876156e6565b613da38a615719565b613dac8161575b565b613db58261562b565b613dbe83615796565b613dc784615796565b613dd089615796565b613dd98b6157b8565b60405163ef8c824960e01b81526001600160a01b03958616600482015297851660248901529a841660448801529383166064870152938216608486015295811660a485015296871660c4840152861660e48301528516610104820152919093166101248201526101409283826101448173__$c98ca6a62396e5a7a1471db151198a1f31$__5af49384156105fe57613e9594613e9093613e8292600092613ead575b5050613b60565b6001600160a01b03166133ed565b6133bf565b613e9d613f3a565b613ea5613f6e565b610320613f5d565b613ecc9250803d10613ed3575b613ec48183611405565b810190613aa2565b3880613e7b565b503d613eba565b15613ee157565b60405162461bcd60e51b815260206004820152602b60248201527f496e697469616c697a61626c653a20636f6e7472616374206973206e6f74206960448201526a6e697469616c697a696e6760a81b6064820152608490fd5b613f5460ff60005460081c16613f4f81613eda565b613eda565b6103203361341b565b61032060ff60005460081c16613eda565b613f8360ff60005460081c16613f4f81613eda565b6001606555565b6001600160a01b0391821681529116602082015260400190565b600080516020615ac183398151915281526001600160a01b03909116602082015260400190565b60ff81160361030d57565b909293918060408301604084525260608201939060005b81811061403e57505050808303602091820152818352918201929160005b828110614019575050505090565b90919293828060019260ff883561402f81613fcb565b1681520195019392910161400b565b909193946001908535614050816102fc565b60a083901b8390031681526020908101969501929101613fed565b634e487b7160e01b600052601160045260246000fd5b6000198114610dbb5760010190565b634e487b7160e01b600052603260045260246000fd5b91908110156140b65760071b0190565b614090565b6001600160401b0381116113275760051b60200190565b92916140dd826140bb565b916140eb6040519384611405565b829481845260208094019160051b810192831161030d57905b8282106141115750505050565b838091833561411f816102fc565b815201910190614104565b9291614135826140bb565b916141436040519384611405565b829481845260208094019160051b810192831161030d57905b8282106141695750505050565b838091833561417781613fcb565b81520191019061415c565b6001600160a01b031660009081527f5e94cc2b8b9fd616c1ffff3497627b534929331e1f3b26d7dc3360464546d5126020526040902090565b6001600160a01b031660009081527f5e94cc2b8b9fd616c1ffff3497627b534929331e1f3b26d7dc3360464546d50d6020526040902090565b6001600160a01b031660009081527f5e94cc2b8b9fd616c1ffff3497627b534929331e1f3b26d7dc3360464546d5106020526040902090565b6001600160a01b031660009081527f5e94cc2b8b9fd616c1ffff3497627b534929331e1f3b26d7dc3360464546d50c6020526040902090565b6001600160a01b031660009081527f5e94cc2b8b9fd616c1ffff3497627b534929331e1f3b26d7dc3360464546d50e6020526040902090565b6001600160a01b031660009081527f5e94cc2b8b9fd616c1ffff3497627b534929331e1f3b26d7dc3360464546d5136020526040902090565b81810292918115918404141715610dbb57565b8181106142f6575050565b600081556001016142eb565b90600160401b81116113275781549080835581811061432057505050565b61032092600052602060002091820191016142eb565b90600160401b811161132757815481835580821061435357505050565b61032092600052601f6020600020918180850160051c840194168061437f575b500160051c01906142eb565b600019908186019182549160200360031b1c16905538614373565b9080516001600160401b038111611327576143b58184614336565b6143c9602080930193600052602060002090565b908060051c9260005b8481106144455750601f19821690910390816143f0575b5050505050565b9390600094855b82811061440e5750505050015538808080806143e9565b909192958261443a600192846144258b5160ff1690565b919060ff809160031b9316831b921b19161790565b9701939291016143f7565b6000805b83811061445d5750848201556001016143d2565b9690836144726001928a614425865160ff1690565b92019701614449565b815181546001600160a01b0319166001600160a01b03918216178255909190602082810151600185810180549285166001600160a01b03166001600160a01b03199093169290921790915591604084015160028601556060840151600386015560808401516004860155600585019060a0850151928351936001600160401b03851161132757819061450d8686614302565b0192600052806000209160005b85811061453a575050505050505090600660c0610320930151910161439a565b845182168482015593820193860161451a565b91908082526020809201929160005b82811061456a575050505090565b909192938280600192873561457e816102fc565b848060a01b0316815201950191019291909261455c565b91908082526020809201929160005b8281106145b2575050505090565b90919293828060019260ff88356145c881613fcb565b168152019501939291016145a4565b9694926106fd98969261460f959260018060a01b0316895260208901526040880152606087015260c0608087015260c086019161454d565b9260a0818503910152614595565b60026065541461462e576002606555565b60405162461bcd60e51b815260206004820152601f60248201527f5265656e7472616e637947756172643a207265656e7472616e742063616c6c006044820152606490fd5b91908110156140b6576060020190565b91908110156140b65760061b0190565b519061032082611ecd565b9081602091031261030d57516106fd81611ecd565b815181546001600160a01b0319166001600160a01b039182161782559091906020808301519160019283860155604084015160028601556060840151600386015560048501906080850151928351936001600160401b03851161132757819061471c8686614302565b0192600052806000209160005b858110614749575050505050505090600560a0610320930151910161439a565b8451821684820155938201938601614729565b91908110156140b65760051b0190565b6005600091828155826001820155826002820155826003820155600481018054848255806147c2575b50500190815490808355816147a957505050565b60208161032094601f935220910160051c8101906142eb565b6147d591855260208520908101906142eb565b3880614795565b91908201809211610dbb57565b906040516147f6816113b4565b82546001600160a01b031681526001830154602082015260028301546040820152600383015460608201526004909201546080830152565b600080516020615ac183398151915281526001600160a01b039182166020820152911660408201526060810191909152608081019190915260a081019190915260c00190565b91909161488e6122c583610cc96122b287610cba8761429f565b60408101938451156143e9576148d06148b285610cc933610cc986610cba8a61429f565b60046000918281558260018201558260028201558260038201550155565b60208281018051875160609586018051604080516001600160a01b038c8116825297810195909552840192909252958201529394909391169033907fb00a321de530b83262da5c2b572508a21b98c8d189dba9939e0359e8c9fbfeac90608090a473__$11854c5905aa23948096e0e4d7059bb9de$__90519351915193813b1561030d5760009361497960405196879586948594634c4c261960e01b865233906004870161482e565b03915af480156105fe5761498a5750565b806105f261032092611314565b9035601e198236030181121561030d5701602081359101916001600160401b03821161030d578160051b3603831361030d57565b81835290916001600160fb1b03831161030d5760209260051b809284830137010190565b979396614a7b9561043c98614a68949893614a899c96614a0d61461d565b614a156154a6565b6040519c8d9b8c9363b8e6b50f60e01b6020860152604460018060a01b039586809516602482015201521660648c01521660848a015260a489015260c488015261010060e488015261012487019161454d565b8481036023190161010486015291614595565b03601f198101835282611405565b506103206001606555565b519061032082613fcb565b5190600682101561030d57565b51906001600160e01b03198216820361030d57565b81601f8201121561030d578051614ad781611487565b92614ae56040519485611405565b8184526020828401011161030d576106fd91602080850191016107be565b81601f8201121561030d57805190614b1a826140bb565b92604092614b2a84519586611405565b808552602093848087019260051b8501019383851161030d57858101925b858410614b59575050505050505090565b83516001600160401b039081811161030d578301916101a09283601f19828a03011261030d57614b87611467565b908a8101518252614b99878201614a94565b8b830152606094614bab868301613a97565b88840152608095868301519084015260a095614bc8878401613a97565b9084015260c095614bda878401613a97565b9084015260e095868301519084015261010095868301519084015261012095614c04878401614693565b9084015261014095614c17878401614a9f565b9084015261016095614c2a878401614aac565b90840152610180918281015195861161030d578c96614c4e8c898099850101614ac1565b90850152015190820152815201930192614b48565b9060208282031261030d5781516001600160401b039283821161030d5701908181039260a0841261030d57608060405194614c9d8661132c565b1261030d57604051614cae81611347565b835181526020840151602082015260408401516040820152606084015160608201528452608083015190811161030d57614ce89201614b03565b602082015290565b9060405191828154918282526020928383019160005283600020936000905b828210614d255750505061032092500383611405565b85546001600160a01b031684526001958601958895509381019390910190614d0f565b90604080518093805492614d6f614d63858560209181520190565b92600052602060002090565b9360005b81601f82011061518b57610320955492828210615175575b82821061515b575b828210615141575b828210615127575b82821061510d575b8282106150f3575b8282106150d9575b8282106150bf575b8282106150a8575b50818110615090575b818110615078575b818110615060575b818110615048575b818110615030575b818110615018575b818110615000575b818110614fe8575b818110614fd0575b818110614fb8575b818110614fa0575b818110614f88575b818110614f70575b818110614f58575b818110614f40575b818110614f28575b818110614f10575b818110614ef8575b818110614ee0575b818110614ec8575b818110614eb0575b818110614e98575b10614e8a575b500383611405565b60f81c815260200138614e82565b60f083901c60ff168452926001906020019301614e7c565b60e883901c60ff168452926001906020019301614e74565b60e083901c60ff168452926001906020019301614e6c565b60d883901c60ff168452926001906020019301614e64565b60d083901c60ff168452926001906020019301614e5c565b60c883901c60ff168452926001906020019301614e54565b60c083901c60ff168452926001906020019301614e4c565b60b883901c60ff168452926001906020019301614e44565b60b083901c60ff168452926001906020019301614e3c565b60a883901c60ff168452926001906020019301614e34565b60a083901c60ff168452926001906020019301614e2c565b609883901c60ff168452926001906020019301614e24565b609083901c60ff168452926001906020019301614e1c565b608883901c60ff168452926001906020019301614e14565b608083901c60ff168452926001906020019301614e0c565b607883901c60ff168452926001906020019301614e04565b607083901c60ff168452926001906020019301614dfc565b606883901c60ff168452926001906020019301614df4565b606083901c60ff168452926001906020019301614dec565b605883901c60ff168452926001906020019301614de4565b605083901c60ff168452926001906020019301614ddc565b604883901c60ff168452926001906020019301614dd4565b83901c60ff16845292600190602001930138614dcb565b603884901c60ff1685529093600190602001940190614dc3565b603084901c60ff1685529093600190602001940190614dbb565b602884901c60ff1685529093600190602001940190614db3565b602084811c60ff1686529194909160019101940190614dab565b601884901c60ff1685529093600190602001940190614da3565b601084901c60ff1685529093600190602001940190614d9b565b600884901c60ff1685529093600190602001940190614d93565b60ff841685529093600190602001940190614d8b565b919350916001610400602092615429885461541e60ff6151af8582851660ff169052565b6153f761525c6153a78d615357896153078e6151d48184018a8d60081c1660ff169052565b6151e78584018a8d60101c1660ff169052565b888b610200606095615202878201858560181c1660ff169052565b6152176080958585888501921c1660ff169052565b6152bd60a097615230898401878760281c1660ff169052565b61526d60c09b6152498d8601898960301c1660ff169052565b60e09e8f8601898960381c1660ff169052565b87876101008701921c1660ff169052565b6152826101208401878760481c1660ff169052565b6152976101408401878760501c1660ff169052565b6152ac6101608401878760581c1660ff169052565b85856101808501921c1660ff169052565b6152d26101a08201858560681c1660ff169052565b6152e76101c08201858560701c1660ff169052565b6152fc6101e08201858560781c1660ff169052565b01921c1660ff169052565b61531c6102208c01888b60881c1660ff169052565b6153316102408c01888b60901c1660ff169052565b6153466102608c01888b60981c1660ff169052565b86896102808d01921c1660ff169052565b61536c6102a08a01868960a81c1660ff169052565b6153816102c08a01868960b01c1660ff169052565b6153966102e08a01868960b81c1660ff169052565b84876103008b01921c1660ff169052565b6153bc6103208801848760c81c1660ff169052565b6153d16103408801848760d01c1660ff169052565b6153e66103608801848760d81c1660ff169052565b82856103808901921c1660ff169052565b61540c6103a08601828560e81c1660ff169052565b6103c08501908360f01c1660ff169052565b60f81c6103e0830152565b0195019101918693919492614d73565b600080516020615b4183398151915254815160009283926020909101906001600160a01b03165af4615469613898565b90156154725790565b80511561548157602081519101fd5b604051637dd68d8560e01b815260206004820152908190610db79060248301906107e1565b60ff600080516020615b6183398151915254166154bf57565b60405163ab35696f60e01b8152600490fd5b6154da82615a45565b60015b8281106154e957505050565b600019810190808211610dbb5761551b6155076155209386866140a6565b356155138387876140a6565b359083615a87565b614081565b6154dd565b61552e82615a45565b60015b82811061553d57505050565b600019810190808211610dbb5761551b61555b615567938686614673565b35615513838787614673565b615531565b61557582615a45565b60015b82811061558457505050565b600019810190808211610dbb5761551b6155a26155ae938686614683565b35615513838787614683565b615578565b6001600160a01b0316156155c357565b60405163602d6df560e01b8152734d41524b4554504c4143455f53455454494e475360601b6004820152602490fd5b6001600160a01b03161561560257565b60405163602d6df560e01b81526d524f59414c54595f454e47494e4560901b6004820152602490fd5b6001600160a01b03161561563b57565b60405163602d6df560e01b81526f5354414b494e475f524547495354525960801b6004820152602490fd5b6001600160a01b03161561567657565b60405163602d6df560e01b8152724e4554574f524b5f42454e454649434941525960681b6004820152602490fd5b6001600160a01b0316156156b457565b60405163602d6df560e01b81527653504143455f4f50455241544f525f524547495354525960481b6004820152602490fd5b6001600160a01b0316156156f657565b60405163602d6df560e01b8152675041594d454e545360c01b6004820152602490fd5b6001600160a01b03161561572957565b60405163602d6df560e01b815276415050524f5645445f544f4b454e5f524547495354525960481b6004820152602490fd5b6001600160a01b03161561576b57565b60405163602d6df560e01b81526f5354414b494e475f53455454494e475360801b6004820152602490fd5b6001600160a01b0316156157a657565b60405163c49074af60e01b8152600490fd5b6001600160a01b0316156157c857565b604051634e04f1e560e01b8152600490fd5b803b15801561580d575b6157eb5750565b604051630f20e39960e21b81526001600160a01b039091166004820152602490fd5b5060206000604051828101906301ffc9a760e01b808352602482015260248152615836816113ea565b519084617530fa6000513d8261588a575b5081615880575b5080615870575b80615861575b156157e4565b5061586b816158f3565b61585b565b5061587a81615896565b15615855565b905015153861584e565b60201115915038615847565b6000602091604051838101906301ffc9a760e01b825263ffffffff60e01b6024820152602481526158c6816113ea565b5191617530fa6000513d826158e7575b50816158e0575090565b9050151590565b602011159150386158d6565b6000602091604051838101906301ffc9a760e01b8252636cdb3d1360e11b6024820152602481526158c6816113ea565b6040516001620b695760e21b03198152600481018390526020816024816001600160a01b0386165afa9081156105fe57600091615990575b5015615965575050565b604051632be7c7f360e01b81526001600160a01b039190911660048201526024810191909152604490fd5b6159a8915060203d8111610fd857610fc98183611405565b3861595b565b6000806040516020810190638da5cb5b60e01b8252600481526159d08161132c565b5190845afa906159de613898565b91158015615a3a575b615a18575060208180518101031261030d576020015190615a07826102fc565b6001600160a01b0391821691161490565b60405163915b8f1d60e01b81526001600160a01b039091166004820152602490fd5b5060208251106159e7565b8015615a7557604b8111615a565750565b6044906040519063f80a484560e01b82526004820152604b6024820152fd5b60405163c2e5347d60e01b8152600490fd5b909182811115615a9657505050565b60405163f48f718f60e01b8152600481019290925260248201929092526044810191909152606490fdfe5e94cc2b8b9fd616c1ffff3497627b534929331e1f3b26d7dc3360464546d5005e94cc2b8b9fd616c1ffff3497627b534929331e1f3b26d7dc3360464546d501360894a13ba1a3210667c828492db98dca3e2076cc3735a920a3ca505d382bbc376c367a1420063e9671cc85404673694901b9db2c20dc84b5acbf060f7ee37a5e94cc2b8b9fd616c1ffff3497627b534929331e1f3b26d7dc3360464546d50b5e94cc2b8b9fd616c1ffff3497627b534929331e1f3b26d7dc3360464546d5145e94cc2b8b9fd616c1ffff3497627b534929331e1f3b26d7dc3360464546d50aa264697066735822122006d47f961c8a43f2754a8dddf33fb039c6a2b29a982ed3666039c0b0fe71cd0c64736f6c63430008120033","linkReferences":{"src/marketplace/RareERC1155MarketplacePayments.sol":{"RareERC1155MarketplacePayments":[{"start":8738,"length":20},{"start":9957,"length":20},{"start":12329,"length":20},{"start":12388,"length":20},{"start":12423,"length":20},{"start":12485,"length":20},{"start":18970,"length":20}]},"src/v2/utils/MarketConfigV2.sol":{"MarketConfigV2":[{"start":1592,"length":20},{"start":1818,"length":20},{"start":3166,"length":20},{"start":3799,"length":20},{"start":7909,"length":20},{"start":8453,"length":20},{"start":10950,"length":20},{"start":11167,"length":20},{"start":11715,"length":20},{"start":11971,"length":20},{"start":16178,"length":20}]}}},"methodIdentifiers":{"MAX_BATCH_SIZE()":"cfdbf254","MAX_CHECKOUT_SIZE()":"a3eaf4d9","acceptOffer(address,uint256,address,address,uint256,uint256,address[],uint8[])":"b8e6b50f","buyBatch(address,address,address,(uint256,uint256,uint256)[])":"0a6ce313","cancelOffer(address,uint256,address)":"e92f94d1","cancelSalePrices(address,uint256[])":"2f79f335","checkout((uint8,address,address,address,uint256,uint256,uint256,bytes32[])[])":"2c0c49ee","getDirectSaleConfig(address,uint256)":"6e2f4d8b","getERC1155ApprovalManager()":"c7c83d17","getMarketConfig()":"614bd944","getOffer(address,uint256,address,address)":"e3409ce3","getSalePrice(address,uint256,address)":"369679a4","getSettlement()":"defad60c","getTokenAllowListConfig(address,uint256)":"bf3d90f8","getTokenMintLimit(address,uint256)":"8760251a","getTokenMintsPerAddress(address,uint256,address)":"28fbba03","getTokenTxLimit(address,uint256)":"552f791d","getTokenTxsPerAddress(address,uint256,address)":"5a501f8f","initialize(address,address,address,address,address,address,address,address,address,address,address,address)":"0b800f48","isPaused()":"b187bd26","makeOffer(address,uint256,address,uint256,uint256,uint256)":"b38df71f","mintDirectSaleBatch(address,address,(uint256,uint256,uint256,bytes32[])[])":"7777e6d7","owner()":"8da5cb5b","prepareMintDirectSales(address,address,(uint256,uint256,uint256,uint256)[],address[],uint8[])":"be542141","proxiableUUID()":"52d1902d","renounceOwnership()":"715018a6","setApprovedTokenRegistry(address)":"e4e87e3b","setContractPaused(bool)":"882796f1","setERC1155ApprovalManager(address)":"ff5c83a4","setERC20ApprovalManager(address)":"d7a9fb7c","setERC721ApprovalManager(address)":"d80b23e3","setMarketplaceSettings(address)":"176ab440","setNetworkBeneficiary(address)":"3492e5a8","setPayments(address)":"af231a58","setRoyaltyEngine(address)":"21ede032","setSalePrices(address,address,(uint256,uint256,uint256,uint256)[],address[],uint8[])":"ff3a52d4","setSettlement(address)":"8f4e6f37","setSpaceOperatorRegistry(address)":"7f358230","setStakingRegistry(address)":"2c740844","setStakingSettings(address)":"f1035744","setTokenAllowListConfigs(address,(uint256,bytes32,uint256)[])":"373a9412","setTokenMintLimits(address,(uint256,uint256)[])":"c7ec1b98","setTokenTxLimits(address,(uint256,uint256)[])":"6442950e","transferOwnership(address)":"f2fde38b","upgradeTo(address)":"3659cfe6","upgradeToAndCall(address,bytes)":"4f1ef286"},"id":72}