{"abi":[{"type":"constructor","inputs":[],"stateMutability":"nonpayable"},{"type":"function","name":"OFFER_CANCELATION_DELAY","inputs":[],"outputs":[{"name":"","type":"uint256","internalType":"uint256"}],"stateMutability":"view"},{"type":"function","name":"buyWithMerkleProof","inputs":[{"name":"_originContract","type":"address","internalType":"address"},{"name":"_tokenId","type":"uint256","internalType":"uint256"},{"name":"_currency","type":"address","internalType":"address"},{"name":"_amount","type":"uint256","internalType":"uint256"},{"name":"_creator","type":"address","internalType":"address"},{"name":"_merkleRoot","type":"bytes32","internalType":"bytes32"},{"name":"_proof","type":"bytes32[]","internalType":"bytes32[]"},{"name":"_allowListProof","type":"bytes32[]","internalType":"bytes32[]"}],"outputs":[],"stateMutability":"payable"},{"type":"function","name":"cancelSalePriceMerkleRoot","inputs":[{"name":"_merkleRoot","type":"bytes32","internalType":"bytes32"}],"outputs":[],"stateMutability":"nonpayable"},{"type":"function","name":"creatorRootToConfig","inputs":[{"name":"","type":"address","internalType":"address"},{"name":"","type":"bytes32","internalType":"bytes32"}],"outputs":[{"name":"currency","type":"address","internalType":"address"},{"name":"amount","type":"uint256","internalType":"uint256"},{"name":"nonce","type":"uint256","internalType":"uint256"}],"stateMutability":"view"},{"type":"function","name":"getAllowListConfig","inputs":[{"name":"_creator","type":"address","internalType":"address"},{"name":"_merkleRoot","type":"bytes32","internalType":"bytes32"}],"outputs":[{"name":"","type":"tuple","internalType":"struct IRareBatchListingMarketplace.AllowListConfig","components":[{"name":"root","type":"bytes32","internalType":"bytes32"},{"name":"endTimestamp","type":"uint256","internalType":"uint256"}]}],"stateMutability":"view"},{"type":"function","name":"getCreatorSalePriceMerkleRootNonce","inputs":[{"name":"_user","type":"address","internalType":"address"},{"name":"_root","type":"bytes32","internalType":"bytes32"}],"outputs":[{"name":"","type":"uint256","internalType":"uint256"}],"stateMutability":"view"},{"type":"function","name":"getMerkleSalePriceConfig","inputs":[{"name":"_creator","type":"address","internalType":"address"},{"name":"_root","type":"bytes32","internalType":"bytes32"}],"outputs":[{"name":"","type":"tuple","internalType":"struct IRareBatchListingMarketplace.MerkleSalePriceConfig","components":[{"name":"currency","type":"address","internalType":"address"},{"name":"amount","type":"uint256","internalType":"uint256"},{"name":"splitRecipients","type":"address[]","internalType":"address payable[]"},{"name":"splitRatios","type":"uint8[]","internalType":"uint8[]"},{"name":"nonce","type":"uint256","internalType":"uint256"}]}],"stateMutability":"view"},{"type":"function","name":"getTokenSalePriceNonce","inputs":[{"name":"_creator","type":"address","internalType":"address"},{"name":"_root","type":"bytes32","internalType":"bytes32"},{"name":"_tokenContract","type":"address","internalType":"address"},{"name":"_tokenId","type":"uint256","internalType":"uint256"}],"outputs":[{"name":"","type":"uint256","internalType":"uint256"}],"stateMutability":"view"},{"type":"function","name":"getUserSalePriceMerkleRoots","inputs":[{"name":"_user","type":"address","internalType":"address"}],"outputs":[{"name":"","type":"bytes32[]","internalType":"bytes32[]"}],"stateMutability":"view"},{"type":"function","name":"initialize","inputs":[{"name":"_marketplaceSettings","type":"address","internalType":"address"},{"name":"_royaltyEngine","type":"address","internalType":"address"},{"name":"_spaceOperatorRegistry","type":"address","internalType":"address"},{"name":"_approvedTokenRegistry","type":"address","internalType":"address"},{"name":"_payments","type":"address","internalType":"address"},{"name":"_stakingRegistry","type":"address","internalType":"address"},{"name":"_stakingSettings","type":"address","internalType":"address"},{"name":"_networkBeneficiary","type":"address","internalType":"address"},{"name":"_erc20ApprovalManager","type":"address","internalType":"address"},{"name":"_erc721ApprovalManager","type":"address","internalType":"address"}],"outputs":[],"stateMutability":"nonpayable"},{"type":"function","name":"isTokenInRoot","inputs":[{"name":"_root","type":"bytes32","internalType":"bytes32"},{"name":"_origin","type":"address","internalType":"address"},{"name":"_tokenId","type":"uint256","internalType":"uint256"},{"name":"_proof","type":"bytes32[]","internalType":"bytes32[]"}],"outputs":[{"name":"","type":"bool","internalType":"bool"}],"stateMutability":"pure"},{"type":"function","name":"owner","inputs":[],"outputs":[{"name":"","type":"address","internalType":"address"}],"stateMutability":"view"},{"type":"function","name":"registerSalePriceMerkleRoot","inputs":[{"name":"_merkleRoot","type":"bytes32","internalType":"bytes32"},{"name":"_currency","type":"address","internalType":"address"},{"name":"_amount","type":"uint256","internalType":"uint256"},{"name":"_splitAddresses","type":"address[]","internalType":"address payable[]"},{"name":"_splitRatios","type":"uint8[]","internalType":"uint8[]"}],"outputs":[],"stateMutability":"nonpayable"},{"type":"function","name":"renounceOwnership","inputs":[],"outputs":[],"stateMutability":"nonpayable"},{"type":"function","name":"setAllowListConfig","inputs":[{"name":"_merkleRoot","type":"bytes32","internalType":"bytes32"},{"name":"_allowListRoot","type":"bytes32","internalType":"bytes32"},{"name":"_endTimestamp","type":"uint256","internalType":"uint256"}],"outputs":[],"stateMutability":"nonpayable"},{"type":"function","name":"transferOwnership","inputs":[{"name":"newOwner","type":"address","internalType":"address"}],"outputs":[],"stateMutability":"nonpayable"},{"type":"event","name":"AllowListConfigSet","inputs":[{"name":"creator","type":"address","indexed":true,"internalType":"address"},{"name":"merkleRoot","type":"bytes32","indexed":true,"internalType":"bytes32"},{"name":"allowListRoot","type":"bytes32","indexed":true,"internalType":"bytes32"},{"name":"endTimestamp","type":"uint256","indexed":false,"internalType":"uint256"}],"anonymous":false},{"type":"event","name":"Initialized","inputs":[{"name":"version","type":"uint8","indexed":false,"internalType":"uint8"}],"anonymous":false},{"type":"event","name":"MerkleSalePriceExecuted","inputs":[{"name":"contractAddress","type":"address","indexed":true,"internalType":"address"},{"name":"tokenId","type":"uint256","indexed":true,"internalType":"uint256"},{"name":"buyer","type":"address","indexed":true,"internalType":"address"},{"name":"seller","type":"address","indexed":false,"internalType":"address"},{"name":"currency","type":"address","indexed":false,"internalType":"address"},{"name":"amount","type":"uint256","indexed":false,"internalType":"uint256"},{"name":"merkleRoot","type":"bytes32","indexed":false,"internalType":"bytes32"},{"name":"nonce","type":"uint256","indexed":false,"internalType":"uint256"}],"anonymous":false},{"type":"event","name":"OwnershipTransferred","inputs":[{"name":"previousOwner","type":"address","indexed":true,"internalType":"address"},{"name":"newOwner","type":"address","indexed":true,"internalType":"address"}],"anonymous":false},{"type":"event","name":"SalePriceMerkleRootCancelled","inputs":[{"name":"creator","type":"address","indexed":true,"internalType":"address"},{"name":"merkleRoot","type":"bytes32","indexed":true,"internalType":"bytes32"}],"anonymous":false},{"type":"event","name":"SalePriceMerkleRootRegistered","inputs":[{"name":"creator","type":"address","indexed":true,"internalType":"address"},{"name":"merkleRoot","type":"bytes32","indexed":true,"internalType":"bytes32"},{"name":"currency","type":"address","indexed":false,"internalType":"address"},{"name":"amount","type":"uint256","indexed":false,"internalType":"uint256"},{"name":"nonce","type":"uint256","indexed":false,"internalType":"uint256"}],"anonymous":false}],"bytecode":{"object":"0x60808060405234620000c6576000549060ff8260081c1662000074575060ff8082160362000038575b6040516141ad9081620000cc8239f35b60ff90811916176000557f7f26b83ff96e1f2b6a682f133852f6798a09c465da95921460cefb3847402498602060405160ff8152a13862000028565b62461bcd60e51b815260206004820152602760248201527f496e697469616c697a61626c653a20636f6e747261637420697320696e697469604482015266616c697a696e6760c81b6064820152608490fd5b600080fdfe608080604052600436101561001357600080fd5b600090813560e01c90816309858ef21461363d57508063260d0a2814611f5057806338de3d6514611e59578063453c855814611dab57806345935d18146115c05780635e51b2d41461152b5780636a11a64d146114e8578063715018a61461148a57806375c9c23e146113fc5780638da5cb5b146113d3578063a435bac5146113b7578063bb120e6614611342578063c306b37814610a14578063cae43de6146108a3578063d72a541a146101645763f2fde38b146100d157600080fd5b34610161576020366003190112610161576100ea6136b5565b6100f261373d565b6001600160a01b0381161561010d5761010a90613795565b80f35b60405162461bcd60e51b815260206004820152602660248201527f4f776e61626c653a206e6577206f776e657220697320746865207a65726f206160448201526564647265737360d01b6064820152608490fd5b80fd5b50346101615760403660031901126101615761017e6136b5565b81608060405161018d816137f9565b82815282602082015260606040820152606080820152015260018060a01b0316815260a2602052604081206024358252602052604081206040516101d0816137f9565b60018060a01b03825416815260018201546020820152600282016040518082602082945493848152019087526020872092875b81811061088157505061021892500382613842565b6040820152600382019160405180938491602082549182815201918752602087209087915b81601f8401106106f8579161035d9391600496959354918181106106e4575b8181106106cd575b8181106106b6575b81811061069f575b818110610689575b818110610672575b81811061065b575b818110610644575b81811061062d575b818110610616575b8181106105ff575b8181106105e8575b8181106105d1575b8181106105ba575b8181106105a3575b81811061058c575b818110610575575b81811061055e575b818110610547575b818110610530575b818110610519575b818110610502575b8181106104eb575b8181106104d4575b8181106104bd575b8181106104a6575b81811061048f575b818110610478575b818110610461575b81811061044a575b818110610433575b10610425575b509694960385613842565b606085019384520154608084019081526040519260208452604060c085019560018060a01b03815116602087015260208101518287015201519460a060608601528551809152602060e08601960190845b818110610406575050505191601f1984860301608085015260208084519687815201930190945b8086106103eb5750508293505160a08301520390f35b909260208060019260ff8751168152019401950194906103d5565b82516001600160a01b03168852602097880197909201916001016103ae565b60f81c815260200138610352565b92602060019160ff8560f01c16815201930161034c565b92602060019160ff8560e81c168152019301610344565b92602060019160ff8560e01c16815201930161033c565b92602060019160ff8560d81c168152019301610334565b92602060019160ff8560d01c16815201930161032c565b92602060019160ff8560c81c168152019301610324565b92602060019160ff8560c01c16815201930161031c565b92602060019160ff8560b81c168152019301610314565b92602060019160ff8560b01c16815201930161030c565b92602060019160ff8560a81c168152019301610304565b92602060019160ff8560a01c1681520193016102fc565b92602060019160ff8560981c1681520193016102f4565b92602060019160ff8560901c1681520193016102ec565b92602060019160ff8560881c1681520193016102e4565b92602060019160ff8560801c1681520193016102dc565b92602060019160ff8560781c1681520193016102d4565b92602060019160ff8560701c1681520193016102cc565b92602060019160ff8560681c1681520193016102c4565b92602060019160ff8560601c1681520193016102bc565b92602060019160ff8560581c1681520193016102b4565b92602060019160ff8560501c1681520193016102ac565b92602060019160ff8560481c1681520193016102a4565b92602060019160ff8560401c16815201930161029c565b92602060019160ff8560381c168152019301610294565b92602060019160ff8560301c16815201930161028c565b92602060019160ff8560281c168152019301610284565b92602060019160ff85831c16815201930161027c565b92602060019160ff8560181c168152019301610274565b92602060019160ff8560101c16815201930161026c565b92602060019160ff8560081c168152019301610264565b92602060019160ff8516815201930161025c565b935090916001610400602092865460ff8082168352808260081c1686840152808260101c166040840152808260181c1660608401528082871c166080840152808260a0828260281c1681870152828260c092828260301c16848a0152828260381c1660e08a0152828260401c166101008a0152828260481c166101208a0152828260501c166101408a0152828260581c166101608a0152828260601c166101808a0152828260681c166101a08a0152828260701c166101c08a0152828260781c166101e08a0152828260801c166102008a0152828260881c166102208a0152828260901c166102408a0152828260981c166102608a01521c16610280870152828260a81c166102a0870152828260b01c166102c0870152828260b81c166102e08701521c16610300840152808260c81c16610320840152808260d01c16610340840152808260d81c16610360840152808260e01c16610380840152808260e81c166103a08401528160f01c166103c083015260f81c6103e082015201940192019086939261023d565b84546001600160a01b0316835260019485019486945060209093019201610203565b503461016157602080600319360112610a10576004359033835260a181526108de826040852060019160005201602052604060002054151590565b156109ba5733835260a181526108f782604085206139e4565b5033835260a281526040832082845281526000600460408520858155826001820155600281018054848255806109a1575b505060038101805484825580610982575b5050015533835260a5815260408320908284525260006001604084208281550155337f5a563e5c2e70d79e1f8f6a2a5324344079543abed259428183d7c03d35426a518380a380f35b61099a918552601f868620910160051c810190613924565b3880610939565b6109b391855285852090810190613924565b3880610928565b6084906040519062461bcd60e51b82526004820152602960248201527f63616e63656c53616c6550726963654d65726b6c65526f6f743a3a4e6f74207260448201526837b7ba1037bbb732b960b91b6064820152fd5b5080fd5b50346101615761014036600319011261016157610a2f6136b5565b610a376136f7565b610a3f6136cb565b606435916001600160a01b038316830361133d57610a5b6136e1565b9260a435906001600160a01b038216820361133d5760c435906001600160a01b038216820361133d5760e435956001600160a01b038716870361133d5761010435946001600160a01b038616860361133d5761012435966001600160a01b038816880361133d578a549960ff8b60081c16159a8b809c611330575b8015611319575b156112bd5760ff1981166001178d558b6112ac575b506001600160a01b0381161561124b576001600160a01b038316156111f0576001600160a01b0382161561118d576001600160a01b0385161561112a576001600160a01b038416156110d4576001600160a01b03871615611077576001600160a01b0386161561101a576001600160a01b038a1615610fba576001600160a01b03881615610f58576001600160a01b03891615610ef55760405163ef8c824960e01b81526001600160a01b039a8b166004820152908a16602482015290891660448201529088166064820152908716608482015290861660a482015290851660c482015290841660e48201529083166101048201529116610124820152610140816101448173__$c98ca6a62396e5a7a1471db151198a1f31$__5af4908115610eea578391610d7f575b5060018060a01b03815116906001600160601b0360a01b9182609754161760975560018060a01b0360208201511682609854161760985560018060a01b0360408201511682609954161760995560018060a01b0360608201511682609a541617609a5560018060a01b0360808201511682609b541617609b5560018060a01b0360a08201511682609c541617609c5560018060a01b0360c08201511682609d541617609d5560018060a01b0360e08201511682609e541617609e5560018060a01b036101008201511682609f541617609f5561012060018060a01b03910151169060a054161760a055610d1e60ff835460081c16610d1981613877565b613877565b610d2733613795565b815490610d3d60ff8360081c16610d1981613877565b6001606555610d4a575080f35b61ff00191681557f7f26b83ff96e1f2b6a682f133852f6798a09c465da95921460cefb3847402498602060405160018152a180f35b9050610140813d61014011610ee2575b81610d9d6101409383613842565b81010312610ede576040519061014082018281106001600160401b03821117610ec857604052610dcc81613863565b825260208101516001600160a01b0381168103610ec057602083015260408101516001600160a01b0381168103610ec057604083015260608101516001600160a01b0381168103610ec057606083015260808101516001600160a01b0381168103610ec057608083015260a08101516001600160a01b0381168103610ec05760a083015260c08101516001600160a01b0381168103610ec05760c083015260e08101516001600160a01b0381168103610ec05760e083015261010081810151906001600160a01b0382168203610ec45783015261012090810151906001600160a01b0382168203610ec05782015238610c1c565b8480fd5b8580fd5b634e487b7160e01b600052604160045260246000fd5b8280fd5b3d9150610d8f565b6040513d85823e3d90fd5b60405162461bcd60e51b815260206004820152603560248201527f696e697469616c697a653a3a657263373231417070726f76616c4d616e616765604482015274722063616e6e6f742062652030206164647265737360581b6064820152608490fd5b60405162461bcd60e51b815260206004820152603460248201527f696e697469616c697a653a3a6572633230417070726f76616c4d616e616765726044820152732063616e6e6f742062652030206164647265737360601b6064820152608490fd5b60405162461bcd60e51b815260206004820152603260248201527f696e697469616c697a653a3a6e6574776f726b42656e65666963696172792063604482015271616e6e6f742062652030206164647265737360701b6064820152608490fd5b60405162461bcd60e51b815260206004820152602f60248201527f696e697469616c697a653a3a7374616b696e6753657474696e67732063616e6e60448201526e6f742062652030206164647265737360881b6064820152608490fd5b60405162461bcd60e51b815260206004820152602f60248201527f696e697469616c697a653a3a7374616b696e6752656769737472792063616e6e60448201526e6f742062652030206164647265737360881b6064820152608490fd5b60405162461bcd60e51b815260206004820152602860248201527f696e697469616c697a653a3a7061796d656e74732063616e6e6f742062652030604482015267206164647265737360c01b6064820152608490fd5b60405162461bcd60e51b815260206004820152603560248201527f696e697469616c697a653a3a617070726f766564546f6b656e52656769737472604482015274792063616e6e6f742062652030206164647265737360581b6064820152608490fd5b60405162461bcd60e51b815260206004820152603560248201527f696e697469616c697a653a3a73706163654f70657261746f7252656769737472604482015274792063616e6e6f742062652030206164647265737360581b6064820152608490fd5b60405162461bcd60e51b815260206004820152602d60248201527f696e697469616c697a653a3a726f79616c7479456e67696e652063616e6e6f7460448201526c2062652030206164647265737360981b6064820152608490fd5b60405162461bcd60e51b815260206004820152603360248201527f696e697469616c697a653a3a6d61726b6574706c61636553657474696e67732060448201527263616e6e6f742062652030206164647265737360681b6064820152608490fd5b61ffff1916610101178c5538610af2565b60405162461bcd60e51b815260206004820152602e60248201527f496e697469616c697a61626c653a20636f6e747261637420697320616c72656160448201526d191e481a5b9a5d1a585b1a5e995960921b6064820152608490fd5b50303b158015610add5750600160ff821614610add565b50600160ff821610610ad6565b600080fd5b5034610161576040366003190112610161576001600160a01b0390604090826113696136b5565b16815260a2602052818120602435825260205220908154166113b36004600184015493015460405193849384604091949392606082019560018060a01b0316825260208201520152565b0390f35b5034610161578060031936011261016157602060405160788152f35b50346101615780600319360112610161576033546040516001600160a01b039091168152602090f35b503461016157608036600319011261016157604060209161141b6136b5565b6114696114776114296136cb565b9285519283918883019560643591602435908892606894926001600160601b0319809360601b168552601485015260601b16603483015260488201520190565b03601f198101835282613842565b519020815260a483522054604051908152f35b50346101615780600319360112610161576114a361373d565b603380546001600160a01b031981169091556000906001600160a01b03167f8be0079c531659141344cd1fd0a4f28419497f9722a3daafe3b4186f6b6457e08280a380f35b5034610161576040366003190112610161576020906040906001600160a01b036115106136b5565b16815260a38352818120602435825283522054604051908152f35b5034610161576080366003190112610161576115456136f7565b90606435906001600160401b0382116101615760206115b6846115b161156e366004880161370d565b60405160609490941b6001600160601b03191686850190815260443560148201529193909291906115a28160348401611469565b51902092600435923691613ac0565b613b0e565b6040519015158152f35b50346101615760a0366003190112610161576115da6136f7565b6064356001600160401b038111610ede576115f990369060040161370d565b608480356001600160401b038111610ec45761161990369060040161370d565b916001600160a01b038616158015611d39575b15611cfc57609854604051637cd11f4360e11b81526001600160a01b0390911690602081600481855afa908115611cf1578991611cbf575b5060443511159081611c4d575b5015611bf0578315611b9e5760058411611b5057828403611af95786805b848210611acd576064915003611a7b575033865260a16020526116b760043560408820613969565b5033865260a3602052604086206004358752602052604086205493600185018511611a675733875260a360205260408720600435885260205260018501604088205560405193611706856137f9565b6001600160a01b03871685526044356020860152611723816138fa565b916117316040519384613842565b818352602083019160051b810190368211611a3b57915b818310611a43575050506040840152611760826138fa565b9161176e6040519384613842565b8083526020830191368260051b820111611a3f5780925b8260051b82018410611a215750505050606082015260018201608082015233845260a2602052604084206004358552602052604084209060018060a01b038151166001600160601b0360a01b8354161782556020810151600183015560408101518051906001600160401b038211611a0d57600160401b8211610ec8576020600285019182548484558085106119f0575b500190875260208720875b8381106119d357505050506003820160608201518051906001600160401b0382116119bf57600160401b8211610ec8576020908354838555808410611973575b5001918752602087208160051c91885b8381106119345750601f1981169003806118e8575b5050505060800151600491820155604080516001600160a01b03949094168452604435602085015260019290920191830191909152359033907f6ac61a1aee451307d73de9183ea0a92ddcb00bb73b49d4479e78501e7905f22a90606090a380f35b928893895b818110611904575050500155608060043880611886565b909194602061192a6001928460ff8a5116919060ff809160031b9316831b921b19161790565b96019291016118ed565b898a5b6020811061194c575083820155600101611871565b865190969160019160209160ff60038b901b81811b199092169216901b1792019601611937565b61199f908560005283600020601f80870160051c820192818816806119a5575b500160051c0190613924565b38611861565b60001990818601918254918a0360031b1c16905538611993565b634e487b7160e01b88526041600452602488fd5b82516001600160a01b031681830155602090920191600101611821565b611a07908460005285846000209182019101613924565b38611816565b634e487b7160e01b87526041600452602487fd5b833560ff81168103611a3b57815260209384019301611785565b8980fd5b8780fd5b82356001600160a01b0381168103611a6357815260209283019201611748565b8a80fd5b634e487b7160e01b87526011600452602487fd5b60405162461bcd60e51b815260206004820152602760248201527f636865636b53706c6974733a3a546f74616c206d75737420626520657175616c604482015266020746f203130360cc1b6064820152fd5b8160051b8401359060ff8216809203611a3b57611af391611aed916138d7565b91613b6b565b9061168f565b60405162461bcd60e51b815260206004820152602c60248201527f636865636b53706c6974733a3a53706c69747320616e6420726174696f73206d60448201526b1d5cdd08189948195c5d585b60a21b6064820152fd5b60405162461bcd60e51b8152602060048201526024808201527f636865636b53706c6974733a3a53706c6974206578636565646564206d61782060448201526373697a6560e01b6064820152fd5b60405162461bcd60e51b815260206004820152602760248201527f636865636b53706c6974733a3a4d7573742068617665206174206c65617374206044820152660c481cdc1b1a5d60ca1b6064820152fd5b60405162461bcd60e51b815260206004820152603260248201527f726567697374657253616c6550726963654d65726b6c65526f6f743a3a416d6f604482015271756e74206f75747369646520626f756e647360701b6064820152fd5b604051635c1b40f160e01b81529150602090829060049082905afa908115611cb4578891611c82575b50604435101538611671565b90506020813d602011611cac575b81611c9d60209383613842565b8101031261133d575138611c76565b3d9150611c90565b6040513d8a823e3d90fd5b90506020813d602011611ce9575b81611cda60209383613842565b8101031261133d575138611664565b3d9150611ccd565b6040513d8b823e3d90fd5b60405162461bcd60e51b81526020600482015260156024820152744e6f7420617070726f7665642063757272656e637960581b6044820152606490fd5b50609c54604051632d5ad3d560e01b81526001600160a01b038881166004830152909160209183916024918391165afa908115611cb4578891611d7d575b5061162c565b611d9e915060203d8111611da4575b611d968183613842565b810190613bab565b38611d77565b503d611d8c565b503461016157602080600319360112610a10576001600160a01b03611dce6136b5565b16825260a181526040822060405192838383549182815201908193835284832090835b818110611e455750505084611e07910385613842565b60405193838594850191818652518092526040850193925b828110611e2e57505050500390f35b835185528695509381019392810192600101611e1f565b825484529286019260019283019201611df1565b50346101615760603660031901126101615760043560243590604435338452602060a18152611e9b836040872060019160005201602052604060002054151590565b15611f01577f178cf25b1579b19d34c1cfd3a48dd226c6a7581eafae97981c97ab9c64d9957890604051611ece816137de565b858152600182820185815233895260a5845260408920878a5284526040892092518355519101556040519283523392a480f35b6084906040519062461bcd60e51b82526004820152602260248201527f736574416c6c6f774c697374436f6e6669673a3a4e6f7420726f6f74206f776e60448201526132b960f11b6064820152fd5b5061010036600319011261016157611f666136b5565b611f6e6136cb565b91611f776136e1565b9260c4356001600160401b038111610ede57611f9790369060040161370d565b60e4356001600160401b038111610ec057611fb690369060040161370d565b9190926002606554146135f8576002606555604051606088901b6001600160601b03191660208201908152602435603483015261200f93916115b191906120008160548101611469565b5190209260a435923691613ac0565b156135a25760018060a01b038616845260a160205261204360a4356040862060019160005201602052604060002054151590565b156135465760018060a01b038616845260a56020526040842060a4358552602052604084209060405191612076836137de565b6001815491828552015490816020850152613455575b5050505060018060a01b038416825260a26020526040822060a43583526020526040822090604051916120be836137f9565b60018060a01b03815416835260018101546020840152600281016040518082602082945493848152019088526020882092885b81811061343357505061210692500382613842565b604084015260405190816003820192602084549182815201938752602087209087915b81601f8401106132a957946122459284926004975491818110613295575b81811061327e575b818110613267575b818110613250575b81811061323a575b818110613223575b81811061320c575b8181106131f5575b8181106131de575b8181106131c7575b8181106131b0575b818110613199575b818110613182575b81811061316b575b818110613154575b81811061313d575b818110613126575b81811061310f575b8181106130f8575b8181106130e1575b8181106130ca575b8181106130b3575b81811061309c575b818110613085575b81811061306e575b818110613057575b818110613040575b818110613029575b818110613012575b818110612ffb575b818110612fe4575b10612fd6575b500382613842565b60608501520154608083015281516001600160a01b03908116911603612f8357606435602082015103612f3257604051606085811b6001600160601b03199081166020840190815260a43560348501529186901b1660548301526024356068830152906122b58160888101611469565b5190209360018060a01b038116835260a36020526040832060a435845260205260408320549480845260a46020528560408520541015612ec7576040516331a9108f60e11b81526024803560048301526020908290816001600160a01b038a165afa908115612e31578591612e8d575b506001600160a01b03838116911603612e3c5760a05460405163e985e9c560e01b81526001600160a01b038481166004830152918216602482015290602090829060449082908a165afa908115612e31578591612e12575b5015612dcd576020838101516098546040516361fe24a960e11b815260048101839052919290829060249082906001600160a01b03165afa908115612dc2578691612d8e575b506123d1906123e1926138d7565b84516001600160a01b0316613bc3565b835260a46020526040832085905560a0546001600160a01b0316803b1561299757604051630aed65f560e11b81526001600160a01b03868116600483015283166024808301919091523360448301523560648201529084908290608490829084905af18015612d8357612d70575b5060018060a01b03825116916020810151946040820151926060830151918451835103612d0f576098546040516361fe24a960e11b8152600481018a90528991602090829060249082906001600160a01b03165afa908115611cf1578991612cdd575b50604051906124c082613827565b6002825260403660208401376097546001600160a01b0316806124e284613b7a565b52609e5460405163e286ef3360e01b81526001600160a01b038881166004830152909160209183916024918391165afa908115612be7578c91612c9f575b506001600160a01b031661253384613b87565b526001600160a01b0361254584613b87565b5116612c86575b61255583613b87565b6001600160a01b03909116905260405161256e81613827565b600281526040366020830137609d546040516303fdde1160e21b8152600481018690526001600160a01b0390911690602081602481855afa908115612c7b578d91612c48575b506024916020916125c485613b7a565b526040519283809263470d6ed960e11b82528960048301525afa908115612be7579084918d91612c11575b5092612605936125fe84613b87565b528b613eae565b609854604051631446f21360e21b81526001600160a01b038581166004830152602480359083015290911690602081604481855afa908115612afe57908b9695949392918791612bf2575b501561299b575b5050609a54604051637a99dc0160e11b81526001600160a01b038481166004830152602480359083015260448201939093529985928b921690829081606481015b03925af1998a15610eea578398849b61284e575b50839884995b8c518b10156126e0576126d46126da916126cd8f8e90613b97565b51906138d7565b9a613b6b565b996126b2565b96979899508b6126fb916126f4898e6139d7565b988c613eae565b845196612707886138fa565b97612715604051998a613842565b808952612724601f19916138fa565b013660208a0137845b86518110156127695780606461275360ff61274b612764958c613b97565b51168b613911565b0461275e828c613b97565b52613b6b565b61272d565b50612776888a898d613eae565b60985485906001600160a01b0316803b15610a1057604051635a3c652d60e01b81526001600160a01b03861660048201526024803590820152600160448201529082908290606490829084905af161283a575b5050602060018060a01b03825116910151906040519460018060a01b031685526020850152604084015260a4356060840152608083015233917ff1e2baf65bd30ecb770e2b9edd169e21873da910d77d627560c94603f0ad6baf60a060243593600180831b031692a4600160655580f35b61284390613814565b610ec05784866127c9565b985099503d978884823e6128628982613842565b6040818a81010312612997578051906001600160401b038211610ec057898101601f838301011215610ec057818101519161289c836138fa565b926128aa6040519485613842565b80845260208401918c840160208360051b838701010111611a3f57602081850101925b60208360051b8387010101841061297757505050506020810151996001600160401b038b11610ec457808201601f8c8401011215610ec4578a82015191612913836138fa565b9b6129216040519d8e613842565b838d5260208d0192820160208560051b838501010111611a3f579190602083820101925b60208560051b828401010184106129635750505050509799386126ac565b602080809486518152019401939250612945565b83516001600160a01b0381168103611a3b578152602093840193016128cd565b8380fd5b909192939450604051906129ae826137de565b6001825260203681840137604051926129c6846137de565b60018452602036818601376001600160a01b03906129e390613b7a565b51166129ee84613b7a565b52609954604051635dc22eff60e01b81526001600160a01b038881166004830152909160209183916024918391165afa908115612be7578c91612bc8575b5015612b095750609954604051632260494f60e01b81526001600160a01b038781166004830152909160209183916024918391165afa908115612afe579160ff8c97969593928895938691612acf575b50169c612a898e85613911565b60649004612a96916139d7565b9c612aa19084613911565b60649004612aae82613b7a565b52612ab881613b7a565b5191612ac4928c613eae565b612698905b91612657565b612af1915060203d602011612af7575b612ae98183613842565b810190613e0d565b38612a7c565b503d612adf565b6040513d8d823e3d90fd5b60405163b28a7bad60e01b81526001600160a01b0386166004820152919b50602090829060249082905afa908115612bbd579160ff8b9695949287948591612b9e575b50169b612b598d84613911565b60649004612b6790846139d7565b9c612b729084613911565b60649004612b7f82613b7a565b52612b8981613b7a565b5191612b95928c613eae565b61269890612ac9565b612bb7915060203d602011612af757612ae98183613842565b38612b4c565b6040513d8c823e3d90fd5b612be1915060203d602011611da457611d968183613842565b38612a2c565b6040513d8e823e3d90fd5b612c0b915060203d602011611da457611d968183613842565b38612650565b9150506020813d602011612c40575b81612c2d60209383613842565b8101031261133d575183906126056125ef565b3d9150612c20565b90506020813d602011612c73575b81612c6360209383613842565b8101031261133d575160246125b4565b3d9150612c56565b6040513d8f823e3d90fd5b506001600160a01b03612c9883613b87565b511661254c565b90506020813d602011612cd5575b81612cba60209383613842565b81010312612cd157612ccb90613863565b38612520565b8b80fd5b3d9150612cad565b90506020813d602011612d07575b81612cf860209383613842565b8101031261133d5751386124b2565b3d9150612ceb565b60405162461bcd60e51b815260206004820152603360248201527f4e756d626572206f662073706c69742061646472657373657320616e642072616044820152723a34b7b99036bab9ba1031329032b8bab0b61760691b6064820152608490fd5b612d7c90939193613814565b913861244f565b6040513d86823e3d90fd5b90506020813d602011612dba575b81612da960209383613842565b81010312610ec457516123e16123c3565b3d9150612d9c565b6040513d88823e3d90fd5b60405162461bcd60e51b815260206004820152601e60248201527f6f776e6572206d757374206861766520617070726f76656420746f6b656e00006044820152606490fd5b612e2b915060203d602011611da457611d968183613842565b3861237d565b6040513d87823e3d90fd5b60405162461bcd60e51b815260206004820152602360248201527f627579576974684d65726b6c6550726f6f663a3a4e6f7420746f6b656e206f776044820152623732b960e91b6064820152608490fd5b90506020813d602011612ebf575b81612ea860209383613842565b81010312610ec057612eb990613863565b38612325565b3d9150612e9b565b60405162461bcd60e51b815260206004820152603b60248201527f627579576974684d65726b6c6550726f6f663a3a546f6b656e20616c7265616460448201527f79207573656420666f722074686973204d65726b6c6520726f6f7400000000006064820152608490fd5b60405162461bcd60e51b815260206004820152602360248201527f627579576974684d65726b6c6550726f6f663a3a416d6f756e74206d69736d616044820152620e8c6d60eb1b6064820152608490fd5b60405162461bcd60e51b815260206004820152602560248201527f627579576974684d65726b6c6550726f6f663a3a43757272656e6379206d69736044820152640dac2e8c6d60db1b6064820152608490fd5b60f81c81526020013861223d565b92602060019160ff8560f01c168152019301612237565b92602060019160ff8560e81c16815201930161222f565b92602060019160ff8560e01c168152019301612227565b92602060019160ff8560d81c16815201930161221f565b92602060019160ff8560d01c168152019301612217565b92602060019160ff8560c81c16815201930161220f565b92602060019160ff8560c01c168152019301612207565b92602060019160ff8560b81c1681520193016121ff565b92602060019160ff8560b01c1681520193016121f7565b92602060019160ff8560a81c1681520193016121ef565b92602060019160ff8560a01c1681520193016121e7565b92602060019160ff8560981c1681520193016121df565b92602060019160ff8560901c1681520193016121d7565b92602060019160ff8560881c1681520193016121cf565b92602060019160ff8560801c1681520193016121c7565b92602060019160ff8560781c1681520193016121bf565b92602060019160ff8560701c1681520193016121b7565b92602060019160ff8560681c1681520193016121af565b92602060019160ff8560601c1681520193016121a7565b92602060019160ff8560581c16815201930161219f565b92602060019160ff8560501c168152019301612197565b92602060019160ff8560481c16815201930161218f565b92602060019160ff8560401c168152019301612187565b92602060019160ff8560381c16815201930161217f565b92602060019160ff8560301c168152019301612177565b92602060019160ff8560281c16815201930161216f565b92602060019160ff85831c168152019301612167565b92602060019160ff8560181c16815201930161215f565b92602060019160ff8560101c168152019301612157565b92602060019160ff8560081c16815201930161214f565b92602060019160ff85168152019301612147565b9293946001610400602092865460ff8082168352808260081c1686840152808260101c16604084015280828482826060828260181c168185015282826080828f83901c1681880152828260a095828260281c16878b015260c099838360301c168b820152838360381c1660e0820152838360401c16610100820152838360481c16610120820152838360501c16610140820152610160848460581c169101521c166101808d0152828260681c166101a08d0152828260701c166101c08d0152828260781c166101e08d01521c166102008a0152828260881c166102208a0152828260901c166102408a0152828260981c166102608a01521c16610280870152828260a81c166102a0870152828260b01c166102c0870152828260b81c166102e08701521c16610300840152808260c81c16610320840152808260d01c16610340840152808260d81c16610360840152808260e01c16610380840152808260e81c166103a08401528160f01c166103c083015260f81c6103e082015201940192019194939294612129565b84546001600160a01b03168352600194850194869450602090930192016120f1565b4210156134ea576115b161348b9360405160208101903360601b82526014815261347e816137de565b5190209351923691613ac0565b15613499573880808061208c565b60405162461bcd60e51b8152602060048201526024808201527f627579576974684d65726b6c6550726f6f663a3a4e6f74206f6e20616c6c6f776044820152631b1a5cdd60e21b6064820152608490fd5b60405162461bcd60e51b815260206004820152602e60248201527f627579576974684d65726b6c6550726f6f663a3a416c6c6f776c69737420706560448201526d1c9a5bd9081a185cc8195b99195960921b6064820152608490fd5b60405162461bcd60e51b815260206004820152602e60248201527f627579576974684d65726b6c6550726f6f663a3a4d65726b6c6520726f6f742060448201526d1b9bdd081c9959da5cdd195c995960921b6064820152608490fd5b60405162461bcd60e51b815260206004820152602860248201527f627579576974684d65726b6c6550726f6f663a3a496e76616c6964204d65726b604482015267363290383937b7b360c11b6064820152608490fd5b60405162461bcd60e51b815260206004820152601f60248201527f5265656e7472616e637947756172643a207265656e7472616e742063616c6c006044820152606490fd5b905034610a10576040366003190112610a105760408281928160206136606136b5565b9261366a816137de565b82815201526001600160a01b0316815260a5602090815282822060243583529052208151613697816137de565b60206001835493848452015491019081528251918252516020820152f35b600435906001600160a01b038216820361133d57565b604435906001600160a01b038216820361133d57565b608435906001600160a01b038216820361133d57565b602435906001600160a01b038216820361133d57565b9181601f8401121561133d578235916001600160401b03831161133d576020808501948460051b01011161133d57565b6033546001600160a01b0316330361375157565b606460405162461bcd60e51b815260206004820152602060248201527f4f776e61626c653a2063616c6c6572206973206e6f7420746865206f776e65726044820152fd5b603380546001600160a01b039283166001600160a01b0319821681179092559091167f8be0079c531659141344cd1fd0a4f28419497f9722a3daafe3b4186f6b6457e0600080a3565b604081019081106001600160401b03821117610ec857604052565b60a081019081106001600160401b03821117610ec857604052565b6001600160401b038111610ec857604052565b606081019081106001600160401b03821117610ec857604052565b90601f801991011681019081106001600160401b03821117610ec857604052565b51906001600160a01b038216820361133d57565b1561387e57565b60405162461bcd60e51b815260206004820152602b60248201527f496e697469616c697a61626c653a20636f6e7472616374206973206e6f74206960448201526a6e697469616c697a696e6760a81b6064820152608490fd5b919082018092116138e457565b634e487b7160e01b600052601160045260246000fd5b6001600160401b038111610ec85760051b60200190565b818102929181159184041417156138e457565b81811061392f575050565b60008155600101613924565b80548210156139535760005260206000200190600090565b634e487b7160e01b600052603260045260246000fd5b60008281526001820160205260409020546139d057805490600160401b821015610ec857826139b96139a284600180960185558461393b565b819391549060031b91821b91600019901b19161790565b905580549260005201602052604060002055600190565b5050600090565b919082039182116138e457565b90600182019060009281845282602052604084205490811515600014613ab95760001991808301818111611a6757825490848201918211613aa557808203613a70575b50505080548015613a5c57820191613a3f838361393b565b909182549160031b1b191690555582526020526040812055600190565b634e487b7160e01b86526031600452602486fd5b613a90613a806139a2938661393b565b90549060031b1c9283928661393b565b90558652846020526040862055388080613a27565b634e487b7160e01b88526011600452602488fd5b5050505090565b9291613acb826138fa565b91613ad96040519384613842565b829481845260208094019160051b810192831161133d57905b828210613aff5750505050565b81358152908301908301613af2565b929091906000915b8451831015613b6357613b298386613b97565b5190600082821015613b515750600052602052613b4b60406000205b92613b6b565b91613b16565b604091613b4b93825260205220613b45565b915092501490565b60001981146138e45760010190565b8051156139535760200190565b8051600110156139535760400190565b80518210156139535760209160051b010190565b9081602091031261133d5751801515810361133d5790565b6001600160a01b0391600091838116908115613dc55734613d6f576040938451916370a0823160e01b908184523060048501526020978885602481895afa948515613d65578495613d36575b50609f541690813b15612997578751630aed65f560e11b81526001600160a01b03919091166004820152336024820152306044820152606481018790529083908290608490829084905af18015613d2c5790889291613d19575b50602487518096819382523060048301525afa908115613d0e5790613cdf575b613c9392506139d7565b03613c9c575050565b60649250519062461bcd60e51b82526004820152601c60248201527f6e6f7420656e6f75676820746f6b656e73207472616e736665726564000000006044820152fd5b508482813d8311613d07575b613cf58183613842565b8101031261133d57613c939151613c89565b503d613ceb565b8551903d90823e3d90fd5b613d2590939193613814565b9138613c69565b87513d85823e3d90fd5b9094508881813d8311613d5e575b613d4e8183613842565b8101031261299757519338613c0f565b503d613d44565b88513d86823e3d90fd5b60405162461bcd60e51b815260206004820152602860248201527f6d73672e76616c75652073686f756c642062652030207768656e206e6f7420756044820152670e6d2dcce40cae8d60c31b6064820152608490fd5b50509150503403613dd257565b60405162461bcd60e51b81526020600482015260136024820152721b9bdd08195b9bdd59da08195d1a081cd95b9d606a1b6044820152606490fd5b9081602091031261133d575160ff8116810361133d5790565b3d15613e60573d906001600160401b038211610ec85760405191613e54601f8201601f191660200184613842565b82523d6000602084013e565b606090565b6020808252825181830181905290939260005b828110613e9a57505060409293506000838284010152601f8019910116010190565b818101860151848201604001528501613e78565b9192916001600160a01b039081169182156140195750600093845b81518110156140115782613edd8284613b97565b5116613ee98287613b97565b516040805163a9059cbb60e01b60208083019182526001600160a01b0395909516602480840191909152604480840195909552938252613f7c91908b908190613f33606485613842565b855193613f3f856137de565b8885527f5361666545524332303a206c6f772d6c6576656c2063616c6c206661696c6564898601525190828d5af1613f75613e26565b908a614102565b805190848215928315613ff9575b50505015613fa357505050613f9e90613b6b565b613ec9565b5162461bcd60e51b81526004810192909252602a908201527f5361666545524332303a204552433230206f7065726174696f6e20646964206e6044820152691bdd081cdd58d8d9595960b21b6064820152608490fd5b6140099350820181019101613bab565b388481613f8a565b505050505050565b9150919282609b541693604051916020908184019563c176e63960e01b87526064850160406024870152825180915283608487019301916000905b8282106140e9575050505083810360231901604485015282518082529082019282019160005b8281106140d5575050505091816140a0600096949387969403601f198101835282613842565b51925af16140ac613e26565b90156140b55750565b60405162461bcd60e51b81529081906140d19060048301613e65565b0390fd5b83518552938101939281019260010161407a565b8351811685529385019392850192600190910190614054565b919290156141645750815115614116575090565b3b1561411f5790565b60405162461bcd60e51b815260206004820152601d60248201527f416464726573733a2063616c6c20746f206e6f6e2d636f6e74726163740000006044820152606490fd5b8251909150156140b55750805190602001fdfea26469706673582212200cd2a18e145f713374619fd3b120f29bae345cd04afd1c0ef89e627881f149e764736f6c63430008120033","linkReferences":{"src/v2/utils/MarketConfigV2.sol":{"MarketConfigV2":[{"start":3269,"length":20}]}}},"methodIdentifiers":{"OFFER_CANCELATION_DELAY()":"a435bac5","buyWithMerkleProof(address,uint256,address,uint256,address,bytes32,bytes32[],bytes32[])":"260d0a28","cancelSalePriceMerkleRoot(bytes32)":"cae43de6","creatorRootToConfig(address,bytes32)":"bb120e66","getAllowListConfig(address,bytes32)":"09858ef2","getCreatorSalePriceMerkleRootNonce(address,bytes32)":"6a11a64d","getMerkleSalePriceConfig(address,bytes32)":"d72a541a","getTokenSalePriceNonce(address,bytes32,address,uint256)":"75c9c23e","getUserSalePriceMerkleRoots(address)":"453c8558","initialize(address,address,address,address,address,address,address,address,address,address)":"c306b378","isTokenInRoot(bytes32,address,uint256,bytes32[])":"5e51b2d4","owner()":"8da5cb5b","registerSalePriceMerkleRoot(bytes32,address,uint256,address[],uint8[])":"45935d18","renounceOwnership()":"715018a6","setAllowListConfig(bytes32,bytes32,uint256)":"38de3d65","transferOwnership(address)":"f2fde38b"},"id":66}