{"abi":[{"type":"constructor","inputs":[],"stateMutability":"nonpayable"},{"type":"function","name":"createRareERC1155Contract","inputs":[{"name":"_name","type":"string","internalType":"string"},{"name":"_symbol","type":"string","internalType":"string"},{"name":"_baseURI","type":"string","internalType":"string"}],"outputs":[{"name":"","type":"address","internalType":"address"}],"stateMutability":"nonpayable"},{"type":"function","name":"defaultMinter","inputs":[],"outputs":[{"name":"","type":"address","internalType":"address"}],"stateMutability":"view"},{"type":"function","name":"owner","inputs":[],"outputs":[{"name":"","type":"address","internalType":"address"}],"stateMutability":"view"},{"type":"function","name":"rareERC1155","inputs":[],"outputs":[{"name":"","type":"address","internalType":"address"}],"stateMutability":"view"},{"type":"function","name":"renounceOwnership","inputs":[],"outputs":[],"stateMutability":"nonpayable"},{"type":"function","name":"setDefaultMinter","inputs":[{"name":"_defaultMinter","type":"address","internalType":"address"}],"outputs":[],"stateMutability":"nonpayable"},{"type":"function","name":"setRareERC1155","inputs":[{"name":"_rareERC1155","type":"address","internalType":"address"}],"outputs":[],"stateMutability":"nonpayable"},{"type":"function","name":"transferOwnership","inputs":[{"name":"newOwner","type":"address","internalType":"address"}],"outputs":[],"stateMutability":"nonpayable"},{"type":"event","name":"DefaultMinterUpdated","inputs":[{"name":"defaultMinter","type":"address","indexed":true,"internalType":"address"}],"anonymous":false},{"type":"event","name":"OwnershipTransferred","inputs":[{"name":"previousOwner","type":"address","indexed":true,"internalType":"address"},{"name":"newOwner","type":"address","indexed":true,"internalType":"address"}],"anonymous":false},{"type":"event","name":"RareERC1155ContractCreated","inputs":[{"name":"contractAddress","type":"address","indexed":true,"internalType":"address"},{"name":"owner","type":"address","indexed":true,"internalType":"address"}],"anonymous":false},{"type":"event","name":"RareERC1155Updated","inputs":[{"name":"rareERC1155","type":"address","indexed":true,"internalType":"address"}],"anonymous":false},{"type":"error","name":"ZeroAddressUnsupported","inputs":[]}],"bytecode":{"object":"0x608080604052346100b95760008054336001600160a01b031980831682178455936001600160a01b03939290919084167f8be0079c531659141344cd1fd0a4f28419497f9722a3daafe3b4186f6b6457e08480a361301f818101906001600160401b038211838310176100a5579082916106a08339039082f09081156100995750169060015416176001556040516105e190816100bf8239f35b604051903d90823e3d90fd5b634e487b7160e01b84526041600452602484fd5b600080fdfe608060408181526004908136101561001657600080fd5b600092833560e01c908163014812a2146104da5750806318cf6f4214610473578063389dee181461044a578063715018a6146103ed5780638667f619146101f85780638da5cb5b146101cc578063e2be1a081461014a5763f2fde38b1461007c57600080fd5b34610146576020366003190112610146576001600160a01b03823581811693919290849003610142576100ad610532565b83156100f05750506000548260018060a01b0319821617600055167f8be0079c531659141344cd1fd0a4f28419497f9722a3daafe3b4186f6b6457e0600080a380f35b906020608492519162461bcd60e51b8352820152602660248201527f4f776e61626c653a206e6577206f776e657220697320746865207a65726f206160448201526564647265737360d01b6064820152fd5b8480fd5b8280fd5b5090346101465760203660031901126101465780356001600160a01b03811692908390036101c85761017a610532565b82156101bb575050600180546001600160a01b031916821790557fe329ca164c11428fa5ee865054c08ccee6f2d38eda61e9e6a35b3081a472daed8280a280f35b51637827912560e01b8152fd5b8380fd5b8382346101f457816003193601126101f457905490516001600160a01b039091168152602090f35b5080fd5b508290346101f457600319906060368301126101465767ffffffffffffffff84358181116101425761022d90369087016104ff565b91906024358281116103e95761024690369089016104ff565b95906044358481116103e55761025f9036908b016104ff565b600154608881901c62ffffff16763d602d80600a3d3981f3363d3d373d3d3d363d73000000178b5260781b6001600160781b0319166e5af43d82803e903d91602b57fd5bf3176020526001600160a01b039890929089603760098df016998a156103a95760025416958a3b156103a557938b9693610313610322948f979461030360a09a968f519e8f9c8d9c8d6329fab88760e21b90528d015260a48c019161058a565b91868a84030160248b015261058a565b9286840301604487015261058a565b903360648401526084830152038183885af1801561039b57610371575b5050602093505191817f0c069e30a19668076937a9266318f1876e9c7dabdae788aaad8f5c73599aea89339280a38152f35b81949294116103885760209450835291848061033f565b634e487b7160e01b825260418552602482fd5b83513d87823e3d90fd5b8b80fd5b895162461bcd60e51b81526020818f01526016602482015275115490cc4c4d8dce8818dc99585d194819985a5b195960521b6044820152606490fd5b8880fd5b8680fd5b8334610447578060031936011261044757610406610532565b80546001600160a01b03198116825581906001600160a01b03167f8be0079c531659141344cd1fd0a4f28419497f9722a3daafe3b4186f6b6457e08280a380f35b80fd5b8382346101f457816003193601126101f45760025490516001600160a01b039091168152602090f35b5050346101f45760203660031901126101f457356001600160a01b038116908190036101f4576104a1610532565b600280546001600160a01b031916821790557feedfae894237292077aa1e4fcca7f9a0a2aabeda165c2ff69a08cfd365d7c9eb8280a280f35b8490346101f457816003193601126101f4576001546001600160a01b03168152602090f35b9181601f8401121561052d5782359167ffffffffffffffff831161052d576020838186019501011161052d57565b600080fd5b6000546001600160a01b0316330361054657565b606460405162461bcd60e51b815260206004820152602060248201527f4f776e61626c653a2063616c6c6572206973206e6f7420746865206f776e65726044820152fd5b908060209392818452848401376000828201840152601f01601f191601019056fea2646970667358221220c6cdc69dac480746e3b0a403a8be123871650849084015d4745cbdd2f7b9327664736f6c634300081200336080806040523461001657613003908161001c8239f35b600080fdfe6080604052600436101561001257600080fd5b60003560e01c8062fdd58e1461248e57806301ffc9a7146123d457806306fdde03146123425780630de54ba0146122c95780630e89341c146121475780631542bb95146120de57806318e97fd114611f665780632a55205a14611ec55780632baf2acb14611beb5780632eb2c2d6146118115780633403c4e9146117e75780633a3d146f146117a75780633ebc82c51461175557806340c1a064146117205780634e1273f4146115825780634f558e79146115545780636b20c454146112fa578063715018a61461129d57806372b3b6201461122c578063894ba833146111dd5780638da5cb5b146111b457806395d89b41146110e1578063a22cb4651461100a578063a7eae21c14610997578063ab69607a14610978578063bd85b0391461094c578063c33ae88f1461091f578063e985e9c5146108c9578063ee070805146108a5578063efc32cd414610808578063f242432a1461043b578063f2fde38b146103ae578063f5298aca146101c35763ffd25aa41461019157600080fd5b346101be5760203660031901126101be576004356000526101356020526020604060002054604051908152f35b600080fd5b346101be576101d1366125f3565b6001600160a01b0390921691903383148015610385575b6101f190612889565b8215926101fe8415612b5e565b61020782612b29565b9161021184612b29565b9460006040516102208161251b565b52610331575b60005b83518110156102c45761023c818561285f565b51610247828861285f565b51908060005260fb602081815260406000205492848410610280579061027b95949392916000525203604060002055612850565b610229565b60405162461bcd60e51b81526004810183905260286024820152600080516020612fae833981519152604482015267616c537570706c7960c01b6064820152608490fd5b60008383878184526097602052604084208385526020528060408520546102ed82821015612bb6565b8386526097602052604086208587526020520360408520556040519182526020820152600080516020612f6e83398151915260403392a461032f60405161251b565b005b929060005b835181101561037d578061034d610378928861285f565b51610358828761285f565b5160005260fb60205261037160406000209182546129a5565b9055612850565b610336565b509092610226565b508260005260986020526040600020336000526020526101f160ff6040600020541690506101e8565b346101be5760203660031901126101be576103c76124b5565b6103cf61272a565b6001600160a01b038116156103e75761032f90612782565b60405162461bcd60e51b815260206004820152602660248201527f4f776e61626c653a206e6577206f776e657220697320746865207a65726f206160448201526564647265737360d01b6064820152608490fd5b346101be5760a03660031901126101be576104546124b5565b61045c6124cb565b90608480356001600160401b0381116101be5761047d9036906004016126d8565b6001600160a01b039190838316331480156107dd575b61049c90612889565b828516156104aa81156128ec565b6104b5604435612b29565b6104c0606435612b29565b918587161561079d575b6106ef575b505060443560005260209460978652604060002084861660005286526040600020546104ff606435821015612946565b604435600052609787526040600020858716600052875260643590036040600020556044356000526097865260406000208482166000528652604060002061054a60643582546129a5565b90556040516044358152606435878201528482169085871690600080516020612f6e83398151915260403392a4803b61057f57005b60a060006105c9958895604051978896879586938563f23a6e6160e01b9d8e87523360048801521660248601526044356044860152606435606486015284015260a4830190612557565b0393165af1600091816106c0575b506106965750506001906105e9612a9d565b6308c379a014610661575b506105fb57005b60405162461bcd60e51b815260206004820152603460248201527f455243313135353a207472616e7366657220746f206e6f6e2d455243313135356044820152732932b1b2b4bb32b91034b6b83632b6b2b73a32b960611b6064820152608490fd5b0390fd5b610669612abb565b908161067557506105f4565b61065d60405192839262461bcd60e51b845260048401526024830190612557565b6001600160e01b03191614905061032f5760405162461bcd60e51b81528061065d60048201612a54565b6106e1919250843d86116106e8575b6106d98183612536565b810190612a34565b90846105d7565b503d6106cf565b92959194909360005b845181101561078e5761070b818661285f565b5190610717818861285f565b518260005260fb60205260406000205481811061074b576107469360005260fb60205203604060002055612850565b6106f8565b60405162461bcd60e51b81526020600482015260286024820152600080516020612fae833981519152604482015267616c537570706c7960c01b60648201528b90fd5b509350939094915085806104cf565b959260009794919592975b86518110156107cf57806107bf6107ca928b61285f565b51610358828a61285f565b6107a8565b5092959691949093966104ca565b50828416600052609860205260406000203360005260205261049c60ff604060002054169050610493565b346101be5760403660031901126101be576108216124b5565b6024359061082d61272a565b8160005261013560205260ff600260406000200154161561088c576001600160a01b031690811561087a57600090815261012f6020526040902080546001600160a01b0319169091179055005b604051637827912560e01b8152600490fd5b60405163c927e5bf60e01b815260048101839052602490fd5b346101be5760003660031901126101be57602060ff61013354166040519015158152f35b346101be5760403660031901126101be576108e26124b5565b6108ea6124cb565b9060018060a01b03809116600052609860205260406000209116600052602052602060ff604060002054166040519015158152f35b346101be5760203660031901126101be576004356000526101386020526020604060002054604051908152f35b346101be5760203660031901126101be5760043560005260fb6020526020604060002054604051908152f35b346101be5760003660031901126101be57602061012e54604051908152f35b346101be5760a03660031901126101be576004356001600160401b0381116101be576109c79036906004016125c6565b906024356001600160401b0381116101be576109e79036906004016125c6565b6044939193356001600160401b0381116101be57610a099036906004016125c6565b6001600160a01b03959192909160643580881690036101be576084359487861686036101be576000549660ff8860081c161597888099610ffd575b8015610fe6575b15610f8a5760ff19811660011760005588610f78575b5088606435161561087a576001600160401b038211610d80578190610a88610131546124e1565b601f8111610f0a575b50600090601f8311600114610e8157600092610e76575b50508160011b916000199060031b1c191617610131555b6001600160401b038211610d8057610ad9610132546124e1565b601f8111610e14575b50600090601f8311600114610da157610b4d9493929160009183610d96575b50508160011b916000199060031b1c191617610132555b61013360ff198154169055610b3d60ff60005460081c16610b3881612c62565b612c62565b610b4633612782565b3691612692565b92610b6360ff60005460081c16610b3881612c62565b83516001600160401b038111610d8057610b7e6099546124e1565b601f8111610d1b575b50602094601f8211600114610cb457948192939495600092610ca9575b50508160011b916000199060031b1c1916176099555b610be160ff60005460081c16610bcf81612c62565b610bd881612c62565b610b3881612c62565b600a61012e5561012d80546001600160a01b0319166001600160a01b0360643516179055808216610c58575b5050610c1a606435612782565b610c2057005b61ff0019600054166000557f7f26b83ff96e1f2b6a682f133852f6798a09c465da95921460cefb3847402498602060405160018152a1005b6020817f88cb6d0a56ba73e5f130e544fa6649e4173e9051add4f3fc61b46502074b44b592841660005261013782526040600020600160ff1982541617905560405193600185521692a28180610c0d565b015190508580610ba4565b601f198216956099600052806000209160005b888110610d0357508360019596979810610cea575b505050811b01609955610bba565b015160001960f88460031b161c19169055858080610cdc565b91926020600181928685015181550194019201610cc7565b60996000527f72a152ddfb8e864297c917af52ea6c1c68aead0fee1a62673fcc7e0c94979d00601f830160051c81019160208410610d76575b601f0160051c01905b818110610d6a5750610b87565b60008155600101610d5d565b9091508190610d54565b634e487b7160e01b600052604160045260246000fd5b013590508880610b01565b61013260005260206000209160005b601f1985168110610dfc5750918391600193610b4d979695601f19811610610de2575b505050811b0161013255610b18565b0135600019600384901b60f8161c19169055888080610dd3565b90926020600181928686013581550194019101610db0565b6101326000527fc53bdfd4aa1ab65dfdaf681ca6bda958ae4a123d4ed68c4277796592280e7835601f840160051c810160208510610e6f575b601f830160051c82018110610e63575050610ae2565b60008155600101610e4d565b5080610e4d565b013590508980610aa8565b610131600090815293507fbd987ad6ccdb7c7567f7335ea839f95dc944431abcf935b6924f70215963db73915b601f1984168510610ef2576001945083601f19811610610ed8575b505050811b0161013155610abf565b0135600019600384901b60f8161c19169055898080610ec9565b81810135835560209485019460019093019201610eae565b6101316000529091507fbd987ad6ccdb7c7567f7335ea839f95dc944431abcf935b6924f70215963db73601f840160051c810160208510610f71575b90849392915b601f830160051c82018110610f62575050610a91565b60008155859450600101610f4c565b5080610f46565b61ffff19166101011760005589610a61565b60405162461bcd60e51b815260206004820152602e60248201527f496e697469616c697a61626c653a20636f6e747261637420697320616c72656160448201526d191e481a5b9a5d1a585b1a5e995960921b6064820152608490fd5b50303b158015610a4b5750600160ff821614610a4b565b50600160ff821610610a44565b346101be5761101836612597565b6001600160a01b039091169033821461108a5733600052609860205260406000208260005260205261105a8160406000209060ff801983541691151516179055565b60405190151581527f17307eab39ab6107e8899845ad3d59bd9653f200f220920489ca2b5937696c3160203392a3005b60405162461bcd60e51b815260206004820152602960248201527f455243313135353a2073657474696e6720617070726f76616c20737461747573604482015268103337b91039b2b63360b91b6064820152608490fd5b346101be5760003660031901126101be57604051600090610132805490611107826124e1565b90818452600192838116908160001461118c575060011461114b575b6111478461113381880382612536565b604051918291602083526020830190612557565b0390f35b90935060005260209283600020916000925b8284106111795750505081611147936111339282010193611123565b805485850187015292850192810161115d565b61114796506111339450602092508593915060ff191682840152151560051b82010193611123565b346101be5760003660031901126101be576033546040516001600160a01b039091168152602090f35b346101be5760003660031901126101be576111f661272a565b610133805460ff19166001179055337f793bc6423dd0257d64f9d47db72fd4b2162f4541aa41740ba1c5fb5e2cd41bcd600080a2005b346101be5760403660031901126101be576004356001600160401b0381116101be5761125c9036906004016125c6565b61126461272a565b60ff610133541661128b57602091611283913391339160243591612ce3565b604051908152f35b604051637abbf1c960e01b8152600490fd5b346101be5760003660031901126101be576112b661272a565b603380546001600160a01b031981169091556000906001600160a01b03167f8be0079c531659141344cd1fd0a4f28419497f9722a3daafe3b4186f6b6457e08280a3005b346101be5760603660031901126101be576113136124b5565b6024906001600160401b039082358281116101be57611336903690600401612634565b9160449081359081116101be57611351903690600401612634565b6001600160a01b0390921692338414801561152b575b61137090612889565b831561137c8115612b5e565b61138982518551146129b2565b60006040516113978161251b565b526114f3575b60005b8151811015611439576113b3818361285f565b516113be828661285f565b51908060005260fb6020818152604060002054928484106113f757906113f295949392916000525203604060002055612850565b6113a0565b60405162461bcd60e51b8152600481018390526028818d0152600080516020612fae833981519152818a015267616c537570706c7960c01b6064820152608490fd5b83828660005b82518110156114ae57806114566114a9928561285f565b51611461828761285f565b519080600052609760209080825260406000208760005282526040600020549261148d85851015612bb6565b6000528152604060002090866000525203604060002055612850565b61143f565b50907f4a39dc06d4c0dbc64b70af90fd698a233a518aa5d07e595d983b8c0526c8f7fb6114e5600094604051918291339583612a0f565b0390a461032f60405161251b565b9260009491945b8451811015611521578061151161151c928661285f565b51610358828861285f565b6114fa565b509293909361139d565b5083600052609860205260406000203360005260205261137060ff604060002054169050611367565b346101be5760203660031901126101be5760043560005260fb60205260206040600020541515604051908152f35b346101be5760403660031901126101be576004356001600160401b038082116101be57366023830112156101be578160040135906115bf8261261d565b926115cd6040519485612536565b82845260209260248486019160051b830101913683116101be57602401905b828210611701575050506024359081116101be5761160e903690600401612634565b82518151036116aa578251926116238461261d565b936116316040519586612536565b808552611640601f199161261d565b01368486013760005b81518110156116935761168e9061167e6001600160a01b0361166b838661285f565b5116611677838761285f565b51906127cb565b611688828861285f565b52612850565b611649565b5050506111476040519282849384528301906126f6565b60405162461bcd60e51b815260048101839052602960248201527f455243313135353a206163636f756e747320616e6420696473206c656e677468604482015268040dad2e6dac2e8c6d60bb1b6064820152608490fd5b81356001600160a01b03811681036101be5781529084019084016115ec565b346101be5760203660031901126101be57600435600052610136602052602060018060a01b0360406000205416604051908152f35b346101be5760203660031901126101be5761176e6124b5565b61177661272a565b6001600160a01b0381161561087a5761012d80546001600160a01b0319166001600160a01b03909216919091179055005b346101be5760203660031901126101be576001600160a01b036117c86124b5565b16600052610137602052602060ff604060002054166040519015158152f35b346101be5760003660031901126101be5761012d546040516001600160a01b039091168152602090f35b346101be5760031960a0368201126101be5761182b6124b5565b906118346124cb565b6044908135926001600160401b03938481116101be57611858903690600401612634565b606480358681116101be57611871903690600401612634565b9460849687359081116101be5761188c9036906004016126d8565b6001600160a01b039489861633148015611bc0575b6118aa90612889565b6118b785518951146129b2565b858716156118c581156128ec565b868b1615611b7d575b611ac8575b60005b855181101561196b57806118ed611966928861285f565b518c6118f9838d61285f565b519180600052609790838c602094848652604060002082821660005286526040600020549161192a84841015612946565b846000528587526040600020911660005285520360406000205560005281526040600020908a8c166000525261037160406000209182546129a5565b6118d6565b50888a989796949789604051887f4a39dc06d4c0dbc64b70af90fd698a233a518aa5d07e595d983b8c0526c8f7fb89808d16941692806119ad87339583612a0f565b0390a4873b6119b857005b60405198899788968863bc197c8160e01b9d8e8a523360048b0152166024890152870160a0905260a487016119ec916126f6565b908487830301908701526119ff916126f6565b918483030190840152611a1191612557565b03921691815a602094600091f160009181611aa8575b50611a805750506001611a38612a9d565b6308c379a014611a49575b6105fb57005b611a51612abb565b80611a5c5750611a43565b60405162461bcd60e51b81526020600482015290819061065d906024830190612557565b6001600160e01b0319161461032f5760405162461bcd60e51b81528061065d60048201612a54565b611ac191925060203d81116106e8576106d98183612536565b9083611a27565b9796949060009993999692965b8551811015611b6d57611ae8818761285f565b51611af3828961285f565b519080600052602060fb815260406000205491838310611b2c57611b279493929160fb916000525203604060002055612850565b611ad5565b508b9067616c537570706c7960c01b8f600080516020612fae8339815191528e6040519462461bcd60e51b8652600486015260286024860152840152820152fd5b50909496979892989591956118d3565b99969498959392919060005b8a51811015611bb157808b61035882611ba5611bac958f61285f565b519261285f565b611b89565b509091929395989496996118ce565b50858a1660005260986020526040600020336000526020526118aa60ff6040600020541690506118a1565b346101be57611bf9366125f3565b60ff610133939293541661128b57826000526101359060209382855260ff6002604060002001541615611ead576001600160a01b038481169390841561087a576033541633141580611e94575b611e7c578215611e6a5781600052610138808752611c69846040600020546129a5565b91836000528752604060002054808311611e46575082600052865260406000205560405191611c978361251b565b60008352611ca482612b29565b93611cae82612b29565b9360005b888751821015611cf3575080611ccb611cee928861285f565b51611cd6828a61285f565b5160005260fb8b5261037160406000209182546129a5565b611cb2565b955050849087856000526097835260406000208460005283526040600020611d1c8682546129a5565b90558360006040518881528786820152600080516020612f6e83398151915260403392a43b611d4f575b50604051848152f35b600092611d939160405194858094819363f23a6e6160e01b998a84523360048501528460248501528b6044850152606484015260a0608484015260a4830190612557565b03925af160009181611e27575b50611dff5750506001611db1612a9d565b6308c379a014611dca575b6105fb575b82808381611d46565b611dd2612abb565b80611ddd5750611dbc565b8361065d60405192839262461bcd60e51b845260048401526024830190612557565b6001600160e01b03191614611dc15760405162461bcd60e51b81528061065d60048201612a54565b611e3f919250853d87116106e8576106d98183612536565b9085611da0565b836064918460405192630d6f5ed560e11b8452600484015260248301526044820152fd5b60405163d11b25af60e01b8152600490fd5b60405163fc8b94cd60e01b8152336004820152602490fd5b5033600052610137865260ff6040600020541615611c46565b6024906040519063c927e5bf60e01b82526004820152fd5b346101be5760403660031901126101be57600435600090815261012f6020526040902054602435906001600160a01b039081168015611f5957905b6101306020526040600020548015611f4e57925b838102938185041490151715611f3857604092606491845193168352046020820152f35b634e487b7160e01b600052601160045260246000fd5b5061012e5492611f14565b508061012d541690611f00565b346101be5760403660031901126101be576004356001600160401b036024358181116101be57611f9a9036906004016125c6565b9190611fa461272a565b836000526101359160209280845260ff60026040600020015416156120c557856000528352600180604060002001918511610d8057611fed85611fe784546124e1565b84612c0e565b6000601f861160011461204e57918580600080516020612f8e8339815191529796959361203e95600093612043575b501b906000198760031b1c19161790555b604051938385948552840191612cc2565b0390a2005b85013592508a61201c565b601f1986169083600052856000209160005b8181106120b05750918796959391600080516020612f8e8339815191529861203e969410612096575b505085811b01905561202d565b840135600019600389901b60f8161c191690558880612089565b86830135845592840192918701918701612060565b60405163c927e5bf60e01b815260048101879052602490fd5b346101be5760603660031901126101be576004356001600160401b0381116101be5761210e9036906004016125c6565b906044356001600160a01b03811681036101be5761212a61272a565b60ff610133541661128b5760209261128392339160243591612ce3565b346101be576020806003193601126101be57600435600052610135815260018060406000200190826040518093600090805490612183826124e1565b808552918681169081156122a85750600114612267575b50506121a892500383612536565b8151156121c65750905b611147604051928284938452830190612557565b90506040519060009083609954916121dd836124e1565b9283865285828216918260001461224757505060011461220d575b50505081612207910382612536565b906121b2565b91909250609960005282600020916000925b828410612234575050508201018183856121f8565b805486850186015292840192810161221f565b60ff19168482015293151560051b840190920193508591508690506121f8565b9091506000528260002090846000925b82841061229157505050916121a89282010185928761219a565b805488850187015287945092850192869101612277565b9150506121a894925060ff191682840152151560051b82010185928761219a565b346101be576122d736612597565b906122e061272a565b6001600160a01b031690811561087a5760207f88cb6d0a56ba73e5f130e544fa6649e4173e9051add4f3fc61b46502074b44b5918360005261013782526123378160406000209060ff801983541691151516179055565b6040519015158152a2005b346101be5760003660031901126101be57604051600090610131805490612368826124e1565b90818452600192838116908160001461118c5750600114612393576111478461113381880382612536565b90935060005260209283600020916000925b8284106123c15750505081611147936111339282010193611123565b80548585018701529285019281016123a5565b346101be5760203660031901126101be5760043563ffffffff60e01b81168091036101be5760209063d20de18960e01b811490811561247d575b8115612420575b506040519015158152f35b63152a902d60e11b81149150811561243a575b5082612415565b636cdb3d1360e11b81149150811561246c575b811561245b575b5082612433565b6301ffc9a760e01b14905082612454565b6303a24d0760e21b8114915061244d565b631030681960e21b8114915061240e565b346101be5760403660031901126101be5760206112836124ac6124b5565b602435906127cb565b600435906001600160a01b03821682036101be57565b602435906001600160a01b03821682036101be57565b90600182811c92168015612511575b60208310146124fb57565b634e487b7160e01b600052602260045260246000fd5b91607f16916124f0565b602081019081106001600160401b03821117610d8057604052565b90601f801991011681019081106001600160401b03821117610d8057604052565b919082519283825260005b848110612583575050826000602080949584010152601f8019910116010190565b602081830181015184830182015201612562565b60409060031901126101be576004356001600160a01b03811681036101be579060243580151581036101be5790565b9181601f840112156101be578235916001600160401b0383116101be57602083818601950101116101be57565b60609060031901126101be576004356001600160a01b03811681036101be57906024359060443590565b6001600160401b038111610d805760051b60200190565b81601f820112156101be5780359161264b8361261d565b926126596040519485612536565b808452602092838086019260051b8201019283116101be578301905b828210612683575050505090565b81358152908301908301612675565b9291926001600160401b038211610d8057604051916126bb601f8201601f191660200184612536565b8294818452818301116101be578281602093846000960137010152565b9080601f830112156101be578160206126f393359101612692565b90565b90815180825260208080930193019160005b828110612716575050505090565b835185529381019392810192600101612708565b6033546001600160a01b0316330361273e57565b606460405162461bcd60e51b815260206004820152602060248201527f4f776e61626c653a2063616c6c6572206973206e6f7420746865206f776e65726044820152fd5b603380546001600160a01b039283166001600160a01b0319821681179092559091167f8be0079c531659141344cd1fd0a4f28419497f9722a3daafe3b4186f6b6457e0600080a3565b6001600160a01b03169081156127f857600052609760205260406000209060005260205260406000205490565b60405162461bcd60e51b815260206004820152602a60248201527f455243313135353a2061646472657373207a65726f206973206e6f742061207660448201526930b634b21037bbb732b960b11b6064820152608490fd5b6000198114611f385760010190565b80518210156128735760209160051b010190565b634e487b7160e01b600052603260045260246000fd5b1561289057565b60405162461bcd60e51b815260206004820152602e60248201527f455243313135353a2063616c6c6572206973206e6f7420746f6b656e206f776e60448201526d195c881bdc88185c1c1c9bdd995960921b6064820152608490fd5b156128f357565b60405162461bcd60e51b815260206004820152602560248201527f455243313135353a207472616e7366657220746f20746865207a65726f206164604482015264647265737360d81b6064820152608490fd5b1561294d57565b60405162461bcd60e51b815260206004820152602a60248201527f455243313135353a20696e73756666696369656e742062616c616e636520666f60448201526939103a3930b739b332b960b11b6064820152608490fd5b91908201809211611f3857565b156129b957565b60405162461bcd60e51b815260206004820152602860248201527f455243313135353a2069647320616e6420616d6f756e7473206c656e677468206044820152670dad2e6dac2e8c6d60c31b6064820152608490fd5b9091612a266126f3936040845260408401906126f6565b9160208184039101526126f6565b908160209103126101be57516001600160e01b0319811681036101be5790565b60809060208152602860208201527f455243313135353a204552433131353552656365697665722072656a656374656040820152676420746f6b656e7360c01b60608201520190565b60009060033d11612aaa57565b905060046000803e60005160e01c90565b600060443d106126f357604051600319913d83016004833e81516001600160401b03918282113d602484011117612b1857818401948551938411612b20573d85010160208487010111612b1857506126f392910160200190612536565b949350505050565b50949350505050565b60405190604082018281106001600160401b03821117610d805760405260018252602082016020368237825115612873575290565b15612b6557565b60405162461bcd60e51b815260206004820152602360248201527f455243313135353a206275726e2066726f6d20746865207a65726f206164647260448201526265737360e81b6064820152608490fd5b15612bbd57565b60405162461bcd60e51b8152602060048201526024808201527f455243313135353a206275726e20616d6f756e7420657863656564732062616c604482015263616e636560e01b6064820152608490fd5b90601f8111612c1c57505050565b600091825260208220906020601f850160051c83019410612c58575b601f0160051c01915b828110612c4d57505050565b818155600101612c41565b9092508290612c38565b15612c6957565b60405162461bcd60e51b815260206004820152602b60248201527f496e697469616c697a61626c653a20636f6e7472616374206973206e6f74206960448201526a6e697469616c697a696e6760a81b6064820152608490fd5b908060209392818452848401376000828201840152601f01601f1916010190565b9193908415612f5b576001600160a01b0382161561087a5761013494612d098654612850565b8096556040519260608401936001600160401b039481811086821117610d8057604052828152612d3a368588612692565b906020810191825260016040820152886000526101356020526040600020918151835551958651908111610d80578996612d8482612d7b60018701546124e1565b60018701612c0e565b602090601f8311600114612eb55760407f06ec8b3fb63a2a91fc1109b41eed7d76ac33c774d1d49f298836f97561ed07a4999a9484612dfc95612e949895600295600092612eaa575b50508160011b916000199060031b1c19161760018501555b0151151591019060ff801983541691151516179055565b8660005261013660205260406000209760018060a01b03169760018060a01b031990898282541617905561012f60205260406000209060018060a01b0385169082541617905561012e5461013060205260406000205586600080516020612f8e8339815191526040516020815280612e78602082018a87612cc2565b0390a26040519485948552606060208601526060850191612cc2565b6001600160a01b0390911660408301520390a390565b015190503880612dcd565b6001859493929a950160005260206000209060005b601f1984168110612f405750612dfc936001846002947f06ec8b3fb63a2a91fc1109b41eed7d76ac33c774d1d49f298836f97561ed07a49d9e604095612e949b9a98601f19811610612f27575b505050811b016001850155612de5565b015160001960f88460031b161c19169055388080612f17565b818c0151835560209b8c019b8e9b5060019093019201612eca565b604051631dd0e19360e01b8152600490fdfec3d58168c5ae7397731d063d5bbf3d657854427343f4c083240f7aacaa2d0f626bb7ff708619ba0610cba295a58592e0451dee2622938c8755667688daf3529b455243313135353a206275726e20616d6f756e74206578636565647320746f74a264697066735822122077965fa0e0e98965ee2091700b624025a480f5e36e32a78c2f0d090944ea05a164736f6c63430008120033","linkReferences":{}},"methodIdentifiers":{"createRareERC1155Contract(string,string,string)":"8667f619","defaultMinter()":"389dee18","owner()":"8da5cb5b","rareERC1155()":"014812a2","renounceOwnership()":"715018a6","setDefaultMinter(address)":"18cf6f42","setRareERC1155(address)":"e2be1a08","transferOwnership(address)":"f2fde38b"},"id":214}