{"abi":[{"type":"constructor","inputs":[],"stateMutability":"nonpayable"},{"type":"function","name":"MAX_BATCH_SIZE","inputs":[],"outputs":[{"name":"","type":"uint256","internalType":"uint256"}],"stateMutability":"view"},{"type":"function","name":"MAX_CHECKOUT_SIZE","inputs":[],"outputs":[{"name":"","type":"uint256","internalType":"uint256"}],"stateMutability":"view"},{"type":"function","name":"acceptOffer","inputs":[{"name":"_contractAddress","type":"address","internalType":"address"},{"name":"_tokenId","type":"uint256","internalType":"uint256"},{"name":"_buyer","type":"address","internalType":"address"},{"name":"_currencyAddress","type":"address","internalType":"address"},{"name":"_price","type":"uint256","internalType":"uint256"},{"name":"_quantity","type":"uint256","internalType":"uint256"},{"name":"_splitRecipients","type":"address[]","internalType":"address payable[]"},{"name":"_splitRatios","type":"uint8[]","internalType":"uint8[]"}],"outputs":[],"stateMutability":"nonpayable"},{"type":"function","name":"buyBatch","inputs":[{"name":"_contractAddress","type":"address","internalType":"address"},{"name":"_seller","type":"address","internalType":"address"},{"name":"_currencyAddress","type":"address","internalType":"address"},{"name":"_recipient","type":"address","internalType":"address"},{"name":"_requests","type":"tuple[]","internalType":"struct IRareERC1155MarketplaceTypes.BuyRequest[]","components":[{"name":"tokenId","type":"uint256","internalType":"uint256"},{"name":"price","type":"uint256","internalType":"uint256"},{"name":"quantity","type":"uint256","internalType":"uint256"}]}],"outputs":[],"stateMutability":"payable"},{"type":"function","name":"cancelMintDirectSales","inputs":[{"name":"_contractAddress","type":"address","internalType":"address"},{"name":"_tokenIds","type":"uint256[]","internalType":"uint256[]"}],"outputs":[],"stateMutability":"nonpayable"},{"type":"function","name":"cancelOffer","inputs":[{"name":"_contractAddress","type":"address","internalType":"address"},{"name":"_tokenId","type":"uint256","internalType":"uint256"},{"name":"_currencyAddress","type":"address","internalType":"address"}],"outputs":[],"stateMutability":"nonpayable"},{"type":"function","name":"cancelSalePrices","inputs":[{"name":"_contractAddress","type":"address","internalType":"address"},{"name":"_tokenIds","type":"uint256[]","internalType":"uint256[]"}],"outputs":[],"stateMutability":"nonpayable"},{"type":"function","name":"checkout","inputs":[{"name":"_recipient","type":"address","internalType":"address"},{"name":"_items","type":"tuple[]","internalType":"struct IRareERC1155MarketplaceTypes.CheckoutItem[]","components":[{"name":"itemKind","type":"uint8","internalType":"uint8"},{"name":"contractAddress","type":"address","internalType":"address"},{"name":"seller","type":"address","internalType":"address"},{"name":"currencyAddress","type":"address","internalType":"address"},{"name":"tokenId","type":"uint256","internalType":"uint256"},{"name":"price","type":"uint256","internalType":"uint256"},{"name":"quantity","type":"uint256","internalType":"uint256"},{"name":"proof","type":"bytes32[]","internalType":"bytes32[]"}]}],"outputs":[{"name":"","type":"tuple","internalType":"struct IRareERC1155MarketplaceTypes.CheckoutExecution","components":[{"name":"summary","type":"tuple","internalType":"struct IRareERC1155MarketplaceTypes.CheckoutSummary","components":[{"name":"filledCount","type":"uint256","internalType":"uint256"},{"name":"skippedCount","type":"uint256","internalType":"uint256"},{"name":"ethSpent","type":"uint256","internalType":"uint256"},{"name":"ethRefunded","type":"uint256","internalType":"uint256"}]},{"name":"items","type":"tuple[]","internalType":"struct IRareERC1155MarketplaceTypes.CheckoutItemResult[]","components":[{"name":"itemIndex","type":"uint256","internalType":"uint256"},{"name":"itemKind","type":"uint8","internalType":"uint8"},{"name":"contractAddress","type":"address","internalType":"address"},{"name":"tokenId","type":"uint256","internalType":"uint256"},{"name":"seller","type":"address","internalType":"address"},{"name":"currencyAddress","type":"address","internalType":"address"},{"name":"price","type":"uint256","internalType":"uint256"},{"name":"quantity","type":"uint256","internalType":"uint256"},{"name":"filled","type":"bool","internalType":"bool"},{"name":"failureStage","type":"uint8","internalType":"enum IRareERC1155MarketplaceTypes.CheckoutFailureStage"},{"name":"reason","type":"bytes4","internalType":"bytes4"},{"name":"failureData","type":"bytes","internalType":"bytes"},{"name":"totalPaid","type":"uint256","internalType":"uint256"}]}]}],"stateMutability":"payable"},{"type":"function","name":"getCheckoutExecutionModule","inputs":[],"outputs":[{"name":"","type":"address","internalType":"address"}],"stateMutability":"view"},{"type":"function","name":"getDirectSaleConfig","inputs":[{"name":"_contractAddress","type":"address","internalType":"address"},{"name":"_tokenId","type":"uint256","internalType":"uint256"}],"outputs":[{"name":"","type":"tuple","internalType":"struct IRareERC1155MarketplaceTypes.DirectSaleConfig","components":[{"name":"seller","type":"address","internalType":"address"},{"name":"currencyAddress","type":"address","internalType":"address"},{"name":"price","type":"uint256","internalType":"uint256"},{"name":"startTime","type":"uint256","internalType":"uint256"},{"name":"maxMints","type":"uint256","internalType":"uint256"},{"name":"splitRecipients","type":"address[]","internalType":"address payable[]"},{"name":"splitRatios","type":"uint8[]","internalType":"uint8[]"}]}],"stateMutability":"view"},{"type":"function","name":"getERC1155ApprovalManager","inputs":[],"outputs":[{"name":"","type":"address","internalType":"address"}],"stateMutability":"view"},{"type":"function","name":"getMarketConfig","inputs":[],"outputs":[{"name":"","type":"tuple","internalType":"struct MarketConfigV2.Config","components":[{"name":"networkBeneficiary","type":"address","internalType":"address"},{"name":"marketplaceSettings","type":"address","internalType":"contract IMarketplaceSettings"},{"name":"spaceOperatorRegistry","type":"address","internalType":"contract ISpaceOperatorRegistry"},{"name":"royaltyEngine","type":"address","internalType":"contract IRoyaltyEngineV1"},{"name":"payments","type":"address","internalType":"contract IPayments"},{"name":"approvedTokenRegistry","type":"address","internalType":"contract IApprovedTokenRegistry"},{"name":"stakingSettings","type":"address","internalType":"contract IStakingSettings"},{"name":"stakingRegistry","type":"address","internalType":"contract IRareStakingRegistry"},{"name":"erc20ApprovalManager","type":"address","internalType":"contract IERC20ApprovalManager"},{"name":"erc721ApprovalManager","type":"address","internalType":"contract IERC721ApprovalManager"}]}],"stateMutability":"view"},{"type":"function","name":"getOffer","inputs":[{"name":"_contractAddress","type":"address","internalType":"address"},{"name":"_tokenId","type":"uint256","internalType":"uint256"},{"name":"_buyer","type":"address","internalType":"address"},{"name":"_currencyAddress","type":"address","internalType":"address"}],"outputs":[{"name":"","type":"tuple","internalType":"struct IRareERC1155MarketplaceTypes.Offer","components":[{"name":"currencyAddress","type":"address","internalType":"address"},{"name":"price","type":"uint256","internalType":"uint256"},{"name":"quantity","type":"uint256","internalType":"uint256"},{"name":"initialQuantity","type":"uint256","internalType":"uint256"},{"name":"marketplaceFeeRemaining","type":"uint256","internalType":"uint256"},{"name":"marketplaceFeeTotal","type":"uint256","internalType":"uint256"},{"name":"expirationTime","type":"uint256","internalType":"uint256"}]}],"stateMutability":"view"},{"type":"function","name":"getSalePrice","inputs":[{"name":"_contractAddress","type":"address","internalType":"address"},{"name":"_tokenId","type":"uint256","internalType":"uint256"},{"name":"_seller","type":"address","internalType":"address"}],"outputs":[{"name":"","type":"tuple","internalType":"struct IRareERC1155MarketplaceTypes.SalePrice","components":[{"name":"currencyAddress","type":"address","internalType":"address"},{"name":"price","type":"uint256","internalType":"uint256"},{"name":"quantity","type":"uint256","internalType":"uint256"},{"name":"expirationTime","type":"uint256","internalType":"uint256"},{"name":"splitRecipients","type":"address[]","internalType":"address payable[]"},{"name":"splitRatios","type":"uint8[]","internalType":"uint8[]"}]}],"stateMutability":"view"},{"type":"function","name":"getTokenAllowListConfig","inputs":[{"name":"_contractAddress","type":"address","internalType":"address"},{"name":"_tokenId","type":"uint256","internalType":"uint256"}],"outputs":[{"name":"","type":"tuple","internalType":"struct IRareERC1155MarketplaceTypes.AllowListConfig","components":[{"name":"root","type":"bytes32","internalType":"bytes32"},{"name":"endTimestamp","type":"uint256","internalType":"uint256"}]}],"stateMutability":"view"},{"type":"function","name":"getTokenMintLimit","inputs":[{"name":"_contractAddress","type":"address","internalType":"address"},{"name":"_tokenId","type":"uint256","internalType":"uint256"}],"outputs":[{"name":"","type":"uint256","internalType":"uint256"}],"stateMutability":"view"},{"type":"function","name":"getTokenMintsPerAddress","inputs":[{"name":"_contractAddress","type":"address","internalType":"address"},{"name":"_tokenId","type":"uint256","internalType":"uint256"},{"name":"_account","type":"address","internalType":"address"}],"outputs":[{"name":"","type":"uint256","internalType":"uint256"}],"stateMutability":"view"},{"type":"function","name":"getTokenTxLimit","inputs":[{"name":"_contractAddress","type":"address","internalType":"address"},{"name":"_tokenId","type":"uint256","internalType":"uint256"}],"outputs":[{"name":"","type":"uint256","internalType":"uint256"}],"stateMutability":"view"},{"type":"function","name":"getTokenTxsPerAddress","inputs":[{"name":"_contractAddress","type":"address","internalType":"address"},{"name":"_tokenId","type":"uint256","internalType":"uint256"},{"name":"_account","type":"address","internalType":"address"}],"outputs":[{"name":"","type":"uint256","internalType":"uint256"}],"stateMutability":"view"},{"type":"function","name":"getTradeExecutionModule","inputs":[],"outputs":[{"name":"","type":"address","internalType":"address"}],"stateMutability":"view"},{"type":"function","name":"initialize","inputs":[{"name":"_networkBeneficiary","type":"address","internalType":"address"},{"name":"_marketplaceSettings","type":"address","internalType":"address"},{"name":"_royaltyEngine","type":"address","internalType":"address"},{"name":"_payments","type":"address","internalType":"address"},{"name":"_approvedTokenRegistry","type":"address","internalType":"address"},{"name":"_erc20ApprovalManager","type":"address","internalType":"address"},{"name":"_erc721ApprovalManager","type":"address","internalType":"address"},{"name":"_erc1155ApprovalManager","type":"address","internalType":"address"},{"name":"_tradeExecutionModule","type":"address","internalType":"address"},{"name":"_checkoutExecutionModule","type":"address","internalType":"address"}],"outputs":[],"stateMutability":"nonpayable"},{"type":"function","name":"isPaused","inputs":[],"outputs":[{"name":"","type":"bool","internalType":"bool"}],"stateMutability":"view"},{"type":"function","name":"makeOffer","inputs":[{"name":"_contractAddress","type":"address","internalType":"address"},{"name":"_tokenId","type":"uint256","internalType":"uint256"},{"name":"_currencyAddress","type":"address","internalType":"address"},{"name":"_price","type":"uint256","internalType":"uint256"},{"name":"_quantity","type":"uint256","internalType":"uint256"},{"name":"_expirationTime","type":"uint256","internalType":"uint256"}],"outputs":[],"stateMutability":"payable"},{"type":"function","name":"mintDirectSaleBatch","inputs":[{"name":"_contractAddress","type":"address","internalType":"address"},{"name":"_currencyAddress","type":"address","internalType":"address"},{"name":"_recipient","type":"address","internalType":"address"},{"name":"_requests","type":"tuple[]","internalType":"struct IRareERC1155MarketplaceTypes.MintRequest[]","components":[{"name":"tokenId","type":"uint256","internalType":"uint256"},{"name":"price","type":"uint256","internalType":"uint256"},{"name":"quantity","type":"uint256","internalType":"uint256"},{"name":"proof","type":"bytes32[]","internalType":"bytes32[]"}]}],"outputs":[],"stateMutability":"payable"},{"type":"function","name":"owner","inputs":[],"outputs":[{"name":"","type":"address","internalType":"address"}],"stateMutability":"view"},{"type":"function","name":"prepareMintDirectSales","inputs":[{"name":"_contractAddress","type":"address","internalType":"address"},{"name":"_currencyAddress","type":"address","internalType":"address"},{"name":"_requests","type":"tuple[]","internalType":"struct IRareERC1155MarketplaceTypes.DirectSaleRequest[]","components":[{"name":"tokenId","type":"uint256","internalType":"uint256"},{"name":"price","type":"uint256","internalType":"uint256"},{"name":"startTime","type":"uint256","internalType":"uint256"},{"name":"maxMints","type":"uint256","internalType":"uint256"}]},{"name":"_splitRecipients","type":"address[]","internalType":"address payable[]"},{"name":"_splitRatios","type":"uint8[]","internalType":"uint8[]"}],"outputs":[],"stateMutability":"nonpayable"},{"type":"function","name":"proxiableUUID","inputs":[],"outputs":[{"name":"","type":"bytes32","internalType":"bytes32"}],"stateMutability":"view"},{"type":"function","name":"renounceOwnership","inputs":[],"outputs":[],"stateMutability":"nonpayable"},{"type":"function","name":"setApprovedTokenRegistry","inputs":[{"name":"_approvedTokenRegistry","type":"address","internalType":"address"}],"outputs":[],"stateMutability":"nonpayable"},{"type":"function","name":"setCheckoutExecutionModule","inputs":[{"name":"_checkoutExecutionModule","type":"address","internalType":"address"}],"outputs":[],"stateMutability":"nonpayable"},{"type":"function","name":"setContractPaused","inputs":[{"name":"_isPaused","type":"bool","internalType":"bool"}],"outputs":[],"stateMutability":"nonpayable"},{"type":"function","name":"setERC1155ApprovalManager","inputs":[{"name":"_erc1155ApprovalManager","type":"address","internalType":"address"}],"outputs":[],"stateMutability":"nonpayable"},{"type":"function","name":"setERC20ApprovalManager","inputs":[{"name":"_erc20ApprovalManager","type":"address","internalType":"address"}],"outputs":[],"stateMutability":"nonpayable"},{"type":"function","name":"setERC721ApprovalManager","inputs":[{"name":"_erc721ApprovalManager","type":"address","internalType":"address"}],"outputs":[],"stateMutability":"nonpayable"},{"type":"function","name":"setMarketplaceSettings","inputs":[{"name":"_marketplaceSettings","type":"address","internalType":"address"}],"outputs":[],"stateMutability":"nonpayable"},{"type":"function","name":"setNetworkBeneficiary","inputs":[{"name":"_networkBeneficiary","type":"address","internalType":"address"}],"outputs":[],"stateMutability":"nonpayable"},{"type":"function","name":"setPayments","inputs":[{"name":"_payments","type":"address","internalType":"address"}],"outputs":[],"stateMutability":"nonpayable"},{"type":"function","name":"setRoyaltyEngine","inputs":[{"name":"_royaltyEngine","type":"address","internalType":"address"}],"outputs":[],"stateMutability":"nonpayable"},{"type":"function","name":"setSalePrices","inputs":[{"name":"_contractAddress","type":"address","internalType":"address"},{"name":"_currencyAddress","type":"address","internalType":"address"},{"name":"_requests","type":"tuple[]","internalType":"struct IRareERC1155MarketplaceTypes.SalePriceRequest[]","components":[{"name":"tokenId","type":"uint256","internalType":"uint256"},{"name":"price","type":"uint256","internalType":"uint256"},{"name":"quantity","type":"uint256","internalType":"uint256"},{"name":"expirationTime","type":"uint256","internalType":"uint256"}]},{"name":"_splitRecipients","type":"address[]","internalType":"address payable[]"},{"name":"_splitRatios","type":"uint8[]","internalType":"uint8[]"}],"outputs":[],"stateMutability":"nonpayable"},{"type":"function","name":"setTokenAllowListConfigs","inputs":[{"name":"_contractAddress","type":"address","internalType":"address"},{"name":"_requests","type":"tuple[]","internalType":"struct IRareERC1155MarketplaceTypes.AllowListConfigRequest[]","components":[{"name":"tokenId","type":"uint256","internalType":"uint256"},{"name":"root","type":"bytes32","internalType":"bytes32"},{"name":"endTimestamp","type":"uint256","internalType":"uint256"}]}],"outputs":[],"stateMutability":"nonpayable"},{"type":"function","name":"setTokenMintLimits","inputs":[{"name":"_contractAddress","type":"address","internalType":"address"},{"name":"_requests","type":"tuple[]","internalType":"struct IRareERC1155MarketplaceTypes.TokenLimitRequest[]","components":[{"name":"tokenId","type":"uint256","internalType":"uint256"},{"name":"limit","type":"uint256","internalType":"uint256"}]}],"outputs":[],"stateMutability":"nonpayable"},{"type":"function","name":"setTokenTxLimits","inputs":[{"name":"_contractAddress","type":"address","internalType":"address"},{"name":"_requests","type":"tuple[]","internalType":"struct IRareERC1155MarketplaceTypes.TokenLimitRequest[]","components":[{"name":"tokenId","type":"uint256","internalType":"uint256"},{"name":"limit","type":"uint256","internalType":"uint256"}]}],"outputs":[],"stateMutability":"nonpayable"},{"type":"function","name":"setTradeExecutionModule","inputs":[{"name":"_tradeExecutionModule","type":"address","internalType":"address"}],"outputs":[],"stateMutability":"nonpayable"},{"type":"function","name":"transferOwnership","inputs":[{"name":"newOwner","type":"address","internalType":"address"}],"outputs":[],"stateMutability":"nonpayable"},{"type":"function","name":"upgradeTo","inputs":[{"name":"newImplementation","type":"address","internalType":"address"}],"outputs":[],"stateMutability":"nonpayable"},{"type":"function","name":"upgradeToAndCall","inputs":[{"name":"newImplementation","type":"address","internalType":"address"},{"name":"data","type":"bytes","internalType":"bytes"}],"outputs":[],"stateMutability":"payable"},{"type":"event","name":"AdminChanged","inputs":[{"name":"previousAdmin","type":"address","indexed":false,"internalType":"address"},{"name":"newAdmin","type":"address","indexed":false,"internalType":"address"}],"anonymous":false},{"type":"event","name":"BeaconUpgraded","inputs":[{"name":"beacon","type":"address","indexed":true,"internalType":"address"}],"anonymous":false},{"type":"event","name":"CheckoutCompleted","inputs":[{"name":"payer","type":"address","indexed":true,"internalType":"address"},{"name":"recipient","type":"address","indexed":true,"internalType":"address"},{"name":"filledCount","type":"uint256","indexed":false,"internalType":"uint256"},{"name":"skippedCount","type":"uint256","indexed":false,"internalType":"uint256"},{"name":"ethSpent","type":"uint256","indexed":false,"internalType":"uint256"},{"name":"ethRefunded","type":"uint256","indexed":false,"internalType":"uint256"}],"anonymous":false},{"type":"event","name":"CheckoutItemProcessed","inputs":[{"name":"itemIndex","type":"uint256","indexed":false,"internalType":"uint256"},{"name":"itemKind","type":"uint8","indexed":false,"internalType":"uint8"},{"name":"contractAddress","type":"address","indexed":true,"internalType":"address"},{"name":"payer","type":"address","indexed":true,"internalType":"address"},{"name":"recipient","type":"address","indexed":true,"internalType":"address"},{"name":"tokenId","type":"uint256","indexed":false,"internalType":"uint256"},{"name":"seller","type":"address","indexed":false,"internalType":"address"},{"name":"currencyAddress","type":"address","indexed":false,"internalType":"address"},{"name":"price","type":"uint256","indexed":false,"internalType":"uint256"},{"name":"quantity","type":"uint256","indexed":false,"internalType":"uint256"},{"name":"filled","type":"bool","indexed":false,"internalType":"bool"},{"name":"failureStage","type":"uint8","indexed":false,"internalType":"enum IRareERC1155MarketplaceTypes.CheckoutFailureStage"},{"name":"reason","type":"bytes4","indexed":false,"internalType":"bytes4"},{"name":"failureData","type":"bytes","indexed":false,"internalType":"bytes"},{"name":"totalPaid","type":"uint256","indexed":false,"internalType":"uint256"}],"anonymous":false},{"type":"event","name":"ContractPausedUpdated","inputs":[{"name":"isPaused","type":"bool","indexed":false,"internalType":"bool"}],"anonymous":false},{"type":"event","name":"Initialized","inputs":[{"name":"version","type":"uint8","indexed":false,"internalType":"uint8"}],"anonymous":false},{"type":"event","name":"MarketplaceDependencyUpdated","inputs":[{"name":"field","type":"bytes32","indexed":true,"internalType":"bytes32"},{"name":"dependency","type":"address","indexed":true,"internalType":"address"}],"anonymous":false},{"type":"event","name":"MintDirectSale","inputs":[{"name":"contractAddress","type":"address","indexed":true,"internalType":"address"},{"name":"tokenId","type":"uint256","indexed":false,"internalType":"uint256"},{"name":"payer","type":"address","indexed":true,"internalType":"address"},{"name":"recipient","type":"address","indexed":true,"internalType":"address"},{"name":"seller","type":"address","indexed":false,"internalType":"address"},{"name":"quantity","type":"uint256","indexed":false,"internalType":"uint256"},{"name":"currency","type":"address","indexed":false,"internalType":"address"},{"name":"price","type":"uint256","indexed":false,"internalType":"uint256"}],"anonymous":false},{"type":"event","name":"MintDirectSaleCancelled","inputs":[{"name":"contractAddress","type":"address","indexed":true,"internalType":"address"},{"name":"tokenId","type":"uint256","indexed":true,"internalType":"uint256"}],"anonymous":false},{"type":"event","name":"OfferAccepted","inputs":[{"name":"seller","type":"address","indexed":true,"internalType":"address"},{"name":"buyer","type":"address","indexed":true,"internalType":"address"},{"name":"contractAddress","type":"address","indexed":true,"internalType":"address"},{"name":"tokenId","type":"uint256","indexed":false,"internalType":"uint256"},{"name":"currency","type":"address","indexed":false,"internalType":"address"},{"name":"price","type":"uint256","indexed":false,"internalType":"uint256"},{"name":"quantity","type":"uint256","indexed":false,"internalType":"uint256"}],"anonymous":false},{"type":"event","name":"OfferCancelled","inputs":[{"name":"buyer","type":"address","indexed":true,"internalType":"address"},{"name":"contractAddress","type":"address","indexed":true,"internalType":"address"},{"name":"tokenId","type":"uint256","indexed":true,"internalType":"uint256"},{"name":"currency","type":"address","indexed":false,"internalType":"address"},{"name":"price","type":"uint256","indexed":false,"internalType":"uint256"},{"name":"quantity","type":"uint256","indexed":false,"internalType":"uint256"},{"name":"marketplaceFeeRemaining","type":"uint256","indexed":false,"internalType":"uint256"}],"anonymous":false},{"type":"event","name":"OfferMade","inputs":[{"name":"buyer","type":"address","indexed":true,"internalType":"address"},{"name":"contractAddress","type":"address","indexed":true,"internalType":"address"},{"name":"tokenId","type":"uint256","indexed":true,"internalType":"uint256"},{"name":"currency","type":"address","indexed":false,"internalType":"address"},{"name":"price","type":"uint256","indexed":false,"internalType":"uint256"},{"name":"quantity","type":"uint256","indexed":false,"internalType":"uint256"},{"name":"marketplaceFee","type":"uint256","indexed":false,"internalType":"uint256"},{"name":"expirationTime","type":"uint256","indexed":false,"internalType":"uint256"}],"anonymous":false},{"type":"event","name":"OwnershipTransferred","inputs":[{"name":"previousOwner","type":"address","indexed":true,"internalType":"address"},{"name":"newOwner","type":"address","indexed":true,"internalType":"address"}],"anonymous":false},{"type":"event","name":"PrepareMintDirectSale","inputs":[{"name":"contractAddress","type":"address","indexed":true,"internalType":"address"},{"name":"tokenId","type":"uint256","indexed":true,"internalType":"uint256"},{"name":"seller","type":"address","indexed":true,"internalType":"address"},{"name":"currency","type":"address","indexed":false,"internalType":"address"},{"name":"price","type":"uint256","indexed":false,"internalType":"uint256"},{"name":"startTime","type":"uint256","indexed":false,"internalType":"uint256"},{"name":"maxMints","type":"uint256","indexed":false,"internalType":"uint256"},{"name":"splitRecipients","type":"address[]","indexed":false,"internalType":"address payable[]"},{"name":"splitRatios","type":"uint8[]","indexed":false,"internalType":"uint8[]"}],"anonymous":false},{"type":"event","name":"SalePriceCancelled","inputs":[{"name":"seller","type":"address","indexed":true,"internalType":"address"},{"name":"contractAddress","type":"address","indexed":true,"internalType":"address"},{"name":"tokenId","type":"uint256","indexed":true,"internalType":"uint256"}],"anonymous":false},{"type":"event","name":"SalePriceSet","inputs":[{"name":"seller","type":"address","indexed":true,"internalType":"address"},{"name":"contractAddress","type":"address","indexed":true,"internalType":"address"},{"name":"tokenId","type":"uint256","indexed":true,"internalType":"uint256"},{"name":"currency","type":"address","indexed":false,"internalType":"address"},{"name":"price","type":"uint256","indexed":false,"internalType":"uint256"},{"name":"quantity","type":"uint256","indexed":false,"internalType":"uint256"},{"name":"expirationTime","type":"uint256","indexed":false,"internalType":"uint256"},{"name":"splitRecipients","type":"address[]","indexed":false,"internalType":"address payable[]"},{"name":"splitRatios","type":"uint8[]","indexed":false,"internalType":"uint8[]"}],"anonymous":false},{"type":"event","name":"SetTokenAllowListConfig","inputs":[{"name":"contractAddress","type":"address","indexed":true,"internalType":"address"},{"name":"tokenId","type":"uint256","indexed":true,"internalType":"uint256"},{"name":"root","type":"bytes32","indexed":false,"internalType":"bytes32"},{"name":"endTimestamp","type":"uint256","indexed":false,"internalType":"uint256"}],"anonymous":false},{"type":"event","name":"Sold","inputs":[{"name":"seller","type":"address","indexed":false,"internalType":"address"},{"name":"payer","type":"address","indexed":true,"internalType":"address"},{"name":"contractAddress","type":"address","indexed":true,"internalType":"address"},{"name":"recipient","type":"address","indexed":true,"internalType":"address"},{"name":"tokenId","type":"uint256","indexed":false,"internalType":"uint256"},{"name":"currency","type":"address","indexed":false,"internalType":"address"},{"name":"price","type":"uint256","indexed":false,"internalType":"uint256"},{"name":"quantity","type":"uint256","indexed":false,"internalType":"uint256"}],"anonymous":false},{"type":"event","name":"TokenMintLimitSet","inputs":[{"name":"contractAddress","type":"address","indexed":true,"internalType":"address"},{"name":"tokenId","type":"uint256","indexed":true,"internalType":"uint256"},{"name":"limit","type":"uint256","indexed":false,"internalType":"uint256"}],"anonymous":false},{"type":"event","name":"TokenTxLimitSet","inputs":[{"name":"contractAddress","type":"address","indexed":true,"internalType":"address"},{"name":"tokenId","type":"uint256","indexed":true,"internalType":"uint256"},{"name":"limit","type":"uint256","indexed":false,"internalType":"uint256"}],"anonymous":false},{"type":"event","name":"Upgraded","inputs":[{"name":"implementation","type":"address","indexed":true,"internalType":"address"}],"anonymous":false},{"type":"error","name":"AddressNotAllowlisted","inputs":[{"name":"_account","type":"address","internalType":"address"}]},{"type":"error","name":"AllowListEndTimestampInvalid","inputs":[{"name":"_endTimestamp","type":"uint256","internalType":"uint256"},{"name":"_currentTime","type":"uint256","internalType":"uint256"}]},{"type":"error","name":"ApprovalManagerCannotBeZero","inputs":[]},{"type":"error","name":"BatchSizeExceeded","inputs":[{"name":"supplied","type":"uint256","internalType":"uint256"},{"name":"max","type":"uint256","internalType":"uint256"}]},{"type":"error","name":"CheckoutItemExecutionFailed","inputs":[{"name":"_stage","type":"uint8","internalType":"enum IRareERC1155MarketplaceTypes.CheckoutFailureStage"},{"name":"_failureData","type":"bytes","internalType":"bytes"}]},{"type":"error","name":"ContractHasNoOwner","inputs":[{"name":"_contractAddress","type":"address","internalType":"address"}]},{"type":"error","name":"ContractPaused","inputs":[]},{"type":"error","name":"CurrencyMismatch","inputs":[{"name":"_suppliedCurrency","type":"address","internalType":"address"},{"name":"_configuredCurrency","type":"address","internalType":"address"}]},{"type":"error","name":"CurrencyNotApproved","inputs":[{"name":"_currencyAddress","type":"address","internalType":"address"}]},{"type":"error","name":"DirectModuleCallUnsupported","inputs":[]},{"type":"error","name":"DirectSaleNotConfigured","inputs":[{"name":"_contractAddress","type":"address","internalType":"address"},{"name":"_tokenId","type":"uint256","internalType":"uint256"}]},{"type":"error","name":"ERC20FeeOnTransferUnsupported","inputs":[{"name":"_currencyAddress","type":"address","internalType":"address"},{"name":"_expectedAmount","type":"uint256","internalType":"uint256"},{"name":"_receivedAmount","type":"uint256","internalType":"uint256"}]},{"type":"error","name":"EmptyBatch","inputs":[]},{"type":"error","name":"ExecutionModuleDelegateCallFailed","inputs":[{"name":"_revertData","type":"bytes","internalType":"bytes"}]},{"type":"error","name":"IncorrectETHAmount","inputs":[{"name":"_requiredAmount","type":"uint256","internalType":"uint256"},{"name":"_suppliedAmount","type":"uint256","internalType":"uint256"}]},{"type":"error","name":"InsufficientCheckoutERC20Allowance","inputs":[{"name":"_currencyAddress","type":"address","internalType":"address"},{"name":"_requiredAmount","type":"uint256","internalType":"uint256"},{"name":"_availableAmount","type":"uint256","internalType":"uint256"}]},{"type":"error","name":"InsufficientCheckoutERC20Balance","inputs":[{"name":"_currencyAddress","type":"address","internalType":"address"},{"name":"_requiredAmount","type":"uint256","internalType":"uint256"},{"name":"_availableAmount","type":"uint256","internalType":"uint256"}]},{"type":"error","name":"InsufficientCheckoutETH","inputs":[{"name":"_requiredAmount","type":"uint256","internalType":"uint256"},{"name":"_availableAmount","type":"uint256","internalType":"uint256"}]},{"type":"error","name":"InsufficientTokenBalance","inputs":[{"name":"_account","type":"address","internalType":"address"},{"name":"_contractAddress","type":"address","internalType":"address"},{"name":"_tokenId","type":"uint256","internalType":"uint256"},{"name":"_requestedQuantity","type":"uint256","internalType":"uint256"},{"name":"_availableQuantity","type":"uint256","internalType":"uint256"}]},{"type":"error","name":"InvalidERC1155Contract","inputs":[{"name":"_contractAddress","type":"address","internalType":"address"}]},{"type":"error","name":"InvalidERC1155Mint","inputs":[{"name":"_contractAddress","type":"address","internalType":"address"},{"name":"_tokenId","type":"uint256","internalType":"uint256"},{"name":"_buyer","type":"address","internalType":"address"},{"name":"_quantity","type":"uint256","internalType":"uint256"}]},{"type":"error","name":"InvalidERC1155Transfer","inputs":[{"name":"_contractAddress","type":"address","internalType":"address"},{"name":"_tokenId","type":"uint256","internalType":"uint256"},{"name":"_seller","type":"address","internalType":"address"},{"name":"_buyer","type":"address","internalType":"address"},{"name":"_quantity","type":"uint256","internalType":"uint256"}]},{"type":"error","name":"InvalidExecutionModule","inputs":[]},{"type":"error","name":"MarketConfigAddressCannotBeZero","inputs":[{"name":"_field","type":"bytes32","internalType":"bytes32"}]},{"type":"error","name":"MarketplaceNotApproved","inputs":[{"name":"_account","type":"address","internalType":"address"},{"name":"_contractAddress","type":"address","internalType":"address"}]},{"type":"error","name":"MaxMintExceeded","inputs":[{"name":"_requestedQuantity","type":"uint256","internalType":"uint256"},{"name":"_maxMints","type":"uint256","internalType":"uint256"}]},{"type":"error","name":"MintLimitExceeded","inputs":[{"name":"_contractAddress","type":"address","internalType":"address"},{"name":"_tokenId","type":"uint256","internalType":"uint256"},{"name":"_account","type":"address","internalType":"address"},{"name":"_requestedQuantity","type":"uint256","internalType":"uint256"},{"name":"_mintedQuantity","type":"uint256","internalType":"uint256"},{"name":"_limit","type":"uint256","internalType":"uint256"}]},{"type":"error","name":"MsgValueMustBeZero","inputs":[]},{"type":"error","name":"MsgValueUnsupportedForERC20","inputs":[]},{"type":"error","name":"NotContractOwner","inputs":[{"name":"_contractAddress","type":"address","internalType":"address"},{"name":"_account","type":"address","internalType":"address"}]},{"type":"error","name":"OfferDoesNotExist","inputs":[{"name":"_contractAddress","type":"address","internalType":"address"},{"name":"_tokenId","type":"uint256","internalType":"uint256"},{"name":"_buyer","type":"address","internalType":"address"},{"name":"_currencyAddress","type":"address","internalType":"address"}]},{"type":"error","name":"OfferExpirationInvalid","inputs":[{"name":"_expirationTime","type":"uint256","internalType":"uint256"},{"name":"_currentTime","type":"uint256","internalType":"uint256"}]},{"type":"error","name":"OfferExpired","inputs":[{"name":"_contractAddress","type":"address","internalType":"address"},{"name":"_tokenId","type":"uint256","internalType":"uint256"},{"name":"_buyer","type":"address","internalType":"address"},{"name":"_currencyAddress","type":"address","internalType":"address"},{"name":"_expirationTime","type":"uint256","internalType":"uint256"}]},{"type":"error","name":"OfferPriceCannotBeZero","inputs":[]},{"type":"error","name":"PayoutFailed","inputs":[{"name":"_revertData","type":"bytes","internalType":"bytes"}]},{"type":"error","name":"PayoutLengthMismatch","inputs":[{"name":"_recipientsLength","type":"uint256","internalType":"uint256"},{"name":"_amountsLength","type":"uint256","internalType":"uint256"}]},{"type":"error","name":"PayoutTotalMismatch","inputs":[{"name":"_expectedAmount","type":"uint256","internalType":"uint256"},{"name":"_actualAmount","type":"uint256","internalType":"uint256"}]},{"type":"error","name":"PlatformCommissionExceeded","inputs":[{"name":"_platformCommission","type":"uint256","internalType":"uint256"},{"name":"_maxPlatformCommission","type":"uint256","internalType":"uint256"}]},{"type":"error","name":"PriceMismatch","inputs":[{"name":"_suppliedPrice","type":"uint256","internalType":"uint256"},{"name":"_configuredPrice","type":"uint256","internalType":"uint256"}]},{"type":"error","name":"QuantityCannotBeZero","inputs":[]},{"type":"error","name":"QuantityExceedsOfferQuantity","inputs":[{"name":"_requestedQuantity","type":"uint256","internalType":"uint256"},{"name":"_availableQuantity","type":"uint256","internalType":"uint256"}]},{"type":"error","name":"QuantityExceedsSalePriceQuantity","inputs":[{"name":"_requestedQuantity","type":"uint256","internalType":"uint256"},{"name":"_availableQuantity","type":"uint256","internalType":"uint256"}]},{"type":"error","name":"RecipientCannotBeZero","inputs":[]},{"type":"error","name":"RefundFailed","inputs":[{"name":"_revertData","type":"bytes","internalType":"bytes"}]},{"type":"error","name":"RoyaltiesExceedSaleAmount","inputs":[{"name":"_royalties","type":"uint256","internalType":"uint256"},{"name":"_saleAmount","type":"uint256","internalType":"uint256"}]},{"type":"error","name":"RoyaltyRecipientCannotBeZero","inputs":[{"name":"_index","type":"uint256","internalType":"uint256"}]},{"type":"error","name":"SaleNotStarted","inputs":[{"name":"_startTime","type":"uint256","internalType":"uint256"}]},{"type":"error","name":"SalePriceCannotBeZero","inputs":[]},{"type":"error","name":"SalePriceDoesNotExist","inputs":[{"name":"_contractAddress","type":"address","internalType":"address"},{"name":"_tokenId","type":"uint256","internalType":"uint256"},{"name":"_seller","type":"address","internalType":"address"}]},{"type":"error","name":"SalePriceExpirationInvalid","inputs":[{"name":"_expirationTime","type":"uint256","internalType":"uint256"},{"name":"_currentTime","type":"uint256","internalType":"uint256"}]},{"type":"error","name":"SalePriceExpired","inputs":[{"name":"_contractAddress","type":"address","internalType":"address"},{"name":"_tokenId","type":"uint256","internalType":"uint256"},{"name":"_seller","type":"address","internalType":"address"},{"name":"_expirationTime","type":"uint256","internalType":"uint256"}]},{"type":"error","name":"SelfOfferAcceptanceUnsupported","inputs":[{"name":"_buyer","type":"address","internalType":"address"}]},{"type":"error","name":"SelfPurchaseUnsupported","inputs":[{"name":"_seller","type":"address","internalType":"address"}]},{"type":"error","name":"SplitLengthMismatch","inputs":[{"name":"_recipientsLength","type":"uint256","internalType":"uint256"},{"name":"_ratiosLength","type":"uint256","internalType":"uint256"}]},{"type":"error","name":"SplitRatioCannotBeZero","inputs":[{"name":"_index","type":"uint256","internalType":"uint256"}]},{"type":"error","name":"SplitRecipientCannotBeZero","inputs":[{"name":"_index","type":"uint256","internalType":"uint256"}]},{"type":"error","name":"SplitRecipientsExceededMax","inputs":[{"name":"_recipientsLength","type":"uint256","internalType":"uint256"},{"name":"_maxRecipients","type":"uint256","internalType":"uint256"}]},{"type":"error","name":"SplitRecipientsRequired","inputs":[]},{"type":"error","name":"SplitTotalInvalid","inputs":[{"name":"_totalRatio","type":"uint256","internalType":"uint256"},{"name":"_requiredTotal","type":"uint256","internalType":"uint256"}]},{"type":"error","name":"TokenIdsNotStrictlyAscending","inputs":[{"name":"index","type":"uint256","internalType":"uint256"},{"name":"previousTokenId","type":"uint256","internalType":"uint256"},{"name":"tokenId","type":"uint256","internalType":"uint256"}]},{"type":"error","name":"TokenNotFound","inputs":[{"name":"_contractAddress","type":"address","internalType":"address"},{"name":"_tokenId","type":"uint256","internalType":"uint256"}]},{"type":"error","name":"TransactionLimitExceeded","inputs":[{"name":"_contractAddress","type":"address","internalType":"address"},{"name":"_tokenId","type":"uint256","internalType":"uint256"},{"name":"_account","type":"address","internalType":"address"},{"name":"_usedTransactions","type":"uint256","internalType":"uint256"},{"name":"_limit","type":"uint256","internalType":"uint256"}]},{"type":"error","name":"UnsupportedCheckoutItemKind","inputs":[{"name":"_itemKind","type":"uint8","internalType":"uint8"}]}],"bytecode":{"object":"0x60a08060405234620000e157306080526000549060ff8260081c166200008f575060ff8082160362000053575b6040516159559081620000e782396080518181816109240152818161134801526138010152f35b60ff90811916176000557f7f26b83ff96e1f2b6a682f133852f6798a09c465da95921460cefb3847402498602060405160ff8152a1386200002c565b62461bcd60e51b815260206004820152602760248201527f496e697469616c697a61626c653a20636f6e747261637420697320696e697469604482015266616c697a696e6760c81b6064820152608490fd5b600080fdfe6080604052600436101561001257600080fd5b60003560e01c8063176ab440146102f75780631b19ab9b146102f257806321ede032146102ed57806328fbba03146102e85780632f79f335146102e35780633492e5a8146102de5780633659cfe6146102d9578063369679a4146102d4578063373a9412146102cf57806342230aba146102ca5780634f1ef286146102c557806352d1902d146102c0578063552f791d146102bb5780635a501f8f146102b65780635e50c42e146102b1578063614bd944146102ac57806363cf9cef146102a75780636442950e146102a25780636e2f4d8b1461029d578063715018a6146102985780638760251a14610293578063882796f11461028e5780638da5cb5b146102895780639400d60114610284578063a0f597dd1461027f578063a2d44e321461027a578063a3eaf4d914610275578063af231a5814610270578063b187bd261461026b578063b38df71f14610266578063b8e6b50f14610261578063be5421411461025c578063bf3d90f814610257578063c306b37814610252578063c7c83d171461024d578063c7ec1b9814610248578063cfdbf25414610243578063d7a9fb7c1461023e578063d80b23e314610239578063e3409ce314610234578063e4e87e3b1461022f578063e92f94d11461022a578063ed5b25b514610225578063f2fde38b14610220578063ff3a52d41461021b5763ff5c83a41461021657600080fd5b613332565b612f4c565b612ebb565b612e85565b612e5f565b612d85565b612c3c565b612b62565b612a89565b612a6d565b612996565b612960565b6127a5565b612735565b6124d2565b6123b2565b611feb565b611fbb565b611ef0565b611ed4565b611d79565b611d0a565b611cd4565b611cab565b611c3c565b611c0d565b611baf565b611ace565b611966565b61189c565b611654565b611495565b611433565b6113f5565b611335565b6112af565b610f5e565b610bf8565b610b23565b6108fd565b610827565b61073a565b610663565b610566565b610431565b61031f565b6001600160a01b0381160361030d57565b600080fd5b359061031d826102fc565b565b3461030d57602036600319011261030d5760043561033c816102fc565b6103446133a3565b61034d8161531d565b73__$c98ca6a62396e5a7a1471db151198a1f31$__90813b1561030d5760405163ed56be5b60e01b815260008051602061584083398151915260048201526001600160a01b039091166024820181905291600090829060449082905af480156103fc576103e3575b50734d41524b4554504c4143455f53455454494e475360601b6000805160206158a0833981519152600080a3005b806103f06103f692611149565b8061132a565b386103b5565b61359f565b9181601f8401121561030d578235916001600160401b03831161030d576020808501946060850201011161030d57565b60a036600319011261030d57600435610449816102fc565b602435610455816102fc565b60443590610462826102fc565b6064359061046f826102fc565b6084356001600160401b03811161030d57610491909291923690600401610401565b909261049b61435f565b6104a3615210565b6000805160206158c08339815191525460408051631b19ab9b60e01b6020808301919091526001600160a01b03998a16602483015293891660448201529688166064880152938716608487015260a060a487015260c486018390529095169460e4850193926000915b83831061053d57610530878961052b828a03601f19810184528361121f565b6151bd565b5061053b6001606555565b005b84358652848101358682015284820135868301526060958601959094019360019092019161050c565b3461030d57602036600319011261030d57600435610583816102fc565b61058b6133a3565b6105948161535c565b73__$c98ca6a62396e5a7a1471db151198a1f31$__90813b1561030d5760405163143df10960e11b815260008051602061584083398151915260048201526001600160a01b039091166024820181905291600090829060449082905af480156103fc57610624575b506d524f59414c54595f454e47494e4560901b6000805160206158a0833981519152600080a3005b806103f061063192611149565b386105fc565b606090600319011261030d5760043561064f816102fc565b9060243590604435610660816102fc565b90565b3461030d5760206106c561067636610637565b6001600160a01b0392831660009081527f5e94cc2b8b9fd616c1ffff3497627b534929331e1f3b26d7dc3360464546d51086526040808220938252928652828120919093168352602052902090565b54604051908152f35b9181601f8401121561030d578235916001600160401b03831161030d576020808501948460051b01011161030d57565b90604060031983011261030d57600435610717816102fc565b91602435906001600160401b03821161030d57610736916004016106ce565b9091565b3461030d57610748366106fe565b909161075261435f565b61075c828461570b565b60005b8281106107705761053b6001606555565b8061077f61081c9285876143b5565b3561078984613e76565b600082815260209182526040808220338352909252206002015415610821576107e76107e2336107cb846107bc89613e76565b90600052602052604060002090565b9060018060a01b0316600052602052604060002090565b6144e6565b6001600160a01b038416337f46227bd805037a939224e05cd991a64cb464f4b5c5317858af210838e59ce390600080a4613d70565b61075f565b50613d70565b3461030d57602036600319011261030d57600435610844816102fc565b61084c6133a3565b61085581615395565b73__$c98ca6a62396e5a7a1471db151198a1f31$__90813b1561030d5760405163148282a760e21b815260008051602061584083398151915260048201526001600160a01b039091166024820181905291600090829060449082905af480156103fc576108ea575b50724e4554574f524b5f42454e454649434941525960681b6000805160206158a0833981519152600080a3005b806103f06108f792611149565b386108bd565b3461030d57602036600319011261030d5760043561091a816102fc565b6001600160a01b037f000000000000000000000000000000000000000000000000000000000000000081169190610953308414156134ce565b61097060008051602061588083398151915293828554161461352f565b6109786133a3565b60405190610985826111e9565b600082527f4910fdfa16fed3260ed0e7147f7cc6da11a60208b5b9406d12a635614ffd91435460ff16156109bf57505061053b9150613658565b6020600491604094939451928380926352d1902d60e01b825286165afa60009181610a1a575b50610a075760405162461bcd60e51b815280610a0360048201613609565b0390fd5b61053b93610a1591146135ab565b6136e8565b610a3c91925060203d8111610a43575b610a34818361121f565b810190613590565b90386109e5565b503d610a2a565b90815180825260208080930193019160005b828110610a6a575050505090565b83516001600160a01b031685529381019392810192600101610a5c565b90815180825260208080930193019160005b828110610aa7575050505090565b835160ff1685529381019392810192600101610a99565b90610660916020815260018060a01b03825116602082015260208201516040820152604082015160608201526060820151608082015260a0610b0e608084015160c08385015260e0840190610a4a565b9201519060c0601f1982850301910152610a87565b3461030d57610bf4610b92610b3736610637565b90604093928491610b74835192610b4d84611161565b606060a0600095868152866020820152868882015286838201528260808201520152613e76565b908252602052209060018060a01b0316600052602052604060002090565b90610be56005825193610ba485611161565b80546001600160a01b031685526001810154602086015260028101548486015260038101546060860152610bda60048201614a74565b608086015201614acc565b60a08301525191829182610abe565b0390f35b3461030d5760408060031936011261030d576004908135610c18816102fc565b6024356001600160401b03811161030d57610c369036908501610401565b90610c3f61435f565b610c47615210565b610c58610c543385615674565b1590565b610d7057610c69828295939561528f565b6001600160a01b0383169160005b858110610c885761053b6001606555565b610c938187856143fd565b35602080610ca2848a886143fd565b013584610cb0858b896143fd565b013591610cbd848a6155e9565b81151580610d66575b610d4557828892610d257fa3f36b03a37e1948b5a4d52ddc1d9f62ab7d4e887e3a0a03e0c68d40f6075f3f93610d14886107bc8f610d409c9b9a610d08611240565b95888752860152613eaf565b906020600191805184550151910155565b8751908152602081019190915280604081015b0390a3613d70565b610c77565b8551639359452360e01b8152808c0184815242602082015281906040010390fd5b5042831115610cc6565b8351600162bed83560e01b0319815280610a033386838a01613c79565b906007821015610d9a5752565b634e487b7160e01b600052602160045260246000fd5b60005b838110610dc35750506000910152565b8181015183820152602001610db3565b90602091610dec81518092818552858086019101610db0565b601f01601f1916010190565b9060209182815260c09283820191835193845183830152828501516040908184015283818701516060978891828701520151926080938486015201519660a0908180860152885180975260e0918286019487848a60051b8901019b01996000975b8a8910610e6f5750505050505050505050505090565b909192939495969798999a9b8a806001928f60df19868303018d52519081518152610ea2838301518483019060ff169052565b818c01516001600160a01b0316818d01528187015181880152878201516001600160a01b031688820152818901516001600160a01b0316818a0152818a0151818b01528a8201518b82015261010080830151151590820152610f0d6101208084015190830190610d8d565b610140828101516001600160e01b03191690820152610f3d61016080840151906101a08091850152830190610dd3565b91610180809101519101529e0199019901979a999896959493929190610e59565b610f67366106fe565b906040918251610f768161117c565b835192610f8284611197565b600080855260209481868201528187820152856060948284878095015281520152610fab61435f565b610fb3615210565b60018060a01b03938085600080516020615820833981519152541698885196632111855d60e11b89890152606488019116602488015288604488015252608485019160848260051b8701019484825b84841061104d575050610bf4896110388a61102b8b8f61052b828e03601f19810184528361121f565b80518101820191016149e7565b906110436001606555565b5191829182610df8565b90919293949596608319898203018752873560fe198436030181121561112f578a6111206001938e6110c4888596019160ff833561108a81613cba565b1684526110aa61109b878501610312565b6001600160a01b031685880152565b6110b5818401610312565b6001600160a01b031690840152565b6110e16110d28a8301610312565b6001600160a01b0316838b0152565b6080808201359083015260a0808201359083015260c0808201359083015261110e60e091828101906146ee565b91909261010080928201520191614722565b99019701959401929190611002565b8280fd5b634e487b7160e01b600052604160045260246000fd5b6001600160401b03811161115c57604052565b611133565b60c081019081106001600160401b0382111761115c57604052565b604081019081106001600160401b0382111761115c57604052565b608081019081106001600160401b0382111761115c57604052565b61014081019081106001600160401b0382111761115c57604052565b60e081019081106001600160401b0382111761115c57604052565b602081019081106001600160401b0382111761115c57604052565b606081019081106001600160401b0382111761115c57604052565b90601f801991011681019081106001600160401b0382111761115c57604052565b6040519061031d8261117c565b6040519061031d826111b2565b6040519061031d826111ce565b6040519061031d82611161565b604051906101a082018281106001600160401b0382111761115c57604052565b6001600160401b03811161115c57601f01601f191660200190565b604036600319011261030d576004356112c7816102fc565b602435906001600160401b03821161030d573660238301121561030d578160040135906112f382611294565b91611301604051938461121f565b808352366024828601011161030d57602081600092602461053b970183870137840101526137f7565b600091031261030d57565b3461030d57600036600319011261030d577f00000000000000000000000000000000000000000000000000000000000000006001600160a01b0316300361138f576040516000805160206158808339815191528152602090f35b60405162461bcd60e51b815260206004820152603860248201527f555550535570677261646561626c653a206d757374206e6f742062652063616c6044820152771b1959081d1a1c9bdd59da0819195b1959d85d1958d85b1b60421b6064820152608490fd5b3461030d57604036600319011261030d5761141a600435611415816102fc565b613ee8565b6024356000526020526020604060002054604051908152f35b3461030d5760206106c561144636610637565b6001600160a01b0392831660009081527f5e94cc2b8b9fd616c1ffff3497627b534929331e1f3b26d7dc3360464546d51286526040808220938252928652828120919093168352602052902090565b3461030d576114a3366106fe565b90916114ad61435f565b6114ba610c543383615674565b61156b576114c8828461570b565b60005b8281106114dc5761053b6001606555565b806114eb6115669285876143b5565b3561151861150c6114ff836107bc88613f21565b546001600160a01b031690565b6001600160a01b031690565b156108215761153261152d826107bc87613f21565b6143c5565b6001600160a01b0384167fda6836b3af7ccd9683b9c04bdbe253e29f59637fae61c508b62142e0c45b6dea600080a3613d70565b6114cb565b604051600162bed83560e01b03198152908190610a0390339060048401613c79565b81516001600160a01b031681526101408101929161031d91906020818101516001600160a01b0316908301526040818101516001600160a01b0316908301526060818101516001600160a01b0316908301526080818101516001600160a01b03169083015260a0818101516001600160a01b03169083015260c0818101516001600160a01b03169083015260e0818101516001600160a01b031690830152610100818101516001600160a01b031690830152610120908101516001600160a01b0316910152565b3461030d5760008060031936011261189957610bf49061188d604051611679816111b2565b8281528260208201528260408201528260608201528260808201528260a08201528260c08201528260e08201526101009280848301526101208092015261185c6116c161124d565b600080516020615840833981519152546001600160a01b03168152936000805160206158608339815191525461170b906001600160a01b03165b6001600160a01b03166020870152565b7f5e94cc2b8b9fd616c1ffff3497627b534929331e1f3b26d7dc3360464546d502546001600160a01b031660408601527f5e94cc2b8b9fd616c1ffff3497627b534929331e1f3b26d7dc3360464546d503546001600160a01b031660608601527f5e94cc2b8b9fd616c1ffff3497627b534929331e1f3b26d7dc3360464546d504546001600160a01b031660808601527f5e94cc2b8b9fd616c1ffff3497627b534929331e1f3b26d7dc3360464546d505546001600160a01b031660a08601527f5e94cc2b8b9fd616c1ffff3497627b534929331e1f3b26d7dc3360464546d506546001600160a01b031660c08601527f5e94cc2b8b9fd616c1ffff3497627b534929331e1f3b26d7dc3360464546d507546001600160a01b031660e08601527f5e94cc2b8b9fd616c1ffff3497627b534929331e1f3b26d7dc3360464546d508546001600160a01b031690850152565b7f5e94cc2b8b9fd616c1ffff3497627b534929331e1f3b26d7dc3360464546d509546001600160a01b031690830152565b6040519182918261158d565b80fd5b3461030d57602036600319011261030d576004356118b9816102fc565b6118c16133a3565b6118ca8161546a565b6118d3816133fb565b6001600160a01b031678434845434b4f55545f455845435554494f4e5f4d4f44554c4560381b6000805160206158a0833981519152600080a3005b604060031982011261030d57600435611926816102fc565b916024356001600160401b039283821161030d578060238301121561030d57816004013593841161030d5760248460061b8301011161030d576024019190565b3461030d576119743661190e565b61197f92919261435f565b611987615210565b611994610c543384615674565b611a3d576119a281846152d6565b60005b8181106119b65761053b6001606555565b806119c5611a3892848761440d565b356119d081866155e9565b6020806119de84878a61440d565b01356119ed836107bc89613ee8565b556119f983868961440d565b60405191013581526001600160a01b038616907f2f2a73977f9734e3b74f4efe888b44cdcca6903d8ab2b5be49c3969cc6cb1b62908060208101610d38565b6119a5565b604051600162bed83560e01b0319815280610a03338560048401613c79565b90610660916020815260018060a01b0380835116602083015260208301511660408201526040820151606082015260608201516080820152608082015160a082015260c0611ab960a084015160e083850152610100840190610a4a565b9201519060e0601f1982850301910152610a87565b3461030d5760408060031936011261030d5780610bf491600435611af1816102fc565b611b2d825191611b00836111ce565b606060c0600094858152856020820152858782015285838201528560808201528260a08201520152613f21565b60243582526020522090611ba06006825193611b48856111ce565b80546001600160a01b031685526001810154611b6c906001600160a01b03166116fb565b6002810154848601526003810154606086015260048101546080860152611b9560058201614a74565b60a086015201614acc565b60c08301525191829182611a5c565b3461030d5760008060031936011261189957611bc96133a3565b603380546001600160a01b0319811690915581906001600160a01b03167f8be0079c531659141344cd1fd0a4f28419497f9722a3daafe3b4186f6b6457e08280a380f35b3461030d57604036600319011261030d5761141a600435611c2d816102fc565b613f5a565b8015150361030d57565b3461030d57602036600319011261030d577fae6fb668d2dacbb6cc6e620b898a7166d67d7838c94ddeff2dbdf55995e9b1926020600435611c7c81611c32565b611c846133a3565b15156000805160206158e083398151915260ff1981541660ff8316179055604051908152a1005b3461030d57600036600319011261030d576033546040516001600160a01b039091168152602090f35b3461030d57600036600319011261030d57600080516020615820833981519152546040516001600160a01b039091168152602090f35b3461030d57602036600319011261030d57600435611d27816102fc565b611d2f6133a3565b611d388161546a565b611d4181613429565b6001600160a01b03167554524144455f455845435554494f4e5f4d4f44554c4560501b6000805160206158a0833981519152600080a3005b60808060031936011261030d5760043590611d93826102fc565b60243591611da0836102fc565b60443591611dad836102fc565b6064356001600160401b03811161030d57611dcc9036906004016106ce565b611dd792919261435f565b611ddf615210565b60018060a01b039581876000805160206158c08339815191525416956040988951988160209563516a271960e11b878d01528160a48d01951660248d01521660448b01521660648901528460848901525260c486019660c48360051b88010197856000925b858410611e63576105308a8a61052b828f03601f19810184528361121f565b909192939495969960c3198a82030184528a35607e198436030181121561030d5786611ec26001938b8088859601928335815285840135868201528884013589820152611eb5606094858101906146ee565b9390948201520191614722565b9c019401940192969594939190611e44565b3461030d57600036600319011261030d57602060405160328152f35b3461030d57602036600319011261030d57600435611f0d816102fc565b611f156133a3565b611f1e816153d3565b73__$c98ca6a62396e5a7a1471db151198a1f31$__90813b1561030d57604051631d1d389760e11b815260008051602061584083398151915260048201526001600160a01b039091166024820181905291600090829060449082905af480156103fc57611fa8575b50675041594d454e545360c01b6000805160206158a0833981519152600080a3005b806103f0611fb592611149565b38611f86565b3461030d57600036600319011261030d57602060ff6000805160206158e083398151915254166040519015158152f35b60c036600319011261030d576004803590612005826102fc565b6024359160443591612016836102fc565b606435936084359160a4359461202a61435f565b612032615210565b61203b856154a0565b73__$11854c5905aa23948096e0e4d7059bb9de$__92833b1561030d57604094855198635e157ccf60e11b8a526000998a818061207a888a8301613c93565b03818a5af480156103fc5761239f575b50801561238f57811561237f5788151580612375575b612354576120ae8282613fcc565b600080516020615860833981519152549098906120d3906001600160a01b031661150c565b9860208951809b6361fe24a960e11b825281806120f7868d83019190602083019252565b03915afa998a156103fc578c9a612330575b508961211491614511565b988b883b156118995789516338fa83e760e01b81526000805160206158408339815191528982019081526001600160a01b0389166020820152604081019c909c529a8b90819060600103818b5af49182156103fc578c9a7ec827db726736dd1c3f5c4643456d97cc22d1613afeae6f8576124e65e8e1bc9361231d575b506122b16121c46121bf896107cb6121ac8b6107bc88613f93565b3360009081526020919091526040902090565b61451e565b9c6122738c886121d261125a565b6001600160a01b038d168152918960208401528201528860608201528560808201528560a08201528260c08201526122168b6107cb8c6107cb33916107bc8b613f93565b815181546001600160a01b0319166001600160a01b03919091161781559060069060c0906020810151600185015560408101516002850155606081015160038501556080810151600485015560a081015160058501550151910155565b8b516001600160a01b038a811682526020820197909752604081019790975260608701939093526080860192909252909216923392819060a0820190565b0390a4602086015193608081880151970151843b15612319576122e9915197889687958695634c4c261960e01b875233918701614577565b03915af480156103fc57612306575b506123036001606555565b80f35b806103f061231392611149565b386122f8565b8680fd5b806103f061232a92611149565b38612191565b612114919a5061234d9060203d8111610a4357610a34818361121f565b9990612109565b8651633312a4fd60e21b81528086018a815242602082015281906040010390fd5b50428911156120a0565b865163c6b949a960e01b81528590fd5b865163473ae14d60e01b81528590fd5b806103f06123ac92611149565b3861208a565b3461030d5761010036600319011261030d576004356123d0816102fc565b604435906123dd826102fc565b6064356123e9816102fc565b6001600160401b039260c43584811161030d5761240a9036906004016106ce565b9160e43595861161030d5761242661053b9636906004016106ce565b95909460a435926084359260243590614746565b9060a060031983011261030d57600435612453816102fc565b91602435612460816102fc565b91604435916001600160401b039081841161030d578060238501121561030d5783600401359382851161030d578160248660071b8301011161030d57602401939260643583811161030d57826124b8916004016106ce565b9390939260843591821161030d57610736916004016106ce565b3461030d576124e03661243a565b969492939091956124ef61435f565b6124f7615210565b612500866154a0565b61250d610c543388615674565b6127165761251b828561523b565b73__$11854c5905aa23948096e0e4d7059bb9de$__97883b1561030d57604093845199635e157ccf60e11b8b5260009a8b818061255b8860048301613c93565b0381855af480156103fc57612703575b508a813b15611899578284928c8b6125988b51968795869485946376fb859760e01b865260048601613cc5565b03915af480156103fc576126f0575b50895b8481106125bc578a6123036001606555565b8888888888888f888a916125d18a8689613d9a565b35976125dd898b6155e9565b8a602087898b84846125f0828685613d9a565b0135936125fc92613d9a565b0135898c606095869261260e92613d9a565b01359061261961125a565b338152926001600160a01b038b1684860152838d0152848301526080820152612643368686613dc6565b60a08201528b8d612655368a8a613e1e565b60c084015261266390613f21565b60009182526020526040902090612679916141bd565b6126848d898c613d9a565b0135988c89612694828b85613d9a565b0135986126a092613d9a565b01359651968796339b600160a01b6001900316996126be9789614319565b037f4c048dfd080dcfa2cccc41ef603e5f0ed6602ca215a41581d653aadf841a560b91a46126eb90613d70565b6125aa565b806103f06126fd92611149565b386125a7565b806103f061271092611149565b3861256b565b604051600162bed83560e01b0319815280610a03338960048401613c79565b3461030d5760408060031936011261030d5761276f600435612756816102fc565b6000602084516127658161117c565b8281520152613eaf565b6024356000526020528060002081516127878161117c565b60206001835493848452015491019081528251918252516020820152f35b3461030d5761014036600319011261030d576004356127c3816102fc565b602435906127d0826102fc565b6044356127dc816102fc565b6064356127e8816102fc565b6084356127f4816102fc565b60a435612800816102fc565b60c4359061280d826102fc565b60e4359261281a846102fc565b6101043594612828866102fc565b6101243596612836886102fc565b6000549960ff8b60081c1615809b819c612952575b8115612932575b50156128d657612878998b61286f600160ff196000541617600055565b6128bd576139cb565b61287e57005b61288e61ff001960005416600055565b604051600181527f7f26b83ff96e1f2b6a682f133852f6798a09c465da95921460cefb384740249890602090a1005b6128d161010061ff00196000541617600055565b6139cb565b60405162461bcd60e51b815260206004820152602e60248201527f496e697469616c697a61626c653a20636f6e747261637420697320616c72656160448201526d191e481a5b9a5d1a585b1a5e995960921b6064820152608490fd5b303b15915081612944575b5038612852565b6001915060ff16143861293d565b600160ff821610915061284b565b3461030d57600036600319011261030d57600080516020615900833981519152546040516001600160a01b039091168152602090f35b3461030d576129a43661190e565b6129af92919261435f565b6129b7615210565b6129c4610c543384615674565b611a3d576129d281846152d6565b60005b8181106129e65761053b6001606555565b806129f5612a6892848761440d565b35612a0081866155e9565b602080612a0e84878a61440d565b0135612a1d836107bc89613f5a565b55612a2983868961440d565b60405191013581526001600160a01b038616907feead0384c6f48c02c0099b2433359d43617492f06d8e3a59cbe786b9970f7e61908060208101610d38565b6129d5565b3461030d57600036600319011261030d576020604051604b8152f35b3461030d57602036600319011261030d57600435612aa6816102fc565b612aae6133a3565b612ab781615448565b73__$c98ca6a62396e5a7a1471db151198a1f31$__90813b1561030d576040516328b80cf560e21b815260008051602061584083398151915260048201526001600160a01b039091166024820181905291600090829060449082905af480156103fc57612b4f575b507522a92199182fa0a8282927ab20a62fa6a0a720a3a2a960511b6000805160206158a0833981519152600080a3005b806103f0612b5c92611149565b38612b1f565b3461030d57602036600319011261030d57600435612b7f816102fc565b612b876133a3565b612b9081615448565b73__$c98ca6a62396e5a7a1471db151198a1f31$__90813b1561030d57604051631f1afd0d60e01b815260008051602061584083398151915260048201526001600160a01b039091166024820181905291600090829060449082905af480156103fc57612c29575b507622a9219b9918afa0a8282927ab20a62fa6a0a720a3a2a960491b6000805160206158a0833981519152600080a3005b806103f0612c3692611149565b38612bf8565b3461030d57608036600319011261030d57610bf4612cbc612cdc600435612c62816102fc565b6107cb604435612c71816102fc565b60643592612c7e846102fc565b60c060409687928351612c90816111ce565b600093818580935282602082015282878201528260608201528260808201528260a08201520152613f93565b6024358252602052209060018060a01b0316600052602052604060002090565b906006815192612ceb846111ce565b80546001600160a01b03168452600181015460208501526002810154838501526003810154606085015260048101546080850152600581015460a0850152015460c0830152519182918291909160c08060e083019460018060a01b0381511684526020810151602085015260408101516040850152606081015160608501526080810151608085015260a081015160a08501520151910152565b3461030d57602036600319011261030d57600435612da2816102fc565b612daa6133a3565b612db381615406565b73__$c98ca6a62396e5a7a1471db151198a1f31$__90813b1561030d57604051632867932b60e11b815260008051602061584083398151915260048201526001600160a01b039091166024820181905291600090829060449082905af480156103fc57612e4c575b5076415050524f5645445f544f4b454e5f524547495354525960481b6000805160206158a0833981519152600080a3005b806103f0612e5992611149565b38612e1b565b3461030d57612e7e612e7036610637565b91612e7961435f565b6145bd565b6001606555005b3461030d57600036600319011261030d576000805160206158c0833981519152546040516001600160a01b039091168152602090f35b3461030d57602036600319011261030d57600435612ed8816102fc565b612ee06133a3565b6001600160a01b03811615612ef85761053b90613485565b60405162461bcd60e51b815260206004820152602660248201527f4f776e61626c653a206e6577206f776e657220697320746865207a65726f206160448201526564647265737360d01b6064820152608490fd5b3461030d57612f5a3661243a565b90612f6a9792969395949761435f565b612f72615210565b612f7c888661523b565b73__$11854c5905aa23948096e0e4d7059bb9de$__3b1561030d57604051635e157ccf60e11b815260008180612fb58860048301613c93565b038173__$11854c5905aa23948096e0e4d7059bb9de$__5af480156103fc5761331f575b5073__$11854c5905aa23948096e0e4d7059bb9de$__3b1561030d576040516376fb859760e01b81526000818061301686868d8d60048601613cc5565b038173__$11854c5905aa23948096e0e4d7059bb9de$__5af480156103fc5761330c575b50613044836154a0565b600080516020615900833981519152546130889060209061306d906001600160a01b031661150c565b6040518093819263e985e9c560e01b83523360048401613c79565b03816001600160a01b0388165afa9081156103fc576000916132dd575b50156132c15760005b8881106130bf5761053b6001606555565b6130ca818a88613d9a565b35868a60606130f88560406130ef828660206130e783838c613d9a565b013598613d9a565b0135938c613d9a565b013582156132af57811561329d5780151580613293575b61327357604051627eeac760e11b8152336004820152602481018590526020816044816001600160a01b038d165afa9081156103fc57600091613254575b5082811061321757507fe4cf997ce4def583f8220b51e6c89b5dbf6eeded5de4d1d78884a25d2bf46d5d83928961320a8f8f8c918f97918d926131f38a6132129f9e9d8e6131ee916131af6131a0611267565b6001600160a01b039095168552565b60208401528b60408401528460608401526131cb368888613dc6565b60808401526131db368a8a613e1e565b60a08401526107cb33916107bc8d613e76565b61443d565b60405197889760018060a01b03169b339b89614319565b0390a4613d70565b6130ae565b604051636906ef1760e11b81523360048201526001600160a01b038a1660248201526044810186905260648101849052608481019190915260a490fd5b61326d915060203d602011610a4357610a34818361121f565b3861314d565b6040516346a836ff60e11b81526004810191909152426024820152604490fd5b504281111561310f565b60405163c6b949a960e01b8152600490fd5b6040516331cc996d60e11b8152600490fd5b60405163d65b0d6960e01b815280610a03853360048401613c79565b6132ff915060203d602011613305575b6132f7818361121f565b810190614428565b386130a5565b503d6132ed565b806103f061331992611149565b3861303a565b806103f061332c92611149565b38612fd9565b3461030d57602036600319011261030d5760043561334f816102fc565b6133576133a3565b61336081615448565b6001600160a01b031661337281613457565b7722a92198989a9aafa0a8282927ab20a62fa6a0a720a3a2a960411b6000805160206158a0833981519152600080a3005b6033546001600160a01b031633036133b757565b606460405162461bcd60e51b815260206004820152602060248201527f4f776e61626c653a2063616c6c6572206973206e6f7420746865206f776e65726044820152fd5b60008051602061582083398151915280546001600160a01b0319166001600160a01b03909216919091179055565b6000805160206158c083398151915280546001600160a01b0319166001600160a01b03909216919091179055565b60008051602061590083398151915280546001600160a01b0319166001600160a01b03909216919091179055565b603380546001600160a01b039283166001600160a01b0319821681179092559091167f8be0079c531659141344cd1fd0a4f28419497f9722a3daafe3b4186f6b6457e0600080a3565b156134d557565b60405162461bcd60e51b815260206004820152602c60248201527f46756e6374696f6e206d7573742062652063616c6c6564207468726f7567682060448201526b19195b1959d85d1958d85b1b60a21b6064820152608490fd5b1561353657565b60405162461bcd60e51b815260206004820152602c60248201527f46756e6374696f6e206d7573742062652063616c6c6564207468726f7567682060448201526b6163746976652070726f787960a01b6064820152608490fd5b9081602091031261030d575190565b6040513d6000823e3d90fd5b156135b257565b60405162461bcd60e51b815260206004820152602960248201527f45524331393637557067726164653a20756e737570706f727465642070726f786044820152681a58589b195555525160ba1b6064820152608490fd5b60809060208152602e60208201527f45524331393637557067726164653a206e657720696d706c656d656e7461746960408201526d6f6e206973206e6f74205555505360901b60608201520190565b803b1561368d5760008051602061588083398151915280546001600160a01b0319166001600160a01b03909216919091179055565b60405162461bcd60e51b815260206004820152602d60248201527f455243313936373a206e657720696d706c656d656e746174696f6e206973206e60448201526c1bdd08184818dbdb9d1c9858dd609a1b6064820152608490fd5b906136f282613658565b6001600160a01b0382167fbc7cd75a20ee27fd9adebab32041f755214dbc6bffa90cc0225b39da2e5c2d3b600080a280511580159061379c575b613734575050565b613799916000806040519361374885611204565b602785527f416464726573733a206c6f772d6c6576656c2064656c65676174652063616c6c6020860152660819985a5b195960ca1b6040860152602081519101845af4613793613902565b91613932565b50565b50600061372c565b906137ae82613658565b6001600160a01b0382167fbc7cd75a20ee27fd9adebab32041f755214dbc6bffa90cc0225b39da2e5c2d3b600080a28051158015906137ef57613734575050565b50600161372c565b6001600160a01b037f000000000000000000000000000000000000000000000000000000000000000081169290613830308514156134ce565b61384d60008051602061588083398151915294828654161461352f565b6138556133a3565b7f4910fdfa16fed3260ed0e7147f7cc6da11a60208b5b9406d12a635614ffd91435460ff161561388b57505061031d9150613658565b6020600491604094939451928380926352d1902d60e01b825286165afa600091816138e2575b506138cf5760405162461bcd60e51b815280610a0360048201613609565b61031d936138dd91146135ab565b6137a4565b6138fb91925060203d8111610a4357610a34818361121f565b90386138b1565b3d1561392d573d9061391382611294565b91613921604051938461121f565b82523d6000602084013e565b606090565b919290156139945750815115613946575090565b3b1561394f5790565b60405162461bcd60e51b815260206004820152601d60248201527f416464726573733a2063616c6c20746f206e6f6e2d636f6e74726163740000006044820152606490fd5b8251909150156139a75750805190602001fd5b60405162461bcd60e51b815260206004820152908190610a03906024830190610dd3565b9095613b60613ba193613ba797613b1f8c9a8899613bb19f9e8f613bac9f9b613a3f92613a3a8e613a1a613a3a948f613a0390615395565b613a0c8a61531d565b613a158d61535c565b6153d3565b613a2387615406565b613a2c8a615448565b613a358d615448565b615448565b61546a565b60008051602061584083398151915280546001600160a01b03199081166001600160a01b039a8b161790915560008051602061586083398151915280548216938a16939093179092557f5e94cc2b8b9fd616c1ffff3497627b534929331e1f3b26d7dc3360464546d50380548316958916959095179094557f5e94cc2b8b9fd616c1ffff3497627b534929331e1f3b26d7dc3360464546d504805482169a88169a909a179099557f5e94cc2b8b9fd616c1ffff3497627b534929331e1f3b26d7dc3360464546d50580549099169286169290921790975592958693849190565b7f5e94cc2b8b9fd616c1ffff3497627b534929331e1f3b26d7dc3360464546d5088054919092166001600160a01b03166001600160a01b0319909116179055565b7f5e94cc2b8b9fd616c1ffff3497627b534929331e1f3b26d7dc3360464546d5098054919092166001600160a01b03166001600160a01b0319909116179055565b16613457565b613429565b6133fb565b613bb9613c29565b613bc1613c5d565b61031d613c4c565b15613bd057565b60405162461bcd60e51b815260206004820152602b60248201527f496e697469616c697a61626c653a20636f6e7472616374206973206e6f74206960448201526a6e697469616c697a696e6760a81b6064820152608490fd5b613c4360ff60005460081c16613c3e81613bc9565b613bc9565b61031d33613485565b61031d60ff60005460081c16613bc9565b613c7260ff60005460081c16613c3e81613bc9565b6001606555565b6001600160a01b0391821681529116602082015260400190565b60008051602061584083398151915281526001600160a01b03909116602082015260400190565b60ff81160361030d57565b909293918060408301604084525260608201939060005b818110613d2d57505050808303602091820152818352918201929160005b828110613d08575050505090565b90919293828060019260ff8835613d1e81613cba565b16815201950193929101613cfa565b909193946001908535613d3f816102fc565b60a083901b8390031681526020908101969501929101613cdc565b634e487b7160e01b600052601160045260246000fd5b6000198114613d7f5760010190565b613d5a565b634e487b7160e01b600052603260045260246000fd5b9190811015613daa5760071b0190565b613d84565b6001600160401b03811161115c5760051b60200190565b9291613dd182613daf565b91613ddf604051938461121f565b829481845260208094019160051b810192831161030d57905b828210613e055750505050565b8380918335613e13816102fc565b815201910190613df8565b9291613e2982613daf565b91613e37604051938461121f565b829481845260208094019160051b810192831161030d57905b828210613e5d5750505050565b8380918335613e6b81613cba565b815201910190613e50565b6001600160a01b031660009081527f5e94cc2b8b9fd616c1ffff3497627b534929331e1f3b26d7dc3360464546d5136020526040902090565b6001600160a01b031660009081527f5e94cc2b8b9fd616c1ffff3497627b534929331e1f3b26d7dc3360464546d50e6020526040902090565b6001600160a01b031660009081527f5e94cc2b8b9fd616c1ffff3497627b534929331e1f3b26d7dc3360464546d5116020526040902090565b6001600160a01b031660009081527f5e94cc2b8b9fd616c1ffff3497627b534929331e1f3b26d7dc3360464546d50d6020526040902090565b6001600160a01b031660009081527f5e94cc2b8b9fd616c1ffff3497627b534929331e1f3b26d7dc3360464546d50f6020526040902090565b6001600160a01b031660009081527f5e94cc2b8b9fd616c1ffff3497627b534929331e1f3b26d7dc3360464546d5146020526040902090565b81810292918115918404141715613d7f57565b818110613fea575050565b60008155600101613fdf565b80546000825580614005575050565b61031d91600052602060002090810190613fdf565b90600160401b811161115c5781549080835581811061403857505050565b61031d9260005260206000209182019101613fdf565b8054600082558061405d575050565b61031d91600052601f6020600020910160051c810190613fdf565b90600160401b811161115c57815481835580821061409557505050565b61031d92600052601f6020600020918180850160051c84019416806140c1575b500160051c0190613fdf565b600019908186019182549160200360031b1c169055386140b5565b9080516001600160401b03811161115c576140f78184614078565b61410b602080930193600052602060002090565b908060051c9260005b8481106141875750601f1982169091039081614132575b5050505050565b9390600094855b82811061415057505050500155388080808061412b565b909192958261417c600192846141678b5160ff1690565b919060ff809160031b9316831b921b19161790565b970193929101614139565b6000805b83811061419f575084820155600101614114565b9690836141b46001928a614167865160ff1690565b9201970161418b565b815181546001600160a01b0319166001600160a01b03918216178255909190602082810151600185810180549285166001600160a01b03166001600160a01b03199093169290921790915591604084015160028601556060840151600386015560808401516004860155600585019060a0850151928351936001600160401b03851161115c57819061424f868661401a565b0192600052806000209160005b85811061427c575050505050505090600660c061031d93015191016140dc565b845182168482015593820193860161425c565b91908082526020809201929160005b8281106142ac575050505090565b90919293828060019287356142c0816102fc565b848060a01b0316815201950191019291909261429e565b91908082526020809201929160005b8281106142f4575050505090565b90919293828060019260ff883561430a81613cba565b168152019501939291016142e6565b969492610660989692614351959260018060a01b0316895260208901526040880152606087015260c0608087015260c086019161428f565b9260a08185039101526142d7565b600260655414614370576002606555565b60405162461bcd60e51b815260206004820152601f60248201527f5265656e7472616e637947756172643a207265656e7472616e742063616c6c006044820152606490fd5b9190811015613daa5760051b0190565b600661031d9160008155600060018201556000600282015560006003820155600060048201556143f760058201613ff6565b0161404e565b9190811015613daa576060020190565b9190811015613daa5760061b0190565b519061031d82611c32565b9081602091031261030d575161066081611c32565b815181546001600160a01b0319166001600160a01b039182161782559091906020808301519160019283860155604084015160028601556060840151600386015560048501906080850151928351936001600160401b03851161115c5781906144a6868661401a565b0192600052806000209160005b8581106144d3575050505050505090600560a061031d93015191016140dc565b84518216848201559382019386016144b3565b600561031d91600081556000600182015560006002820155600060038201556143f760048201613ff6565b91908201809211613d7f57565b9060405161452b816111ce565b82546001600160a01b0316815260018301546020820152600283015460408201526003830154606082015260048301546080820152600583015460a082015260069092015460c0830152565b60008051602061584083398151915281526001600160a01b039182166020820152911660408201526060810191909152608081019190915260a081019190915260c00190565b9190916145d76121bf836107cb6121ac876107bc87613f93565b604081019384511561412b576146256145fb856107cb336107cb866107bc8a613f93565b60066000918281558260018201558260028201558260038201558260048201558260058201550155565b60208281018051875160809586018051604080516001600160a01b038c81168252978101959095528401929092526060830191909152959194919092169133917fb00a321de530b83262da5c2b572508a21b98c8d189dba9939e0359e8c9fbfeac91a473__$11854c5905aa23948096e0e4d7059bb9de$__90519351915193813b1561030d576000936146d060405196879586948594634c4c261960e01b8652339060048701614577565b03915af480156103fc576146e15750565b806103f061031d92611149565b9035601e198236030181121561030d5701602081359101916001600160401b03821161030d578160051b3603831361030d57565b81835290916001600160fb1b03831161030d5760209260051b809284830137010190565b96929795939098949161475761435f565b61475f615210565b6000805160206158c08339815191525460405163b8e6b50f60e01b60208201526001600160a01b03998a166024820152604481019b909b5290881660648b015297871660848a015260a489015260c488015261010060e488015294909316949384936147d09161012486019161428f565b90602319848303016101048501526147e7926142d7565b03601f19810182526147f9908261121f565b614802916151bd565b5061031d6001606555565b519061031d82613cba565b519061031d826102fc565b5190600782101561030d57565b51906001600160e01b03198216820361030d57565b81601f8201121561030d57805161485b81611294565b92614869604051948561121f565b8184526020828401011161030d576106609160208085019101610db0565b81601f8201121561030d5780519061489e82613daf565b926040926148ae8451958661121f565b808552602093848087019260051b8501019383851161030d57858101925b8584106148dd575050505050505090565b83516001600160401b039081811161030d578301916101a09283601f19828a03011261030d5761490b611274565b908a810151825261491d87820161480d565b8b83015260609461492f868301614818565b88840152608095868301519084015260a09561494c878401614818565b9084015260c09561495e878401614818565b9084015260e09586830151908401526101009586830151908401526101209561498887840161441d565b908401526101409561499b878401614823565b90840152610160956149ae878401614830565b90840152610180918281015195861161030d578c966149d28c898099850101614845565b908501520151908201528152019301926148cc565b9060208282031261030d5781516001600160401b039283821161030d5701908181039260a0841261030d57608060405194614a218661117c565b1261030d57604051614a3281611197565b835181526020840151602082015260408401516040820152606084015160608201528452608083015190811161030d57614a6c9201614887565b602082015290565b9060405191828154918282526020928383019160005283600020936000905b828210614aa95750505061031d9250038361121f565b85546001600160a01b031684526001958601958895509381019390910190614a93565b90604080518093805492614af3614ae7858560209181520190565b92600052602060002090565b9360005b81601f820110614f0f5761031d955492828210614ef9575b828210614edf575b828210614ec5575b828210614eab575b828210614e91575b828210614e77575b828210614e5d575b828210614e43575b828210614e2c575b50818110614e14575b818110614dfc575b818110614de4575b818110614dcc575b818110614db4575b818110614d9c575b818110614d84575b818110614d6c575b818110614d54575b818110614d3c575b818110614d24575b818110614d0c575b818110614cf4575b818110614cdc575b818110614cc4575b818110614cac575b818110614c94575b818110614c7c575b818110614c64575b818110614c4c575b818110614c34575b818110614c1c575b10614c0e575b50038361121f565b60f81c815260200138614c06565b60f083901c60ff168452926001906020019301614c00565b60e883901c60ff168452926001906020019301614bf8565b60e083901c60ff168452926001906020019301614bf0565b60d883901c60ff168452926001906020019301614be8565b60d083901c60ff168452926001906020019301614be0565b60c883901c60ff168452926001906020019301614bd8565b60c083901c60ff168452926001906020019301614bd0565b60b883901c60ff168452926001906020019301614bc8565b60b083901c60ff168452926001906020019301614bc0565b60a883901c60ff168452926001906020019301614bb8565b60a083901c60ff168452926001906020019301614bb0565b609883901c60ff168452926001906020019301614ba8565b609083901c60ff168452926001906020019301614ba0565b608883901c60ff168452926001906020019301614b98565b608083901c60ff168452926001906020019301614b90565b607883901c60ff168452926001906020019301614b88565b607083901c60ff168452926001906020019301614b80565b606883901c60ff168452926001906020019301614b78565b606083901c60ff168452926001906020019301614b70565b605883901c60ff168452926001906020019301614b68565b605083901c60ff168452926001906020019301614b60565b604883901c60ff168452926001906020019301614b58565b83901c60ff16845292600190602001930138614b4f565b603884901c60ff1685529093600190602001940190614b47565b603084901c60ff1685529093600190602001940190614b3f565b602884901c60ff1685529093600190602001940190614b37565b602084811c60ff1686529194909160019101940190614b2f565b601884901c60ff1685529093600190602001940190614b27565b601084901c60ff1685529093600190602001940190614b1f565b600884901c60ff1685529093600190602001940190614b17565b60ff841685529093600190602001940190614b0f565b9193509160016104006020926151ad88546151a260ff614f338582851660ff169052565b61517b614fe061512b8d6150db8961508b8e614f588184018a8d60081c1660ff169052565b614f6b8584018a8d60101c1660ff169052565b888b610200606095614f86878201858560181c1660ff169052565b614f9b6080958585888501921c1660ff169052565b61504160a097614fb4898401878760281c1660ff169052565b614ff160c09b614fcd8d8601898960301c1660ff169052565b60e09e8f8601898960381c1660ff169052565b87876101008701921c1660ff169052565b6150066101208401878760481c1660ff169052565b61501b6101408401878760501c1660ff169052565b6150306101608401878760581c1660ff169052565b85856101808501921c1660ff169052565b6150566101a08201858560681c1660ff169052565b61506b6101c08201858560701c1660ff169052565b6150806101e08201858560781c1660ff169052565b01921c1660ff169052565b6150a06102208c01888b60881c1660ff169052565b6150b56102408c01888b60901c1660ff169052565b6150ca6102608c01888b60981c1660ff169052565b86896102808d01921c1660ff169052565b6150f06102a08a01868960a81c1660ff169052565b6151056102c08a01868960b01c1660ff169052565b61511a6102e08a01868960b81c1660ff169052565b84876103008b01921c1660ff169052565b6151406103208801848760c81c1660ff169052565b6151556103408801848760d01c1660ff169052565b61516a6103608801848760d81c1660ff169052565b82856103808901921c1660ff169052565b6151906103a08601828560e81c1660ff169052565b6103c08501908360f01c1660ff169052565b60f81c6103e0830152565b0195019101918693919492614af7565b6000918291602082519201905af46151d3613902565b90156151dc5790565b8051156151eb57602081519101fd5b60405163d4c4c23d60e01b815260206004820152908190610a03906024830190610dd3565b60ff6000805160206158e0833981519152541661522957565b60405163ab35696f60e01b8152600490fd5b615244826157a4565b60015b82811061525357505050565b600019810190808211613d7f5761528561527161528a938686613d9a565b3561527d838787613d9a565b3590836157e6565b613d70565b615247565b615298826157a4565b60015b8281106152a757505050565b600019810190808211613d7f576152856152c56152d19386866143fd565b3561527d8387876143fd565b61529b565b6152df826157a4565b60015b8281106152ee57505050565b600019810190808211613d7f5761528561530c61531893868661440d565b3561527d83878761440d565b6152e2565b6001600160a01b03161561532d57565b60405163602d6df560e01b8152734d41524b4554504c4143455f53455454494e475360601b6004820152602490fd5b6001600160a01b03161561536c57565b60405163602d6df560e01b81526d524f59414c54595f454e47494e4560901b6004820152602490fd5b6001600160a01b0316156153a557565b60405163602d6df560e01b8152724e4554574f524b5f42454e454649434941525960681b6004820152602490fd5b6001600160a01b0316156153e357565b60405163602d6df560e01b8152675041594d454e545360c01b6004820152602490fd5b6001600160a01b03161561541657565b60405163602d6df560e01b815276415050524f5645445f544f4b454e5f524547495354525960481b6004820152602490fd5b6001600160a01b03161561545857565b60405163c49074af60e01b8152600490fd5b6001600160a01b03811615908115615496575b5061548457565b60405163d94b7f7760e01b8152600490fd5b90503b153861547d565b803b1580156154d3575b6154b15750565b604051630f20e39960e21b81526001600160a01b039091166004820152602490fd5b5060206000604051828101906301ffc9a760e01b8083526024820152602481526154fc81611204565b519084617530fa6000513d82615550575b5081615546575b5080615536575b80615527575b156154aa565b50615531816155b9565b615521565b506155408161555c565b1561551b565b9050151538615514565b6020111591503861550d565b6000602091604051838101906301ffc9a760e01b825263ffffffff60e01b60248201526024815261558c81611204565b5191617530fa6000513d826155ad575b50816155a6575090565b9050151590565b6020111591503861559c565b6000602091604051838101906301ffc9a760e01b8252636cdb3d1360e11b60248201526024815261558c81611204565b6040516001620b695760e21b03198152600481018390526020816024816001600160a01b0386165afa9081156103fc57600091615656575b501561562b575050565b604051632be7c7f360e01b81526001600160a01b039190911660048201526024810191909152604490fd5b61566e915060203d8111610a4357610a34818361121f565b38615621565b6000806040516020810190638da5cb5b60e01b8252600481526156968161117c565b5190845afa906156a4613902565b91158015615700575b6156de575060208180518101031261030d5760200151906156cd826102fc565b6001600160a01b0391821691161490565b60405163915b8f1d60e01b81526001600160a01b039091166004820152602490fd5b5060208251106156ad565b90615715816157a4565b60015b81811061572457505050565b61572f8183856143b5565b60001982019035828211613d7f576157488285876143b5565b35101561575e575061575990613d70565b615718565b818361577261577993610a039596886143b5565b35956143b5565b3560405193849363f48f718f60e01b8552600485016040919493926060820195825260208201520152565b80156157d457604b81116157b55750565b6044906040519063f80a484560e01b82526004820152604b6024820152fd5b60405163c2e5347d60e01b8152600490fd5b9091828111156157f557505050565b60405163f48f718f60e01b8152600481019290925260248201929092526044810191909152606490fdfe5e94cc2b8b9fd616c1ffff3497627b534929331e1f3b26d7dc3360464546d50c5e94cc2b8b9fd616c1ffff3497627b534929331e1f3b26d7dc3360464546d5005e94cc2b8b9fd616c1ffff3497627b534929331e1f3b26d7dc3360464546d501360894a13ba1a3210667c828492db98dca3e2076cc3735a920a3ca505d382bbc376c367a1420063e9671cc85404673694901b9db2c20dc84b5acbf060f7ee37a5e94cc2b8b9fd616c1ffff3497627b534929331e1f3b26d7dc3360464546d50b5e94cc2b8b9fd616c1ffff3497627b534929331e1f3b26d7dc3360464546d5155e94cc2b8b9fd616c1ffff3497627b534929331e1f3b26d7dc3360464546d50aa2646970667358221220a1d4b7aa4649f445590dc08a2c1eb9c0f9aa64f453dd579fbb6f555216ca899764736f6c63430008120033","linkReferences":{"src/marketplace/RareERC1155MarketplacePayments.sol":{"RareERC1155MarketplacePayments":[{"start":8484,"length":20},{"start":9732,"length":20},{"start":12389,"length":20},{"start":12448,"length":20},{"start":12483,"length":20},{"start":12545,"length":20},{"start":18289,"length":20}]},"src/v2/utils/MarketConfigV2.sol":{"MarketConfigV2":[{"start":1078,"length":20},{"start":1661,"length":20},{"start":2366,"length":20},{"start":8199,"length":20},{"start":11168,"length":20},{"start":11385,"length":20},{"start":11932,"length":20}]}}},"methodIdentifiers":{"MAX_BATCH_SIZE()":"cfdbf254","MAX_CHECKOUT_SIZE()":"a3eaf4d9","acceptOffer(address,uint256,address,address,uint256,uint256,address[],uint8[])":"b8e6b50f","buyBatch(address,address,address,address,(uint256,uint256,uint256)[])":"1b19ab9b","cancelMintDirectSales(address,uint256[])":"5e50c42e","cancelOffer(address,uint256,address)":"e92f94d1","cancelSalePrices(address,uint256[])":"2f79f335","checkout(address,(uint8,address,address,address,uint256,uint256,uint256,bytes32[])[])":"42230aba","getCheckoutExecutionModule()":"9400d601","getDirectSaleConfig(address,uint256)":"6e2f4d8b","getERC1155ApprovalManager()":"c7c83d17","getMarketConfig()":"614bd944","getOffer(address,uint256,address,address)":"e3409ce3","getSalePrice(address,uint256,address)":"369679a4","getTokenAllowListConfig(address,uint256)":"bf3d90f8","getTokenMintLimit(address,uint256)":"8760251a","getTokenMintsPerAddress(address,uint256,address)":"28fbba03","getTokenTxLimit(address,uint256)":"552f791d","getTokenTxsPerAddress(address,uint256,address)":"5a501f8f","getTradeExecutionModule()":"ed5b25b5","initialize(address,address,address,address,address,address,address,address,address,address)":"c306b378","isPaused()":"b187bd26","makeOffer(address,uint256,address,uint256,uint256,uint256)":"b38df71f","mintDirectSaleBatch(address,address,address,(uint256,uint256,uint256,bytes32[])[])":"a2d44e32","owner()":"8da5cb5b","prepareMintDirectSales(address,address,(uint256,uint256,uint256,uint256)[],address[],uint8[])":"be542141","proxiableUUID()":"52d1902d","renounceOwnership()":"715018a6","setApprovedTokenRegistry(address)":"e4e87e3b","setCheckoutExecutionModule(address)":"63cf9cef","setContractPaused(bool)":"882796f1","setERC1155ApprovalManager(address)":"ff5c83a4","setERC20ApprovalManager(address)":"d7a9fb7c","setERC721ApprovalManager(address)":"d80b23e3","setMarketplaceSettings(address)":"176ab440","setNetworkBeneficiary(address)":"3492e5a8","setPayments(address)":"af231a58","setRoyaltyEngine(address)":"21ede032","setSalePrices(address,address,(uint256,uint256,uint256,uint256)[],address[],uint8[])":"ff3a52d4","setTokenAllowListConfigs(address,(uint256,bytes32,uint256)[])":"373a9412","setTokenMintLimits(address,(uint256,uint256)[])":"c7ec1b98","setTokenTxLimits(address,(uint256,uint256)[])":"6442950e","setTradeExecutionModule(address)":"a0f597dd","transferOwnership(address)":"f2fde38b","upgradeTo(address)":"3659cfe6","upgradeToAndCall(address,bytes)":"4f1ef286"},"id":76}