{"abi":[{"type":"function","name":"MAX_BATCH_SIZE","inputs":[],"outputs":[{"name":"","type":"uint256","internalType":"uint256"}],"stateMutability":"view"},{"type":"function","name":"MAX_CHECKOUT_SIZE","inputs":[],"outputs":[{"name":"","type":"uint256","internalType":"uint256"}],"stateMutability":"view"},{"type":"function","name":"acceptOffer","inputs":[{"name":"_contractAddress","type":"address","internalType":"address"},{"name":"_tokenId","type":"uint256","internalType":"uint256"},{"name":"_buyer","type":"address","internalType":"address"},{"name":"_currencyAddress","type":"address","internalType":"address"},{"name":"_price","type":"uint256","internalType":"uint256"},{"name":"_quantity","type":"uint256","internalType":"uint256"},{"name":"_splitRecipients","type":"address[]","internalType":"address payable[]"},{"name":"_splitRatios","type":"uint8[]","internalType":"uint8[]"}],"outputs":[],"stateMutability":"nonpayable"},{"type":"function","name":"buyBatch","inputs":[{"name":"_contractAddress","type":"address","internalType":"address"},{"name":"_seller","type":"address","internalType":"address"},{"name":"_currencyAddress","type":"address","internalType":"address"},{"name":"_recipient","type":"address","internalType":"address"},{"name":"_requests","type":"tuple[]","internalType":"struct IRareERC1155MarketplaceTypes.BuyRequest[]","components":[{"name":"tokenId","type":"uint256","internalType":"uint256"},{"name":"price","type":"uint256","internalType":"uint256"},{"name":"quantity","type":"uint256","internalType":"uint256"}]}],"outputs":[],"stateMutability":"payable"},{"type":"function","name":"mintDirectSaleBatch","inputs":[{"name":"_contractAddress","type":"address","internalType":"address"},{"name":"_currencyAddress","type":"address","internalType":"address"},{"name":"_recipient","type":"address","internalType":"address"},{"name":"_requests","type":"tuple[]","internalType":"struct IRareERC1155MarketplaceTypes.MintRequest[]","components":[{"name":"tokenId","type":"uint256","internalType":"uint256"},{"name":"price","type":"uint256","internalType":"uint256"},{"name":"quantity","type":"uint256","internalType":"uint256"},{"name":"proof","type":"bytes32[]","internalType":"bytes32[]"}]}],"outputs":[],"stateMutability":"payable"},{"type":"event","name":"CheckoutCompleted","inputs":[{"name":"payer","type":"address","indexed":true,"internalType":"address"},{"name":"recipient","type":"address","indexed":true,"internalType":"address"},{"name":"filledCount","type":"uint256","indexed":false,"internalType":"uint256"},{"name":"skippedCount","type":"uint256","indexed":false,"internalType":"uint256"},{"name":"ethSpent","type":"uint256","indexed":false,"internalType":"uint256"},{"name":"ethRefunded","type":"uint256","indexed":false,"internalType":"uint256"}],"anonymous":false},{"type":"event","name":"CheckoutItemProcessed","inputs":[{"name":"itemIndex","type":"uint256","indexed":false,"internalType":"uint256"},{"name":"itemKind","type":"uint8","indexed":false,"internalType":"uint8"},{"name":"contractAddress","type":"address","indexed":true,"internalType":"address"},{"name":"payer","type":"address","indexed":true,"internalType":"address"},{"name":"recipient","type":"address","indexed":true,"internalType":"address"},{"name":"tokenId","type":"uint256","indexed":false,"internalType":"uint256"},{"name":"seller","type":"address","indexed":false,"internalType":"address"},{"name":"currencyAddress","type":"address","indexed":false,"internalType":"address"},{"name":"price","type":"uint256","indexed":false,"internalType":"uint256"},{"name":"quantity","type":"uint256","indexed":false,"internalType":"uint256"},{"name":"filled","type":"bool","indexed":false,"internalType":"bool"},{"name":"failureStage","type":"uint8","indexed":false,"internalType":"enum IRareERC1155MarketplaceTypes.CheckoutFailureStage"},{"name":"reason","type":"bytes4","indexed":false,"internalType":"bytes4"},{"name":"failureData","type":"bytes","indexed":false,"internalType":"bytes"},{"name":"totalPaid","type":"uint256","indexed":false,"internalType":"uint256"}],"anonymous":false},{"type":"event","name":"ContractPausedUpdated","inputs":[{"name":"isPaused","type":"bool","indexed":false,"internalType":"bool"}],"anonymous":false},{"type":"event","name":"MarketplaceDependencyUpdated","inputs":[{"name":"field","type":"bytes32","indexed":true,"internalType":"bytes32"},{"name":"dependency","type":"address","indexed":true,"internalType":"address"}],"anonymous":false},{"type":"event","name":"MintDirectSale","inputs":[{"name":"contractAddress","type":"address","indexed":true,"internalType":"address"},{"name":"tokenId","type":"uint256","indexed":false,"internalType":"uint256"},{"name":"payer","type":"address","indexed":true,"internalType":"address"},{"name":"recipient","type":"address","indexed":true,"internalType":"address"},{"name":"seller","type":"address","indexed":false,"internalType":"address"},{"name":"quantity","type":"uint256","indexed":false,"internalType":"uint256"},{"name":"currency","type":"address","indexed":false,"internalType":"address"},{"name":"price","type":"uint256","indexed":false,"internalType":"uint256"}],"anonymous":false},{"type":"event","name":"MintDirectSaleCancelled","inputs":[{"name":"contractAddress","type":"address","indexed":true,"internalType":"address"},{"name":"tokenId","type":"uint256","indexed":true,"internalType":"uint256"}],"anonymous":false},{"type":"event","name":"OfferAccepted","inputs":[{"name":"seller","type":"address","indexed":true,"internalType":"address"},{"name":"buyer","type":"address","indexed":true,"internalType":"address"},{"name":"contractAddress","type":"address","indexed":true,"internalType":"address"},{"name":"tokenId","type":"uint256","indexed":false,"internalType":"uint256"},{"name":"currency","type":"address","indexed":false,"internalType":"address"},{"name":"price","type":"uint256","indexed":false,"internalType":"uint256"},{"name":"quantity","type":"uint256","indexed":false,"internalType":"uint256"}],"anonymous":false},{"type":"event","name":"OfferCancelled","inputs":[{"name":"buyer","type":"address","indexed":true,"internalType":"address"},{"name":"contractAddress","type":"address","indexed":true,"internalType":"address"},{"name":"tokenId","type":"uint256","indexed":true,"internalType":"uint256"},{"name":"currency","type":"address","indexed":false,"internalType":"address"},{"name":"price","type":"uint256","indexed":false,"internalType":"uint256"},{"name":"quantity","type":"uint256","indexed":false,"internalType":"uint256"},{"name":"marketplaceFeeRemaining","type":"uint256","indexed":false,"internalType":"uint256"}],"anonymous":false},{"type":"event","name":"OfferMade","inputs":[{"name":"buyer","type":"address","indexed":true,"internalType":"address"},{"name":"contractAddress","type":"address","indexed":true,"internalType":"address"},{"name":"tokenId","type":"uint256","indexed":true,"internalType":"uint256"},{"name":"currency","type":"address","indexed":false,"internalType":"address"},{"name":"price","type":"uint256","indexed":false,"internalType":"uint256"},{"name":"quantity","type":"uint256","indexed":false,"internalType":"uint256"},{"name":"marketplaceFee","type":"uint256","indexed":false,"internalType":"uint256"},{"name":"expirationTime","type":"uint256","indexed":false,"internalType":"uint256"}],"anonymous":false},{"type":"event","name":"PrepareMintDirectSale","inputs":[{"name":"contractAddress","type":"address","indexed":true,"internalType":"address"},{"name":"tokenId","type":"uint256","indexed":true,"internalType":"uint256"},{"name":"seller","type":"address","indexed":true,"internalType":"address"},{"name":"currency","type":"address","indexed":false,"internalType":"address"},{"name":"price","type":"uint256","indexed":false,"internalType":"uint256"},{"name":"startTime","type":"uint256","indexed":false,"internalType":"uint256"},{"name":"maxMints","type":"uint256","indexed":false,"internalType":"uint256"},{"name":"splitRecipients","type":"address[]","indexed":false,"internalType":"address payable[]"},{"name":"splitRatios","type":"uint8[]","indexed":false,"internalType":"uint8[]"}],"anonymous":false},{"type":"event","name":"SalePriceCancelled","inputs":[{"name":"seller","type":"address","indexed":true,"internalType":"address"},{"name":"contractAddress","type":"address","indexed":true,"internalType":"address"},{"name":"tokenId","type":"uint256","indexed":true,"internalType":"uint256"}],"anonymous":false},{"type":"event","name":"SalePriceSet","inputs":[{"name":"seller","type":"address","indexed":true,"internalType":"address"},{"name":"contractAddress","type":"address","indexed":true,"internalType":"address"},{"name":"tokenId","type":"uint256","indexed":true,"internalType":"uint256"},{"name":"currency","type":"address","indexed":false,"internalType":"address"},{"name":"price","type":"uint256","indexed":false,"internalType":"uint256"},{"name":"quantity","type":"uint256","indexed":false,"internalType":"uint256"},{"name":"expirationTime","type":"uint256","indexed":false,"internalType":"uint256"},{"name":"splitRecipients","type":"address[]","indexed":false,"internalType":"address payable[]"},{"name":"splitRatios","type":"uint8[]","indexed":false,"internalType":"uint8[]"}],"anonymous":false},{"type":"event","name":"SetTokenAllowListConfig","inputs":[{"name":"contractAddress","type":"address","indexed":true,"internalType":"address"},{"name":"tokenId","type":"uint256","indexed":true,"internalType":"uint256"},{"name":"root","type":"bytes32","indexed":false,"internalType":"bytes32"},{"name":"endTimestamp","type":"uint256","indexed":false,"internalType":"uint256"}],"anonymous":false},{"type":"event","name":"Sold","inputs":[{"name":"seller","type":"address","indexed":false,"internalType":"address"},{"name":"payer","type":"address","indexed":true,"internalType":"address"},{"name":"contractAddress","type":"address","indexed":true,"internalType":"address"},{"name":"recipient","type":"address","indexed":true,"internalType":"address"},{"name":"tokenId","type":"uint256","indexed":false,"internalType":"uint256"},{"name":"currency","type":"address","indexed":false,"internalType":"address"},{"name":"price","type":"uint256","indexed":false,"internalType":"uint256"},{"name":"quantity","type":"uint256","indexed":false,"internalType":"uint256"}],"anonymous":false},{"type":"event","name":"TokenMintLimitSet","inputs":[{"name":"contractAddress","type":"address","indexed":true,"internalType":"address"},{"name":"tokenId","type":"uint256","indexed":true,"internalType":"uint256"},{"name":"limit","type":"uint256","indexed":false,"internalType":"uint256"}],"anonymous":false},{"type":"event","name":"TokenTxLimitSet","inputs":[{"name":"contractAddress","type":"address","indexed":true,"internalType":"address"},{"name":"tokenId","type":"uint256","indexed":true,"internalType":"uint256"},{"name":"limit","type":"uint256","indexed":false,"internalType":"uint256"}],"anonymous":false},{"type":"error","name":"AddressNotAllowlisted","inputs":[{"name":"_account","type":"address","internalType":"address"}]},{"type":"error","name":"AllowListEndTimestampInvalid","inputs":[{"name":"_endTimestamp","type":"uint256","internalType":"uint256"},{"name":"_currentTime","type":"uint256","internalType":"uint256"}]},{"type":"error","name":"ApprovalManagerCannotBeZero","inputs":[]},{"type":"error","name":"BatchSizeExceeded","inputs":[{"name":"supplied","type":"uint256","internalType":"uint256"},{"name":"max","type":"uint256","internalType":"uint256"}]},{"type":"error","name":"CheckoutItemExecutionFailed","inputs":[{"name":"_stage","type":"uint8","internalType":"enum IRareERC1155MarketplaceTypes.CheckoutFailureStage"},{"name":"_failureData","type":"bytes","internalType":"bytes"}]},{"type":"error","name":"ContractHasNoOwner","inputs":[{"name":"_contractAddress","type":"address","internalType":"address"}]},{"type":"error","name":"ContractPaused","inputs":[]},{"type":"error","name":"CurrencyMismatch","inputs":[{"name":"_suppliedCurrency","type":"address","internalType":"address"},{"name":"_configuredCurrency","type":"address","internalType":"address"}]},{"type":"error","name":"CurrencyNotApproved","inputs":[{"name":"_currencyAddress","type":"address","internalType":"address"}]},{"type":"error","name":"DirectModuleCallUnsupported","inputs":[]},{"type":"error","name":"DirectSaleNotConfigured","inputs":[{"name":"_contractAddress","type":"address","internalType":"address"},{"name":"_tokenId","type":"uint256","internalType":"uint256"}]},{"type":"error","name":"ERC20FeeOnTransferUnsupported","inputs":[{"name":"_currencyAddress","type":"address","internalType":"address"},{"name":"_expectedAmount","type":"uint256","internalType":"uint256"},{"name":"_receivedAmount","type":"uint256","internalType":"uint256"}]},{"type":"error","name":"EmptyBatch","inputs":[]},{"type":"error","name":"ExecutionModuleDelegateCallFailed","inputs":[{"name":"_revertData","type":"bytes","internalType":"bytes"}]},{"type":"error","name":"IncorrectETHAmount","inputs":[{"name":"_requiredAmount","type":"uint256","internalType":"uint256"},{"name":"_suppliedAmount","type":"uint256","internalType":"uint256"}]},{"type":"error","name":"InsufficientCheckoutERC20Allowance","inputs":[{"name":"_currencyAddress","type":"address","internalType":"address"},{"name":"_requiredAmount","type":"uint256","internalType":"uint256"},{"name":"_availableAmount","type":"uint256","internalType":"uint256"}]},{"type":"error","name":"InsufficientCheckoutERC20Balance","inputs":[{"name":"_currencyAddress","type":"address","internalType":"address"},{"name":"_requiredAmount","type":"uint256","internalType":"uint256"},{"name":"_availableAmount","type":"uint256","internalType":"uint256"}]},{"type":"error","name":"InsufficientCheckoutETH","inputs":[{"name":"_requiredAmount","type":"uint256","internalType":"uint256"},{"name":"_availableAmount","type":"uint256","internalType":"uint256"}]},{"type":"error","name":"InsufficientTokenBalance","inputs":[{"name":"_account","type":"address","internalType":"address"},{"name":"_contractAddress","type":"address","internalType":"address"},{"name":"_tokenId","type":"uint256","internalType":"uint256"},{"name":"_requestedQuantity","type":"uint256","internalType":"uint256"},{"name":"_availableQuantity","type":"uint256","internalType":"uint256"}]},{"type":"error","name":"InvalidERC1155Contract","inputs":[{"name":"_contractAddress","type":"address","internalType":"address"}]},{"type":"error","name":"InvalidERC1155Mint","inputs":[{"name":"_contractAddress","type":"address","internalType":"address"},{"name":"_tokenId","type":"uint256","internalType":"uint256"},{"name":"_buyer","type":"address","internalType":"address"},{"name":"_quantity","type":"uint256","internalType":"uint256"}]},{"type":"error","name":"InvalidERC1155Transfer","inputs":[{"name":"_contractAddress","type":"address","internalType":"address"},{"name":"_tokenId","type":"uint256","internalType":"uint256"},{"name":"_seller","type":"address","internalType":"address"},{"name":"_buyer","type":"address","internalType":"address"},{"name":"_quantity","type":"uint256","internalType":"uint256"}]},{"type":"error","name":"InvalidExecutionModule","inputs":[]},{"type":"error","name":"MarketConfigAddressCannotBeZero","inputs":[{"name":"_field","type":"bytes32","internalType":"bytes32"}]},{"type":"error","name":"MarketplaceNotApproved","inputs":[{"name":"_account","type":"address","internalType":"address"},{"name":"_contractAddress","type":"address","internalType":"address"}]},{"type":"error","name":"MaxMintExceeded","inputs":[{"name":"_requestedQuantity","type":"uint256","internalType":"uint256"},{"name":"_maxMints","type":"uint256","internalType":"uint256"}]},{"type":"error","name":"MintLimitExceeded","inputs":[{"name":"_contractAddress","type":"address","internalType":"address"},{"name":"_tokenId","type":"uint256","internalType":"uint256"},{"name":"_account","type":"address","internalType":"address"},{"name":"_requestedQuantity","type":"uint256","internalType":"uint256"},{"name":"_mintedQuantity","type":"uint256","internalType":"uint256"},{"name":"_limit","type":"uint256","internalType":"uint256"}]},{"type":"error","name":"MsgValueMustBeZero","inputs":[]},{"type":"error","name":"MsgValueUnsupportedForERC20","inputs":[]},{"type":"error","name":"NotContractOwner","inputs":[{"name":"_contractAddress","type":"address","internalType":"address"},{"name":"_account","type":"address","internalType":"address"}]},{"type":"error","name":"OfferDoesNotExist","inputs":[{"name":"_contractAddress","type":"address","internalType":"address"},{"name":"_tokenId","type":"uint256","internalType":"uint256"},{"name":"_buyer","type":"address","internalType":"address"},{"name":"_currencyAddress","type":"address","internalType":"address"}]},{"type":"error","name":"OfferExpirationInvalid","inputs":[{"name":"_expirationTime","type":"uint256","internalType":"uint256"},{"name":"_currentTime","type":"uint256","internalType":"uint256"}]},{"type":"error","name":"OfferExpired","inputs":[{"name":"_contractAddress","type":"address","internalType":"address"},{"name":"_tokenId","type":"uint256","internalType":"uint256"},{"name":"_buyer","type":"address","internalType":"address"},{"name":"_currencyAddress","type":"address","internalType":"address"},{"name":"_expirationTime","type":"uint256","internalType":"uint256"}]},{"type":"error","name":"OfferPriceCannotBeZero","inputs":[]},{"type":"error","name":"PayoutFailed","inputs":[{"name":"_revertData","type":"bytes","internalType":"bytes"}]},{"type":"error","name":"PayoutLengthMismatch","inputs":[{"name":"_recipientsLength","type":"uint256","internalType":"uint256"},{"name":"_amountsLength","type":"uint256","internalType":"uint256"}]},{"type":"error","name":"PayoutTotalMismatch","inputs":[{"name":"_expectedAmount","type":"uint256","internalType":"uint256"},{"name":"_actualAmount","type":"uint256","internalType":"uint256"}]},{"type":"error","name":"PlatformCommissionExceeded","inputs":[{"name":"_platformCommission","type":"uint256","internalType":"uint256"},{"name":"_maxPlatformCommission","type":"uint256","internalType":"uint256"}]},{"type":"error","name":"PriceMismatch","inputs":[{"name":"_suppliedPrice","type":"uint256","internalType":"uint256"},{"name":"_configuredPrice","type":"uint256","internalType":"uint256"}]},{"type":"error","name":"QuantityCannotBeZero","inputs":[]},{"type":"error","name":"QuantityExceedsOfferQuantity","inputs":[{"name":"_requestedQuantity","type":"uint256","internalType":"uint256"},{"name":"_availableQuantity","type":"uint256","internalType":"uint256"}]},{"type":"error","name":"QuantityExceedsSalePriceQuantity","inputs":[{"name":"_requestedQuantity","type":"uint256","internalType":"uint256"},{"name":"_availableQuantity","type":"uint256","internalType":"uint256"}]},{"type":"error","name":"RecipientCannotBeZero","inputs":[]},{"type":"error","name":"RefundFailed","inputs":[{"name":"_revertData","type":"bytes","internalType":"bytes"}]},{"type":"error","name":"RoyaltiesExceedSaleAmount","inputs":[{"name":"_royalties","type":"uint256","internalType":"uint256"},{"name":"_saleAmount","type":"uint256","internalType":"uint256"}]},{"type":"error","name":"RoyaltyRecipientCannotBeZero","inputs":[{"name":"_index","type":"uint256","internalType":"uint256"}]},{"type":"error","name":"SaleNotStarted","inputs":[{"name":"_startTime","type":"uint256","internalType":"uint256"}]},{"type":"error","name":"SalePriceCannotBeZero","inputs":[]},{"type":"error","name":"SalePriceDoesNotExist","inputs":[{"name":"_contractAddress","type":"address","internalType":"address"},{"name":"_tokenId","type":"uint256","internalType":"uint256"},{"name":"_seller","type":"address","internalType":"address"}]},{"type":"error","name":"SalePriceExpirationInvalid","inputs":[{"name":"_expirationTime","type":"uint256","internalType":"uint256"},{"name":"_currentTime","type":"uint256","internalType":"uint256"}]},{"type":"error","name":"SalePriceExpired","inputs":[{"name":"_contractAddress","type":"address","internalType":"address"},{"name":"_tokenId","type":"uint256","internalType":"uint256"},{"name":"_seller","type":"address","internalType":"address"},{"name":"_expirationTime","type":"uint256","internalType":"uint256"}]},{"type":"error","name":"SelfOfferAcceptanceUnsupported","inputs":[{"name":"_buyer","type":"address","internalType":"address"}]},{"type":"error","name":"SelfPurchaseUnsupported","inputs":[{"name":"_seller","type":"address","internalType":"address"}]},{"type":"error","name":"SplitLengthMismatch","inputs":[{"name":"_recipientsLength","type":"uint256","internalType":"uint256"},{"name":"_ratiosLength","type":"uint256","internalType":"uint256"}]},{"type":"error","name":"SplitRatioCannotBeZero","inputs":[{"name":"_index","type":"uint256","internalType":"uint256"}]},{"type":"error","name":"SplitRecipientCannotBeZero","inputs":[{"name":"_index","type":"uint256","internalType":"uint256"}]},{"type":"error","name":"SplitRecipientsExceededMax","inputs":[{"name":"_recipientsLength","type":"uint256","internalType":"uint256"},{"name":"_maxRecipients","type":"uint256","internalType":"uint256"}]},{"type":"error","name":"SplitRecipientsRequired","inputs":[]},{"type":"error","name":"SplitTotalInvalid","inputs":[{"name":"_totalRatio","type":"uint256","internalType":"uint256"},{"name":"_requiredTotal","type":"uint256","internalType":"uint256"}]},{"type":"error","name":"TokenIdsNotStrictlyAscending","inputs":[{"name":"index","type":"uint256","internalType":"uint256"},{"name":"previousTokenId","type":"uint256","internalType":"uint256"},{"name":"tokenId","type":"uint256","internalType":"uint256"}]},{"type":"error","name":"TokenNotFound","inputs":[{"name":"_contractAddress","type":"address","internalType":"address"},{"name":"_tokenId","type":"uint256","internalType":"uint256"}]},{"type":"error","name":"TransactionLimitExceeded","inputs":[{"name":"_contractAddress","type":"address","internalType":"address"},{"name":"_tokenId","type":"uint256","internalType":"uint256"},{"name":"_account","type":"address","internalType":"address"},{"name":"_usedTransactions","type":"uint256","internalType":"uint256"},{"name":"_limit","type":"uint256","internalType":"uint256"}]},{"type":"error","name":"UnsupportedCheckoutItemKind","inputs":[{"name":"_itemKind","type":"uint8","internalType":"uint8"}]}],"bytecode":{"object":"0x60a080604052346100235730608052613db19081610029823960805181610cc00152f35b600080fdfe6080604052600436101561001257600080fd5b6000803560e01c9081631b19ab9b1461006a57508063a2d44e3214610065578063a3eaf4d914610060578063b8e6b50f1461005b5763cfdbf2541461005657600080fd5b6107f1565b610767565b61074b565b61013e565b60a03660031901126100f557600435610082816100f8565b60243561008e816100f8565b6044359161009b836100f8565b6064356100a7816100f8565b608435936001600160401b03938486116100f157366023870112156100f15785600401359485116100f15736602460608702880101116100f15760246100ee960193611f53565b80f35b8680fd5b80fd5b6001600160a01b0381160361010957565b600080fd5b9181601f84011215610109578235916001600160401b038311610109576020808501948460051b01011161010957565b6080366003190112610109576101556004356100f8565b6101606024356100f8565b60443561016c816100f8565b6064356001600160401b0381116101095761018b90369060040161010e565b90610194610cbd565b61019d83611d4e565b6101a78282613c2c565b73__$11854c5905aa23948096e0e4d7059bb9de$__3b1561010957604051635e157ccf60e11b8152600081806101e2602435600483016108c8565b038173__$11854c5905aa23948096e0e4d7059bb9de$__5af480156104c25761072d575b50610212600435611d6f565b61021b82610912565b9161022581610912565b61022e8261097f565b936000805b8481106105a1575073__$11854c5905aa23948096e0e4d7059bb9de$__3b156101095760006102799160405180938192635ea509b560e01b835260243560048401610a65565b038173__$11854c5905aa23948096e0e4d7059bb9de$__5af480156104c25761058e575b5060009492945b8581106104c75750906102ba9186600435613a3b565b6001600160a01b039060005b8481106102cf57005b808285878960206102e1899786610a0c565b5101516103a4575b6001957f23c89c6f5d0cd9be5a7565f18698cd630d645e8619bc0ff59c713c83d11197719161039b60206103578961034160806103328361032a818f610a0c565b51519d610a0c565b5101516001600160a01b031690565b97604061034f83838d6109e5565b0135996109e5565b0135604051938493169733978d60043516976024359286919095949360809360a0840197845260018060a01b03809316602085015260408401521660608201520152565b0390a4016102c6565b5050508160209293506103b691610a0c565b5101519060406103c68285610a0c565b5101519160a06103d68386610a0c565b5101519260c06103e68487610a0c565b5101519173__$11854c5905aa23948096e0e4d7059bb9de$__3b156101095761042c60009360405196879485946306fb4ae360e11b865260243560043560048801610c5e565b038173__$11854c5905aa23948096e0e4d7059bb9de$__5af49182156104c25785877f23c89c6f5d0cd9be5a7565f18698cd630d645e8619bc0ff59c713c83d1119771878b61039b60206103578961034160806103328f9c60019f858f819361032a936104a9575b505050505050505050505050915095506102e9565b806104b66104bc92610823565b80610740565b38610494565b6108ef565b806104d860019288889997996109e5565b356104f7816104e8600435610a94565b90600052602052604060002090565b5461055a575b8861050d826104e8600435610b06565b5461051e575b5050019492946102a4565b610530610547926104e8600435610b3f565b9060018060a01b0316600052602052604060002090565b6105518154610a45565b90553888610513565b604061056783888a6109e5565b013561058761057f8b610530856104e8600435610acd565b918254610a58565b90556104fd565b806104b661059b92610823565b3861029d565b6105bb6105af8287896109e5565b89602435600435610d01565b6105c58289610a0c565b526105d08188610a0c565b506020806105de838a610a0c565b510151610621575b50806105f460019289610a0c565b51516106008286610a0c565b52604061060e82888a6109e5565b013561061a8287610a0c565b5201610233565b9091610696908261066761065b7f5e94cc2b8b9fd616c1ffff3497627b534929331e1f3b26d7dc3360464546d5015460018060a01b031690565b6001600160a01b031690565b81610672878d610a0c565b5101519060405180809681946361fe24a960e11b8352600483019190602083019252565b03915afa9182156104c2576001936106ee93868c6106e8946000936106f5575b506040916106c391610a0c565b5101526106d0868c610a0c565b51015160406106df878d610a0c565b51015190610a58565b90610a58565b91906105e6565b6106c39193509161071d604093863d8811610726575b61071581836108a7565b810190610a20565b939150916106b6565b503d61070b565b806104b661073a92610823565b38610206565b600091031261010957565b3461010957600036600319011261010957602060405160328152f35b346101095761010036600319011261010957600435610785816100f8565b60443590610792826100f8565b60643561079e816100f8565b6001600160401b039260c435848111610109576107bf90369060040161010e565b9160e435958611610109576107db6107ef96369060040161010e565b95909460a435926084359260243590612a5b565b005b34610109576000366003190112610109576020604051604b8152f35b634e487b7160e01b600052604160045260246000fd5b6001600160401b03811161083657604052565b61080d565b60e081019081106001600160401b0382111761083657604052565b60c081019081106001600160401b0382111761083657604052565b604081019081106001600160401b0382111761083657604052565b606081019081106001600160401b0382111761083657604052565b90601f801991011681019081106001600160401b0382111761083657604052565b600080516020613d3c83398151915281526001600160a01b03909116602082015260400190565b6040513d6000823e3d90fd5b6001600160401b0381116108365760051b60200190565b9061091c826108fb565b61092960405191826108a7565b828152809261093a601f19916108fb565b0190602036910137565b604051906109518261083b565b606060c083600081526000602082015260006040820152600083820152600060808201528260a08201520152565b90610989826108fb565b61099660405191826108a7565b82815280926109a7601f19916108fb565b019060005b8281106109b857505050565b6020906109c3610944565b828285010152016109ac565b634e487b7160e01b600052603260045260246000fd5b9190811015610a075760051b81013590607e1981360301821215610109570190565b6109cf565b8051821015610a075760209160051b010190565b90816020910312610109575190565b634e487b7160e01b600052601160045260246000fd5b9060018201809211610a5357565b610a2f565b91908201809211610a5357565b600080516020613d3c83398151915281526001600160a01b039091166020820152604081019190915260600190565b6001600160a01b031660009081527f5e94cc2b8b9fd616c1ffff3497627b534929331e1f3b26d7dc3360464546d50f6020526040902090565b6001600160a01b031660009081527f5e94cc2b8b9fd616c1ffff3497627b534929331e1f3b26d7dc3360464546d5106020526040902090565b6001600160a01b031660009081527f5e94cc2b8b9fd616c1ffff3497627b534929331e1f3b26d7dc3360464546d5116020526040902090565b6001600160a01b031660009081527f5e94cc2b8b9fd616c1ffff3497627b534929331e1f3b26d7dc3360464546d5126020526040902090565b6001600160a01b031660009081527f5e94cc2b8b9fd616c1ffff3497627b534929331e1f3b26d7dc3360464546d5136020526040902090565b6001600160a01b031660009081527f5e94cc2b8b9fd616c1ffff3497627b534929331e1f3b26d7dc3360464546d50d6020526040902090565b90815180825260208080930193019160005b828110610c0a575050505090565b83516001600160a01b031685529381019392810192600101610bfc565b90815180825260208080930193019160005b828110610c47575050505090565b835160ff1685529381019392810192600101610c39565b949192610cba969491610cac94600080516020613d3c833981519152885260018060a01b0380921660208901521660408701526060860152608085015260e060a085015260e0840190610bea565b9160c0818403910152610c27565b90565b307f00000000000000000000000000000000000000000000000000000000000000006001600160a01b031614610cef57565b60405163197ba25b60e01b8152600490fd5b9291610d0b610944565b50823590602084013592604085013594606081013590601e198136030182121561010957018035906001600160401b03821161010957602001908060051b3603821361010957610d609187878787878d61155f565b979115610d71575050505050505090565b610d7b9750611a2b565b602081519101fd5b9060405191828154918282526020928383019160005283600020936000905b828210610dba57505050610db8925003836108a7565b565b85546001600160a01b031684526001958601958895509381019390910190610da2565b90604080518093805492610e04610df8858560209181520190565b92600052602060002090565b9360005b81601f82011061122057610db895549282821061120a575b8282106111f0575b8282106111d6575b8282106111bc575b8282106111a2575b828210611188575b82821061116e575b828210611154575b82821061113d575b50818110611125575b81811061110d575b8181106110f5575b8181106110dd575b8181106110c5575b8181106110ad575b818110611095575b81811061107d575b818110611065575b81811061104d575b818110611035575b81811061101d575b818110611005575b818110610fed575b818110610fd5575b818110610fbd575b818110610fa5575b818110610f8d575b818110610f75575b818110610f5d575b818110610f45575b818110610f2d575b10610f1f575b5003836108a7565b60f81c815260200138610f17565b60f083901c60ff168452926001906020019301610f11565b60e883901c60ff168452926001906020019301610f09565b60e083901c60ff168452926001906020019301610f01565b60d883901c60ff168452926001906020019301610ef9565b60d083901c60ff168452926001906020019301610ef1565b60c883901c60ff168452926001906020019301610ee9565b60c083901c60ff168452926001906020019301610ee1565b60b883901c60ff168452926001906020019301610ed9565b60b083901c60ff168452926001906020019301610ed1565b60a883901c60ff168452926001906020019301610ec9565b60a083901c60ff168452926001906020019301610ec1565b609883901c60ff168452926001906020019301610eb9565b609083901c60ff168452926001906020019301610eb1565b608883901c60ff168452926001906020019301610ea9565b608083901c60ff168452926001906020019301610ea1565b607883901c60ff168452926001906020019301610e99565b607083901c60ff168452926001906020019301610e91565b606883901c60ff168452926001906020019301610e89565b606083901c60ff168452926001906020019301610e81565b605883901c60ff168452926001906020019301610e79565b605083901c60ff168452926001906020019301610e71565b604883901c60ff168452926001906020019301610e69565b83901c60ff16845292600190602001930138610e60565b603884901c60ff1685529093600190602001940190610e58565b603084901c60ff1685529093600190602001940190610e50565b602884901c60ff1685529093600190602001940190610e48565b602084811c60ff1686529194909160019101940190610e40565b601884901c60ff1685529093600190602001940190610e38565b601084901c60ff1685529093600190602001940190610e30565b600884901c60ff1685529093600190602001940190610e28565b60ff841685529093600190602001940190610e20565b9193509160016104006020926114be88546114b360ff6112448582851660ff169052565b61148c6112f161143c8d6113ec8961139c8e6112698184018a8d60081c1660ff169052565b61127c8584018a8d60101c1660ff169052565b888b610200606095611297878201858560181c1660ff169052565b6112ac6080958585888501921c1660ff169052565b61135260a0976112c5898401878760281c1660ff169052565b61130260c09b6112de8d8601898960301c1660ff169052565b60e09e8f8601898960381c1660ff169052565b87876101008701921c1660ff169052565b6113176101208401878760481c1660ff169052565b61132c6101408401878760501c1660ff169052565b6113416101608401878760581c1660ff169052565b85856101808501921c1660ff169052565b6113676101a08201858560681c1660ff169052565b61137c6101c08201858560701c1660ff169052565b6113916101e08201858560781c1660ff169052565b01921c1660ff169052565b6113b16102208c01888b60881c1660ff169052565b6113c66102408c01888b60901c1660ff169052565b6113db6102608c01888b60981c1660ff169052565b86896102808d01921c1660ff169052565b6114016102a08a01868960a81c1660ff169052565b6114166102c08a01868960b01c1660ff169052565b61142b6102e08a01868960b81c1660ff169052565b84876103008b01921c1660ff169052565b6114516103208801848760c81c1660ff169052565b6114666103408801848760d01c1660ff169052565b61147b6103608801848760d81c1660ff169052565b82856103808901921c1660ff169052565b6114a16103a08601828560e81c1660ff169052565b6103c08501908360f01c1660ff169052565b60f81c6103e0830152565b0195019101918693919492610e08565b906040516114db8161083b565b60c06115316006839560018060a01b03808254168652600182015416602086015260028101546040860152600381015460608601526004810154608086015261152660058201610d83565b60a086015201610ddd565b910152565b908160011b9180830460021490151715610a5357565b81810292918115918404141715610a5357565b969092969591949395611570610944565b97611586611581826104e885610bb1565b6114ce565b818a5280516001600160a01b031660808b01529660808801805160608c015288516001600160a01b039691959190871680156117d9576115c69086611848565b90156117bd571561179f576115e5916115e1918486886118ee565b1590565b61178657861561176d576115fc826104e885610a94565b5461160e82610530856104e888610acd565b5490888115159283611759575b50505061174057610530826104e8611639611640956104e888610b06565b5495610b3f565b5490801515918261172d575b50506117175751801515908161170d575b506116f857606084015142106116e357604084015185036116ce57602084015191811691166001600160a01b0316036116bb5760c09261169c9161154c565b602084015260a081015160a0840152015160c082015260019160009190565b50600093632e834cbf60e11b9392509050565b50600095631d6bbb8d60e11b95945092505050565b5060009563456afd0b60e01b95945092505050565b50600095635bdd08f560e01b95945092505050565b905083113861165d565b5060009663ae3586c560e01b9695509350505050565b611738919250610a45565b11388061164c565b50600099636d03a2e560e01b9998509650505050505050565b611764929350610a58565b1138888161161b565b5060009963c6b949a960e01b9998509650505050505050565b5060009963e2cf60cb60e01b9998509650505050505050565b5060009b600162bed83560e01b03199b9a5098505050505050505050565b5060009c63915b8f1d60e01b9c9b509950505050505050505050565b5060009c634ed1072f60e11b9c9b509950505050505050505050565b6001600160401b03811161083657601f01601f191660200190565b60405190602082018281106001600160401b038211176108365760405260008252565b908160209103126101095751610cba816100f8565b604051638da5cb5b60e01b60208201908152600482529293929061186b81610871565b6000928392839251915afa903d156118e6573d91611888836117f5565b9261189660405194856108a7565b83523d82602085013e5b1580156118db575b6118d45750806020806118c093518301019101611833565b6001926001600160a01b0391821691161490565b9250508190565b5060208251106118a8565b6060916118a0565b6001600160a01b031660009081527f5e94cc2b8b9fd616c1ffff3497627b534929331e1f3b26d7dc3360464546d50e602052604090209193929190600052602052604060002060405190604082018281106001600160401b03821117610836576040526001815491828452015490816020840152159081156119be575b506119b55760405160609490941b6bffffffffffffffffffffffff191660208501908152610cba946119aa81603481015b03601f1981018352826108a7565b519020905190611ec7565b50505050600190565b90504210153861196b565b6001600160a01b039091168152602081019190915260400190565b6001600160a01b0391821681529116602082015260400190565b919594939060809360a084019760018060a01b038093168552602085015216604083015260608201520152565b949293959195611a3e816104e884610bb1565b956001600160e01b03191694634ed1072f60e11b808714611d29575063915b8f1d60e01b868114611cf45750600162bed83560e01b0319868114611cd6575063e2cf60cb60e01b868114611ca2575063c6b949a960e01b868114611c835750636d03a2e560e01b868114611c0d575063ae3586c560e01b91868314611bc65750635bdd08f560e01b92505050838114611b95575063456afd0b60e01b9050828114611b6c5750631d6bbb8d60e11b828114611b3d5750632e834cbf60e11b9182149050611b1057505050610cba611810565b61199c611b296001610cba94015460018060a01b031690565b6040519485936020850152602484016119e4565b60029390930154604051602081019490945260248401919091526044830152509050610cba816064810161199c565b935050506003610cba9101549161199c6040519384926020840152602483019190602083019252565b925093505061199c6004610cba93015460405194859360208501526024840160209093929193604081019481520152565b92975092509350610cba945061199c9250611be4816104e888610b06565b5491611bf781610530846104e88b610b3f565b54916040519788966020880152602487016119fe565b95509290919650610cba955061199c9350611c2b826104e889610a94565b5492611c3e81610530856104e88c610acd565b5492604051988997602089015260248801929060a09491979695929760c0850198600180881b0380931686526020860152166040840152606083015260808201520152565b97505050505050505060405190602082015260048152610cba81610871565b60405160208101919091526001600160a01b0390911660248201529650610cba95508694505060448401925061199c915050565b955050509450505061199c611b29610cba935460018060a01b031690565b60405160208101919091526001600160a01b03909316602484015250909550610cba94508593505060448301915061199c9050565b95505091509450610cba935061199c91506040519485936020850152602484016119c9565b6001600160a01b031615611d5e57565b60405162e18e7f60e71b8152600490fd5b803b158015611da2575b611d805750565b604051630f20e39960e21b81526001600160a01b039091166004820152602490fd5b5060206000604051828101906301ffc9a760e01b808352602482015260248152611dcb8161088c565b519084617530fa6000513d82611e1f575b5081611e15575b5080611e05575b80611df6575b15611d79565b50611e0081611e88565b611df0565b50611e0f81611e2b565b15611dea565b9050151538611de3565b60201115915038611ddc565b6000602091604051838101906301ffc9a760e01b825263ffffffff60e01b602482015260248152611e5b8161088c565b5191617530fa6000513d82611e7c575b5081611e75575090565b9050151590565b60201115915038611e6b565b6000602091604051838101906301ffc9a760e01b8252636cdb3d1360e11b602482015260248152611e5b8161088c565b6000198114610a535760010190565b9291909291600080925b828410611ee057505050501490565b90919293611f23908560051b83013580821115600014611f2b57604080516020810193845290810191909152611f19816060810161199c565b5190205b94611eb8565b929190611ed1565b60408051602081019283529081019290925290611f4b816060810161199c565b519020611f1d565b9293949194611f60610cbd565b611f6985611d4e565b611f738382613cf4565b6001600160a01b038216338114908115612564575b506125435773__$11854c5905aa23948096e0e4d7059bb9de$__3b1561010957604051635e157ccf60e11b815260008180611fc68a600483016108c8565b038173__$11854c5905aa23948096e0e4d7059bb9de$__5af480156104c257612530575b50611ff484611d6f565b600080516020613d5c833981519152546120389060209061201d906001600160a01b031661065b565b6040518093819263e985e9c560e01b835287600484016119e4565b03816001600160a01b0389165afa9081156104c257600091612501575b50156124e55761206483610912565b61206d84610912565b612076856125cc565b916000806120ad61065b7f5e94cc2b8b9fd616c1ffff3497627b534929331e1f3b26d7dc3360464546d5015460018060a01b031690565b88821061232e57505073__$11854c5905aa23948096e0e4d7059bb9de$__3b1561010957604051635ea509b560e01b815290600090829081906120f4908e60048401610a65565b038173__$11854c5905aa23948096e0e4d7059bb9de$__5af480156104c25761231b575b5060005b86811061228c575090612131918886896136d8565b60005b848110612145575050505050505050565b61214f8183610a0c565b515190602061215e8285610a0c565b51015191604061216e8386610a0c565b51015190606061217e8487610a0c565b51015191608061218e8588610a0c565b5101519473__$11854c5905aa23948096e0e4d7059bb9de$__3b15610109578c956000948c936121d393604051998a97889763034a3a4560e21b8952600489016126f2565b038173__$11854c5905aa23948096e0e4d7059bb9de$__5af480156104c25786867f857740d63aaa9598f8360ee80e7eb51d65b40b9cd2c7cfa85743bb160df9cb198c8c6122708a60408f988a612237818f60019f61224f95612279575b50610a0c565b515199602061224783838861261c565b01359461261c565b0135906040519485948c8060a01b0316998c8060a01b0316983398866119fe565b0390a401612134565b806104b661228692610823565b38612231565b8087898883896122dc600260406122d060019a896122ca896105306122b08d610b78565b6122bb86868d61261c565b35600052602052604060002090565b9661261c565b0135920191825461265e565b809155156122ef575b505050500161211c565b612312936122bb6105309261230661230d96610b78565b928d61261c565b612682565b878988836122e5565b806104b661232892610823565b38612118565b909161234661233e848b8a61261c565b8d8a8d612754565b6123508488610a0c565b5261235b8387610a0c565b50612367838a8961261c565b356123728486610a0c565b526040612380848b8a61261c565b013561238c8487610a0c565b526123ba602061239c8587610a0c565b518c8b604051809581948293627eeac760e11b8452600484016119c9565b03916001600160a01b03165afa9081156104c2576000916124c6575b506123e18487610a0c565b51811061248b575061241b6020806123f9868a610a0c565b510151604051809381926361fe24a960e11b8352600483019190602083019252565b0381865afa9182156104c2576001926124649260009161246c575b506040612443878b610a0c565b5101526106e86020612455878b610a0c565b51015160406106df888c610a0c565b9201906120ad565b612485915060203d6020116107265761071581836108a7565b38612436565b886124c28c92886124a7886124a0818c610a0c565b5192610a0c565b5190604051958695636906ef1760e11b87526004870161262c565b0390fd5b6124df915060203d6020116107265761071581836108a7565b386123d6565b60405163d65b0d6960e01b8152806124c28685600484016119e4565b612523915060203d602011612529575b61251b81836108a7565b810190612577565b38612055565b503d612511565b806104b661253d92610823565b38611fea565b60405163aac1ae8b60e01b81526001600160a01b0383166004820152602490fd5b6001600160a01b03871614905038611f88565b90816020910312610109575180151581036101095790565b6040519060a082018281106001600160401b0382111761083657604052606060808360008152600060208201526000604082015282808201520152565b906125d6826108fb565b6125e360405191826108a7565b82815280926125f4601f19916108fb565b019060005b82811061260557505050565b60209061261061258f565b828285010152016125f9565b9190811015610a07576060020190565b6001600160a01b0391821681529116602082015260408101919091526060810191909152608081019190915260a00190565b91908203918211610a5357565b818110612676575050565b6000815560010161266b565b6005600091828155826001820155826002820155826003820155600481018054848255806126d8575b50500190815490808355816126bf57505050565b602081610db894601f935220910160051c81019061266b565b6126eb918552602085209081019061266b565b38806126ab565b9592906127469491610cba989693600080516020613d3c833981519152895260018060a01b0380931660208a01526040890152166060870152608086015260a08501526101008060c0860152840190610bea565b9160e0818403910152610c27565b92909161275f61258f565b50813590604060208401359301359361277c85858585858b612797565b97911561278d575050505050505090565b610d7b97506128c2565b949392906127a361258f565b9582875285156128ac576127bd926104e861053092610b78565b906002820154908115612897576003830154801515908161288c575b506128775782546001600160a01b03918216911603612863578260018301540361284f57831161283c5761281260059261282e9461154c565b602085015261282360048201610d83565b606085015201610ddd565b608082015260019160009190565b506000936364b7fccd60e11b9392509050565b50600094631d6bbb8d60e11b949350915050565b50600094632e834cbf60e11b949350915050565b50600095635493bdef60e11b95945092505050565b9050421015386127d9565b50600095630bac95f560e21b95945092505050565b5060009663c6b949a960e01b9695509350505050565b9492916128d681610530876104e886610b78565b956001600160e01b0319169463c6b949a960e01b808714611c835750630bac95f560e21b868114612a1b5750635493bdef60e11b918683146129ce5750632e834cbf60e11b925050508381146129b05750631d6bbb8d60e11b905082811461298157506364b7fccd60e11b918214905061295557505050610cba611810565b61199c6002610cba93015460405194859360208501526024840160209093929193604081019481520152565b60019390930154604051602081019490945260248401919091526044830152509050610cba816064810161199c565b9354909450610cba93925061199c91506001600160a01b0316611b29565b6003979097015460405160208101939093526001600160a01b0393841660248401526044830191909152919095166064860152608485015250919250610cba915082905060a4810161199c565b60405160208101919091526001600160a01b0393841660248201526044810191909152911660648201529450610cba93508492505060848201905061199c565b9491959296909397612a6b610cbd565b60409384519a612a7a8c610856565b6001600160a01b039788168c5260208c01968752978716858c0181815299881660608d0190815260808d019b8c5260a08d01958652999890338114612db957508b51612ace906001600160a01b0316611d6f565b895173__$11854c5905aa23948096e0e4d7059bb9de$__93906001600160a01b031694843b15610109578751635e157ccf60e11b8152600096879082908190612b1a90600483016108c8565b0381895af480156104c257612da6575b50843b15612da25787516376fb859760e01b8152868180612b518787878b60048601612e6b565b0381895af480156104c257612d8f575b50865115612d7e579161065b93918e9897969593612bda6020612b9c61065b612b898e612f27565b9e51909e9a6001600160a01b0390911690565b600080516020613d5c83398151915254612bbe906001600160a01b031661065b565b908c51808095819463e985e9c560e01b835233600484016119e4565b03915afa9081156104c2578891612d60575b5015612d3857908f91612c3e8f9594938f612c31908f8d90612c25612c17865160018060a01b031690565b93516001600160a01b031690565b90519151923390613303565b516001600160a01b031690565b8c5195519094906001600160a01b031697873b15612d345790612c7a949392918c519d8e9a8b998a9963034a3a4560e21b8b5260048b01612e92565b03915af480156104c257612ce6612cd6612cc87fd6c105ec24ddd771e44ffc25e8a8603b6b78ba980a72645a26740b3d8437388599612d1c978a95612d21575b50516001600160a01b031690565b9b516001600160a01b031690565b955198516001600160a01b031690565b9851915192519788526001600160a01b039098166020880152604087015260608601529116949093169233929081906080820190565b0390a4565b806104b6612d2e92610823565b38612cba565b8980fd5b8f51895163d65b0d6960e01b81529081906124c2906001600160a01b031633600484016119e4565b612d78915060203d81116125295761251b81836108a7565b38612bec565b875163c6b949a960e01b8152600490fd5b806104b6612d9c92610823565b38612b61565b8580fd5b806104b6612db392610823565b38612b2a565b8651630bfa508960e41b81526001600160a01b03919091166004820152602490fd5b91908082526020809201929160005b828110612df8575050505090565b9091929382806001928735612e0c816100f8565b848060a01b03168152019501910192919092612dea565b9190808252602080920192916000805b838210612e4257505050505090565b9091929394853560ff8116809103612e67578152830194830193929160010190612e33565b8280fd5b9290612e8490610cba9593604086526040860191612ddb565b926020818503910152612e23565b97959390610cba999793612ee79693600080516020613d3c8339815191528b5260018060a01b0380931660208c015260408b0152166060890152608088015260a08701526101008060c0880152860191612ddb565b9260e0818503910152612e23565b6001600160a01b0391821681526020810192909252918216604082015291166060820152608081019190915260a00190565b80516001600160a01b031660009081527f5e94cc2b8b9fd616c1ffff3497627b534929331e1f3b26d7dc3360464546d5146020526040902090919091612f7b60208201938451600052602052604060002090565b90604093612fac85830193612f96855160018060a01b031690565b60018060a01b0316600052602052604060002090565b6060830180519091612fc6916001600160a01b0316612f96565b936002850154928315613105576006860154801515806130fb575b6130b7575050845461300691506001600160a01b03165b91516001600160a01b031690565b6001600160a01b038181169083160361309c5750506001830154916080810192835180820361307b57505060a0019485519082821161305b5750505090613053610cba925185519061154c565b93519061316d565b5163587ced0f60e01b815260048101919091526024810191909152604490fd5b8751631d6bbb8d60e11b815260048101919091526024810191909152604490fd5b6124c28751928392632e834cbf60e11b8452600484016119e4565b6124c29089856130e3612ff86130d38b5160018060a01b031690565b965197516001600160a01b031690565b915163581fa6b560e01b815295869560048701612ef5565b5042811115612fe1565b6124c28884613130612ff86131208a5160018060a01b031690565b955196516001600160a01b031690565b915163b9c59b5760e01b81526001600160a01b03948516600482015260248101959095528316604485015291909116606483015281906084820190565b91909160028101908154908185146131dc57908160056131d8930154936131d16131c96003840154966131c460046131ae8c6131a98a8d61265e565b610a58565b9601988954966131be888561265e565b9361327b565b61265e565b97889461265e565b905561265e565b9055565b91929350506006600482019182549360018060a01b031982541682556000938480928160018601555581600384015555826005820155015590565b8115613221570490565b634e487b7160e01b600052601260045260246000fd5b1561323e57565b60405162461bcd60e51b81526020600482015260156024820152744d6174683a206d756c446976206f766572666c6f7760581b6044820152606490fd5b909160001983830992808302928380861095039480860395146132f6579082916132a6868411613237565b096001821901821680920460028082600302188083028203028083028203028083028203028083028203028083028203028092029003029360018380600003040190848311900302920304170290565b505090610cba9250613217565b60408051627eeac760e11b8082529296600496909594939092916001600160a01b0389169160209182818061333b898b8f84016119c9565b0381875afa9081156104c257600091613562575b5088811061354357908291869493898c6133738951988993849388855284016119c9565b0381875afa9485156104c257600095613524575b50600080516020613d5c833981519152546133aa906001600160a01b031661065b565b803b1561010957865163eb46c45b60e01b81526001600160a01b03808f16828f01908152818c166020820152908c166040820152606081018a9052608081018d905260c060a0820181905260009082018190529192839182908490829060e00103925af180156104c257613511575b508683898d6134328a51948593849389855284016119c9565b0381885afa9283156104c25788958d8c9287946000976134f2575b506134638b51998a9586948594855284016119c9565b03915afa9384156104c2578a936000956134cd575b5050826134849161265e565b14928315936134b8575b50505061349e5750505050505050565b51638791019960e01b8152965086956124c2958701612ef5565b6134c3929350610a58565b141538868161348e565b6134849295508491816134eb92903d106107265761071581836108a7565b9491613478565b61350a919750853d87116107265761071581836108a7565b953861344d565b806104b661351e92610823565b38613419565b61353c919550833d85116107265761071581836108a7565b9338613387565b896124c288928b898f8a51968796636906ef1760e11b8852870161262c565b6135799150833d85116107265761071581836108a7565b3861334f565b6020908181840312610109578051906001600160401b03821161010957019180601f840112156101095782516135b4816108fb565b936135c260405195866108a7565b818552838086019260051b820101928311610109578301905b8282106135e9575050505090565b815181529083019083016135db565b90815180825260208080930193019160005b828110613618575050505090565b83518552938101939281019260010161360a565b9092916040820191604081528451809352606081019260208096019060005b81811061366557505050610cba93948184039101526135f8565b82516001600160a01b03168652948701949187019160010161364b565b93602095926136c7946136b99360018060a01b0392838092168952168888015216604086015260c0606086015260c08501906135f8565b9083820360808501526135f8565b9060a0818303910152600081520190565b835190949093926001600160a01b0386169290916136fd6136f887611536565b610912565b9461370a6136f888611536565b809660005b89811061398757506040968751916313849cfd60e21b918284528084808460049e8f83019161373d9261362c565b03815a93600094fa9384156104c25760009461396c575b5060005b8c81106138fc5750600080516020613d5c83398151915254613782906001600160a01b031661065b565b92833b15610109576000898f958c968f8f906137b48e8e8894519c8d9889978896637ee7f69b60e01b88528701613682565b03925af19081156104c2576000948d926138e9575b506137df8c51978895869485948552840161362c565b03915afa9182156104c2576000926138c6575b5060005b89811061380a575050505050505050505050565b61381381611536565b61381d8185610a0c565b5161383d61382b8386610a0c565b51613836858a610a0c565b519061265e565b1490811591613882575b50613854576001016137f6565b6124c29899508092506124a0915061386b93610a0c565b519351638791019960e01b81529687968701612ef5565b90506138be6138ac6138a661389f61389985610a45565b88610a0c565b5193610a45565b85610a0c565b516138b78489610a0c565b5190610a58565b141538613847565b6138e291923d8091833e6138da81836108a7565b81019061357f565b90386137f2565b806104b66138f692610823565b386137c9565b61390581611536565b61390f8187610a0c565b5161391a838b610a0c565b51116139295750600101613758565b8c8f8d888c6124c2938f96613955908f8a6139478161394e93610a0c565b5195610a0c565b5194610a0c565b519351636906ef1760e11b8152968796870161262c565b61398091943d8091833e6138da81836108a7565b9238613754565b600191925061399581611536565b6139b2876139a38387610a0c565b6001600160a01b039091169052565b6139c8886139a36139c284610a45565b87610a0c565b6139d28286610a0c565b516139dd828c610a0c565b526139fb6139f56139ee8488610a0c565b5192610a45565b8b610a0c565b520190879161370f565b6001600160a01b039091168152606060208201819052610cba939192613a2d918401906135f8565b9160408184039101526135f8565b909260018060a01b03821692613a52815186613b4f565b94604051936313849cfd60e21b95868652600097888780613a7788856004840161362c565b0381855afa9687156104c2578997613b33575b50813b15613b2f57604051630d4498e760e21b815291898380613ab28a8a8a60048501613a05565b038183855af19182156104c257613ae2998b948894613b1c575b506040519a8b948593849384526004840161362c565b03915afa9586156104c25787610db89897613aff575b5050613b87565b613b149297503d8091833e6138da81836108a7565b943880613af8565b806104b6613b2992610823565b38613acc565b8880fd5b613b489197503d808b833e6138da81836108a7565b9538613a8a565b9190613b5a81610912565b9260005b828110613b6a57505050565b80613b7760019287610a0c565b828060a01b038416905201613b5e565b939092959460005b8351811015613c2257613ba28183610a0c565b51613bad8285610a0c565b5190613bb9838b610a0c565b518201809211610a535703613bd057600101613b8f565b856124c286613be4846139478d968a610a0c565b51604051631b3c965960e21b81526001600160a01b039485166004820152602481019590955292166044840152606483019190915281906084820190565b5050505050509050565b613c3582613c80565b60015b828110613c4457505050565b600019810190808211610a5357613c76613c62613c7b9386866109e5565b35613c6e8387876109e5565b359083613cc2565b611eb8565b613c38565b8015613cb057604b8111613c915750565b6044906040519063f80a484560e01b82526004820152604b6024820152fd5b60405163c2e5347d60e01b8152600490fd5b919080821115613cd157505050565b606493506040519263f48f718f60e01b8452600484015260248301526044820152fd5b613cfd82613c80565b60015b828110613d0c57505050565b600019810190808211610a5357613c76613d2a613d3693868661261c565b35613c6e83878761261c565b613d0056fe5e94cc2b8b9fd616c1ffff3497627b534929331e1f3b26d7dc3360464546d5005e94cc2b8b9fd616c1ffff3497627b534929331e1f3b26d7dc3360464546d50aa26469706673582212201c4c24cde66161e3711b9c4ab555c62acb24dc28f25fc4a4722424f67dbde4f064736f6c63430008120033","linkReferences":{"src/marketplace/RareERC1155MarketplacePayments.sol":{"RareERC1155MarketplacePayments":[{"start":466,"length":20},{"start":527,"length":20},{"start":614,"length":20},{"start":678,"length":20},{"start":1045,"length":20},{"start":1113,"length":20},{"start":8120,"length":20},{"start":8179,"length":20},{"start":8417,"length":20},{"start":8481,"length":20},{"start":8637,"length":20},{"start":8704,"length":20},{"start":11003,"length":20}]}}},"methodIdentifiers":{"MAX_BATCH_SIZE()":"cfdbf254","MAX_CHECKOUT_SIZE()":"a3eaf4d9","acceptOffer(address,uint256,address,address,uint256,uint256,address[],uint8[])":"b8e6b50f","buyBatch(address,address,address,address,(uint256,uint256,uint256)[])":"1b19ab9b","mintDirectSaleBatch(address,address,address,(uint256,uint256,uint256,bytes32[])[])":"a2d44e32"},"id":79}