{"abi":[{"type":"constructor","inputs":[],"stateMutability":"nonpayable"},{"type":"function","name":"OFFER_CANCELATION_DELAY","inputs":[],"outputs":[{"name":"","type":"uint256","internalType":"uint256"}],"stateMutability":"view"},{"type":"function","name":"buyWithMerkleProof","inputs":[{"name":"_originContract","type":"address","internalType":"address"},{"name":"_tokenId","type":"uint256","internalType":"uint256"},{"name":"_creator","type":"address","internalType":"address"},{"name":"_merkleRoot","type":"bytes32","internalType":"bytes32"},{"name":"_proof","type":"bytes32[]","internalType":"bytes32[]"},{"name":"_allowListProof","type":"bytes32[]","internalType":"bytes32[]"}],"outputs":[],"stateMutability":"payable"},{"type":"function","name":"creatorRootToConfig","inputs":[{"name":"","type":"address","internalType":"address"},{"name":"","type":"bytes32","internalType":"bytes32"}],"outputs":[{"name":"currency","type":"address","internalType":"address"},{"name":"amount","type":"uint256","internalType":"uint256"},{"name":"nonce","type":"uint256","internalType":"uint256"}],"stateMutability":"view"},{"type":"function","name":"getAllowListConfig","inputs":[{"name":"_creator","type":"address","internalType":"address"},{"name":"_merkleRoot","type":"bytes32","internalType":"bytes32"}],"outputs":[{"name":"","type":"tuple","internalType":"struct IRareBatchListingMarketplace.AllowListConfig","components":[{"name":"root","type":"bytes32","internalType":"bytes32"},{"name":"endTimestamp","type":"uint256","internalType":"uint256"}]}],"stateMutability":"view"},{"type":"function","name":"getCreatorSalePriceMerkleRootNonce","inputs":[{"name":"_user","type":"address","internalType":"address"},{"name":"_root","type":"bytes32","internalType":"bytes32"}],"outputs":[{"name":"","type":"uint256","internalType":"uint256"}],"stateMutability":"view"},{"type":"function","name":"getMerkleSalePriceConfig","inputs":[{"name":"_creator","type":"address","internalType":"address"},{"name":"_root","type":"bytes32","internalType":"bytes32"}],"outputs":[{"name":"","type":"tuple","internalType":"struct IRareBatchListingMarketplace.MerkleSalePriceConfig","components":[{"name":"currency","type":"address","internalType":"address"},{"name":"amount","type":"uint256","internalType":"uint256"},{"name":"splitRecipients","type":"address[]","internalType":"address payable[]"},{"name":"splitRatios","type":"uint8[]","internalType":"uint8[]"},{"name":"nonce","type":"uint256","internalType":"uint256"}]}],"stateMutability":"view"},{"type":"function","name":"getTokenSalePriceNonce","inputs":[{"name":"_creator","type":"address","internalType":"address"},{"name":"_root","type":"bytes32","internalType":"bytes32"},{"name":"_tokenContract","type":"address","internalType":"address"},{"name":"_tokenId","type":"uint256","internalType":"uint256"}],"outputs":[{"name":"","type":"uint256","internalType":"uint256"}],"stateMutability":"view"},{"type":"function","name":"getUserSalePriceMerkleRoots","inputs":[{"name":"_user","type":"address","internalType":"address"}],"outputs":[{"name":"","type":"bytes32[]","internalType":"bytes32[]"}],"stateMutability":"view"},{"type":"function","name":"initialize","inputs":[{"name":"_marketplaceSettings","type":"address","internalType":"address"},{"name":"_royaltyEngine","type":"address","internalType":"address"},{"name":"_spaceOperatorRegistry","type":"address","internalType":"address"},{"name":"_approvedTokenRegistry","type":"address","internalType":"address"},{"name":"_payments","type":"address","internalType":"address"},{"name":"_stakingRegistry","type":"address","internalType":"address"},{"name":"_stakingSettings","type":"address","internalType":"address"},{"name":"_networkBeneficiary","type":"address","internalType":"address"},{"name":"_erc20ApprovalManager","type":"address","internalType":"address"},{"name":"_erc721ApprovalManager","type":"address","internalType":"address"}],"outputs":[],"stateMutability":"nonpayable"},{"type":"function","name":"isTokenInRoot","inputs":[{"name":"_root","type":"bytes32","internalType":"bytes32"},{"name":"_origin","type":"address","internalType":"address"},{"name":"_tokenId","type":"uint256","internalType":"uint256"},{"name":"_proof","type":"bytes32[]","internalType":"bytes32[]"}],"outputs":[{"name":"","type":"bool","internalType":"bool"}],"stateMutability":"pure"},{"type":"function","name":"owner","inputs":[],"outputs":[{"name":"","type":"address","internalType":"address"}],"stateMutability":"view"},{"type":"function","name":"registerSalePriceMerkleRoot","inputs":[{"name":"_merkleRoot","type":"bytes32","internalType":"bytes32"},{"name":"_currency","type":"address","internalType":"address"},{"name":"_amount","type":"uint256","internalType":"uint256"},{"name":"_splitAddresses","type":"address[]","internalType":"address payable[]"},{"name":"_splitRatios","type":"uint8[]","internalType":"uint8[]"}],"outputs":[],"stateMutability":"nonpayable"},{"type":"function","name":"renounceOwnership","inputs":[],"outputs":[],"stateMutability":"nonpayable"},{"type":"function","name":"setAllowListConfig","inputs":[{"name":"_merkleRoot","type":"bytes32","internalType":"bytes32"},{"name":"_allowListRoot","type":"bytes32","internalType":"bytes32"},{"name":"_endTimestamp","type":"uint256","internalType":"uint256"}],"outputs":[],"stateMutability":"nonpayable"},{"type":"function","name":"transferOwnership","inputs":[{"name":"newOwner","type":"address","internalType":"address"}],"outputs":[],"stateMutability":"nonpayable"},{"type":"event","name":"AllowListConfigSet","inputs":[{"name":"creator","type":"address","indexed":true,"internalType":"address"},{"name":"merkleRoot","type":"bytes32","indexed":true,"internalType":"bytes32"},{"name":"allowListRoot","type":"bytes32","indexed":true,"internalType":"bytes32"},{"name":"endTimestamp","type":"uint256","indexed":false,"internalType":"uint256"}],"anonymous":false},{"type":"event","name":"Initialized","inputs":[{"name":"version","type":"uint8","indexed":false,"internalType":"uint8"}],"anonymous":false},{"type":"event","name":"MerkleSalePriceExecuted","inputs":[{"name":"contractAddress","type":"address","indexed":true,"internalType":"address"},{"name":"tokenId","type":"uint256","indexed":true,"internalType":"uint256"},{"name":"buyer","type":"address","indexed":true,"internalType":"address"},{"name":"seller","type":"address","indexed":false,"internalType":"address"},{"name":"merkleRoot","type":"bytes32","indexed":false,"internalType":"bytes32"},{"name":"amount","type":"uint256","indexed":false,"internalType":"uint256"},{"name":"nonce","type":"uint256","indexed":false,"internalType":"uint256"}],"anonymous":false},{"type":"event","name":"OfferPlaced","inputs":[{"name":"originContract","type":"address","indexed":true,"internalType":"address"},{"name":"bidder","type":"address","indexed":true,"internalType":"address"},{"name":"currencyAddress","type":"address","indexed":true,"internalType":"address"},{"name":"amount","type":"uint256","indexed":false,"internalType":"uint256"},{"name":"tokenId","type":"uint256","indexed":false,"internalType":"uint256"},{"name":"convertible","type":"bool","indexed":false,"internalType":"bool"}],"anonymous":false},{"type":"event","name":"OwnershipTransferred","inputs":[{"name":"previousOwner","type":"address","indexed":true,"internalType":"address"},{"name":"newOwner","type":"address","indexed":true,"internalType":"address"}],"anonymous":false},{"type":"event","name":"SalePriceMerkleRootRegistered","inputs":[{"name":"creator","type":"address","indexed":true,"internalType":"address"},{"name":"merkleRoot","type":"bytes32","indexed":true,"internalType":"bytes32"},{"name":"currency","type":"address","indexed":false,"internalType":"address"},{"name":"amount","type":"uint256","indexed":false,"internalType":"uint256"},{"name":"nonce","type":"uint256","indexed":false,"internalType":"uint256"}],"anonymous":false},{"type":"event","name":"SetSalePrice","inputs":[{"name":"originContract","type":"address","indexed":true,"internalType":"address"},{"name":"currencyAddress","type":"address","indexed":true,"internalType":"address"},{"name":"target","type":"address","indexed":true,"internalType":"address"},{"name":"amount","type":"uint256","indexed":false,"internalType":"uint256"},{"name":"tokenId","type":"uint256","indexed":false,"internalType":"uint256"},{"name":"splitAddresses","type":"address[]","indexed":false,"internalType":"address payable[]"},{"name":"splitRatios","type":"uint8[]","indexed":false,"internalType":"uint8[]"}],"anonymous":false},{"type":"event","name":"Sold","inputs":[{"name":"originContract","type":"address","indexed":true,"internalType":"address"},{"name":"buyer","type":"address","indexed":true,"internalType":"address"},{"name":"seller","type":"address","indexed":true,"internalType":"address"},{"name":"currencyAddress","type":"address","indexed":false,"internalType":"address"},{"name":"amount","type":"uint256","indexed":false,"internalType":"uint256"},{"name":"tokenId","type":"uint256","indexed":false,"internalType":"uint256"}],"anonymous":false}],"bytecode":{"object":"0x60808060405234620000c6576000549060ff8260081c1662000074575060ff8082160362000038575b604051613e599081620000cc8239f35b60ff90811916176000557f7f26b83ff96e1f2b6a682f133852f6798a09c465da95921460cefb3847402498602060405160ff8152a13862000028565b62461bcd60e51b815260206004820152602760248201527f496e697469616c697a61626c653a20636f6e747261637420697320696e697469604482015266616c697a696e6760c81b6064820152608490fd5b600080fdfe608080604052600436101561001357600080fd5b600090813560e01c90816309858ef2146134045750806338de3d651461330d578063453c85581461325f57806345935d1814612a985780635e51b2d414612a035780636a11a64d146129c0578063715018a61461296357806374ebded21461131957806375c9c23e1461128b5780638da5cb5b14611262578063a435bac514611246578063bb120e66146111d1578063c306b37814610898578063d72a541a146101595763f2fde38b146100c657600080fd5b34610156576020366003190112610156576100df61347c565b6100e76134ee565b6001600160a01b03811615610102576100ff90613546565b80f35b60405162461bcd60e51b815260206004820152602660248201527f4f776e61626c653a206e6577206f776e657220697320746865207a65726f206160448201526564647265737360d01b6064820152608490fd5b80fd5b50346101565760403660031901126101565761017361347c565b816080604051610182816135aa565b82815282602082015260606040820152606080820152015260018060a01b0316815260a2602052604081206024358252602052604081206040516101c5816135aa565b60018060a01b03825416815260018201546020820152600282016040518082602082945493848152019087526020872092875b81811061087657505061020d925003826135f3565b6040820152600382019160405180938491602082549182815201918752602087209087915b81601f8401106106ed57916103529391600496959354918181106106d9575b8181106106c2575b8181106106ab575b818110610694575b81811061067e575b818110610667575b818110610650575b818110610639575b818110610622575b81811061060b575b8181106105f4575b8181106105dd575b8181106105c6575b8181106105af575b818110610598575b818110610581575b81811061056a575b818110610553575b81811061053c575b818110610525575b81811061050e575b8181106104f7575b8181106104e0575b8181106104c9575b8181106104b2575b81811061049b575b818110610484575b81811061046d575b818110610456575b81811061043f575b818110610428575b1061041a575b5096949603856135f3565b606085019384520154608084019081526040519260208452604060c085019560018060a01b03815116602087015260208101518287015201519460a060608601528551809152602060e08601960190845b8181106103fb575050505191601f1984860301608085015260208084519687815201930190945b8086106103e05750508293505160a08301520390f35b909260208060019260ff8751168152019401950194906103ca565b82516001600160a01b03168852602097880197909201916001016103a3565b60f81c815260200138610347565b92602060019160ff8560f01c168152019301610341565b92602060019160ff8560e81c168152019301610339565b92602060019160ff8560e01c168152019301610331565b92602060019160ff8560d81c168152019301610329565b92602060019160ff8560d01c168152019301610321565b92602060019160ff8560c81c168152019301610319565b92602060019160ff8560c01c168152019301610311565b92602060019160ff8560b81c168152019301610309565b92602060019160ff8560b01c168152019301610301565b92602060019160ff8560a81c1681520193016102f9565b92602060019160ff8560a01c1681520193016102f1565b92602060019160ff8560981c1681520193016102e9565b92602060019160ff8560901c1681520193016102e1565b92602060019160ff8560881c1681520193016102d9565b92602060019160ff8560801c1681520193016102d1565b92602060019160ff8560781c1681520193016102c9565b92602060019160ff8560701c1681520193016102c1565b92602060019160ff8560681c1681520193016102b9565b92602060019160ff8560601c1681520193016102b1565b92602060019160ff8560581c1681520193016102a9565b92602060019160ff8560501c1681520193016102a1565b92602060019160ff8560481c168152019301610299565b92602060019160ff8560401c168152019301610291565b92602060019160ff8560381c168152019301610289565b92602060019160ff8560301c168152019301610281565b92602060019160ff8560281c168152019301610279565b92602060019160ff85831c168152019301610271565b92602060019160ff8560181c168152019301610269565b92602060019160ff8560101c168152019301610261565b92602060019160ff8560081c168152019301610259565b92602060019160ff85168152019301610251565b935090916001610400602092865460ff8082168352808260081c1686840152808260101c166040840152808260181c1660608401528082871c166080840152808260a0828260281c1681870152828260c092828260301c16848a0152828260381c1660e08a0152828260401c166101008a0152828260481c166101208a0152828260501c166101408a0152828260581c166101608a0152828260601c166101808a0152828260681c166101a08a0152828260701c166101c08a0152828260781c166101e08a0152828260801c166102008a0152828260881c166102208a0152828260901c166102408a0152828260981c166102608a01521c16610280870152828260a81c166102a0870152828260b01c166102c0870152828260b81c166102e08701521c16610300840152808260c81c16610320840152808260d01c16610340840152808260d81c16610360840152808260e01c16610380840152808260e81c166103a08401528160f01c166103c083015260f81c6103e0820152019401920190869392610232565b84546001600160a01b03168352600194850194869450602090930192016101f8565b503461015657610140366003190112610156576108b361347c565b6108bb613492565b6108c36134a8565b606435916001600160a01b03831683036111cc57608435926001600160a01b03841684036111cc5760a435906001600160a01b03821682036111cc5760c435906001600160a01b03821682036111cc5760e435956001600160a01b03871687036111cc5761010435946001600160a01b03861686036111cc5761012435966001600160a01b03881688036111cc578a549960ff8b60081c16159a8b809c6111bf575b80156111a8575b1561114c5760ff1981166001178d558b61113b575b506001600160a01b038116156110da576001600160a01b0383161561107f576001600160a01b0382161561101c576001600160a01b03851615610fb9576001600160a01b03841615610f63576001600160a01b03871615610f06576001600160a01b03861615610ea9576001600160a01b038a1615610e49576001600160a01b03881615610de7576001600160a01b03891615610d845760405163ef8c824960e01b81526001600160a01b039a8b166004820152908a16602482015290891660448201529088166064820152908716608482015290861660a482015290851660c482015290841660e48201529083166101048201529116610124820152610140816101448173__$c98ca6a62396e5a7a1471db151198a1f31$__5af4908115610d79578391610c0e575b5060018060a01b03815116906001600160601b0360a01b9182609754161760975560018060a01b0360208201511682609854161760985560018060a01b0360408201511682609954161760995560018060a01b0360608201511682609a541617609a5560018060a01b0360808201511682609b541617609b5560018060a01b0360a08201511682609c541617609c5560018060a01b0360c08201511682609d541617609d5560018060a01b0360e08201511682609e541617609e5560018060a01b036101008201511682609f541617609f5561012060018060a01b03910151169060a054161760a055610bad60ff835460081c16610ba881613628565b613628565b610bb633613546565b815490610bcc60ff8360081c16610ba881613628565b6001606555610bd9575080f35b61ff00191681557f7f26b83ff96e1f2b6a682f133852f6798a09c465da95921460cefb3847402498602060405160018152a180f35b9050610140813d61014011610d71575b81610c2c61014093836135f3565b81010312610d6d576040519061014082018281106001600160401b03821117610d5757604052610c5b81613614565b825260208101516001600160a01b0381168103610d4f57602083015260408101516001600160a01b0381168103610d4f57604083015260608101516001600160a01b0381168103610d4f57606083015260808101516001600160a01b0381168103610d4f57608083015260a08101516001600160a01b0381168103610d4f5760a083015260c08101516001600160a01b0381168103610d4f5760c083015260e08101516001600160a01b0381168103610d4f5760e083015261010081810151906001600160a01b0382168203610d535783015261012090810151906001600160a01b0382168203610d4f5782015238610aab565b8480fd5b8580fd5b634e487b7160e01b600052604160045260246000fd5b8280fd5b3d9150610c1e565b6040513d85823e3d90fd5b60405162461bcd60e51b815260206004820152603560248201527f696e697469616c697a653a3a657263373231417070726f76616c4d616e616765604482015274722063616e6e6f742062652030206164647265737360581b6064820152608490fd5b60405162461bcd60e51b815260206004820152603460248201527f696e697469616c697a653a3a6572633230417070726f76616c4d616e616765726044820152732063616e6e6f742062652030206164647265737360601b6064820152608490fd5b60405162461bcd60e51b815260206004820152603260248201527f696e697469616c697a653a3a6e6574776f726b42656e65666963696172792063604482015271616e6e6f742062652030206164647265737360701b6064820152608490fd5b60405162461bcd60e51b815260206004820152602f60248201527f696e697469616c697a653a3a7374616b696e6753657474696e67732063616e6e60448201526e6f742062652030206164647265737360881b6064820152608490fd5b60405162461bcd60e51b815260206004820152602f60248201527f696e697469616c697a653a3a7374616b696e6752656769737472792063616e6e60448201526e6f742062652030206164647265737360881b6064820152608490fd5b60405162461bcd60e51b815260206004820152602860248201527f696e697469616c697a653a3a7061796d656e74732063616e6e6f742062652030604482015267206164647265737360c01b6064820152608490fd5b60405162461bcd60e51b815260206004820152603560248201527f696e697469616c697a653a3a617070726f766564546f6b656e52656769737472604482015274792063616e6e6f742062652030206164647265737360581b6064820152608490fd5b60405162461bcd60e51b815260206004820152603560248201527f696e697469616c697a653a3a73706163654f70657261746f7252656769737472604482015274792063616e6e6f742062652030206164647265737360581b6064820152608490fd5b60405162461bcd60e51b815260206004820152602d60248201527f696e697469616c697a653a3a726f79616c7479456e67696e652063616e6e6f7460448201526c2062652030206164647265737360981b6064820152608490fd5b60405162461bcd60e51b815260206004820152603360248201527f696e697469616c697a653a3a6d61726b6574706c61636553657474696e67732060448201527263616e6e6f742062652030206164647265737360681b6064820152608490fd5b61ffff1916610101178c5538610981565b60405162461bcd60e51b815260206004820152602e60248201527f496e697469616c697a61626c653a20636f6e747261637420697320616c72656160448201526d191e481a5b9a5d1a585b1a5e995960921b6064820152608490fd5b50303b15801561096c5750600160ff82161461096c565b50600160ff821610610965565b600080fd5b5034610156576040366003190112610156576001600160a01b0390604090826111f861347c565b16815260a2602052818120602435825260205220908154166112426004600184015493015460405193849384604091949392606082019560018060a01b0316825260208201520152565b0390f35b5034610156578060031936011261015657602060405160788152f35b50346101565780600319360112610156576033546040516001600160a01b039091168152602090f35b50346101565760803660031901126101565760406020916112aa61347c565b6112f86113066112b86134a8565b9285519283918883019560643591602435908892606894926001600160601b0319809360601b168552601485015260601b16603483015260488201520190565b03601f1981018352826135f3565b519020815260a483522054604051908152f35b5060c03660031901126101565761132e61347c565b6113366134a8565b906084356001600160401b038111611d4e576113569036906004016134be565b60a4356001600160401b038111610d53576113759036906004016134be565b91909260026065541461291e576002606555604051606086901b6bffffffffffffffffffffffff19166020820190815260243560348301526113d893916113d391906113c481605481016112f8565b5190209260643592369161375f565b6137ad565b156128c85760018060a01b038416855260a160205261140c6064356040872060019160005201602052604060002054151590565b1561286c5760018060a01b038416855260a560205260408520606435865260205260408520906040519161143f8361358f565b600181549182855201549081602085015261277b575b5050505060018060a01b038216835260a26020526040832060643584526020526040832092604051611486816135aa565b60018060a01b03855416815260018501546020820152600285016040518082602082945493848152019086526020862092865b8181106127595750506114ce925003826135f3565b6040820152600385019460405180602088549182815201978552602085209085915b81601f8401106125d7579289819361160e936004979654918181106125c3575b8181106125ac575b818110612595575b81811061257e575b818110612568575b818110612551575b81811061253a575b818110612523575b81811061250c575b8181106124f5575b8181106124de575b8181106124c7575b8181106124b0575b818110612499575b818110612482575b81811061246b575b818110612454575b81811061243d575b818110612426575b81811061240f575b8181106123f8575b8181106123e1575b8181106123ca575b8181106123b3575b81811061239c575b818110612385575b81811061236e575b818110612357575b818110612340575b818110612329575b818110612312575b10612304575b5003826135f3565b606084015201546080820152604051602081019061165f816112f8602435886064358b8892606894926001600160601b0319809360601b168552601485015260601b16603483015260488201520190565b5190209360018060a01b038116835260a360205260408320606435845260205260408320549480845260a46020528560408520541015612299576040516331a9108f60e11b81526024803560048301526020908290816001600160a01b038a165afa90811561220357859161225f575b506001600160a01b0383811691160361220e5760a05460405163e985e9c560e01b81526001600160a01b038481166004830152918216602482015290602090829060449082908a165afa9081156122035785916121e4575b501561219f576020838101516098546040516361fe24a960e11b815260048101839052919290829060249082906001600160a01b03165afa908115612194578691612160575b5061177b9061178b92613688565b84516001600160a01b031661386f565b835260a46020526040832085905560a0546001600160a01b0316803b15611d4e57604051630aed65f560e11b81526001600160a01b03868116600483015283166024808301919091523360448301523560648201529084908290608490829084905af1801561215557612142575b5060018060a01b038251169160208101519460408201519260608301519184518351036120e1576098546040516361fe24a960e11b8152600481018a90528991602090829060249082906001600160a01b03165afa9081156120d65789916120a4575b506040519061186a826135d8565b6002825260403660208401376097546001600160a01b03168061188c84613819565b52609e5460405163e286ef3360e01b81526001600160a01b038881166004830152909160209183916024918391165afa908115611fae578c91612066575b506001600160a01b03166118dd84613826565b526001600160a01b036118ef84613826565b511661204d575b6118ff83613826565b6001600160a01b039091169052604051611918816135d8565b600281526040366020830137609d546040516303fdde1160e21b8152600481018690526001600160a01b0390911690602081602481855afa908115612042578d9161200f575b5060249160209161196e85613819565b526040519283809263470d6ed960e11b82528960048301525afa908115611fae579084918d91611fd8575b50926119af936119a884613826565b528b613b5a565b609854604051631446f21360e21b81526001600160a01b038581166004830152602480359083015290911690602081604481855afa908115611eb557908b9695949392918791611fb9575b5015611d52575b5050609a54604051637a99dc0160e11b81526001600160a01b038481166004830152602480359083015260448201939093529985928b921690829081606481015b03925af1998a15610d79578398849b611bfd575b50839884995b8c518b1015611a8a57611a7e611a8491611a778f8e90613836565b5190613688565b9a61380a565b99611a5c565b96979899508b611aa591611a9e898e613862565b988c613b5a565b845196611ab1886136ab565b97611abf604051998a6135f3565b808952611ace601f19916136ab565b013660208a0137845b8651811015611b1357806064611afd60ff611af5611b0e958c613836565b51168b6136c2565b04611b08828c613836565b5261380a565b611ad7565b50611b20888a898d613b5a565b60985485906001600160a01b0316803b15611bf957604051635a3c652d60e01b81526001600160a01b03861660048201526024803590820152600160448201529082908290606490829084905af18015611bee57611bda575b5050602001516040519360018060a01b0316845260643560208501526040840152606083015233917f9fae626246a186689a17d9e521c572bbd8580b261555b36b1a5fb66f85740ad860806024359360018060a01b031692a4600160655580f35b611be3906135c5565b610d4f578486611b79565b6040513d84823e3d90fd5b5080fd5b985099503d978884823e611c1189826135f3565b6040818a81010312611d4e578051906001600160401b038211610d4f57898101601f838301011215610d4f578181015191611c4b836136ab565b92611c5960405194856135f3565b80845260208401918c840160208360051b838701010111611d2657602081850101925b60208360051b83870101018410611d2a57505050506020810151996001600160401b038b11610d5357808201601f8c8401011215610d53578a82015191611cc2836136ab565b9b611cd06040519d8e6135f3565b838d5260208d0192820160208560051b838501010111611d26579190602083820101925b60208560051b82840101018410611d1257505050505097998b611a56565b602080809486518152019401939250611cf4565b8780fd5b83516001600160a01b0381168103611d4a57815260209384019301611c7c565b8980fd5b8380fd5b90919293945060405190611d658261358f565b600182526020368184013760405192611d7d8461358f565b60018452602036818601376001600160a01b0390611d9a90613819565b5116611da584613819565b52609954604051635dc22eff60e01b81526001600160a01b038881166004830152909160209183916024918391165afa908115611fae578c91611f7f575b5015611ec05750609954604051632260494f60e01b81526001600160a01b038781166004830152909160209183916024918391165afa908115611eb5579160ff8c97969593928895938691611e86575b50169c611e408e856136c2565b60649004611e4d91613862565b9c611e5890846136c2565b60649004611e6582613819565b52611e6f81613819565b5191611e7b928c613b5a565b611a42905b91611a01565b611ea8915060203d602011611eae575b611ea081836135f3565b810190613ab9565b38611e33565b503d611e96565b6040513d8d823e3d90fd5b60405163b28a7bad60e01b81526001600160a01b0386166004820152919b50602090829060249082905afa908115611f74579160ff8b9695949287948591611f55575b50169b611f108d846136c2565b60649004611f1e9084613862565b9c611f2990846136c2565b60649004611f3682613819565b52611f4081613819565b5191611f4c928c613b5a565b611a4290611e80565b611f6e915060203d602011611eae57611ea081836135f3565b8f611f03565b6040513d8c823e3d90fd5b611fa1915060203d602011611fa7575b611f9981836135f3565b81019061384a565b8e611de3565b503d611f8f565b6040513d8e823e3d90fd5b611fd2915060203d602011611fa757611f9981836135f3565b8e6119fa565b9150506020813d602011612007575b81611ff4602093836135f3565b810103126111cc575183906119af611999565b3d9150611fe7565b90506020813d60201161203a575b8161202a602093836135f3565b810103126111cc5751602461195e565b3d915061201d565b6040513d8f823e3d90fd5b506001600160a01b0361205f83613826565b51166118f6565b90506020813d60201161209c575b81612081602093836135f3565b810103126120985761209290613614565b8e6118ca565b8b80fd5b3d9150612074565b90506020813d6020116120ce575b816120bf602093836135f3565b810103126111cc57518b61185c565b3d91506120b2565b6040513d8b823e3d90fd5b60405162461bcd60e51b815260206004820152603360248201527f4e756d626572206f662073706c69742061646472657373657320616e642072616044820152723a34b7b99036bab9ba1031329032b8bab0b61760691b6064820152608490fd5b61214e909391936135c5565b91856117f9565b6040513d86823e3d90fd5b90506020813d60201161218c575b8161217b602093836135f3565b81010312610d53575161178b61176d565b3d915061216e565b6040513d88823e3d90fd5b60405162461bcd60e51b815260206004820152601e60248201527f6f776e6572206d757374206861766520617070726f76656420746f6b656e00006044820152606490fd5b6121fd915060203d602011611fa757611f9981836135f3565b87611727565b6040513d87823e3d90fd5b60405162461bcd60e51b815260206004820152602360248201527f627579576974684d65726b6c6550726f6f663a3a4e6f7420746f6b656e206f776044820152623732b960e91b6064820152608490fd5b90506020813d602011612291575b8161227a602093836135f3565b81010312610d4f5761228b90613614565b876116cf565b3d915061226d565b60405162461bcd60e51b815260206004820152603b60248201527f627579576974684d65726b6c6550726f6f663a3a546f6b656e20616c7265616460448201527f79207573656420666f722074686973204d65726b6c6520726f6f7400000000006064820152608490fd5b60f81c81526020018a611606565b92602060019160ff8560f01c168152019301611600565b92602060019160ff8560e81c1681520193016115f8565b92602060019160ff8560e01c1681520193016115f0565b92602060019160ff8560d81c1681520193016115e8565b92602060019160ff8560d01c1681520193016115e0565b92602060019160ff8560c81c1681520193016115d8565b92602060019160ff8560c01c1681520193016115d0565b92602060019160ff8560b81c1681520193016115c8565b92602060019160ff8560b01c1681520193016115c0565b92602060019160ff8560a81c1681520193016115b8565b92602060019160ff8560a01c1681520193016115b0565b92602060019160ff8560981c1681520193016115a8565b92602060019160ff8560901c1681520193016115a0565b92602060019160ff8560881c168152019301611598565b92602060019160ff8560801c168152019301611590565b92602060019160ff8560781c168152019301611588565b92602060019160ff8560701c168152019301611580565b92602060019160ff8560681c168152019301611578565b92602060019160ff8560601c168152019301611570565b92602060019160ff8560581c168152019301611568565b92602060019160ff8560501c168152019301611560565b92602060019160ff8560481c168152019301611558565b92602060019160ff8560401c168152019301611550565b92602060019160ff8560381c168152019301611548565b92602060019160ff8560301c168152019301611540565b92602060019160ff8560281c168152019301611538565b92602060019160ff85831c168152019301611530565b92602060019160ff8560181c168152019301611528565b92602060019160ff8560101c168152019301611520565b92602060019160ff8560081c168152019301611518565b92602060019160ff85168152019301611510565b9860016104006020928c5460ff8082168352808260081c1686840152808260101c16604084015280826060828260181c16818701528282608082828d1c16818a0152828260a095828260281c16878d0152828260301c1660c08d0152828260381c1660e08d0152828260401c166101008d0152828260481c166101208d0152828260501c166101408d0152828260581c166101608d01521c166101808a0152828260681c166101a08a0152828260701c166101c08a0152828260781c166101e08a01521c16610200870152828260881c16610220870152828260901c16610240870152828260981c166102608701521c16610280840152808260a81c166102a0840152808260b01c166102c0840152808260b81c166102e0840152808260c01c16610300840152808260c81c16610320840152808260d01c16610340840152808260d81c16610360840152808260e01c16610380840152808260e81c166103a08401528160f01c166103c083015260f81c6103e0820152019a019201916114f0565b84546001600160a01b03168352600194850194869450602090930192016114b9565b421015612810576113d36127b19360405160208101903360601b8252601481526127a48161358f565b519020935192369161375f565b156127bf5738808080611455565b60405162461bcd60e51b8152602060048201526024808201527f627579576974684d65726b6c6550726f6f663a3a4e6f74206f6e20616c6c6f776044820152631b1a5cdd60e21b6064820152608490fd5b60405162461bcd60e51b815260206004820152602e60248201527f627579576974684d65726b6c6550726f6f663a3a416c6c6f776c69737420706560448201526d1c9a5bd9081a185cc8195b99195960921b6064820152608490fd5b60405162461bcd60e51b815260206004820152602e60248201527f627579576974684d65726b6c6550726f6f663a3a4d65726b6c6520726f6f742060448201526d1b9bdd081c9959da5cdd195c995960921b6064820152608490fd5b60405162461bcd60e51b815260206004820152602860248201527f627579576974684d65726b6c6550726f6f663a3a496e76616c6964204d65726b604482015267363290383937b7b360c11b6064820152608490fd5b60405162461bcd60e51b815260206004820152601f60248201527f5265656e7472616e637947756172643a207265656e7472616e742063616c6c006044820152606490fd5b503461015657806003193601126101565761297c6134ee565b603380546001600160a01b0319811690915581906001600160a01b03167f8be0079c531659141344cd1fd0a4f28419497f9722a3daafe3b4186f6b6457e08280a380f35b5034610156576040366003190112610156576020906040906001600160a01b036129e861347c565b16815260a38352818120602435825283522054604051908152f35b503461015657608036600319011261015657612a1d613492565b90606435906001600160401b038211610156576020612a8e846113d3612a4636600488016134be565b60405160609490941b6bffffffffffffffffffffffff19168685019081526044356014820152919390929190612a7f81603484016112f8565b5190209260043592369161375f565b6040519015158152f35b50346101565760a036600319011261015657612ab2613492565b6064356001600160401b038111610d6d57612ad19036906004016134be565b608480356001600160401b038111610d5357612af19036906004016134be565b916001600160a01b0386161580156131fd575b156131c057609854604051637cd11f4360e11b81526001600160a01b0390911690602081600481855afa9081156120d657899161318a575b5060443511159081613118575b50156130bb578315613069576005841161301b57828403612fc45786805b848210612f98576064915003612f46575033865260a1602052612b8f600435604088206136ec565b5033865260a3602052604086206004358752602052604086205493600185018511612f325733875260a360205260408720600435885260205260018501604088205560405193612bde856135aa565b6001600160a01b03871685526044356020860152612bfb816136ab565b91612c0960405193846135f3565b818352602083019160051b810190368211611d4a57915b818310612f0e575050506040840152612c38826136ab565b91612c4660405193846135f3565b8083526020830191368260051b820111611d265780925b8260051b82018410612ef45750505050606082015260018201608082015233845260a2602052604084206004358552602052604084209060018060a01b038151166001600160601b0360a01b8354161782556020810151600183015560408101518051906001600160401b038211612ee057600160401b8211612ee057602060028501918254848455808510612ec6575b500190875260208720875b838110612ea957505050506003820160608201518051906001600160401b038211612e9557600160401b8211612e95576020908354838555808410612e4b575b5001918752602087208160051c91885b838110612e0c5750601f198116900380612dc0575b5050505060800151600491820155604080516001600160a01b03949094168452604435602085015260019290920191830191909152359033907f6ac61a1aee451307d73de9183ea0a92ddcb00bb73b49d4479e78501e7905f22a90606090a380f35b928893895b818110612ddc575050500155608060043880612d5e565b9091946020612e026001928460ff8a5116919060ff809160031b9316831b921b19161790565b9601929101612dc5565b898a5b60208110612e24575083820155600101612d49565b865190969160019160209160ff60038b901b81811b199092169216901b1792019601612e0f565b612e7590858b52838b20601f80870160051c82019281881680612e7b575b500160051c01906136d5565b38612d39565b60001990818601918254918a0360031b1c16905538612e69565b634e487b7160e01b88526041600452602488fd5b82516001600160a01b031681830155602090920191600101612cf9565b838a52828a20612eda9181019086016136d5565b38612cee565b634e487b7160e01b87526041600452602487fd5b833560ff81168103611d4a57815260209384019301612c5d565b82356001600160a01b0381168103612f2e57815260209283019201612c20565b8a80fd5b634e487b7160e01b87526011600452602487fd5b60405162461bcd60e51b815260206004820152602760248201527f636865636b53706c6974733a3a546f74616c206d75737420626520657175616c604482015266020746f203130360cc1b6064820152fd5b8160051b8401359060ff8216809203611d4a57612fbe91612fb891613688565b9161380a565b90612b67565b60405162461bcd60e51b815260206004820152602c60248201527f636865636b53706c6974733a3a53706c69747320616e6420726174696f73206d60448201526b1d5cdd08189948195c5d585b60a21b6064820152fd5b60405162461bcd60e51b8152602060048201526024808201527f636865636b53706c6974733a3a53706c6974206578636565646564206d61782060448201526373697a6560e01b6064820152fd5b60405162461bcd60e51b815260206004820152602760248201527f636865636b53706c6974733a3a4d7573742068617665206174206c65617374206044820152660c481cdc1b1a5d60ca1b6064820152fd5b60405162461bcd60e51b815260206004820152603260248201527f726567697374657253616c6550726963654d65726b6c65526f6f743a3a416d6f604482015271756e74206f75747369646520626f756e647360701b6064820152fd5b604051635c1b40f160e01b81529150602090829060049082905afa90811561317f57889161314d575b50604435101538612b49565b90506020813d602011613177575b81613168602093836135f3565b81010312611d26575138613141565b3d915061315b565b6040513d8a823e3d90fd5b90506020813d6020116131b8575b816131a5602093836135f3565b810103126131b4575138612b3c565b8880fd5b3d9150613198565b60405162461bcd60e51b81526020600482015260156024820152744e6f7420617070726f7665642063757272656e637960581b6044820152606490fd5b50609c54604051632d5ad3d560e01b81526001600160a01b038881166004830152909160209183916024918391165afa90811561317f578891613241575b50612b04565b613259915060203d8111611fa757611f9981836135f3565b3861323b565b503461015657602080600319360112611bf9576001600160a01b0361328261347c565b16825260a181526040822060405192838383549182815201908193835284832090835b8181106132f957505050846132bb9103856135f3565b60405193838594850191818652518092526040850193925b8281106132e257505050500390f35b8351855286955093810193928101926001016132d3565b8254845292860192600192830192016132a5565b50346101565760603660031901126101565760043560243590604435338452602060a1815261334f836040872060019160005201602052604060002054151590565b156133b5577f178cf25b1579b19d34c1cfd3a48dd226c6a7581eafae97981c97ab9c64d99578906040516133828161358f565b858152600182820185815233895260a5845260408920878a5284526040892092518355519101556040519283523392a480f35b6084906040519062461bcd60e51b82526004820152602260248201527f736574416c6c6f774c697374436f6e6669673a3a4e6f7420726f6f74206f776e60448201526132b960f11b6064820152fd5b905034611bf9576040366003190112611bf957604082819281602061342761347c565b926134318161358f565b82815201526001600160a01b0316815260a560209081528282206024358352905220815161345e8161358f565b60206001835493848452015491019081528251918252516020820152f35b600435906001600160a01b03821682036111cc57565b602435906001600160a01b03821682036111cc57565b604435906001600160a01b03821682036111cc57565b9181601f840112156111cc578235916001600160401b0383116111cc576020808501948460051b0101116111cc57565b6033546001600160a01b0316330361350257565b606460405162461bcd60e51b815260206004820152602060248201527f4f776e61626c653a2063616c6c6572206973206e6f7420746865206f776e65726044820152fd5b603380546001600160a01b039283166001600160a01b0319821681179092559091167f8be0079c531659141344cd1fd0a4f28419497f9722a3daafe3b4186f6b6457e0600080a3565b604081019081106001600160401b03821117610d5757604052565b60a081019081106001600160401b03821117610d5757604052565b6001600160401b038111610d5757604052565b606081019081106001600160401b03821117610d5757604052565b90601f801991011681019081106001600160401b03821117610d5757604052565b51906001600160a01b03821682036111cc57565b1561362f57565b60405162461bcd60e51b815260206004820152602b60248201527f496e697469616c697a61626c653a20636f6e7472616374206973206e6f74206960448201526a6e697469616c697a696e6760a81b6064820152608490fd5b9190820180921161369557565b634e487b7160e01b600052601160045260246000fd5b6001600160401b038111610d575760051b60200190565b8181029291811591840414171561369557565b8181106136e0575050565b600081556001016136d5565b600082815260018201602052604090205461375857805490600160401b821015610d5757600182018082558210156137425782600192826000526020600020015580549260005201602052604060002055600190565b634e487b7160e01b600052603260045260246000fd5b5050600090565b929161376a826136ab565b9161377860405193846135f3565b829481845260208094019160051b81019283116111cc57905b82821061379e5750505050565b81358152908301908301613791565b929091906000915b8451831015613802576137c88386613836565b51906000828210156137f057506000526020526137ea60406000205b9261380a565b916137b5565b6040916137ea938252602052206137e4565b915092501490565b60001981146136955760010190565b8051156137425760200190565b8051600110156137425760400190565b80518210156137425760209160051b010190565b908160209103126111cc575180151581036111cc5790565b9190820391821161369557565b6001600160a01b0391600091838116908115613a715734613a1b576040938451916370a0823160e01b908184523060048501526020978885602481895afa948515613a115784956139e2575b50609f541690813b15611d4e578751630aed65f560e11b81526001600160a01b03919091166004820152336024820152306044820152606481018790529083908290608490829084905af180156139d857908892916139c5575b50602487518096819382523060048301525afa9081156139ba579061398b575b61393f9250613862565b03613948575050565b60649250519062461bcd60e51b82526004820152601c60248201527f6e6f7420656e6f75676820746f6b656e73207472616e736665726564000000006044820152fd5b508482813d83116139b3575b6139a181836135f3565b810103126111cc5761393f9151613935565b503d613997565b8551903d90823e3d90fd5b6139d1909391936135c5565b9138613915565b87513d85823e3d90fd5b9094508881813d8311613a0a575b6139fa81836135f3565b81010312611d4e575193386138bb565b503d6139f0565b88513d86823e3d90fd5b60405162461bcd60e51b815260206004820152602860248201527f6d73672e76616c75652073686f756c642062652030207768656e206e6f7420756044820152670e6d2dcce40cae8d60c31b6064820152608490fd5b50509150503403613a7e57565b60405162461bcd60e51b81526020600482015260136024820152721b9bdd08195b9bdd59da08195d1a081cd95b9d606a1b6044820152606490fd5b908160209103126111cc575160ff811681036111cc5790565b3d15613b0c573d906001600160401b038211610d575760405191613b00601f8201601f1916602001846135f3565b82523d6000602084013e565b606090565b6020808252825181830181905290939260005b828110613b4657505060409293506000838284010152601f8019910116010190565b818101860151848201604001528501613b24565b9192916001600160a01b03908116918215613cc55750600093845b8151811015613cbd5782613b898284613836565b5116613b958287613836565b516040805163a9059cbb60e01b60208083019182526001600160a01b0395909516602480840191909152604480840195909552938252613c2891908b908190613bdf6064856135f3565b855193613beb8561358f565b8885527f5361666545524332303a206c6f772d6c6576656c2063616c6c206661696c6564898601525190828d5af1613c21613ad2565b908a613dae565b805190848215928315613ca5575b50505015613c4f57505050613c4a9061380a565b613b75565b5162461bcd60e51b81526004810192909252602a908201527f5361666545524332303a204552433230206f7065726174696f6e20646964206e6044820152691bdd081cdd58d8d9595960b21b6064820152608490fd5b613cb5935082018101910161384a565b388481613c36565b505050505050565b9150919282609b541693604051916020908184019563c176e63960e01b87526064850160406024870152825180915283608487019301916000905b828210613d95575050505083810360231901604485015282518082529082019282019160005b828110613d8157505050509181613d4c600096949387969403601f1981018352826135f3565b51925af1613d58613ad2565b9015613d615750565b60405162461bcd60e51b8152908190613d7d9060048301613b11565b0390fd5b835185529381019392810192600101613d26565b8351811685529385019392850192600190910190613d00565b91929015613e105750815115613dc2575090565b3b15613dcb5790565b60405162461bcd60e51b815260206004820152601d60248201527f416464726573733a2063616c6c20746f206e6f6e2d636f6e74726163740000006044820152606490fd5b825190915015613d615750805190602001fdfea26469706673582212209822574ecd59a8a9b81f7fb285ee52d0c6a3235d5deb5eb3edadf59d96345fde64736f6c63430008120033","linkReferences":{"src/v2/utils/MarketConfigV2.sol":{"MarketConfigV2":[{"start":2900,"length":20}]}}},"methodIdentifiers":{"OFFER_CANCELATION_DELAY()":"a435bac5","buyWithMerkleProof(address,uint256,address,bytes32,bytes32[],bytes32[])":"74ebded2","creatorRootToConfig(address,bytes32)":"bb120e66","getAllowListConfig(address,bytes32)":"09858ef2","getCreatorSalePriceMerkleRootNonce(address,bytes32)":"6a11a64d","getMerkleSalePriceConfig(address,bytes32)":"d72a541a","getTokenSalePriceNonce(address,bytes32,address,uint256)":"75c9c23e","getUserSalePriceMerkleRoots(address)":"453c8558","initialize(address,address,address,address,address,address,address,address,address,address)":"c306b378","isTokenInRoot(bytes32,address,uint256,bytes32[])":"5e51b2d4","owner()":"8da5cb5b","registerSalePriceMerkleRoot(bytes32,address,uint256,address[],uint8[])":"45935d18","renounceOwnership()":"715018a6","setAllowListConfig(bytes32,bytes32,uint256)":"38de3d65","transferOwnership(address)":"f2fde38b"},"id":66}