{"abi":[{"type":"function","name":"MAX_BATCH_SIZE","inputs":[],"outputs":[{"name":"","type":"uint256","internalType":"uint256"}],"stateMutability":"view"},{"type":"function","name":"MAX_CHECKOUT_SIZE","inputs":[],"outputs":[{"name":"","type":"uint256","internalType":"uint256"}],"stateMutability":"view"},{"type":"function","name":"acceptOffer","inputs":[{"name":"_contractAddress","type":"address","internalType":"address"},{"name":"_tokenId","type":"uint256","internalType":"uint256"},{"name":"_buyer","type":"address","internalType":"address"},{"name":"_currencyAddress","type":"address","internalType":"address"},{"name":"_price","type":"uint256","internalType":"uint256"},{"name":"_quantity","type":"uint256","internalType":"uint256"},{"name":"_splitRecipients","type":"address[]","internalType":"address payable[]"},{"name":"_splitRatios","type":"uint8[]","internalType":"uint8[]"}],"outputs":[],"stateMutability":"nonpayable"},{"type":"function","name":"buyBatch","inputs":[{"name":"_contractAddress","type":"address","internalType":"address"},{"name":"_seller","type":"address","internalType":"address"},{"name":"_currencyAddress","type":"address","internalType":"address"},{"name":"_requests","type":"tuple[]","internalType":"struct IRareERC1155MarketplaceTypes.BuyRequest[]","components":[{"name":"tokenId","type":"uint256","internalType":"uint256"},{"name":"price","type":"uint256","internalType":"uint256"},{"name":"quantity","type":"uint256","internalType":"uint256"}]}],"outputs":[],"stateMutability":"payable"},{"type":"function","name":"mintDirectSaleBatch","inputs":[{"name":"_contractAddress","type":"address","internalType":"address"},{"name":"_currencyAddress","type":"address","internalType":"address"},{"name":"_requests","type":"tuple[]","internalType":"struct IRareERC1155MarketplaceTypes.MintRequest[]","components":[{"name":"tokenId","type":"uint256","internalType":"uint256"},{"name":"price","type":"uint256","internalType":"uint256"},{"name":"quantity","type":"uint256","internalType":"uint256"},{"name":"proof","type":"bytes32[]","internalType":"bytes32[]"}]}],"outputs":[],"stateMutability":"payable"},{"type":"event","name":"CheckoutCompleted","inputs":[{"name":"buyer","type":"address","indexed":true,"internalType":"address"},{"name":"filledCount","type":"uint256","indexed":false,"internalType":"uint256"},{"name":"skippedCount","type":"uint256","indexed":false,"internalType":"uint256"},{"name":"ethSpent","type":"uint256","indexed":false,"internalType":"uint256"},{"name":"ethRefunded","type":"uint256","indexed":false,"internalType":"uint256"}],"anonymous":false},{"type":"event","name":"CheckoutItemProcessed","inputs":[{"name":"itemIndex","type":"uint256","indexed":true,"internalType":"uint256"},{"name":"itemKind","type":"uint8","indexed":true,"internalType":"uint8"},{"name":"contractAddress","type":"address","indexed":true,"internalType":"address"},{"name":"tokenId","type":"uint256","indexed":false,"internalType":"uint256"},{"name":"seller","type":"address","indexed":false,"internalType":"address"},{"name":"currencyAddress","type":"address","indexed":false,"internalType":"address"},{"name":"price","type":"uint256","indexed":false,"internalType":"uint256"},{"name":"quantity","type":"uint256","indexed":false,"internalType":"uint256"},{"name":"filled","type":"bool","indexed":false,"internalType":"bool"},{"name":"failureStage","type":"uint8","indexed":false,"internalType":"enum IRareERC1155MarketplaceTypes.CheckoutFailureStage"},{"name":"reason","type":"bytes4","indexed":false,"internalType":"bytes4"},{"name":"failureData","type":"bytes","indexed":false,"internalType":"bytes"},{"name":"totalPaid","type":"uint256","indexed":false,"internalType":"uint256"}],"anonymous":false},{"type":"event","name":"ContractPausedUpdated","inputs":[{"name":"isPaused","type":"bool","indexed":false,"internalType":"bool"}],"anonymous":false},{"type":"event","name":"MarketplaceDependencyUpdated","inputs":[{"name":"field","type":"bytes32","indexed":true,"internalType":"bytes32"},{"name":"dependency","type":"address","indexed":true,"internalType":"address"}],"anonymous":false},{"type":"event","name":"MintDirectSale","inputs":[{"name":"contractAddress","type":"address","indexed":true,"internalType":"address"},{"name":"tokenId","type":"uint256","indexed":true,"internalType":"uint256"},{"name":"buyer","type":"address","indexed":true,"internalType":"address"},{"name":"seller","type":"address","indexed":false,"internalType":"address"},{"name":"quantity","type":"uint256","indexed":false,"internalType":"uint256"},{"name":"currency","type":"address","indexed":false,"internalType":"address"},{"name":"price","type":"uint256","indexed":false,"internalType":"uint256"}],"anonymous":false},{"type":"event","name":"MintDirectSaleCancelled","inputs":[{"name":"contractAddress","type":"address","indexed":true,"internalType":"address"},{"name":"tokenId","type":"uint256","indexed":true,"internalType":"uint256"}],"anonymous":false},{"type":"event","name":"OfferAccepted","inputs":[{"name":"seller","type":"address","indexed":true,"internalType":"address"},{"name":"buyer","type":"address","indexed":true,"internalType":"address"},{"name":"contractAddress","type":"address","indexed":true,"internalType":"address"},{"name":"tokenId","type":"uint256","indexed":false,"internalType":"uint256"},{"name":"currency","type":"address","indexed":false,"internalType":"address"},{"name":"price","type":"uint256","indexed":false,"internalType":"uint256"},{"name":"quantity","type":"uint256","indexed":false,"internalType":"uint256"}],"anonymous":false},{"type":"event","name":"OfferCancelled","inputs":[{"name":"buyer","type":"address","indexed":true,"internalType":"address"},{"name":"contractAddress","type":"address","indexed":true,"internalType":"address"},{"name":"tokenId","type":"uint256","indexed":true,"internalType":"uint256"},{"name":"currency","type":"address","indexed":false,"internalType":"address"},{"name":"price","type":"uint256","indexed":false,"internalType":"uint256"},{"name":"quantity","type":"uint256","indexed":false,"internalType":"uint256"},{"name":"marketplaceFeeRemaining","type":"uint256","indexed":false,"internalType":"uint256"}],"anonymous":false},{"type":"event","name":"OfferMade","inputs":[{"name":"buyer","type":"address","indexed":true,"internalType":"address"},{"name":"contractAddress","type":"address","indexed":true,"internalType":"address"},{"name":"tokenId","type":"uint256","indexed":true,"internalType":"uint256"},{"name":"currency","type":"address","indexed":false,"internalType":"address"},{"name":"price","type":"uint256","indexed":false,"internalType":"uint256"},{"name":"quantity","type":"uint256","indexed":false,"internalType":"uint256"},{"name":"marketplaceFee","type":"uint256","indexed":false,"internalType":"uint256"},{"name":"expirationTime","type":"uint256","indexed":false,"internalType":"uint256"}],"anonymous":false},{"type":"event","name":"PrepareMintDirectSale","inputs":[{"name":"contractAddress","type":"address","indexed":true,"internalType":"address"},{"name":"tokenId","type":"uint256","indexed":true,"internalType":"uint256"},{"name":"seller","type":"address","indexed":true,"internalType":"address"},{"name":"currency","type":"address","indexed":false,"internalType":"address"},{"name":"price","type":"uint256","indexed":false,"internalType":"uint256"},{"name":"startTime","type":"uint256","indexed":false,"internalType":"uint256"},{"name":"maxMints","type":"uint256","indexed":false,"internalType":"uint256"},{"name":"splitRecipients","type":"address[]","indexed":false,"internalType":"address payable[]"},{"name":"splitRatios","type":"uint8[]","indexed":false,"internalType":"uint8[]"}],"anonymous":false},{"type":"event","name":"SalePriceCancelled","inputs":[{"name":"seller","type":"address","indexed":true,"internalType":"address"},{"name":"contractAddress","type":"address","indexed":true,"internalType":"address"},{"name":"tokenId","type":"uint256","indexed":true,"internalType":"uint256"}],"anonymous":false},{"type":"event","name":"SalePriceSet","inputs":[{"name":"seller","type":"address","indexed":true,"internalType":"address"},{"name":"contractAddress","type":"address","indexed":true,"internalType":"address"},{"name":"tokenId","type":"uint256","indexed":true,"internalType":"uint256"},{"name":"currency","type":"address","indexed":false,"internalType":"address"},{"name":"price","type":"uint256","indexed":false,"internalType":"uint256"},{"name":"quantity","type":"uint256","indexed":false,"internalType":"uint256"},{"name":"expirationTime","type":"uint256","indexed":false,"internalType":"uint256"},{"name":"splitRecipients","type":"address[]","indexed":false,"internalType":"address payable[]"},{"name":"splitRatios","type":"uint8[]","indexed":false,"internalType":"uint8[]"}],"anonymous":false},{"type":"event","name":"SetTokenAllowListConfig","inputs":[{"name":"contractAddress","type":"address","indexed":true,"internalType":"address"},{"name":"tokenId","type":"uint256","indexed":true,"internalType":"uint256"},{"name":"root","type":"bytes32","indexed":false,"internalType":"bytes32"},{"name":"endTimestamp","type":"uint256","indexed":false,"internalType":"uint256"}],"anonymous":false},{"type":"event","name":"Sold","inputs":[{"name":"seller","type":"address","indexed":true,"internalType":"address"},{"name":"buyer","type":"address","indexed":true,"internalType":"address"},{"name":"contractAddress","type":"address","indexed":true,"internalType":"address"},{"name":"tokenId","type":"uint256","indexed":false,"internalType":"uint256"},{"name":"currency","type":"address","indexed":false,"internalType":"address"},{"name":"price","type":"uint256","indexed":false,"internalType":"uint256"},{"name":"quantity","type":"uint256","indexed":false,"internalType":"uint256"}],"anonymous":false},{"type":"event","name":"TokenMintLimitSet","inputs":[{"name":"contractAddress","type":"address","indexed":true,"internalType":"address"},{"name":"tokenId","type":"uint256","indexed":true,"internalType":"uint256"},{"name":"limit","type":"uint256","indexed":false,"internalType":"uint256"}],"anonymous":false},{"type":"event","name":"TokenTxLimitSet","inputs":[{"name":"contractAddress","type":"address","indexed":true,"internalType":"address"},{"name":"tokenId","type":"uint256","indexed":true,"internalType":"uint256"},{"name":"limit","type":"uint256","indexed":false,"internalType":"uint256"}],"anonymous":false},{"type":"error","name":"AddressNotAllowlisted","inputs":[{"name":"_account","type":"address","internalType":"address"}]},{"type":"error","name":"AllowListEndTimestampInvalid","inputs":[{"name":"_endTimestamp","type":"uint256","internalType":"uint256"},{"name":"_currentTime","type":"uint256","internalType":"uint256"}]},{"type":"error","name":"ApprovalManagerCannotBeZero","inputs":[]},{"type":"error","name":"BatchSizeExceeded","inputs":[{"name":"supplied","type":"uint256","internalType":"uint256"},{"name":"max","type":"uint256","internalType":"uint256"}]},{"type":"error","name":"CheckoutItemExecutionFailed","inputs":[{"name":"_stage","type":"uint8","internalType":"enum IRareERC1155MarketplaceTypes.CheckoutFailureStage"},{"name":"_failureData","type":"bytes","internalType":"bytes"}]},{"type":"error","name":"ContractHasNoOwner","inputs":[{"name":"_contractAddress","type":"address","internalType":"address"}]},{"type":"error","name":"ContractPaused","inputs":[]},{"type":"error","name":"CurrencyMismatch","inputs":[{"name":"_suppliedCurrency","type":"address","internalType":"address"},{"name":"_configuredCurrency","type":"address","internalType":"address"}]},{"type":"error","name":"CurrencyNotApproved","inputs":[{"name":"_currencyAddress","type":"address","internalType":"address"}]},{"type":"error","name":"DirectModuleCallUnsupported","inputs":[]},{"type":"error","name":"DirectSaleNotConfigured","inputs":[{"name":"_contractAddress","type":"address","internalType":"address"},{"name":"_tokenId","type":"uint256","internalType":"uint256"}]},{"type":"error","name":"ERC20FeeOnTransferUnsupported","inputs":[{"name":"_currencyAddress","type":"address","internalType":"address"},{"name":"_expectedAmount","type":"uint256","internalType":"uint256"},{"name":"_receivedAmount","type":"uint256","internalType":"uint256"}]},{"type":"error","name":"EmptyBatch","inputs":[]},{"type":"error","name":"ExecutionModuleDelegateCallFailed","inputs":[{"name":"_revertData","type":"bytes","internalType":"bytes"}]},{"type":"error","name":"IncorrectETHAmount","inputs":[{"name":"_requiredAmount","type":"uint256","internalType":"uint256"},{"name":"_suppliedAmount","type":"uint256","internalType":"uint256"}]},{"type":"error","name":"InsufficientCheckoutERC20Allowance","inputs":[{"name":"_currencyAddress","type":"address","internalType":"address"},{"name":"_requiredAmount","type":"uint256","internalType":"uint256"},{"name":"_availableAmount","type":"uint256","internalType":"uint256"}]},{"type":"error","name":"InsufficientCheckoutERC20Balance","inputs":[{"name":"_currencyAddress","type":"address","internalType":"address"},{"name":"_requiredAmount","type":"uint256","internalType":"uint256"},{"name":"_availableAmount","type":"uint256","internalType":"uint256"}]},{"type":"error","name":"InsufficientCheckoutETH","inputs":[{"name":"_requiredAmount","type":"uint256","internalType":"uint256"},{"name":"_availableAmount","type":"uint256","internalType":"uint256"}]},{"type":"error","name":"InsufficientTokenBalance","inputs":[{"name":"_account","type":"address","internalType":"address"},{"name":"_contractAddress","type":"address","internalType":"address"},{"name":"_tokenId","type":"uint256","internalType":"uint256"},{"name":"_requestedQuantity","type":"uint256","internalType":"uint256"},{"name":"_availableQuantity","type":"uint256","internalType":"uint256"}]},{"type":"error","name":"InvalidERC1155Contract","inputs":[{"name":"_contractAddress","type":"address","internalType":"address"}]},{"type":"error","name":"InvalidERC1155Mint","inputs":[{"name":"_contractAddress","type":"address","internalType":"address"},{"name":"_tokenId","type":"uint256","internalType":"uint256"},{"name":"_buyer","type":"address","internalType":"address"},{"name":"_quantity","type":"uint256","internalType":"uint256"}]},{"type":"error","name":"InvalidERC1155Transfer","inputs":[{"name":"_contractAddress","type":"address","internalType":"address"},{"name":"_tokenId","type":"uint256","internalType":"uint256"},{"name":"_seller","type":"address","internalType":"address"},{"name":"_buyer","type":"address","internalType":"address"},{"name":"_quantity","type":"uint256","internalType":"uint256"}]},{"type":"error","name":"InvalidExecutionModule","inputs":[]},{"type":"error","name":"MarketConfigAddressCannotBeZero","inputs":[{"name":"_field","type":"bytes32","internalType":"bytes32"}]},{"type":"error","name":"MarketplaceNotApproved","inputs":[{"name":"_account","type":"address","internalType":"address"},{"name":"_contractAddress","type":"address","internalType":"address"}]},{"type":"error","name":"MaxMintExceeded","inputs":[{"name":"_requestedQuantity","type":"uint256","internalType":"uint256"},{"name":"_maxMints","type":"uint256","internalType":"uint256"}]},{"type":"error","name":"MintLimitExceeded","inputs":[{"name":"_contractAddress","type":"address","internalType":"address"},{"name":"_tokenId","type":"uint256","internalType":"uint256"},{"name":"_account","type":"address","internalType":"address"},{"name":"_requestedQuantity","type":"uint256","internalType":"uint256"},{"name":"_mintedQuantity","type":"uint256","internalType":"uint256"},{"name":"_limit","type":"uint256","internalType":"uint256"}]},{"type":"error","name":"MsgValueMustBeZero","inputs":[]},{"type":"error","name":"MsgValueUnsupportedForERC20","inputs":[]},{"type":"error","name":"NotContractOwner","inputs":[{"name":"_contractAddress","type":"address","internalType":"address"},{"name":"_account","type":"address","internalType":"address"}]},{"type":"error","name":"OfferDoesNotExist","inputs":[{"name":"_contractAddress","type":"address","internalType":"address"},{"name":"_tokenId","type":"uint256","internalType":"uint256"},{"name":"_buyer","type":"address","internalType":"address"},{"name":"_currencyAddress","type":"address","internalType":"address"}]},{"type":"error","name":"OfferExpirationInvalid","inputs":[{"name":"_expirationTime","type":"uint256","internalType":"uint256"},{"name":"_currentTime","type":"uint256","internalType":"uint256"}]},{"type":"error","name":"OfferExpired","inputs":[{"name":"_contractAddress","type":"address","internalType":"address"},{"name":"_tokenId","type":"uint256","internalType":"uint256"},{"name":"_buyer","type":"address","internalType":"address"},{"name":"_currencyAddress","type":"address","internalType":"address"},{"name":"_expirationTime","type":"uint256","internalType":"uint256"}]},{"type":"error","name":"OfferPriceCannotBeZero","inputs":[]},{"type":"error","name":"PayoutFailed","inputs":[{"name":"_revertData","type":"bytes","internalType":"bytes"}]},{"type":"error","name":"PayoutLengthMismatch","inputs":[{"name":"_recipientsLength","type":"uint256","internalType":"uint256"},{"name":"_amountsLength","type":"uint256","internalType":"uint256"}]},{"type":"error","name":"PayoutTotalMismatch","inputs":[{"name":"_expectedAmount","type":"uint256","internalType":"uint256"},{"name":"_actualAmount","type":"uint256","internalType":"uint256"}]},{"type":"error","name":"PlatformCommissionExceeded","inputs":[{"name":"_platformCommission","type":"uint256","internalType":"uint256"},{"name":"_maxPlatformCommission","type":"uint256","internalType":"uint256"}]},{"type":"error","name":"PriceMismatch","inputs":[{"name":"_suppliedPrice","type":"uint256","internalType":"uint256"},{"name":"_configuredPrice","type":"uint256","internalType":"uint256"}]},{"type":"error","name":"QuantityCannotBeZero","inputs":[]},{"type":"error","name":"QuantityExceedsOfferQuantity","inputs":[{"name":"_requestedQuantity","type":"uint256","internalType":"uint256"},{"name":"_availableQuantity","type":"uint256","internalType":"uint256"}]},{"type":"error","name":"QuantityExceedsSalePriceQuantity","inputs":[{"name":"_requestedQuantity","type":"uint256","internalType":"uint256"},{"name":"_availableQuantity","type":"uint256","internalType":"uint256"}]},{"type":"error","name":"RefundFailed","inputs":[{"name":"_revertData","type":"bytes","internalType":"bytes"}]},{"type":"error","name":"RoyaltiesExceedSaleAmount","inputs":[{"name":"_royalties","type":"uint256","internalType":"uint256"},{"name":"_saleAmount","type":"uint256","internalType":"uint256"}]},{"type":"error","name":"SaleNotStarted","inputs":[{"name":"_startTime","type":"uint256","internalType":"uint256"}]},{"type":"error","name":"SalePriceCannotBeZero","inputs":[]},{"type":"error","name":"SalePriceDoesNotExist","inputs":[{"name":"_contractAddress","type":"address","internalType":"address"},{"name":"_tokenId","type":"uint256","internalType":"uint256"},{"name":"_seller","type":"address","internalType":"address"}]},{"type":"error","name":"SalePriceExpirationInvalid","inputs":[{"name":"_expirationTime","type":"uint256","internalType":"uint256"},{"name":"_currentTime","type":"uint256","internalType":"uint256"}]},{"type":"error","name":"SalePriceExpired","inputs":[{"name":"_contractAddress","type":"address","internalType":"address"},{"name":"_tokenId","type":"uint256","internalType":"uint256"},{"name":"_seller","type":"address","internalType":"address"},{"name":"_expirationTime","type":"uint256","internalType":"uint256"}]},{"type":"error","name":"SelfOfferAcceptanceUnsupported","inputs":[{"name":"_buyer","type":"address","internalType":"address"}]},{"type":"error","name":"SelfPurchaseUnsupported","inputs":[{"name":"_seller","type":"address","internalType":"address"}]},{"type":"error","name":"SplitLengthMismatch","inputs":[{"name":"_recipientsLength","type":"uint256","internalType":"uint256"},{"name":"_ratiosLength","type":"uint256","internalType":"uint256"}]},{"type":"error","name":"SplitRatioCannotBeZero","inputs":[{"name":"_index","type":"uint256","internalType":"uint256"}]},{"type":"error","name":"SplitRecipientCannotBeZero","inputs":[{"name":"_index","type":"uint256","internalType":"uint256"}]},{"type":"error","name":"SplitRecipientsExceededMax","inputs":[{"name":"_recipientsLength","type":"uint256","internalType":"uint256"},{"name":"_maxRecipients","type":"uint256","internalType":"uint256"}]},{"type":"error","name":"SplitRecipientsRequired","inputs":[]},{"type":"error","name":"SplitTotalInvalid","inputs":[{"name":"_totalRatio","type":"uint256","internalType":"uint256"},{"name":"_requiredTotal","type":"uint256","internalType":"uint256"}]},{"type":"error","name":"StakingFeeExceedsMarketplaceFee","inputs":[{"name":"_marketplaceFee","type":"uint256","internalType":"uint256"},{"name":"_stakingFee","type":"uint256","internalType":"uint256"}]},{"type":"error","name":"TokenIdsNotStrictlyAscending","inputs":[{"name":"index","type":"uint256","internalType":"uint256"},{"name":"previousTokenId","type":"uint256","internalType":"uint256"},{"name":"tokenId","type":"uint256","internalType":"uint256"}]},{"type":"error","name":"TokenNotFound","inputs":[{"name":"_contractAddress","type":"address","internalType":"address"},{"name":"_tokenId","type":"uint256","internalType":"uint256"}]},{"type":"error","name":"TransactionLimitExceeded","inputs":[{"name":"_contractAddress","type":"address","internalType":"address"},{"name":"_tokenId","type":"uint256","internalType":"uint256"},{"name":"_account","type":"address","internalType":"address"},{"name":"_usedTransactions","type":"uint256","internalType":"uint256"},{"name":"_limit","type":"uint256","internalType":"uint256"}]},{"type":"error","name":"UnsupportedCheckoutItemKind","inputs":[{"name":"_itemKind","type":"uint8","internalType":"uint8"}]}],"bytecode":{"object":"0x60a080604052346100235730608052613cc99081610029823960805181610c390152f35b600080fdfe6080604052600436101561001257600080fd5b6000803560e01c9081630a6ce3131461006a575080637777e6d714610065578063a3eaf4d914610060578063b8e6b50f1461005b5763cfdbf2541461005657600080fd5b610737565b6106ad565b610691565b610132565b60803660031901126100e957600435610082816100ec565b60243561008e816100ec565b6044359161009b836100ec565b606435926001600160401b03928385116100e557366023860112156100e55784600401359384116100e55736602460608602870101116100e55760246100e2950192611ea6565b80f35b8580fd5b80fd5b6001600160a01b038116036100fd57565b600080fd5b9181601f840112156100fd578235916001600160401b0383116100fd576020808501948460051b0101116100fd57565b60603660031901126100fd57600461014a81356100ec565b6101556024356100ec565b6044356001600160401b0381116100fd576101739036908301610102565b9161017c610c36565b6101868383613b44565b73__$11854c5905aa23948096e0e4d7059bb9de$__3b156100fd57604051635e157ccf60e11b8152600081806101c060243586830161080e565b038173__$11854c5905aa23948096e0e4d7059bb9de$__5af4801561042157610673575b506101ef8135611cc2565b6101f883610858565b61020184610858565b61020a856108c5565b916000805b8781106104f5575073__$11854c5905aa23948096e0e4d7059bb9de$__3b156100fd5760006102549160405180938192635ea509b560e01b83526024358a84016109ab565b038173__$11854c5905aa23948096e0e4d7059bb9de$__5af48015610421576104e2575b5060005b86811061042657509061029191338535613976565b60005b84811061029d57005b60206102a98284610952565b510151610346575b806102be60019284610952565b51516102de60806102cf8487610952565b5101516001600160a01b031690565b9060406102ec848a8a61092b565b01357f62f45af1ef781f07a7efa5cc0678ca0c3cdaed8c8bbe87e057d7eb5bcff7a18c61033d602061031f878d8d61092b565b013560405191829133978a8060a01b038d3516966024359185610c0b565b0390a401610294565b60206103528284610952565b5101519060406103628285610952565b5101519161037560806102cf8487610952565b9260a06103828487610952565b5101519160c06103928588610952565b5101519273__$11854c5905aa23948096e0e4d7059bb9de$__3b156100fd576000936103d8916040519788958695631872482b60e31b87526024358d8035908901610ba4565b038173__$11854c5905aa23948096e0e4d7059bb9de$__5af491821561042157600192610408575b5090506102b1565b8061041561041b92610769565b80610686565b38610400565b610835565b80610434600192898961092b565b356104528161044389356109da565b90600052602052604060002090565b546104af575b610466816104438935610a4c565b54610473575b500161027c565b61049d9061048633916104438a35610a85565b9060018060a01b0316600052602052604060002090565b6104a7815461098b565b90553861046c565b60406104bc838b8b61092b565b01356104db6104d333610486856104438d35610a13565b91825461099e565b9055610458565b806104156104ef92610769565b38610278565b61050e610503828a8a61092b565b336024358935610c7a565b6105188287610952565b526105238186610952565b506020806105318388610952565b510151610574575b508061054760019287610952565b51516105538286610952565b526040610561828b8b61092b565b013561056d8287610952565b520161020f565b90916105e990826105ba6105ae7f5e94cc2b8b9fd616c1ffff3497627b534929331e1f3b26d7dc3360464546d5015460018060a01b031690565b6001600160a01b031690565b816105c5878b610952565b5101516040516361fe24a960e11b8152808c01918252948592918391829160200190565b03915afa9182156104215760019361063f9361063992600091610646575b506040610614888c610952565b510152610621868a610952565b5101516040610630878b610952565b5101519061099e565b9061099e565b9190610539565b6106669150823d841161066c575b61065e81836107ed565b810190610966565b38610607565b503d610654565b8061041561068092610769565b386101e4565b60009103126100fd57565b346100fd5760003660031901126100fd57602060405160328152f35b346100fd576101003660031901126100fd576004356106cb816100ec565b604435906106d8826100ec565b6064356106e4816100ec565b6001600160401b039260c4358481116100fd57610705903690600401610102565b9160e4359586116100fd57610721610735963690600401610102565b95909460a435926084359260243590612990565b005b346100fd5760003660031901126100fd576020604051604b8152f35b634e487b7160e01b600052604160045260246000fd5b6001600160401b03811161077c57604052565b610753565b60e081019081106001600160401b0382111761077c57604052565b60c081019081106001600160401b0382111761077c57604052565b604081019081106001600160401b0382111761077c57604052565b606081019081106001600160401b0382111761077c57604052565b90601f801991011681019081106001600160401b0382111761077c57604052565b600080516020613c5483398151915281526001600160a01b03909116602082015260400190565b6040513d6000823e3d90fd5b6001600160401b03811161077c5760051b60200190565b9061086282610841565b61086f60405191826107ed565b8281528092610880601f1991610841565b0190602036910137565b6040519061089782610781565b606060c083600081526000602082015260006040820152600083820152600060808201528260a08201520152565b906108cf82610841565b6108dc60405191826107ed565b82815280926108ed601f1991610841565b019060005b8281106108fe57505050565b60209061090961088a565b828285010152016108f2565b634e487b7160e01b600052603260045260246000fd5b919081101561094d5760051b81013590607e19813603018212156100fd570190565b610915565b805182101561094d5760209160051b010190565b908160209103126100fd575190565b634e487b7160e01b600052601160045260246000fd5b906001820180921161099957565b610975565b9190820180921161099957565b600080516020613c5483398151915281526001600160a01b039091166020820152604081019190915260600190565b6001600160a01b031660009081527f5e94cc2b8b9fd616c1ffff3497627b534929331e1f3b26d7dc3360464546d50f6020526040902090565b6001600160a01b031660009081527f5e94cc2b8b9fd616c1ffff3497627b534929331e1f3b26d7dc3360464546d5106020526040902090565b6001600160a01b031660009081527f5e94cc2b8b9fd616c1ffff3497627b534929331e1f3b26d7dc3360464546d5116020526040902090565b6001600160a01b031660009081527f5e94cc2b8b9fd616c1ffff3497627b534929331e1f3b26d7dc3360464546d5126020526040902090565b6001600160a01b031660009081527f5e94cc2b8b9fd616c1ffff3497627b534929331e1f3b26d7dc3360464546d5136020526040902090565b6001600160a01b031660009081527f5e94cc2b8b9fd616c1ffff3497627b534929331e1f3b26d7dc3360464546d50d6020526040902090565b90815180825260208080930193019160005b828110610b50575050505090565b83516001600160a01b031685529381019392810192600101610b42565b90815180825260208080930193019160005b828110610b8d575050505090565b835160ff1685529381019392810192600101610b7f565b959293610bfa94610c08989692600080516020613c54833981519152895260018060a01b03948580921660208b0152166040890152606088015260808701521660a08501526101008060c0860152840190610b30565b9160e0818403910152610b6d565b90565b6001600160a01b03918216815260208101929092529091166040820152606081019190915260800190565b307f00000000000000000000000000000000000000000000000000000000000000006001600160a01b031614610c6857565b60405163197ba25b60e01b8152600490fd5b9291610c8461088a565b50823590602084013592604085013594606081013590601e19813603018212156100fd57018035906001600160401b0382116100fd57602001908060051b360382136100fd57610cd99187878787878d6114d8565b979115610cea575050505050505090565b610cf49750611977565b602081519101fd5b9060405191828154918282526020928383019160005283600020936000905b828210610d3357505050610d31925003836107ed565b565b85546001600160a01b031684526001958601958895509381019390910190610d1b565b90604080518093805492610d7d610d71858560209181520190565b92600052602060002090565b9360005b81601f82011061119957610d31955492828210611183575b828210611169575b82821061114f575b828210611135575b82821061111b575b828210611101575b8282106110e7575b8282106110cd575b8282106110b6575b5081811061109e575b818110611086575b81811061106e575b818110611056575b81811061103e575b818110611026575b81811061100e575b818110610ff6575b818110610fde575b818110610fc6575b818110610fae575b818110610f96575b818110610f7e575b818110610f66575b818110610f4e575b818110610f36575b818110610f1e575b818110610f06575b818110610eee575b818110610ed6575b818110610ebe575b818110610ea6575b10610e98575b5003836107ed565b60f81c815260200138610e90565b60f083901c60ff168452926001906020019301610e8a565b60e883901c60ff168452926001906020019301610e82565b60e083901c60ff168452926001906020019301610e7a565b60d883901c60ff168452926001906020019301610e72565b60d083901c60ff168452926001906020019301610e6a565b60c883901c60ff168452926001906020019301610e62565b60c083901c60ff168452926001906020019301610e5a565b60b883901c60ff168452926001906020019301610e52565b60b083901c60ff168452926001906020019301610e4a565b60a883901c60ff168452926001906020019301610e42565b60a083901c60ff168452926001906020019301610e3a565b609883901c60ff168452926001906020019301610e32565b609083901c60ff168452926001906020019301610e2a565b608883901c60ff168452926001906020019301610e22565b608083901c60ff168452926001906020019301610e1a565b607883901c60ff168452926001906020019301610e12565b607083901c60ff168452926001906020019301610e0a565b606883901c60ff168452926001906020019301610e02565b606083901c60ff168452926001906020019301610dfa565b605883901c60ff168452926001906020019301610df2565b605083901c60ff168452926001906020019301610dea565b604883901c60ff168452926001906020019301610de2565b83901c60ff16845292600190602001930138610dd9565b603884901c60ff1685529093600190602001940190610dd1565b603084901c60ff1685529093600190602001940190610dc9565b602884901c60ff1685529093600190602001940190610dc1565b602084811c60ff1686529194909160019101940190610db9565b601884901c60ff1685529093600190602001940190610db1565b601084901c60ff1685529093600190602001940190610da9565b600884901c60ff1685529093600190602001940190610da1565b60ff841685529093600190602001940190610d99565b919350916001610400602092611437885461142c60ff6111bd8582851660ff169052565b61140561126a6113b58d611365896113158e6111e28184018a8d60081c1660ff169052565b6111f58584018a8d60101c1660ff169052565b888b610200606095611210878201858560181c1660ff169052565b6112256080958585888501921c1660ff169052565b6112cb60a09761123e898401878760281c1660ff169052565b61127b60c09b6112578d8601898960301c1660ff169052565b60e09e8f8601898960381c1660ff169052565b87876101008701921c1660ff169052565b6112906101208401878760481c1660ff169052565b6112a56101408401878760501c1660ff169052565b6112ba6101608401878760581c1660ff169052565b85856101808501921c1660ff169052565b6112e06101a08201858560681c1660ff169052565b6112f56101c08201858560701c1660ff169052565b61130a6101e08201858560781c1660ff169052565b01921c1660ff169052565b61132a6102208c01888b60881c1660ff169052565b61133f6102408c01888b60901c1660ff169052565b6113546102608c01888b60981c1660ff169052565b86896102808d01921c1660ff169052565b61137a6102a08a01868960a81c1660ff169052565b61138f6102c08a01868960b01c1660ff169052565b6113a46102e08a01868960b81c1660ff169052565b84876103008b01921c1660ff169052565b6113ca6103208801848760c81c1660ff169052565b6113df6103408801848760d01c1660ff169052565b6113f46103608801848760d81c1660ff169052565b82856103808901921c1660ff169052565b61141a6103a08601828560e81c1660ff169052565b6103c08501908360f01c1660ff169052565b60f81c6103e0830152565b0195019101918693919492610d81565b9060405161145481610781565b60c06114aa6006839560018060a01b03808254168652600182015416602086015260028101546040860152600381015460608601526004810154608086015261149f60058201610cfc565b60a086015201610d56565b910152565b908160011b918083046002149015171561099957565b8181029291811591840414171561099957565b9690929695919493956114e961088a565b976114ff6114fa8261044385610af7565b611447565b818a5280516001600160a01b031660808b01529660808801805160608c015288516001600160a01b039691959190871680156117525761153f90866117c1565b901561173657156117185761155e9161155a91848688611867565b1590565b6116ff5786156116e65761157582610443856109da565b54611587826104868561044388610a13565b54908881151592836116d2575b5050506116b957610486826104436115b26115b99561044388610a4c565b5495610a85565b549080151591826116a6575b505061169057518015159081611686575b50611671576060840151421061165c576040840151850361164757602084015191811691166001600160a01b0316036116345760c092611615916114c5565b602084015260a081015160a0840152015160c082015260019160009190565b50600093632e834cbf60e11b9392509050565b50600095631d6bbb8d60e11b95945092505050565b5060009563456afd0b60e01b95945092505050565b50600095635bdd08f560e01b95945092505050565b90508311386115d6565b5060009663ae3586c560e01b9695509350505050565b6116b191925061098b565b1138806115c5565b50600099636d03a2e560e01b9998509650505050505050565b6116dd92935061099e565b11388881611594565b5060009963c6b949a960e01b9998509650505050505050565b5060009963e2cf60cb60e01b9998509650505050505050565b5060009b600162bed83560e01b03199b9a5098505050505050505050565b5060009c63915b8f1d60e01b9c9b509950505050505050505050565b5060009c634ed1072f60e11b9c9b509950505050505050505050565b6001600160401b03811161077c57601f01601f191660200190565b60405190602082018281106001600160401b0382111761077c5760405260008252565b908160209103126100fd5751610c08816100ec565b604051638da5cb5b60e01b6020820190815260048252929392906117e4816107b7565b6000928392839251915afa903d1561185f573d916118018361176e565b9261180f60405194856107ed565b83523d82602085013e5b158015611854575b61184d575080602080611839935183010191016117ac565b6001926001600160a01b0391821691161490565b9250508190565b506020825110611821565b606091611819565b6001600160a01b031660009081527f5e94cc2b8b9fd616c1ffff3497627b534929331e1f3b26d7dc3360464546d50e602052604090209193929190600052602052604060002060405190604082018281106001600160401b0382111761077c57604052600181549182845201549081602084015215908115611937575b5061192e5760405160609490941b6bffffffffffffffffffffffff191660208501908152610c089461192381603481015b03601f1981018352826107ed565b519020905190611e1a565b50505050600190565b9050421015386118e4565b6001600160a01b039091168152602081019190915260400190565b6001600160a01b0391821681529116602082015260400190565b94929395919561198a8161044384610af7565b956001600160e01b03191694634ed1072f60e11b808714611c9d575063915b8f1d60e01b868114611c685750600162bed83560e01b0319868114611c4a575063e2cf60cb60e01b868114611c16575063c6b949a960e01b868114611bf75750636d03a2e560e01b868114611b81575063ae3586c560e01b91868314611b125750635bdd08f560e01b92505050838114611ae1575063456afd0b60e01b9050828114611ab85750631d6bbb8d60e11b828114611a895750632e834cbf60e11b9182149050611a5c57505050610c08611789565b611915611a756001610c0894015460018060a01b031690565b60405194859360208501526024840161195d565b60029390930154604051602081019490945260248401919091526044830152509050610c088160648101611915565b935050506003610c08910154916119156040519384926020840152602483019190602083019252565b92509350506119156004610c0893015460405194859360208501526024840160209093929193604081019481520152565b92975092509350610c0894506119159250611b308161044388610a4c565b5491611b4381610486846104438b610a85565b5491604051978896602088015260248701919594939060809360a084019760018060a01b038093168552602085015216604083015260608201520152565b95509290919650610c0895506119159350611b9f82610443896109da565b5492611bb281610486856104438c610a13565b5492604051988997602089015260248801929060a09491979695929760c0850198600180881b0380931686526020860152166040840152606083015260808201520152565b97505050505050505060405190602082015260048152610c08816107b7565b60405160208101919091526001600160a01b0390911660248201529650610c08955086945050604484019250611915915050565b9550505094505050611915611a75610c08935460018060a01b031690565b60405160208101919091526001600160a01b03909316602484015250909550610c089450859350506044830191506119159050565b95505091509450610c0893506119159150604051948593602085015260248401611942565b803b158015611cf5575b611cd35750565b604051630f20e39960e21b81526001600160a01b039091166004820152602490fd5b5060206000604051828101906301ffc9a760e01b808352602482015260248152611d1e816107d2565b519084617530fa6000513d82611d72575b5081611d68575b5080611d58575b80611d49575b15611ccc565b50611d5381611ddb565b611d43565b50611d6281611d7e565b15611d3d565b9050151538611d36565b60201115915038611d2f565b6000602091604051838101906301ffc9a760e01b825263ffffffff60e01b602482015260248152611dae816107d2565b5191617530fa6000513d82611dcf575b5081611dc8575090565b9050151590565b60201115915038611dbe565b6000602091604051838101906301ffc9a760e01b8252636cdb3d1360e11b602482015260248152611dae816107d2565b60001981146109995760010190565b9291909291600080925b828410611e3357505050501490565b90919293611e76908560051b83013580821115600014611e7e57604080516020810193845290810191909152611e6c8160608101611915565b5190205b94611e0b565b929190611e24565b60408051602081019283529081019290925290611e9e8160608101611915565b519020611e70565b9293611eb0610c36565b611eba8186613c0c565b6001600160a01b039233838516146124a65773__$11854c5905aa23948096e0e4d7059bb9de$__3b156100fd57604051635e157ccf60e11b815260008180611f05856004830161080e565b038173__$11854c5905aa23948096e0e4d7059bb9de$__5af4801561042157612493575b50611f3385611cc2565b600080516020613c7483398151915254611f7790602090611f5c906001600160a01b03166105ae565b6040518093819263e985e9c560e01b8352886004840161195d565b0381888a165afa90811561042157600091612464575b501561244857611f9c82610858565b90611fa683610858565b611faf8461251c565b92600080611fe66105ae7f5e94cc2b8b9fd616c1ffff3497627b534929331e1f3b26d7dc3360464546d5015460018060a01b031690565b878c888d898d85881061229457505050505050505073__$11854c5905aa23948096e0e4d7059bb9de$__3b156100fd5760006120379160405180938192635ea509b560e01b835288600484016109ab565b038173__$11854c5905aa23948096e0e4d7059bb9de$__5af4801561042157612281575b5090859160005b89878c8184106121ed575050505061207d925033878a613613565b60005b838110612091575050505050505050565b61209b8184610952565b51519060206120aa8286610952565b51015160406120b98387610952565b5101519260606120c98488610952565b5101519160806120d98589610952565b5101519473__$11854c5905aa23948096e0e4d7059bb9de$__3b156100fd5786956000948b61211f938f956040519a8b98899863981e8fc560e01b8a5260048a01612642565b038173__$11854c5905aa23948096e0e4d7059bb9de$__5af49182156104215786867f12bc30bbc1c37d31b51d08cc6254da96f9626f008933e693e85e93074d7886948a8c6121d18f604061219d8a6121858f829060019f9d8a9e6121da575b50610952565b515198602061219583838861256c565b01359461256c565b604080519889526001600160a01b038e1660208a015288019290925201356060860152911694339416929081906080820190565b0390a401612080565b806104156121e792610769565b3861217f565b958391600195969761221f8361048661220588610abe565b61221088878761256c565b35600052602052604060002090565b61223d6002604061223188878761256c565b013592019182546125ae565b80915515612255575b50505050500190869291612062565b612210612272946104869361226c61227798610abe565b9361256c565b6125d2565b898189898e612246565b8061041561228e92610769565b3861205b565b926122c1886122bb88958895839d9b9c986122b58560409d6122e99d61256c565b926126ad565b92610952565b526122cc838d610952565b506122d883838361256c565b356122e3848b610952565b5261256c565b01356122f58487610952565b5261232560208b8d8c612308888a610952565b5192604051809681958294627eeac760e11b845260048401611942565b0392165afa90811561042157600091612429575b506123448487610952565b5181106123ee575061237e60208061235c868b610952565b510151604051809381926361fe24a960e11b8352600483019190602083019252565b0381865afa918215610421576001926123c7926000916123cf575b5060406123a6878c610952565b51015261063960206123b8878c610952565b5101516040610630888d610952565b920190611fe6565b6123e8915060203d60201161066c5761065e81836107ed565b38612399565b896124258d928861240a88612403818c610952565b5192610952565b5190604051958695636906ef1760e11b87526004870161257c565b0390fd5b612442915060203d60201161066c5761065e81836107ed565b38612339565b60405163d65b0d6960e01b81528061242587866004840161195d565b612486915060203d60201161248c575b61247e81836107ed565b8101906124c7565b38611f8d565b503d612474565b806104156124a092610769565b38611f29565b60405163aac1ae8b60e01b81526001600160a01b0384166004820152602490fd5b908160209103126100fd575180151581036100fd5790565b6040519060a082018281106001600160401b0382111761077c57604052606060808360008152600060208201526000604082015282808201520152565b9061252682610841565b61253360405191826107ed565b8281528092612544601f1991610841565b019060005b82811061255557505050565b6020906125606124df565b82828501015201612549565b919081101561094d576060020190565b6001600160a01b0391821681529116602082015260408101919091526060810191909152608081019190915260a00190565b9190820391821161099957565b8181106125c6575050565b600081556001016125bb565b600560009182815582600182015582600282015582600382015560048101805484825580612628575b505001908154908083558161260f57505050565b602081610d3194601f935220910160051c8101906125bb565b61263b91855260208520908101906125bb565b38806125fb565b969361269e9591610c0899979394600080516020613c548339815191528a5260018060a01b03958680931660208c015260408b0152166060890152608088015260a08701521660c08501526101208060e0860152840190610b30565b91610100818403910152610b6d565b9290916126b86124df565b5081359060406020840135930135936126d585858585858b6126f0565b9791156126e6575050505050505090565b610cf4975061281b565b949392906126fc6124df565b958287528515612805576127169261044361048692610abe565b9060028201549081156127f057600383015480151590816127e5575b506127d05782546001600160a01b039182169116036127bc57826001830154036127a85783116127955761276b600592612787946114c5565b602085015261277c60048201610cfc565b606085015201610d56565b608082015260019160009190565b506000936364b7fccd60e11b9392509050565b50600094631d6bbb8d60e11b949350915050565b50600094632e834cbf60e11b949350915050565b50600095635493bdef60e11b95945092505050565b905042101538612732565b50600095630bac95f560e21b95945092505050565b5060009663c6b949a960e01b9695509350505050565b94929161282f816104868761044386610abe565b956001600160e01b0319169463c6b949a960e01b808714611bf75750630bac95f560e21b8681146129505750635493bdef60e11b918683146129275750632e834cbf60e11b925050508381146129095750631d6bbb8d60e11b90508281146128da57506364b7fccd60e11b91821490506128ae57505050610c08611789565b6119156002610c0893015460405194859360208501526024840160209093929193604081019481520152565b60019390930154604051602081019490945260248401919091526044830152509050610c088160648101611915565b9354909450610c0893925061191591506001600160a01b0316611a75565b9297509250935061191592506003610c0895015491604051968795602087015260248601610c0b565b60405160208101919091526001600160a01b0393841660248201526044810191909152911660648201529450610c08935084925050608482019050611915565b94919592969093976129a0610c36565b60409384519a6129af8c61079c565b6001600160a01b039788168c5260208c01968752978716858c0181815299881660608d0190815260808d019b8c5260a08d01958652999890338114612ce857508b51612a03906001600160a01b0316611cc2565b895173__$11854c5905aa23948096e0e4d7059bb9de$__93906001600160a01b031694843b156100fd578751635e157ccf60e11b8152600096879082908190612a4f906004830161080e565b0381895af4801561042157612cd5575b50843b156100e55787516376fb859760e01b8152868180612a868787878b60048601612d9a565b0381895af4801561042157612cc2575b50865115612cb157918d93916105ae9897969593612b0e6020612ad06105ae612abe8a612e62565b9a519a9e909a6001600160a01b031690565b600080516020613c7483398151915254612af2906001600160a01b03166105ae565b908c51808095819463e985e9c560e01b8352336004840161195d565b03915afa908115610421578891612c93575b5015612c6b57908f91612b718f94938f612b64908f8d90612b58612b4a865160018060a01b031690565b93516001600160a01b031690565b9051915192339061323e565b516001600160a01b031690565b8c5194516001600160a01b03169590873b15612c675790612bad949392918c519d8e9a8b998a9963981e8fc560e01b8b52339460048c01612dc1565b03915af4801561042157612c19612c09612bfb7fd6c105ec24ddd771e44ffc25e8a8603b6b78ba980a72645a26740b3d8437388599612c4f978a95612c54575b50516001600160a01b031690565b9b516001600160a01b031690565b955198516001600160a01b031690565b9851915192519788526001600160a01b039098166020880152604087015260608601529116949093169233929081906080820190565b0390a4565b80610415612c6192610769565b38612bed565b8980fd5b8f51895163d65b0d6960e01b8152908190612425906001600160a01b0316336004840161195d565b612cab915060203d811161248c5761247e81836107ed565b38612b20565b875163c6b949a960e01b8152600490fd5b80610415612ccf92610769565b38612a96565b80610415612ce292610769565b38612a5f565b8651630bfa508960e41b81526001600160a01b03919091166004820152602490fd5b91908082526020809201929160005b828110612d27575050505090565b9091929382806001928735612d3b816100ec565b848060a01b03168152019501910192919092612d19565b9190808252602080920192916000805b838210612d7157505050505090565b9091929394853560ff8116809103612d96578152830194830193929160010190612d62565b8280fd5b9290612db390610c089593604086526040860191612d0a565b926020818503910152612d52565b9896949093610c089a9894602094612e219894600080516020613c548339815191528d528c60018060a01b03978880951691015260408d01521660608b015260808a015260a08901521660c08701526101208060e0880152860191612d0a565b92610100818503910152612d52565b6001600160a01b0391821681526020810192909252918216604082015291166060820152608081019190915260a00190565b80516001600160a01b031660009081527f5e94cc2b8b9fd616c1ffff3497627b534929331e1f3b26d7dc3360464546d5146020526040902090919091612eb660208201938451600052602052604060002090565b90604093612ee785830193612ed1855160018060a01b031690565b60018060a01b0316600052602052604060002090565b6060830180519091612f01916001600160a01b0316612ed1565b93600285015492831561304057600686015480151580613036575b612ff25750508454612f4191506001600160a01b03165b91516001600160a01b031690565b6001600160a01b0381811690831603612fd757505060018301549160808101928351808203612fb657505060a00194855190828211612f965750505090612f8e610c0892518551906114c5565b9351906130a8565b5163587ced0f60e01b815260048101919091526024810191909152604490fd5b8751631d6bbb8d60e11b815260048101919091526024810191909152604490fd5b6124258751928392632e834cbf60e11b84526004840161195d565b61242590898561301e612f3361300e8b5160018060a01b031690565b965197516001600160a01b031690565b915163581fa6b560e01b815295869560048701612e30565b5042811115612f1c565b612425888461306b612f3361305b8a5160018060a01b031690565b955196516001600160a01b031690565b915163b9c59b5760e01b81526001600160a01b03948516600482015260248101959095528316604485015291909116606483015281906084820190565b919091600281019081549081851461311757908160056131139301549361310c6131046003840154966130ff60046130e98c6130e48a8d6125ae565b61099e565b9601988954966130f988856125ae565b936131b6565b6125ae565b9788946125ae565b90556125ae565b9055565b91929350506006600482019182549360018060a01b031982541682556000938480928160018601555581600384015555826005820155015590565b811561315c570490565b634e487b7160e01b600052601260045260246000fd5b1561317957565b60405162461bcd60e51b81526020600482015260156024820152744d6174683a206d756c446976206f766572666c6f7760581b6044820152606490fd5b90916000198383099280830292838086109503948086039514613231579082916131e1868411613172565b096001821901821680920460028082600302188083028203028083028203028083028203028083028203028083028203028092029003029360018380600003040190848311900302920304170290565b505090610c089250613152565b60408051627eeac760e11b8082529296600496909594939092916001600160a01b03891691602091828180613276898b8f8401611942565b0381875afa9081156104215760009161349d575b5088811061347e57908291869493898c6132ae895198899384938885528401611942565b0381875afa9485156104215760009561345f575b50600080516020613c74833981519152546132e5906001600160a01b03166105ae565b803b156100fd57865163eb46c45b60e01b81526001600160a01b03808f16828f01908152818c166020820152908c166040820152606081018a9052608081018d905260c060a0820181905260009082018190529192839182908490829060e00103925af180156104215761344c575b508683898d61336d8a5194859384938985528401611942565b0381885afa9283156104215788958d8c92879460009761342d575b5061339e8b51998a958694859485528401611942565b03915afa938415610421578a93600095613408575b5050826133bf916125ae565b14928315936133f3575b5050506133d95750505050505050565b51638791019960e01b815296508695612425958701612e30565b6133fe92935061099e565b14153886816133c9565b6133bf92955084918161342692903d1061066c5761065e81836107ed565b94916133b3565b613445919750853d871161066c5761065e81836107ed565b9538613388565b8061041561345992610769565b38613354565b613477919550833d851161066c5761065e81836107ed565b93386132c2565b8961242588928b898f8a51968796636906ef1760e11b8852870161257c565b6134b49150833d851161066c5761065e81836107ed565b3861328a565b60209081818403126100fd578051906001600160401b0382116100fd57019180601f840112156100fd5782516134ef81610841565b936134fd60405195866107ed565b818552838086019260051b8201019283116100fd578301905b828210613524575050505090565b81518152908301908301613516565b90815180825260208080930193019160005b828110613553575050505090565b835185529381019392810192600101613545565b9092916040820191604081528451809352606081019260208096019060005b8181106135a057505050610c089394818403910152613533565b82516001600160a01b031686529487019491870191600101613586565b9360209592613602946135f49360018060a01b0392838092168952168888015216604086015260c0606086015260c0850190613533565b908382036080850152613533565b9060a0818303910152600081520190565b835190949093926001600160a01b038616929091613638613633876114af565b610858565b94613645613633886114af565b809660005b8981106138c257506040968751916313849cfd60e21b918284528084808460049e8f83019161367892613567565b03815a93600094fa938415610421576000946138a7575b5060005b8c81106138375750600080516020613c74833981519152546136bd906001600160a01b03166105ae565b92833b156100fd576000898f958c968f8f906136ef8e8e8894519c8d9889978896637ee7f69b60e01b885287016135bd565b03925af1908115610421576000948d92613824575b5061371a8c519788958694859485528401613567565b03915afa91821561042157600092613801575b5060005b898110613745575050505050505050505050565b61374e816114af565b6137588185610952565b516137786137668386610952565b51613771858a610952565b51906125ae565b14908115916137bd575b5061378f57600101613731565b61242598995080925061240391506137a693610952565b519351638791019960e01b81529687968701612e30565b90506137f96137e76137e16137da6137d48561098b565b88610952565b519361098b565b85610952565b516137f28489610952565b519061099e565b141538613782565b61381d91923d8091833e61381581836107ed565b8101906134ba565b903861372d565b8061041561383192610769565b38613704565b613840816114af565b61384a8187610952565b51613855838b610952565b51116138645750600101613693565b8c8f8d888c612425938f96613890908f8a6138828161388993610952565b5195610952565b5194610952565b519351636906ef1760e11b8152968796870161257c565b6138bb91943d8091833e61381581836107ed565b923861368f565b60019192506138d0816114af565b6138ed876138de8387610952565b6001600160a01b039091169052565b613903886138de6138fd8461098b565b87610952565b61390d8286610952565b51613918828c610952565b526139366139306139298488610952565b519261098b565b8b610952565b520190879161364a565b6001600160a01b039091168152606060208201819052610c0893919261396891840190613533565b916040818403910152613533565b909260018060a01b0382169261398d815186613a8a565b94604051936313849cfd60e21b958686526000978887806139b2888560048401613567565b0381855afa968715610421578997613a6e575b50813b15613a6a57604051630d4498e760e21b8152918983806139ed8a8a8a60048501613940565b038183855af191821561042157613a1d998b948894613a57575b506040519a8b9485938493845260048401613567565b03915afa9586156104215787610d319897613a3a575b5050613ac2565b613a4f9297503d8091833e61381581836107ed565b943880613a33565b80610415613a6492610769565b38613a07565b8880fd5b613a839197503d808b833e61381581836107ed565b95386139c5565b9190613a9581610858565b9260005b828110613aa557505050565b80613ab260019287610952565b828060a01b038416905201613a99565b939092959460005b8351811015613b3a57613add8183610952565b51613ae88285610952565b5190613af4838b610952565b5182018092116109995703613b0b57600101613aca565b8561242586613b1f846138828d968a610952565b5190604051948594631b3c965960e21b865260048601610c0b565b5050505050509050565b613b4d82613b98565b60015b828110613b5c57505050565b60001981019080821161099957613b8e613b7a613b9393868661092b565b35613b8683878761092b565b359083613bda565b611e0b565b613b50565b8015613bc857604b8111613ba95750565b6044906040519063f80a484560e01b82526004820152604b6024820152fd5b60405163c2e5347d60e01b8152600490fd5b919080821115613be957505050565b606493506040519263f48f718f60e01b8452600484015260248301526044820152fd5b613c1582613b98565b60015b828110613c2457505050565b60001981019080821161099957613b8e613c42613c4e93868661256c565b35613b8683878761256c565b613c1856fe5e94cc2b8b9fd616c1ffff3497627b534929331e1f3b26d7dc3360464546d5005e94cc2b8b9fd616c1ffff3497627b534929331e1f3b26d7dc3360464546d50aa26469706673582212204142d73195bc2cde54f6ce7e87564da4f5a2a92d884ce3782b9531bf38e5d7a064736f6c63430008120033","linkReferences":{"src/marketplace/RareERC1155MarketplacePayments.sol":{"RareERC1155MarketplacePayments":[{"start":433,"length":20},{"start":493,"length":20},{"start":578,"length":20},{"start":641,"length":20},{"start":961,"length":20},{"start":1029,"length":20},{"start":7927,"length":20},{"start":7986,"length":20},{"start":8230,"length":20},{"start":8292,"length":20},{"start":8456,"length":20},{"start":8524,"length":20},{"start":10800,"length":20}]}}},"methodIdentifiers":{"MAX_BATCH_SIZE()":"cfdbf254","MAX_CHECKOUT_SIZE()":"a3eaf4d9","acceptOffer(address,uint256,address,address,uint256,uint256,address[],uint8[])":"b8e6b50f","buyBatch(address,address,address,(uint256,uint256,uint256)[])":"0a6ce313","mintDirectSaleBatch(address,address,(uint256,uint256,uint256,bytes32[])[])":"7777e6d7"},"id":172}