{"abi":[{"type":"function","name":"MAX_BATCH_SIZE","inputs":[],"outputs":[{"name":"","type":"uint256","internalType":"uint256"}],"stateMutability":"view"},{"type":"function","name":"MAX_CHECKOUT_SIZE","inputs":[],"outputs":[{"name":"","type":"uint256","internalType":"uint256"}],"stateMutability":"view"},{"type":"function","name":"checkout","inputs":[{"name":"_items","type":"tuple[]","internalType":"struct IRareERC1155MarketplaceTypes.CheckoutItem[]","components":[{"name":"itemKind","type":"uint8","internalType":"uint8"},{"name":"contractAddress","type":"address","internalType":"address"},{"name":"seller","type":"address","internalType":"address"},{"name":"currencyAddress","type":"address","internalType":"address"},{"name":"tokenId","type":"uint256","internalType":"uint256"},{"name":"price","type":"uint256","internalType":"uint256"},{"name":"quantity","type":"uint256","internalType":"uint256"},{"name":"proof","type":"bytes32[]","internalType":"bytes32[]"}]}],"outputs":[{"name":"execution","type":"tuple","internalType":"struct IRareERC1155MarketplaceTypes.CheckoutExecution","components":[{"name":"summary","type":"tuple","internalType":"struct IRareERC1155MarketplaceTypes.CheckoutSummary","components":[{"name":"filledCount","type":"uint256","internalType":"uint256"},{"name":"skippedCount","type":"uint256","internalType":"uint256"},{"name":"ethSpent","type":"uint256","internalType":"uint256"},{"name":"ethRefunded","type":"uint256","internalType":"uint256"}]},{"name":"items","type":"tuple[]","internalType":"struct IRareERC1155MarketplaceTypes.CheckoutItemResult[]","components":[{"name":"itemIndex","type":"uint256","internalType":"uint256"},{"name":"itemKind","type":"uint8","internalType":"uint8"},{"name":"contractAddress","type":"address","internalType":"address"},{"name":"tokenId","type":"uint256","internalType":"uint256"},{"name":"seller","type":"address","internalType":"address"},{"name":"currencyAddress","type":"address","internalType":"address"},{"name":"price","type":"uint256","internalType":"uint256"},{"name":"quantity","type":"uint256","internalType":"uint256"},{"name":"filled","type":"bool","internalType":"bool"},{"name":"failureStage","type":"uint8","internalType":"enum IRareERC1155MarketplaceTypes.CheckoutFailureStage"},{"name":"reason","type":"bytes4","internalType":"bytes4"},{"name":"failureData","type":"bytes","internalType":"bytes"},{"name":"totalPaid","type":"uint256","internalType":"uint256"}]}]}],"stateMutability":"payable"},{"type":"function","name":"executeCheckoutItem","inputs":[{"name":"_item","type":"tuple","internalType":"struct IRareERC1155MarketplaceTypes.CheckoutItem","components":[{"name":"itemKind","type":"uint8","internalType":"uint8"},{"name":"contractAddress","type":"address","internalType":"address"},{"name":"seller","type":"address","internalType":"address"},{"name":"currencyAddress","type":"address","internalType":"address"},{"name":"tokenId","type":"uint256","internalType":"uint256"},{"name":"price","type":"uint256","internalType":"uint256"},{"name":"quantity","type":"uint256","internalType":"uint256"},{"name":"proof","type":"bytes32[]","internalType":"bytes32[]"}]},{"name":"_remainingEth","type":"uint256","internalType":"uint256"},{"name":"_seller","type":"address","internalType":"address"},{"name":"_grossAmount","type":"uint256","internalType":"uint256"},{"name":"_marketplaceFee","type":"uint256","internalType":"uint256"},{"name":"_splitRecipients","type":"address[]","internalType":"address payable[]"},{"name":"_splitRatios","type":"uint8[]","internalType":"uint8[]"}],"outputs":[{"name":"totalPaid","type":"uint256","internalType":"uint256"},{"name":"newRemainingEth","type":"uint256","internalType":"uint256"}],"stateMutability":"payable"},{"type":"function","name":"executeCheckoutPayout","inputs":[{"name":"_item","type":"tuple","internalType":"struct IRareERC1155MarketplaceTypes.CheckoutItem","components":[{"name":"itemKind","type":"uint8","internalType":"uint8"},{"name":"contractAddress","type":"address","internalType":"address"},{"name":"seller","type":"address","internalType":"address"},{"name":"currencyAddress","type":"address","internalType":"address"},{"name":"tokenId","type":"uint256","internalType":"uint256"},{"name":"price","type":"uint256","internalType":"uint256"},{"name":"quantity","type":"uint256","internalType":"uint256"},{"name":"proof","type":"bytes32[]","internalType":"bytes32[]"}]},{"name":"_seller","type":"address","internalType":"address"},{"name":"_grossAmount","type":"uint256","internalType":"uint256"},{"name":"_marketplaceFee","type":"uint256","internalType":"uint256"},{"name":"_splitRecipients","type":"address[]","internalType":"address payable[]"},{"name":"_splitRatios","type":"uint8[]","internalType":"uint8[]"}],"outputs":[],"stateMutability":"payable"},{"type":"event","name":"CheckoutCompleted","inputs":[{"name":"buyer","type":"address","indexed":true,"internalType":"address"},{"name":"filledCount","type":"uint256","indexed":false,"internalType":"uint256"},{"name":"skippedCount","type":"uint256","indexed":false,"internalType":"uint256"},{"name":"ethSpent","type":"uint256","indexed":false,"internalType":"uint256"},{"name":"ethRefunded","type":"uint256","indexed":false,"internalType":"uint256"}],"anonymous":false},{"type":"event","name":"CheckoutItemProcessed","inputs":[{"name":"itemIndex","type":"uint256","indexed":true,"internalType":"uint256"},{"name":"itemKind","type":"uint8","indexed":true,"internalType":"uint8"},{"name":"contractAddress","type":"address","indexed":true,"internalType":"address"},{"name":"tokenId","type":"uint256","indexed":false,"internalType":"uint256"},{"name":"seller","type":"address","indexed":false,"internalType":"address"},{"name":"currencyAddress","type":"address","indexed":false,"internalType":"address"},{"name":"price","type":"uint256","indexed":false,"internalType":"uint256"},{"name":"quantity","type":"uint256","indexed":false,"internalType":"uint256"},{"name":"filled","type":"bool","indexed":false,"internalType":"bool"},{"name":"failureStage","type":"uint8","indexed":false,"internalType":"enum IRareERC1155MarketplaceTypes.CheckoutFailureStage"},{"name":"reason","type":"bytes4","indexed":false,"internalType":"bytes4"},{"name":"failureData","type":"bytes","indexed":false,"internalType":"bytes"},{"name":"totalPaid","type":"uint256","indexed":false,"internalType":"uint256"}],"anonymous":false},{"type":"event","name":"ContractPausedUpdated","inputs":[{"name":"isPaused","type":"bool","indexed":false,"internalType":"bool"}],"anonymous":false},{"type":"event","name":"MarketplaceDependencyUpdated","inputs":[{"name":"field","type":"bytes32","indexed":true,"internalType":"bytes32"},{"name":"dependency","type":"address","indexed":true,"internalType":"address"}],"anonymous":false},{"type":"event","name":"MintDirectSale","inputs":[{"name":"contractAddress","type":"address","indexed":true,"internalType":"address"},{"name":"tokenId","type":"uint256","indexed":true,"internalType":"uint256"},{"name":"buyer","type":"address","indexed":true,"internalType":"address"},{"name":"seller","type":"address","indexed":false,"internalType":"address"},{"name":"quantity","type":"uint256","indexed":false,"internalType":"uint256"},{"name":"currency","type":"address","indexed":false,"internalType":"address"},{"name":"price","type":"uint256","indexed":false,"internalType":"uint256"}],"anonymous":false},{"type":"event","name":"MintDirectSaleCancelled","inputs":[{"name":"contractAddress","type":"address","indexed":true,"internalType":"address"},{"name":"tokenId","type":"uint256","indexed":true,"internalType":"uint256"}],"anonymous":false},{"type":"event","name":"OfferAccepted","inputs":[{"name":"seller","type":"address","indexed":true,"internalType":"address"},{"name":"buyer","type":"address","indexed":true,"internalType":"address"},{"name":"contractAddress","type":"address","indexed":true,"internalType":"address"},{"name":"tokenId","type":"uint256","indexed":false,"internalType":"uint256"},{"name":"currency","type":"address","indexed":false,"internalType":"address"},{"name":"price","type":"uint256","indexed":false,"internalType":"uint256"},{"name":"quantity","type":"uint256","indexed":false,"internalType":"uint256"}],"anonymous":false},{"type":"event","name":"OfferCancelled","inputs":[{"name":"buyer","type":"address","indexed":true,"internalType":"address"},{"name":"contractAddress","type":"address","indexed":true,"internalType":"address"},{"name":"tokenId","type":"uint256","indexed":true,"internalType":"uint256"},{"name":"currency","type":"address","indexed":false,"internalType":"address"},{"name":"price","type":"uint256","indexed":false,"internalType":"uint256"},{"name":"quantity","type":"uint256","indexed":false,"internalType":"uint256"},{"name":"marketplaceFeeRemaining","type":"uint256","indexed":false,"internalType":"uint256"}],"anonymous":false},{"type":"event","name":"OfferMade","inputs":[{"name":"buyer","type":"address","indexed":true,"internalType":"address"},{"name":"contractAddress","type":"address","indexed":true,"internalType":"address"},{"name":"tokenId","type":"uint256","indexed":true,"internalType":"uint256"},{"name":"currency","type":"address","indexed":false,"internalType":"address"},{"name":"price","type":"uint256","indexed":false,"internalType":"uint256"},{"name":"quantity","type":"uint256","indexed":false,"internalType":"uint256"},{"name":"marketplaceFee","type":"uint256","indexed":false,"internalType":"uint256"},{"name":"expirationTime","type":"uint256","indexed":false,"internalType":"uint256"}],"anonymous":false},{"type":"event","name":"PrepareMintDirectSale","inputs":[{"name":"contractAddress","type":"address","indexed":true,"internalType":"address"},{"name":"tokenId","type":"uint256","indexed":true,"internalType":"uint256"},{"name":"seller","type":"address","indexed":true,"internalType":"address"},{"name":"currency","type":"address","indexed":false,"internalType":"address"},{"name":"price","type":"uint256","indexed":false,"internalType":"uint256"},{"name":"startTime","type":"uint256","indexed":false,"internalType":"uint256"},{"name":"maxMints","type":"uint256","indexed":false,"internalType":"uint256"},{"name":"splitRecipients","type":"address[]","indexed":false,"internalType":"address payable[]"},{"name":"splitRatios","type":"uint8[]","indexed":false,"internalType":"uint8[]"}],"anonymous":false},{"type":"event","name":"SalePriceCancelled","inputs":[{"name":"seller","type":"address","indexed":true,"internalType":"address"},{"name":"contractAddress","type":"address","indexed":true,"internalType":"address"},{"name":"tokenId","type":"uint256","indexed":true,"internalType":"uint256"}],"anonymous":false},{"type":"event","name":"SalePriceSet","inputs":[{"name":"seller","type":"address","indexed":true,"internalType":"address"},{"name":"contractAddress","type":"address","indexed":true,"internalType":"address"},{"name":"tokenId","type":"uint256","indexed":true,"internalType":"uint256"},{"name":"currency","type":"address","indexed":false,"internalType":"address"},{"name":"price","type":"uint256","indexed":false,"internalType":"uint256"},{"name":"quantity","type":"uint256","indexed":false,"internalType":"uint256"},{"name":"expirationTime","type":"uint256","indexed":false,"internalType":"uint256"},{"name":"splitRecipients","type":"address[]","indexed":false,"internalType":"address payable[]"},{"name":"splitRatios","type":"uint8[]","indexed":false,"internalType":"uint8[]"}],"anonymous":false},{"type":"event","name":"SetTokenAllowListConfig","inputs":[{"name":"contractAddress","type":"address","indexed":true,"internalType":"address"},{"name":"tokenId","type":"uint256","indexed":true,"internalType":"uint256"},{"name":"root","type":"bytes32","indexed":false,"internalType":"bytes32"},{"name":"endTimestamp","type":"uint256","indexed":false,"internalType":"uint256"}],"anonymous":false},{"type":"event","name":"Sold","inputs":[{"name":"seller","type":"address","indexed":true,"internalType":"address"},{"name":"buyer","type":"address","indexed":true,"internalType":"address"},{"name":"contractAddress","type":"address","indexed":true,"internalType":"address"},{"name":"tokenId","type":"uint256","indexed":false,"internalType":"uint256"},{"name":"currency","type":"address","indexed":false,"internalType":"address"},{"name":"price","type":"uint256","indexed":false,"internalType":"uint256"},{"name":"quantity","type":"uint256","indexed":false,"internalType":"uint256"}],"anonymous":false},{"type":"event","name":"TokenMintLimitSet","inputs":[{"name":"contractAddress","type":"address","indexed":true,"internalType":"address"},{"name":"tokenId","type":"uint256","indexed":true,"internalType":"uint256"},{"name":"limit","type":"uint256","indexed":false,"internalType":"uint256"}],"anonymous":false},{"type":"event","name":"TokenTxLimitSet","inputs":[{"name":"contractAddress","type":"address","indexed":true,"internalType":"address"},{"name":"tokenId","type":"uint256","indexed":true,"internalType":"uint256"},{"name":"limit","type":"uint256","indexed":false,"internalType":"uint256"}],"anonymous":false},{"type":"error","name":"AddressNotAllowlisted","inputs":[{"name":"_account","type":"address","internalType":"address"}]},{"type":"error","name":"AllowListEndTimestampInvalid","inputs":[{"name":"_endTimestamp","type":"uint256","internalType":"uint256"},{"name":"_currentTime","type":"uint256","internalType":"uint256"}]},{"type":"error","name":"ApprovalManagerCannotBeZero","inputs":[]},{"type":"error","name":"BatchSizeExceeded","inputs":[{"name":"supplied","type":"uint256","internalType":"uint256"},{"name":"max","type":"uint256","internalType":"uint256"}]},{"type":"error","name":"CheckoutItemExecutionFailed","inputs":[{"name":"_stage","type":"uint8","internalType":"enum IRareERC1155MarketplaceTypes.CheckoutFailureStage"},{"name":"_failureData","type":"bytes","internalType":"bytes"}]},{"type":"error","name":"ContractHasNoOwner","inputs":[{"name":"_contractAddress","type":"address","internalType":"address"}]},{"type":"error","name":"ContractPaused","inputs":[]},{"type":"error","name":"CurrencyMismatch","inputs":[{"name":"_suppliedCurrency","type":"address","internalType":"address"},{"name":"_configuredCurrency","type":"address","internalType":"address"}]},{"type":"error","name":"CurrencyNotApproved","inputs":[{"name":"_currencyAddress","type":"address","internalType":"address"}]},{"type":"error","name":"DirectModuleCallUnsupported","inputs":[]},{"type":"error","name":"DirectSaleNotConfigured","inputs":[{"name":"_contractAddress","type":"address","internalType":"address"},{"name":"_tokenId","type":"uint256","internalType":"uint256"}]},{"type":"error","name":"ERC20FeeOnTransferUnsupported","inputs":[{"name":"_currencyAddress","type":"address","internalType":"address"},{"name":"_expectedAmount","type":"uint256","internalType":"uint256"},{"name":"_receivedAmount","type":"uint256","internalType":"uint256"}]},{"type":"error","name":"EmptyBatch","inputs":[]},{"type":"error","name":"ExecutionModuleDelegateCallFailed","inputs":[{"name":"_revertData","type":"bytes","internalType":"bytes"}]},{"type":"error","name":"IncorrectETHAmount","inputs":[{"name":"_requiredAmount","type":"uint256","internalType":"uint256"},{"name":"_suppliedAmount","type":"uint256","internalType":"uint256"}]},{"type":"error","name":"InsufficientCheckoutERC20Allowance","inputs":[{"name":"_currencyAddress","type":"address","internalType":"address"},{"name":"_requiredAmount","type":"uint256","internalType":"uint256"},{"name":"_availableAmount","type":"uint256","internalType":"uint256"}]},{"type":"error","name":"InsufficientCheckoutERC20Balance","inputs":[{"name":"_currencyAddress","type":"address","internalType":"address"},{"name":"_requiredAmount","type":"uint256","internalType":"uint256"},{"name":"_availableAmount","type":"uint256","internalType":"uint256"}]},{"type":"error","name":"InsufficientCheckoutETH","inputs":[{"name":"_requiredAmount","type":"uint256","internalType":"uint256"},{"name":"_availableAmount","type":"uint256","internalType":"uint256"}]},{"type":"error","name":"InsufficientTokenBalance","inputs":[{"name":"_account","type":"address","internalType":"address"},{"name":"_contractAddress","type":"address","internalType":"address"},{"name":"_tokenId","type":"uint256","internalType":"uint256"},{"name":"_requestedQuantity","type":"uint256","internalType":"uint256"},{"name":"_availableQuantity","type":"uint256","internalType":"uint256"}]},{"type":"error","name":"InvalidERC1155Contract","inputs":[{"name":"_contractAddress","type":"address","internalType":"address"}]},{"type":"error","name":"InvalidERC1155Mint","inputs":[{"name":"_contractAddress","type":"address","internalType":"address"},{"name":"_tokenId","type":"uint256","internalType":"uint256"},{"name":"_buyer","type":"address","internalType":"address"},{"name":"_quantity","type":"uint256","internalType":"uint256"}]},{"type":"error","name":"InvalidERC1155Transfer","inputs":[{"name":"_contractAddress","type":"address","internalType":"address"},{"name":"_tokenId","type":"uint256","internalType":"uint256"},{"name":"_seller","type":"address","internalType":"address"},{"name":"_buyer","type":"address","internalType":"address"},{"name":"_quantity","type":"uint256","internalType":"uint256"}]},{"type":"error","name":"InvalidExecutionModule","inputs":[]},{"type":"error","name":"MarketConfigAddressCannotBeZero","inputs":[{"name":"_field","type":"bytes32","internalType":"bytes32"}]},{"type":"error","name":"MarketplaceNotApproved","inputs":[{"name":"_account","type":"address","internalType":"address"},{"name":"_contractAddress","type":"address","internalType":"address"}]},{"type":"error","name":"MaxMintExceeded","inputs":[{"name":"_requestedQuantity","type":"uint256","internalType":"uint256"},{"name":"_maxMints","type":"uint256","internalType":"uint256"}]},{"type":"error","name":"MintLimitExceeded","inputs":[{"name":"_contractAddress","type":"address","internalType":"address"},{"name":"_tokenId","type":"uint256","internalType":"uint256"},{"name":"_account","type":"address","internalType":"address"},{"name":"_requestedQuantity","type":"uint256","internalType":"uint256"},{"name":"_mintedQuantity","type":"uint256","internalType":"uint256"},{"name":"_limit","type":"uint256","internalType":"uint256"}]},{"type":"error","name":"MsgValueMustBeZero","inputs":[]},{"type":"error","name":"MsgValueUnsupportedForERC20","inputs":[]},{"type":"error","name":"NotContractOwner","inputs":[{"name":"_contractAddress","type":"address","internalType":"address"},{"name":"_account","type":"address","internalType":"address"}]},{"type":"error","name":"OfferDoesNotExist","inputs":[{"name":"_contractAddress","type":"address","internalType":"address"},{"name":"_tokenId","type":"uint256","internalType":"uint256"},{"name":"_buyer","type":"address","internalType":"address"},{"name":"_currencyAddress","type":"address","internalType":"address"}]},{"type":"error","name":"OfferExpirationInvalid","inputs":[{"name":"_expirationTime","type":"uint256","internalType":"uint256"},{"name":"_currentTime","type":"uint256","internalType":"uint256"}]},{"type":"error","name":"OfferExpired","inputs":[{"name":"_contractAddress","type":"address","internalType":"address"},{"name":"_tokenId","type":"uint256","internalType":"uint256"},{"name":"_buyer","type":"address","internalType":"address"},{"name":"_currencyAddress","type":"address","internalType":"address"},{"name":"_expirationTime","type":"uint256","internalType":"uint256"}]},{"type":"error","name":"OfferPriceCannotBeZero","inputs":[]},{"type":"error","name":"PayoutFailed","inputs":[{"name":"_revertData","type":"bytes","internalType":"bytes"}]},{"type":"error","name":"PayoutLengthMismatch","inputs":[{"name":"_recipientsLength","type":"uint256","internalType":"uint256"},{"name":"_amountsLength","type":"uint256","internalType":"uint256"}]},{"type":"error","name":"PayoutTotalMismatch","inputs":[{"name":"_expectedAmount","type":"uint256","internalType":"uint256"},{"name":"_actualAmount","type":"uint256","internalType":"uint256"}]},{"type":"error","name":"PlatformCommissionExceeded","inputs":[{"name":"_platformCommission","type":"uint256","internalType":"uint256"},{"name":"_maxPlatformCommission","type":"uint256","internalType":"uint256"}]},{"type":"error","name":"PriceMismatch","inputs":[{"name":"_suppliedPrice","type":"uint256","internalType":"uint256"},{"name":"_configuredPrice","type":"uint256","internalType":"uint256"}]},{"type":"error","name":"QuantityCannotBeZero","inputs":[]},{"type":"error","name":"QuantityExceedsOfferQuantity","inputs":[{"name":"_requestedQuantity","type":"uint256","internalType":"uint256"},{"name":"_availableQuantity","type":"uint256","internalType":"uint256"}]},{"type":"error","name":"QuantityExceedsSalePriceQuantity","inputs":[{"name":"_requestedQuantity","type":"uint256","internalType":"uint256"},{"name":"_availableQuantity","type":"uint256","internalType":"uint256"}]},{"type":"error","name":"RefundFailed","inputs":[{"name":"_revertData","type":"bytes","internalType":"bytes"}]},{"type":"error","name":"RoyaltiesExceedSaleAmount","inputs":[{"name":"_royalties","type":"uint256","internalType":"uint256"},{"name":"_saleAmount","type":"uint256","internalType":"uint256"}]},{"type":"error","name":"SaleNotStarted","inputs":[{"name":"_startTime","type":"uint256","internalType":"uint256"}]},{"type":"error","name":"SalePriceCannotBeZero","inputs":[]},{"type":"error","name":"SalePriceDoesNotExist","inputs":[{"name":"_contractAddress","type":"address","internalType":"address"},{"name":"_tokenId","type":"uint256","internalType":"uint256"},{"name":"_seller","type":"address","internalType":"address"}]},{"type":"error","name":"SalePriceExpirationInvalid","inputs":[{"name":"_expirationTime","type":"uint256","internalType":"uint256"},{"name":"_currentTime","type":"uint256","internalType":"uint256"}]},{"type":"error","name":"SalePriceExpired","inputs":[{"name":"_contractAddress","type":"address","internalType":"address"},{"name":"_tokenId","type":"uint256","internalType":"uint256"},{"name":"_seller","type":"address","internalType":"address"},{"name":"_expirationTime","type":"uint256","internalType":"uint256"}]},{"type":"error","name":"SelfOfferAcceptanceUnsupported","inputs":[{"name":"_buyer","type":"address","internalType":"address"}]},{"type":"error","name":"SelfPurchaseUnsupported","inputs":[{"name":"_seller","type":"address","internalType":"address"}]},{"type":"error","name":"SplitLengthMismatch","inputs":[{"name":"_recipientsLength","type":"uint256","internalType":"uint256"},{"name":"_ratiosLength","type":"uint256","internalType":"uint256"}]},{"type":"error","name":"SplitRatioCannotBeZero","inputs":[{"name":"_index","type":"uint256","internalType":"uint256"}]},{"type":"error","name":"SplitRecipientCannotBeZero","inputs":[{"name":"_index","type":"uint256","internalType":"uint256"}]},{"type":"error","name":"SplitRecipientsExceededMax","inputs":[{"name":"_recipientsLength","type":"uint256","internalType":"uint256"},{"name":"_maxRecipients","type":"uint256","internalType":"uint256"}]},{"type":"error","name":"SplitRecipientsRequired","inputs":[]},{"type":"error","name":"SplitTotalInvalid","inputs":[{"name":"_totalRatio","type":"uint256","internalType":"uint256"},{"name":"_requiredTotal","type":"uint256","internalType":"uint256"}]},{"type":"error","name":"StakingFeeExceedsMarketplaceFee","inputs":[{"name":"_marketplaceFee","type":"uint256","internalType":"uint256"},{"name":"_stakingFee","type":"uint256","internalType":"uint256"}]},{"type":"error","name":"TokenIdsNotStrictlyAscending","inputs":[{"name":"index","type":"uint256","internalType":"uint256"},{"name":"previousTokenId","type":"uint256","internalType":"uint256"},{"name":"tokenId","type":"uint256","internalType":"uint256"}]},{"type":"error","name":"TokenNotFound","inputs":[{"name":"_contractAddress","type":"address","internalType":"address"},{"name":"_tokenId","type":"uint256","internalType":"uint256"}]},{"type":"error","name":"TransactionLimitExceeded","inputs":[{"name":"_contractAddress","type":"address","internalType":"address"},{"name":"_tokenId","type":"uint256","internalType":"uint256"},{"name":"_account","type":"address","internalType":"address"},{"name":"_usedTransactions","type":"uint256","internalType":"uint256"},{"name":"_limit","type":"uint256","internalType":"uint256"}]},{"type":"error","name":"UnsupportedCheckoutItemKind","inputs":[{"name":"_itemKind","type":"uint8","internalType":"uint8"}]}],"bytecode":{"object":"0x60a0806040523461002357306080526146d390816100298239608051816133710152f35b600080fdfe6080604052600436101561001257600080fd5b6000803560e01c9081632c0c49ee1461006a5750806359a8a40a14610065578063a3eaf4d914610060578063cfdbf2541461005b5763d65852a61461005657600080fd5b6103fc565b6103e0565b6103c4565b610326565b60203660031901126100e9576004356001600160401b0381116100e5576100e19161009c6100d59236906004016100ec565b916100a760c0604052565b604051906100b482610499565b8082528060208301528060408301526060820152608052606060a052610586565b60405191829182610193565b0390f35b5080fd5b80fd5b9181601f8401121561011c578235916001600160401b03831161011c576020808501948460051b01011161011c57565b600080fd5b634e487b7160e01b600052602160045260246000fd5b6006111561014157565b610121565b9060068210156101415752565b919082519283825260005b84811061017f575050826000602080949584010152601f8019910116010190565b60208183018101518483018201520161015e565b9060209182815260c09283820191835193845183830152828501516040908184015283818701516060978891828701520151926080938486015201519660a0908180860152885180975260e0918286019487848a60051b8901019b01996000975b8a891061020a5750505050505050505050505090565b909192939495969798999a9b8a806001928f60df19868303018d5251908151815261023d838301518483019060ff169052565b818c01516001600160a01b0316818d01528187015181880152878201516001600160a01b031688820152818901516001600160a01b0316818a0152818a0151818b01528a8201518b820152610100808301511515908201526102a86101208084015190830190610146565b610140828101516001600160e01b031916908201526102d861016080840151906101a08091850152830190610153565b91610180809101519101529e0199019901979a9998969594939291906101f4565b908161010091031261011c5790565b6001600160a01b0381160361011c57565b359061032482610308565b565b60e036600319011261011c576001600160401b0360043581811161011c576103529036906004016102f9565b6044359061035f82610308565b60a43583811161011c576103779036906004016100ec565b9060c43594851161011c576103936103a79536906004016100ec565b94909360843591606435916024359061098f565b60408051928352602083019190915290f35b600091031261011c57565b3461011c57600036600319011261011c57602060405160328152f35b3461011c57600036600319011261011c576020604051604b8152f35b60c036600319011261011c576001600160401b0360043581811161011c576104289036906004016102f9565b6024359061043582610308565b60843583811161011c5761044d9036906004016100ec565b9060a43594851161011c576104696104819536906004016100ec565b94909361047461336e565b6064359160443591610e88565b005b634e487b7160e01b600052604160045260246000fd5b608081019081106001600160401b038211176104b457604052565b610483565b6001600160401b0381116104b457604052565b60e081019081106001600160401b038211176104b457604052565b606081019081106001600160401b038211176104b457604052565b602081019081106001600160401b038211176104b457604052565b604081019081106001600160401b038211176104b457604052565b90601f801991011681019081106001600160401b038211176104b457604052565b604051906101a082018281106001600160401b038211176104b457604052565b60405190610324826104e7565b9061058f61336e565b610598816145ac565b6105a181610828565b60a09081526105af82610878565b906000923494845b8281106106c157505050505050806060608051015280610639575b506080517ff769e48349f9b4903ef362e95411b2c4778d3bdaf9dc87b0d25f29f2813ea1638151916020810151610631606060408401519301516040519384933397859094939260609260808301968352602083015260408201520152565b0390a2608090565b73__$11854c5905aa23948096e0e4d7059bb9de$__803b1561011c57604051637baf92a360e01b815260008051602061467e833981519152600482015260006024820181905233604483015260648201939093529190829060849082905af480156106bc57156105d257806106b06106b6926104b9565b806103b9565b386105d2565b610983565b6106dc868689846106d78189899e9c9d9e610905565b611035565b9196901561077c575090610755610702600193996106fb848888610905565b908a61258a565b96608080516107118151610942565b9052848060a01b0361072f6060610729878b8b610905565b01610962565b161561075e575b505b61074f83885183610749838361096f565b5261096f565b506122cc565b019493946105b7565b6107746040610180840151925101918251610955565b905238610736565b97956001929150610755906020608051016107978151610942565b9052610738565b6001600160401b0381116104b45760051b60200190565b604051906101a082018281106001600160401b038211176104b457604052816101806000918281528260208201528260408201528260608201528260808201528260a08201528260c08201528260e082015282610100820152826101208201528261014082015260606101608201520152565b906108328261079e565b61083f6040519182610538565b8281528092610850601f199161079e565b019060005b82811061086157505050565b60209061086c6107b5565b82828501015201610855565b906108828261079e565b60409061089182519182610538565b83815280936108a2601f199161079e565b0190600092835b8381106108b7575050505050565b81519060608201918083106001600160401b038411176104b457602092845286815282878183015287858301528286010152016108a9565b634e487b7160e01b600052603260045260246000fd5b91908110156109275760051b8101359060fe198136030182121561011c570190565b6108ef565b634e487b7160e01b600052601160045260246000fd5b906001820180921161095057565b61092c565b9190820180921161095057565b3561096c81610308565b90565b80518210156109275760209160051b010190565b6040513d6000823e3d90fd5b906109a898979695949392916109a361336e565b610a39565b9091565b60ff81160361011c57565b3561096c816109ac565b90604061096c92600181528160208201520190610153565b90604061096c92600281528160208201520190610153565b90604061096c92600581528160208201520190610153565b90604061096c92600481528160208201520190610153565b90604061096c92600381528160208201520190610153565b98979695949392919060ff8a35610a4f816109ac565b1615610ad357600160ff610a628c6109b7565b1614610ac957610ac5610a9e610aac610a7a8d6109b7565b60405163bb75025d60e01b602082015260ff90911660248201529182906044820190565b03601f198101835282610538565b604051631ee0c01d60e31b8152918291600483016109c1565b0390fd5b6109a89899611590565b95929491969893908695610ae7818a610955565b986060870198610b00818c610afb8d610962565b612860565b8051610d0d575090610b89949392916020890190610b25610b2083610962565b611359565b9a610b3f60808c0135809d90600052602052604060002090565b5415158b8d610b6881610b59610b5489610962565b611392565b90600052602052604060002090565b54151592610cdd575b5050610ca1575b6001600160a01b039788908e610962565b16610c4757509089610b9c8e8d946114be565b9f7f62f45af1ef781f07a7efa5cc0678ca0c3cdaed8c8bbe87e057d7eb5bcff7a18c9a60a09a610c2a99610bf498610c1698610bfc610c10995b610be8610be28b610962565b91613872565b60c08a01359d8e613872565b91339061311a565b8b81610c31575b5050505050505050610962565b99610962565b90604051958695339b1698013592856114cb565b0390a49190565b610c3a9761200c565b893880808080808b610c03565b9e610c109291508a907f62f45af1ef781f07a7efa5cc0678ca0c3cdaed8c8bbe87e057d7eb5bcff7a18c9a8f9a8f998f98610c1698610bfc60a09f9b610c9c610c2a9f9d610c97610bf49f610962565b612a9e565b610bd6565b610ccc610cb98d610b59610cb487610962565b611404565b3360009081526020919091526040902090565b610cd68154610942565b9055610b78565b60c0610cfa610cb9610d0493610b59610cf58b610962565b6113cb565b9201358254610955565b90558b8d610b71565b604051631ee0c01d60e31b8152908190610ac590600483016109d9565b91908082526020809201929160005b828110610d47575050505090565b9091929382806001928735610d5b81610308565b848060a01b03168152019501910192919092610d39565b91908082526020809201929160005b828110610d8f575050505090565b90919293828060019260ff8835610da5816109ac565b16815201950193929101610d81565b97959361096c999793610e0b969260008051602061467e8339815191528b5260018060a01b03948580921660208d01521660408b015260608a015260808901521660a08701526101008060c0880152860191610d2a565b9260e0818503910152610d72565b989694909361096c9a9894602094610e79989460008051602061467e8339815191528d528c60018060a01b03978880951691015260408d01521660608b015260808a015260a08901521660c08701526101208060e0880152860191610d2a565b92610100818503910152610d72565b97969592919094939560ff610e9c8a6109b7565b1615610f6957600160ff610eaf8b6109b7565b1614610ee257610ac5610ec18a6109b7565b60405163bb75025d60e01b815260ff90911660048201529081906024820190565b979192939495969773__$11854c5905aa23948096e0e4d7059bb9de$__94610f0c60208501610962565b96610f1960608601610962565b99873b1561011c57600099608097610f4b966040519d8e9c8d9b8c9b63981e8fc560e01b8d5201359060048c01610e19565b03915af480156106bc57610f5c5750565b806106b0610324926104b9565b9791969794909493929373__$11854c5905aa23948096e0e4d7059bb9de$__94610fa16060610f9a60208701610962565b9501610962565b94863b1561011c57600098610f4b946040519b8c9a8b998a99631872482b60e31b8b5260048b01610db4565b60405190610fda82610502565b60008252565b3d1561101a573d906001600160401b0382116104b4576040519161100e601f8201601f191660200184610538565b82523d6000602084013e565b606090565b919082604091031261011c576020825192015190565b908161104d91959394956110476107b5565b50612133565b928094611059836117d8565b8051909692906001600160a01b031680611145575b50156111345750906110869160608601519185612474565b805161112657507f5e94cc2b8b9fd616c1ffff3497627b534929331e1f3b26d7dc3360464546d50c546000938493926110c8926001600160a01b031693611295565b90602082519201905af46110da610fe0565b901561110c576110f59192506020808251830101910161101f565b600161010084015291906101808201529160019190565b61111861111f916123a5565b9083612236565b9160009190565b91505061111f91508261220d565b93505050935061111f91508261220d565b6001600160a01b031660808901523861106e565b9035601e198236030181121561011c5701602081359101916001600160401b03821161011c578160051b3603831361011c57565b81835290916001600160fb1b03831161011c5760209260051b809284830137010190565b9061124b61096c9260ff81356111c6816109ac565b16835260208101356111d781610308565b6001600160a01b031660208401526112046111f460408301610319565b6001600160a01b03166040850152565b61122361121360608301610319565b6001600160a01b03166060850152565b6080810135608084015260a081013560a084015260c081013560c084015260e0810190611159565b9091610100908160e0820152019161118d565b90815180825260208080930193019160005b82811061127e575050505090565b835160ff1685529381019392810192600101611270565b8251602080850151604080870151608088015160a0909801519151632cd4520560e11b8186015260e060248201529796889692956001600160a01b03949193908516906112e7906101048a01906111b1565b9360448901526064880152608487015260a486015260231992838683030160c48701528080885193848152019701926000905b83821061133c5750505050508284030160e483015261096c92610a9e9161125e565b84518116895297820197899750938201936001919091019061131a565b6001600160a01b031660009081527f5e94cc2b8b9fd616c1ffff3497627b534929331e1f3b26d7dc3360464546d50f6020526040902090565b6001600160a01b031660009081527f5e94cc2b8b9fd616c1ffff3497627b534929331e1f3b26d7dc3360464546d5116020526040902090565b6001600160a01b031660009081527f5e94cc2b8b9fd616c1ffff3497627b534929331e1f3b26d7dc3360464546d5106020526040902090565b6001600160a01b031660009081527f5e94cc2b8b9fd616c1ffff3497627b534929331e1f3b26d7dc3360464546d5126020526040902090565b6001600160a01b031660009081527f5e94cc2b8b9fd616c1ffff3497627b534929331e1f3b26d7dc3360464546d5136020526040902090565b6001600160a01b031660009081527f5e94cc2b8b9fd616c1ffff3497627b534929331e1f3b26d7dc3360464546d50d6020526040902090565b60631981019190821161095057565b9190820391821161095057565b6001600160a01b03918216815260208101929092529091166040820152606081019190915260800190565b8181029291811591840414171561095057565b818110611514575050565b60008155600101611509565b600560009182815582600182015582600282015582600382015560048101805484825580611576575b505001908154908083558161155d57505050565b60208161032494601f935220910160051c810190611509565b6115899185526020852090810190611509565b3880611549565b9498959097929691939888996115a6818a610955565b996115b8818c610afb60608c01610962565b9b8c51611779579a9b508b9a6001600160a01b036115d860608b01610962565b1661175a57506116aa969798999a6115ef916114be565b995b6002611639896116228c608061161161160c60208401610962565b61143d565b910135600052602052604060002090565b9060018060a01b0316600052602052604060002090565b0161164960c08b013582546114be565b80915515611731575b7f5e94cc2b8b9fd616c1ffff3497627b534929331e1f3b26d7dc3360464546d50a546116a3908a906001600160a01b031661168f60208301610962565b908b608060c0850135940135923392612cce565b878961200c565b6116b660208301610962565b917f12bc30bbc1c37d31b51d08cc6254da96f9626f008933e693e85e93074d78869461172c6116e760608401610962565b6040805160808087013582526001600160a01b03938416602083015260a08701359282019290925260c090950135606086015295811695339590911693918291820190565b0390a4565b611755611750896116228c610b5961160c602060808401359301610962565b611520565b611652565b9a88999a915061177490610c9760606116aa9a9b01610962565b6115f1565b604051631ee0c01d60e31b815280610ac58f600483016109d9565b6040519060c082018281106001600160401b038211176104b457604052606060a0836000815260006020820152600060408201526000838201528260808201520152565b906117e1611794565b9082356117ed816109ac565b60ff811693841561185257611801826109ac565b6001851461183d5750611813906109ac565b6040519263bb75025d60e01b6020850152602484015260248352611836836104e7565b6000929190565b9193505061184b9150611ba9565b9192909190565b9193505061184b91506118a4565b903590601e198136030182121561011c57018035906001600160401b03821161011c57602001918160051b3603831361011c57565b9081602091031261011c575190565b6118ac611794565b90606081016118c96118c56118c083610962565b61268a565b1590565b611ab157602091828101916118e86118c56118e385610962565b612718565b611a6c5790611928916118fa84610962565b9061193261190782610962565b9260808501359360a086013595868660c0830135998360e08c950190611860565b9590943391614099565b60808101516001600160a01b03168a5296909115611a40575050505050508181015180838501528061198e575b506060915060a0810151608084015260c081015160a08401520151606082015260019161198a610fcd565b9190565b7f5e94cc2b8b9fd616c1ffff3497627b534929331e1f3b26d7dc3360464546d501546119f09184916119d0906001600160a01b03165b6001600160a01b031690565b60405180809581946361fe24a960e11b8352600483019190602083019252565b03915afa9081156106bc57606093600092611a13575b505060408401523861195f565b611a329250803d10611a39575b611a2a8183610538565b810190611895565b3880611a06565b503d611a20565b611a649750611a5491929394959650610962565b611a5e3393610962565b916133b2565b916000929190565b5050611a7d61183691949294610962565b604051630f20e39960e21b958101959095526001600160a01b0316602485015283604481015b03601f198101855284610538565b611aa3939150611ac361183691610962565b60405163cd5f748960e01b60208201526001600160a01b0390911660248201529384906044820190565b6040519060a082018281106001600160401b038211176104b457604052606060808360008152600060208201526000604082015282808201520152565b9081602091031261011c5751801515810361011c5790565b6001600160a01b0391821681529116602082015260400190565b6001600160a01b039091168152602081019190915260400190565b6001600160a01b0391821681529116602082015260408101919091526060810191909152608081019190915260a00190565b90611bb2611794565b90604080840190611bd2611bc583610962565b6001600160a01b03168552565b611bde6119c483610962565b3314611fd2576060850190611bf86118c56118c084610962565b611f955760209182870196611c126118c56118e38a610962565b611f5657611c1e611aed565b50611c2888610962565b9160c0611c5b611c3788610962565b94611c4184610962565b946080810135809660a08301359586930135988994614481565b93909115611f2e57505050611c756119c46119c48b610962565b611cd186611c8289610962565b7f5e94cc2b8b9fd616c1ffff3497627b534929331e1f3b26d7dc3360464546d50a54611cb6906001600160a01b03166119c4565b885163e985e9c560e01b815293849283929060048401611b42565b0381855afa60009181611eff575b50611d1c575050505050611aa390611d02611cfc61183695610962565b97610962565b905196879363d65b0d6960e01b9085015260248401611b42565b96929493959615611ee6578685611d5092611d3686610962565b8751809581948293627eeac760e11b845260048401611b5c565b03915afa60009181611ec7575b50611dbe57505091611836949391611d7a610c10611aa395610962565b9051988995636906ef1760e11b90870152602486019093600093608093969560a084019760018060a01b038092168552166020840152604083015260608201520152565b92949182849a959297989a10611e8f57505050508284018051868601527f5e94cc2b8b9fd616c1ffff3497627b534929331e1f3b26d7dc3360464546d50154611e3a939250859190611e18906001600160a01b03166119c4565b905190835180809681946361fe24a960e11b8352600483019190602083019252565b03915afa9182156106bc57608094600093611e70575b5050840152606081015182840152015160a082015260019161198a610fcd565b611e87929350803d10611a3957611a2a8183610538565b903880611e50565b611836965094611ead611ea7611aa3969b9997610962565b9a610962565b9051998a96636906ef1760e11b9088015260248701611b77565b611edf919250883d8a11611a3957611a2a8183610538565b9038611d5d565b5050611836949350611aa39250611cfc611d0291610962565b611f20919250883d8a11611f27575b611f188183610538565b810190611b2a565b9038611cdf565b503d611f0e565b939550939691509450611f50611f4a611f4a611a64999b610962565b92610962565b926136fd565b5050946118369250611f6a611aa391610962565b9551630f20e39960e21b928101929092526001600160a01b0390951660248201529384906044820190565b90611aa395506118369250611fa990610962565b905163cd5f748960e01b60208201526001600160a01b0390911660248201529384906044820190565b611aa39450611fe361183692610962565b905163aac1ae8b60e01b60208201526001600160a01b0390911660248201529384906044820190565b9497969795919593929360018060a01b0390817f5e94cc2b8b9fd616c1ffff3497627b534929331e1f3b26d7dc3360464546d50c541697604051966020918461206d848b019b636b2c295360e11b8d5260c060248d015260e48c01906111b1565b961660448a0152606489015260848801528060231994858982030160a48a01528381520195926000905b8382106120f557505050505092610a9e83600098996120c3948a999897858098030160c4860152610d72565b51915af46120cf610fe0565b90156120d85750565b604051631ee0c01d60e31b8152908190610ac590600483016109f1565b90919293968380600192848b3561210b81610308565b1681520198019493920190612097565b60405161212781610502565b60008152906000368137565b9061213c6107b5565b5060c0612148826109b7565b916121d461215860208301610962565b6121c461216760408501610962565b6121a861217660608701610962565b9361219861218261211b565b9961218b610559565b9b8c5260ff1660208c0152565b6001600160a01b031660408a0152565b60808581013560608a01526001600160a01b0390911690880152565b6001600160a01b031660a0860152565b60a081013582850152013560e0830152600061010083015260006101208301526000610140830152610160820152600061018082015290565b6001610120820152610160906001600160e01b031961222b84613897565b166101408201520152565b6006821015610141576101609161012082015263ffffffff60e01b61222b84613897565b9081526001600160a01b039182166020820152911660408201526060810191909152608081019190915290151560a0820152949392610120926122c7926122a59060c0890190610146565b6001600160e01b03191660e08701526101406101008701819052860190610153565b930152565b80519060208101516122de9060ff1690565b60408201519092906001600160a01b031660608301516080840151909391906001600160a01b031660a08301519094906001600160a01b03169260c08101519060e081015161010082015161233290151590565b6101208301519061234282610137565b6101408401516001600160e01b0319169261016085015194610180015195604051998a99600160a01b60019003169d60ff169c61237f998b61225a565b037f844491b54cb1a58801f9eb51fecfaf5076847131d8f6ec580232d9766e3fae4f91a4565b906123af826123c1565b916123bc57505060059190565b925090565b631ee0c01d60e31b6001600160e01b03196123db83613897565b1614801590612469575b61245a57602481015191604482015160648301928351916005861190811561244e575b5061243b5761241790516114af565b1061242c5761242583610137565b6001929190565b6000925082915061096c610fcd565b505091505060009060009061096c610fcd565b60409150141538612408565b5060009060009061096c610fcd565b5060648151106123e5565b9060ff8235612482816109ac565b1615801590612511575b6124fa576124b260c0916124bb946124a660208601610962565b90608086013592612519565b91013590610955565b818111156124f057604051635bdd08f560e01b60208201526024810191909152604481019190915261096c8160648101610a9e565b505061096c610fcd565b5050505060405161250a81610502565b6000815290565b50831561248c565b9192909260005b848110612531575050505050600090565b6001600160a01b0380612544838761096f565b5151169083161480612573575b61255d57600101612520565b9150506040925061256d9161096f565b51015190565b50826020612581838761096f565b51015114612551565b9160ff612596826109b7565b166126845760005b8281106125f957508161096c938260c06125bd60206125f39601610962565b916125d86125c9610579565b6001600160a01b039094168452565b6080810135602084015201356040820152610749838361096f565b50610942565b612614612606828661096f565b51516001600160a01b031690565b6020906126256119c4838601610962565b6001600160a01b03909116149081612669575b506126455760010161259e565b604061265860c09261266494959661096f565b51019201358251610955565b905290565b9050612675828661096f565b51015160808301351438612638565b50905090565b6001600160a01b03908116908115612711576020907f5e94cc2b8b9fd616c1ffff3497627b534929331e1f3b26d7dc3360464546d505541691602460405180948193632d5ad3d560e01b835260048301525afa600091816126f1575b5061096c5750600090565b61270a91925060203d8111611f2757611f188183610538565b90386126e6565b5050600190565b803b15159081612726575090565b90506040519060208083018160006301ffc9a760e01b9586845286602482015260248152612753816104e7565b51617530938685fa933d60005190866127f8575b50856127ee575b508461278b575b50505081612781575090565b61096c9150612803565b83945090600091839460405185810192835263ffffffff60e01b6024820152602481526127b7816104e7565b5192fa60005190913d836127e3575b5050816127d9575b501590388080612775565b90501515386127ce565b1015915038806127c6565b151594503861276e565b841115955038612767565b6000602091604051838101906301ffc9a760e01b8252636cdb3d1360e11b602482015260248152612833816104e7565b5191617530fa6000513d82612854575b508161284d575090565b9050151590565b60201115915038612843565b918115612a93576001600160a01b038316908115612a5b5750604080516370a0823160e01b8152336004820152602092908381602481855afa60009181612a3c575b506128e2575050516364db3d5960e01b918101919091526001600160a01b03909216602483015260448201526000606482015261096c8160848101610a9e565b8481106129fd57507f5e94cc2b8b9fd616c1ffff3497627b534929331e1f3b26d7dc3360464546d50854612940918491612924906001600160a01b03166119c4565b9084518080958194636eb1769f60e11b83523360048401611b42565b03915afa600091816129de575b5061298c5750516337a950bb60e01b918101919091526001600160a01b03909216602483015260448201526000606482015261096c8160848101610a9e565b8381106129a057505050505061096c610fcd565b90516337a950bb60e01b928101929092526001600160a01b0390931660248201526044810191909152606481019190915261096c8160848101610a9e565b6129f6919250843d8611611a3957611a2a8183610538565b903861294d565b91516364db3d5960e01b93810193909352506001600160a01b0390931660248201526044810191909152606481019190915261096c8160848101610a9e565b612a54919250853d8711611a3957611a2a8183610538565b90386128a2565b925050808210156124f0576040516310da2c1360e21b60208201526024810191909152604481019190915261096c8160648101610a9e565b50505061096c610fcd565b90918215612cc957604080516370a0823160e01b8082523060048084019190915292959294926020929091906001600160a01b0385169060008582602481865afa909181612caa575b50612b0f578888610ac5612af9610fe0565b9251631ee0c01d60e31b815292839283016109d9565b7f5e94cc2b8b9fd616c1ffff3497627b534929331e1f3b26d7dc3360464546d50854909290612b46906001600160a01b03166119c4565b803b1561011c578951630aed65f560e11b81526001600160a01b038816818b0190815233602082015230604082015260608101879052909160009183919082908490829060800103925af19081612c97575b50612baa578888610ac5612af9610fe0565b8851908152308882019081529091600091869184918290819060200103915afa909181612c78575b50612be4578787610ac5612af9610fe0565b949693959460009190818110612c7057612bfe92506114be565b905b808203612c0f57505050505050565b8351636ff596f360e01b938101939093526001600160a01b03909516602483015260448201949094526064810193909352610ac590612c5b84608481015b03601f198101865285610538565b51631ee0c01d60e31b815292839283016109d9565b505090612c00565b612c90919250853d8711611a3957611a2a8183610538565b9038612bd2565b806106b0612ca4926104b9565b38612b98565b612cc2919250863d8811611a3957611a2a8183610538565b9038612ae7565b915050565b95939194909285600093604098895195627eeac760e11b80885287612cf88560049d8e8401611b5c565b038860018060a01b0393848c169260209b8c9181865afa909181612fc2575b50612d3f578d8d610ac5612d29610fe0565b9251631ee0c01d60e31b81529283928301610a09565b92888410612f9557858e8b8f8b90612d636000945195869384938b85528401611b5c565b0381875afa909181612f76575b50612d82578e8e610ac5612d29610fe0565b9416803b1561011c576000878f928f838f91612dee8f8f988e9051998a988997889663eb46c45b60e01b885287019391909260e0959360018060a01b03928380921687521660208601521660408401526060830152608082015260c060a0820152600060c08201520190565b03925af19081612f63575b50612e0b578c8c610ac5612d29610fe0565b8c518281528d908d9060008c8280612e268c8e838901611b5c565b0381885afa909181612f44575b50612e445750610ac5612d29610fe0565b87938c928b9296612e62600096519788958694859485528401611b5c565b03915afa909181612f25575b50612e80578c8c610ac5612d29610fe0565b90612e928880939e9b9d9c9e946114be565b1492831593612f10575b505050612ead575050505050505050565b8551638791019960e01b958101959095526001600160a01b039788166024860152604485015286166064840152909416608482015260a4810193909352610ac590612efb8460c48101612c4d565b51631ee0c01d60e31b81529283928301610a09565b612f1b929350610955565b1415388581612e9c565b612f3d9192508a3d8c11611a3957611a2a8183610538565b9038612e6e565b612f5c9192508d803d10611a3957611a2a8183610538565b9038612e33565b806106b0612f70926104b9565b38612df9565b612f8e9192508c8d3d10611a3957611a2a8183610538565b9038612d70565b50858c610ac58f612efb8d8f898f8d612c4d9387519a8b96636906ef1760e11b9088015260248701611b77565b612fda9192508b3d8d11611a3957611a2a8183610538565b9038612d17565b602090818184031261011c578051906001600160401b03821161011c57019180601f8401121561011c5782516130168161079e565b936130246040519586610538565b818552838086019260051b82010192831161011c578301905b82821061304b575050505090565b8151815290830190830161303d565b90815180825260208080930193019160005b82811061307a575050505090565b83518552938101939281019260010161306c565b9092916040820191604081528451809352606081019260208096019060005b8181106130c75750505061096c939481840391015261305a565b82516001600160a01b0316865294870194918701916001016130ad565b6001600160a01b03909116815260606020820181905261096c93919261310c9184019061305a565b91604081840391015261305a565b82516001600160a01b0382169593949392906131369082613311565b604080516313849cfd60e21b80825291986004989392916000818061315e88888f840161308e565b0381855afa600091816132f6575b50613194578a8a610ac561317e610fe0565b9251631ee0c01d60e31b81529283928301610a21565b92813b1561011c578a51630d4498e760e21b81528b92908b90600081806131bf8f8c8e8489016130e4565b038183875af190816132e3575b506131de578390610ac561317e610fe0565b86946131f760009551968795869485948552840161308e565b03915afa600091816132c0575b50613216578888610ac561317e610fe0565b979496959760005b83518110156132b457613231818361096f565b516132528b61324b84613244818961096f565b519261096f565b5190610955565b0361325f5760010161321e565b8988610ac58961329f8a612c4d8b6132828961327b818f61096f565b519961096f565b51908551988994631b3c965960e21b6020870152602486016114cb565b51631ee0c01d60e31b81529283928301610a21565b50505050505050509050565b6132dc91923d8091833e6132d48183610538565b810190612fe1565b9038613204565b806106b06132f0926104b9565b386131cc565b61330a91923d8091833e6132d48183610538565b903861316c565b919061331c8161079e565b9261332a6040519485610538565b818452601f196133398361079e565b013660208601378360005b8381106133515750505050565b8061335e6001928461096f565b828060a01b038516905201613344565b307f00000000000000000000000000000000000000000000000000000000000000006001600160a01b0316146133a057565b60405163197ba25b60e01b8152600490fd5b9492939591956133c581610b5984611476565b956001600160e01b03191694634ed1072f60e11b8087146136d8575063915b8f1d60e01b8681146136a35750600162bed83560e01b0319868114613685575063e2cf60cb60e01b868114613651575063c6b949a960e01b8681146136325750636d03a2e560e01b8681146135bc575063ae3586c560e01b9186831461354d5750635bdd08f560e01b9250505083811461351c575063456afd0b60e01b90508281146134f35750631d6bbb8d60e11b8281146134c45750632e834cbf60e11b91821490506134975750505061096c610fcd565b610a9e6134b0600161096c94015460018060a01b031690565b604051948593602085015260248401611b42565b6002939093015460405160208101949094526024840191909152604483015250905061096c8160648101610a9e565b93505050600361096c91015491610a9e6040519384926020840152602483019190602083019252565b9250935050610a9e600461096c93015460405194859360208501526024840160209093929193604081019481520152565b9297509250935061096c9450610a9e925061356b81610b5988611392565b549161357e8161162284610b598b611404565b5491604051978896602088015260248701919594939060809360a084019760018060a01b038093168552602085015216604083015260608201520152565b9550929091965061096c9550610a9e93506135da82610b5989611359565b54926135ed8161162285610b598c6113cb565b5492604051988997602089015260248801929060a09491979695929760c0850198600180881b0380931686526020860152166040840152606083015260808201520152565b9750505050505050506040519060208201526004815261096c8161051d565b60405160208101919091526001600160a01b039091166024820152965061096c955086945050604484019250610a9e915050565b9550505094505050610a9e6134b061096c935460018060a01b031690565b60405160208101919091526001600160a01b0390931660248401525090955061096c945085935050604483019150610a9e9050565b9550509150945061096c9350610a9e9150604051948593602085015260248401611b5c565b9492916137118161162287610b598661143d565b956001600160e01b0319169463c6b949a960e01b8087146136325750630bac95f560e21b8681146138325750635493bdef60e11b918683146138095750632e834cbf60e11b925050508381146137eb5750631d6bbb8d60e11b90508281146137bc57506364b7fccd60e11b91821490506137905750505061096c610fcd565b610a9e600261096c93015460405194859360208501526024840160209093929193604081019481520152565b6001939093015460405160208101949094526024840191909152604483015250905061096c8160648101610a9e565b935490945061096c939250610a9e91506001600160a01b03166134b0565b92975092509350610a9e9250600361096c950154916040519687956020870152602486016114cb565b60405160208101919091526001600160a01b039384166024820152604481019190915291166064820152945061096c935084925050608482019050610a9e565b90604051916138808361051d565b600183526020830160203682378351156109275752565b60048151106138a7576020015190565b50600090565b604051906138ba826104cc565b606060c083600081526000602082015260006040820152600083820152600060808201528260a08201520152565b9060405191828154918282526020928383019160005283600020936000905b82821061391d5750505061032492500383610538565b85546001600160a01b031684526001958601958895509381019390910190613907565b9060408051809380549261396761395b858560209181520190565b92600052602060002090565b9360005b81601f820110613d8357610324955492828210613d6d575b828210613d53575b828210613d39575b828210613d1f575b828210613d05575b828210613ceb575b828210613cd1575b828210613cb7575b828210613ca0575b50818110613c88575b818110613c70575b818110613c58575b818110613c40575b818110613c28575b818110613c10575b818110613bf8575b818110613be0575b818110613bc8575b818110613bb0575b818110613b98575b818110613b80575b818110613b68575b818110613b50575b818110613b38575b818110613b20575b818110613b08575b818110613af0575b818110613ad8575b818110613ac0575b818110613aa8575b818110613a90575b10613a82575b500383610538565b60f81c815260200138613a7a565b60f083901c60ff168452926001906020019301613a74565b60e883901c60ff168452926001906020019301613a6c565b60e083901c60ff168452926001906020019301613a64565b60d883901c60ff168452926001906020019301613a5c565b60d083901c60ff168452926001906020019301613a54565b60c883901c60ff168452926001906020019301613a4c565b60c083901c60ff168452926001906020019301613a44565b60b883901c60ff168452926001906020019301613a3c565b60b083901c60ff168452926001906020019301613a34565b60a883901c60ff168452926001906020019301613a2c565b60a083901c60ff168452926001906020019301613a24565b609883901c60ff168452926001906020019301613a1c565b609083901c60ff168452926001906020019301613a14565b608883901c60ff168452926001906020019301613a0c565b608083901c60ff168452926001906020019301613a04565b607883901c60ff1684529260019060200193016139fc565b607083901c60ff1684529260019060200193016139f4565b606883901c60ff1684529260019060200193016139ec565b606083901c60ff1684529260019060200193016139e4565b605883901c60ff1684529260019060200193016139dc565b605083901c60ff1684529260019060200193016139d4565b604883901c60ff1684529260019060200193016139cc565b83901c60ff168452926001906020019301386139c3565b603884901c60ff16855290936001906020019401906139bb565b603084901c60ff16855290936001906020019401906139b3565b602884901c60ff16855290936001906020019401906139ab565b602084811c60ff16865291949091600191019401906139a3565b601884901c60ff168552909360019060200194019061399b565b601084901c60ff1685529093600190602001940190613993565b600884901c60ff168552909360019060200194019061398b565b60ff841685529093600190602001940190613983565b919350916001610400602092614021885461401660ff613da78582851660ff169052565b613fef613e54613f9f8d613f4f89613eff8e613dcc8184018a8d60081c1660ff169052565b613ddf8584018a8d60101c1660ff169052565b888b610200606095613dfa878201858560181c1660ff169052565b613e0f6080958585888501921c1660ff169052565b613eb560a097613e28898401878760281c1660ff169052565b613e6560c09b613e418d8601898960301c1660ff169052565b60e09e8f8601898960381c1660ff169052565b87876101008701921c1660ff169052565b613e7a6101208401878760481c1660ff169052565b613e8f6101408401878760501c1660ff169052565b613ea46101608401878760581c1660ff169052565b85856101808501921c1660ff169052565b613eca6101a08201858560681c1660ff169052565b613edf6101c08201858560701c1660ff169052565b613ef46101e08201858560781c1660ff169052565b01921c1660ff169052565b613f146102208c01888b60881c1660ff169052565b613f296102408c01888b60901c1660ff169052565b613f3e6102608c01888b60981c1660ff169052565b86896102808d01921c1660ff169052565b613f646102a08a01868960a81c1660ff169052565b613f796102c08a01868960b01c1660ff169052565b613f8e6102e08a01868960b81c1660ff169052565b84876103008b01921c1660ff169052565b613fb46103208801848760c81c1660ff169052565b613fc96103408801848760d01c1660ff169052565b613fde6103608801848760d81c1660ff169052565b82856103808901921c1660ff169052565b6140046103a08601828560e81c1660ff169052565b6103c08501908360f01c1660ff169052565b60f81c6103e0830152565b019501910191869391949261396b565b9060405161403e816104cc565b60c06140946006839560018060a01b038082541686526001820154166020860152600281015460408601526003810154606086015260048101546080860152614089600582016138e8565b60a086015201613940565b910152565b9690929695919493956140aa6138ad565b976140c06140bb82610b5985611476565b614031565b818a5280516001600160a01b031660808b01529660808801805160608c015288516001600160a01b0396919591908716801561430f57614100908661432b565b90156142f357156142d55761411b916118c5918486886143b0565b6142bc5786156142a35761413282610b5985611359565b546141448261162285610b59886113cb565b549088811515928361428f575b5050506142765761162282610b5961416f61417695610b5988611392565b5495611404565b54908015159182614263575b505061424d57518015159081614243575b5061422e5760608401514210614219576040840151850361420457602084015191811691166001600160a01b0316036141f15760c0926141d2916114f6565b602084015260a081015160a0840152015160c082015260019160009190565b50600093632e834cbf60e11b9392509050565b50600095631d6bbb8d60e11b95945092505050565b5060009563456afd0b60e01b95945092505050565b50600095635bdd08f560e01b95945092505050565b9050831138614193565b5060009663ae3586c560e01b9695509350505050565b61426e919250610942565b113880614182565b50600099636d03a2e560e01b9998509650505050505050565b61429a929350610955565b11388881614151565b5060009963c6b949a960e01b9998509650505050505050565b5060009963e2cf60cb60e01b9998509650505050505050565b5060009b600162bed83560e01b03199b9a5098505050505050505050565b5060009c63915b8f1d60e01b9c9b509950505050505050505050565b5060009c634ed1072f60e11b9c9b509950505050505050505050565b604051638da5cb5b60e01b60208201908152600482529293929061434e8161051d565b6000928392839251915afa90614362610fe0565b911580156143a5575b61439e576020828051810103126100e957506020015161438a81610308565b6001926001600160a01b0391821691161490565b9250508190565b50602082511061436b565b6001600160a01b031660009081527f5e94cc2b8b9fd616c1ffff3497627b534929331e1f3b26d7dc3360464546d50e602052604090209193929190600052602052604060002060405190604082018281106001600160401b038211176104b457604052600181549182845201549081602084015215908115614476575b5061446d5760405160609490941b6bffffffffffffffffffffffff19166020850190815261096c946144628160348101610a9e565b5190209051906145ee565b50505050600190565b90504210153861442d565b9493929061448d611aed565b958287528515614596576144a792610b596116229261143d565b9060028201549081156145815760038301548015159081614576575b506145615782546001600160a01b0391821691160361454d5782600183015403614539578311614526576144fc600592614518946114f6565b602085015261450d600482016138e8565b606085015201613940565b608082015260019160009190565b506000936364b7fccd60e11b9392509050565b50600094631d6bbb8d60e11b949350915050565b50600094632e834cbf60e11b949350915050565b50600095635493bdef60e11b95945092505050565b9050421015386144c3565b50600095630bac95f560e21b95945092505050565b5060009663c6b949a960e01b9695509350505050565b80156145dc57603281116145bd5750565b6044906040519063f80a484560e01b8252600482015260326024820152fd5b60405163c2e5347d60e01b8152600490fd5b9291909291600080925b82841061460757505050501490565b909192938460051b820135808211156000146146555760408051602081019384529081019190915261463c8160608101610a9e565b5190205b936000198114610950576001019291906145f8565b604080516020810192835290810192909252906146758160608101610a9e565b51902061464056fe5e94cc2b8b9fd616c1ffff3497627b534929331e1f3b26d7dc3360464546d500a2646970667358221220309a5b7adb8d8964d646932d2dbffb726a5120d87e0e4de7d494ce98ceeb54a064736f6c63430008120033","linkReferences":{"src/marketplace/RareERC1155MarketplacePayments.sol":{"RareERC1155MarketplacePayments":[{"start":1636,"length":20},{"start":3861,"length":20},{"start":3998,"length":20}]}}},"methodIdentifiers":{"MAX_BATCH_SIZE()":"cfdbf254","MAX_CHECKOUT_SIZE()":"a3eaf4d9","checkout((uint8,address,address,address,uint256,uint256,uint256,bytes32[])[])":"2c0c49ee","executeCheckoutItem((uint8,address,address,address,uint256,uint256,uint256,bytes32[]),uint256,address,uint256,uint256,address[],uint8[])":"59a8a40a","executeCheckoutPayout((uint8,address,address,address,uint256,uint256,uint256,bytes32[]),address,uint256,uint256,address[],uint8[])":"d65852a6"},"id":167}