{"abi":[{"type":"receive","stateMutability":"payable"},{"type":"function","name":"COLDIE_AUCTION","inputs":[],"outputs":[{"name":"","type":"bytes32","internalType":"bytes32"}],"stateMutability":"view"},{"type":"function","name":"NO_AUCTION","inputs":[],"outputs":[{"name":"","type":"bytes32","internalType":"bytes32"}],"stateMutability":"view"},{"type":"function","name":"auctionBids","inputs":[{"name":"","type":"address","internalType":"address"},{"name":"","type":"uint256","internalType":"uint256"}],"outputs":[{"name":"bidder","type":"address","internalType":"address"},{"name":"currencyAddress","type":"address","internalType":"address"},{"name":"amount","type":"uint256","internalType":"uint256"},{"name":"marketplaceFeeAtTime","type":"uint256","internalType":"uint256"}],"stateMutability":"view"},{"type":"function","name":"auctionLengthExtension","inputs":[],"outputs":[{"name":"","type":"uint256","internalType":"uint256"}],"stateMutability":"view"},{"type":"function","name":"bid","inputs":[{"name":"_originContract","type":"address","internalType":"address"},{"name":"_tokenId","type":"uint256","internalType":"uint256"},{"name":"_currencyAddress","type":"address","internalType":"address"},{"name":"_amount","type":"uint256","internalType":"uint256"}],"outputs":[],"stateMutability":"payable"},{"type":"function","name":"bidWithAuctionMerkleProof","inputs":[{"name":"_originContract","type":"address","internalType":"address"},{"name":"_tokenId","type":"uint256","internalType":"uint256"},{"name":"_creator","type":"address","internalType":"address"},{"name":"_merkleRoot","type":"bytes32","internalType":"bytes32"},{"name":"_bidAmount","type":"uint256","internalType":"uint256"},{"name":"_proof","type":"bytes32[]","internalType":"bytes32[]"}],"outputs":[],"stateMutability":"payable"},{"type":"function","name":"cancelAuctionMerkleRoot","inputs":[{"name":"_root","type":"bytes32","internalType":"bytes32"}],"outputs":[],"stateMutability":"nonpayable"},{"type":"function","name":"creatorRootToConfig","inputs":[{"name":"","type":"address","internalType":"address"},{"name":"","type":"bytes32","internalType":"bytes32"}],"outputs":[{"name":"currency","type":"address","internalType":"address"},{"name":"startingAmount","type":"uint256","internalType":"uint256"},{"name":"duration","type":"uint256","internalType":"uint256"},{"name":"nonce","type":"uint256","internalType":"uint256"}],"stateMutability":"view"},{"type":"function","name":"getAuctionDetails","inputs":[{"name":"_originContract","type":"address","internalType":"address"},{"name":"_tokenId","type":"uint256","internalType":"uint256"}],"outputs":[{"name":"","type":"address","internalType":"address"},{"name":"","type":"uint256","internalType":"uint256"},{"name":"","type":"uint256","internalType":"uint256"},{"name":"","type":"uint256","internalType":"uint256"},{"name":"","type":"address","internalType":"address"},{"name":"","type":"uint256","internalType":"uint256"},{"name":"","type":"bytes32","internalType":"bytes32"},{"name":"","type":"address[]","internalType":"address payable[]"},{"name":"","type":"uint8[]","internalType":"uint8[]"}],"stateMutability":"view"},{"type":"function","name":"getCreatorAuctionMerkleRootNonce","inputs":[{"name":"_user","type":"address","internalType":"address"},{"name":"_root","type":"bytes32","internalType":"bytes32"}],"outputs":[{"name":"","type":"uint256","internalType":"uint256"}],"stateMutability":"view"},{"type":"function","name":"getCurrentBid","inputs":[{"name":"_originContract","type":"address","internalType":"address"},{"name":"_tokenId","type":"uint256","internalType":"uint256"}],"outputs":[{"name":"bidder","type":"address","internalType":"address"},{"name":"currencyAddress","type":"address","internalType":"address"},{"name":"amount","type":"uint256","internalType":"uint256"},{"name":"marketplaceFeeAtTime","type":"uint256","internalType":"uint256"}],"stateMutability":"view"},{"type":"function","name":"getMerkleAuctionConfig","inputs":[{"name":"_creator","type":"address","internalType":"address"},{"name":"_root","type":"bytes32","internalType":"bytes32"}],"outputs":[{"name":"","type":"tuple","internalType":"struct IRareBatchAuctionHouse.MerkleAuctionConfig","components":[{"name":"currency","type":"address","internalType":"address"},{"name":"startingAmount","type":"uint256","internalType":"uint256"},{"name":"duration","type":"uint256","internalType":"uint256"},{"name":"splitAddresses","type":"address[]","internalType":"address payable[]"},{"name":"splitRatios","type":"uint8[]","internalType":"uint8[]"},{"name":"nonce","type":"uint256","internalType":"uint256"}]}],"stateMutability":"view"},{"type":"function","name":"getTokenAuctionNonce","inputs":[{"name":"_creator","type":"address","internalType":"address"},{"name":"_root","type":"bytes32","internalType":"bytes32"},{"name":"_tokenContract","type":"address","internalType":"address"},{"name":"_tokenId","type":"uint256","internalType":"uint256"}],"outputs":[{"name":"","type":"uint256","internalType":"uint256"}],"stateMutability":"view"},{"type":"function","name":"getUserAuctionMerkleRoots","inputs":[{"name":"_user","type":"address","internalType":"address"}],"outputs":[{"name":"","type":"bytes32[]","internalType":"bytes32[]"}],"stateMutability":"view"},{"type":"function","name":"initialize","inputs":[{"name":"_marketplaceSettings","type":"address","internalType":"address"},{"name":"_royaltyEngine","type":"address","internalType":"address"},{"name":"_spaceOperatorRegistry","type":"address","internalType":"address"},{"name":"_approvedTokenRegistry","type":"address","internalType":"address"},{"name":"_payments","type":"address","internalType":"address"},{"name":"_stakingRegistry","type":"address","internalType":"address"},{"name":"_stakingSettings","type":"address","internalType":"address"},{"name":"_networkBeneficiary","type":"address","internalType":"address"},{"name":"_erc20ApprovalManager","type":"address","internalType":"address"},{"name":"_erc721ApprovalManager","type":"address","internalType":"address"}],"outputs":[],"stateMutability":"nonpayable"},{"type":"function","name":"isTokenInRoot","inputs":[{"name":"_root","type":"bytes32","internalType":"bytes32"},{"name":"_origin","type":"address","internalType":"address"},{"name":"_tokenId","type":"uint256","internalType":"uint256"},{"name":"_proof","type":"bytes32[]","internalType":"bytes32[]"}],"outputs":[{"name":"","type":"bool","internalType":"bool"}],"stateMutability":"pure"},{"type":"function","name":"maxAuctionLength","inputs":[],"outputs":[{"name":"","type":"uint256","internalType":"uint256"}],"stateMutability":"view"},{"type":"function","name":"minimumBidIncreasePercentage","inputs":[],"outputs":[{"name":"","type":"uint256","internalType":"uint256"}],"stateMutability":"view"},{"type":"function","name":"owner","inputs":[],"outputs":[{"name":"","type":"address","internalType":"address"}],"stateMutability":"view"},{"type":"function","name":"registerAuctionMerkleRoot","inputs":[{"name":"_merkleRoot","type":"bytes32","internalType":"bytes32"},{"name":"_currency","type":"address","internalType":"address"},{"name":"_startingAmount","type":"uint256","internalType":"uint256"},{"name":"_duration","type":"uint256","internalType":"uint256"},{"name":"_splitAddresses","type":"address[]","internalType":"address payable[]"},{"name":"_splitRatios","type":"uint8[]","internalType":"uint8[]"}],"outputs":[],"stateMutability":"nonpayable"},{"type":"function","name":"renounceOwnership","inputs":[],"outputs":[],"stateMutability":"nonpayable"},{"type":"function","name":"setAuctionLengthExtension","inputs":[{"name":"_auctionLengthExtension","type":"uint256","internalType":"uint256"}],"outputs":[],"stateMutability":"nonpayable"},{"type":"function","name":"setMaxAuctionLength","inputs":[{"name":"_maxAuctionLength","type":"uint256","internalType":"uint256"}],"outputs":[],"stateMutability":"nonpayable"},{"type":"function","name":"setMinimumBidIncreasePercentage","inputs":[{"name":"_minimumBidIncreasePercentage","type":"uint8","internalType":"uint8"}],"outputs":[],"stateMutability":"nonpayable"},{"type":"function","name":"settleAuction","inputs":[{"name":"_originContract","type":"address","internalType":"address"},{"name":"_tokenId","type":"uint256","internalType":"uint256"}],"outputs":[],"stateMutability":"nonpayable"},{"type":"function","name":"tokenAuctions","inputs":[{"name":"","type":"address","internalType":"address"},{"name":"","type":"uint256","internalType":"uint256"}],"outputs":[{"name":"auctionCreator","type":"address","internalType":"address payable"},{"name":"creationBlock","type":"uint256","internalType":"uint256"},{"name":"startingTime","type":"uint256","internalType":"uint256"},{"name":"lengthOfAuction","type":"uint256","internalType":"uint256"},{"name":"currencyAddress","type":"address","internalType":"address"},{"name":"minimumBid","type":"uint256","internalType":"uint256"},{"name":"auctionType","type":"bytes32","internalType":"bytes32"}],"stateMutability":"view"},{"type":"function","name":"transferOwnership","inputs":[{"name":"newOwner","type":"address","internalType":"address"}],"outputs":[],"stateMutability":"nonpayable"},{"type":"event","name":"AuctionBid","inputs":[{"name":"contractAddress","type":"address","indexed":true,"internalType":"address"},{"name":"bidder","type":"address","indexed":true,"internalType":"address"},{"name":"tokenId","type":"uint256","indexed":true,"internalType":"uint256"},{"name":"currencyAddress","type":"address","indexed":false,"internalType":"address"},{"name":"amount","type":"uint256","indexed":false,"internalType":"uint256"},{"name":"marketplaceFee","type":"uint256","indexed":false,"internalType":"uint256"},{"name":"previousBidder","type":"address","indexed":false,"internalType":"address"}],"anonymous":false},{"type":"event","name":"AuctionMerkleBid","inputs":[{"name":"contractAddress","type":"address","indexed":true,"internalType":"address"},{"name":"tokenId","type":"uint256","indexed":true,"internalType":"uint256"},{"name":"bidder","type":"address","indexed":true,"internalType":"address"},{"name":"creator","type":"address","indexed":false,"internalType":"address"},{"name":"merkleRoot","type":"bytes32","indexed":false,"internalType":"bytes32"},{"name":"amount","type":"uint256","indexed":false,"internalType":"uint256"},{"name":"nonce","type":"uint256","indexed":false,"internalType":"uint256"}],"anonymous":false},{"type":"event","name":"AuctionMerkleRootCancelled","inputs":[{"name":"creator","type":"address","indexed":true,"internalType":"address"},{"name":"merkleRoot","type":"bytes32","indexed":true,"internalType":"bytes32"}],"anonymous":false},{"type":"event","name":"AuctionMerkleRootRegistered","inputs":[{"name":"creator","type":"address","indexed":true,"internalType":"address"},{"name":"merkleRoot","type":"bytes32","indexed":true,"internalType":"bytes32"},{"name":"currencyAddress","type":"address","indexed":false,"internalType":"address"},{"name":"startingAmount","type":"uint256","indexed":false,"internalType":"uint256"},{"name":"duration","type":"uint256","indexed":false,"internalType":"uint256"},{"name":"nonce","type":"uint256","indexed":false,"internalType":"uint256"}],"anonymous":false},{"type":"event","name":"AuctionSettled","inputs":[{"name":"contractAddress","type":"address","indexed":true,"internalType":"address"},{"name":"tokenId","type":"uint256","indexed":true,"internalType":"uint256"},{"name":"seller","type":"address","indexed":false,"internalType":"address"},{"name":"bidder","type":"address","indexed":false,"internalType":"address"},{"name":"amount","type":"uint256","indexed":false,"internalType":"uint256"},{"name":"marketplaceFee","type":"uint256","indexed":false,"internalType":"uint256"}],"anonymous":false},{"type":"event","name":"CancelAuction","inputs":[{"name":"contractAddress","type":"address","indexed":true,"internalType":"address"},{"name":"tokenId","type":"uint256","indexed":true,"internalType":"uint256"},{"name":"auctionCreator","type":"address","indexed":false,"internalType":"address"}],"anonymous":false},{"type":"event","name":"Initialized","inputs":[{"name":"version","type":"uint8","indexed":false,"internalType":"uint8"}],"anonymous":false},{"type":"event","name":"OwnershipTransferred","inputs":[{"name":"previousOwner","type":"address","indexed":true,"internalType":"address"},{"name":"newOwner","type":"address","indexed":true,"internalType":"address"}],"anonymous":false}],"bytecode":{"object":"0x608080604052346100165761508d908161001c8239f35b600080fdfe608080604052600436101561006a575b50361561001b57600080fd5b60405162461bcd60e51b815260206004820152602160248201527f455448207061796d656e74206e6f74206163636570746564206469726563746c6044820152607960f81b6064820152608490fd5b600090813560e01c9081630cd87c6814613ae4575080630e519ef914613ac657806310f7978914613aa3578063155a56b114613a87578063299a0e1e14613a0257806348626b90146139d45780634ebade5f146139265780635060eadf14612e355780635138b08c1461224f5780635e51b2d4146121ba5780636fe9f44c1461219c578063715018a61461213e57806376ffb5a714611fd15780638da5cb5b14611fa8578063ac964f8e14611e92578063affdafd814611e6f578063b5678588146115ca578063bb120e6614611556578063c306b37814610c14578063c47c35c114610b86578063c90b871414610b4b578063d97f765714610abd578063daa2649914610a9f578063e29ac89014610a5c578063e35ed75a146109b1578063f2fde38b146109205763f8aa56ee0361000f573461091d5760c036600319011261091d576101b5613c59565b608480356001600160401b038111610919576101d5903690600401613cac565b909160a4356001600160401b038111610915576101f6903690600401613cac565b916001600160a01b0386161580156108a3575b1561086657831561081457600584116107c65782840361076f5786805b8482106107435760649150036106f15760a4546064351161069a57609854604051637cd11f4360e11b815290602090829060049082906001600160a01b03165afa90811561068f57889161065d575b50604435116105f5575033865260a66020526102966004356040882061467e565b5033865260a86020526040862060043587526020526040862054936001850185116105e15733875260a8602052604087206004358852602052600185016040882055604051936102e585613d99565b6001600160a01b03871685526044356020860152606435604086015261030a81614639565b916103186040519384613e18565b818352602083019160051b8101903682116105dd57915b8183106105b957505050606084015261034782614639565b916103556040519384613e18565b8083526020830191368260051b8201116105b55780925b8260051b82018410610596575050505060808201526001820160a082015233845260a7602052604084206004358552602052604084209060018060a01b038151166001600160601b0360a01b835416178255602081015160018301556040810151600283015560608101518051906001600160401b03821161058257602060038501916103f98484614577565b0190875260208720875b83811061056557505050506004820160808201518051906001600160401b0382116105515760209061043583856145d5565b019187526020872090875b8160051c81106105125750601f1981168103806104bf575b5050505060a0015160059190910155604080516001600160a01b0393909316835260443560208401526064359083015260010160608201526004359033907f0f068b6b9bec01608fb1954057289ba057441305f4c64a0fc92bc9fc9a59ff3690608090a380f35b928893895b8181106104e257505050916005939160a093851c0155913880610458565b90919460206105086001928460ff8a5116919060ff809160031b9316831b921b19161790565b96019291016104c4565b88895b6020811061052a575083820155600101610440565b855190959160019160209160ff60038a901b81811b199092169216901b1792019501610515565b634e487b7160e01b88526041600452602488fd5b82516001600160a01b031681830155602090920191600101610403565b634e487b7160e01b87526041600452602487fd5b833560ff811681036105b05781526020938401930161036c565b600080fd5b8780fd5b82356001600160a01b03811681036105d95781526020928301920161032f565b8a80fd5b8980fd5b634e487b7160e01b87526011600452602487fd5b60405162461bcd60e51b815260206004820152604060248201527f726567697374657241756374696f6e4d65726b6c65526f6f743a3a537461727460448201527f696e6720616d6f756e742065786365656473206d6178696d756d2076616c75656064820152fd5b90506020813d602011610687575b8161067860209383613e18565b810103126105b0575138610275565b3d915061066b565b6040513d8a823e3d90fd5b60405162461bcd60e51b815260206004820152602c60248201527f726567697374657241756374696f6e4d65726b6c65526f6f743a3a447572617460448201526b696f6e20746f6f206c6f6e6760a01b6064820152fd5b60405162461bcd60e51b815260206004820152602760248201527f636865636b53706c6974733a3a546f74616c206d75737420626520657175616c604482015266020746f203130360cc1b6064820152fd5b8160051b8401359060ff82168092036105dd576107699161076391613ead565b91614873565b90610226565b60405162461bcd60e51b815260206004820152602c60248201527f636865636b53706c6974733a3a53706c69747320616e6420726174696f73206d60448201526b1d5cdd08189948195c5d585b60a21b6064820152fd5b60405162461bcd60e51b8152602060048201526024808201527f636865636b53706c6974733a3a53706c6974206578636565646564206d61782060448201526373697a6560e01b6064820152fd5b60405162461bcd60e51b815260206004820152602760248201527f636865636b53706c6974733a3a4d7573742068617665206174206c65617374206044820152660c481cdc1b1a5d60ca1b6064820152fd5b60405162461bcd60e51b81526020600482015260156024820152744e6f7420617070726f7665642063757272656e637960581b6044820152606490fd5b50609c54604051632d5ad3d560e01b81526001600160a01b038881166004830152909160209183916024918391165afa90811561068f5788916108e7575b50610209565b610908915060203d811161090e575b6109008183613e18565b8101906148b3565b386108e1565b503d6108f6565b8580fd5b8380fd5b80fd5b503461091d57602036600319011261091d5761093a613c2d565b610942613cdc565b6001600160a01b0381161561095d5761095a90613d34565b80f35b60405162461bcd60e51b815260206004820152602660248201527f4f776e61626c653a206e6577206f776e657220697320746865207a65726f206160448201526564647265737360d01b6064820152608490fd5b503461091d57604036600319011261091d576001600160a01b0390604090826109d8613c2d565b16815260a260205281812060243582526020522090610a586060604051936109ff85613db4565b838154169384865260018201541694856020820152600360028301549283604084015201549283910152604051948594859092606092959493608083019660018060a01b03809216845216602083015260408201520152565b0390f35b503461091d57604036600319011261091d576020906040906001600160a01b03610a84613c2d565b16815260a88352818120602435825283522054604051908152f35b503461091d578060031936011261091d57602060a554604051908152f35b503461091d57608036600319011261091d576040602091610adc613c2d565b610b2a610b38610aea613c43565b9285519283918883019560643591602435908892606894926001600160601b0319809360601b168552601485015260601b16603483015260488201520190565b03601f198101835282613e18565b519020815260a983522054604051908152f35b503461091d578060031936011261091d5760206040517fb827bfa0833ec95ae4f99f3f3f227cdb14c204ea3ebc414f5f479aabf742b9288152f35b503461091d57604036600319011261091d5760e0906001600160a01b039060409082610bb0613c2d565b16815260a1602052818120602435825260205220908082541691600181015491600282015490600383015490600484015416916006600585015494015494604051968752602087015260408601526060850152608084015260a083015260c0820152f35b503461091d5761014036600319011261091d57610c2f613c2d565b610c37613c59565b610c3f613c43565b606435916001600160a01b03831683036105b057608435926001600160a01b03841684036105b05760a435906001600160a01b03821682036105b05760c435906001600160a01b03821682036105b05760e435956001600160a01b03871687036105b05761010435946001600160a01b03861686036105b05761012435966001600160a01b03881688036105b0578a549960ff8b60081c16159a8b809c611549575b8015611532575b156114d65760ff1981166001178d558b6114c5575b506001600160a01b03811615611464576001600160a01b03831615611409576001600160a01b038216156113a6576001600160a01b03851615611343576001600160a01b038416156112ed576001600160a01b03871615611290576001600160a01b03861615611233576001600160a01b038a16156111d3576001600160a01b03881615611171576001600160a01b0389161561110e5760405163ef8c824960e01b81526001600160a01b039a8b166004820152908a16602482015290891660448201529088166064820152908716608482015290861660a482015290851660c482015290841660e48201529083166101048201529116610124820152610140816101448173__$c98ca6a62396e5a7a1471db151198a1f31$__5af4908115611103578391610f9c575b5060018060a01b03815116906001600160601b0360a01b9182609754161760975560018060a01b0360208201511682609854161760985560018060a01b0360408201511682609954161760995560018060a01b0360608201511682609a541617609a5560018060a01b0360808201511682609b541617609b5560018060a01b0360a08201511682609c541617609c5560018060a01b0360c08201511682609d541617609d5560018060a01b0360e08201511682609e541617609e5560018060a01b036101008201511682609f541617609f5561012060018060a01b03910151169060a054161760a055600160a35562093a8060a45561038460a555610f3b60ff835460081c16610f3681613e4d565b613e4d565b610f4433613d34565b815490610f5a60ff8360081c16610f3681613e4d565b6001606555610f67575080f35b61ff00191681557f7f26b83ff96e1f2b6a682f133852f6798a09c465da95921460cefb3847402498602060405160018152a180f35b9050610140813d610140116110fb575b81610fba6101409383613e18565b810103126110f7576040519061014082018281106001600160401b038211176110e157604052610fe981613e39565b825260208101516001600160a01b03811681036110dd57602083015260408101516001600160a01b03811681036110dd57604083015260608101516001600160a01b03811681036110dd57606083015260808101516001600160a01b03811681036110dd57608083015260a08101516001600160a01b03811681036110dd5760a083015260c08101516001600160a01b03811681036110dd5760c083015260e08101516001600160a01b03811681036110dd5760e083015261010081810151906001600160a01b03821682036109155783015261012090810151906001600160a01b03821682036110dd5782015238610e27565b8480fd5b634e487b7160e01b600052604160045260246000fd5b8280fd5b3d9150610fac565b6040513d85823e3d90fd5b60405162461bcd60e51b815260206004820152603560248201527f696e697469616c697a653a3a657263373231417070726f76616c4d616e616765604482015274722063616e6e6f742062652030206164647265737360581b6064820152608490fd5b60405162461bcd60e51b815260206004820152603460248201527f696e697469616c697a653a3a6572633230417070726f76616c4d616e616765726044820152732063616e6e6f742062652030206164647265737360601b6064820152608490fd5b60405162461bcd60e51b815260206004820152603260248201527f696e697469616c697a653a3a6e6574776f726b42656e65666963696172792063604482015271616e6e6f742062652030206164647265737360701b6064820152608490fd5b60405162461bcd60e51b815260206004820152602f60248201527f696e697469616c697a653a3a7374616b696e6753657474696e67732063616e6e60448201526e6f742062652030206164647265737360881b6064820152608490fd5b60405162461bcd60e51b815260206004820152602f60248201527f696e697469616c697a653a3a7374616b696e6752656769737472792063616e6e60448201526e6f742062652030206164647265737360881b6064820152608490fd5b60405162461bcd60e51b815260206004820152602860248201527f696e697469616c697a653a3a7061796d656e74732063616e6e6f742062652030604482015267206164647265737360c01b6064820152608490fd5b60405162461bcd60e51b815260206004820152603560248201527f696e697469616c697a653a3a617070726f766564546f6b656e52656769737472604482015274792063616e6e6f742062652030206164647265737360581b6064820152608490fd5b60405162461bcd60e51b815260206004820152603560248201527f696e697469616c697a653a3a73706163654f70657261746f7252656769737472604482015274792063616e6e6f742062652030206164647265737360581b6064820152608490fd5b60405162461bcd60e51b815260206004820152602d60248201527f696e697469616c697a653a3a726f79616c7479456e67696e652063616e6e6f7460448201526c2062652030206164647265737360981b6064820152608490fd5b60405162461bcd60e51b815260206004820152603360248201527f696e697469616c697a653a3a6d61726b6574706c61636553657474696e67732060448201527263616e6e6f742062652030206164647265737360681b6064820152608490fd5b61ffff1916610101178c5538610cfd565b60405162461bcd60e51b815260206004820152602e60248201527f496e697469616c697a61626c653a20636f6e747261637420697320616c72656160448201526d191e481a5b9a5d1a585b1a5e995960921b6064820152608490fd5b50303b158015610ce85750600160ff821614610ce8565b50600160ff821610610ce1565b503461091d57604036600319011261091d576001600160a01b03906040908261157d613c2d565b16815260a760209081528282206024358352815291902080546001820154600283015460059093015460408051969093166001600160a01b03168652938501528301526060820152608090f35b50608036600319011261091d576115df613c2d565b6115e7613c43565b906115f06144e6565b6098546040516361fe24a960e11b815260643560048201526001600160a01b0390911690602081602481855afa8015611972578590611e3b575b6116379150606435613ead565b61164181856148cb565b60018060a01b038316855260a160205260408520602435865260205260408520916116d760086040519461167486613d7d565b80546001600160a01b0390811687526001820154602088015260028201546040880152600382015460608801526004820154166080870152600581015460a0870152600681015460c08701526116cc60078201613ed0565b60e087015201613f2a565b61010084015260c083015115611df75782516001600160a01b03163314611da65760408301514210611d6157604083015180611d08575b5060808301516001600160a01b0390811690861603611cad5760a083015160643510611c685760643515611c1457602060049160405192838092637cd11f4360e11b82525afa90811561199c578691611be2575b5060643511611b9d5760018060a01b038316855260a260205260408520602435865260205260408520916040519161179983613db4565b83546001600160a01b039081168085526001860154909116602085015260028501546040850181905260039095015460608501529384611b18575b506117df90866149d7565b604081015180611aaf575b50821580611a82575b6119d2575b5081806119a7575b5050609854604051638347592160e01b80825291602090829060049082906001600160a01b03165afa90811561199c57869161197d575b5060036040519161184783613db4565b3383526001600160a01b038781166020808601918252606435604080880191825260ff95909516606088019081528a85168d5260a28352858d206024358e528352858d20975188549086166001600160a01b03199182161789559351600189018054918716919095161790935551600287015590519390940192909255609854905193845283916004918391165afa80156119725760ff918691611943575b506040519460018060a01b0316855260643560208601521660408401526060830152602435917f9279d7f36814426f85cbb32bdded74f483073546ce115b61927bfc23ea5b4f3c6080339360018060a01b031692a4600160655580f35b611965915060203d60201161196b575b61195d8183613e18565b8101906144cd565b386118e6565b503d611953565b6040513d87823e3d90fd5b611996915060203d60201161196b5761195d8183613e18565b38611837565b6040513d88823e3d90fd5b602082015160408301516060909301516119cb9390916001600160a01b0316614cd1565b3881611800565b6040516331a9108f60e11b81526024803560048301529091906020908390816001600160a01b0389165afa918215611a77578792611a37575b50516001600160a01b0390811691168190036117f857611a319060243590309086614fe8565b386117f8565b9091506020813d602011611a6f575b81611a5360209383613e18565b81010312611a6b57611a6490613e39565b9038611a0b565b8680fd5b3d9150611a46565b6040513d89823e3d90fd5b507fb827bfa0833ec95ae4f99f3f3f227cdb14c204ea3ebc414f5f479aabf742b92860c0820151146117f3565b611ac890611ac34291606085015190613ead565b6144c0565b60a55490818110611ada575b506117ea565b611ac3611aeb926060850151613ead565b6001600160a01b038516875260a1602090815260408089206024358a529091528720600301553880611ad4565b6064611b2a611b359260a354906144ad565b046040850151613ead565b60643510611b4357386117d4565b60405162461bcd60e51b815260206004820152602c60248201527f6269643a3a4d75737420696e63726561736520626964206279206d696e696d7560448201526b6d2070657263656e7461676560a01b6064820152608490fd5b60405162461bcd60e51b815260206004820152601a60248201527f6269643a3a4269642065786365656473206d61782076616c75650000000000006044820152606490fd5b90506020813d602011611c0c575b81611bfd60209383613e18565b810103126105b0575138611762565b3d9150611bf0565b60405162461bcd60e51b815260206004820152602660248201527f6269643a3a42696420616d6f756e74206d75737420626520677265617465722060448201526507468616e20360d41b6064820152608490fd5b60405162461bcd60e51b815260206004820152601760248201527f6269643a3a42696420616d6f756e7420746f6f206c6f770000000000000000006044820152606490fd5b60405162461bcd60e51b815260206004820152602d60248201527f6269643a3a43757272656e637920646f6573206e6f74206d617463682061756360448201526c74696f6e2063757272656e637960981b6064820152608490fd5b6060840151611d1691613ead565b421015611d23573861170e565b60405162461bcd60e51b8152602060048201526016602482015275189a590e8e905d58dd1a5bdb881a185cc8195b99195960521b6044820152606490fd5b60405162461bcd60e51b815260206004820152601760248201527f6269643a3a41756374696f6e206e6f74206163746976650000000000000000006044820152606490fd5b60405162461bcd60e51b815260206004820152602360248201527f6269643a3a43616e6e6f7420626964206f6e20796f7572206f776e206175637460448201526234b7b760e91b6064820152608490fd5b606460405162461bcd60e51b815260206004820152602060248201527f6269643a3a4d757374206861766520612063757272656e742061756374696f6e6044820152fd5b506020813d602011611e67575b81611e5560209383613e18565b810103126105b057611637905161162a565b3d9150611e48565b503461091d57602036600319011261091d57611e89613cdc565b60043560a45580f35b503461091d57602080600319360112611fa4576004359033835260a68152611ecd826040852060019160005201602052604060002054151590565b15611f505733835260a68152611ee682604085206146ec565b5033835260a781526040832090828452526000600560408420848155826001820155826002820155611f1a60038201614553565b611f26600482016145ab565b0155337f6c4be52b9a419eb78a1483e27346ba15e73a3f933dfc4310e9728ddf33c695f88380a380f35b6084906040519062461bcd60e51b82526004820152602760248201527f63616e63656c41756374696f6e4d65726b6c65526f6f743a3a4e6f7420726f6f6044820152663a1037bbb732b960c91b6064820152fd5b5080fd5b503461091d578060031936011261091d576033546040516001600160a01b039091168152602090f35b503461091d57604036600319011261091d57611feb613c2d565b604051611ff781613d99565b8281528260a0602092828482015282604082015260608082015260606080820152015260018060a01b03809216835260a78152604083206024358452815260408320916040519361204785613d99565b81845416855260019485850154948482019586526002810154936040830194855261207460038301613ed0565b60608401908152600561208960048501613f2a565b936080860194855201549560a0850196875260405198888a528360e08b01965116898b01525160408a0152516060890152519260c06080890152835180915286610100890194019185905b8a8383106121265750505050505193601f198683030160a08701528080865193848152019501925b82811061211057845160c088015286860387f35b835160ff168652948101949281019287016120fc565b845182168752958901959389019391909101906120d4565b503461091d578060031936011261091d57612157613cdc565b603380546001600160a01b031981169091556000906001600160a01b03167f8be0079c531659141344cd1fd0a4f28419497f9722a3daafe3b4186f6b6457e08280a380f35b503461091d578060031936011261091d57602060a354604051908152f35b503461091d57608036600319011261091d576121d4613c59565b90606435906001600160401b03821161091d576020612245846122406121fd3660048801613cac565b60405160609490941b6001600160601b03191686850190815260443560148201529193909291906122318160348401610b2a565b519020926004359236916147c8565b614816565b6040519015158152f35b503461091d57604036600319011261091d57612269613c2d565b60018060a01b038116825260a1602052604082206024358352602052604082206122fe60086040519261229b84613d7d565b80546001600160a01b0390811685526001820154602086015260028201546040860152600382015460608601526004820154166080850152600581015460a0850152600681015460c08501526122f360078201613ed0565b60e085015201613f2a565b61010082015260018060a01b038216835260a2602052604083206024358452602052604083209160036040519361233485613db4565b80546001600160a01b0390811686526001820154166020860152600281015460408601520154606084015260c082015115612df15761237c6040830151606084015190613ead565b4210612da05760018060a01b038116845260a16020526040842060243585526020526123e06008604086208681558660018201558660028201558660038201558660048201558660058201558660068201556123da60078201614553565b016145ab565b6001600160a01b03818116855260a26020908152604080872060243588529091528520858155600181018690556002810186905560030185905583511615612d2d57825184906001600160a01b039081169083163b15611fa4576040516323b872dd60e01b8152306004820152602480820192909252903560448201528181606481836001600160a01b0388165af18015612d2257612d0e575b505060208301516040840151835160e0850151610100860151815181516001600160a01b03948516999690941696929591949303612cad576098546040516361fe24a960e11b81526004810185905293988a948a92602090829060249082906001600160a01b03165afa90811561199c578691612c78575b506040519061250082613de2565b6002825260403660208401376097546001600160a01b03168061252284614882565b52609e5460405163e286ef3360e01b81526004810186905290602090829060249082906001600160a01b03165afa908115612b79578991612c3a575b506001600160a01b03166125718461488f565b526001600160a01b036125838461488f565b5116612c21575b6125938361488f565b6001600160a01b039091169052604051906125ad82613de2565b600282526040366020840137609d546040516303fdde1160e21b8152600481018790526001600160a01b0390911690602081602481855afa908115612c16578a91612bde575b5060249160209161260386614882565b526040519283809263470d6ed960e11b82528a60048301525afa908115612b79578991612ba3575b508291849161263c6126439561488f565b528c614f05565b609854604051631446f21360e21b81526001600160a01b03878116600483015260248035908301529091169190602081604481865afa90811561068f578891612b84575b5015612952575b5050609a54604051637a99dc0160e11b81526001600160a01b038681166004830152602480359083015260448201949094529b86938d9350606492849291165af19687156111035783998498612810575b508399849a5b89518c10156127125761270661270c916126ff8e8d61489f565b5190613ead565b9b614873565b9a6126e5565b9a506127298b6127309496989a939597999b6144c0565b9a8a614f05565b84519561273c87614639565b9661274a6040519889613e18565b808852612759601f1991614639565b01366020890137845b865181101561279e5780606461278860ff612780612799958c61489f565b51168d6144ad565b04612793828b61489f565b52614873565b612762565b50919592966127b09498919550614f05565b51815160408084015160609485015182516001600160a01b039586168152938516602085015291830152928101929092526024359216907f9af79c03d71f5375aad271d2d27dc3b4227362c41a7a2ab66072e4e6592e262b90608090a380f35b995096503d988984823e6128248a82613e18565b6040818b810103126109195780516001600160401b0381116110dd578101908a8101601f830112156110dd5781519161285c83614639565b9261286a6040519485613e18565b80845260208401918d840160208360051b830101116105b55760208101925b60208360051b8301018410612932575050505060208101519a6001600160401b038c1161091557808201601f8d8401011215610915578b820151916128cd83614639565b9c6040519d6128dc908f613e18565b8d8481526020019282018460051b82840101602001116105b5579190602083820101925b60208560051b8284010101841061291e5750505050509896386126df565b602080809486518152019401939250612900565b83516001600160a01b03811681036105dd57815260209384019301612889565b90919a6040519261296284613dfd565b60018452602036818601376040519261297a84613dfd565b60018452602036818601376001600160a01b039061299790614882565b51166129a284614882565b52609954604051635dc22eff60e01b8152600481018f905290602090829060249082906001600160a01b03165afa908115612b79578991612b5a575b5015612aab5750609954604051632260494f60e01b8152600481019d909d526020908d9060249082906001600160a01b03165afa9b8c15611a7757879c612a73575b5091612a6b916064612a5060ff8f8b989784612a4184612a4894168b6144ad565b04906144c0565b9f16866144ad565b04612a5a83614882565b52612a6482614882565b518b614f05565b90388061268e565b87949391929c5060203d602011612aa4575b612a8f8183613e18565b8101612a9a916144cd565b9b91909293612a20565b503d612a85565b60405163b28a7bad60e01b81526001600160a01b0388166004820152939c5092939260209150849060249082905afa92831561199c57869360ff918591612b3b575b50169a612afa8c846144ad565b60649004612b0890846144c0565b9b612b1390846144ad565b60649004612b2082614882565b52612b2a81614882565b5191612b36928b614f05565b612a6b565b612b54915060203d60201161196b5761195d8183613e18565b38612aed565b612b73915060203d60201161090e576109008183613e18565b386129de565b6040513d8b823e3d90fd5b612b9d915060203d60201161090e576109008183613e18565b38612687565b985050906020883d602011612bd6575b81612bc060209383613e18565b810103126105b05796518d97919061264361262b565b3d9150612bb3565b9950506020893d602011612c0e575b81612bfa60209383613e18565b810103126105b05797518e989060246125f3565b3d9150612bed565b6040513d8c823e3d90fd5b506001600160a01b03612c338361488f565b511661258a565b90506020813d602011612c70575b81612c5560209383613e18565b81010312612c6c57612c6690613e39565b3861255e565b8880fd5b3d9150612c48565b9550506020853d602011612ca5575b81612c9460209383613e18565b810103126105b0578a9451386124f2565b3d9150612c87565b60405162461bcd60e51b815260206004820152603360248201527f4e756d626572206f662073706c69742061646472657373657320616e642072616044820152723a34b7b99036bab9ba1031329032b8bab0b61760691b6064820152608490fd5b612d1790613dcf565b61091957833861247a565b6040513d84823e3d90fd5b8151909291906001600160a01b039081169084163b156110dd576040516323b872dd60e01b8152306004820152602480820192909252903560448201528481606481836001600160a01b0389165af1801561197257612d8d575b506127b0565b612d9990949194613dcf565b9238612d87565b60405162461bcd60e51b8152602060048201526024808201527f736574746c6541756374696f6e3a3a41756374696f6e20686173206e6f7420656044820152631b99195960e21b6064820152608490fd5b606460405162461bcd60e51b815260206004820152602060248201527f736574746c6541756374696f6e3a3a4e6f2061756374696f6e206578697374736044820152fd5b5060c036600319011261091d57612e4a613c2d565b612e52613c43565b9060a4356001600160401b03811161091957612e75612ebe913690600401613cac565b612e7d6144e6565b604051606085901b6001600160601b03191660208201908152602435603483015261224091612eaf8160548101610b2a565b519020926064359236916147c8565b156138c95760018060a01b038216835260a6602052612ef26064356040852060019160005201602052604060002054151590565b156138665760018060a01b038216835260a760205260408320606435845260205260408320600560405191612f2683613d99565b80546001600160a01b031683526001810154602084015260028101546040840152612f5360038201613ed0565b6060840152612f6460048201613f2a565b6080840152015460a0820152604051606084811b6001600160601b03199081166020840190815260643560348501529185901b166054830152602435606883015290612fb38160888101610b2a565b5190209060018060a01b038416855260a860205260408520606435865260205260408520549180865260a960205282604087205410156137f0576001600160a01b038416865260a1602090815260408088206024358952909152862060060154613791576084351561373d57609854604051637cd11f4360e11b81526001600160a01b0390911690602081600481855afa90811561068f57889161370b575b50608435116136a75760208301516084351061363c576040516331a9108f60e11b81526024803560048301526020908290816001600160a01b038a165afa90811561068f578891613602575b506001600160a01b038781169116036135aa5760a05460405163e985e9c560e01b81526001600160a01b0388811660048301529091166024820152602081806044810103816001600160a01b038a165afa90811561068f57889161358b575b5015613546576020602491604051928380926361fe24a960e11b825260843560048301525afa908115611a77578791613512575b5061314161315191608435613ead565b83516001600160a01b03166149d7565b855260a9602052816040862055604081015160018060a01b0382511660208301516060840151906080850151926040519461318b86613d7d565b60018060a01b038a1686524360208701524260408701526060860152608085015260a08401527fb827bfa0833ec95ae4f99f3f3f227cdb14c204ea3ebc414f5f479aabf742b92860c084015260e083015261010082015260018060a01b038416865260a1602052604086206024358752602052604086209060018060a01b038151166001600160601b0360a01b8354161782556020810151600183015560408101516002830155606081015160038301556004820160018060a01b036080830151166001600160601b0360a01b82541617905560a0810151600583015560c0810151600683015560e08101518051906001600160401b0382116134fe57602060078501916132998484614577565b0190895260208920895b8381106134e157505050506101000151908151906001600160401b03821161055157600860209101926132d683856145d5565b019187526020872090875b8160051c81106134a25750601f1981168103613454575b50509051609854604051638347592160e01b81526001600160a01b0392831693509160209183916004918391165afa801561199c576003918791613435575b506040519261334584613db4565b338452602084019081526040840190608435825260ff606086019316835260018060a01b038716895260a2602052604089206024358a52602052604089209460018060a01b039051166001600160601b0360a01b865416178555600185019060018060a01b039051166001600160601b0360a01b825416179055516002840155519101556133d7602435308585614fe8565b6040519260018060a01b0316835260643560208401526084356040840152606083015233917f98d4c2e28312f55a87c3b4b9eca06fe575a2b0db79bccf976fa9c8863e48db9f60806024359360018060a01b031692a4600160655580f35b61344e915060203d60201161196b5761195d8183613e18565b38613337565b8792885b601f1983168303811061347457505060051c01553880806132f8565b909360206134996001928460ff895116919060ff809160031b9316831b921b19161790565b95019101613458565b88895b602081106134ba5750838201556001016132e1565b855190959160019160209160ff60038a901b81811b199092169216901b17920195016134a5565b82516001600160a01b0316818301556020909201916001016132a3565b634e487b7160e01b89526041600452602489fd5b90506020813d60201161353e575b8161352d60209383613e18565b81010312611a6b5751613141613131565b3d9150613520565b60405162461bcd60e51b815260206004820152601e60248201527f6f776e6572206d757374206861766520617070726f76656420746f6b656e00006044820152606490fd5b6135a4915060203d60201161090e576109008183613e18565b386130fd565b60405162461bcd60e51b815260206004820152602a60248201527f6269645769746841756374696f6e4d65726b6c6550726f6f663a3a4e6f74207460448201526937b5b2b71037bbb732b960b11b6064820152608490fd5b90506020813d602011613634575b8161361d60209383613e18565b810103126105b55761362e90613e39565b3861309e565b3d9150613610565b60405162461bcd60e51b815260206004820152603b60248201527f6269645769746841756374696f6e4d65726b6c6550726f6f663a3a43616e6e6f60448201527f74206265206c6f776572207468616e206d696e696d756d2062696400000000006064820152608490fd5b60405162461bcd60e51b815260206004820152603660248201527f6269645769746841756374696f6e4d65726b6c6550726f6f663a3a4d757374206044820152756265206c657373207468616e206d61782076616c756560501b6064820152608490fd5b90506020813d602011613735575b8161372660209383613e18565b810103126105b5575138613052565b3d9150613719565b60405162461bcd60e51b815260206004820152602660248201527f6269645769746841756374696f6e4d65726b6c6550726f6f663a3a43616e6e6f60448201526507420626520360d41b6064820152608490fd5b60405162461bcd60e51b815260206004820152603160248201527f6269645769746841756374696f6e4d65726b6c6550726f6f663a3a41756374696044820152706f6e20616c72656164792065786973747360781b6064820152608490fd5b60405162461bcd60e51b815260206004820152604260248201527f6269645769746841756374696f6e4d65726b6c6550726f6f663a3a546f6b656e60448201527f20616c7265616479207573656420666f722074686973204d65726b6c6520726f6064820152611bdd60f21b608482015260a490fd5b60405162461bcd60e51b815260206004820152603560248201527f6269645769746841756374696f6e4d65726b6c6550726f6f663a3a4d65726b6c60448201527419481c9bdbdd081b9bdd081c9959da5cdd195c9959605a1b6064820152608490fd5b60405162461bcd60e51b815260206004820152602f60248201527f6269645769746841756374696f6e4d65726b6c6550726f6f663a3a496e76616c60448201526e34b21026b2b935b63290383937b7b360891b6064820152608490fd5b503461091d57602080600319360112611fa4576001600160a01b03613949613c2d565b16825260a681526040822060405192838383549182815201908193835284832090835b8181106139c05750505084613982910385613e18565b60405193838594850191818652518092526040850193925b8281106139a957505050500390f35b83518552869550938101939281019260010161399a565b82548452928601926001928301920161396c565b503461091d57602036600319011261091d5760043560ff8116809103611fa4576139fc613cdc565b60a35580f35b503461091d57604036600319011261091d576001600160a01b039060409082613a29613c2d565b16815260a260205281812060243582526020522090610a588183541691600184015416926003600282015491015490604051948594859092606092959493608083019660018060a01b03809216845216602083015260408201520152565b503461091d578060031936011261091d57602090604051908152f35b503461091d57602036600319011261091d57613abd613cdc565b60043560a55580f35b503461091d578060031936011261091d57602060a454604051908152f35b905034611fa4576040366003190112611fa4576001600160a01b039182613b09613c2d565b16815260209060a1825260408120602435825282526040812092613b2c81613d7d565b848454168152600192613bf5848601549582840196875260028101549060408501918252600381015460608601908152896004830154166080870190815260058301549060a0880191825260068401549260c089019384528c613ba46008613b9660078901613ed0565b9760e08d0198895201613f2a565b9d8e9a6101009b8c82015251169c5196519151925116925193519451956040519c8d52888d015260408c015260608b015260808a015260a089015260c08801526101208060e0890152870190613c6f565b91858303908601528080875193848152019601925b828110613c175785870386f35b835160ff16875295810195928101928401613c0a565b600435906001600160a01b03821682036105b057565b604435906001600160a01b03821682036105b057565b602435906001600160a01b03821682036105b057565b90815180825260208080930193019160005b828110613c8f575050505090565b83516001600160a01b031685529381019392810192600101613c81565b9181601f840112156105b0578235916001600160401b0383116105b0576020808501948460051b0101116105b057565b6033546001600160a01b03163303613cf057565b606460405162461bcd60e51b815260206004820152602060248201527f4f776e61626c653a2063616c6c6572206973206e6f7420746865206f776e65726044820152fd5b603380546001600160a01b039283166001600160a01b0319821681179092559091167f8be0079c531659141344cd1fd0a4f28419497f9722a3daafe3b4186f6b6457e0600080a3565b61012081019081106001600160401b038211176110e157604052565b60c081019081106001600160401b038211176110e157604052565b608081019081106001600160401b038211176110e157604052565b6001600160401b0381116110e157604052565b606081019081106001600160401b038211176110e157604052565b604081019081106001600160401b038211176110e157604052565b90601f801991011681019081106001600160401b038211176110e157604052565b51906001600160a01b03821682036105b057565b15613e5457565b60405162461bcd60e51b815260206004820152602b60248201527f496e697469616c697a61626c653a20636f6e7472616374206973206e6f74206960448201526a6e697469616c697a696e6760a81b6064820152608490fd5b91908201809211613eba57565b634e487b7160e01b600052601160045260246000fd5b9060405191828154918282526020928383019160005283600020936000905b828210613f0757505050613f0592500383613e18565b565b85546001600160a01b031684526001958601958895509381019390910190613eef565b90604051918281549182825260209081830190600052816000206000905b85601f8301106143165794613f0595549184828210614303575b8282106142ed575b8282106142d7575b8282106142c1575b8282106142ac575b828210614296575b828210614280575b82821061426a575b828210614254575b82821061423e575b828210614228575b828210614212575b8282106141fc575b8282106141e6575b8282106141d0575b8282106141ba575b8282106141a4575b82821061418e575b828210614178575b828210614162575b82821061414c575b828210614136575b828210614120575b82821061410a575b8282106140f4575b8282106140de575b8282106140c8575b8282106140b2575b82821061409c575b828210614086575b828210614070575b5010614063575b5090500383613e18565b60f81c8152018038614059565b6001919460ff8560f01c16815201930184614052565b6001919460ff8560e81c1681520193018461404a565b6001919460ff8560e01c16815201930184614042565b6001919460ff8560d81c1681520193018461403a565b6001919460ff8560d01c16815201930184614032565b6001919460ff8560c81c1681520193018461402a565b6001919460ff8560c01c16815201930184614022565b6001919460ff8560b81c1681520193018461401a565b6001919460ff8560b01c16815201930184614012565b6001919460ff8560a81c1681520193018461400a565b6001919460ff8560a01c16815201930184614002565b6001919460ff8560981c16815201930184613ffa565b6001919460ff8560901c16815201930184613ff2565b6001919460ff8560881c16815201930184613fea565b6001919460ff8560801c16815201930184613fe2565b6001919460ff8560781c16815201930184613fda565b6001919460ff8560701c16815201930184613fd2565b6001919460ff8560681c16815201930184613fca565b6001919460ff8560601c16815201930184613fc2565b6001919460ff8560581c16815201930184613fba565b6001919460ff8560501c16815201930184613fb2565b6001919460ff8560481c16815201930184613faa565b6001919460ff8560401c16815201930184613fa2565b6001919460ff8560381c16815201930184613f9a565b6001919460ff8560301c16815201930184613f92565b6001919460ff8560281c16815201930184613f8a565b6001919460ff85831c16815201930184613f82565b6001919460ff8560181c16815201930184613f7a565b6001919460ff8560101c16815201930184613f72565b6001919460ff8560081c16815201930184613f6a565b6001919460ff8516815201930184613f62565b9350916001610400829693865460ff8116825260ff8160081c168583015260ff8160101c16604083015260ff816060828260181c16818601528282608082828c1c1681890152828260a092828260281c16848c0152828260c0988d8a848460301c169101528d60e0848460381c169101528d610100848460401c169101528d610120848460481c169101528d610140848460501c169101528d610160848460581c169101521c166101808c0152828260681c166101a08c0152828260701c166101c08c0152828260781c166101e08c01521c16610200890152828260881c16610220890152828260901c16610240890152828260981c166102608901521c16610280860152828260a81c166102a0860152828260b01c166102c0860152828260b81c166102e08601521c1661030083015260ff8160c81c1661032083015260ff8160d01c1661034083015260ff8160d81c1661036083015260ff8160e01c1661038083015260ff8160e81c166103a083015260ff8160f01c166103c083015260f81c6103e082015201940192018693919492613f48565b81810292918115918404141715613eba57565b91908203918211613eba57565b908160209103126105b0575160ff811681036105b05790565b6002606554146144f7576002606555565b60405162461bcd60e51b815260206004820152601f60248201527f5265656e7472616e637947756172643a207265656e7472616e742063616c6c006044820152606490fd5b818110614547575050565b6000815560010161453c565b80546000825580614562575050565b613f059160005260206000209081019061453c565b90600160401b81116110e15781549080835581811061459557505050565b613f05926000526020600020918201910161453c565b805460008255806145ba575050565b613f0591600052601f6020600020910160051c81019061453c565b90600160401b81116110e15781548183558082106145f257505050565b613f0592600052601f6020600020918180850160051c840194168061461e575b500160051c019061453c565b600019908186019182549160200360031b1c16905538614612565b6001600160401b0381116110e15760051b60200190565b80548210156146685760005260206000200190600090565b634e487b7160e01b600052603260045260246000fd5b60008281526001820160205260409020546146e557805490600160401b8210156110e157826146ce6146b7846001809601855584614650565b819391549060031b91821b91600019901b19161790565b905580549260005201602052604060002055600190565b5050600090565b906001820190600092818452826020526040842054908115156000146147c157600019918083018181116105e1578254908482019182116147ad57808203614778575b50505080548015614764578201916147478383614650565b909182549160031b1b191690555582526020526040812055600190565b634e487b7160e01b86526031600452602486fd5b6147986147886146b79386614650565b90549060031b1c92839286614650565b9055865284602052604086205538808061472f565b634e487b7160e01b88526011600452602488fd5b5050505090565b92916147d382614639565b916147e16040519384613e18565b829481845260208094019160051b81019283116105b057905b8282106148075750505050565b813581529083019083016147fa565b929091906000915b845183101561486b57614831838661489f565b5190600082821015614859575060005260205261485360406000205b92614873565b9161481e565b6040916148539382526020522061484d565b915092501490565b6000198114613eba5760010190565b8051156146685760200190565b8051600110156146685760400190565b80518210156146685760209160051b010190565b908160209103126105b0575180151581036105b05790565b6001600160a01b039081169081156149d257609f54604051636eb1769f60e11b815233600482015291166001600160a01b0316602482015290602090829081806044810103915afa9081156149c657600091614995575b501061492a57565b60405162461bcd60e51b815260206004820152603960248201527f73656e646572206e6565647320746f20617070726f766520455243323041707060448201527f726f76616c4d616e6167657220666f722063757272656e6379000000000000006064820152608490fd5b906020823d82116149be575b816149ae60209383613e18565b8101031261091d57505138614922565b3d91506149a1565b6040513d6000823e3d90fd5b505050565b6001600160a01b0391600091838116908115614bd95734614b83576040938451916370a0823160e01b908184523060048501526020978885602481895afa948515614b79578495614b4a575b50609f541690813b15610919578751630aed65f560e11b81526001600160a01b03919091166004820152336024820152306044820152606481018790529083908290608490829084905af18015614b405790889291614b2d575b50602487518096819382523060048301525afa908115614b225790614af3575b614aa792506144c0565b03614ab0575050565b60649250519062461bcd60e51b82526004820152601c60248201527f6e6f7420656e6f75676820746f6b656e73207472616e736665726564000000006044820152fd5b508482813d8311614b1b575b614b098183613e18565b810103126105b057614aa79151614a9d565b503d614aff565b8551903d90823e3d90fd5b614b3990939193613dcf565b9138614a7d565b87513d85823e3d90fd5b9094508881813d8311614b72575b614b628183613e18565b8101031261091957519338614a23565b503d614b58565b88513d86823e3d90fd5b60405162461bcd60e51b815260206004820152602860248201527f6d73672e76616c75652073686f756c642062652030207768656e206e6f7420756044820152670e6d2dcce40cae8d60c31b6064820152608490fd5b50509150503403614be657565b60405162461bcd60e51b81526020600482015260136024820152721b9bdd08195b9bdd59da08195d1a081cd95b9d606a1b6044820152606490fd5b3d15614c5b573d906001600160401b0382116110e15760405191614c4f601f8201601f191660200184613e18565b82523d6000602084013e565b606090565b6020808252825181830181905290939260005b828110614c9557505060409293506000838284010152601f8019910116010190565b818101860151848201604001528501614c73565b15614cb15750565b60405162461bcd60e51b8152908190614ccd9060048301614c60565b0390fd5b9291908015614d69576064614ce9614cf093836144ad565b0490613ead565b6001600160a01b039290919083168015614d0e57613f059350614d6f565b50609b5460405163410085df60e01b602082019081526001600160a01b03909316602482015260448101849052613f05946000948594939091169291614d578160648101610b2a565b51925af1614d63614c21565b90614ca9565b50505050565b60405163a9059cbb60e01b60208083019182526001600160a01b039490941660248301526044808301959095529381529192614e0892916000908190614db6606486613e18565b60018060a01b03169260405194614dcc86613dfd565b8786527f5361666545524332303a206c6f772d6c6576656c2063616c6c206661696c656488870152519082855af1614e02614c21565b91614e90565b805190828215928315614e78575b50505015614e215750565b6084906040519062461bcd60e51b82526004820152602a60248201527f5361666545524332303a204552433230206f7065726174696f6e20646964206e6044820152691bdd081cdd58d8d9595960b21b6064820152fd5b614e8893508201810191016148b3565b388281614e16565b91929015614ef25750815115614ea4575090565b3b15614ead5790565b60405162461bcd60e51b815260206004820152601d60248201527f416464726573733a2063616c6c20746f206e6f6e2d636f6e74726163740000006044820152606490fd5b825190915015614cb15750805190602001fd5b6001600160a01b0390811694939290918515614f60575060005b8151811015614f585780614f4e84614f3a614f53948661489f565b5116614f46838861489f565b519089614d6f565b614873565b614f1f565b505050509050565b92945090609b5416916040516020614f908183019463c176e63960e01b8652604060248501526064840190613c6f565b82810360231901604484015287518082529082019782019160005b828110614fd45750505050916000939183614d578695613f05989903601f198101835282613e18565b83518a529881019892810192600101614fab565b919060018060a01b0360a0541690813b156105b057604051630aed65f560e11b81526001600160a01b039485166004820152908416602482015291909216604482015260648101929092526000908290608490829084905af180156149c65761504e5750565b613f0590613dcf56fea264697066735822122085e8cad7a36d8f6ecefc5d7560e8a64fda1cb69876ecaca99c7eabb8ff01f0b464736f6c63430008120033","linkReferences":{"src/v2/utils/MarketConfigV2.sol":{"MarketConfigV2":[{"start":3616,"length":20}]}}},"methodIdentifiers":{"COLDIE_AUCTION()":"c90b8714","NO_AUCTION()":"155a56b1","auctionBids(address,uint256)":"299a0e1e","auctionLengthExtension()":"daa26499","bid(address,uint256,address,uint256)":"b5678588","bidWithAuctionMerkleProof(address,uint256,address,bytes32,uint256,bytes32[])":"5060eadf","cancelAuctionMerkleRoot(bytes32)":"ac964f8e","creatorRootToConfig(address,bytes32)":"bb120e66","getAuctionDetails(address,uint256)":"0cd87c68","getCreatorAuctionMerkleRootNonce(address,bytes32)":"e29ac890","getCurrentBid(address,uint256)":"e35ed75a","getMerkleAuctionConfig(address,bytes32)":"76ffb5a7","getTokenAuctionNonce(address,bytes32,address,uint256)":"d97f7657","getUserAuctionMerkleRoots(address)":"4ebade5f","initialize(address,address,address,address,address,address,address,address,address,address)":"c306b378","isTokenInRoot(bytes32,address,uint256,bytes32[])":"5e51b2d4","maxAuctionLength()":"0e519ef9","minimumBidIncreasePercentage()":"6fe9f44c","owner()":"8da5cb5b","registerAuctionMerkleRoot(bytes32,address,uint256,uint256,address[],uint8[])":"f8aa56ee","renounceOwnership()":"715018a6","setAuctionLengthExtension(uint256)":"10f79789","setMaxAuctionLength(uint256)":"affdafd8","setMinimumBidIncreasePercentage(uint8)":"48626b90","settleAuction(address,uint256)":"5138b08c","tokenAuctions(address,uint256)":"c47c35c1","transferOwnership(address)":"f2fde38b"},"id":59}