{"abi":[{"type":"constructor","inputs":[],"stateMutability":"nonpayable"},{"type":"function","name":"MAX_BATCH_SIZE","inputs":[],"outputs":[{"name":"","type":"uint256","internalType":"uint256"}],"stateMutability":"view"},{"type":"function","name":"balanceOf","inputs":[{"name":"account","type":"address","internalType":"address"},{"name":"id","type":"uint256","internalType":"uint256"}],"outputs":[{"name":"","type":"uint256","internalType":"uint256"}],"stateMutability":"view"},{"type":"function","name":"balanceOfBatch","inputs":[{"name":"accounts","type":"address[]","internalType":"address[]"},{"name":"ids","type":"uint256[]","internalType":"uint256[]"}],"outputs":[{"name":"","type":"uint256[]","internalType":"uint256[]"}],"stateMutability":"view"},{"type":"function","name":"burn","inputs":[{"name":"account","type":"address","internalType":"address"},{"name":"id","type":"uint256","internalType":"uint256"},{"name":"value","type":"uint256","internalType":"uint256"}],"outputs":[],"stateMutability":"nonpayable"},{"type":"function","name":"burnBatch","inputs":[{"name":"account","type":"address","internalType":"address"},{"name":"ids","type":"uint256[]","internalType":"uint256[]"},{"name":"values","type":"uint256[]","internalType":"uint256[]"}],"outputs":[],"stateMutability":"nonpayable"},{"type":"function","name":"createToken","inputs":[{"name":"_tokenURI","type":"string","internalType":"string"},{"name":"_maxSupply","type":"uint256","internalType":"uint256"},{"name":"_royaltyReceiver","type":"address","internalType":"address"}],"outputs":[{"name":"","type":"uint256","internalType":"uint256"}],"stateMutability":"nonpayable"},{"type":"function","name":"disableContract","inputs":[],"outputs":[],"stateMutability":"nonpayable"},{"type":"function","name":"disabled","inputs":[],"outputs":[{"name":"","type":"bool","internalType":"bool"}],"stateMutability":"view"},{"type":"function","name":"exists","inputs":[{"name":"id","type":"uint256","internalType":"uint256"}],"outputs":[{"name":"","type":"bool","internalType":"bool"}],"stateMutability":"view"},{"type":"function","name":"init","inputs":[{"name":"_name","type":"string","internalType":"string"},{"name":"_symbol","type":"string","internalType":"string"},{"name":"_baseURI","type":"string","internalType":"string"},{"name":"_creator","type":"address","internalType":"address"},{"name":"_defaultMinter","type":"address","internalType":"address"}],"outputs":[],"stateMutability":"nonpayable"},{"type":"function","name":"isApprovedForAll","inputs":[{"name":"account","type":"address","internalType":"address"},{"name":"operator","type":"address","internalType":"address"}],"outputs":[{"name":"","type":"bool","internalType":"bool"}],"stateMutability":"view"},{"type":"function","name":"isApprovedMinter","inputs":[{"name":"_address","type":"address","internalType":"address"}],"outputs":[{"name":"","type":"bool","internalType":"bool"}],"stateMutability":"view"},{"type":"function","name":"maxSupplyForToken","inputs":[{"name":"_tokenId","type":"uint256","internalType":"uint256"}],"outputs":[{"name":"","type":"uint256","internalType":"uint256"}],"stateMutability":"view"},{"type":"function","name":"mintBatchTo","inputs":[{"name":"_receiver","type":"address","internalType":"address"},{"name":"_tokenIds","type":"uint256[]","internalType":"uint256[]"},{"name":"_amounts","type":"uint256[]","internalType":"uint256[]"}],"outputs":[],"stateMutability":"nonpayable"},{"type":"function","name":"mintTo","inputs":[{"name":"_receiver","type":"address","internalType":"address"},{"name":"_tokenId","type":"uint256","internalType":"uint256"},{"name":"_amount","type":"uint256","internalType":"uint256"}],"outputs":[{"name":"","type":"uint256","internalType":"uint256"}],"stateMutability":"nonpayable"},{"type":"function","name":"name","inputs":[],"outputs":[{"name":"","type":"string","internalType":"string"}],"stateMutability":"view"},{"type":"function","name":"owner","inputs":[],"outputs":[{"name":"","type":"address","internalType":"address"}],"stateMutability":"view"},{"type":"function","name":"renounceOwnership","inputs":[],"outputs":[],"stateMutability":"nonpayable"},{"type":"function","name":"royaltyInfo","inputs":[{"name":"tokenId","type":"uint256","internalType":"uint256"},{"name":"salePrice","type":"uint256","internalType":"uint256"}],"outputs":[{"name":"","type":"address","internalType":"address"},{"name":"","type":"uint256","internalType":"uint256"}],"stateMutability":"view"},{"type":"function","name":"safeBatchTransferFrom","inputs":[{"name":"from","type":"address","internalType":"address"},{"name":"to","type":"address","internalType":"address"},{"name":"ids","type":"uint256[]","internalType":"uint256[]"},{"name":"amounts","type":"uint256[]","internalType":"uint256[]"},{"name":"data","type":"bytes","internalType":"bytes"}],"outputs":[],"stateMutability":"nonpayable"},{"type":"function","name":"safeTransferFrom","inputs":[{"name":"from","type":"address","internalType":"address"},{"name":"to","type":"address","internalType":"address"},{"name":"id","type":"uint256","internalType":"uint256"},{"name":"amount","type":"uint256","internalType":"uint256"},{"name":"data","type":"bytes","internalType":"bytes"}],"outputs":[],"stateMutability":"nonpayable"},{"type":"function","name":"setApprovalForAll","inputs":[{"name":"operator","type":"address","internalType":"address"},{"name":"approved","type":"bool","internalType":"bool"}],"outputs":[],"stateMutability":"nonpayable"},{"type":"function","name":"setDefaultRoyaltyPercentage","inputs":[{"name":"_percentage","type":"uint256","internalType":"uint256"}],"outputs":[],"stateMutability":"nonpayable"},{"type":"function","name":"setDefaultRoyaltyReceiver","inputs":[{"name":"_receiver","type":"address","internalType":"address"}],"outputs":[],"stateMutability":"nonpayable"},{"type":"function","name":"setMinterApproval","inputs":[{"name":"_minter","type":"address","internalType":"address"},{"name":"_isMinter","type":"bool","internalType":"bool"}],"outputs":[],"stateMutability":"nonpayable"},{"type":"function","name":"setRoyaltyReceiverForToken","inputs":[{"name":"_tokenId","type":"uint256","internalType":"uint256"},{"name":"_receiver","type":"address","internalType":"address"}],"outputs":[],"stateMutability":"nonpayable"},{"type":"function","name":"supportsInterface","inputs":[{"name":"_interfaceId","type":"bytes4","internalType":"bytes4"}],"outputs":[{"name":"","type":"bool","internalType":"bool"}],"stateMutability":"view"},{"type":"function","name":"symbol","inputs":[],"outputs":[{"name":"","type":"string","internalType":"string"}],"stateMutability":"view"},{"type":"function","name":"tokenCreator","inputs":[{"name":"_tokenId","type":"uint256","internalType":"uint256"}],"outputs":[{"name":"","type":"address","internalType":"address payable"}],"stateMutability":"view"},{"type":"function","name":"totalMintedForToken","inputs":[{"name":"_tokenId","type":"uint256","internalType":"uint256"}],"outputs":[{"name":"","type":"uint256","internalType":"uint256"}],"stateMutability":"view"},{"type":"function","name":"totalSupply","inputs":[{"name":"id","type":"uint256","internalType":"uint256"}],"outputs":[{"name":"","type":"uint256","internalType":"uint256"}],"stateMutability":"view"},{"type":"function","name":"transferOwnership","inputs":[{"name":"newOwner","type":"address","internalType":"address"}],"outputs":[],"stateMutability":"nonpayable"},{"type":"function","name":"updateTokenURI","inputs":[{"name":"_tokenId","type":"uint256","internalType":"uint256"},{"name":"_tokenURI","type":"string","internalType":"string"}],"outputs":[],"stateMutability":"nonpayable"},{"type":"function","name":"uri","inputs":[{"name":"_tokenId","type":"uint256","internalType":"uint256"}],"outputs":[{"name":"","type":"string","internalType":"string"}],"stateMutability":"view"},{"type":"event","name":"ApprovalForAll","inputs":[{"name":"account","type":"address","indexed":true,"internalType":"address"},{"name":"operator","type":"address","indexed":true,"internalType":"address"},{"name":"approved","type":"bool","indexed":false,"internalType":"bool"}],"anonymous":false},{"type":"event","name":"ContractDisabled","inputs":[{"name":"user","type":"address","indexed":true,"internalType":"address"}],"anonymous":false},{"type":"event","name":"Initialized","inputs":[{"name":"version","type":"uint8","indexed":false,"internalType":"uint8"}],"anonymous":false},{"type":"event","name":"MinterApprovalUpdated","inputs":[{"name":"minter","type":"address","indexed":true,"internalType":"address"},{"name":"isMinter","type":"bool","indexed":false,"internalType":"bool"}],"anonymous":false},{"type":"event","name":"OwnershipTransferred","inputs":[{"name":"previousOwner","type":"address","indexed":true,"internalType":"address"},{"name":"newOwner","type":"address","indexed":true,"internalType":"address"}],"anonymous":false},{"type":"event","name":"TokenCreated","inputs":[{"name":"tokenId","type":"uint256","indexed":true,"internalType":"uint256"},{"name":"creator","type":"address","indexed":true,"internalType":"address"},{"name":"royaltyReceiver","type":"address","indexed":true,"internalType":"address"},{"name":"maxSupply","type":"uint256","indexed":false,"internalType":"uint256"},{"name":"tokenURI","type":"string","indexed":false,"internalType":"string"}],"anonymous":false},{"type":"event","name":"TransferBatch","inputs":[{"name":"operator","type":"address","indexed":true,"internalType":"address"},{"name":"from","type":"address","indexed":true,"internalType":"address"},{"name":"to","type":"address","indexed":true,"internalType":"address"},{"name":"ids","type":"uint256[]","indexed":false,"internalType":"uint256[]"},{"name":"values","type":"uint256[]","indexed":false,"internalType":"uint256[]"}],"anonymous":false},{"type":"event","name":"TransferSingle","inputs":[{"name":"operator","type":"address","indexed":true,"internalType":"address"},{"name":"from","type":"address","indexed":true,"internalType":"address"},{"name":"to","type":"address","indexed":true,"internalType":"address"},{"name":"id","type":"uint256","indexed":false,"internalType":"uint256"},{"name":"value","type":"uint256","indexed":false,"internalType":"uint256"}],"anonymous":false},{"type":"event","name":"URI","inputs":[{"name":"value","type":"string","indexed":false,"internalType":"string"},{"name":"id","type":"uint256","indexed":true,"internalType":"uint256"}],"anonymous":false},{"type":"error","name":"AmountCannotBeZero","inputs":[]},{"type":"error","name":"BatchLengthMismatch","inputs":[]},{"type":"error","name":"BatchSizeExceeded","inputs":[{"name":"supplied","type":"uint256","internalType":"uint256"},{"name":"max","type":"uint256","internalType":"uint256"}]},{"type":"error","name":"CallerCannotMint","inputs":[{"name":"_caller","type":"address","internalType":"address"}]},{"type":"error","name":"ContractIsDisabled","inputs":[]},{"type":"error","name":"EmptyBatch","inputs":[]},{"type":"error","name":"ExceededMaxSupply","inputs":[{"name":"_tokenId","type":"uint256","internalType":"uint256"},{"name":"_requestedTotalMinted","type":"uint256","internalType":"uint256"},{"name":"_maxSupply","type":"uint256","internalType":"uint256"}]},{"type":"error","name":"MaxSupplyCannotBeZero","inputs":[]},{"type":"error","name":"RoyaltyPercentageTooHigh","inputs":[{"name":"supplied","type":"uint256","internalType":"uint256"},{"name":"max","type":"uint256","internalType":"uint256"}]},{"type":"error","name":"TokenDoesNotExist","inputs":[{"name":"_tokenId","type":"uint256","internalType":"uint256"}]},{"type":"error","name":"TokenIdsNotStrictlyAscending","inputs":[{"name":"tokenId","type":"uint256","internalType":"uint256"}]},{"type":"error","name":"ZeroAddressUnsupported","inputs":[]}],"bytecode":{"object":"0x60808060405234620000c6576000549060ff8260081c1662000074575060ff8082160362000038575b60405161345b9081620000cc8239f35b60ff90811916176000557f7f26b83ff96e1f2b6a682f133852f6798a09c465da95921460cefb3847402498602060405160ff8152a13862000028565b62461bcd60e51b815260206004820152602760248201527f496e697469616c697a61626c653a20636f6e747261637420697320696e697469604482015266616c697a696e6760c81b6064820152608490fd5b600080fdfe6080604052600436101561001257600080fd5b60003560e01c8062fdd58e146124a657806301ffc9a7146123ec57806306fdde031461235a5780630de54ba0146122d65780630e89341c146121545780631542bb9514611ec957806318e97fd114611d465780632a55205a14611c985780632baf2acb14611c275780632eb2c2d61461185f5780633512639c146117df5780633a3d146f1461179f5780633ebc82c51461176657806340c1a064146117315780634e1273f4146115935780634f558e79146115655780636b20c4541461131d578063715018a6146112c0578063894ba833146112715780638da5cb5b1461124857806395d89b4114611175578063a22cb4651461109e578063a7eae21c146109f3578063bd85b039146109c7578063c33ae88f1461099a578063cfdbf2541461097e578063e2200a0b146108ad578063e27a41bf1461085d578063e985e9c514610807578063ee070805146107e3578063f242432a1461044d578063f2fde38b146103c0578063f5298aca146101c35763ffd25aa41461019157600080fd5b346101be5760203660031901126101be576004356000526101636020526020604060002054604051908152f35b600080fd5b346101be576101d136612626565b6001600160a01b0390921691903383148015610397575b6101f190612904565b8215926101fe8415612c1e565b61020782612bf9565b9161021184612bf9565b9460006040516102208161254e565b52610343575b60005b83518110156102c45761023c81856128f0565b5161024782886128f0565b51908060005260fb602081815260406000205492848410610280579061027b959493929160005252036040600020556128be565b610229565b60405162461bcd60e51b81526004810183905260286024820152600080516020613406833981519152604482015267616c537570706c7960c01b6064820152608490fd5b60008383878184526097602052604084208385526020528060408520546102ed82821015612c76565b83865260976020526040862085875260205203604085205560405191825260208201527fc3d58168c5ae7397731d063d5bbf3d657854427343f4c083240f7aacaa2d0f6260403392a461034160405161254e565b005b929060005b835181101561038f578061035f61038a92886128f0565b5161036a82876128f0565b5160005260fb6020526103836040600020918254612a20565b90556128be565b610348565b509092610226565b508260005260986020526040600020336000526020526101f160ff6040600020541690506101e8565b346101be5760203660031901126101be576103d96124cd565b6103e1612798565b6001600160a01b038116156103f957610341906127f0565b60405162461bcd60e51b815260206004820152602660248201527f4f776e61626c653a206e6577206f776e657220697320746865207a65726f206160448201526564647265737360d01b6064820152608490fd5b346101be5760a03660031901126101be576104666124cd565b61046e6124e3565b90608480356001600160401b0381116101be5761048f903690600401612719565b6001600160a01b039190838316331480156107b8575b6104ae90612904565b828516156104bc8115612967565b6104c7604435612bf9565b6104d2606435612bf9565b9185871615610778575b6106ca575b505060443560005260209460978652604060002084861660005286526040600020546105116064358210156129c1565b604435600052609787526040600020858716600052875260643590036040600020556044356000526097865260406000208482166000528652604060002061055c6064358254612a20565b905560405160443581526064358782015284821690858716907fc3d58168c5ae7397731d063d5bbf3d657854427343f4c083240f7aacaa2d0f6260403392a4803b6105a357005b60a060006105ed958895604051978896879586938563f23a6e6160e01b9d8e87523360048801521660248601526044356044860152606435606486015284015260a483019061258a565b0393165af16000918161069b575b5061067157505060019061060d612b18565b6308c379a01461063c575b5061061f57005b60405162461bcd60e51b81528061063860048201612ba4565b0390fd5b610644612b36565b90816106505750610618565b61063860405192839262461bcd60e51b84526004840152602483019061258a565b6001600160e01b0319161490506103415760405162461bcd60e51b81528061063860048201612acf565b6106bc919250843d86116106c3575b6106b48183612569565b810190612aaf565b90846105fb565b503d6106aa565b92959194909360005b8451811015610769576106e681866128f0565b51906106f281886128f0565b518260005260fb602052604060002054818110610726576107219360005260fb602052036040600020556128be565b6106d3565b60405162461bcd60e51b81526020600482015260286024820152600080516020613406833981519152604482015267616c537570706c7960c01b60648201528b90fd5b509350939094915085806104e1565b959260009794919592975b86518110156107aa578061079a6107a5928b6128f0565b5161036a828a6128f0565b610783565b5092959691949093966104dc565b5082841660005260986020526040600020336000526020526104ae60ff6040600020541690506104a5565b346101be5760003660031901126101be57602060ff61016154166040519015158152f35b346101be5760403660031901126101be576108206124cd565b6108286124e3565b9060018060a01b03809116600052609860205260406000209116600052602052602060ff604060002054166040519015158152f35b346101be5760203660031901126101be57610876612798565b60ff610161541661089b576101675461034190600435906001600160a01b03166132fb565b604051637abbf1c960e01b8152600490fd5b346101be5760403660031901126101be576004356108c96124e3565b906108d2612798565b60ff610161541661089b578060005261016360205260ff6002604060002001541615610966576001600160a01b0382161561095457806000526101696020526040600020549160648302928084046064149015171561093e576001600160601b0361034193169161324e565b634e487b7160e01b600052601160045260246000fd5b604051637827912560e01b8152600490fd5b6024906040519063c927e5bf60e01b82526004820152fd5b346101be5760003660031901126101be57602060405160648152f35b346101be5760203660031901126101be576004356000526101666020526020604060002054604051908152f35b346101be5760203660031901126101be5760043560005260fb6020526020604060002054604051908152f35b346101be5760a03660031901126101be576004356001600160401b0381116101be57610a239036906004016125f9565b906024356001600160401b0381116101be57610a439036906004016125f9565b6044356001600160401b0381116101be57610a629036906004016125f9565b90929091906064356001600160a01b03811690036101be57608435956001600160a01b03871687036101be576000549560ff8760081c161596878098611091575b801561107a575b1561101e5760ff1981166001176000558761100c575b506064356001600160a01b031615610954576001600160401b038211610e14578190610aee61015f546124f9565b601f8111610f9e575b50600090601f8311600114610f1557600092610f0a575b50508160011b916000199060031b1c19161761015f555b6001600160401b038211610e1457610b3f610160546124f9565b601f8111610ea8575b50600090601f8311600114610e3557610bb39493929160009183610e2a575b50508160011b916000199060031b1c191617610160555b61016160ff198154169055610ba360ff60005460081c16610b9e81612d22565b612d22565b610bac336127f0565b36916126d3565b91610bc960ff60005460081c16610b9e81612d22565b82516001600160401b038111610e1457610be46099546124f9565b601f8111610daf575b506020601f8211600114610d485781929394600092610d3d575b50508160011b916000199060031b1c1916176099555b610c3b60ff60005460081c16610c3281612d22565b610b9e81612d22565b61016780546001600160a01b0319166064356001600160a01b0316179055600a610168556040516103e890602090610c7281612533565b6001600160a01b0360643581168083529290910192909252607d60a31b1761012d558116610ce5575b50610ca76064356127f0565b610cad57005b61ff0019600054166000557f7f26b83ff96e1f2b6a682f133852f6798a09c465da95921460cefb3847402498602060405160018152a1005b6001600160a01b031660008181526101656020908152604091829020805460ff1916600190811790915591519182527f88cb6d0a56ba73e5f130e544fa6649e4173e9051add4f3fc61b46502074b44b591a281610c9b565b015190508480610c07565b601f198216906099600052806000209160005b818110610d9757509583600195969710610d7e575b505050811b01609955610c1d565b015160001960f88460031b161c19169055848080610d70565b9192602060018192868b015181550194019201610d5b565b60996000527f72a152ddfb8e864297c917af52ea6c1c68aead0fee1a62673fcc7e0c94979d00601f830160051c81019160208410610e0a575b601f0160051c01905b818110610dfe5750610bed565b60008155600101610df1565b9091508190610de8565b634e487b7160e01b600052604160045260246000fd5b013590508780610b67565b61016060005260206000209160005b601f1985168110610e905750918391600193610bb3979695601f19811610610e76575b505050811b0161016055610b7e565b0135600019600384901b60f8161c19169055878080610e67565b90926020600181928686013581550194019101610e44565b6101606000527fec7e130cdeeae65215fabbcddb1de429e603c4887cc659532eda903e49339663601f840160051c810160208510610f03575b601f830160051c82018110610ef7575050610b48565b60008155600101610ee1565b5080610ee1565b013590508880610b0e565b61015f600090815293507f8c9815a58669fc89297bdc7dd447c098116f98e79093735c0992d0967b696ed9915b601f1984168510610f86576001945083601f19811610610f6c575b505050811b0161015f55610b25565b0135600019600384901b60f8161c19169055888080610f5d565b81810135835560209485019460019093019201610f42565b61015f6000529091507f8c9815a58669fc89297bdc7dd447c098116f98e79093735c0992d0967b696ed9601f840160051c810160208510611005575b90849392915b601f830160051c82018110610ff6575050610af7565b60008155859450600101610fe0565b5080610fda565b61ffff19166101011760005588610ac0565b60405162461bcd60e51b815260206004820152602e60248201527f496e697469616c697a61626c653a20636f6e747261637420697320616c72656160448201526d191e481a5b9a5d1a585b1a5e995960921b6064820152608490fd5b50303b158015610aaa5750600160ff821614610aaa565b50600160ff821610610aa3565b346101be576110ac366125ca565b6001600160a01b039091169033821461111e573360005260986020526040600020826000526020526110ee8160406000209060ff801983541691151516179055565b60405190151581527f17307eab39ab6107e8899845ad3d59bd9653f200f220920489ca2b5937696c3160203392a3005b60405162461bcd60e51b815260206004820152602960248201527f455243313135353a2073657474696e6720617070726f76616c20737461747573604482015268103337b91039b2b63360b91b6064820152608490fd5b346101be5760003660031901126101be5760405160009061016080549061119b826124f9565b90818452600192838116908160001461122057506001146111df575b6111db846111c781880382612569565b60405191829160208352602083019061258a565b0390f35b90935060005260209283600020916000925b82841061120d57505050816111db936111c792820101936111b7565b80548585018701529285019281016111f1565b6111db96506111c79450602092508593915060ff191682840152151560051b820101936111b7565b346101be5760003660031901126101be576033546040516001600160a01b039091168152602090f35b346101be5760003660031901126101be5761128a612798565b610161805460ff19166001179055337f793bc6423dd0257d64f9d47db72fd4b2162f4541aa41740ba1c5fb5e2cd41bcd600080a2005b346101be5760003660031901126101be576112d9612798565b603380546001600160a01b031981169091556000906001600160a01b03167f8be0079c531659141344cd1fd0a4f28419497f9722a3daafe3b4186f6b6457e08280a3005b346101be5760603660031901126101be576113366124cd565b6024906001600160401b039082358281116101be576113599036906004016126b5565b9160449081359081116101be576113749036906004016126b5565b6001600160a01b0390921692338414801561153c575b61139390612904565b831561139f8115612c1e565b6113ac8251855114612a2d565b60006040516113ba8161254e565b52611504575b60005b815181101561145c576113d681836128f0565b516113e182866128f0565b51908060005260fb60208181526040600020549284841061141a5790611415959493929160005252036040600020556128be565b6113c3565b60405162461bcd60e51b8152600481018390526028818d0152600080516020613406833981519152818a015267616c537570706c7960c01b6064820152608490fd5b83828660005b82518110156114d157806114796114cc92856128f0565b5161148482876128f0565b51908060005260976020908082526040600020876000528252604060002054926114b085851015612c76565b60005281526040600020908660005252036040600020556128be565b611462565b50906000805160206133c68339815191526114f6600094604051918291339583612a8a565b0390a461034160405161254e565b9260009491945b8451811015611532578061152261152d92866128f0565b5161036a82886128f0565b61150b565b50929390936113c0565b5083600052609860205260406000203360005260205261139360ff60406000205416905061138a565b346101be5760203660031901126101be5760043560005260fb60205260206040600020541515604051908152f35b346101be5760403660031901126101be576004356001600160401b038082116101be57366023830112156101be578160040135906115d082612650565b926115de6040519485612569565b82845260209260248486019160051b830101913683116101be57602401905b828210611712575050506024359081116101be5761161f9036906004016126b5565b82518151036116bb5782519261163484612650565b936116426040519586612569565b808552611651601f1991612650565b01368486013760005b81518110156116a45761169f9061168f6001600160a01b0361167c83866128f0565b511661168883876128f0565b5190612839565b61169982886128f0565b526128be565b61165a565b5050506111db604051928284938452830190612764565b60405162461bcd60e51b815260048101839052602960248201527f455243313135353a206163636f756e747320616e6420696473206c656e677468604482015268040dad2e6dac2e8c6d60bb1b6064820152608490fd5b81356001600160a01b03811681036101be5781529084019084016115fd565b346101be5760203660031901126101be57600435600052610164602052602060018060a01b0360406000205416604051908152f35b346101be5760203660031901126101be5761177f6124cd565b611787612798565b60ff610161541661089b5761016854610341916132fb565b346101be5760203660031901126101be576001600160a01b036117c06124cd565b16600052610165602052602060ff604060002054166040519015158152f35b346101be5760603660031901126101be576117f86124cd565b6001600160401b03906024358281116101be57611819903690600401612734565b926044359081116101be57611832903690600401612734565b919060ff610161541661089b5761185161185992610341963691612667565b923691612667565b91612d82565b346101be5760031960a0368201126101be576118796124cd565b906118826124e3565b6044908135926001600160401b03938481116101be576118a69036906004016126b5565b606480358681116101be576118bf9036906004016126b5565b9460849687359081116101be576118da903690600401612719565b6001600160a01b039489861633148015611bfc575b6118f890612904565b6119058551895114612a2d565b858716156119138115612967565b868b1615611bb9575b611b04575b60005b85518110156119b9578061193b6119b492886128f0565b518c611947838d6128f0565b519180600052609790838c6020948486526040600020828216600052865260406000205491611978848410156129c1565b846000528587526040600020911660005285520360406000205560005281526040600020908a8c16600052526103836040600020918254612a20565b611924565b50888a989796949789604051886000805160206133c683398151915289808d16941692806119e987339583612a8a565b0390a4873b6119f457005b60405198899788968863bc197c8160e01b9d8e8a523360048b0152166024890152870160a0905260a48701611a2891612764565b90848783030190870152611a3b91612764565b918483030190840152611a4d9161258a565b03921691815a602094600091f160009181611ae4575b50611abc5750506001611a74612b18565b6308c379a014611a85575b61061f57005b611a8d612b36565b80611a985750611a7f565b60405162461bcd60e51b81526020600482015290819061063890602483019061258a565b6001600160e01b031916146103415760405162461bcd60e51b81528061063860048201612acf565b611afd91925060203d81116106c3576106b48183612569565b9083611a63565b9796949060009993999692965b8551811015611ba957611b2481876128f0565b51611b2f82896128f0565b519080600052602060fb815260406000205491838310611b6857611b639493929160fb9160005252036040600020556128be565b611b11565b508b9067616c537570706c7960c01b8f6000805160206134068339815191528e6040519462461bcd60e51b8652600486015260286024860152840152820152fd5b5090949697989298959195611921565b99969498959392919060005b8a51811015611bed57808b61036a82611be1611be8958f6128f0565b51926128f0565b611bc5565b5090919293959894969961191c565b50858a1660005260986020526040600020336000526020526118f860ff6040600020541690506118ef565b346101be57611c3536612626565b9160ff610161541661089b57602092611c909160405190611c5582612533565b6001825285368184013760405192611c6c84612533565b6001845286368186013785611c80846128cd565b52611c8a846128cd565b52612d82565b604051908152f35b346101be5760403660031901126101be5760243560043560005261012e60205260406000209060405191611ccb83612533565b546001600160a01b0380821680855260a09290921c6020850152929015611d23575b6001600160601b036020820151169182810292818404149015171561093e57604092612710915116918351928352046020820152f35b50604051611d3081612533565b61012d54838116825260a01c6020820152611ced565b346101be5760403660031901126101be576004356001600160401b036024358181116101be57611d7a9036906004016125f9565b9190611d84612798565b60ff610161541661089b57836000526101639160209280845260ff6002604060002001541615611eb057856000528352600180604060002001918511610e1457611dd885611dd284546124f9565b84612cce565b6000601f8611600114611e39579185806000805160206133e683398151915297969593611e2995600093611e2e575b501b906000198760031b1c19161790555b6040519383859485528401916131ce565b0390a2005b85013592508a611e07565b601f1986169083600052856000209160005b818110611e9b57509187969593916000805160206133e683398151915298611e29969410611e81575b505085811b019055611e18565b840135600019600389901b60f8161c191690558880611e74565b86830135845592840192918701918701611e4b565b60405163c927e5bf60e01b815260048101879052602490fd5b346101be5760603660031901126101be576001600160401b036004358181116101be57611efa9036906004016125f9565b6044356001600160a01b0381169190602435908381036101be57611f1c612798565b60ff610161541661089b5781156121425783156109545761016294611f4186546128be565b809655604051966060880188811082821117610e1457604052838852611f683686846126d3565b9760209889820190815260408201906001938483528a6000526101638c526040600020935184558484019151948551918211610e1457611fb282611fac85546124f9565b85612cce565b8c8d601f84116001146120d05750918080926002969594611ffd996000946120c5575b50501b916000199060031b1c19161790555b51151591019060ff801983541691151516179055565b60008681526101648852604080822080546001600160a01b03191633179055610168546101698a529120819055606480820294918015908604909114171561093e576120767fc07473765c308da8ff95c4974c60af7332d93777f002550fa063b77064a6f7b2936001600160601b03899616908661324e565b836000805160206133e68339815191526040518a81528061209a8c82018a886131ce565b0390a26120ba604051928392835260408a840152339660408401916131ce565b0390a4604051908152f35b015192503880611fd5565b9193949596601f1984168660005283600020936000905b82821061212b57505091611ffd989795939185600298969410612112575b505050811b019055611fe7565b015160001960f88460031b161c191690558e8080612105565b8088869782949787015181550196019401906120e7565b604051631dd0e19360e01b8152600490fd5b346101be576020806003193601126101be57600435600052610163815260018060406000200190826040518093600090805490612190826124f9565b808552918681169081156122b55750600114612274575b50506121b592500383612569565b8151156121d35750905b6111db60405192828493845283019061258a565b90506040519060009083609954916121ea836124f9565b9283865285828216918260001461225457505060011461221a575b50505081612214910382612569565b906121bf565b91909250609960005282600020916000925b82841061224157505050820101818385612205565b805486850186015292840192810161222c565b60ff19168482015293151560051b84019092019350859150869050612205565b9091506000528260002090846000925b82841061229e57505050916121b5928201018592876121a7565b805488850187015287945092850192869101612284565b9150506121b594925060ff191682840152151560051b8201018592876121a7565b346101be576122e4366125ca565b906122ed612798565b60ff610161541661089b576001600160a01b03169081156109545760207f88cb6d0a56ba73e5f130e544fa6649e4173e9051add4f3fc61b46502074b44b59183600052610165825261234f8160406000209060ff801983541691151516179055565b6040519015158152a2005b346101be5760003660031901126101be5760405160009061015f805490612380826124f9565b90818452600192838116908160001461122057506001146123ab576111db846111c781880382612569565b90935060005260209283600020916000925b8284106123d957505050816111db936111c792820101936111b7565b80548585018701529285019281016123bd565b346101be5760203660031901126101be5760043563ffffffff60e01b81168091036101be57602090635a08b45360e11b8114908115612495575b8115612438575b506040519015158152f35b63152a902d60e11b811491508115612452575b508261242d565b636cdb3d1360e11b811491508115612484575b8115612473575b508261244b565b6301ffc9a760e01b1490508261246c565b6303a24d0760e21b81149150612465565b631030681960e21b81149150612426565b346101be5760403660031901126101be576020611c906124c46124cd565b60243590612839565b600435906001600160a01b03821682036101be57565b602435906001600160a01b03821682036101be57565b90600182811c92168015612529575b602083101461251357565b634e487b7160e01b600052602260045260246000fd5b91607f1691612508565b604081019081106001600160401b03821117610e1457604052565b602081019081106001600160401b03821117610e1457604052565b90601f801991011681019081106001600160401b03821117610e1457604052565b919082519283825260005b8481106125b6575050826000602080949584010152601f8019910116010190565b602081830181015184830182015201612595565b60409060031901126101be576004356001600160a01b03811681036101be579060243580151581036101be5790565b9181601f840112156101be578235916001600160401b0383116101be57602083818601950101116101be57565b60609060031901126101be576004356001600160a01b03811681036101be57906024359060443590565b6001600160401b038111610e145760051b60200190565b929161267282612650565b916126806040519384612569565b829481845260208094019160051b81019283116101be57905b8282106126a65750505050565b81358152908301908301612699565b9080601f830112156101be578160206126d093359101612667565b90565b9291926001600160401b038211610e1457604051916126fc601f8201601f191660200184612569565b8294818452818301116101be578281602093846000960137010152565b9080601f830112156101be578160206126d0933591016126d3565b9181601f840112156101be578235916001600160401b0383116101be576020808501948460051b0101116101be57565b90815180825260208080930193019160005b828110612784575050505090565b835185529381019392810192600101612776565b6033546001600160a01b031633036127ac57565b606460405162461bcd60e51b815260206004820152602060248201527f4f776e61626c653a2063616c6c6572206973206e6f7420746865206f776e65726044820152fd5b603380546001600160a01b039283166001600160a01b0319821681179092559091167f8be0079c531659141344cd1fd0a4f28419497f9722a3daafe3b4186f6b6457e0600080a3565b6001600160a01b031690811561286657600052609760205260406000209060005260205260406000205490565b60405162461bcd60e51b815260206004820152602a60248201527f455243313135353a2061646472657373207a65726f206973206e6f742061207660448201526930b634b21037bbb732b960b11b6064820152608490fd5b600019811461093e5760010190565b8051156128da5760200190565b634e487b7160e01b600052603260045260246000fd5b80518210156128da5760209160051b010190565b1561290b57565b60405162461bcd60e51b815260206004820152602e60248201527f455243313135353a2063616c6c6572206973206e6f7420746f6b656e206f776e60448201526d195c881bdc88185c1c1c9bdd995960921b6064820152608490fd5b1561296e57565b60405162461bcd60e51b815260206004820152602560248201527f455243313135353a207472616e7366657220746f20746865207a65726f206164604482015264647265737360d81b6064820152608490fd5b156129c857565b60405162461bcd60e51b815260206004820152602a60248201527f455243313135353a20696e73756666696369656e742062616c616e636520666f60448201526939103a3930b739b332b960b11b6064820152608490fd5b9190820180921161093e57565b15612a3457565b60405162461bcd60e51b815260206004820152602860248201527f455243313135353a2069647320616e6420616d6f756e7473206c656e677468206044820152670dad2e6dac2e8c6d60c31b6064820152608490fd5b9091612aa16126d093604084526040840190612764565b916020818403910152612764565b908160209103126101be57516001600160e01b0319811681036101be5790565b60809060208152602860208201527f455243313135353a204552433131353552656365697665722072656a656374656040820152676420746f6b656e7360c01b60608201520190565b60009060033d11612b2557565b905060046000803e60005160e01c90565b600060443d106126d057604051600319913d83016004833e81516001600160401b03918282113d602484011117612b9357818401948551938411612b9b573d85010160208487010111612b9357506126d092910160200190612569565b949350505050565b50949350505050565b60809060208152603460208201527f455243313135353a207472616e7366657220746f206e6f6e2d455243313135356040820152732932b1b2b4bb32b91034b6b83632b6b2b73a32b960611b60608201520190565b60405190612c0682612533565b6001825260203681840137612c1a826128cd565b5290565b15612c2557565b60405162461bcd60e51b815260206004820152602360248201527f455243313135353a206275726e2066726f6d20746865207a65726f206164647260448201526265737360e81b6064820152608490fd5b15612c7d57565b60405162461bcd60e51b8152602060048201526024808201527f455243313135353a206275726e20616d6f756e7420657863656564732062616c604482015263616e636560e01b6064820152608490fd5b90601f8111612cdc57505050565b600091825260208220906020601f850160051c83019410612d18575b601f0160051c01915b828110612d0d57505050565b818155600101612d01565b9092508290612cf8565b15612d2957565b60405162461bcd60e51b815260206004820152602b60248201527f496e697469616c697a61626c653a20636f6e7472616374206973206e6f74206960448201526a6e697469616c697a696e6760a81b6064820152608490fd5b90916001600160a01b0380831692919083156109545760335416331415806131b4575b61319c5783511561318a5783518151036131785783519260649384811161315a575060015b8551811015612e4057612ddd81876128f0565b516000198201828111612e2b57612df490886128f0565b511015612e0957612e04906128be565b612dca565b612e15602491876128f0565b5160405190636a671dfb60e11b82526004820152fd5b60246000634e487b7160e01b81526011600452fd5b509493909192946000945b8251861015612f3257612e5e86846128f0565b519586600052610163602081815260409060ff60028360002001541615612f1a57612e8984896128f0565b5115612f09578960005261016690818152612eb38360002054612eac878c6128f0565b5190612a20565b938b60005281528260002054808511612ee75750612edd95969798999a60005252600020556128be565b9493929190612e4b565b8b8d9186865192630d6f5ed560e11b8452600484015260248301526044820152fd5b815163d11b25af60e01b8152600490fd5b815163c927e5bf60e01b8152600481018b9052602490fd5b92919390959450604092835195612f488761254e565b60008752612f598651855114612a2d565b60005b8651811015612f9b5780612f73612f9692876128f0565b51612f7e828a6128f0565b5160005260fb60205261038388600020918254612a20565b612f5c565b5090919560005b8651811015612fec5780612fb9612fe792876128f0565b51612fc4828a6128f0565b5160005260206097815288600020908c6000525261038388600020918254612a20565b612fa2565b50919690939581600088516000805160206133c68339815191523391806130148a8d83612a8a565b0390a43b613025575b505050505050565b613078600060209461308789519788968795869461306563bc197c8160e01b9d8e885233600489015288602489015260a0604489015260a4880190612764565b9060031994858884030190880152612764565b9184830301608485015261258a565b03925af16000918161313a575b5061310e57505060016130a5612b18565b6308c379a0146130d8575b6130c157505b38808080808061301d565b5162461bcd60e51b81528061063860048201612ba4565b6130e0612b36565b806130eb57506130b0565b825162461bcd60e51b81526020600482015290819061063890602483019061258a565b6001600160e01b0319160361312357506130b6565b5162461bcd60e51b81528061063860048201612acf565b61315391925060203d81116106c3576106b48183612569565b9038613094565b604490856040519163f80a484560e01b835260048301526024820152fd5b6040516305f8ded760e21b8152600490fd5b60405163c2e5347d60e01b8152600490fd5b60405163fc8b94cd60e01b8152336004820152602490fd5b503360005261016560205260ff6040600020541615612da5565b908060209392818452848401376000828201840152601f01601f1916010190565b156131f657565b60405162461bcd60e51b815260206004820152602a60248201527f455243323938313a20726f79616c7479206665652077696c6c206578636565646044820152692073616c65507269636560b01b6064820152608490fd5b916001600160601b0316906132676127108311156131ef565b6001600160a01b039081169283156132b6576040519361328685612533565b84526020808501938452600091825261012e9052604090209251915160a01b6001600160a01b0319169116179055565b60405162461bcd60e51b815260206004820152601b60248201527f455243323938313a20496e76616c696420706172616d657465727300000000006044820152606490fd5b6001600160a01b039081169190821561095457606482116133a55760018060a01b0319926101678185825416179055826101685560648302928084046064149015171561093e57613393906001600160601b03841661335e6127108211156131ef565b602060405161336c81612533565b838152015261012d80546001600160a01b0319166001600160a01b03909216919091179055565b61012d9283549260a01b169116179055565b604051637bbc1b3760e11b81526004810183905260646024820152604490fdfe4a39dc06d4c0dbc64b70af90fd698a233a518aa5d07e595d983b8c0526c8f7fb6bb7ff708619ba0610cba295a58592e0451dee2622938c8755667688daf3529b455243313135353a206275726e20616d6f756e74206578636565647320746f74a264697066735822122001030b56bac864e3c45775298dbf75a049d5a3f7a1d8935274d02f6fee2ad0f764736f6c63430008120033","linkReferences":{}},"methodIdentifiers":{"MAX_BATCH_SIZE()":"cfdbf254","balanceOf(address,uint256)":"00fdd58e","balanceOfBatch(address[],uint256[])":"4e1273f4","burn(address,uint256,uint256)":"f5298aca","burnBatch(address,uint256[],uint256[])":"6b20c454","createToken(string,uint256,address)":"1542bb95","disableContract()":"894ba833","disabled()":"ee070805","exists(uint256)":"4f558e79","init(string,string,string,address,address)":"a7eae21c","isApprovedForAll(address,address)":"e985e9c5","isApprovedMinter(address)":"3a3d146f","maxSupplyForToken(uint256)":"ffd25aa4","mintBatchTo(address,uint256[],uint256[])":"3512639c","mintTo(address,uint256,uint256)":"2baf2acb","name()":"06fdde03","owner()":"8da5cb5b","renounceOwnership()":"715018a6","royaltyInfo(uint256,uint256)":"2a55205a","safeBatchTransferFrom(address,address,uint256[],uint256[],bytes)":"2eb2c2d6","safeTransferFrom(address,address,uint256,uint256,bytes)":"f242432a","setApprovalForAll(address,bool)":"a22cb465","setDefaultRoyaltyPercentage(uint256)":"e27a41bf","setDefaultRoyaltyReceiver(address)":"3ebc82c5","setMinterApproval(address,bool)":"0de54ba0","setRoyaltyReceiverForToken(uint256,address)":"e2200a0b","supportsInterface(bytes4)":"01ffc9a7","symbol()":"95d89b41","tokenCreator(uint256)":"40c1a064","totalMintedForToken(uint256)":"c33ae88f","totalSupply(uint256)":"bd85b039","transferOwnership(address)":"f2fde38b","updateTokenURI(uint256,string)":"18e97fd1","uri(uint256)":"0e89341c"},"id":15}