{"abi":[{"type":"constructor","inputs":[],"stateMutability":"nonpayable"},{"type":"function","name":"createRareERC1155Contract","inputs":[{"name":"_name","type":"string","internalType":"string"},{"name":"_symbol","type":"string","internalType":"string"},{"name":"_baseURI","type":"string","internalType":"string"}],"outputs":[{"name":"","type":"address","internalType":"address"}],"stateMutability":"nonpayable"},{"type":"function","name":"defaultMinter","inputs":[],"outputs":[{"name":"","type":"address","internalType":"address"}],"stateMutability":"view"},{"type":"function","name":"owner","inputs":[],"outputs":[{"name":"","type":"address","internalType":"address"}],"stateMutability":"view"},{"type":"function","name":"rareERC1155","inputs":[],"outputs":[{"name":"","type":"address","internalType":"address"}],"stateMutability":"view"},{"type":"function","name":"renounceOwnership","inputs":[],"outputs":[],"stateMutability":"nonpayable"},{"type":"function","name":"setDefaultMinter","inputs":[{"name":"_defaultMinter","type":"address","internalType":"address"}],"outputs":[],"stateMutability":"nonpayable"},{"type":"function","name":"setRareERC1155","inputs":[{"name":"_rareERC1155","type":"address","internalType":"address"}],"outputs":[],"stateMutability":"nonpayable"},{"type":"function","name":"transferOwnership","inputs":[{"name":"newOwner","type":"address","internalType":"address"}],"outputs":[],"stateMutability":"nonpayable"},{"type":"event","name":"DefaultMinterUpdated","inputs":[{"name":"defaultMinter","type":"address","indexed":true,"internalType":"address"}],"anonymous":false},{"type":"event","name":"OwnershipTransferred","inputs":[{"name":"previousOwner","type":"address","indexed":true,"internalType":"address"},{"name":"newOwner","type":"address","indexed":true,"internalType":"address"}],"anonymous":false},{"type":"event","name":"RareERC1155ContractCreated","inputs":[{"name":"contractAddress","type":"address","indexed":true,"internalType":"address"},{"name":"owner","type":"address","indexed":true,"internalType":"address"}],"anonymous":false},{"type":"event","name":"RareERC1155Updated","inputs":[{"name":"rareERC1155","type":"address","indexed":true,"internalType":"address"}],"anonymous":false},{"type":"error","name":"ZeroAddressUnsupported","inputs":[]}],"bytecode":{"object":"0x608080604052346100b95760008054336001600160a01b031980831682178455936001600160a01b03939290919084167f8be0079c531659141344cd1fd0a4f28419497f9722a3daafe3b4186f6b6457e08480a36134b4818101906001600160401b038211838310176100a5579082916106a08339039082f09081156100995750169060015416176001556040516105e190816100bf8239f35b604051903d90823e3d90fd5b634e487b7160e01b84526041600452602484fd5b600080fdfe608060408181526004908136101561001657600080fd5b600092833560e01c908163014812a2146104da5750806318cf6f4214610473578063389dee181461044a578063715018a6146103ed5780638667f619146101f85780638da5cb5b146101cc578063e2be1a081461014a5763f2fde38b1461007c57600080fd5b34610146576020366003190112610146576001600160a01b03823581811693919290849003610142576100ad610532565b83156100f05750506000548260018060a01b0319821617600055167f8be0079c531659141344cd1fd0a4f28419497f9722a3daafe3b4186f6b6457e0600080a380f35b906020608492519162461bcd60e51b8352820152602660248201527f4f776e61626c653a206e6577206f776e657220697320746865207a65726f206160448201526564647265737360d01b6064820152fd5b8480fd5b8280fd5b5090346101465760203660031901126101465780356001600160a01b03811692908390036101c85761017a610532565b82156101bb575050600180546001600160a01b031916821790557fe329ca164c11428fa5ee865054c08ccee6f2d38eda61e9e6a35b3081a472daed8280a280f35b51637827912560e01b8152fd5b8380fd5b8382346101f457816003193601126101f457905490516001600160a01b039091168152602090f35b5080fd5b508290346101f457600319906060368301126101465767ffffffffffffffff84358181116101425761022d90369087016104ff565b91906024358281116103e95761024690369089016104ff565b95906044358481116103e55761025f9036908b016104ff565b600154608881901c62ffffff16763d602d80600a3d3981f3363d3d373d3d3d363d73000000178b5260781b6001600160781b0319166e5af43d82803e903d91602b57fd5bf3176020526001600160a01b039890929089603760098df016998a156103a95760025416958a3b156103a557938b9693610313610322948f979461030360a09a968f519e8f9c8d9c8d6329fab88760e21b90528d015260a48c019161058a565b91868a84030160248b015261058a565b9286840301604487015261058a565b903360648401526084830152038183885af1801561039b57610371575b5050602093505191817f0c069e30a19668076937a9266318f1876e9c7dabdae788aaad8f5c73599aea89339280a38152f35b81949294116103885760209450835291848061033f565b634e487b7160e01b825260418552602482fd5b83513d87823e3d90fd5b8b80fd5b895162461bcd60e51b81526020818f01526016602482015275115490cc4c4d8dce8818dc99585d194819985a5b195960521b6044820152606490fd5b8880fd5b8680fd5b8334610447578060031936011261044757610406610532565b80546001600160a01b03198116825581906001600160a01b03167f8be0079c531659141344cd1fd0a4f28419497f9722a3daafe3b4186f6b6457e08280a380f35b80fd5b8382346101f457816003193601126101f45760025490516001600160a01b039091168152602090f35b5050346101f45760203660031901126101f457356001600160a01b038116908190036101f4576104a1610532565b600280546001600160a01b031916821790557feedfae894237292077aa1e4fcca7f9a0a2aabeda165c2ff69a08cfd365d7c9eb8280a280f35b8490346101f457816003193601126101f4576001546001600160a01b03168152602090f35b9181601f8401121561052d5782359167ffffffffffffffff831161052d576020838186019501011161052d57565b600080fd5b6000546001600160a01b0316330361054657565b606460405162461bcd60e51b815260206004820152602060248201527f4f776e61626c653a2063616c6c6572206973206e6f7420746865206f776e65726044820152fd5b908060209392818452848401376000828201840152601f01601f191601019056fea2646970667358221220ff62dca80cdce8473d494dba0fd3a6a7ffc989199cf8279631d73e5afb606f9b64736f6c6343000812003360808060405234620000c6576000549060ff8260081c1662000074575060ff8082160362000038575b6040516133e89081620000cc8239f35b60ff90811916176000557f7f26b83ff96e1f2b6a682f133852f6798a09c465da95921460cefb3847402498602060405160ff8152a13862000028565b62461bcd60e51b815260206004820152602760248201527f496e697469616c697a61626c653a20636f6e747261637420697320696e697469604482015266616c697a696e6760c81b6064820152608490fd5b600080fdfe6080604052600436101561001257600080fd5b60003560e01c8062fdd58e1461244157806301ffc9a71461238757806306fdde03146122f55780630de54ba0146122715780630e89341c146120ef5780631542bb9514611e7957806318e97fd114611cf65780632a55205a14611c485780632baf2acb14611bd75780632eb2c2d61461180f5780633512639c1461178f5780633a3d146f1461174f5780633ebc82c51461171657806340c1a064146116ed5780634e1273f41461154f5780634f558e79146115215780636b20c454146112d9578063715018a6146112c0578063894ba833146112715780638da5cb5b1461124857806395d89b4114611175578063a22cb4651461109e578063a7eae21c146109f3578063bd85b039146109c7578063c33ae88f1461099a578063cfdbf2541461097e578063e2200a0b146108ad578063e27a41bf1461085d578063e985e9c514610807578063ee070805146107e3578063f242432a1461044d578063f2fde38b146103c0578063f5298aca146101c35763ffd25aa41461019157600080fd5b346101be5760203660031901126101be576004356000526101636020526020604060002054604051908152f35b600080fd5b346101be576101d1366125c1565b6001600160a01b0390921691903383148015610397575b6101f19061289f565b8215926101fe8415612bb9565b61020782612b94565b9161021184612b94565b946000604051610220816124e9565b52610343575b60005b83518110156102c45761023c818561288b565b51610247828861288b565b51908060005260fb602081815260406000205492848410610280579061027b95949392916000525203604060002055612859565b610229565b60405162461bcd60e51b81526004810183905260286024820152600080516020613393833981519152604482015267616c537570706c7960c01b6064820152608490fd5b60008383878184526097602052604084208385526020528060408520546102ed82821015612c11565b83865260976020526040862085875260205203604085205560405191825260208201527fc3d58168c5ae7397731d063d5bbf3d657854427343f4c083240f7aacaa2d0f6260403392a46103416040516124e9565b005b929060005b835181101561038f578061035f61038a928861288b565b5161036a828761288b565b5160005260fb60205261038360406000209182546129bb565b9055612859565b610348565b509092610226565b508260005260986020526040600020336000526020526101f160ff6040600020541690506101e8565b346101be5760203660031901126101be576103d9612468565b6103e1612733565b6001600160a01b038116156103f9576103419061278b565b60405162461bcd60e51b815260206004820152602660248201527f4f776e61626c653a206e6577206f776e657220697320746865207a65726f206160448201526564647265737360d01b6064820152608490fd5b346101be5760a03660031901126101be57610466612468565b61046e61247e565b90608480356001600160401b0381116101be5761048f9036906004016126b4565b6001600160a01b039190838316331480156107b8575b6104ae9061289f565b828516156104bc8115612902565b6104c7604435612b94565b6104d2606435612b94565b9185871615610778575b6106ca575b5050604435600052602094609786526040600020848616600052865260406000205461051160643582101561295c565b604435600052609787526040600020858716600052875260643590036040600020556044356000526097865260406000208482166000528652604060002061055c60643582546129bb565b905560405160443581526064358782015284821690858716907fc3d58168c5ae7397731d063d5bbf3d657854427343f4c083240f7aacaa2d0f6260403392a4803b6105a357005b60a060006105ed958895604051978896879586938563f23a6e6160e01b9d8e87523360048801521660248601526044356044860152606435606486015284015260a4830190612525565b0393165af16000918161069b575b5061067157505060019061060d612ab3565b6308c379a01461063c575b5061061f57005b60405162461bcd60e51b81528061063860048201612b3f565b0390fd5b610644612ad1565b90816106505750610618565b61063860405192839262461bcd60e51b845260048401526024830190612525565b6001600160e01b0319161490506103415760405162461bcd60e51b81528061063860048201612a6a565b6106bc919250843d86116106c3575b6106b48183612504565b810190612a4a565b90846105fb565b503d6106aa565b92959194909360005b8451811015610769576106e6818661288b565b51906106f2818861288b565b518260005260fb602052604060002054818110610726576107219360005260fb60205203604060002055612859565b6106d3565b60405162461bcd60e51b81526020600482015260286024820152600080516020613393833981519152604482015267616c537570706c7960c01b60648201528b90fd5b509350939094915085806104e1565b959260009794919592975b86518110156107aa578061079a6107a5928b61288b565b5161036a828a61288b565b610783565b5092959691949093966104dc565b5082841660005260986020526040600020336000526020526104ae60ff6040600020541690506104a5565b346101be5760003660031901126101be57602060ff61016154166040519015158152f35b346101be5760403660031901126101be57610820612468565b61082861247e565b9060018060a01b03809116600052609860205260406000209116600052602052602060ff604060002054166040519015158152f35b346101be5760203660031901126101be57610876612733565b60ff610161541661089b576101665461034190600435906001600160a01b0316613288565b604051637abbf1c960e01b8152600490fd5b346101be5760403660031901126101be576004356108c961247e565b906108d2612733565b60ff610161541661089b578060005261016360205260ff6002604060002001541615610966576001600160a01b0382161561095457806000526101686020526040600020549160648302928084046064149015171561093e576001600160601b036103419316916131db565b634e487b7160e01b600052601160045260246000fd5b604051637827912560e01b8152600490fd5b6024906040519063c927e5bf60e01b82526004820152fd5b346101be5760003660031901126101be57602060405160648152f35b346101be5760203660031901126101be576004356000526101656020526020604060002054604051908152f35b346101be5760203660031901126101be5760043560005260fb6020526020604060002054604051908152f35b346101be5760a03660031901126101be576004356001600160401b0381116101be57610a23903690600401612594565b906024356001600160401b0381116101be57610a43903690600401612594565b6044356001600160401b0381116101be57610a62903690600401612594565b90929091906064356001600160a01b03811690036101be57608435956001600160a01b03871687036101be576000549560ff8760081c161596878098611091575b801561107a575b1561101e5760ff1981166001176000558761100c575b506064356001600160a01b031615610954576001600160401b038211610e14578190610aee61015f54612494565b601f8111610f9e575b50600090601f8311600114610f1557600092610f0a575b50508160011b916000199060031b1c19161761015f555b6001600160401b038211610e1457610b3f61016054612494565b601f8111610ea8575b50600090601f8311600114610e3557610bb39493929160009183610e2a575b50508160011b916000199060031b1c191617610160555b61016160ff198154169055610ba360ff60005460081c16610b9e81612cbd565b612cbd565b610bac3361278b565b369161266e565b91610bc960ff60005460081c16610b9e81612cbd565b82516001600160401b038111610e1457610be4609954612494565b601f8111610daf575b506020601f8211600114610d485781929394600092610d3d575b50508160011b916000199060031b1c1916176099555b610c3b60ff60005460081c16610c3281612cbd565b610b9e81612cbd565b61016680546001600160a01b0319166064356001600160a01b0316179055600a610167556040516103e890602090610c72816124ce565b6001600160a01b0360643581168083529290910192909252607d60a31b1761012d558116610ce5575b50610ca760643561278b565b610cad57005b61ff0019600054166000557f7f26b83ff96e1f2b6a682f133852f6798a09c465da95921460cefb3847402498602060405160018152a1005b6001600160a01b031660008181526101646020908152604091829020805460ff1916600190811790915591519182527f88cb6d0a56ba73e5f130e544fa6649e4173e9051add4f3fc61b46502074b44b591a281610c9b565b015190508480610c07565b601f198216906099600052806000209160005b818110610d9757509583600195969710610d7e575b505050811b01609955610c1d565b015160001960f88460031b161c19169055848080610d70565b9192602060018192868b015181550194019201610d5b565b60996000527f72a152ddfb8e864297c917af52ea6c1c68aead0fee1a62673fcc7e0c94979d00601f830160051c81019160208410610e0a575b601f0160051c01905b818110610dfe5750610bed565b60008155600101610df1565b9091508190610de8565b634e487b7160e01b600052604160045260246000fd5b013590508780610b67565b61016060005260206000209160005b601f1985168110610e905750918391600193610bb3979695601f19811610610e76575b505050811b0161016055610b7e565b0135600019600384901b60f8161c19169055878080610e67565b90926020600181928686013581550194019101610e44565b6101606000527fec7e130cdeeae65215fabbcddb1de429e603c4887cc659532eda903e49339663601f840160051c810160208510610f03575b601f830160051c82018110610ef7575050610b48565b60008155600101610ee1565b5080610ee1565b013590508880610b0e565b61015f600090815293507f8c9815a58669fc89297bdc7dd447c098116f98e79093735c0992d0967b696ed9915b601f1984168510610f86576001945083601f19811610610f6c575b505050811b0161015f55610b25565b0135600019600384901b60f8161c19169055888080610f5d565b81810135835560209485019460019093019201610f42565b61015f6000529091507f8c9815a58669fc89297bdc7dd447c098116f98e79093735c0992d0967b696ed9601f840160051c810160208510611005575b90849392915b601f830160051c82018110610ff6575050610af7565b60008155859450600101610fe0565b5080610fda565b61ffff19166101011760005588610ac0565b60405162461bcd60e51b815260206004820152602e60248201527f496e697469616c697a61626c653a20636f6e747261637420697320616c72656160448201526d191e481a5b9a5d1a585b1a5e995960921b6064820152608490fd5b50303b158015610aaa5750600160ff821614610aaa565b50600160ff821610610aa3565b346101be576110ac36612565565b6001600160a01b039091169033821461111e573360005260986020526040600020826000526020526110ee8160406000209060ff801983541691151516179055565b60405190151581527f17307eab39ab6107e8899845ad3d59bd9653f200f220920489ca2b5937696c3160203392a3005b60405162461bcd60e51b815260206004820152602960248201527f455243313135353a2073657474696e6720617070726f76616c20737461747573604482015268103337b91039b2b63360b91b6064820152608490fd5b346101be5760003660031901126101be5760405160009061016080549061119b82612494565b90818452600192838116908160001461122057506001146111df575b6111db846111c781880382612504565b604051918291602083526020830190612525565b0390f35b90935060005260209283600020916000925b82841061120d57505050816111db936111c792820101936111b7565b80548585018701529285019281016111f1565b6111db96506111c79450602092508593915060ff191682840152151560051b820101936111b7565b346101be5760003660031901126101be576033546040516001600160a01b039091168152602090f35b346101be5760003660031901126101be5761128a612733565b610161805460ff19166001179055337f793bc6423dd0257d64f9d47db72fd4b2162f4541aa41740ba1c5fb5e2cd41bcd600080a2005b346101be5760003660031901126101be57610954612733565b346101be5760603660031901126101be576112f2612468565b6024906001600160401b039082358281116101be57611315903690600401612650565b9160449081359081116101be57611330903690600401612650565b6001600160a01b039092169233841480156114f8575b61134f9061289f565b831561135b8115612bb9565b61136882518551146129c8565b6000604051611376816124e9565b526114c0575b60005b815181101561141857611392818361288b565b5161139d828661288b565b51908060005260fb6020818152604060002054928484106113d657906113d195949392916000525203604060002055612859565b61137f565b60405162461bcd60e51b8152600481018390526028818d0152600080516020613393833981519152818a015267616c537570706c7960c01b6064820152608490fd5b83828660005b825181101561148d5780611435611488928561288b565b51611440828761288b565b519080600052609760209080825260406000208760005282526040600020549261146c85851015612c11565b6000528152604060002090866000525203604060002055612859565b61141e565b50906000805160206133538339815191526114b2600094604051918291339583612a25565b0390a46103416040516124e9565b9260009491945b84518110156114ee57806114de6114e9928661288b565b5161036a828861288b565b6114c7565b509293909361137c565b5083600052609860205260406000203360005260205261134f60ff604060002054169050611346565b346101be5760203660031901126101be5760043560005260fb60205260206040600020541515604051908152f35b346101be5760403660031901126101be576004356001600160401b038082116101be57366023830112156101be5781600401359061158c826125eb565b9261159a6040519485612504565b82845260209260248486019160051b830101913683116101be57602401905b8282106116ce575050506024359081116101be576115db903690600401612650565b8251815103611677578251926115f0846125eb565b936115fe6040519586612504565b80855261160d601f19916125eb565b01368486013760005b81518110156116605761165b9061164b6001600160a01b03611638838661288b565b5116611644838761288b565b51906127d4565b611655828861288b565b52612859565b611616565b5050506111db6040519282849384528301906126ff565b60405162461bcd60e51b815260048101839052602960248201527f455243313135353a206163636f756e747320616e6420696473206c656e677468604482015268040dad2e6dac2e8c6d60bb1b6064820152608490fd5b81356001600160a01b03811681036101be5781529084019084016115b9565b346101be5760203660031901126101be576033546040516001600160a01b039091168152602090f35b346101be5760203660031901126101be5761172f612468565b611737612733565b60ff610161541661089b576101675461034191613288565b346101be5760203660031901126101be576001600160a01b03611770612468565b16600052610164602052602060ff604060002054166040519015158152f35b346101be5760603660031901126101be576117a8612468565b6001600160401b03906024358281116101be576117c99036906004016126cf565b926044359081116101be576117e29036906004016126cf565b919060ff610161541661089b5761180161180992610341963691612602565b923691612602565b91612d1d565b346101be5760031960a0368201126101be57611829612468565b9061183261247e565b6044908135926001600160401b03938481116101be57611856903690600401612650565b606480358681116101be5761186f903690600401612650565b9460849687359081116101be5761188a9036906004016126b4565b6001600160a01b039489861633148015611bac575b6118a89061289f565b6118b585518951146129c8565b858716156118c38115612902565b868b1615611b69575b611ab4575b60005b855181101561196957806118eb611964928861288b565b518c6118f7838d61288b565b519180600052609790838c60209484865260406000208282166000528652604060002054916119288484101561295c565b846000528587526040600020911660005285520360406000205560005281526040600020908a8c166000525261038360406000209182546129bb565b6118d4565b50888a9897969497896040518860008051602061335383398151915289808d169416928061199987339583612a25565b0390a4873b6119a457005b60405198899788968863bc197c8160e01b9d8e8a523360048b0152166024890152870160a0905260a487016119d8916126ff565b908487830301908701526119eb916126ff565b9184830301908401526119fd91612525565b03921691815a602094600091f160009181611a94575b50611a6c5750506001611a24612ab3565b6308c379a014611a35575b61061f57005b611a3d612ad1565b80611a485750611a2f565b60405162461bcd60e51b815260206004820152908190610638906024830190612525565b6001600160e01b031916146103415760405162461bcd60e51b81528061063860048201612a6a565b611aad91925060203d81116106c3576106b48183612504565b9083611a13565b9796949060009993999692965b8551811015611b5957611ad4818761288b565b51611adf828961288b565b519080600052602060fb815260406000205491838310611b1857611b139493929160fb916000525203604060002055612859565b611ac1565b508b9067616c537570706c7960c01b8f6000805160206133938339815191528e6040519462461bcd60e51b8652600486015260286024860152840152820152fd5b50909496979892989591956118d1565b99969498959392919060005b8a51811015611b9d57808b61036a82611b91611b98958f61288b565b519261288b565b611b75565b509091929395989496996118cc565b50858a1660005260986020526040600020336000526020526118a860ff60406000205416905061189f565b346101be57611be5366125c1565b9160ff610161541661089b57602092611c409160405190611c05826124ce565b6001825285368184013760405192611c1c846124ce565b6001845286368186013785611c3084612868565b52611c3a84612868565b52612d1d565b604051908152f35b346101be5760403660031901126101be5760243560043560005261012e60205260406000209060405191611c7b836124ce565b546001600160a01b0380821680855260a09290921c6020850152929015611cd3575b6001600160601b036020820151169182810292818404149015171561093e57604092612710915116918351928352046020820152f35b50604051611ce0816124ce565b61012d54838116825260a01c6020820152611c9d565b346101be5760403660031901126101be576004356001600160401b036024358181116101be57611d2a903690600401612594565b9190611d34612733565b60ff610161541661089b57836000526101639160209280845260ff6002604060002001541615611e6057856000528352600180604060002001918511610e1457611d8885611d828454612494565b84612c69565b6000601f8611600114611de95791858060008051602061337383398151915297969593611dd995600093611dde575b501b906000198760031b1c19161790555b60405193838594855284019161315b565b0390a2005b85013592508a611db7565b601f1986169083600052856000209160005b818110611e4b575091879695939160008051602061337383398151915298611dd9969410611e31575b505085811b019055611dc8565b840135600019600389901b60f8161c191690558880611e24565b86830135845592840192918701918701611dfb565b60405163c927e5bf60e01b815260048101879052602490fd5b346101be5760603660031901126101be576001600160401b036004358181116101be57611eaa903690600401612594565b602435916001600160a01b03604435818116938482036101be57611ecc612733565b60ff610161541661089b5785156120dd5784156109545761016295611ef18754612859565b809755604051606081018181108a821117610e1457604052818152611f1736848861266e565b986020998a83019081526040830191600183528a6000526101638c526040600020935184556001840191518051918211610e1457611f5f82611f598554612494565b85612c69565b8c908d601f841160011461206c5750918060029492611fad979694600092612061575b50508160011b916000199060031b1c19161790555b51151591019060ff801983541691151516179055565b61016754928760005261016889528360406000205560648402938085046064149015171561093e578794612010612056926001600160601b037fc07473765c308da8ff95c4974c60af7332d93777f002550fa063b77064a6f7b2971690886131db565b856000805160206133738339815191526120368c6040519181839283528201898d61315b565b0390a26033541695604051938493845260408b850152604084019161315b565b0390a4604051908152f35b015190508f80611f82565b9190601f1984168560005283600020936000905b8282106120c5575050926001928592611fad99989660029896106120ac575b505050811b019055611f97565b015160001960f88460031b161c191690558f808061209f565b80600186978294978701518155019601940190612080565b604051631dd0e19360e01b8152600490fd5b346101be576020806003193601126101be5760043560005261016381526001806040600020019082604051809360009080549061212b82612494565b80855291868116908115612250575060011461220f575b505061215092500383612504565b81511561216e5750905b6111db604051928284938452830190612525565b905060405190600090836099549161218583612494565b928386528582821691826000146121ef5750506001146121b5575b505050816121af910382612504565b9061215a565b91909250609960005282600020916000925b8284106121dc575050508201018183856121a0565b80548685018601529284019281016121c7565b60ff19168482015293151560051b840190920193508591508690506121a0565b9091506000528260002090846000925b828410612239575050509161215092820101859287612142565b80548885018701528794509285019286910161221f565b91505061215094925060ff191682840152151560051b820101859287612142565b346101be5761227f36612565565b90612288612733565b60ff610161541661089b576001600160a01b03169081156109545760207f88cb6d0a56ba73e5f130e544fa6649e4173e9051add4f3fc61b46502074b44b5918360005261016482526122ea8160406000209060ff801983541691151516179055565b6040519015158152a2005b346101be5760003660031901126101be5760405160009061015f80549061231b82612494565b9081845260019283811690816000146112205750600114612346576111db846111c781880382612504565b90935060005260209283600020916000925b82841061237457505050816111db936111c792820101936111b7565b8054858501870152928501928101612358565b346101be5760203660031901126101be5760043563ffffffff60e01b81168091036101be57602090635a08b45360e11b8114908115612430575b81156123d3575b506040519015158152f35b63152a902d60e11b8114915081156123ed575b50826123c8565b636cdb3d1360e11b81149150811561241f575b811561240e575b50826123e6565b6301ffc9a760e01b14905082612407565b6303a24d0760e21b81149150612400565b631030681960e21b811491506123c1565b346101be5760403660031901126101be576020611c4061245f612468565b602435906127d4565b600435906001600160a01b03821682036101be57565b602435906001600160a01b03821682036101be57565b90600182811c921680156124c4575b60208310146124ae57565b634e487b7160e01b600052602260045260246000fd5b91607f16916124a3565b604081019081106001600160401b03821117610e1457604052565b602081019081106001600160401b03821117610e1457604052565b90601f801991011681019081106001600160401b03821117610e1457604052565b919082519283825260005b848110612551575050826000602080949584010152601f8019910116010190565b602081830181015184830182015201612530565b60409060031901126101be576004356001600160a01b03811681036101be579060243580151581036101be5790565b9181601f840112156101be578235916001600160401b0383116101be57602083818601950101116101be57565b60609060031901126101be576004356001600160a01b03811681036101be57906024359060443590565b6001600160401b038111610e145760051b60200190565b929161260d826125eb565b9161261b6040519384612504565b829481845260208094019160051b81019283116101be57905b8282106126415750505050565b81358152908301908301612634565b9080601f830112156101be5781602061266b93359101612602565b90565b9291926001600160401b038211610e145760405191612697601f8201601f191660200184612504565b8294818452818301116101be578281602093846000960137010152565b9080601f830112156101be5781602061266b9335910161266e565b9181601f840112156101be578235916001600160401b0383116101be576020808501948460051b0101116101be57565b90815180825260208080930193019160005b82811061271f575050505090565b835185529381019392810192600101612711565b6033546001600160a01b0316330361274757565b606460405162461bcd60e51b815260206004820152602060248201527f4f776e61626c653a2063616c6c6572206973206e6f7420746865206f776e65726044820152fd5b603380546001600160a01b039283166001600160a01b0319821681179092559091167f8be0079c531659141344cd1fd0a4f28419497f9722a3daafe3b4186f6b6457e0600080a3565b6001600160a01b031690811561280157600052609760205260406000209060005260205260406000205490565b60405162461bcd60e51b815260206004820152602a60248201527f455243313135353a2061646472657373207a65726f206973206e6f742061207660448201526930b634b21037bbb732b960b11b6064820152608490fd5b600019811461093e5760010190565b8051156128755760200190565b634e487b7160e01b600052603260045260246000fd5b80518210156128755760209160051b010190565b156128a657565b60405162461bcd60e51b815260206004820152602e60248201527f455243313135353a2063616c6c6572206973206e6f7420746f6b656e206f776e60448201526d195c881bdc88185c1c1c9bdd995960921b6064820152608490fd5b1561290957565b60405162461bcd60e51b815260206004820152602560248201527f455243313135353a207472616e7366657220746f20746865207a65726f206164604482015264647265737360d81b6064820152608490fd5b1561296357565b60405162461bcd60e51b815260206004820152602a60248201527f455243313135353a20696e73756666696369656e742062616c616e636520666f60448201526939103a3930b739b332b960b11b6064820152608490fd5b9190820180921161093e57565b156129cf57565b60405162461bcd60e51b815260206004820152602860248201527f455243313135353a2069647320616e6420616d6f756e7473206c656e677468206044820152670dad2e6dac2e8c6d60c31b6064820152608490fd5b9091612a3c61266b936040845260408401906126ff565b9160208184039101526126ff565b908160209103126101be57516001600160e01b0319811681036101be5790565b60809060208152602860208201527f455243313135353a204552433131353552656365697665722072656a656374656040820152676420746f6b656e7360c01b60608201520190565b60009060033d11612ac057565b905060046000803e60005160e01c90565b600060443d1061266b57604051600319913d83016004833e81516001600160401b03918282113d602484011117612b2e57818401948551938411612b36573d85010160208487010111612b2e575061266b92910160200190612504565b949350505050565b50949350505050565b60809060208152603460208201527f455243313135353a207472616e7366657220746f206e6f6e2d455243313135356040820152732932b1b2b4bb32b91034b6b83632b6b2b73a32b960611b60608201520190565b60405190612ba1826124ce565b6001825260203681840137612bb582612868565b5290565b15612bc057565b60405162461bcd60e51b815260206004820152602360248201527f455243313135353a206275726e2066726f6d20746865207a65726f206164647260448201526265737360e81b6064820152608490fd5b15612c1857565b60405162461bcd60e51b8152602060048201526024808201527f455243313135353a206275726e20616d6f756e7420657863656564732062616c604482015263616e636560e01b6064820152608490fd5b90601f8111612c7757505050565b600091825260208220906020601f850160051c83019410612cb3575b601f0160051c01915b828110612ca857505050565b818155600101612c9c565b9092508290612c93565b15612cc457565b60405162461bcd60e51b815260206004820152602b60248201527f496e697469616c697a61626c653a20636f6e7472616374206973206e6f74206960448201526a6e697469616c697a696e6760a81b6064820152608490fd5b90916001600160a01b038083169291908315610954576033541633141580613141575b61312957835115613117578351815103613105578351926064938481116130e7575060015b8551811015612dd557612d78818761288b565b516000198201828111612dc057612d8f908861288b565b511015612d9e57600101612d65565b612daa6024918761288b565b5160405190636a671dfb60e11b82526004820152fd5b60246000634e487b7160e01b81526011600452fd5b509493909192946000945b8251861015612ebf57612df3868461288b565b519586600052610163602081815260409060ff60028360002001541615612ea757612e1e848961288b565b5115612e96578960005261016590818152612e488360002054612e41878c61288b565b51906129bb565b938b60005281528260002054808511612e74575060009a8b525290972096909655600190950194612de0565b8b8d9186865192630d6f5ed560e11b8452600484015260248301526044820152fd5b815163d11b25af60e01b8152600490fd5b815163c927e5bf60e01b8152600481018b9052602490fd5b92919390959450604092835195612ed5876124e9565b60008752612ee686518551146129c8565b60005b8651811015612f285780612f00612f23928761288b565b51612f0b828a61288b565b5160005260fb602052610383886000209182546129bb565b612ee9565b5090919560005b8651811015612f795780612f46612f74928761288b565b51612f51828a61288b565b5160005260206097815288600020908c60005252610383886000209182546129bb565b612f2f565b5091969093958160008851600080516020613353833981519152339180612fa18a8d83612a25565b0390a43b612fb2575b505050505050565b6130056000602094613014895197889687958694612ff263bc197c8160e01b9d8e885233600489015288602489015260a0604489015260a48801906126ff565b90600319948588840301908801526126ff565b91848303016084850152612525565b03925af1600091816130c7575b5061309b5750506001613032612ab3565b6308c379a014613065575b61304e57505b388080808080612faa565b5162461bcd60e51b81528061063860048201612b3f565b61306d612ad1565b80613078575061303d565b825162461bcd60e51b815260206004820152908190610638906024830190612525565b6001600160e01b031916036130b05750613043565b5162461bcd60e51b81528061063860048201612a6a565b6130e091925060203d81116106c3576106b48183612504565b9038613021565b604490856040519163f80a484560e01b835260048301526024820152fd5b6040516305f8ded760e21b8152600490fd5b60405163c2e5347d60e01b8152600490fd5b60405163fc8b94cd60e01b8152336004820152602490fd5b503360005261016460205260ff6040600020541615612d40565b908060209392818452848401376000828201840152601f01601f1916010190565b1561318357565b60405162461bcd60e51b815260206004820152602a60248201527f455243323938313a20726f79616c7479206665652077696c6c206578636565646044820152692073616c65507269636560b01b6064820152608490fd5b916001600160601b0316906131f461271083111561317c565b6001600160a01b039081169283156132435760405193613213856124ce565b84526020808501938452600091825261012e9052604090209251915160a01b6001600160a01b0319169116179055565b60405162461bcd60e51b815260206004820152601b60248201527f455243323938313a20496e76616c696420706172616d657465727300000000006044820152606490fd5b6001600160a01b039081169190821561095457606482116133325760018060a01b0319926101668185825416179055826101675560648302928084046064149015171561093e57613320906001600160601b0384166132eb61271082111561317c565b60206040516132f9816124ce565b838152015261012d80546001600160a01b0319166001600160a01b03909216919091179055565b61012d9283549260a01b169116179055565b604051637bbc1b3760e11b81526004810183905260646024820152604490fdfe4a39dc06d4c0dbc64b70af90fd698a233a518aa5d07e595d983b8c0526c8f7fb6bb7ff708619ba0610cba295a58592e0451dee2622938c8755667688daf3529b455243313135353a206275726e20616d6f756e74206578636565647320746f74a2646970667358221220b7720fa90ac9df32d7bfb6ee34e640368972d81f7eb46827b58be3edc6478e5764736f6c63430008120033","linkReferences":{}},"methodIdentifiers":{"createRareERC1155Contract(string,string,string)":"8667f619","defaultMinter()":"389dee18","owner()":"8da5cb5b","rareERC1155()":"014812a2","renounceOwnership()":"715018a6","setDefaultMinter(address)":"18cf6f42","setRareERC1155(address)":"e2be1a08","transferOwnership(address)":"f2fde38b"},"id":83}