{"abi":[{"type":"function","name":"activateDeadmanListTrigger","inputs":[],"outputs":[],"stateMutability":"nonpayable"},{"type":"function","name":"addNewToken","inputs":[{"name":"_uri","type":"string","internalType":"string"}],"outputs":[],"stateMutability":"nonpayable"},{"type":"function","name":"approve","inputs":[{"name":"_spender","type":"address","internalType":"address"},{"name":"_id","type":"uint256","internalType":"uint256"}],"outputs":[],"stateMutability":"nonpayable"},{"type":"function","name":"areTokenURIsLocked","inputs":[],"outputs":[{"name":"","type":"bool","internalType":"bool"}],"stateMutability":"view"},{"type":"function","name":"balanceOf","inputs":[{"name":"owner","type":"address","internalType":"address"}],"outputs":[{"name":"","type":"uint256","internalType":"uint256"}],"stateMutability":"view"},{"type":"function","name":"batchAddAddressToRoyaltyList","inputs":[{"name":"_listType","type":"uint8","internalType":"enum IRoyaltyGuard.ListType"},{"name":"_addrs","type":"address[]","internalType":"address[]"}],"outputs":[],"stateMutability":"nonpayable"},{"type":"function","name":"batchMint","inputs":[{"name":"_baseURI","type":"string","internalType":"string"},{"name":"_numberOfTokens","type":"uint256","internalType":"uint256"}],"outputs":[],"stateMutability":"nonpayable"},{"type":"function","name":"batchRemoveAddressToRoyaltyList","inputs":[{"name":"_listType","type":"uint8","internalType":"enum IRoyaltyGuard.ListType"},{"name":"_addrs","type":"address[]","internalType":"address[]"}],"outputs":[],"stateMutability":"nonpayable"},{"type":"function","name":"burn","inputs":[{"name":"_tokenId","type":"uint256","internalType":"uint256"}],"outputs":[],"stateMutability":"nonpayable"},{"type":"function","name":"clearList","inputs":[{"name":"_listType","type":"uint8","internalType":"enum IRoyaltyGuard.ListType"}],"outputs":[],"stateMutability":"nonpayable"},{"type":"function","name":"deleteToken","inputs":[{"name":"_tokenId","type":"uint256","internalType":"uint256"}],"outputs":[],"stateMutability":"nonpayable"},{"type":"function","name":"disableContract","inputs":[],"outputs":[],"stateMutability":"nonpayable"},{"type":"function","name":"disabled","inputs":[],"outputs":[{"name":"","type":"bool","internalType":"bool"}],"stateMutability":"view"},{"type":"function","name":"getApproved","inputs":[{"name":"_tokenId","type":"uint256","internalType":"uint256"}],"outputs":[{"name":"","type":"address","internalType":"address"}],"stateMutability":"view"},{"type":"function","name":"getBatchCount","inputs":[],"outputs":[{"name":"","type":"uint256","internalType":"uint256"}],"stateMutability":"view"},{"type":"function","name":"getBatchInfo","inputs":[{"name":"_batchIndex","type":"uint256","internalType":"uint256"}],"outputs":[{"name":"startTokenId","type":"uint256","internalType":"uint256"},{"name":"endTokenId","type":"uint256","internalType":"uint256"},{"name":"baseURI","type":"string","internalType":"string"}],"stateMutability":"view"},{"type":"function","name":"getDeadmanTriggerAvailableDatetime","inputs":[],"outputs":[{"name":"","type":"uint256","internalType":"uint256"}],"stateMutability":"view"},{"type":"function","name":"getDefaultRoyaltyPercentage","inputs":[],"outputs":[{"name":"","type":"uint256","internalType":"uint256"}],"stateMutability":"view"},{"type":"function","name":"getDefaultRoyaltyReceiver","inputs":[],"outputs":[{"name":"","type":"address","internalType":"address"}],"stateMutability":"view"},{"type":"function","name":"getInUseList","inputs":[],"outputs":[{"name":"","type":"address[]","internalType":"address[]"}],"stateMutability":"view"},{"type":"function","name":"getList","inputs":[{"name":"_listType","type":"uint8","internalType":"enum IRoyaltyGuard.ListType"}],"outputs":[{"name":"","type":"address[]","internalType":"address[]"}],"stateMutability":"view"},{"type":"function","name":"getListType","inputs":[],"outputs":[{"name":"","type":"uint8","internalType":"enum IRoyaltyGuard.ListType"}],"stateMutability":"view"},{"type":"function","name":"hasAdminPermission","inputs":[{"name":"_addr","type":"address","internalType":"address"}],"outputs":[{"name":"","type":"bool","internalType":"bool"}],"stateMutability":"view"},{"type":"function","name":"init","inputs":[{"name":"_name","type":"string","internalType":"string"},{"name":"_symbol","type":"string","internalType":"string"},{"name":"_creator","type":"address","internalType":"address"},{"name":"_maxTokens","type":"uint256","internalType":"uint256"}],"outputs":[],"stateMutability":"nonpayable"},{"type":"function","name":"isApprovedForAll","inputs":[{"name":"owner","type":"address","internalType":"address"},{"name":"operator","type":"address","internalType":"address"}],"outputs":[{"name":"","type":"bool","internalType":"bool"}],"stateMutability":"view"},{"type":"function","name":"isOperatorInList","inputs":[{"name":"_operator","type":"address","internalType":"address"}],"outputs":[{"name":"","type":"bool","internalType":"bool"}],"stateMutability":"view"},{"type":"function","name":"lockTokenURIs","inputs":[],"outputs":[],"stateMutability":"nonpayable"},{"type":"function","name":"maxTokens","inputs":[],"outputs":[{"name":"","type":"uint256","internalType":"uint256"}],"stateMutability":"view"},{"type":"function","name":"mintTo","inputs":[{"name":"_uri","type":"string","internalType":"string"},{"name":"_receiver","type":"address","internalType":"address"},{"name":"_royaltyReceiver","type":"address","internalType":"address"}],"outputs":[],"stateMutability":"nonpayable"},{"type":"function","name":"name","inputs":[],"outputs":[{"name":"","type":"string","internalType":"string"}],"stateMutability":"view"},{"type":"function","name":"owner","inputs":[],"outputs":[{"name":"","type":"address","internalType":"address"}],"stateMutability":"view"},{"type":"function","name":"ownerOf","inputs":[{"name":"_tokenId","type":"uint256","internalType":"uint256"}],"outputs":[{"name":"","type":"address","internalType":"address"}],"stateMutability":"view"},{"type":"function","name":"renounceOwnership","inputs":[],"outputs":[],"stateMutability":"nonpayable"},{"type":"function","name":"royaltyInfo","inputs":[{"name":"_tokenId","type":"uint256","internalType":"uint256"},{"name":"_salePrice","type":"uint256","internalType":"uint256"}],"outputs":[{"name":"receiver","type":"address","internalType":"address"},{"name":"royaltyAmount","type":"uint256","internalType":"uint256"}],"stateMutability":"view"},{"type":"function","name":"safeTransferFrom","inputs":[{"name":"from","type":"address","internalType":"address"},{"name":"to","type":"address","internalType":"address"},{"name":"tokenId","type":"uint256","internalType":"uint256"}],"outputs":[],"stateMutability":"nonpayable"},{"type":"function","name":"safeTransferFrom","inputs":[{"name":"from","type":"address","internalType":"address"},{"name":"to","type":"address","internalType":"address"},{"name":"tokenId","type":"uint256","internalType":"uint256"},{"name":"data","type":"bytes","internalType":"bytes"}],"outputs":[],"stateMutability":"nonpayable"},{"type":"function","name":"setApprovalForAll","inputs":[{"name":"_operator","type":"address","internalType":"address"},{"name":"_approved","type":"bool","internalType":"bool"}],"outputs":[],"stateMutability":"nonpayable"},{"type":"function","name":"setDeadmanListTriggerRenewalDuration","inputs":[{"name":"_numYears","type":"uint256","internalType":"uint256"}],"outputs":[],"stateMutability":"nonpayable"},{"type":"function","name":"setDefaultRoyaltyReceiver","inputs":[{"name":"_receiver","type":"address","internalType":"address"}],"outputs":[],"stateMutability":"nonpayable"},{"type":"function","name":"setRoyaltyReceiverForToken","inputs":[{"name":"_receiver","type":"address","internalType":"address"},{"name":"_tokenId","type":"uint256","internalType":"uint256"}],"outputs":[],"stateMutability":"nonpayable"},{"type":"function","name":"supportsInterface","inputs":[{"name":"_interfaceId","type":"bytes4","internalType":"bytes4"}],"outputs":[{"name":"","type":"bool","internalType":"bool"}],"stateMutability":"view"},{"type":"function","name":"symbol","inputs":[],"outputs":[{"name":"","type":"string","internalType":"string"}],"stateMutability":"view"},{"type":"function","name":"toggleListType","inputs":[{"name":"_newListType","type":"uint8","internalType":"enum IRoyaltyGuard.ListType"}],"outputs":[],"stateMutability":"nonpayable"},{"type":"function","name":"tokenCreator","inputs":[{"name":"","type":"uint256","internalType":"uint256"}],"outputs":[{"name":"","type":"address","internalType":"address payable"}],"stateMutability":"view"},{"type":"function","name":"tokenURI","inputs":[{"name":"_tokenId","type":"uint256","internalType":"uint256"}],"outputs":[{"name":"","type":"string","internalType":"string"}],"stateMutability":"view"},{"type":"function","name":"tokenURIsLocked","inputs":[],"outputs":[{"name":"","type":"bool","internalType":"bool"}],"stateMutability":"view"},{"type":"function","name":"totalSupply","inputs":[],"outputs":[{"name":"","type":"uint256","internalType":"uint256"}],"stateMutability":"view"},{"type":"function","name":"transferFrom","inputs":[{"name":"from","type":"address","internalType":"address"},{"name":"to","type":"address","internalType":"address"},{"name":"tokenId","type":"uint256","internalType":"uint256"}],"outputs":[],"stateMutability":"nonpayable"},{"type":"function","name":"transferOwnership","inputs":[{"name":"newOwner","type":"address","internalType":"address"}],"outputs":[],"stateMutability":"nonpayable"},{"type":"function","name":"updateBatchBaseURI","inputs":[{"name":"_batchIndex","type":"uint256","internalType":"uint256"},{"name":"_newBaseURI","type":"string","internalType":"string"}],"outputs":[],"stateMutability":"nonpayable"},{"type":"function","name":"updateTokenURI","inputs":[{"name":"_tokenId","type":"uint256","internalType":"uint256"},{"name":"_newURI","type":"string","internalType":"string"}],"outputs":[],"stateMutability":"nonpayable"},{"type":"event","name":"AddressAddedToList","inputs":[{"name":"_updater","type":"address","indexed":true,"internalType":"address"},{"name":"_addedAddr","type":"address","indexed":true,"internalType":"address"},{"name":"_ListType","type":"uint8","indexed":true,"internalType":"enum IRoyaltyGuard.ListType"}],"anonymous":false},{"type":"event","name":"AddressRemovedList","inputs":[{"name":"_updater","type":"address","indexed":true,"internalType":"address"},{"name":"_removedAddr","type":"address","indexed":true,"internalType":"address"},{"name":"_ListType","type":"uint8","indexed":true,"internalType":"enum IRoyaltyGuard.ListType"}],"anonymous":false},{"type":"event","name":"Approval","inputs":[{"name":"owner","type":"address","indexed":true,"internalType":"address"},{"name":"approved","type":"address","indexed":true,"internalType":"address"},{"name":"tokenId","type":"uint256","indexed":true,"internalType":"uint256"}],"anonymous":false},{"type":"event","name":"ApprovalForAll","inputs":[{"name":"owner","type":"address","indexed":true,"internalType":"address"},{"name":"operator","type":"address","indexed":true,"internalType":"address"},{"name":"approved","type":"bool","indexed":false,"internalType":"bool"}],"anonymous":false},{"type":"event","name":"BatchBaseURIUpdated","inputs":[{"name":"batchIndex","type":"uint256","indexed":true,"internalType":"uint256"},{"name":"newBaseURI","type":"string","indexed":false,"internalType":"string"}],"anonymous":false},{"type":"event","name":"ConsecutiveTransfer","inputs":[{"name":"fromTokenId","type":"uint256","indexed":true,"internalType":"uint256"},{"name":"toTokenId","type":"uint256","indexed":false,"internalType":"uint256"},{"name":"fromAddress","type":"address","indexed":true,"internalType":"address"},{"name":"toAddress","type":"address","indexed":true,"internalType":"address"}],"anonymous":false},{"type":"event","name":"ContractDisabled","inputs":[{"name":"user","type":"address","indexed":true,"internalType":"address"}],"anonymous":false},{"type":"event","name":"DeadmanTriggerActivated","inputs":[{"name":"_activator","type":"address","indexed":true,"internalType":"address"}],"anonymous":false},{"type":"event","name":"DeadmanTriggerDatetimeUpdated","inputs":[{"name":"_updater","type":"address","indexed":true,"internalType":"address"},{"name":"_oldDatetime","type":"uint256","indexed":false,"internalType":"uint256"},{"name":"_newDatetime","type":"uint256","indexed":false,"internalType":"uint256"}],"anonymous":false},{"type":"event","name":"Initialized","inputs":[{"name":"version","type":"uint8","indexed":false,"internalType":"uint8"}],"anonymous":false},{"type":"event","name":"ListCleared","inputs":[{"name":"_updater","type":"address","indexed":true,"internalType":"address"},{"name":"_listType","type":"uint8","indexed":false,"internalType":"enum IRoyaltyGuard.ListType"}],"anonymous":false},{"type":"event","name":"ListTypeUpdated","inputs":[{"name":"_updater","type":"address","indexed":true,"internalType":"address"},{"name":"_oldListType","type":"uint8","indexed":true,"internalType":"enum IRoyaltyGuard.ListType"},{"name":"_newListType","type":"uint8","indexed":true,"internalType":"enum IRoyaltyGuard.ListType"}],"anonymous":false},{"type":"event","name":"OwnershipTransferred","inputs":[{"name":"previousOwner","type":"address","indexed":true,"internalType":"address"},{"name":"newOwner","type":"address","indexed":true,"internalType":"address"}],"anonymous":false},{"type":"event","name":"TokenURIUpdated","inputs":[{"name":"tokenId","type":"uint256","indexed":true,"internalType":"uint256"},{"name":"newURI","type":"string","indexed":false,"internalType":"string"}],"anonymous":false},{"type":"event","name":"TokenURIsLocked","inputs":[],"anonymous":false},{"type":"event","name":"Transfer","inputs":[{"name":"from","type":"address","indexed":true,"internalType":"address"},{"name":"to","type":"address","indexed":true,"internalType":"address"},{"name":"tokenId","type":"uint256","indexed":true,"internalType":"uint256"}],"anonymous":false},{"type":"error","name":"CantAddToOFFList","inputs":[]},{"type":"error","name":"DeadmanTriggerStillActive","inputs":[]},{"type":"error","name":"MustBeAdmin","inputs":[]},{"type":"error","name":"Unauthorized","inputs":[]}],"bytecode":{"object":"0x6080806040523461001657613912908161001c8239f35b600080fdfe6040608081526004908136101561001557600080fd5b600091823560e01c8063012cf1e8146122c357806301ffc9a7146121ed57806306fdde0314612143578063081812fc14612123578063095ea7b314611f0757806318160ddd14611ee757806318e97fd114611bf65780631a0058f514611b7a5780632042748614611b4657806321c4a5d814611aa157806323b872dd14611a7c5780632a55205a146119ea5780632ce878da146119775780633403c4e91461194e5780633ebc82c51461190c57806340c1a064146118e257806342842e0e146118ae57806342966c6814611891578063472a6638146118015780634aa52c41146117915780635aec8d62146116e95780635edc7c19146111df5780636297c16c14611163578063631d1d9a146107d55780636352211e1461113257806370a082311461109c578063715018a61461103f578063717392ed1461101f5780637cc918d114610d5b57806387bc793f14610d33578063894ba83314610ce55780638da5cb5b14610cbc57806395d89b4114610bd75780639e860f2a14610ae6578063a22cb46514610964578063a448dd4f146108c4578063a8fabfa5146108a4578063ab69607a14610885578063b88d4fde146107fb578063bb2ee99f146107d5578063bc7194551461072d578063c87b56dd146106f2578063d9856c211461068a578063de903ddd14610505578063e8315742146104e5578063e985e9c514610497578063eab851181461043c578063ee07080514610419578063efc32cd4146103c6578063f2fde38b146103355763ff6e8c8f1461025257600080fd5b3461033157610260366124c1565b90919260018060a01b039485603354163303610324576003851015610311578415610304575050906102939136916129d9565b92805b8451811015610300576102fb906102c26102af85612a3f565b866102ba848a612a7e565b511690612ac0565b5083856102cf8389612a7e565b5116337f14155f749dc3f9cd2bf890d6d3a47069f77ae35befcee11c8b1a3ba41cba15368680a4612a59565b610296565b5080f35b51632de777a160e11b8152fd5b634e487b7160e01b875260218252602487fd5b51635c510c8360e11b8152fd5b8280fd5b50346103315760203660031901126103315761034f6123bc565b916103586125d8565b6001600160a01b03831615610374578361037184612630565b80f35b906020608492519162461bcd60e51b8352820152602660248201527f4f776e61626c653a206e6577206f776e657220697320746865207a65726f206160448201526564647265737360d01b6064820152fd5b5050346104155780600319360112610415576103e06123bc565b906103e96125d8565b602435835260fd602052822080546001600160a01b0319166001600160a01b0390921691909117905580f35b5080fd5b50503461041557816003193601126104155760209060ff80541690519015158152f35b5050346104155760203660031901126104155760209061048e61045d6123bc565b61046c60ff6101095416612a3f565b6001600160a01b03909116600090815260019091016020526040902054151590565b90519015158152f35b50503461041557806003193601126104155760ff816020936104b76123bc565b6104bf6123d7565b6001600160a01b039182168352609c875283832091168252855220549151911615158152f35b505034610415578160031936011261041557602090610100549051908152f35b508290346104155761051636612430565b91926105206125d8565b61053d60ff805461053382821615612cdf565b60081c161561380c565b61054b6101055485106137c0565b600261055685612d2b565b5001906001600160401b038411610677575061057c836105768354612679565b83612c8b565b84601f84116001146105e857956105d7918487987fd181cc8d0dc01c4c286c3f799294fcd18a386821e71c9d771a3a19827b49560c9798916105dd575b508560011b906000198760031b1c19161790555b5192839283613850565b0390a280f35b9050840135896105b9565b81865260208087209190601f1986169088905b82821061065f575050916105d79391867fd181cc8d0dc01c4c286c3f799294fcd18a386821e71c9d771a3a19827b49560c98999a9410610645575b5050600185811b0190556105cd565b850135600019600388901b60f8161c191690558880610636565b80600185968294968a013581550195019301906105fb565b634e487b7160e01b865260419052602485fd5b8382346104155760203660031901126104155780356001600160401b038111610331573660238201121561033157610300918160246106ce933693013591016125a1565b6106d66125d8565b6106e460ff80541615612cdf565b60fc54339182908190612eb5565b50913461072a57602036600319011261072a575061071361072692356131a6565b9051918291602083526020830190612397565b0390f35b80fd5b5090346103315760203660031901126103315781359160038310156107d1576033546001600160a01b031633036107c3575061076882612a3f565b805490848155816107a5575b50507f7efc19cf93d497a6a56103ea89a39d51c0cad74a817ed3cd0ecaff9823d4da249051806105d7339482612498565b845260208420908101905b81811015610774578481556001016107b0565b9051635c510c8360e11b8152fd5b8380fd5b50503461041557816003193601126104155760209060ff805460081c1690519015158152f35b838234610415576080366003190112610415576108166123bc565b9061081f6123d7565b91604435606435936001600160401b03851161088157366023860112156108815761085961087c94866024610371983693013591016125a1565b9261086c6108678433613431565b612759565b610877838383613563565b61294e565b61280e565b8580fd5b50503461041557816003193601126104155760209060fc549051908152f35b505034610415578160031936011261041557602090610105549051908152f35b50346103315782600319360112610331576108dd6125d8565b60ff549160ff8360081c166109215761ff001983166101001760ff55837f1cc7fa91d8671f564b11ea19e789522d84788cad2329b82dcc0b6ae1ff2338dd8180a180f35b906020606492519162461bcd60e51b8352820152601d60248201527f546f6b656e20555249732061726520616c7265616479206c6f636b65640000006044820152fd5b50903461033157806003193601126103315761097e6123bc565b9060243591821515809303610ae25760ff61010954166003811015610acf5760018103610a855750600180865261010860209081528387206001600160a01b038416600090815292019052604090205415610a76575b6001600160a01b031692338414610a345750338452609c60205280842083855260205280842060ff1981541660ff8416179055519081527f17307eab39ab6107e8899845ad3d59bd9653f200f220920489ca2b5937696c3160203392a380f35b6020606492519162461bcd60e51b8352820152601960248201527f4552433732313a20617070726f766520746f2063616c6c6572000000000000006044820152fd5b81516282b42960e81b81528490fd5b6002036109d45760028552610108602052610abb82862060018060a01b0383169060019160005201602052604060002054151590565b156109d45781516282b42960e81b81528490fd5b634e487b7160e01b865260218552602486fd5b8480fd5b50903461033157610af6366124c1565b6033546001600160a01b03949085163303610bc8575090610b189136916129d9565b9160038210159081610acf5782610b2d578580f35b8591929394955b8551811015610bb857610b5c610b4986612a3f565b83610b54848a612a7e565b511690612b2e565b508382610b698389612a7e565b511690610ba5579085610ba092337fc72e29af1b34de3dec3a764b4ca4d85b9c380ab33b9b268d29b6e7008bd0ed958780a4612a59565b610b34565b634e487b7160e01b845260218852602484fd5b5050935050505038808080808580f35b51635c510c8360e11b81528590fd5b50503461041557816003193601126104155780519082609854610bf981612679565b80855291600191808316908115610c945750600114610c37575b505050610c2582610726940383612565565b51918291602083526020830190612397565b9450609885527f2237a976fa961f5921fd19f2b03c925c725d77b20ce8f790c19709c03de4d8145b828610610c7c57505050610c258260206107269582010194610c13565b80546020878701810191909152909501948101610c5f565b610726975086935060209250610c2594915060ff191682840152151560051b82010194610c13565b50503461041557816003193601126104155760335490516001600160a01b039091168152602090f35b833461072a578060031936011261072a57610cfe6125d8565b600160ff1960ff54161760ff55337f793bc6423dd0257d64f9d47db72fd4b2162f4541aa41740ba1c5fb5e2cd41bcd8280a280f35b5050346104155781600319360112610415576107269060ff6101095416905191829182612498565b509190346104155780600319360112610415576001600160401b039280358481116107d157610d8d9036908301612403565b94610d966125d8565b610da460ff80541615612cdf565b6101049081549260019182850180951161100c57602498610dc68a3587612c1e565b9360001991828601958611610ffa5789519660209788810181811087821117610fe8578c52879052869055610100548611610fa6578a90610e1d8b5196610e0c88612519565b8a88528988019289845236916125a1565b958b8101968752610105805490600160401b821015610f94578582019055610e4490612d2b565b939093610f83575090600292915182555183820155019351978851938411610f715750899a50610e8283610e7c869c9a9b9c54612679565b86612c8b565b8598601f8411600114610eec57839291899a84927fdeaa91b6123d068f5821d0fb0678463d1a8a6079fe8af5de3ce5e896dcf9133d9a9b95610ee1575b50501b9260031b1c19161790555b60018060a01b03603354169551908152a480f35b015193503880610ebf565b98909291601f19831691858a52878a20928a5b818110610f5957509a847fdeaa91b6123d068f5821d0fb0678463d1a8a6079fe8af5de3ce5e896dcf9133d9a9b9c10610f41575b50505050811b019055610ecd565b01519060f88460031b161c1916905538808080610f33565b828d015185558e9b5093860193918901918901610eff565b634e487b7160e01b8b52604190528a8afd5b634e487b7160e01b8152808c528e90fd5b634e487b7160e01b855260418d528f85fd5b895162461bcd60e51b8152808a01889052601d818e01527f62617463684d696e743a3a6578636565646564206d6178546f6b656e730000006044820152606490fd5b634e487b7160e01b8e5260418c528e8efd5b634e487b7160e01b8b52601189528b8bfd5b634e487b7160e01b885260118652602488fd5b50503461041557816003193601126104155760209061010a549051908152f35b833461072a578060031936011261072a576110586125d8565b603380546001600160a01b0319811690915581906001600160a01b03167f8be0079c531659141344cd1fd0a4f28419497f9722a3daafe3b4186f6b6457e08280a380f35b50829034610415576020366003190112610415576001600160a01b036110c06123bc565b169081156110dd576020848085858152609a845220549051908152f35b608490602085519162461bcd60e51b8352820152602960248201527f4552433732313a2061646472657373207a65726f206973206e6f7420612076616044820152683634b21037bbb732b960b91b6064820152fd5b50913461072a57602036600319011261072a5750611152602092356133c1565b90516001600160a01b039091168152f35b503461033157602036600319011261033157803591611181836133c1565b336001600160a01b039091160361119c578361037184612d67565b906020606492519162461bcd60e51b8352820152601760248201527f4d757374206265206f776e6572206f6620746f6b656e2e0000000000000000006044820152fd5b509034610331576080366003190112610331576001600160401b03918035838111610ae2576112119036908301612403565b91906024358581116116e55761122a9036908401612403565b6112359691966123ed565b9388549760ff94858a60081c1615978880996116d9575b80156116c3575b1561166957600160ff198c1681178d559a89611658575b506001600160a01b03881615611615576112c892916112c0916112b0898f600a60fc5561ffff198254168255606435610100555460081c166112ab81612c2b565b612c2b565b6112b933612630565b36916125a1565b9336916125a1565b906112dc858b5460081c166112ab81612c2b565b825184811161160257806112f1609754612679565b94601f95868111611591575b506020908d8784116001146115125792611507575b5050600019600383901b1c1916908a1b176097555b81519384116114f4575061133c609854612679565b828111611491575b5060209183116001146114055791806113b9959492611391948b926113fa575b5050600019600383901b1c191690881b176098555b875460081c1661138881612c2b565b6112ab81612c2b565b60fb80546001600160a01b0319166001600160a01b0383161790556113b46125d8565b612630565b6113c1578280f35b825461ff0019168355519081527f7f26b83ff96e1f2b6a682f133852f6798a09c465da95921460cefb384740249890602090a138808280f35b015190503880611364565b609889528792917f2237a976fa961f5921fd19f2b03c925c725d77b20ce8f790c19709c03de4d81491601f1984168b5b818110611479575091611391959391856113b99998969410611460575b505050811b01609855611379565b015160001960f88460031b161c19169055388080611452565b8284015185558b969094019360209384019301611435565b60988a527f2237a976fa961f5921fd19f2b03c925c725d77b20ce8f790c19709c03de4d8148380860160051c820192602087106114eb575b0160051c019089905b8281106114e0575050611344565b8b81550189906114d2565b925081926114c9565b634e487b7160e01b8a5260419052602489fd5b015190503880611312565b91908d9450601f198416609784527f354a83ed9988f79f6038d4c7a7dadbad8af32f4ad6df893e0e5807a1b1944ff9935b81811061157957508411611560575b505050811b01609755611327565b015160001960f88460031b161c19169055388080611552565b8284015185558f969094019360209384019301611543565b90915060978d527f354a83ed9988f79f6038d4c7a7dadbad8af32f4ad6df893e0e5807a1b1944ff98680850160051c820192602086106115f9575b859493910160051c909101908d908f5b8382106115eb575050506112fd565b81558594508e91018f6115dc565b925081926115cc565b634e487b7160e01b8b526041825260248bfd5b895162461bcd60e51b8152602081860152601e60248201527f63726561746f722063616e6e6f74206265206e756c6c206164647265737300006044820152606490fd5b61ffff1916610101178c553861126a565b895162461bcd60e51b8152602081860152602e60248201527f496e697469616c697a61626c653a20636f6e747261637420697320616c72656160448201526d191e481a5b9a5d1a585b1a5e995960921b6064820152608490fd5b50303b15801561125357506001878c1614611253565b506001878c161061124c565b8680fd5b50903461033157826003193601126103315761010a54421061178457506101099081549060ff821690600382101561177157508390337f12282389323caf08dd4e02c490ef05bc7edb56967c085742687aad3cc81aa15f8380a460ff19169055337f60faf76514baf225c418dfc1e3c75bed0bd280f0436999e12cb0a73acb0f9a468280a280f35b634e487b7160e01b855260219052602484fd5b5163807a684760e01b8152fd5b8382346104155760603660031901126104155780356001600160401b03811161033157610300916117c491369101612403565b906117cd6123d7565b6117d56123ed565b926117de6125d8565b6117ec60ff80541615612cdf565b6117fc60fc5493339236916125a1565b612eb5565b50346103315760203660031901126103315780359160038310156107d1576033546001600160a01b0316330361032457506101099182549160ff831690600382101561187e5750908060ff92337f12282389323caf08dd4e02c490ef05bc7edb56967c085742687aad3cc81aa15f8880a4169060ff191617905580f35b634e487b7160e01b865260219052602485fd5b838234610415576020366003190112610415576103719035612d67565b5050346104155761087c610371916118c536612463565b919251926118d28461254a565b86845261086c6108678433613431565b5050346104155760203660031901126104155760335490516001600160a01b039091168152602090f35b833461072a57602036600319011261072a576103716119296123bc565b6119316125d8565b60018060a01b03166001600160601b0360a01b60fb54161760fb55565b50503461041557816003193601126104155760fb5490516001600160a01b039091168152602090f35b82843461072a578060031936011261072a5761199860ff6101095416612a3f565b9180519182845490818152602080910195835280832092905b8282106119d35761072686866119c9828b0383612565565b5191829182612330565b8354875295860195600193840193909101906119b1565b50913461072a578160031936011261072a578235815260fd60205281812054602435906001600160a01b039081168015611a7057925b60fe602052848120548015611a6657925b838102938185041490151715611a535750835192168252606490046020820152f35b634e487b7160e01b815260118652602490fd5b5060fc5492611a31565b508060fb541692611a20565b833461072a57610371611a8e36612463565b91611a9c6108678433613431565b613563565b503461033157602036600319011261033157603354813591906001600160a01b03163303611b38576301e1338091828102928184041490151715611b255750611aea9042612c1e565b9061010a907f6e948191a35d69000746799fef50c705bbdc93bd5a7577e9e9eb879c04bdebc982549180519283528460208401523392a25580f35b634e487b7160e01b845260119052602483fd5b8251635c510c8360e11b8152fd5b50503461041557602036600319011261041557602090611b646123bc565b60018060a01b0380603354169116149051908152f35b50823461072a57602036600319011261072a5750611ba69035611ba16101055482106137c0565b612d2b565b506107268251611bb581612519565b825481526060611bd3600260018601549560208501968752016126b3565b918286820152519351948051958695865260208601528401526060830190612397565b5082903461041557611c0736612430565b919260ff54611c1960ff821615612cdf565b6033546001600160a01b03163303611e9a5760ff611c3b9160081c161561380c565b6000848152609960205260409020546001600160a01b031615158015611e71575b15611e3757611c6a84613738565b505015611d5d5783855260206101078152868620916001600160401b038511611d4a5750611ca284611c9c8454612679565b84612c8b565b8590601f8511600114611ceb5750956105d7918487986000805160206138bd8339815191529798916105dd57508560011b906000198760031b1c19161790555192839283613850565b90601f1985168388528288209288905b828210611d32575050916105d79391866000805160206138bd83398151915298999a9410610645575050600185811b0190556105cd565b80600185968294968a01358155019501930190611cfb565b634e487b7160e01b875260419052602486fd5b83855260206101068152868620916001600160401b038511611d4a5750611d8884611c9c8454612679565b8590601f8511600114611dd85750956105d7918487986000805160206138bd833981519152979891611dcd575b508560011b906000198760031b1c19161790556105cd565b905084013589611db5565b90601f1985168388528288209288905b828210611e1f575050916105d79391866000805160206138bd83398151915298999a9410610645575050600185811b0190556105cd565b80600185968294968a01358155019501930190611de8565b606490602087519162461bcd60e51b83528201526014602482015273151bdad95b88191bd95cc81b9bdd08195e1a5cdd60621b6044820152fd5b50611e7b84613738565b50508015611c5c575083855261010260205260ff868620541615611c5c565b865162461bcd60e51b8152602081840152602160248201527f4f6e6c7920746f6b656e2063726561746f722063616e207570646174652055526044820152604960f81b6064820152608490fd5b505034610415578160031936011261041557602090610104549051908152f35b5034610331578160031936011261033157611f206123bc565b906024359260ff6101095416600381101561211057600181036120c95750600180865261010860209081528287206001600160a01b0386166000908152920190526040902054156120bd575b6001600160a01b03918280611f80876133c1565b1694169380851461207057803314908115612051575b5015611fe95750838552610103602052842080546001600160a01b03191683179055611fc183612e4f565b167f8c5be1e5ebec7d5bd14f71427d1e84f3dd0314c0f7b2291e5b200ac8c7c3b9258480a480f35b6020608492519162461bcd60e51b8352820152603860248201527f4552433732313a20617070726f76652063616c6c6572206973206e6f74206f7760448201527f6e6572206e6f7220617070726f76656420666f7220616c6c00000000000000006064820152fd5b90508652609c60205281862033875260205260ff828720541638611f96565b506020608492519162461bcd60e51b8352820152602160248201527f4552433732313a20617070726f76616c20746f2063757272656e74206f776e656044820152603960f91b6064820152fd5b516282b42960e81b8152fd5b600203611f6c57600285526101086020526120ff81862060018060a01b0385169060019160005201602052604060002054151590565b15611f6c57516282b42960e81b8152fd5b634e487b7160e01b865260218352602486fd5b50913461072a57602036600319011261072a57506111526020923561349b565b5050346104155781600319360112610415578051908260975461216581612679565b80855291600191808316908115610c94575060011461219057505050610c2582610726940383612565565b9450609785527f354a83ed9988f79f6038d4c7a7dadbad8af32f4ad6df893e0e5807a1b1944ff95b8286106121d557505050610c258260206107269582010194610c13565b805460208787018101919091529095019481016121b8565b50346103315760203660031901126103315735906001600160e01b031982168083036107d1576020935063fa31a45b60e01b81149283156122b2575b831561223a575b5050519015158152f35b919250631030681960e21b8114919082156122a1575b8215612278575b508115612268575b50903880612230565b6122729150613878565b3861225f565b90915063152a902d60e11b148015612292575b9038612257565b5061229c81613878565b61228b565b6301ffc9a760e01b81149250612250565b6301ffc9a760e01b82149350612229565b50903461033157602091826003193601126107d1573560038110156107d1576122eb90612a3f565b9281518093808654928381520195835280832092905b8282106123195761072686866119c9828b0383612565565b835487529586019560019384019390910190612301565b6020908160408183019282815285518094520193019160005b828110612357575050505090565b83516001600160a01b031685529381019392810192600101612349565b60005b8381106123875750506000910152565b8181015183820152602001612377565b906020916123b081518092818552858086019101612374565b601f01601f1916010190565b600435906001600160a01b03821682036123d257565b600080fd5b602435906001600160a01b03821682036123d257565b604435906001600160a01b03821682036123d257565b9181601f840112156123d2578235916001600160401b0383116123d257602083818601950101116123d257565b9060406003198301126123d25760043591602435906001600160401b0382116123d25761245f91600401612403565b9091565b60609060031901126123d2576001600160a01b039060043582811681036123d2579160243590811681036123d2579060443590565b9190602083019260038210156124ab5752565b634e487b7160e01b600052602160045260246000fd5b60406003198201126123d25760043560038110156123d257916024356001600160401b03928382116123d257806023830112156123d25781600401359384116123d25760248460051b830101116123d2576024019190565b606081019081106001600160401b0382111761253457604052565b634e487b7160e01b600052604160045260246000fd5b602081019081106001600160401b0382111761253457604052565b90601f801991011681019081106001600160401b0382111761253457604052565b6001600160401b03811161253457601f01601f191660200190565b9291926125ad82612586565b916125bb6040519384612565565b8294818452818301116123d2578281602093846000960137010152565b6033546001600160a01b031633036125ec57565b606460405162461bcd60e51b815260206004820152602060248201527f4f776e61626c653a2063616c6c6572206973206e6f7420746865206f776e65726044820152fd5b603380546001600160a01b039283166001600160a01b0319821681179092559091167f8be0079c531659141344cd1fd0a4f28419497f9722a3daafe3b4186f6b6457e0600080a3565b90600182811c921680156126a9575b602083101461269357565b634e487b7160e01b600052602260045260246000fd5b91607f1691612688565b90604051918260008254926126c784612679565b90818452600194858116908160001461273657506001146126f3575b50506126f192500383612565565b565b9093915060005260209081600020936000915b81831061271e5750506126f1935082010138806126e3565b85548884018501529485019487945091830191612706565b9150506126f194506020925060ff191682840152151560051b82010138806126e3565b1561276057565b60405162461bcd60e51b815260206004820152602d60248201527f4552433732313a2063616c6c6572206973206e6f7420746f6b656e206f776e6560448201526c1c881bdc88185c1c1c9bdd9959609a1b6064820152608490fd5b60809060208152603260208201527f4552433732313a207472616e7366657220746f206e6f6e20455243373231526560408201527131b2b4bb32b91034b6b83632b6b2b73a32b960711b60608201520190565b1561281557565b60405162461bcd60e51b81528061282e600482016127bb565b0390fd5b9192600092909190803b1561294457612880946040518092630a85bd0160e11b9485835233600484015287602484015260448301526080606483015281878160209a8b966084830190612397565b03926001600160a01b03165af1849181612904575b506128f3575050503d6000146128eb573d6128af81612586565b906128bd6040519283612565565b81528091833d92013e5b805191826128e85760405162461bcd60e51b81528061282e600482016127bb565b01fd5b5060606128c7565b6001600160e01b0319161492509050565b9091508581813d831161293d575b61291c8183612565565b81010312610ae257516001600160e01b031981168103610ae2579038612895565b503d612912565b5050915050600190565b9293600093909291803b156129ce579484916129a89660405180948193630a85bd0160e11b9788845233600485015260018060a01b0380921660248501526044840152608060648401528260209b8c976084830190612397565b0393165af184918161290457506128f3575050503d6000146128eb573d6128af81612586565b505050915050600190565b9092916001600160401b038411612534578360051b6040519260208094612a0282850182612565565b80978152019181019283116123d257905b828210612a205750505050565b81356001600160a01b03811681036123d2578152908301908301612a13565b60038110156124ab57600052610108602052604060002090565b6000198114612a685760010190565b634e487b7160e01b600052601160045260246000fd5b8051821015612a925760209160051b010190565b634e487b7160e01b600052603260045260246000fd5b8054821015612a925760005260206000200190600090565b6000828152600182016020526040902054612b2757805490600160401b8210156125345782612b10612af9846001809601855584612aa8565b819391549060031b91821b91600019901b19161790565b905580549260005201602052604060002055600190565b5050600090565b90600182019060009281845282602052604084205490811515600014612c175760001991808301818111612c0357825490848201918211612bef57808203612bba575b50505080548015612ba657820191612b898383612aa8565b909182549160031b1b191690555582526020526040812055600190565b634e487b7160e01b86526031600452602486fd5b612bda612bca612af99386612aa8565b90549060031b1c92839286612aa8565b90558652846020526040862055388080612b71565b634e487b7160e01b88526011600452602488fd5b634e487b7160e01b87526011600452602487fd5b5050505090565b91908201809211612a6857565b15612c3257565b60405162461bcd60e51b815260206004820152602b60248201527f496e697469616c697a61626c653a20636f6e7472616374206973206e6f74206960448201526a6e697469616c697a696e6760a81b6064820152608490fd5b90601f8111612c9957505050565b600091825260208220906020601f850160051c83019410612cd5575b601f0160051c01915b828110612cca57505050565b818155600101612cbe565b9092508290612cb5565b15612ce657565b60405162461bcd60e51b815260206004820152601e60248201527f436f6e7472616374206d757374206e6f742062652064697361626c65642e00006044820152606490fd5b610105908154811015612a9257600391600052027ffc62abc8c0fc47c2d92f5aec99bf8b60f375828e14394d89345cae11a98673710190600090565b612d7081613738565b5050600082815261010260205260408120805460ff191660011790559080612e30575b612e2c57612da46108678333613431565b612dad82612e4f565b50612db782612e4f565b828252609b6020908152604080842080546001600160a01b03199081169091556001600160a01b03909316808552609a835281852080546000190190558585526099909252832080549092169091557fddf252ad1be2c89b69c2b068fc378daa952ba7f163c4a11628f55a4df523b3ef8280a4565b5050565b506000828152609960205260409020546001600160a01b031615612d93565b6000908152609960205260409020546001600160a01b03168015612e705790565b60405162461bcd60e51b815260206004820152601860248201527f4552433732313a20696e76616c696420746f6b656e20494400000000000000006044820152606490fd5b93929091600194610104958087540180975561010054871161302257612ef961087c604051612ee38161254a565b89600096878352612ef482826130b2565b612832565b868352602091610106835260408420918151916001600160401b03831161300e57612f2883610e7c8654612679565b8490601f8411600114612fa557928060fd9593819389989660409a94612f9a575b50501b916000199060031b1c19161790555b87835261010181528383209460018060a01b0395866001600160601b0360a01b98168882541617905560fe825284842055522092169082541617905590565b015192503880612f49565b8487528587209293929190601f198416885b818110612ff9575091604098979593918560fd98969410612fe0575b505050811b019055612f5b565b015160001960f88460031b161c19169055388080612fd3565b82840151855593860193928801928801612fb7565b634e487b7160e01b86526041600452602486fd5b606460405162461bcd60e51b815260206004820152602060248201527f5f637265617465546f6b656e3a3a6578636565646564206d6178546f6b656e736044820152fd5b1561306d57565b60405162461bcd60e51b815260206004820152601c60248201527f4552433732313a20746f6b656e20616c7265616479206d696e746564000000006044820152606490fd5b6001600160a01b03168015613162576000828152609960205260409020546130e6906001600160a01b031615155b15613066565b600082815260996020526040902054613109906001600160a01b031615156130e0565b6000818152609a6020526040812060018154019055828152609960205260408120826001600160601b0360a01b8254161790557fddf252ad1be2c89b69c2b068fc378daa952ba7f163c4a11628f55a4df523b3ef8180a4565b606460405162461bcd60e51b815260206004820152602060248201527f4552433732313a206d696e7420746f20746865207a65726f20616464726573736044820152fd5b6000818152610107906020928284526040926131c484842054612679565b6133b257506131d281613738565b91151590506131f057506131ed9361010691835252206126b3565b90565b928291807a184f03e93ff9f4daa797ed6e38ed64bf6a1f01000000000000000081818110156133a3575b5050866d04ee2d6d415b85acef810000000080841015613395575b5050662386f26fc1000080831015613386575b506305f5e10080831015613377575b5061271080831015613368575b506064821015613358575b600a8092101561334e575b600190816021818701966132a561329089612586565b9861329d89519a8b612565565b808a52612586565b888c019990601f1901368b3750870101905b613318575b5050505091602f60f81b946132fb6131ed95936026955197856132e88a9751809287808b019101612374565b8601938401525180936021840190612374565b0164173539b7b760d91b6021820152036006810184520182612565565b600019019083906f181899199a1a9b1b9c1cb0b131b232b360811b8282061a835304918215613349579190826132b7565b6132bc565b926001019261327a565b929060646002910491019261326f565b60049194920491019238613264565b60089194920491019238613257565b60109194920491019238613248565b940193909104908638613235565b9194509150048192388061321a565b90936131ed94835252206126b3565b6133ca81613738565b50506133d9576131ed90612e4f565b8060005261010260205260ff604060002054166000146133fc576131ed90612e4f565b6000818152609960205260409020546001600160a01b031661342857506033546001600160a01b031690565b6131ed90612e4f565b6001600160a01b03908180613445856133c1565b16911691818314938415613484575b5050821561346157505090565b909150600052609c60205260406000209060005260205260ff6040600020541690565b839294506134919061349b565b1614913880613454565b600081815260fd60205260408120546001600160a01b0392919083166134c083613738565b5050908115613559575b5080613541575b156134e757604091815261010360205220541690565b60405162461bcd60e51b815260206004820152602c60248201527f4552433732313a20617070726f76656420717565727920666f72206e6f6e657860448201526b34b9ba32b73a103a37b5b2b760a11b6064820152608490fd5b5081815261010260205260ff604082205416156134d1565b90501515386134ca565b9082156123d2576135ad9161357784613738565b5050806136bf575b806136a5575b613696575b61359384612e4f565b6001600160a01b03939184169284929091831684146136de565b1691821561364557816135ca916135c386612e4f565b16146136de565b7fddf252ad1be2c89b69c2b068fc378daa952ba7f163c4a11628f55a4df523b3ef6000848152609b602052604081206001600160601b0360a01b90818154169055838252609a6020526040822060001981540190558482526040822060018154019055858252609960205284604083209182541617905580a4565b60405162461bcd60e51b8152602060048201526024808201527f4552433732313a207472616e7366657220746f20746865207a65726f206164646044820152637265737360e01b6064820152608490fd5b6136a084826130b2565b61358a565b508360005261010260205260ff6040600020541615613585565b506000848152609960205260409020546001600160a01b03161561357f565b156136e557565b60405162461bcd60e51b815260206004820152602560248201527f4552433732313a207472616e736665722066726f6d20696e636f72726563742060448201526437bbb732b960d91b6064820152608490fd5b61010554919060005b838110613765575050905060009060009060405161375e8161254a565b6000815290565b61376e81612d2b565b5054821015806137a9575b61378b5761378690612a59565b613741565b8093506137989150612d2b565b50906131ed600260019493016126b3565b5060016137b582612d2b565b500154821115613779565b156137c757565b60405162461bcd60e51b815260206004820152601960248201527f426174636820696e646578206f7574206f6620626f756e6473000000000000006044820152606490fd5b1561381357565b60405162461bcd60e51b8152602060048201526015602482015274151bdad95b881554925cc8185c99481b1bd8dad959605a1b6044820152606490fd5b90918060409360208452816020850152848401376000828201840152601f01601f1916010190565b63ffffffff60e01b166380ac58cd60e01b81149081156138ab575b811561389d575090565b6301ffc9a760e01b14919050565b635b5e139f60e01b8114915061389356fe931f495b9a8e5d8e61946ea5d61e021f636cfe213a801f97589c18c152e408bda2646970667358221220b7b3549eeb6c701b304d1daf1583e6551a16b339b46acbccf877e20c1d2eba9c64736f6c63430008120033","linkReferences":{}},"methodIdentifiers":{"activateDeadmanListTrigger()":"5aec8d62","addNewToken(string)":"d9856c21","approve(address,uint256)":"095ea7b3","areTokenURIsLocked()":"631d1d9a","balanceOf(address)":"70a08231","batchAddAddressToRoyaltyList(uint8,address[])":"ff6e8c8f","batchMint(string,uint256)":"7cc918d1","batchRemoveAddressToRoyaltyList(uint8,address[])":"9e860f2a","burn(uint256)":"42966c68","clearList(uint8)":"bc719455","deleteToken(uint256)":"6297c16c","disableContract()":"894ba833","disabled()":"ee070805","getApproved(uint256)":"081812fc","getBatchCount()":"a8fabfa5","getBatchInfo(uint256)":"1a0058f5","getDeadmanTriggerAvailableDatetime()":"717392ed","getDefaultRoyaltyPercentage()":"ab69607a","getDefaultRoyaltyReceiver()":"3403c4e9","getInUseList()":"2ce878da","getList(uint8)":"012cf1e8","getListType()":"87bc793f","hasAdminPermission(address)":"20427486","init(string,string,address,uint256)":"5edc7c19","isApprovedForAll(address,address)":"e985e9c5","isOperatorInList(address)":"eab85118","lockTokenURIs()":"a448dd4f","maxTokens()":"e8315742","mintTo(string,address,address)":"4aa52c41","name()":"06fdde03","owner()":"8da5cb5b","ownerOf(uint256)":"6352211e","renounceOwnership()":"715018a6","royaltyInfo(uint256,uint256)":"2a55205a","safeTransferFrom(address,address,uint256)":"42842e0e","safeTransferFrom(address,address,uint256,bytes)":"b88d4fde","setApprovalForAll(address,bool)":"a22cb465","setDeadmanListTriggerRenewalDuration(uint256)":"21c4a5d8","setDefaultRoyaltyReceiver(address)":"3ebc82c5","setRoyaltyReceiverForToken(address,uint256)":"efc32cd4","supportsInterface(bytes4)":"01ffc9a7","symbol()":"95d89b41","toggleListType(uint8)":"472a6638","tokenCreator(uint256)":"40c1a064","tokenURI(uint256)":"c87b56dd","tokenURIsLocked()":"bb2ee99f","totalSupply()":"18160ddd","transferFrom(address,address,uint256)":"23b872dd","transferOwnership(address)":"f2fde38b","updateBatchBaseURI(uint256,string)":"de903ddd","updateTokenURI(uint256,string)":"18e97fd1"},"id":224}