{"abi":[{"type":"function","name":"addNewToken","inputs":[{"name":"_uri","type":"string","internalType":"string"}],"outputs":[],"stateMutability":"nonpayable"},{"type":"function","name":"approve","inputs":[{"name":"to","type":"address","internalType":"address"},{"name":"tokenId","type":"uint256","internalType":"uint256"}],"outputs":[],"stateMutability":"nonpayable"},{"type":"function","name":"areTokenURIsLocked","inputs":[],"outputs":[{"name":"","type":"bool","internalType":"bool"}],"stateMutability":"view"},{"type":"function","name":"balanceOf","inputs":[{"name":"owner","type":"address","internalType":"address"}],"outputs":[{"name":"","type":"uint256","internalType":"uint256"}],"stateMutability":"view"},{"type":"function","name":"batchMint","inputs":[{"name":"_baseURI","type":"string","internalType":"string"},{"name":"_numberOfTokens","type":"uint256","internalType":"uint256"}],"outputs":[],"stateMutability":"nonpayable"},{"type":"function","name":"burn","inputs":[{"name":"_tokenId","type":"uint256","internalType":"uint256"}],"outputs":[],"stateMutability":"nonpayable"},{"type":"function","name":"deleteToken","inputs":[{"name":"_tokenId","type":"uint256","internalType":"uint256"}],"outputs":[],"stateMutability":"nonpayable"},{"type":"function","name":"disableContract","inputs":[],"outputs":[],"stateMutability":"nonpayable"},{"type":"function","name":"disabled","inputs":[],"outputs":[{"name":"","type":"bool","internalType":"bool"}],"stateMutability":"view"},{"type":"function","name":"getApproved","inputs":[{"name":"_tokenId","type":"uint256","internalType":"uint256"}],"outputs":[{"name":"","type":"address","internalType":"address"}],"stateMutability":"view"},{"type":"function","name":"getBatchCount","inputs":[],"outputs":[{"name":"","type":"uint256","internalType":"uint256"}],"stateMutability":"view"},{"type":"function","name":"getBatchInfo","inputs":[{"name":"_batchIndex","type":"uint256","internalType":"uint256"}],"outputs":[{"name":"startTokenId","type":"uint256","internalType":"uint256"},{"name":"endTokenId","type":"uint256","internalType":"uint256"},{"name":"baseURI","type":"string","internalType":"string"}],"stateMutability":"view"},{"type":"function","name":"getDefaultRoyaltyPercentage","inputs":[],"outputs":[{"name":"","type":"uint256","internalType":"uint256"}],"stateMutability":"view"},{"type":"function","name":"getDefaultRoyaltyReceiver","inputs":[],"outputs":[{"name":"","type":"address","internalType":"address"}],"stateMutability":"view"},{"type":"function","name":"init","inputs":[{"name":"_name","type":"string","internalType":"string"},{"name":"_symbol","type":"string","internalType":"string"},{"name":"_creator","type":"address","internalType":"address"},{"name":"_maxTokens","type":"uint256","internalType":"uint256"}],"outputs":[],"stateMutability":"nonpayable"},{"type":"function","name":"isApprovedForAll","inputs":[{"name":"owner","type":"address","internalType":"address"},{"name":"operator","type":"address","internalType":"address"}],"outputs":[{"name":"","type":"bool","internalType":"bool"}],"stateMutability":"view"},{"type":"function","name":"lockTokenURIs","inputs":[],"outputs":[],"stateMutability":"nonpayable"},{"type":"function","name":"maxTokens","inputs":[],"outputs":[{"name":"","type":"uint256","internalType":"uint256"}],"stateMutability":"view"},{"type":"function","name":"mintTo","inputs":[{"name":"_uri","type":"string","internalType":"string"},{"name":"_receiver","type":"address","internalType":"address"},{"name":"_royaltyReceiver","type":"address","internalType":"address"}],"outputs":[],"stateMutability":"nonpayable"},{"type":"function","name":"name","inputs":[],"outputs":[{"name":"","type":"string","internalType":"string"}],"stateMutability":"view"},{"type":"function","name":"owner","inputs":[],"outputs":[{"name":"","type":"address","internalType":"address"}],"stateMutability":"view"},{"type":"function","name":"ownerOf","inputs":[{"name":"_tokenId","type":"uint256","internalType":"uint256"}],"outputs":[{"name":"","type":"address","internalType":"address"}],"stateMutability":"view"},{"type":"function","name":"renounceOwnership","inputs":[],"outputs":[],"stateMutability":"nonpayable"},{"type":"function","name":"royaltyInfo","inputs":[{"name":"_tokenId","type":"uint256","internalType":"uint256"},{"name":"_salePrice","type":"uint256","internalType":"uint256"}],"outputs":[{"name":"receiver","type":"address","internalType":"address"},{"name":"royaltyAmount","type":"uint256","internalType":"uint256"}],"stateMutability":"view"},{"type":"function","name":"safeTransferFrom","inputs":[{"name":"from","type":"address","internalType":"address"},{"name":"to","type":"address","internalType":"address"},{"name":"tokenId","type":"uint256","internalType":"uint256"}],"outputs":[],"stateMutability":"nonpayable"},{"type":"function","name":"safeTransferFrom","inputs":[{"name":"from","type":"address","internalType":"address"},{"name":"to","type":"address","internalType":"address"},{"name":"tokenId","type":"uint256","internalType":"uint256"},{"name":"data","type":"bytes","internalType":"bytes"}],"outputs":[],"stateMutability":"nonpayable"},{"type":"function","name":"setApprovalForAll","inputs":[{"name":"operator","type":"address","internalType":"address"},{"name":"approved","type":"bool","internalType":"bool"}],"outputs":[],"stateMutability":"nonpayable"},{"type":"function","name":"setDefaultRoyaltyReceiver","inputs":[{"name":"_receiver","type":"address","internalType":"address"}],"outputs":[],"stateMutability":"nonpayable"},{"type":"function","name":"setRoyaltyReceiverForToken","inputs":[{"name":"_receiver","type":"address","internalType":"address"},{"name":"_tokenId","type":"uint256","internalType":"uint256"}],"outputs":[],"stateMutability":"nonpayable"},{"type":"function","name":"supportsInterface","inputs":[{"name":"interfaceId","type":"bytes4","internalType":"bytes4"}],"outputs":[{"name":"","type":"bool","internalType":"bool"}],"stateMutability":"view"},{"type":"function","name":"symbol","inputs":[],"outputs":[{"name":"","type":"string","internalType":"string"}],"stateMutability":"view"},{"type":"function","name":"tokenCreator","inputs":[{"name":"","type":"uint256","internalType":"uint256"}],"outputs":[{"name":"","type":"address","internalType":"address payable"}],"stateMutability":"view"},{"type":"function","name":"tokenURI","inputs":[{"name":"_tokenId","type":"uint256","internalType":"uint256"}],"outputs":[{"name":"","type":"string","internalType":"string"}],"stateMutability":"view"},{"type":"function","name":"tokenURIsLocked","inputs":[],"outputs":[{"name":"","type":"bool","internalType":"bool"}],"stateMutability":"view"},{"type":"function","name":"totalSupply","inputs":[],"outputs":[{"name":"","type":"uint256","internalType":"uint256"}],"stateMutability":"view"},{"type":"function","name":"transferFrom","inputs":[{"name":"from","type":"address","internalType":"address"},{"name":"to","type":"address","internalType":"address"},{"name":"tokenId","type":"uint256","internalType":"uint256"}],"outputs":[],"stateMutability":"nonpayable"},{"type":"function","name":"transferOwnership","inputs":[{"name":"newOwner","type":"address","internalType":"address"}],"outputs":[],"stateMutability":"nonpayable"},{"type":"function","name":"updateBatchBaseURI","inputs":[{"name":"_batchIndex","type":"uint256","internalType":"uint256"},{"name":"_newBaseURI","type":"string","internalType":"string"}],"outputs":[],"stateMutability":"nonpayable"},{"type":"function","name":"updateTokenURI","inputs":[{"name":"_tokenId","type":"uint256","internalType":"uint256"},{"name":"_newURI","type":"string","internalType":"string"}],"outputs":[],"stateMutability":"nonpayable"},{"type":"event","name":"Approval","inputs":[{"name":"owner","type":"address","indexed":true,"internalType":"address"},{"name":"approved","type":"address","indexed":true,"internalType":"address"},{"name":"tokenId","type":"uint256","indexed":true,"internalType":"uint256"}],"anonymous":false},{"type":"event","name":"ApprovalForAll","inputs":[{"name":"owner","type":"address","indexed":true,"internalType":"address"},{"name":"operator","type":"address","indexed":true,"internalType":"address"},{"name":"approved","type":"bool","indexed":false,"internalType":"bool"}],"anonymous":false},{"type":"event","name":"BatchBaseURIUpdated","inputs":[{"name":"batchIndex","type":"uint256","indexed":true,"internalType":"uint256"},{"name":"newBaseURI","type":"string","indexed":false,"internalType":"string"}],"anonymous":false},{"type":"event","name":"ConsecutiveTransfer","inputs":[{"name":"fromTokenId","type":"uint256","indexed":true,"internalType":"uint256"},{"name":"toTokenId","type":"uint256","indexed":false,"internalType":"uint256"},{"name":"fromAddress","type":"address","indexed":true,"internalType":"address"},{"name":"toAddress","type":"address","indexed":true,"internalType":"address"}],"anonymous":false},{"type":"event","name":"ContractDisabled","inputs":[{"name":"user","type":"address","indexed":true,"internalType":"address"}],"anonymous":false},{"type":"event","name":"Initialized","inputs":[{"name":"version","type":"uint8","indexed":false,"internalType":"uint8"}],"anonymous":false},{"type":"event","name":"OwnershipTransferred","inputs":[{"name":"previousOwner","type":"address","indexed":true,"internalType":"address"},{"name":"newOwner","type":"address","indexed":true,"internalType":"address"}],"anonymous":false},{"type":"event","name":"TokenURIUpdated","inputs":[{"name":"tokenId","type":"uint256","indexed":true,"internalType":"uint256"},{"name":"newURI","type":"string","indexed":false,"internalType":"string"}],"anonymous":false},{"type":"event","name":"TokenURIsLocked","inputs":[],"anonymous":false},{"type":"event","name":"Transfer","inputs":[{"name":"from","type":"address","indexed":true,"internalType":"address"},{"name":"to","type":"address","indexed":true,"internalType":"address"},{"name":"tokenId","type":"uint256","indexed":true,"internalType":"uint256"}],"anonymous":false}],"bytecode":{"object":"0x6080806040523461001657612e28908161001c8239f35b600080fdfe6080604081815260048036101561001557600080fd5b600092833560e01c90816301ffc9a714611a8b5750806306fdde03146119e1578063081812fc146119c1578063095ea7b31461185057806318160ddd1461183057806318e97fd11461153f5780631a0058f5146114c357806323b872dd1461149e5780632a55205a1461140c5780633403c4e9146113e35780633ebc82c5146113a157806340c1a0641461137757806342842e0e1461134357806342966c68146113265780634aa52c41146112b65780635edc7c1914610dac5780636297c16c14610d30578063631d1d9a146105745780636352211e14610cff57806370a0823114610c69578063715018a614610c0c5780637cc918d11461092e578063894ba833146108e05780638da5cb5b146108b757806395d89b41146107d2578063a22cb46514610703578063a448dd4f14610663578063a8fabfa514610643578063ab69607a14610624578063b88d4fde1461059a578063bb2ee99f14610574578063c87b56dd14610539578063d9856c21146104cd578063de903ddd14610348578063e831574214610328578063e985e9c5146102da578063ee070805146102b7578063efc32cd4146102645763f2fde38b146101d057600080fd5b34610260576020366003190112610260576101e9611b70565b916101f2611d0b565b6001600160a01b0383161561020e578361020b84611d63565b80f35b906020608492519162461bcd60e51b8352820152602660248201527f4f776e61626c653a206e6577206f776e657220697320746865207a65726f206160448201526564647265737360d01b6064820152fd5b8280fd5b5050346102b357806003193601126102b35761027e611b70565b90610287611d0b565b602435835260fd602052822080546001600160a01b0319166001600160a01b0390921691909117905580f35b5080fd5b5050346102b357816003193601126102b35760209060ff80541690519015158152f35b5050346102b357806003193601126102b35760ff816020936102fa611b70565b610302611b8b565b6001600160a01b039182168352609c875283832091168252855220549151911615158152f35b5050346102b357816003193601126102b357602090610100549051908152f35b508290346102b35761035936611be4565b9192610363611d0b565b61038060ff8054610376828216156121c0565b60081c1615612d66565b61038e610105548510612cd6565b60026103998561220c565b5001906001600160401b0384116104ba57506103bf836103b98354611dac565b8361216c565b84601f841160011461042b579561041a918487987fd181cc8d0dc01c4c286c3f799294fcd18a386821e71c9d771a3a19827b49560c979891610420575b508560011b906000198760031b1c19161790555b5192839283612daa565b0390a280f35b9050840135896103fc565b81865260208087209190601f1986169088905b8282106104a25750509161041a9391867fd181cc8d0dc01c4c286c3f799294fcd18a386821e71c9d771a3a19827b49560c98999a9410610488575b5050600185811b019055610410565b850135600019600388901b60f8161c191690558880610479565b80600185968294968a0135815501950193019061043e565b634e487b7160e01b865260419052602485fd5b8382346102b35760203660031901126102b35780356001600160401b0381116102605736602382011215610260576105359181602461051193369301359101611cd4565b610519611d0b565b61052760ff805416156121c0565b60fc543391829081906123ac565b5080f35b509134610571576020366003190112610571575061055a61056d92356126a3565b9051918291602083526020830190611b4b565b0390f35b80fd5b5050346102b357816003193601126102b35760209060ff805460081c1690519015158152f35b8382346102b35760803660031901126102b3576105b5611b70565b906105be611b8b565b91604435606435936001600160401b0385116106205736602386011215610620576105f861061b9486602461020b98369301359101611cd4565b9261060b610606843361292e565b611e8c565b610616838383612a60565b612081565b611f41565b8580fd5b5050346102b357816003193601126102b35760209060fc549051908152f35b5050346102b357816003193601126102b357602090610105549051908152f35b503461026057826003193601126102605761067c611d0b565b60ff549160ff8360081c166106c05761ff001983166101001760ff55837f1cc7fa91d8671f564b11ea19e789522d84788cad2329b82dcc0b6ae1ff2338dd8180a180f35b906020606492519162461bcd60e51b8352820152601d60248201527f546f6b656e20555249732061726520616c7265616479206c6f636b65640000006044820152fd5b50903461026057806003193601126102605761071d611b70565b90602435918215158093036107ce576001600160a01b03169233841461078c5750338452609c60205280842083855260205280842060ff1981541660ff8416179055519081527f17307eab39ab6107e8899845ad3d59bd9653f200f220920489ca2b5937696c3160203392a380f35b6020606492519162461bcd60e51b8352820152601960248201527f4552433732313a20617070726f766520746f2063616c6c6572000000000000006044820152fd5b8480fd5b5050346102b357816003193601126102b357805190826098546107f481611dac565b8085529160019180831690811561088f5750600114610832575b5050506108208261056d940383611c98565b51918291602083526020830190611b4b565b9450609885527f2237a976fa961f5921fd19f2b03c925c725d77b20ce8f790c19709c03de4d8145b8286106108775750505061082082602061056d958201019461080e565b8054602087870181019190915290950194810161085a565b61056d97508693506020925061082094915060ff191682840152151560051b8201019461080e565b5050346102b357816003193601126102b35760335490516001600160a01b039091168152602090f35b83346105715780600319360112610571576108f9611d0b565b600160ff1960ff54161760ff55337f793bc6423dd0257d64f9d47db72fd4b2162f4541aa41740ba1c5fb5e2cd41bcd8280a280f35b509190346102b357806003193601126102b3576001600160401b03928035848111610c08576109609036908301611bb7565b61096b959195611d0b565b61097960ff805416156121c0565b6101049081549660019384890194858a11610bf5576024998a350193818501808811610be3578511610bd15788519560209687810181811086821117610bbf578b52869052859055610100548511610b7d5789906109ed8a51956109dc87611c4c565b898752888701928884523691611cd4565b948a810195865261010580549068010000000000000000821015610b6b578582019055610a199061220c565b939093610b5a575090600292915182555183820155019251968751928311610b485750889950610a5782610a51859b999a9b54611dac565b8561216c565b8497601f8311600114610ac4578291889983927fdeaa91b6123d068f5821d0fb0678463d1a8a6079fe8af5de3ce5e896dcf9133d999a94610ab9575b50501b916000199060031b1c19161790555b60018060a01b03603354169551908152a480f35b015192503880610a93565b8388528588209098919291601f198316895b818110610b30575099837fdeaa91b6123d068f5821d0fb0678463d1a8a6079fe8af5de3ce5e896dcf9133d999a9b10610b17575b505050811b019055610aa5565b015160001960f88460031b161c19169055388080610b0a565b828c015184558d9a5092850192918801918801610ad6565b634e487b7160e01b8a52604190528989fd5b634e487b7160e01b8152808b528d90fd5b634e487b7160e01b855260418c528e85fd5b885162461bcd60e51b8152808901879052601d818d01527f62617463684d696e743a3a6578636565646564206d6178546f6b656e730000006044820152606490fd5b634e487b7160e01b8d5260418b528d8dfd5b634e487b7160e01b8a52601188528a8afd5b634e487b7160e01b8b52601189528b8bfd5b634e487b7160e01b895260118752602489fd5b8380fd5b8334610571578060031936011261057157610c25611d0b565b603380546001600160a01b0319811690915581906001600160a01b03167f8be0079c531659141344cd1fd0a4f28419497f9722a3daafe3b4186f6b6457e08280a380f35b508290346102b35760203660031901126102b3576001600160a01b03610c8d611b70565b16908115610caa576020848085858152609a845220549051908152f35b608490602085519162461bcd60e51b8352820152602960248201527f4552433732313a2061646472657373207a65726f206973206e6f7420612076616044820152683634b21037bbb732b960b91b6064820152fd5b5091346105715760203660031901126105715750610d1f602092356128be565b90516001600160a01b039091168152f35b503461026057602036600319011261026057803591610d4e836128be565b336001600160a01b0390911603610d69578361020b8461225e565b906020606492519162461bcd60e51b8352820152601760248201527f4d757374206265206f776e6572206f6620746f6b656e2e0000000000000000006044820152fd5b509034610260576080366003190112610260576001600160401b039180358381116107ce57610dde9036908301611bb7565b91906024358581116112b257610df79036908401611bb7565b610e02969196611ba1565b9388549760ff94858a60081c1615978880996112a6575b8015611290575b1561123657600160ff198c1681178d559a89611225575b506001600160a01b038816156111e257610e959291610e8d91610e7d898f600a60fc5561ffff198254168255606435610100555460081c16610e788161210c565b61210c565b610e8633611d63565b3691611cd4565b933691611cd4565b90610ea9858b5460081c16610e788161210c565b82518481116111cf5780610ebe609754611dac565b94601f9586811161115e575b506020908d8784116001146110df57926110d4575b5050600019600383901b1c1916908a1b176097555b81519384116110c15750610f09609854611dac565b82811161105e575b506020918311600114610fd2579180610f86959492610f5e948b92610fc7575b5050600019600383901b1c191690881b176098555b875460081c16610f558161210c565b610e788161210c565b60fb80546001600160a01b0319166001600160a01b038316179055610f81611d0b565b611d63565b610f8e578280f35b825461ff0019168355519081527f7f26b83ff96e1f2b6a682f133852f6798a09c465da95921460cefb384740249890602090a138808280f35b015190503880610f31565b609889528792917f2237a976fa961f5921fd19f2b03c925c725d77b20ce8f790c19709c03de4d81491601f1984168b5b818110611046575091610f5e95939185610f86999896941061102d575b505050811b01609855610f46565b015160001960f88460031b161c1916905538808061101f565b8284015185558b969094019360209384019301611002565b60988a527f2237a976fa961f5921fd19f2b03c925c725d77b20ce8f790c19709c03de4d8148380860160051c820192602087106110b8575b0160051c019089905b8281106110ad575050610f11565b8b815501899061109f565b92508192611096565b634e487b7160e01b8a5260419052602489fd5b015190503880610edf565b91908d9450601f198416609784527f354a83ed9988f79f6038d4c7a7dadbad8af32f4ad6df893e0e5807a1b1944ff9935b8181106111465750841161112d575b505050811b01609755610ef4565b015160001960f88460031b161c1916905538808061111f565b8284015185558f969094019360209384019301611110565b90915060978d527f354a83ed9988f79f6038d4c7a7dadbad8af32f4ad6df893e0e5807a1b1944ff98680850160051c820192602086106111c6575b859493910160051c909101908d908f5b8382106111b857505050610eca565b81558594508e91018f6111a9565b92508192611199565b634e487b7160e01b8b526041825260248bfd5b895162461bcd60e51b8152602081860152601e60248201527f63726561746f722063616e6e6f74206265206e756c6c206164647265737300006044820152606490fd5b61ffff1916610101178c5538610e37565b895162461bcd60e51b8152602081860152602e60248201527f496e697469616c697a61626c653a20636f6e747261637420697320616c72656160448201526d191e481a5b9a5d1a585b1a5e995960921b6064820152608490fd5b50303b158015610e2057506001878c1614610e20565b506001878c1610610e19565b8680fd5b8382346102b35760603660031901126102b35780356001600160401b03811161026057610535916112e991369101611bb7565b906112f2611b8b565b6112fa611ba1565b92611303611d0b565b61131160ff805416156121c0565b61132160fc549333923691611cd4565b6123ac565b8382346102b35760203660031901126102b35761020b903561225e565b5050346102b35761061b61020b9161135a36611c17565b9192519261136784611c7d565b86845261060b610606843361292e565b5050346102b35760203660031901126102b35760335490516001600160a01b039091168152602090f35b83346105715760203660031901126105715761020b6113be611b70565b6113c6611d0b565b60018060a01b03166001600160601b0360a01b60fb54161760fb55565b5050346102b357816003193601126102b35760fb5490516001600160a01b039091168152602090f35b5091346105715781600319360112610571578235815260fd60205281812054602435906001600160a01b03908116801561149257925b60fe60205284812054801561148857925b8381029381850414901517156114755750835192168252606490046020820152f35b634e487b7160e01b815260118652602490fd5b5060fc5492611453565b508060fb541692611442565b83346105715761020b6114b036611c17565b916114be610606843361292e565b612a60565b50823461057157602036600319011261057157506114ef90356114ea610105548210612cd6565b61220c565b5061056d82516114fe81611c4c565b82548152606061151c60026001860154956020850196875201611de6565b918286820152519351948051958695865260208601528401526060830190611b4b565b508290346102b35761155036611be4565b919260ff5461156260ff8216156121c0565b6033546001600160a01b031633036117e35760ff6115849160081c1615612d66565b6000848152609960205260409020546001600160a01b0316151580156117ba575b15611780576115b384612c35565b5050156116a65783855260206101078152868620916001600160401b03851161169357506115eb846115e58454611dac565b8461216c565b8590601f851160011461163457509561041a91848798600080516020612dd383398151915297989161042057508560011b906000198760031b1c19161790555192839283612daa565b90601f1985168388528288209288905b82821061167b5750509161041a939186600080516020612dd383398151915298999a9410610488575050600185811b019055610410565b80600185968294968a01358155019501930190611644565b634e487b7160e01b875260419052602486fd5b83855260206101068152868620916001600160401b03851161169357506116d1846115e58454611dac565b8590601f851160011461172157509561041a91848798600080516020612dd3833981519152979891611716575b508560011b906000198760031b1c1916179055610410565b9050840135896116fe565b90601f1985168388528288209288905b8282106117685750509161041a939186600080516020612dd383398151915298999a9410610488575050600185811b019055610410565b80600185968294968a01358155019501930190611731565b606490602087519162461bcd60e51b83528201526014602482015273151bdad95b88191bd95cc81b9bdd08195e1a5cdd60621b6044820152fd5b506117c484612c35565b505080156115a5575083855261010260205260ff8686205416156115a5565b865162461bcd60e51b8152602081840152602160248201527f4f6e6c7920746f6b656e2063726561746f722063616e207570646174652055526044820152604960f81b6064820152608490fd5b5050346102b357816003193601126102b357602090610104549051908152f35b5034610260578160031936011261026057611869611b70565b6024359290916001600160a01b0391908280611884876128be565b1694169380851461197457803314908115611955575b50156118ed5750838552610103602052842080546001600160a01b031916831790556118c583612346565b167f8c5be1e5ebec7d5bd14f71427d1e84f3dd0314c0f7b2291e5b200ac8c7c3b9258480a480f35b6020608492519162461bcd60e51b8352820152603860248201527f4552433732313a20617070726f76652063616c6c6572206973206e6f74206f7760448201527f6e6572206e6f7220617070726f76656420666f7220616c6c00000000000000006064820152fd5b90508652609c60205281862033875260205260ff82872054163861189a565b506020608492519162461bcd60e51b8352820152602160248201527f4552433732313a20617070726f76616c20746f2063757272656e74206f776e656044820152603960f91b6064820152fd5b5091346105715760203660031901126105715750610d1f60209235612998565b5050346102b357816003193601126102b35780519082609754611a0381611dac565b8085529160019180831690811561088f5750600114611a2e575050506108208261056d940383611c98565b9450609785527f354a83ed9988f79f6038d4c7a7dadbad8af32f4ad6df893e0e5807a1b1944ff95b828610611a735750505061082082602061056d958201019461080e565b80546020878701810191909152909501948101611a56565b92505034610260576020366003190112610260573563ffffffff60e01b811690818103610c085760209350631030681960e21b8214918215611b17575b8215611aee575b508115611ade575b5015158152f35b611ae89150612d22565b38611ad7565b90915063152a902d60e11b148015611b08575b9038611acf565b50611b1281612d22565b611b01565b6301ffc9a760e01b81149250611ac8565b60005b838110611b3b5750506000910152565b8181015183820152602001611b2b565b90602091611b6481518092818552858086019101611b28565b601f01601f1916010190565b600435906001600160a01b0382168203611b8657565b600080fd5b602435906001600160a01b0382168203611b8657565b604435906001600160a01b0382168203611b8657565b9181601f84011215611b86578235916001600160401b038311611b865760208381860195010111611b8657565b906040600319830112611b865760043591602435906001600160401b038211611b8657611c1391600401611bb7565b9091565b6060906003190112611b86576001600160a01b03906004358281168103611b8657916024359081168103611b86579060443590565b606081019081106001600160401b03821117611c6757604052565b634e487b7160e01b600052604160045260246000fd5b602081019081106001600160401b03821117611c6757604052565b90601f801991011681019081106001600160401b03821117611c6757604052565b6001600160401b038111611c6757601f01601f191660200190565b929192611ce082611cb9565b91611cee6040519384611c98565b829481845281830111611b86578281602093846000960137010152565b6033546001600160a01b03163303611d1f57565b606460405162461bcd60e51b815260206004820152602060248201527f4f776e61626c653a2063616c6c6572206973206e6f7420746865206f776e65726044820152fd5b603380546001600160a01b039283166001600160a01b0319821681179092559091167f8be0079c531659141344cd1fd0a4f28419497f9722a3daafe3b4186f6b6457e0600080a3565b90600182811c92168015611ddc575b6020831014611dc657565b634e487b7160e01b600052602260045260246000fd5b91607f1691611dbb565b9060405191826000825492611dfa84611dac565b908184526001948581169081600014611e695750600114611e26575b5050611e2492500383611c98565b565b9093915060005260209081600020936000915b818310611e51575050611e2493508201013880611e16565b85548884018501529485019487945091830191611e39565b915050611e2494506020925060ff191682840152151560051b8201013880611e16565b15611e9357565b60405162461bcd60e51b815260206004820152602d60248201527f4552433732313a2063616c6c6572206973206e6f7420746f6b656e206f776e6560448201526c1c881bdc88185c1c1c9bdd9959609a1b6064820152608490fd5b60809060208152603260208201527f4552433732313a207472616e7366657220746f206e6f6e20455243373231526560408201527131b2b4bb32b91034b6b83632b6b2b73a32b960711b60608201520190565b15611f4857565b60405162461bcd60e51b815280611f6160048201611eee565b0390fd5b9192600092909190803b1561207757611fb3946040518092630a85bd0160e11b9485835233600484015287602484015260448301526080606483015281878160209a8b966084830190611b4b565b03926001600160a01b03165af1849181612037575b50612026575050503d60001461201e573d611fe281611cb9565b90611ff06040519283611c98565b81528091833d92013e5b8051918261201b5760405162461bcd60e51b815280611f6160048201611eee565b01fd5b506060611ffa565b6001600160e01b0319161492509050565b9091508581813d8311612070575b61204f8183611c98565b810103126107ce57516001600160e01b0319811681036107ce579038611fc8565b503d612045565b5050915050600190565b9293600093909291803b15612101579484916120db9660405180948193630a85bd0160e11b9788845233600485015260018060a01b0380921660248501526044840152608060648401528260209b8c976084830190611b4b565b0393165af18491816120375750612026575050503d60001461201e573d611fe281611cb9565b505050915050600190565b1561211357565b60405162461bcd60e51b815260206004820152602b60248201527f496e697469616c697a61626c653a20636f6e7472616374206973206e6f74206960448201526a6e697469616c697a696e6760a81b6064820152608490fd5b90601f811161217a57505050565b600091825260208220906020601f850160051c830194106121b6575b601f0160051c01915b8281106121ab57505050565b81815560010161219f565b9092508290612196565b156121c757565b60405162461bcd60e51b815260206004820152601e60248201527f436f6e7472616374206d757374206e6f742062652064697361626c65642e00006044820152606490fd5b61010590815481101561224857600391600052027ffc62abc8c0fc47c2d92f5aec99bf8b60f375828e14394d89345cae11a98673710190600090565b634e487b7160e01b600052603260045260246000fd5b61226781612c35565b5050600082815261010260205260408120805460ff191660011790559080612327575b6123235761229b610606833361292e565b6122a482612346565b506122ae82612346565b828252609b6020908152604080842080546001600160a01b03199081169091556001600160a01b03909316808552609a835281852080546000190190558585526099909252832080549092169091557fddf252ad1be2c89b69c2b068fc378daa952ba7f163c4a11628f55a4df523b3ef8280a4565b5050565b506000828152609960205260409020546001600160a01b03161561228a565b6000908152609960205260409020546001600160a01b031680156123675790565b60405162461bcd60e51b815260206004820152601860248201527f4552433732313a20696e76616c696420746f6b656e20494400000000000000006044820152606490fd5b93929091600194610104958087540180975561010054871161251f576123f061061b6040516123da81611c7d565b896000968783526123eb82826125af565b611f65565b868352602091610106835260408420918151916001600160401b03831161250b576124258361241f8654611dac565b8661216c565b8490601f84116001146124a257928060fd9593819389989660409a94612497575b50501b916000199060031b1c19161790555b87835261010181528383209460018060a01b0395866001600160601b0360a01b98168882541617905560fe825284842055522092169082541617905590565b015192503880612446565b8487528587209293929190601f198416885b8181106124f6575091604098979593918560fd989694106124dd575b505050811b019055612458565b015160001960f88460031b161c191690553880806124d0565b828401518555938601939288019288016124b4565b634e487b7160e01b86526041600452602486fd5b606460405162461bcd60e51b815260206004820152602060248201527f5f637265617465546f6b656e3a3a6578636565646564206d6178546f6b656e736044820152fd5b1561256a57565b60405162461bcd60e51b815260206004820152601c60248201527f4552433732313a20746f6b656e20616c7265616479206d696e746564000000006044820152606490fd5b6001600160a01b0316801561265f576000828152609960205260409020546125e3906001600160a01b031615155b15612563565b600082815260996020526040902054612606906001600160a01b031615156125dd565b6000818152609a6020526040812060018154019055828152609960205260408120826001600160601b0360a01b8254161790557fddf252ad1be2c89b69c2b068fc378daa952ba7f163c4a11628f55a4df523b3ef8180a4565b606460405162461bcd60e51b815260206004820152602060248201527f4552433732313a206d696e7420746f20746865207a65726f20616464726573736044820152fd5b6000818152610107906020928284526040926126c184842054611dac565b6128af57506126cf81612c35565b91151590506126ed57506126ea936101069183525220611de6565b90565b928291807a184f03e93ff9f4daa797ed6e38ed64bf6a1f01000000000000000081818110156128a0575b5050866d04ee2d6d415b85acef810000000080841015612892575b5050662386f26fc1000080831015612883575b506305f5e10080831015612874575b5061271080831015612865575b506064821015612855575b600a8092101561284b575b600190816021818701966127a261278d89611cb9565b9861279a89519a8b611c98565b808a52611cb9565b888c019990601f1901368b3750870101905b612815575b5050505091602f60f81b946127f86126ea95936026955197856127e58a9751809287808b019101611b28565b8601938401525180936021840190611b28565b0164173539b7b760d91b6021820152036006810184520182611c98565b600019019083906f181899199a1a9b1b9c1cb0b131b232b360811b8282061a835304918215612846579190826127b4565b6127b9565b9260010192612777565b929060646002910491019261276c565b60049194920491019238612761565b60089194920491019238612754565b60109194920491019238612745565b940193909104908638612732565b91945091500481923880612717565b90936126ea9483525220611de6565b6128c781612c35565b50506128d6576126ea90612346565b8060005261010260205260ff604060002054166000146128f9576126ea90612346565b6000818152609960205260409020546001600160a01b031661292557506033546001600160a01b031690565b6126ea90612346565b6001600160a01b03908180612942856128be565b16911691818314938415612981575b5050821561295e57505090565b909150600052609c60205260406000209060005260205260ff6040600020541690565b8392945061298e90612998565b1614913880612951565b600081815260fd60205260408120546001600160a01b0392919083166129bd83612c35565b5050908115612a56575b5080612a3e575b156129e457604091815261010360205220541690565b60405162461bcd60e51b815260206004820152602c60248201527f4552433732313a20617070726f76656420717565727920666f72206e6f6e657860448201526b34b9ba32b73a103a37b5b2b760a11b6064820152608490fd5b5081815261010260205260ff604082205416156129ce565b90501515386129c7565b908215611b8657612aaa91612a7484612c35565b505080612bbc575b80612ba2575b612b93575b612a9084612346565b6001600160a01b0393918416928492909183168414612bdb565b16918215612b425781612ac791612ac086612346565b1614612bdb565b7fddf252ad1be2c89b69c2b068fc378daa952ba7f163c4a11628f55a4df523b3ef6000848152609b602052604081206001600160601b0360a01b90818154169055838252609a6020526040822060001981540190558482526040822060018154019055858252609960205284604083209182541617905580a4565b60405162461bcd60e51b8152602060048201526024808201527f4552433732313a207472616e7366657220746f20746865207a65726f206164646044820152637265737360e01b6064820152608490fd5b612b9d84826125af565b612a87565b508360005261010260205260ff6040600020541615612a82565b506000848152609960205260409020546001600160a01b031615612a7c565b15612be257565b60405162461bcd60e51b815260206004820152602560248201527f4552433732313a207472616e736665722066726f6d20696e636f72726563742060448201526437bbb732b960d91b6064820152608490fd5b61010554919060005b838110612c625750509050600090600090604051612c5b81611c7d565b6000815290565b612c6b8161220c565b505482101580612cbf575b612ca1576000198114612c8b57600101612c3e565b634e487b7160e01b600052601160045260246000fd5b809350612cae915061220c565b50906126ea60026001949301611de6565b506001612ccb8261220c565b500154821115612c76565b15612cdd57565b60405162461bcd60e51b815260206004820152601960248201527f426174636820696e646578206f7574206f6620626f756e6473000000000000006044820152606490fd5b63ffffffff60e01b166380ac58cd60e01b8114908115612d55575b8115612d47575090565b6301ffc9a760e01b14919050565b635b5e139f60e01b81149150612d3d565b15612d6d57565b60405162461bcd60e51b8152602060048201526015602482015274151bdad95b881554925cc8185c99481b1bd8dad959605a1b6044820152606490fd5b90918060409360208452816020850152848401376000828201840152601f01601f191601019056fe931f495b9a8e5d8e61946ea5d61e021f636cfe213a801f97589c18c152e408bda264697066735822122030c482ddc2f11683cf03566db4de4f190add1a6bc2989f2500b43aaba62c8d8a64736f6c63430008120033","linkReferences":{}},"methodIdentifiers":{"addNewToken(string)":"d9856c21","approve(address,uint256)":"095ea7b3","areTokenURIsLocked()":"631d1d9a","balanceOf(address)":"70a08231","batchMint(string,uint256)":"7cc918d1","burn(uint256)":"42966c68","deleteToken(uint256)":"6297c16c","disableContract()":"894ba833","disabled()":"ee070805","getApproved(uint256)":"081812fc","getBatchCount()":"a8fabfa5","getBatchInfo(uint256)":"1a0058f5","getDefaultRoyaltyPercentage()":"ab69607a","getDefaultRoyaltyReceiver()":"3403c4e9","init(string,string,address,uint256)":"5edc7c19","isApprovedForAll(address,address)":"e985e9c5","lockTokenURIs()":"a448dd4f","maxTokens()":"e8315742","mintTo(string,address,address)":"4aa52c41","name()":"06fdde03","owner()":"8da5cb5b","ownerOf(uint256)":"6352211e","renounceOwnership()":"715018a6","royaltyInfo(uint256,uint256)":"2a55205a","safeTransferFrom(address,address,uint256)":"42842e0e","safeTransferFrom(address,address,uint256,bytes)":"b88d4fde","setApprovalForAll(address,bool)":"a22cb465","setDefaultRoyaltyReceiver(address)":"3ebc82c5","setRoyaltyReceiverForToken(address,uint256)":"efc32cd4","supportsInterface(bytes4)":"01ffc9a7","symbol()":"95d89b41","tokenCreator(uint256)":"40c1a064","tokenURI(uint256)":"c87b56dd","tokenURIsLocked()":"bb2ee99f","totalSupply()":"18160ddd","transferFrom(address,address,uint256)":"23b872dd","transferOwnership(address)":"f2fde38b","updateBatchBaseURI(uint256,string)":"de903ddd","updateTokenURI(uint256,string)":"18e97fd1"},"id":221}