{"abi":[{"type":"constructor","inputs":[],"stateMutability":"nonpayable"},{"type":"function","name":"ROYALTY_GUARD","inputs":[],"outputs":[{"name":"","type":"bytes32","internalType":"bytes32"}],"stateMutability":"view"},{"type":"function","name":"ROYALTY_GUARD_DEADMAN","inputs":[],"outputs":[{"name":"","type":"bytes32","internalType":"bytes32"}],"stateMutability":"view"},{"type":"function","name":"SOVEREIGN_NFT","inputs":[],"outputs":[{"name":"","type":"bytes32","internalType":"bytes32"}],"stateMutability":"view"},{"type":"function","name":"createSovereignNFTContract","inputs":[{"name":"_name","type":"string","internalType":"string"},{"name":"_symbol","type":"string","internalType":"string"}],"outputs":[{"name":"","type":"address","internalType":"address"}],"stateMutability":"nonpayable"},{"type":"function","name":"createSovereignNFTContract","inputs":[{"name":"_name","type":"string","internalType":"string"},{"name":"_symbol","type":"string","internalType":"string"},{"name":"_maxTokens","type":"uint256","internalType":"uint256"},{"name":"_contractType","type":"bytes32","internalType":"bytes32"}],"outputs":[{"name":"","type":"address","internalType":"address"}],"stateMutability":"nonpayable"},{"type":"function","name":"createSovereignNFTContract","inputs":[{"name":"_name","type":"string","internalType":"string"},{"name":"_symbol","type":"string","internalType":"string"},{"name":"_maxTokens","type":"uint256","internalType":"uint256"}],"outputs":[{"name":"","type":"address","internalType":"address"}],"stateMutability":"nonpayable"},{"type":"function","name":"owner","inputs":[],"outputs":[{"name":"","type":"address","internalType":"address"}],"stateMutability":"view"},{"type":"function","name":"renounceOwnership","inputs":[],"outputs":[],"stateMutability":"nonpayable"},{"type":"function","name":"setSovereignNFT","inputs":[{"name":"_sovereignNFT","type":"address","internalType":"address"}],"outputs":[],"stateMutability":"nonpayable"},{"type":"function","name":"setSovereignNFT","inputs":[{"name":"_sovereignNFT","type":"address","internalType":"address"},{"name":"_contractType","type":"bytes32","internalType":"bytes32"}],"outputs":[],"stateMutability":"nonpayable"},{"type":"function","name":"sovereignNFT","inputs":[],"outputs":[{"name":"","type":"address","internalType":"address"}],"stateMutability":"view"},{"type":"function","name":"sovereignNFTRoyaltyGuard","inputs":[],"outputs":[{"name":"","type":"address","internalType":"address"}],"stateMutability":"view"},{"type":"function","name":"sovereignNFTRoyaltyGuardDeadmanTrigger","inputs":[],"outputs":[{"name":"","type":"address","internalType":"address"}],"stateMutability":"view"},{"type":"function","name":"transferOwnership","inputs":[{"name":"newOwner","type":"address","internalType":"address"}],"outputs":[],"stateMutability":"nonpayable"},{"type":"event","name":"OwnershipTransferred","inputs":[{"name":"previousOwner","type":"address","indexed":true,"internalType":"address"},{"name":"newOwner","type":"address","indexed":true,"internalType":"address"}],"anonymous":false},{"type":"event","name":"SovereignNFTContractCreatedV2","inputs":[{"name":"contractAddress","type":"address","indexed":true,"internalType":"address"},{"name":"owner","type":"address","indexed":true,"internalType":"address"},{"name":"contractType","type":"bytes32","indexed":true,"internalType":"bytes32"}],"anonymous":false}],"bytecode":{"object":"0x60806040908082523461013f5760008054336001600160a01b031980831682178455936001600160a01b03939290919084167f8be0079c531659141344cd1fd0a4f28419497f9722a3daafe3b4186f6b6457e08480a36001600160401b0390612e44818101908382118383101761012b5790829162000de98339039083f0801561012157831684600154161760015584516137aa808201908282108483111761012b579082916200755b8339039083f0801561012157831684600254161760025584519061392e808301918383109083111761010d5790829162003c2d8339039082f090811561010257501690600354161760035551610ca49081620001458239f35b8451903d90823e3d90fd5b634e487b7160e01b84526041600452602484fd5b85513d84823e3d90fd5b634e487b7160e01b85526041600452602485fd5b600080fdfe6040608081526004908136101561001557600080fd5b600091823560e01c80633cebcf41146107b1578063715018a6146107575780637de4c0821461071c578063877ebf51146104215780638da5cb5b146103f95780639607cb49146103b2578063a55b1c251461037f578063c9be059014610356578063d05df8831461032d578063d1e0f70014610304578063da8d79f3146101ed578063ea14289f146101c4578063ef6fde5b146101855763f2fde38b146100bb57600080fd5b34610181576020366003190112610181576100d4610959565b906100dd61096f565b6001600160a01b0391821692831561012f575050600054826001600160601b0360a01b821617600055167f8be0079c531659141344cd1fd0a4f28419497f9722a3daafe3b4186f6b6457e0600080a380f35b906020608492519162461bcd60e51b8352820152602660248201527f4f776e61626c653a206e6577206f776e657220697320746865207a65726f206160448201526564647265737360d01b6064820152fd5b8280fd5b5050346101c057816003193601126101c057602090517f087ecff7ca60b68738fb37e03219d7acf0291a744def7c97de03b25dfe4b910f8152f35b5080fd5b5050346101c057816003193601126101c05760209051600080516020610c4f8339815191528152f35b5090346101815760603660031901126101815767ffffffffffffffff9082358281116103005761022090369085016108f1565b916024359081116103005761023890369085016108f1565b928460443594610249861515610ad3565b6001546001600160a01b0395908690610263908216610bba565b1696873b156102f25761028a9086519586948594635edc7c1960e01b865233928601610b7b565b038183885af180156102f6576102de575b50602093600080516020610c4f8339815191529151937fa838c9ce3fa39c7f5b1872ef1e902e94003d66b42f13994792daf8e68d7bb9b7339280a4600154168152f35b6102e885916108c7565b6102f2573861029b565b8380fd5b82513d87823e3d90fd5b8480fd5b5050346101c057816003193601126101c05760035490516001600160a01b039091168152602090f35b5050346101c057816003193601126101c05760015490516001600160a01b039091168152602090f35b5050346101c057816003193601126101c05760025490516001600160a01b039091168152602090f35b5050346101c0573660031901126103af576103ac61039b610959565b6103a361096f565b602435906109c7565b80f35b80fd5b83346103af5760203660031901126103af576103cc610959565b6103d461096f565b6001600160a01b031680156101c0576001600160601b0360a01b600154161760015580f35b5050346101c057816003193601126101c057905490516001600160a01b039091168152602090f35b508290346101c05760803660031901126101c05767ffffffffffffffff81358181116102f25761045490369084016108f1565b906024359081116102f25761046c90369084016108f1565b606435919060443561047f811515610ad3565b8592600080516020610c4f83398151915285146106a8575b7fa8d9137ee02dda9849b76493a51586dc45475f3b363c8fc8b3d134685280b7438514610626575b7f087ecff7ca60b68738fb37e03219d7acf0291a744def7c97de03b25dfe4b910f85146105a0575b5050506001600160a01b031691821561052a57506020935192827fa838c9ce3fa39c7f5b1872ef1e902e94003d66b42f13994792daf8e68d7bb9b7339280a48152f35b60a490602086519162461bcd60e51b8352820152604460248201527f637265617465536f7665726569676e4e4654436f6e74726163743a3a5f636f6e60448201527f74726163745479706520756e737570706f7274656420636f6e747261637420746064820152633cb8329760e11b6084820152fd5b6003546001600160a01b039450919290916105bc908516610bba565b93841691823b15610622579186918880946105ec8c5197889687958694635edc7c1960e01b865233928601610b7b565b03925af1801561061857908591610604575b806104e7565b61060d906108c7565b6102f25783866105fe565b86513d87823e3d90fd5b8780fd5b6002546001600160a01b03945061063e908516610bba565b938416803b1561062257878361066d9289838d51809681958294635edc7c1960e01b84528c8b33928601610b7b565b03925af1801561069e57908891610686575b50506104bf565b61068f906108c7565b61069a57868961067f565b8680fd5b89513d8a823e3d90fd5b6001546001600160a01b0394506106c0908516610bba565b938416803b156106225787836106ef9289838d51809681958294635edc7c1960e01b84528c8b33928601610b7b565b03925af1801561069e57908891610708575b5050610497565b610711906108c7565b61069a578689610701565b5050346101c057816003193601126101c057602090517fa8d9137ee02dda9849b76493a51586dc45475f3b363c8fc8b3d134685280b7438152f35b83346103af57806003193601126103af5761077061096f565b600080546001600160a01b0319811682556001600160a01b03167f8be0079c531659141344cd1fd0a4f28419497f9722a3daafe3b4186f6b6457e08280a380f35b5034610181576003199180833601126102f25767ffffffffffffffff8483358281116101c0576107e490369086016108f1565b916024359081116101c0576107fc90369086016108f1565b9460018060a01b0394856108138160015416610bba565b1696873b156102f2576080926108539161084488519788968796635edc7c1960e01b88528701526084860190610b3b565b91848303016024850152610b3b565b3360448301526000196064830152038183885af180156102f65794600080516020610c4f83398151915292916020966108b8575b509051937fa838c9ce3fa39c7f5b1872ef1e902e94003d66b42f13994792daf8e68d7bb9b7339280a4600154168152f35b6108c1906108c7565b38610887565b67ffffffffffffffff81116108db57604052565b634e487b7160e01b600052604160045260246000fd5b81601f820112156109545780359067ffffffffffffffff928383116108db5760405193601f8401601f19908116603f01168501908111858210176108db576040528284526020838301011161095457816000926020809301838601378301015290565b600080fd5b600435906001600160a01b038216820361095457565b6000546001600160a01b0316330361098357565b606460405162461bcd60e51b815260206004820152602060248201527f4f776e61626c653a2063616c6c6572206973206e6f7420746865206f776e65726044820152fd5b6001600160a01b031690811561095457600080516020610c4f8339815191528114610abd577fa8d9137ee02dda9849b76493a51586dc45475f3b363c8fc8b3d134685280b7438114610aa7577f087ecff7ca60b68738fb37e03219d7acf0291a744def7c97de03b25dfe4b910f14610a925760405162461bcd60e51b815260206004820152602b60248201527f736574536f7665726569676e4e46543a3a556e737570706f72746564205f636f60448201526a373a3930b1ba2a3cb8329760a91b6064820152608490fd5b6001600160601b0360a01b6003541617600355565b506001600160601b0360a01b6002541617600255565b506001600160601b0360a01b6001541617600155565b15610ada57565b60405162461bcd60e51b815260206004820152603360248201527f637265617465536f7665726569676e4e4654436f6e74726163743a3a5f6d6178604482015272546f6b656e732063616e74206265207a65726f60681b6064820152608490fd5b919082519283825260005b848110610b67575050826000602080949584010152601f8019910116010190565b602081830181015184830182015201610b46565b90606092610b98610ba69297969597608085526080850190610b3b565b908382036020850152610b3b565b6001600160a01b0390951660408201520152565b6e5af43d82803e903d91602b57fd5bf390763d602d80600a3d3981f3363d3d373d3d3d363d7300000062ffffff8260881c161760005260781b17602052603760096000f0906001600160a01b03821615610c1057565b60405162461bcd60e51b8152602060048201526016602482015275115490cc4c4d8dce8818dc99585d194819985a5b195960521b6044820152606490fdfe618bb03e363d77d1aa6e06dbc7ec814178513d4ccfaa94fb485275fe016567fda264697066735822122070e07687b230808316966ad12276b69b54e41ae7ed460085203f201a9fd7ba4f64736f6c634300081200336080806040523461001657612e28908161001c8239f35b600080fdfe6080604081815260048036101561001557600080fd5b600092833560e01c90816301ffc9a714611a8b5750806306fdde03146119e1578063081812fc146119c1578063095ea7b31461185057806318160ddd1461183057806318e97fd11461153f5780631a0058f5146114c357806323b872dd1461149e5780632a55205a1461140c5780633403c4e9146113e35780633ebc82c5146113a157806340c1a0641461137757806342842e0e1461134357806342966c68146113265780634aa52c41146112b65780635edc7c1914610dac5780636297c16c14610d30578063631d1d9a146105745780636352211e14610cff57806370a0823114610c69578063715018a614610c0c5780637cc918d11461092e578063894ba833146108e05780638da5cb5b146108b757806395d89b41146107d2578063a22cb46514610703578063a448dd4f14610663578063a8fabfa514610643578063ab69607a14610624578063b88d4fde1461059a578063bb2ee99f14610574578063c87b56dd14610539578063d9856c21146104cd578063de903ddd14610348578063e831574214610328578063e985e9c5146102da578063ee070805146102b7578063efc32cd4146102645763f2fde38b146101d057600080fd5b34610260576020366003190112610260576101e9611b70565b916101f2611d0b565b6001600160a01b0383161561020e578361020b84611d63565b80f35b906020608492519162461bcd60e51b8352820152602660248201527f4f776e61626c653a206e6577206f776e657220697320746865207a65726f206160448201526564647265737360d01b6064820152fd5b8280fd5b5050346102b357806003193601126102b35761027e611b70565b90610287611d0b565b602435835260fd602052822080546001600160a01b0319166001600160a01b0390921691909117905580f35b5080fd5b5050346102b357816003193601126102b35760209060ff80541690519015158152f35b5050346102b357806003193601126102b35760ff816020936102fa611b70565b610302611b8b565b6001600160a01b039182168352609c875283832091168252855220549151911615158152f35b5050346102b357816003193601126102b357602090610100549051908152f35b508290346102b35761035936611be4565b9192610363611d0b565b61038060ff8054610376828216156121c0565b60081c1615612d66565b61038e610105548510612cd6565b60026103998561220c565b5001906001600160401b0384116104ba57506103bf836103b98354611dac565b8361216c565b84601f841160011461042b579561041a918487987fd181cc8d0dc01c4c286c3f799294fcd18a386821e71c9d771a3a19827b49560c979891610420575b508560011b906000198760031b1c19161790555b5192839283612daa565b0390a280f35b9050840135896103fc565b81865260208087209190601f1986169088905b8282106104a25750509161041a9391867fd181cc8d0dc01c4c286c3f799294fcd18a386821e71c9d771a3a19827b49560c98999a9410610488575b5050600185811b019055610410565b850135600019600388901b60f8161c191690558880610479565b80600185968294968a0135815501950193019061043e565b634e487b7160e01b865260419052602485fd5b8382346102b35760203660031901126102b35780356001600160401b0381116102605736602382011215610260576105359181602461051193369301359101611cd4565b610519611d0b565b61052760ff805416156121c0565b60fc543391829081906123ac565b5080f35b509134610571576020366003190112610571575061055a61056d92356126a3565b9051918291602083526020830190611b4b565b0390f35b80fd5b5050346102b357816003193601126102b35760209060ff805460081c1690519015158152f35b8382346102b35760803660031901126102b3576105b5611b70565b906105be611b8b565b91604435606435936001600160401b0385116106205736602386011215610620576105f861061b9486602461020b98369301359101611cd4565b9261060b610606843361292e565b611e8c565b610616838383612a60565b612081565b611f41565b8580fd5b5050346102b357816003193601126102b35760209060fc549051908152f35b5050346102b357816003193601126102b357602090610105549051908152f35b503461026057826003193601126102605761067c611d0b565b60ff549160ff8360081c166106c05761ff001983166101001760ff55837f1cc7fa91d8671f564b11ea19e789522d84788cad2329b82dcc0b6ae1ff2338dd8180a180f35b906020606492519162461bcd60e51b8352820152601d60248201527f546f6b656e20555249732061726520616c7265616479206c6f636b65640000006044820152fd5b50903461026057806003193601126102605761071d611b70565b90602435918215158093036107ce576001600160a01b03169233841461078c5750338452609c60205280842083855260205280842060ff1981541660ff8416179055519081527f17307eab39ab6107e8899845ad3d59bd9653f200f220920489ca2b5937696c3160203392a380f35b6020606492519162461bcd60e51b8352820152601960248201527f4552433732313a20617070726f766520746f2063616c6c6572000000000000006044820152fd5b8480fd5b5050346102b357816003193601126102b357805190826098546107f481611dac565b8085529160019180831690811561088f5750600114610832575b5050506108208261056d940383611c98565b51918291602083526020830190611b4b565b9450609885527f2237a976fa961f5921fd19f2b03c925c725d77b20ce8f790c19709c03de4d8145b8286106108775750505061082082602061056d958201019461080e565b8054602087870181019190915290950194810161085a565b61056d97508693506020925061082094915060ff191682840152151560051b8201019461080e565b5050346102b357816003193601126102b35760335490516001600160a01b039091168152602090f35b83346105715780600319360112610571576108f9611d0b565b600160ff1960ff54161760ff55337f793bc6423dd0257d64f9d47db72fd4b2162f4541aa41740ba1c5fb5e2cd41bcd8280a280f35b509190346102b357806003193601126102b3576001600160401b03928035848111610c08576109609036908301611bb7565b61096b959195611d0b565b61097960ff805416156121c0565b6101049081549660019384890194858a11610bf5576024998a350193818501808811610be3578511610bd15788519560209687810181811086821117610bbf578b52869052859055610100548511610b7d5789906109ed8a51956109dc87611c4c565b898752888701928884523691611cd4565b948a810195865261010580549068010000000000000000821015610b6b578582019055610a199061220c565b939093610b5a575090600292915182555183820155019251968751928311610b485750889950610a5782610a51859b999a9b54611dac565b8561216c565b8497601f8311600114610ac4578291889983927fdeaa91b6123d068f5821d0fb0678463d1a8a6079fe8af5de3ce5e896dcf9133d999a94610ab9575b50501b916000199060031b1c19161790555b60018060a01b03603354169551908152a480f35b015192503880610a93565b8388528588209098919291601f198316895b818110610b30575099837fdeaa91b6123d068f5821d0fb0678463d1a8a6079fe8af5de3ce5e896dcf9133d999a9b10610b17575b505050811b019055610aa5565b015160001960f88460031b161c19169055388080610b0a565b828c015184558d9a5092850192918801918801610ad6565b634e487b7160e01b8a52604190528989fd5b634e487b7160e01b8152808b528d90fd5b634e487b7160e01b855260418c528e85fd5b885162461bcd60e51b8152808901879052601d818d01527f62617463684d696e743a3a6578636565646564206d6178546f6b656e730000006044820152606490fd5b634e487b7160e01b8d5260418b528d8dfd5b634e487b7160e01b8a52601188528a8afd5b634e487b7160e01b8b52601189528b8bfd5b634e487b7160e01b895260118752602489fd5b8380fd5b8334610571578060031936011261057157610c25611d0b565b603380546001600160a01b0319811690915581906001600160a01b03167f8be0079c531659141344cd1fd0a4f28419497f9722a3daafe3b4186f6b6457e08280a380f35b508290346102b35760203660031901126102b3576001600160a01b03610c8d611b70565b16908115610caa576020848085858152609a845220549051908152f35b608490602085519162461bcd60e51b8352820152602960248201527f4552433732313a2061646472657373207a65726f206973206e6f7420612076616044820152683634b21037bbb732b960b91b6064820152fd5b5091346105715760203660031901126105715750610d1f602092356128be565b90516001600160a01b039091168152f35b503461026057602036600319011261026057803591610d4e836128be565b336001600160a01b0390911603610d69578361020b8461225e565b906020606492519162461bcd60e51b8352820152601760248201527f4d757374206265206f776e6572206f6620746f6b656e2e0000000000000000006044820152fd5b509034610260576080366003190112610260576001600160401b039180358381116107ce57610dde9036908301611bb7565b91906024358581116112b257610df79036908401611bb7565b610e02969196611ba1565b9388549760ff94858a60081c1615978880996112a6575b8015611290575b1561123657600160ff198c1681178d559a89611225575b506001600160a01b038816156111e257610e959291610e8d91610e7d898f600a60fc5561ffff198254168255606435610100555460081c16610e788161210c565b61210c565b610e8633611d63565b3691611cd4565b933691611cd4565b90610ea9858b5460081c16610e788161210c565b82518481116111cf5780610ebe609754611dac565b94601f9586811161115e575b506020908d8784116001146110df57926110d4575b5050600019600383901b1c1916908a1b176097555b81519384116110c15750610f09609854611dac565b82811161105e575b506020918311600114610fd2579180610f86959492610f5e948b92610fc7575b5050600019600383901b1c191690881b176098555b875460081c16610f558161210c565b610e788161210c565b60fb80546001600160a01b0319166001600160a01b038316179055610f81611d0b565b611d63565b610f8e578280f35b825461ff0019168355519081527f7f26b83ff96e1f2b6a682f133852f6798a09c465da95921460cefb384740249890602090a138808280f35b015190503880610f31565b609889528792917f2237a976fa961f5921fd19f2b03c925c725d77b20ce8f790c19709c03de4d81491601f1984168b5b818110611046575091610f5e95939185610f86999896941061102d575b505050811b01609855610f46565b015160001960f88460031b161c1916905538808061101f565b8284015185558b969094019360209384019301611002565b60988a527f2237a976fa961f5921fd19f2b03c925c725d77b20ce8f790c19709c03de4d8148380860160051c820192602087106110b8575b0160051c019089905b8281106110ad575050610f11565b8b815501899061109f565b92508192611096565b634e487b7160e01b8a5260419052602489fd5b015190503880610edf565b91908d9450601f198416609784527f354a83ed9988f79f6038d4c7a7dadbad8af32f4ad6df893e0e5807a1b1944ff9935b8181106111465750841161112d575b505050811b01609755610ef4565b015160001960f88460031b161c1916905538808061111f565b8284015185558f969094019360209384019301611110565b90915060978d527f354a83ed9988f79f6038d4c7a7dadbad8af32f4ad6df893e0e5807a1b1944ff98680850160051c820192602086106111c6575b859493910160051c909101908d908f5b8382106111b857505050610eca565b81558594508e91018f6111a9565b92508192611199565b634e487b7160e01b8b526041825260248bfd5b895162461bcd60e51b8152602081860152601e60248201527f63726561746f722063616e6e6f74206265206e756c6c206164647265737300006044820152606490fd5b61ffff1916610101178c5538610e37565b895162461bcd60e51b8152602081860152602e60248201527f496e697469616c697a61626c653a20636f6e747261637420697320616c72656160448201526d191e481a5b9a5d1a585b1a5e995960921b6064820152608490fd5b50303b158015610e2057506001878c1614610e20565b506001878c1610610e19565b8680fd5b8382346102b35760603660031901126102b35780356001600160401b03811161026057610535916112e991369101611bb7565b906112f2611b8b565b6112fa611ba1565b92611303611d0b565b61131160ff805416156121c0565b61132160fc549333923691611cd4565b6123ac565b8382346102b35760203660031901126102b35761020b903561225e565b5050346102b35761061b61020b9161135a36611c17565b9192519261136784611c7d565b86845261060b610606843361292e565b5050346102b35760203660031901126102b35760335490516001600160a01b039091168152602090f35b83346105715760203660031901126105715761020b6113be611b70565b6113c6611d0b565b60018060a01b03166001600160601b0360a01b60fb54161760fb55565b5050346102b357816003193601126102b35760fb5490516001600160a01b039091168152602090f35b5091346105715781600319360112610571578235815260fd60205281812054602435906001600160a01b03908116801561149257925b60fe60205284812054801561148857925b8381029381850414901517156114755750835192168252606490046020820152f35b634e487b7160e01b815260118652602490fd5b5060fc5492611453565b508060fb541692611442565b83346105715761020b6114b036611c17565b916114be610606843361292e565b612a60565b50823461057157602036600319011261057157506114ef90356114ea610105548210612cd6565b61220c565b5061056d82516114fe81611c4c565b82548152606061151c60026001860154956020850196875201611de6565b918286820152519351948051958695865260208601528401526060830190611b4b565b508290346102b35761155036611be4565b919260ff5461156260ff8216156121c0565b6033546001600160a01b031633036117e35760ff6115849160081c1615612d66565b6000848152609960205260409020546001600160a01b0316151580156117ba575b15611780576115b384612c35565b5050156116a65783855260206101078152868620916001600160401b03851161169357506115eb846115e58454611dac565b8461216c565b8590601f851160011461163457509561041a91848798600080516020612dd383398151915297989161042057508560011b906000198760031b1c19161790555192839283612daa565b90601f1985168388528288209288905b82821061167b5750509161041a939186600080516020612dd383398151915298999a9410610488575050600185811b019055610410565b80600185968294968a01358155019501930190611644565b634e487b7160e01b875260419052602486fd5b83855260206101068152868620916001600160401b03851161169357506116d1846115e58454611dac565b8590601f851160011461172157509561041a91848798600080516020612dd3833981519152979891611716575b508560011b906000198760031b1c1916179055610410565b9050840135896116fe565b90601f1985168388528288209288905b8282106117685750509161041a939186600080516020612dd383398151915298999a9410610488575050600185811b019055610410565b80600185968294968a01358155019501930190611731565b606490602087519162461bcd60e51b83528201526014602482015273151bdad95b88191bd95cc81b9bdd08195e1a5cdd60621b6044820152fd5b506117c484612c35565b505080156115a5575083855261010260205260ff8686205416156115a5565b865162461bcd60e51b8152602081840152602160248201527f4f6e6c7920746f6b656e2063726561746f722063616e207570646174652055526044820152604960f81b6064820152608490fd5b5050346102b357816003193601126102b357602090610104549051908152f35b5034610260578160031936011261026057611869611b70565b6024359290916001600160a01b0391908280611884876128be565b1694169380851461197457803314908115611955575b50156118ed5750838552610103602052842080546001600160a01b031916831790556118c583612346565b167f8c5be1e5ebec7d5bd14f71427d1e84f3dd0314c0f7b2291e5b200ac8c7c3b9258480a480f35b6020608492519162461bcd60e51b8352820152603860248201527f4552433732313a20617070726f76652063616c6c6572206973206e6f74206f7760448201527f6e6572206e6f7220617070726f76656420666f7220616c6c00000000000000006064820152fd5b90508652609c60205281862033875260205260ff82872054163861189a565b506020608492519162461bcd60e51b8352820152602160248201527f4552433732313a20617070726f76616c20746f2063757272656e74206f776e656044820152603960f91b6064820152fd5b5091346105715760203660031901126105715750610d1f60209235612998565b5050346102b357816003193601126102b35780519082609754611a0381611dac565b8085529160019180831690811561088f5750600114611a2e575050506108208261056d940383611c98565b9450609785527f354a83ed9988f79f6038d4c7a7dadbad8af32f4ad6df893e0e5807a1b1944ff95b828610611a735750505061082082602061056d958201019461080e565b80546020878701810191909152909501948101611a56565b92505034610260576020366003190112610260573563ffffffff60e01b811690818103610c085760209350631030681960e21b8214918215611b17575b8215611aee575b508115611ade575b5015158152f35b611ae89150612d22565b38611ad7565b90915063152a902d60e11b148015611b08575b9038611acf565b50611b1281612d22565b611b01565b6301ffc9a760e01b81149250611ac8565b60005b838110611b3b5750506000910152565b8181015183820152602001611b2b565b90602091611b6481518092818552858086019101611b28565b601f01601f1916010190565b600435906001600160a01b0382168203611b8657565b600080fd5b602435906001600160a01b0382168203611b8657565b604435906001600160a01b0382168203611b8657565b9181601f84011215611b86578235916001600160401b038311611b865760208381860195010111611b8657565b906040600319830112611b865760043591602435906001600160401b038211611b8657611c1391600401611bb7565b9091565b6060906003190112611b86576001600160a01b03906004358281168103611b8657916024359081168103611b86579060443590565b606081019081106001600160401b03821117611c6757604052565b634e487b7160e01b600052604160045260246000fd5b602081019081106001600160401b03821117611c6757604052565b90601f801991011681019081106001600160401b03821117611c6757604052565b6001600160401b038111611c6757601f01601f191660200190565b929192611ce082611cb9565b91611cee6040519384611c98565b829481845281830111611b86578281602093846000960137010152565b6033546001600160a01b03163303611d1f57565b606460405162461bcd60e51b815260206004820152602060248201527f4f776e61626c653a2063616c6c6572206973206e6f7420746865206f776e65726044820152fd5b603380546001600160a01b039283166001600160a01b0319821681179092559091167f8be0079c531659141344cd1fd0a4f28419497f9722a3daafe3b4186f6b6457e0600080a3565b90600182811c92168015611ddc575b6020831014611dc657565b634e487b7160e01b600052602260045260246000fd5b91607f1691611dbb565b9060405191826000825492611dfa84611dac565b908184526001948581169081600014611e695750600114611e26575b5050611e2492500383611c98565b565b9093915060005260209081600020936000915b818310611e51575050611e2493508201013880611e16565b85548884018501529485019487945091830191611e39565b915050611e2494506020925060ff191682840152151560051b8201013880611e16565b15611e9357565b60405162461bcd60e51b815260206004820152602d60248201527f4552433732313a2063616c6c6572206973206e6f7420746f6b656e206f776e6560448201526c1c881bdc88185c1c1c9bdd9959609a1b6064820152608490fd5b60809060208152603260208201527f4552433732313a207472616e7366657220746f206e6f6e20455243373231526560408201527131b2b4bb32b91034b6b83632b6b2b73a32b960711b60608201520190565b15611f4857565b60405162461bcd60e51b815280611f6160048201611eee565b0390fd5b9192600092909190803b1561207757611fb3946040518092630a85bd0160e11b9485835233600484015287602484015260448301526080606483015281878160209a8b966084830190611b4b565b03926001600160a01b03165af1849181612037575b50612026575050503d60001461201e573d611fe281611cb9565b90611ff06040519283611c98565b81528091833d92013e5b8051918261201b5760405162461bcd60e51b815280611f6160048201611eee565b01fd5b506060611ffa565b6001600160e01b0319161492509050565b9091508581813d8311612070575b61204f8183611c98565b810103126107ce57516001600160e01b0319811681036107ce579038611fc8565b503d612045565b5050915050600190565b9293600093909291803b15612101579484916120db9660405180948193630a85bd0160e11b9788845233600485015260018060a01b0380921660248501526044840152608060648401528260209b8c976084830190611b4b565b0393165af18491816120375750612026575050503d60001461201e573d611fe281611cb9565b505050915050600190565b1561211357565b60405162461bcd60e51b815260206004820152602b60248201527f496e697469616c697a61626c653a20636f6e7472616374206973206e6f74206960448201526a6e697469616c697a696e6760a81b6064820152608490fd5b90601f811161217a57505050565b600091825260208220906020601f850160051c830194106121b6575b601f0160051c01915b8281106121ab57505050565b81815560010161219f565b9092508290612196565b156121c757565b60405162461bcd60e51b815260206004820152601e60248201527f436f6e7472616374206d757374206e6f742062652064697361626c65642e00006044820152606490fd5b61010590815481101561224857600391600052027ffc62abc8c0fc47c2d92f5aec99bf8b60f375828e14394d89345cae11a98673710190600090565b634e487b7160e01b600052603260045260246000fd5b61226781612c35565b5050600082815261010260205260408120805460ff191660011790559080612327575b6123235761229b610606833361292e565b6122a482612346565b506122ae82612346565b828252609b6020908152604080842080546001600160a01b03199081169091556001600160a01b03909316808552609a835281852080546000190190558585526099909252832080549092169091557fddf252ad1be2c89b69c2b068fc378daa952ba7f163c4a11628f55a4df523b3ef8280a4565b5050565b506000828152609960205260409020546001600160a01b03161561228a565b6000908152609960205260409020546001600160a01b031680156123675790565b60405162461bcd60e51b815260206004820152601860248201527f4552433732313a20696e76616c696420746f6b656e20494400000000000000006044820152606490fd5b93929091600194610104958087540180975561010054871161251f576123f061061b6040516123da81611c7d565b896000968783526123eb82826125af565b611f65565b868352602091610106835260408420918151916001600160401b03831161250b576124258361241f8654611dac565b8661216c565b8490601f84116001146124a257928060fd9593819389989660409a94612497575b50501b916000199060031b1c19161790555b87835261010181528383209460018060a01b0395866001600160601b0360a01b98168882541617905560fe825284842055522092169082541617905590565b015192503880612446565b8487528587209293929190601f198416885b8181106124f6575091604098979593918560fd989694106124dd575b505050811b019055612458565b015160001960f88460031b161c191690553880806124d0565b828401518555938601939288019288016124b4565b634e487b7160e01b86526041600452602486fd5b606460405162461bcd60e51b815260206004820152602060248201527f5f637265617465546f6b656e3a3a6578636565646564206d6178546f6b656e736044820152fd5b1561256a57565b60405162461bcd60e51b815260206004820152601c60248201527f4552433732313a20746f6b656e20616c7265616479206d696e746564000000006044820152606490fd5b6001600160a01b0316801561265f576000828152609960205260409020546125e3906001600160a01b031615155b15612563565b600082815260996020526040902054612606906001600160a01b031615156125dd565b6000818152609a6020526040812060018154019055828152609960205260408120826001600160601b0360a01b8254161790557fddf252ad1be2c89b69c2b068fc378daa952ba7f163c4a11628f55a4df523b3ef8180a4565b606460405162461bcd60e51b815260206004820152602060248201527f4552433732313a206d696e7420746f20746865207a65726f20616464726573736044820152fd5b6000818152610107906020928284526040926126c184842054611dac565b6128af57506126cf81612c35565b91151590506126ed57506126ea936101069183525220611de6565b90565b928291807a184f03e93ff9f4daa797ed6e38ed64bf6a1f01000000000000000081818110156128a0575b5050866d04ee2d6d415b85acef810000000080841015612892575b5050662386f26fc1000080831015612883575b506305f5e10080831015612874575b5061271080831015612865575b506064821015612855575b600a8092101561284b575b600190816021818701966127a261278d89611cb9565b9861279a89519a8b611c98565b808a52611cb9565b888c019990601f1901368b3750870101905b612815575b5050505091602f60f81b946127f86126ea95936026955197856127e58a9751809287808b019101611b28565b8601938401525180936021840190611b28565b0164173539b7b760d91b6021820152036006810184520182611c98565b600019019083906f181899199a1a9b1b9c1cb0b131b232b360811b8282061a835304918215612846579190826127b4565b6127b9565b9260010192612777565b929060646002910491019261276c565b60049194920491019238612761565b60089194920491019238612754565b60109194920491019238612745565b940193909104908638612732565b91945091500481923880612717565b90936126ea9483525220611de6565b6128c781612c35565b50506128d6576126ea90612346565b8060005261010260205260ff604060002054166000146128f9576126ea90612346565b6000818152609960205260409020546001600160a01b031661292557506033546001600160a01b031690565b6126ea90612346565b6001600160a01b03908180612942856128be565b16911691818314938415612981575b5050821561295e57505090565b909150600052609c60205260406000209060005260205260ff6040600020541690565b8392945061298e90612998565b1614913880612951565b600081815260fd60205260408120546001600160a01b0392919083166129bd83612c35565b5050908115612a56575b5080612a3e575b156129e457604091815261010360205220541690565b60405162461bcd60e51b815260206004820152602c60248201527f4552433732313a20617070726f76656420717565727920666f72206e6f6e657860448201526b34b9ba32b73a103a37b5b2b760a11b6064820152608490fd5b5081815261010260205260ff604082205416156129ce565b90501515386129c7565b908215611b8657612aaa91612a7484612c35565b505080612bbc575b80612ba2575b612b93575b612a9084612346565b6001600160a01b0393918416928492909183168414612bdb565b16918215612b425781612ac791612ac086612346565b1614612bdb565b7fddf252ad1be2c89b69c2b068fc378daa952ba7f163c4a11628f55a4df523b3ef6000848152609b602052604081206001600160601b0360a01b90818154169055838252609a6020526040822060001981540190558482526040822060018154019055858252609960205284604083209182541617905580a4565b60405162461bcd60e51b8152602060048201526024808201527f4552433732313a207472616e7366657220746f20746865207a65726f206164646044820152637265737360e01b6064820152608490fd5b612b9d84826125af565b612a87565b508360005261010260205260ff6040600020541615612a82565b506000848152609960205260409020546001600160a01b031615612a7c565b15612be257565b60405162461bcd60e51b815260206004820152602560248201527f4552433732313a207472616e736665722066726f6d20696e636f72726563742060448201526437bbb732b960d91b6064820152608490fd5b61010554919060005b838110612c625750509050600090600090604051612c5b81611c7d565b6000815290565b612c6b8161220c565b505482101580612cbf575b612ca1576000198114612c8b57600101612c3e565b634e487b7160e01b600052601160045260246000fd5b809350612cae915061220c565b50906126ea60026001949301611de6565b506001612ccb8261220c565b500154821115612c76565b15612cdd57565b60405162461bcd60e51b815260206004820152601960248201527f426174636820696e646578206f7574206f6620626f756e6473000000000000006044820152606490fd5b63ffffffff60e01b166380ac58cd60e01b8114908115612d55575b8115612d47575090565b6301ffc9a760e01b14919050565b635b5e139f60e01b81149150612d3d565b15612d6d57565b60405162461bcd60e51b8152602060048201526015602482015274151bdad95b881554925cc8185c99481b1bd8dad959605a1b6044820152606490fd5b90918060409360208452816020850152848401376000828201840152601f01601f191601019056fe931f495b9a8e5d8e61946ea5d61e021f636cfe213a801f97589c18c152e408bda2646970667358221220969e2394308c567c997d6e7dca65a30180f130833068728b683321d2017dc08764736f6c634300081200336080806040523461001657613912908161001c8239f35b600080fdfe6040608081526004908136101561001557600080fd5b600091823560e01c8063012cf1e8146122c357806301ffc9a7146121ed57806306fdde0314612143578063081812fc14612123578063095ea7b314611f0757806318160ddd14611ee757806318e97fd114611bf65780631a0058f514611b7a5780632042748614611b4657806321c4a5d814611aa157806323b872dd14611a7c5780632a55205a146119ea5780632ce878da146119775780633403c4e91461194e5780633ebc82c51461190c57806340c1a064146118e257806342842e0e146118ae57806342966c6814611891578063472a6638146118015780634aa52c41146117915780635aec8d62146116e95780635edc7c19146111df5780636297c16c14611163578063631d1d9a146107d55780636352211e1461113257806370a082311461109c578063715018a61461103f578063717392ed1461101f5780637cc918d114610d5b57806387bc793f14610d33578063894ba83314610ce55780638da5cb5b14610cbc57806395d89b4114610bd75780639e860f2a14610ae6578063a22cb46514610964578063a448dd4f146108c4578063a8fabfa5146108a4578063ab69607a14610885578063b88d4fde146107fb578063bb2ee99f146107d5578063bc7194551461072d578063c87b56dd146106f2578063d9856c211461068a578063de903ddd14610505578063e8315742146104e5578063e985e9c514610497578063eab851181461043c578063ee07080514610419578063efc32cd4146103c6578063f2fde38b146103355763ff6e8c8f1461025257600080fd5b3461033157610260366124c1565b90919260018060a01b039485603354163303610324576003851015610311578415610304575050906102939136916129d9565b92805b8451811015610300576102fb906102c26102af85612a3f565b866102ba848a612a7e565b511690612ac0565b5083856102cf8389612a7e565b5116337f14155f749dc3f9cd2bf890d6d3a47069f77ae35befcee11c8b1a3ba41cba15368680a4612a59565b610296565b5080f35b51632de777a160e11b8152fd5b634e487b7160e01b875260218252602487fd5b51635c510c8360e11b8152fd5b8280fd5b50346103315760203660031901126103315761034f6123bc565b916103586125d8565b6001600160a01b03831615610374578361037184612630565b80f35b906020608492519162461bcd60e51b8352820152602660248201527f4f776e61626c653a206e6577206f776e657220697320746865207a65726f206160448201526564647265737360d01b6064820152fd5b5050346104155780600319360112610415576103e06123bc565b906103e96125d8565b602435835260fd602052822080546001600160a01b0319166001600160a01b0390921691909117905580f35b5080fd5b50503461041557816003193601126104155760209060ff80541690519015158152f35b5050346104155760203660031901126104155760209061048e61045d6123bc565b61046c60ff6101095416612a3f565b6001600160a01b03909116600090815260019091016020526040902054151590565b90519015158152f35b50503461041557806003193601126104155760ff816020936104b76123bc565b6104bf6123d7565b6001600160a01b039182168352609c875283832091168252855220549151911615158152f35b505034610415578160031936011261041557602090610100549051908152f35b508290346104155761051636612430565b91926105206125d8565b61053d60ff805461053382821615612cdf565b60081c161561380c565b61054b6101055485106137c0565b600261055685612d2b565b5001906001600160401b038411610677575061057c836105768354612679565b83612c8b565b84601f84116001146105e857956105d7918487987fd181cc8d0dc01c4c286c3f799294fcd18a386821e71c9d771a3a19827b49560c9798916105dd575b508560011b906000198760031b1c19161790555b5192839283613850565b0390a280f35b9050840135896105b9565b81865260208087209190601f1986169088905b82821061065f575050916105d79391867fd181cc8d0dc01c4c286c3f799294fcd18a386821e71c9d771a3a19827b49560c98999a9410610645575b5050600185811b0190556105cd565b850135600019600388901b60f8161c191690558880610636565b80600185968294968a013581550195019301906105fb565b634e487b7160e01b865260419052602485fd5b8382346104155760203660031901126104155780356001600160401b038111610331573660238201121561033157610300918160246106ce933693013591016125a1565b6106d66125d8565b6106e460ff80541615612cdf565b60fc54339182908190612eb5565b50913461072a57602036600319011261072a575061071361072692356131a6565b9051918291602083526020830190612397565b0390f35b80fd5b5090346103315760203660031901126103315781359160038310156107d1576033546001600160a01b031633036107c3575061076882612a3f565b805490848155816107a5575b50507f7efc19cf93d497a6a56103ea89a39d51c0cad74a817ed3cd0ecaff9823d4da249051806105d7339482612498565b845260208420908101905b81811015610774578481556001016107b0565b9051635c510c8360e11b8152fd5b8380fd5b50503461041557816003193601126104155760209060ff805460081c1690519015158152f35b838234610415576080366003190112610415576108166123bc565b9061081f6123d7565b91604435606435936001600160401b03851161088157366023860112156108815761085961087c94866024610371983693013591016125a1565b9261086c6108678433613431565b612759565b610877838383613563565b61294e565b61280e565b8580fd5b50503461041557816003193601126104155760209060fc549051908152f35b505034610415578160031936011261041557602090610105549051908152f35b50346103315782600319360112610331576108dd6125d8565b60ff549160ff8360081c166109215761ff001983166101001760ff55837f1cc7fa91d8671f564b11ea19e789522d84788cad2329b82dcc0b6ae1ff2338dd8180a180f35b906020606492519162461bcd60e51b8352820152601d60248201527f546f6b656e20555249732061726520616c7265616479206c6f636b65640000006044820152fd5b50903461033157806003193601126103315761097e6123bc565b9060243591821515809303610ae25760ff61010954166003811015610acf5760018103610a855750600180865261010860209081528387206001600160a01b038416600090815292019052604090205415610a76575b6001600160a01b031692338414610a345750338452609c60205280842083855260205280842060ff1981541660ff8416179055519081527f17307eab39ab6107e8899845ad3d59bd9653f200f220920489ca2b5937696c3160203392a380f35b6020606492519162461bcd60e51b8352820152601960248201527f4552433732313a20617070726f766520746f2063616c6c6572000000000000006044820152fd5b81516282b42960e81b81528490fd5b6002036109d45760028552610108602052610abb82862060018060a01b0383169060019160005201602052604060002054151590565b156109d45781516282b42960e81b81528490fd5b634e487b7160e01b865260218552602486fd5b8480fd5b50903461033157610af6366124c1565b6033546001600160a01b03949085163303610bc8575090610b189136916129d9565b9160038210159081610acf5782610b2d578580f35b8591929394955b8551811015610bb857610b5c610b4986612a3f565b83610b54848a612a7e565b511690612b2e565b508382610b698389612a7e565b511690610ba5579085610ba092337fc72e29af1b34de3dec3a764b4ca4d85b9c380ab33b9b268d29b6e7008bd0ed958780a4612a59565b610b34565b634e487b7160e01b845260218852602484fd5b5050935050505038808080808580f35b51635c510c8360e11b81528590fd5b50503461041557816003193601126104155780519082609854610bf981612679565b80855291600191808316908115610c945750600114610c37575b505050610c2582610726940383612565565b51918291602083526020830190612397565b9450609885527f2237a976fa961f5921fd19f2b03c925c725d77b20ce8f790c19709c03de4d8145b828610610c7c57505050610c258260206107269582010194610c13565b80546020878701810191909152909501948101610c5f565b610726975086935060209250610c2594915060ff191682840152151560051b82010194610c13565b50503461041557816003193601126104155760335490516001600160a01b039091168152602090f35b833461072a578060031936011261072a57610cfe6125d8565b600160ff1960ff54161760ff55337f793bc6423dd0257d64f9d47db72fd4b2162f4541aa41740ba1c5fb5e2cd41bcd8280a280f35b5050346104155781600319360112610415576107269060ff6101095416905191829182612498565b509190346104155780600319360112610415576001600160401b039280358481116107d157610d8d9036908301612403565b94610d966125d8565b610da460ff80541615612cdf565b6101049081549260019182850180951161100c57602498610dc68a3587612c1e565b9360001991828601958611610ffa5789519660209788810181811087821117610fe8578c52879052869055610100548611610fa6578a90610e1d8b5196610e0c88612519565b8a88528988019289845236916125a1565b958b8101968752610105805490600160401b821015610f94578582019055610e4490612d2b565b939093610f83575090600292915182555183820155019351978851938411610f715750899a50610e8283610e7c869c9a9b9c54612679565b86612c8b565b8598601f8411600114610eec57839291899a84927fdeaa91b6123d068f5821d0fb0678463d1a8a6079fe8af5de3ce5e896dcf9133d9a9b95610ee1575b50501b9260031b1c19161790555b60018060a01b03603354169551908152a480f35b015193503880610ebf565b98909291601f19831691858a52878a20928a5b818110610f5957509a847fdeaa91b6123d068f5821d0fb0678463d1a8a6079fe8af5de3ce5e896dcf9133d9a9b9c10610f41575b50505050811b019055610ecd565b01519060f88460031b161c1916905538808080610f33565b828d015185558e9b5093860193918901918901610eff565b634e487b7160e01b8b52604190528a8afd5b634e487b7160e01b8152808c528e90fd5b634e487b7160e01b855260418d528f85fd5b895162461bcd60e51b8152808a01889052601d818e01527f62617463684d696e743a3a6578636565646564206d6178546f6b656e730000006044820152606490fd5b634e487b7160e01b8e5260418c528e8efd5b634e487b7160e01b8b52601189528b8bfd5b634e487b7160e01b885260118652602488fd5b50503461041557816003193601126104155760209061010a549051908152f35b833461072a578060031936011261072a576110586125d8565b603380546001600160a01b0319811690915581906001600160a01b03167f8be0079c531659141344cd1fd0a4f28419497f9722a3daafe3b4186f6b6457e08280a380f35b50829034610415576020366003190112610415576001600160a01b036110c06123bc565b169081156110dd576020848085858152609a845220549051908152f35b608490602085519162461bcd60e51b8352820152602960248201527f4552433732313a2061646472657373207a65726f206973206e6f7420612076616044820152683634b21037bbb732b960b91b6064820152fd5b50913461072a57602036600319011261072a5750611152602092356133c1565b90516001600160a01b039091168152f35b503461033157602036600319011261033157803591611181836133c1565b336001600160a01b039091160361119c578361037184612d67565b906020606492519162461bcd60e51b8352820152601760248201527f4d757374206265206f776e6572206f6620746f6b656e2e0000000000000000006044820152fd5b509034610331576080366003190112610331576001600160401b03918035838111610ae2576112119036908301612403565b91906024358581116116e55761122a9036908401612403565b6112359691966123ed565b9388549760ff94858a60081c1615978880996116d9575b80156116c3575b1561166957600160ff198c1681178d559a89611658575b506001600160a01b03881615611615576112c892916112c0916112b0898f600a60fc5561ffff198254168255606435610100555460081c166112ab81612c2b565b612c2b565b6112b933612630565b36916125a1565b9336916125a1565b906112dc858b5460081c166112ab81612c2b565b825184811161160257806112f1609754612679565b94601f95868111611591575b506020908d8784116001146115125792611507575b5050600019600383901b1c1916908a1b176097555b81519384116114f4575061133c609854612679565b828111611491575b5060209183116001146114055791806113b9959492611391948b926113fa575b5050600019600383901b1c191690881b176098555b875460081c1661138881612c2b565b6112ab81612c2b565b60fb80546001600160a01b0319166001600160a01b0383161790556113b46125d8565b612630565b6113c1578280f35b825461ff0019168355519081527f7f26b83ff96e1f2b6a682f133852f6798a09c465da95921460cefb384740249890602090a138808280f35b015190503880611364565b609889528792917f2237a976fa961f5921fd19f2b03c925c725d77b20ce8f790c19709c03de4d81491601f1984168b5b818110611479575091611391959391856113b99998969410611460575b505050811b01609855611379565b015160001960f88460031b161c19169055388080611452565b8284015185558b969094019360209384019301611435565b60988a527f2237a976fa961f5921fd19f2b03c925c725d77b20ce8f790c19709c03de4d8148380860160051c820192602087106114eb575b0160051c019089905b8281106114e0575050611344565b8b81550189906114d2565b925081926114c9565b634e487b7160e01b8a5260419052602489fd5b015190503880611312565b91908d9450601f198416609784527f354a83ed9988f79f6038d4c7a7dadbad8af32f4ad6df893e0e5807a1b1944ff9935b81811061157957508411611560575b505050811b01609755611327565b015160001960f88460031b161c19169055388080611552565b8284015185558f969094019360209384019301611543565b90915060978d527f354a83ed9988f79f6038d4c7a7dadbad8af32f4ad6df893e0e5807a1b1944ff98680850160051c820192602086106115f9575b859493910160051c909101908d908f5b8382106115eb575050506112fd565b81558594508e91018f6115dc565b925081926115cc565b634e487b7160e01b8b526041825260248bfd5b895162461bcd60e51b8152602081860152601e60248201527f63726561746f722063616e6e6f74206265206e756c6c206164647265737300006044820152606490fd5b61ffff1916610101178c553861126a565b895162461bcd60e51b8152602081860152602e60248201527f496e697469616c697a61626c653a20636f6e747261637420697320616c72656160448201526d191e481a5b9a5d1a585b1a5e995960921b6064820152608490fd5b50303b15801561125357506001878c1614611253565b506001878c161061124c565b8680fd5b50903461033157826003193601126103315761010a54421061178457506101099081549060ff821690600382101561177157508390337f12282389323caf08dd4e02c490ef05bc7edb56967c085742687aad3cc81aa15f8380a460ff19169055337f60faf76514baf225c418dfc1e3c75bed0bd280f0436999e12cb0a73acb0f9a468280a280f35b634e487b7160e01b855260219052602484fd5b5163807a684760e01b8152fd5b8382346104155760603660031901126104155780356001600160401b03811161033157610300916117c491369101612403565b906117cd6123d7565b6117d56123ed565b926117de6125d8565b6117ec60ff80541615612cdf565b6117fc60fc5493339236916125a1565b612eb5565b50346103315760203660031901126103315780359160038310156107d1576033546001600160a01b0316330361032457506101099182549160ff831690600382101561187e5750908060ff92337f12282389323caf08dd4e02c490ef05bc7edb56967c085742687aad3cc81aa15f8880a4169060ff191617905580f35b634e487b7160e01b865260219052602485fd5b838234610415576020366003190112610415576103719035612d67565b5050346104155761087c610371916118c536612463565b919251926118d28461254a565b86845261086c6108678433613431565b5050346104155760203660031901126104155760335490516001600160a01b039091168152602090f35b833461072a57602036600319011261072a576103716119296123bc565b6119316125d8565b60018060a01b03166001600160601b0360a01b60fb54161760fb55565b50503461041557816003193601126104155760fb5490516001600160a01b039091168152602090f35b82843461072a578060031936011261072a5761199860ff6101095416612a3f565b9180519182845490818152602080910195835280832092905b8282106119d35761072686866119c9828b0383612565565b5191829182612330565b8354875295860195600193840193909101906119b1565b50913461072a578160031936011261072a578235815260fd60205281812054602435906001600160a01b039081168015611a7057925b60fe602052848120548015611a6657925b838102938185041490151715611a535750835192168252606490046020820152f35b634e487b7160e01b815260118652602490fd5b5060fc5492611a31565b508060fb541692611a20565b833461072a57610371611a8e36612463565b91611a9c6108678433613431565b613563565b503461033157602036600319011261033157603354813591906001600160a01b03163303611b38576301e1338091828102928184041490151715611b255750611aea9042612c1e565b9061010a907f6e948191a35d69000746799fef50c705bbdc93bd5a7577e9e9eb879c04bdebc982549180519283528460208401523392a25580f35b634e487b7160e01b845260119052602483fd5b8251635c510c8360e11b8152fd5b50503461041557602036600319011261041557602090611b646123bc565b60018060a01b0380603354169116149051908152f35b50823461072a57602036600319011261072a5750611ba69035611ba16101055482106137c0565b612d2b565b506107268251611bb581612519565b825481526060611bd3600260018601549560208501968752016126b3565b918286820152519351948051958695865260208601528401526060830190612397565b5082903461041557611c0736612430565b919260ff54611c1960ff821615612cdf565b6033546001600160a01b03163303611e9a5760ff611c3b9160081c161561380c565b6000848152609960205260409020546001600160a01b031615158015611e71575b15611e3757611c6a84613738565b505015611d5d5783855260206101078152868620916001600160401b038511611d4a5750611ca284611c9c8454612679565b84612c8b565b8590601f8511600114611ceb5750956105d7918487986000805160206138bd8339815191529798916105dd57508560011b906000198760031b1c19161790555192839283613850565b90601f1985168388528288209288905b828210611d32575050916105d79391866000805160206138bd83398151915298999a9410610645575050600185811b0190556105cd565b80600185968294968a01358155019501930190611cfb565b634e487b7160e01b875260419052602486fd5b83855260206101068152868620916001600160401b038511611d4a5750611d8884611c9c8454612679565b8590601f8511600114611dd85750956105d7918487986000805160206138bd833981519152979891611dcd575b508560011b906000198760031b1c19161790556105cd565b905084013589611db5565b90601f1985168388528288209288905b828210611e1f575050916105d79391866000805160206138bd83398151915298999a9410610645575050600185811b0190556105cd565b80600185968294968a01358155019501930190611de8565b606490602087519162461bcd60e51b83528201526014602482015273151bdad95b88191bd95cc81b9bdd08195e1a5cdd60621b6044820152fd5b50611e7b84613738565b50508015611c5c575083855261010260205260ff868620541615611c5c565b865162461bcd60e51b8152602081840152602160248201527f4f6e6c7920746f6b656e2063726561746f722063616e207570646174652055526044820152604960f81b6064820152608490fd5b505034610415578160031936011261041557602090610104549051908152f35b5034610331578160031936011261033157611f206123bc565b906024359260ff6101095416600381101561211057600181036120c95750600180865261010860209081528287206001600160a01b0386166000908152920190526040902054156120bd575b6001600160a01b03918280611f80876133c1565b1694169380851461207057803314908115612051575b5015611fe95750838552610103602052842080546001600160a01b03191683179055611fc183612e4f565b167f8c5be1e5ebec7d5bd14f71427d1e84f3dd0314c0f7b2291e5b200ac8c7c3b9258480a480f35b6020608492519162461bcd60e51b8352820152603860248201527f4552433732313a20617070726f76652063616c6c6572206973206e6f74206f7760448201527f6e6572206e6f7220617070726f76656420666f7220616c6c00000000000000006064820152fd5b90508652609c60205281862033875260205260ff828720541638611f96565b506020608492519162461bcd60e51b8352820152602160248201527f4552433732313a20617070726f76616c20746f2063757272656e74206f776e656044820152603960f91b6064820152fd5b516282b42960e81b8152fd5b600203611f6c57600285526101086020526120ff81862060018060a01b0385169060019160005201602052604060002054151590565b15611f6c57516282b42960e81b8152fd5b634e487b7160e01b865260218352602486fd5b50913461072a57602036600319011261072a57506111526020923561349b565b5050346104155781600319360112610415578051908260975461216581612679565b80855291600191808316908115610c94575060011461219057505050610c2582610726940383612565565b9450609785527f354a83ed9988f79f6038d4c7a7dadbad8af32f4ad6df893e0e5807a1b1944ff95b8286106121d557505050610c258260206107269582010194610c13565b805460208787018101919091529095019481016121b8565b50346103315760203660031901126103315735906001600160e01b031982168083036107d1576020935063fa31a45b60e01b81149283156122b2575b831561223a575b5050519015158152f35b919250631030681960e21b8114919082156122a1575b8215612278575b508115612268575b50903880612230565b6122729150613878565b3861225f565b90915063152a902d60e11b148015612292575b9038612257565b5061229c81613878565b61228b565b6301ffc9a760e01b81149250612250565b6301ffc9a760e01b82149350612229565b50903461033157602091826003193601126107d1573560038110156107d1576122eb90612a3f565b9281518093808654928381520195835280832092905b8282106123195761072686866119c9828b0383612565565b835487529586019560019384019390910190612301565b6020908160408183019282815285518094520193019160005b828110612357575050505090565b83516001600160a01b031685529381019392810192600101612349565b60005b8381106123875750506000910152565b8181015183820152602001612377565b906020916123b081518092818552858086019101612374565b601f01601f1916010190565b600435906001600160a01b03821682036123d257565b600080fd5b602435906001600160a01b03821682036123d257565b604435906001600160a01b03821682036123d257565b9181601f840112156123d2578235916001600160401b0383116123d257602083818601950101116123d257565b9060406003198301126123d25760043591602435906001600160401b0382116123d25761245f91600401612403565b9091565b60609060031901126123d2576001600160a01b039060043582811681036123d2579160243590811681036123d2579060443590565b9190602083019260038210156124ab5752565b634e487b7160e01b600052602160045260246000fd5b60406003198201126123d25760043560038110156123d257916024356001600160401b03928382116123d257806023830112156123d25781600401359384116123d25760248460051b830101116123d2576024019190565b606081019081106001600160401b0382111761253457604052565b634e487b7160e01b600052604160045260246000fd5b602081019081106001600160401b0382111761253457604052565b90601f801991011681019081106001600160401b0382111761253457604052565b6001600160401b03811161253457601f01601f191660200190565b9291926125ad82612586565b916125bb6040519384612565565b8294818452818301116123d2578281602093846000960137010152565b6033546001600160a01b031633036125ec57565b606460405162461bcd60e51b815260206004820152602060248201527f4f776e61626c653a2063616c6c6572206973206e6f7420746865206f776e65726044820152fd5b603380546001600160a01b039283166001600160a01b0319821681179092559091167f8be0079c531659141344cd1fd0a4f28419497f9722a3daafe3b4186f6b6457e0600080a3565b90600182811c921680156126a9575b602083101461269357565b634e487b7160e01b600052602260045260246000fd5b91607f1691612688565b90604051918260008254926126c784612679565b90818452600194858116908160001461273657506001146126f3575b50506126f192500383612565565b565b9093915060005260209081600020936000915b81831061271e5750506126f1935082010138806126e3565b85548884018501529485019487945091830191612706565b9150506126f194506020925060ff191682840152151560051b82010138806126e3565b1561276057565b60405162461bcd60e51b815260206004820152602d60248201527f4552433732313a2063616c6c6572206973206e6f7420746f6b656e206f776e6560448201526c1c881bdc88185c1c1c9bdd9959609a1b6064820152608490fd5b60809060208152603260208201527f4552433732313a207472616e7366657220746f206e6f6e20455243373231526560408201527131b2b4bb32b91034b6b83632b6b2b73a32b960711b60608201520190565b1561281557565b60405162461bcd60e51b81528061282e600482016127bb565b0390fd5b9192600092909190803b1561294457612880946040518092630a85bd0160e11b9485835233600484015287602484015260448301526080606483015281878160209a8b966084830190612397565b03926001600160a01b03165af1849181612904575b506128f3575050503d6000146128eb573d6128af81612586565b906128bd6040519283612565565b81528091833d92013e5b805191826128e85760405162461bcd60e51b81528061282e600482016127bb565b01fd5b5060606128c7565b6001600160e01b0319161492509050565b9091508581813d831161293d575b61291c8183612565565b81010312610ae257516001600160e01b031981168103610ae2579038612895565b503d612912565b5050915050600190565b9293600093909291803b156129ce579484916129a89660405180948193630a85bd0160e11b9788845233600485015260018060a01b0380921660248501526044840152608060648401528260209b8c976084830190612397565b0393165af184918161290457506128f3575050503d6000146128eb573d6128af81612586565b505050915050600190565b9092916001600160401b038411612534578360051b6040519260208094612a0282850182612565565b80978152019181019283116123d257905b828210612a205750505050565b81356001600160a01b03811681036123d2578152908301908301612a13565b60038110156124ab57600052610108602052604060002090565b6000198114612a685760010190565b634e487b7160e01b600052601160045260246000fd5b8051821015612a925760209160051b010190565b634e487b7160e01b600052603260045260246000fd5b8054821015612a925760005260206000200190600090565b6000828152600182016020526040902054612b2757805490600160401b8210156125345782612b10612af9846001809601855584612aa8565b819391549060031b91821b91600019901b19161790565b905580549260005201602052604060002055600190565b5050600090565b90600182019060009281845282602052604084205490811515600014612c175760001991808301818111612c0357825490848201918211612bef57808203612bba575b50505080548015612ba657820191612b898383612aa8565b909182549160031b1b191690555582526020526040812055600190565b634e487b7160e01b86526031600452602486fd5b612bda612bca612af99386612aa8565b90549060031b1c92839286612aa8565b90558652846020526040862055388080612b71565b634e487b7160e01b88526011600452602488fd5b634e487b7160e01b87526011600452602487fd5b5050505090565b91908201809211612a6857565b15612c3257565b60405162461bcd60e51b815260206004820152602b60248201527f496e697469616c697a61626c653a20636f6e7472616374206973206e6f74206960448201526a6e697469616c697a696e6760a81b6064820152608490fd5b90601f8111612c9957505050565b600091825260208220906020601f850160051c83019410612cd5575b601f0160051c01915b828110612cca57505050565b818155600101612cbe565b9092508290612cb5565b15612ce657565b60405162461bcd60e51b815260206004820152601e60248201527f436f6e7472616374206d757374206e6f742062652064697361626c65642e00006044820152606490fd5b610105908154811015612a9257600391600052027ffc62abc8c0fc47c2d92f5aec99bf8b60f375828e14394d89345cae11a98673710190600090565b612d7081613738565b5050600082815261010260205260408120805460ff191660011790559080612e30575b612e2c57612da46108678333613431565b612dad82612e4f565b50612db782612e4f565b828252609b6020908152604080842080546001600160a01b03199081169091556001600160a01b03909316808552609a835281852080546000190190558585526099909252832080549092169091557fddf252ad1be2c89b69c2b068fc378daa952ba7f163c4a11628f55a4df523b3ef8280a4565b5050565b506000828152609960205260409020546001600160a01b031615612d93565b6000908152609960205260409020546001600160a01b03168015612e705790565b60405162461bcd60e51b815260206004820152601860248201527f4552433732313a20696e76616c696420746f6b656e20494400000000000000006044820152606490fd5b93929091600194610104958087540180975561010054871161302257612ef961087c604051612ee38161254a565b89600096878352612ef482826130b2565b612832565b868352602091610106835260408420918151916001600160401b03831161300e57612f2883610e7c8654612679565b8490601f8411600114612fa557928060fd9593819389989660409a94612f9a575b50501b916000199060031b1c19161790555b87835261010181528383209460018060a01b0395866001600160601b0360a01b98168882541617905560fe825284842055522092169082541617905590565b015192503880612f49565b8487528587209293929190601f198416885b818110612ff9575091604098979593918560fd98969410612fe0575b505050811b019055612f5b565b015160001960f88460031b161c19169055388080612fd3565b82840151855593860193928801928801612fb7565b634e487b7160e01b86526041600452602486fd5b606460405162461bcd60e51b815260206004820152602060248201527f5f637265617465546f6b656e3a3a6578636565646564206d6178546f6b656e736044820152fd5b1561306d57565b60405162461bcd60e51b815260206004820152601c60248201527f4552433732313a20746f6b656e20616c7265616479206d696e746564000000006044820152606490fd5b6001600160a01b03168015613162576000828152609960205260409020546130e6906001600160a01b031615155b15613066565b600082815260996020526040902054613109906001600160a01b031615156130e0565b6000818152609a6020526040812060018154019055828152609960205260408120826001600160601b0360a01b8254161790557fddf252ad1be2c89b69c2b068fc378daa952ba7f163c4a11628f55a4df523b3ef8180a4565b606460405162461bcd60e51b815260206004820152602060248201527f4552433732313a206d696e7420746f20746865207a65726f20616464726573736044820152fd5b6000818152610107906020928284526040926131c484842054612679565b6133b257506131d281613738565b91151590506131f057506131ed9361010691835252206126b3565b90565b928291807a184f03e93ff9f4daa797ed6e38ed64bf6a1f01000000000000000081818110156133a3575b5050866d04ee2d6d415b85acef810000000080841015613395575b5050662386f26fc1000080831015613386575b506305f5e10080831015613377575b5061271080831015613368575b506064821015613358575b600a8092101561334e575b600190816021818701966132a561329089612586565b9861329d89519a8b612565565b808a52612586565b888c019990601f1901368b3750870101905b613318575b5050505091602f60f81b946132fb6131ed95936026955197856132e88a9751809287808b019101612374565b8601938401525180936021840190612374565b0164173539b7b760d91b6021820152036006810184520182612565565b600019019083906f181899199a1a9b1b9c1cb0b131b232b360811b8282061a835304918215613349579190826132b7565b6132bc565b926001019261327a565b929060646002910491019261326f565b60049194920491019238613264565b60089194920491019238613257565b60109194920491019238613248565b940193909104908638613235565b9194509150048192388061321a565b90936131ed94835252206126b3565b6133ca81613738565b50506133d9576131ed90612e4f565b8060005261010260205260ff604060002054166000146133fc576131ed90612e4f565b6000818152609960205260409020546001600160a01b031661342857506033546001600160a01b031690565b6131ed90612e4f565b6001600160a01b03908180613445856133c1565b16911691818314938415613484575b5050821561346157505090565b909150600052609c60205260406000209060005260205260ff6040600020541690565b839294506134919061349b565b1614913880613454565b600081815260fd60205260408120546001600160a01b0392919083166134c083613738565b5050908115613559575b5080613541575b156134e757604091815261010360205220541690565b60405162461bcd60e51b815260206004820152602c60248201527f4552433732313a20617070726f76656420717565727920666f72206e6f6e657860448201526b34b9ba32b73a103a37b5b2b760a11b6064820152608490fd5b5081815261010260205260ff604082205416156134d1565b90501515386134ca565b9082156123d2576135ad9161357784613738565b5050806136bf575b806136a5575b613696575b61359384612e4f565b6001600160a01b03939184169284929091831684146136de565b1691821561364557816135ca916135c386612e4f565b16146136de565b7fddf252ad1be2c89b69c2b068fc378daa952ba7f163c4a11628f55a4df523b3ef6000848152609b602052604081206001600160601b0360a01b90818154169055838252609a6020526040822060001981540190558482526040822060018154019055858252609960205284604083209182541617905580a4565b60405162461bcd60e51b8152602060048201526024808201527f4552433732313a207472616e7366657220746f20746865207a65726f206164646044820152637265737360e01b6064820152608490fd5b6136a084826130b2565b61358a565b508360005261010260205260ff6040600020541615613585565b506000848152609960205260409020546001600160a01b03161561357f565b156136e557565b60405162461bcd60e51b815260206004820152602560248201527f4552433732313a207472616e736665722066726f6d20696e636f72726563742060448201526437bbb732b960d91b6064820152608490fd5b61010554919060005b838110613765575050905060009060009060405161375e8161254a565b6000815290565b61376e81612d2b565b5054821015806137a9575b61378b5761378690612a59565b613741565b8093506137989150612d2b565b50906131ed600260019493016126b3565b5060016137b582612d2b565b500154821115613779565b156137c757565b60405162461bcd60e51b815260206004820152601960248201527f426174636820696e646578206f7574206f6620626f756e6473000000000000006044820152606490fd5b1561381357565b60405162461bcd60e51b8152602060048201526015602482015274151bdad95b881554925cc8185c99481b1bd8dad959605a1b6044820152606490fd5b90918060409360208452816020850152848401376000828201840152601f01601f1916010190565b63ffffffff60e01b166380ac58cd60e01b81149081156138ab575b811561389d575090565b6301ffc9a760e01b14919050565b635b5e139f60e01b8114915061389356fe931f495b9a8e5d8e61946ea5d61e021f636cfe213a801f97589c18c152e408bda2646970667358221220278cbf2aa15dd6b8cc1ca3a2cdd56b7c7c99ef1ff329756416d84e4d4be73edf64736f6c63430008120033608080604052346100165761378e908161001c8239f35b600080fdfe6040608081526004908136101561001557600080fd5b600091823560e01c8063012cf1e81461214657806301ffc9a71461207057806306fdde0314611fc6578063081812fc14611fa6578063095ea7b314611d8a57806318160ddd14611d6a57806318e97fd114611a795780631a0058f5146119fd57806320427486146119c957806323b872dd146119a45780632a55205a146119125780632ce878da1461189f5780633403c4e9146118765780633ebc82c51461183457806340c1a0641461180a57806342842e0e146117d657806342966c68146117b9578063472a6638146117295780634aa52c41146116b95780635edc7c19146111af5780636297c16c14611133578063631d1d9a146107b45780636352211e1461110257806370a082311461106c578063715018a61461100f5780637cc918d114610d3a57806387bc793f14610d12578063894ba83314610cc45780638da5cb5b14610c9b57806395d89b4114610bb65780639e860f2a14610ac5578063a22cb46514610943578063a448dd4f146108a3578063a8fabfa514610883578063ab69607a14610864578063b88d4fde146107da578063bb2ee99f146107b4578063bc7194551461070c578063c87b56dd146106d1578063d9856c2114610669578063de903ddd146104e4578063e8315742146104c4578063e985e9c514610476578063eab851181461041b578063ee070805146103f8578063efc32cd4146103a5578063f2fde38b146103145763ff6e8c8f1461023157600080fd5b346103105761023f36612344565b90919260018060a01b0394856033541633036103035760038510156102f05784156102e35750509061027291369161285c565b92805b84518110156102df576102da906102a161028e856128c2565b86610299848a612901565b511690612943565b5083856102ae8389612901565b5116337f14155f749dc3f9cd2bf890d6d3a47069f77ae35befcee11c8b1a3ba41cba15368680a46128dc565b610275565b5080f35b51632de777a160e11b8152fd5b634e487b7160e01b875260218252602487fd5b51635c510c8360e11b8152fd5b8280fd5b50346103105760203660031901126103105761032e61223f565b9161033761245b565b6001600160a01b038316156103535783610350846124b3565b80f35b906020608492519162461bcd60e51b8352820152602660248201527f4f776e61626c653a206e6577206f776e657220697320746865207a65726f206160448201526564647265737360d01b6064820152fd5b5050346103f457806003193601126103f4576103bf61223f565b906103c861245b565b602435835260fd602052822080546001600160a01b0319166001600160a01b0390921691909117905580f35b5080fd5b5050346103f457816003193601126103f45760209060ff80541690519015158152f35b5050346103f45760203660031901126103f45760209061046d61043c61223f565b61044b60ff61010954166128c2565b6001600160a01b03909116600090815260019091016020526040902054151590565b90519015158152f35b5050346103f457806003193601126103f45760ff8160209361049661223f565b61049e61225a565b6001600160a01b039182168352609c875283832091168252855220549151911615158152f35b5050346103f457816003193601126103f457602090610100549051908152f35b508290346103f4576104f5366122b3565b91926104ff61245b565b61051c60ff805461051282821615612b55565b60081c1615613688565b61052a61010554851061363c565b600261053585612ba1565b5001906001600160401b038411610656575061055b8361055583546124fc565b83612b01565b84601f84116001146105c757956105b6918487987fd181cc8d0dc01c4c286c3f799294fcd18a386821e71c9d771a3a19827b49560c9798916105bc575b508560011b906000198760031b1c19161790555b51928392836136cc565b0390a280f35b905084013589610598565b81865260208087209190601f1986169088905b82821061063e575050916105b69391867fd181cc8d0dc01c4c286c3f799294fcd18a386821e71c9d771a3a19827b49560c98999a9410610624575b5050600185811b0190556105ac565b850135600019600388901b60f8161c191690558880610615565b80600185968294968a013581550195019301906105da565b634e487b7160e01b865260419052602485fd5b8382346103f45760203660031901126103f45780356001600160401b0381116103105736602382011215610310576102df918160246106ad93369301359101612424565b6106b561245b565b6106c360ff80541615612b55565b60fc54339182908190612d2b565b50913461070957602036600319011261070957506106f26107059235613022565b905191829160208352602083019061221a565b0390f35b80fd5b5090346103105760203660031901126103105781359160038310156107b0576033546001600160a01b031633036107a25750610747826128c2565b80549084815581610784575b50507f7efc19cf93d497a6a56103ea89a39d51c0cad74a817ed3cd0ecaff9823d4da249051806105b633948261231b565b845260208420908101905b818110156107535784815560010161078f565b9051635c510c8360e11b8152fd5b8380fd5b5050346103f457816003193601126103f45760209060ff805460081c1690519015158152f35b8382346103f45760803660031901126103f4576107f561223f565b906107fe61225a565b91604435606435936001600160401b03851161086057366023860112156108605761083861085b9486602461035098369301359101612424565b9261084b61084684336132ad565b6125dc565b6108568383836133df565b6127d1565b612691565b8580fd5b5050346103f457816003193601126103f45760209060fc549051908152f35b5050346103f457816003193601126103f457602090610105549051908152f35b50346103105782600319360112610310576108bc61245b565b60ff549160ff8360081c166109005761ff001983166101001760ff55837f1cc7fa91d8671f564b11ea19e789522d84788cad2329b82dcc0b6ae1ff2338dd8180a180f35b906020606492519162461bcd60e51b8352820152601d60248201527f546f6b656e20555249732061726520616c7265616479206c6f636b65640000006044820152fd5b50903461031057806003193601126103105761095d61223f565b9060243591821515809303610ac15760ff61010954166003811015610aae5760018103610a645750600180865261010860209081528387206001600160a01b038416600090815292019052604090205415610a55575b6001600160a01b031692338414610a135750338452609c60205280842083855260205280842060ff1981541660ff8416179055519081527f17307eab39ab6107e8899845ad3d59bd9653f200f220920489ca2b5937696c3160203392a380f35b6020606492519162461bcd60e51b8352820152601960248201527f4552433732313a20617070726f766520746f2063616c6c6572000000000000006044820152fd5b81516282b42960e81b81528490fd5b6002036109b35760028552610108602052610a9a82862060018060a01b0383169060019160005201602052604060002054151590565b156109b35781516282b42960e81b81528490fd5b634e487b7160e01b865260218552602486fd5b8480fd5b50903461031057610ad536612344565b6033546001600160a01b03949085163303610ba7575090610af791369161285c565b9160038210159081610aae5782610b0c578580f35b8591929394955b8551811015610b9757610b3b610b28866128c2565b83610b33848a612901565b5116906129b1565b508382610b488389612901565b511690610b84579085610b7f92337fc72e29af1b34de3dec3a764b4ca4d85b9c380ab33b9b268d29b6e7008bd0ed958780a46128dc565b610b13565b634e487b7160e01b845260218852602484fd5b5050935050505038808080808580f35b51635c510c8360e11b81528590fd5b5050346103f457816003193601126103f45780519082609854610bd8816124fc565b80855291600191808316908115610c735750600114610c16575b505050610c04826107059403836123e8565b5191829160208352602083019061221a565b9450609885527f2237a976fa961f5921fd19f2b03c925c725d77b20ce8f790c19709c03de4d8145b828610610c5b57505050610c048260206107059582010194610bf2565b80546020878701810191909152909501948101610c3e565b610705975086935060209250610c0494915060ff191682840152151560051b82010194610bf2565b5050346103f457816003193601126103f45760335490516001600160a01b039091168152602090f35b8334610709578060031936011261070957610cdd61245b565b600160ff1960ff54161760ff55337f793bc6423dd0257d64f9d47db72fd4b2162f4541aa41740ba1c5fb5e2cd41bcd8280a280f35b5050346103f457816003193601126103f4576107059060ff610109541690519182918261231b565b509190346103f457806003193601126103f4576001600160401b039280358481116107b057610d6c9036908301612286565b610d7795919561245b565b610d8560ff80541615612b55565b6101049081549660019384890194858a11610ffc576024998a350193818501808811610fea578511610fd85788519560209687810181811086821117610fc6578b52869052859055610100548511610f84578990610df98a5195610de88761239c565b898752888701928884523691612424565b948a8101958652610105805490600160401b821015610f72578582019055610e2090612ba1565b939093610f61575090600292915182555183820155019251968751928311610f4f5750889950610e5e82610e58859b999a9b546124fc565b85612b01565b8497601f8311600114610ecb578291889983927fdeaa91b6123d068f5821d0fb0678463d1a8a6079fe8af5de3ce5e896dcf9133d999a94610ec0575b50501b916000199060031b1c19161790555b60018060a01b03603354169551908152a480f35b015192503880610e9a565b8388528588209098919291601f198316895b818110610f37575099837fdeaa91b6123d068f5821d0fb0678463d1a8a6079fe8af5de3ce5e896dcf9133d999a9b10610f1e575b505050811b019055610eac565b015160001960f88460031b161c19169055388080610f11565b828c015184558d9a5092850192918801918801610edd565b634e487b7160e01b8a52604190528989fd5b634e487b7160e01b8152808b528d90fd5b634e487b7160e01b855260418c528e85fd5b885162461bcd60e51b8152808901879052601d818d01527f62617463684d696e743a3a6578636565646564206d6178546f6b656e730000006044820152606490fd5b634e487b7160e01b8d5260418b528d8dfd5b634e487b7160e01b8a52601188528a8afd5b634e487b7160e01b8b52601189528b8bfd5b634e487b7160e01b895260118752602489fd5b833461070957806003193601126107095761102861245b565b603380546001600160a01b0319811690915581906001600160a01b03167f8be0079c531659141344cd1fd0a4f28419497f9722a3daafe3b4186f6b6457e08280a380f35b508290346103f45760203660031901126103f4576001600160a01b0361109061223f565b169081156110ad576020848085858152609a845220549051908152f35b608490602085519162461bcd60e51b8352820152602960248201527f4552433732313a2061646472657373207a65726f206973206e6f7420612076616044820152683634b21037bbb732b960b91b6064820152fd5b50913461070957602036600319011261070957506111226020923561323d565b90516001600160a01b039091168152f35b5034610310576020366003190112610310578035916111518361323d565b336001600160a01b039091160361116c578361035084612bdd565b906020606492519162461bcd60e51b8352820152601760248201527f4d757374206265206f776e6572206f6620746f6b656e2e0000000000000000006044820152fd5b509034610310576080366003190112610310576001600160401b03918035838111610ac1576111e19036908301612286565b91906024358581116116b5576111fa9036908401612286565b611205969196612270565b9388549760ff94858a60081c1615978880996116a9575b8015611693575b1561163957600160ff198c1681178d559a89611628575b506001600160a01b038816156115e557611298929161129091611280898f600a60fc5561ffff198254168255606435610100555460081c1661127b81612aa1565b612aa1565b611289336124b3565b3691612424565b933691612424565b906112ac858b5460081c1661127b81612aa1565b82518481116115d257806112c16097546124fc565b94601f95868111611561575b506020908d8784116001146114e257926114d7575b5050600019600383901b1c1916908a1b176097555b81519384116114c4575061130c6098546124fc565b828111611461575b5060209183116001146113d5579180611389959492611361948b926113ca575b5050600019600383901b1c191690881b176098555b875460081c1661135881612aa1565b61127b81612aa1565b60fb80546001600160a01b0319166001600160a01b03831617905561138461245b565b6124b3565b611391578280f35b825461ff0019168355519081527f7f26b83ff96e1f2b6a682f133852f6798a09c465da95921460cefb384740249890602090a138808280f35b015190503880611334565b609889528792917f2237a976fa961f5921fd19f2b03c925c725d77b20ce8f790c19709c03de4d81491601f1984168b5b818110611449575091611361959391856113899998969410611430575b505050811b01609855611349565b015160001960f88460031b161c19169055388080611422565b8284015185558b969094019360209384019301611405565b60988a527f2237a976fa961f5921fd19f2b03c925c725d77b20ce8f790c19709c03de4d8148380860160051c820192602087106114bb575b0160051c019089905b8281106114b0575050611314565b8b81550189906114a2565b92508192611499565b634e487b7160e01b8a5260419052602489fd5b0151905038806112e2565b91908d9450601f198416609784527f354a83ed9988f79f6038d4c7a7dadbad8af32f4ad6df893e0e5807a1b1944ff9935b81811061154957508411611530575b505050811b016097556112f7565b015160001960f88460031b161c19169055388080611522565b8284015185558f969094019360209384019301611513565b90915060978d527f354a83ed9988f79f6038d4c7a7dadbad8af32f4ad6df893e0e5807a1b1944ff98680850160051c820192602086106115c9575b859493910160051c909101908d908f5b8382106115bb575050506112cd565b81558594508e91018f6115ac565b9250819261159c565b634e487b7160e01b8b526041825260248bfd5b895162461bcd60e51b8152602081860152601e60248201527f63726561746f722063616e6e6f74206265206e756c6c206164647265737300006044820152606490fd5b61ffff1916610101178c553861123a565b895162461bcd60e51b8152602081860152602e60248201527f496e697469616c697a61626c653a20636f6e747261637420697320616c72656160448201526d191e481a5b9a5d1a585b1a5e995960921b6064820152608490fd5b50303b15801561122357506001878c1614611223565b506001878c161061121c565b8680fd5b8382346103f45760603660031901126103f45780356001600160401b038111610310576102df916116ec91369101612286565b906116f561225a565b6116fd612270565b9261170661245b565b61171460ff80541615612b55565b61172460fc549333923691612424565b612d2b565b50346103105760203660031901126103105780359160038310156107b0576033546001600160a01b0316330361030357506101099182549160ff83169060038210156117a65750908060ff92337f12282389323caf08dd4e02c490ef05bc7edb56967c085742687aad3cc81aa15f8880a4169060ff191617905580f35b634e487b7160e01b865260219052602485fd5b8382346103f45760203660031901126103f4576103509035612bdd565b5050346103f45761085b610350916117ed366122e6565b919251926117fa846123cd565b86845261084b61084684336132ad565b5050346103f45760203660031901126103f45760335490516001600160a01b039091168152602090f35b83346107095760203660031901126107095761035061185161223f565b61185961245b565b60018060a01b03166001600160601b0360a01b60fb54161760fb55565b5050346103f457816003193601126103f45760fb5490516001600160a01b039091168152602090f35b8284346107095780600319360112610709576118c060ff61010954166128c2565b9180519182845490818152602080910195835280832092905b8282106118fb5761070586866118f1828b03836123e8565b51918291826121b3565b8354875295860195600193840193909101906118d9565b5091346107095781600319360112610709578235815260fd60205281812054602435906001600160a01b03908116801561199857925b60fe60205284812054801561198e57925b83810293818504149015171561197b5750835192168252606490046020820152f35b634e487b7160e01b815260118652602490fd5b5060fc5492611959565b508060fb541692611948565b8334610709576103506119b6366122e6565b916119c461084684336132ad565b6133df565b5050346103f45760203660031901126103f4576020906119e761223f565b60018060a01b0380603354169116149051908152f35b5082346107095760203660031901126107095750611a299035611a2461010554821061363c565b612ba1565b506107058251611a388161239c565b825481526060611a5660026001860154956020850196875201612536565b91828682015251935194805195869586526020860152840152606083019061221a565b508290346103f457611a8a366122b3565b919260ff54611a9c60ff821615612b55565b6033546001600160a01b03163303611d1d5760ff611abe9160081c1615613688565b6000848152609960205260409020546001600160a01b031615158015611cf4575b15611cba57611aed846135b4565b505015611be05783855260206101078152868620916001600160401b038511611bcd5750611b2584611b1f84546124fc565b84612b01565b8590601f8511600114611b6e5750956105b6918487986000805160206137398339815191529798916105bc57508560011b906000198760031b1c191617905551928392836136cc565b90601f1985168388528288209288905b828210611bb5575050916105b693918660008051602061373983398151915298999a9410610624575050600185811b0190556105ac565b80600185968294968a01358155019501930190611b7e565b634e487b7160e01b875260419052602486fd5b83855260206101068152868620916001600160401b038511611bcd5750611c0b84611b1f84546124fc565b8590601f8511600114611c5b5750956105b691848798600080516020613739833981519152979891611c50575b508560011b906000198760031b1c19161790556105ac565b905084013589611c38565b90601f1985168388528288209288905b828210611ca2575050916105b693918660008051602061373983398151915298999a9410610624575050600185811b0190556105ac565b80600185968294968a01358155019501930190611c6b565b606490602087519162461bcd60e51b83528201526014602482015273151bdad95b88191bd95cc81b9bdd08195e1a5cdd60621b6044820152fd5b50611cfe846135b4565b50508015611adf575083855261010260205260ff868620541615611adf565b865162461bcd60e51b8152602081840152602160248201527f4f6e6c7920746f6b656e2063726561746f722063616e207570646174652055526044820152604960f81b6064820152608490fd5b5050346103f457816003193601126103f457602090610104549051908152f35b5034610310578160031936011261031057611da361223f565b906024359260ff61010954166003811015611f935760018103611f4c5750600180865261010860209081528287206001600160a01b038616600090815292019052604090205415611f40575b6001600160a01b03918280611e038761323d565b16941693808514611ef357803314908115611ed4575b5015611e6c5750838552610103602052842080546001600160a01b03191683179055611e4483612cc5565b167f8c5be1e5ebec7d5bd14f71427d1e84f3dd0314c0f7b2291e5b200ac8c7c3b9258480a480f35b6020608492519162461bcd60e51b8352820152603860248201527f4552433732313a20617070726f76652063616c6c6572206973206e6f74206f7760448201527f6e6572206e6f7220617070726f76656420666f7220616c6c00000000000000006064820152fd5b90508652609c60205281862033875260205260ff828720541638611e19565b506020608492519162461bcd60e51b8352820152602160248201527f4552433732313a20617070726f76616c20746f2063757272656e74206f776e656044820152603960f91b6064820152fd5b516282b42960e81b8152fd5b600203611def5760028552610108602052611f8281862060018060a01b0385169060019160005201602052604060002054151590565b15611def57516282b42960e81b8152fd5b634e487b7160e01b865260218352602486fd5b509134610709576020366003190112610709575061112260209235613317565b5050346103f457816003193601126103f45780519082609754611fe8816124fc565b80855291600191808316908115610c73575060011461201357505050610c04826107059403836123e8565b9450609785527f354a83ed9988f79f6038d4c7a7dadbad8af32f4ad6df893e0e5807a1b1944ff95b82861061205857505050610c048260206107059582010194610bf2565b8054602087870181019190915290950194810161203b565b50346103105760203660031901126103105735906001600160e01b031982168083036107b0576020935063fa31a45b60e01b8114928315612135575b83156120bd575b5050519015158152f35b919250631030681960e21b811491908215612124575b82156120fb575b5081156120eb575b509038806120b3565b6120f591506136f4565b386120e2565b90915063152a902d60e11b148015612115575b90386120da565b5061211f816136f4565b61210e565b6301ffc9a760e01b811492506120d3565b6301ffc9a760e01b821493506120ac565b50903461031057602091826003193601126107b0573560038110156107b05761216e906128c2565b9281518093808654928381520195835280832092905b82821061219c5761070586866118f1828b03836123e8565b835487529586019560019384019390910190612184565b6020908160408183019282815285518094520193019160005b8281106121da575050505090565b83516001600160a01b0316855293810193928101926001016121cc565b60005b83811061220a5750506000910152565b81810151838201526020016121fa565b90602091612233815180928185528580860191016121f7565b601f01601f1916010190565b600435906001600160a01b038216820361225557565b600080fd5b602435906001600160a01b038216820361225557565b604435906001600160a01b038216820361225557565b9181601f84011215612255578235916001600160401b038311612255576020838186019501011161225557565b9060406003198301126122555760043591602435906001600160401b038211612255576122e291600401612286565b9091565b6060906003190112612255576001600160a01b0390600435828116810361225557916024359081168103612255579060443590565b91906020830192600382101561232e5752565b634e487b7160e01b600052602160045260246000fd5b604060031982011261225557600435600381101561225557916024356001600160401b039283821161225557806023830112156122555781600401359384116122555760248460051b83010111612255576024019190565b606081019081106001600160401b038211176123b757604052565b634e487b7160e01b600052604160045260246000fd5b602081019081106001600160401b038211176123b757604052565b90601f801991011681019081106001600160401b038211176123b757604052565b6001600160401b0381116123b757601f01601f191660200190565b92919261243082612409565b9161243e60405193846123e8565b829481845281830111612255578281602093846000960137010152565b6033546001600160a01b0316330361246f57565b606460405162461bcd60e51b815260206004820152602060248201527f4f776e61626c653a2063616c6c6572206973206e6f7420746865206f776e65726044820152fd5b603380546001600160a01b039283166001600160a01b0319821681179092559091167f8be0079c531659141344cd1fd0a4f28419497f9722a3daafe3b4186f6b6457e0600080a3565b90600182811c9216801561252c575b602083101461251657565b634e487b7160e01b600052602260045260246000fd5b91607f169161250b565b906040519182600082549261254a846124fc565b9081845260019485811690816000146125b95750600114612576575b5050612574925003836123e8565b565b9093915060005260209081600020936000915b8183106125a157505061257493508201013880612566565b85548884018501529485019487945091830191612589565b91505061257494506020925060ff191682840152151560051b8201013880612566565b156125e357565b60405162461bcd60e51b815260206004820152602d60248201527f4552433732313a2063616c6c6572206973206e6f7420746f6b656e206f776e6560448201526c1c881bdc88185c1c1c9bdd9959609a1b6064820152608490fd5b60809060208152603260208201527f4552433732313a207472616e7366657220746f206e6f6e20455243373231526560408201527131b2b4bb32b91034b6b83632b6b2b73a32b960711b60608201520190565b1561269857565b60405162461bcd60e51b8152806126b16004820161263e565b0390fd5b9192600092909190803b156127c757612703946040518092630a85bd0160e11b9485835233600484015287602484015260448301526080606483015281878160209a8b96608483019061221a565b03926001600160a01b03165af1849181612787575b50612776575050503d60001461276e573d61273281612409565b9061274060405192836123e8565b81528091833d92013e5b8051918261276b5760405162461bcd60e51b8152806126b16004820161263e565b01fd5b50606061274a565b6001600160e01b0319161492509050565b9091508581813d83116127c0575b61279f81836123e8565b81010312610ac157516001600160e01b031981168103610ac1579038612718565b503d612795565b5050915050600190565b9293600093909291803b156128515794849161282b9660405180948193630a85bd0160e11b9788845233600485015260018060a01b0380921660248501526044840152608060648401528260209b8c97608483019061221a565b0393165af18491816127875750612776575050503d60001461276e573d61273281612409565b505050915050600190565b9092916001600160401b0384116123b7578360051b6040519260208094612885828501826123e8565b809781520191810192831161225557905b8282106128a35750505050565b81356001600160a01b0381168103612255578152908301908301612896565b600381101561232e57600052610108602052604060002090565b60001981146128eb5760010190565b634e487b7160e01b600052601160045260246000fd5b80518210156129155760209160051b010190565b634e487b7160e01b600052603260045260246000fd5b80548210156129155760005260206000200190600090565b60008281526001820160205260409020546129aa57805490600160401b8210156123b7578261299361297c84600180960185558461292b565b819391549060031b91821b91600019901b19161790565b905580549260005201602052604060002055600190565b5050600090565b90600182019060009281845282602052604084205490811515600014612a9a5760001991808301818111612a8657825490848201918211612a7257808203612a3d575b50505080548015612a2957820191612a0c838361292b565b909182549160031b1b191690555582526020526040812055600190565b634e487b7160e01b86526031600452602486fd5b612a5d612a4d61297c938661292b565b90549060031b1c9283928661292b565b905586528460205260408620553880806129f4565b634e487b7160e01b88526011600452602488fd5b634e487b7160e01b87526011600452602487fd5b5050505090565b15612aa857565b60405162461bcd60e51b815260206004820152602b60248201527f496e697469616c697a61626c653a20636f6e7472616374206973206e6f74206960448201526a6e697469616c697a696e6760a81b6064820152608490fd5b90601f8111612b0f57505050565b600091825260208220906020601f850160051c83019410612b4b575b601f0160051c01915b828110612b4057505050565b818155600101612b34565b9092508290612b2b565b15612b5c57565b60405162461bcd60e51b815260206004820152601e60248201527f436f6e7472616374206d757374206e6f742062652064697361626c65642e00006044820152606490fd5b61010590815481101561291557600391600052027ffc62abc8c0fc47c2d92f5aec99bf8b60f375828e14394d89345cae11a98673710190600090565b612be6816135b4565b5050600082815261010260205260408120805460ff191660011790559080612ca6575b612ca257612c1a61084683336132ad565b612c2382612cc5565b50612c2d82612cc5565b828252609b6020908152604080842080546001600160a01b03199081169091556001600160a01b03909316808552609a835281852080546000190190558585526099909252832080549092169091557fddf252ad1be2c89b69c2b068fc378daa952ba7f163c4a11628f55a4df523b3ef8280a4565b5050565b506000828152609960205260409020546001600160a01b031615612c09565b6000908152609960205260409020546001600160a01b03168015612ce65790565b60405162461bcd60e51b815260206004820152601860248201527f4552433732313a20696e76616c696420746f6b656e20494400000000000000006044820152606490fd5b939290916001946101049580875401809755610100548711612e9e57612d6f61085b604051612d59816123cd565b89600096878352612d6a8282612f2e565b6126b5565b868352602091610106835260408420918151916001600160401b038311612e8a57612da483612d9e86546124fc565b86612b01565b8490601f8411600114612e2157928060fd9593819389989660409a94612e16575b50501b916000199060031b1c19161790555b87835261010181528383209460018060a01b0395866001600160601b0360a01b98168882541617905560fe825284842055522092169082541617905590565b015192503880612dc5565b8487528587209293929190601f198416885b818110612e75575091604098979593918560fd98969410612e5c575b505050811b019055612dd7565b015160001960f88460031b161c19169055388080612e4f565b82840151855593860193928801928801612e33565b634e487b7160e01b86526041600452602486fd5b606460405162461bcd60e51b815260206004820152602060248201527f5f637265617465546f6b656e3a3a6578636565646564206d6178546f6b656e736044820152fd5b15612ee957565b60405162461bcd60e51b815260206004820152601c60248201527f4552433732313a20746f6b656e20616c7265616479206d696e746564000000006044820152606490fd5b6001600160a01b03168015612fde57600082815260996020526040902054612f62906001600160a01b031615155b15612ee2565b600082815260996020526040902054612f85906001600160a01b03161515612f5c565b6000818152609a6020526040812060018154019055828152609960205260408120826001600160601b0360a01b8254161790557fddf252ad1be2c89b69c2b068fc378daa952ba7f163c4a11628f55a4df523b3ef8180a4565b606460405162461bcd60e51b815260206004820152602060248201527f4552433732313a206d696e7420746f20746865207a65726f20616464726573736044820152fd5b600081815261010790602092828452604092613040848420546124fc565b61322e575061304e816135b4565b911515905061306c5750613069936101069183525220612536565b90565b928291807a184f03e93ff9f4daa797ed6e38ed64bf6a1f010000000000000000818181101561321f575b5050866d04ee2d6d415b85acef810000000080841015613211575b5050662386f26fc1000080831015613202575b506305f5e100808310156131f3575b50612710808310156131e4575b5060648210156131d4575b600a809210156131ca575b6001908160218187019661312161310c89612409565b9861311989519a8b6123e8565b808a52612409565b888c019990601f1901368b3750870101905b613194575b5050505091602f60f81b9461317761306995936026955197856131648a9751809287808b0191016121f7565b86019384015251809360218401906121f7565b0164173539b7b760d91b60218201520360068101845201826123e8565b600019019083906f181899199a1a9b1b9c1cb0b131b232b360811b8282061a8353049182156131c557919082613133565b613138565b92600101926130f6565b92906064600291049101926130eb565b600491949204910192386130e0565b600891949204910192386130d3565b601091949204910192386130c4565b9401939091049086386130b1565b91945091500481923880613096565b90936130699483525220612536565b613246816135b4565b50506132555761306990612cc5565b8060005261010260205260ff604060002054166000146132785761306990612cc5565b6000818152609960205260409020546001600160a01b03166132a457506033546001600160a01b031690565b61306990612cc5565b6001600160a01b039081806132c18561323d565b16911691818314938415613300575b505082156132dd57505090565b909150600052609c60205260406000209060005260205260ff6040600020541690565b8392945061330d90613317565b16149138806132d0565b600081815260fd60205260408120546001600160a01b03929190831661333c836135b4565b50509081156133d5575b50806133bd575b1561336357604091815261010360205220541690565b60405162461bcd60e51b815260206004820152602c60248201527f4552433732313a20617070726f76656420717565727920666f72206e6f6e657860448201526b34b9ba32b73a103a37b5b2b760a11b6064820152608490fd5b5081815261010260205260ff6040822054161561334d565b9050151538613346565b90821561225557613429916133f3846135b4565b50508061353b575b80613521575b613512575b61340f84612cc5565b6001600160a01b039391841692849290918316841461355a565b169182156134c157816134469161343f86612cc5565b161461355a565b7fddf252ad1be2c89b69c2b068fc378daa952ba7f163c4a11628f55a4df523b3ef6000848152609b602052604081206001600160601b0360a01b90818154169055838252609a6020526040822060001981540190558482526040822060018154019055858252609960205284604083209182541617905580a4565b60405162461bcd60e51b8152602060048201526024808201527f4552433732313a207472616e7366657220746f20746865207a65726f206164646044820152637265737360e01b6064820152608490fd5b61351c8482612f2e565b613406565b508360005261010260205260ff6040600020541615613401565b506000848152609960205260409020546001600160a01b0316156133fb565b1561356157565b60405162461bcd60e51b815260206004820152602560248201527f4552433732313a207472616e736665722066726f6d20696e636f72726563742060448201526437bbb732b960d91b6064820152608490fd5b61010554919060005b8381106135e157505090506000906000906040516135da816123cd565b6000815290565b6135ea81612ba1565b505482101580613625575b61360757613602906128dc565b6135bd565b8093506136149150612ba1565b509061306960026001949301612536565b50600161363182612ba1565b5001548211156135f5565b1561364357565b60405162461bcd60e51b815260206004820152601960248201527f426174636820696e646578206f7574206f6620626f756e6473000000000000006044820152606490fd5b1561368f57565b60405162461bcd60e51b8152602060048201526015602482015274151bdad95b881554925cc8185c99481b1bd8dad959605a1b6044820152606490fd5b90918060409360208452816020850152848401376000828201840152601f01601f1916010190565b63ffffffff60e01b166380ac58cd60e01b8114908115613727575b8115613719575090565b6301ffc9a760e01b14919050565b635b5e139f60e01b8114915061370f56fe931f495b9a8e5d8e61946ea5d61e021f636cfe213a801f97589c18c152e408bda264697066735822122017eb82674d3c42f7b9581bfa83424e75a929e877e6c40d9a17e90386f33585a764736f6c63430008120033","linkReferences":{}},"methodIdentifiers":{"ROYALTY_GUARD()":"7de4c082","ROYALTY_GUARD_DEADMAN()":"ef6fde5b","SOVEREIGN_NFT()":"ea14289f","createSovereignNFTContract(string,string)":"3cebcf41","createSovereignNFTContract(string,string,uint256)":"da8d79f3","createSovereignNFTContract(string,string,uint256,bytes32)":"877ebf51","owner()":"8da5cb5b","renounceOwnership()":"715018a6","setSovereignNFT(address)":"9607cb49","setSovereignNFT(address,bytes32)":"a55b1c25","sovereignNFT()":"d05df883","sovereignNFTRoyaltyGuard()":"c9be0590","sovereignNFTRoyaltyGuardDeadmanTrigger()":"d1e0f700","transferOwnership(address)":"f2fde38b"},"id":251}