{"abi":[{"type":"function","name":"addNewToken","inputs":[{"name":"_uri","type":"string","internalType":"string"}],"outputs":[],"stateMutability":"nonpayable"},{"type":"function","name":"approve","inputs":[{"name":"_spender","type":"address","internalType":"address"},{"name":"_id","type":"uint256","internalType":"uint256"}],"outputs":[],"stateMutability":"nonpayable"},{"type":"function","name":"areTokenURIsLocked","inputs":[],"outputs":[{"name":"","type":"bool","internalType":"bool"}],"stateMutability":"view"},{"type":"function","name":"balanceOf","inputs":[{"name":"owner","type":"address","internalType":"address"}],"outputs":[{"name":"","type":"uint256","internalType":"uint256"}],"stateMutability":"view"},{"type":"function","name":"batchAddAddressToRoyaltyList","inputs":[{"name":"_listType","type":"uint8","internalType":"enum IRoyaltyGuard.ListType"},{"name":"_addrs","type":"address[]","internalType":"address[]"}],"outputs":[],"stateMutability":"nonpayable"},{"type":"function","name":"batchMint","inputs":[{"name":"_baseURI","type":"string","internalType":"string"},{"name":"_numberOfTokens","type":"uint256","internalType":"uint256"}],"outputs":[],"stateMutability":"nonpayable"},{"type":"function","name":"batchRemoveAddressToRoyaltyList","inputs":[{"name":"_listType","type":"uint8","internalType":"enum IRoyaltyGuard.ListType"},{"name":"_addrs","type":"address[]","internalType":"address[]"}],"outputs":[],"stateMutability":"nonpayable"},{"type":"function","name":"burn","inputs":[{"name":"_tokenId","type":"uint256","internalType":"uint256"}],"outputs":[],"stateMutability":"nonpayable"},{"type":"function","name":"clearList","inputs":[{"name":"_listType","type":"uint8","internalType":"enum IRoyaltyGuard.ListType"}],"outputs":[],"stateMutability":"nonpayable"},{"type":"function","name":"deleteToken","inputs":[{"name":"_tokenId","type":"uint256","internalType":"uint256"}],"outputs":[],"stateMutability":"nonpayable"},{"type":"function","name":"disableContract","inputs":[],"outputs":[],"stateMutability":"nonpayable"},{"type":"function","name":"disabled","inputs":[],"outputs":[{"name":"","type":"bool","internalType":"bool"}],"stateMutability":"view"},{"type":"function","name":"getApproved","inputs":[{"name":"_tokenId","type":"uint256","internalType":"uint256"}],"outputs":[{"name":"","type":"address","internalType":"address"}],"stateMutability":"view"},{"type":"function","name":"getBatchCount","inputs":[],"outputs":[{"name":"","type":"uint256","internalType":"uint256"}],"stateMutability":"view"},{"type":"function","name":"getBatchInfo","inputs":[{"name":"_batchIndex","type":"uint256","internalType":"uint256"}],"outputs":[{"name":"startTokenId","type":"uint256","internalType":"uint256"},{"name":"endTokenId","type":"uint256","internalType":"uint256"},{"name":"baseURI","type":"string","internalType":"string"}],"stateMutability":"view"},{"type":"function","name":"getDefaultRoyaltyPercentage","inputs":[],"outputs":[{"name":"","type":"uint256","internalType":"uint256"}],"stateMutability":"view"},{"type":"function","name":"getDefaultRoyaltyReceiver","inputs":[],"outputs":[{"name":"","type":"address","internalType":"address"}],"stateMutability":"view"},{"type":"function","name":"getInUseList","inputs":[],"outputs":[{"name":"","type":"address[]","internalType":"address[]"}],"stateMutability":"view"},{"type":"function","name":"getList","inputs":[{"name":"_listType","type":"uint8","internalType":"enum IRoyaltyGuard.ListType"}],"outputs":[{"name":"","type":"address[]","internalType":"address[]"}],"stateMutability":"view"},{"type":"function","name":"getListType","inputs":[],"outputs":[{"name":"","type":"uint8","internalType":"enum IRoyaltyGuard.ListType"}],"stateMutability":"view"},{"type":"function","name":"hasAdminPermission","inputs":[{"name":"_addr","type":"address","internalType":"address"}],"outputs":[{"name":"","type":"bool","internalType":"bool"}],"stateMutability":"view"},{"type":"function","name":"init","inputs":[{"name":"_name","type":"string","internalType":"string"},{"name":"_symbol","type":"string","internalType":"string"},{"name":"_creator","type":"address","internalType":"address"},{"name":"_maxTokens","type":"uint256","internalType":"uint256"}],"outputs":[],"stateMutability":"nonpayable"},{"type":"function","name":"isApprovedForAll","inputs":[{"name":"owner","type":"address","internalType":"address"},{"name":"operator","type":"address","internalType":"address"}],"outputs":[{"name":"","type":"bool","internalType":"bool"}],"stateMutability":"view"},{"type":"function","name":"isOperatorInList","inputs":[{"name":"_operator","type":"address","internalType":"address"}],"outputs":[{"name":"","type":"bool","internalType":"bool"}],"stateMutability":"view"},{"type":"function","name":"lockTokenURIs","inputs":[],"outputs":[],"stateMutability":"nonpayable"},{"type":"function","name":"maxTokens","inputs":[],"outputs":[{"name":"","type":"uint256","internalType":"uint256"}],"stateMutability":"view"},{"type":"function","name":"mintTo","inputs":[{"name":"_uri","type":"string","internalType":"string"},{"name":"_receiver","type":"address","internalType":"address"},{"name":"_royaltyReceiver","type":"address","internalType":"address"}],"outputs":[],"stateMutability":"nonpayable"},{"type":"function","name":"name","inputs":[],"outputs":[{"name":"","type":"string","internalType":"string"}],"stateMutability":"view"},{"type":"function","name":"owner","inputs":[],"outputs":[{"name":"","type":"address","internalType":"address"}],"stateMutability":"view"},{"type":"function","name":"ownerOf","inputs":[{"name":"_tokenId","type":"uint256","internalType":"uint256"}],"outputs":[{"name":"","type":"address","internalType":"address"}],"stateMutability":"view"},{"type":"function","name":"renounceOwnership","inputs":[],"outputs":[],"stateMutability":"nonpayable"},{"type":"function","name":"royaltyInfo","inputs":[{"name":"_tokenId","type":"uint256","internalType":"uint256"},{"name":"_salePrice","type":"uint256","internalType":"uint256"}],"outputs":[{"name":"receiver","type":"address","internalType":"address"},{"name":"royaltyAmount","type":"uint256","internalType":"uint256"}],"stateMutability":"view"},{"type":"function","name":"safeTransferFrom","inputs":[{"name":"from","type":"address","internalType":"address"},{"name":"to","type":"address","internalType":"address"},{"name":"tokenId","type":"uint256","internalType":"uint256"}],"outputs":[],"stateMutability":"nonpayable"},{"type":"function","name":"safeTransferFrom","inputs":[{"name":"from","type":"address","internalType":"address"},{"name":"to","type":"address","internalType":"address"},{"name":"tokenId","type":"uint256","internalType":"uint256"},{"name":"data","type":"bytes","internalType":"bytes"}],"outputs":[],"stateMutability":"nonpayable"},{"type":"function","name":"setApprovalForAll","inputs":[{"name":"_operator","type":"address","internalType":"address"},{"name":"_approved","type":"bool","internalType":"bool"}],"outputs":[],"stateMutability":"nonpayable"},{"type":"function","name":"setDefaultRoyaltyReceiver","inputs":[{"name":"_receiver","type":"address","internalType":"address"}],"outputs":[],"stateMutability":"nonpayable"},{"type":"function","name":"setRoyaltyReceiverForToken","inputs":[{"name":"_receiver","type":"address","internalType":"address"},{"name":"_tokenId","type":"uint256","internalType":"uint256"}],"outputs":[],"stateMutability":"nonpayable"},{"type":"function","name":"supportsInterface","inputs":[{"name":"_interfaceId","type":"bytes4","internalType":"bytes4"}],"outputs":[{"name":"","type":"bool","internalType":"bool"}],"stateMutability":"view"},{"type":"function","name":"symbol","inputs":[],"outputs":[{"name":"","type":"string","internalType":"string"}],"stateMutability":"view"},{"type":"function","name":"toggleListType","inputs":[{"name":"_newListType","type":"uint8","internalType":"enum IRoyaltyGuard.ListType"}],"outputs":[],"stateMutability":"nonpayable"},{"type":"function","name":"tokenCreator","inputs":[{"name":"","type":"uint256","internalType":"uint256"}],"outputs":[{"name":"","type":"address","internalType":"address payable"}],"stateMutability":"view"},{"type":"function","name":"tokenURI","inputs":[{"name":"_tokenId","type":"uint256","internalType":"uint256"}],"outputs":[{"name":"","type":"string","internalType":"string"}],"stateMutability":"view"},{"type":"function","name":"tokenURIsLocked","inputs":[],"outputs":[{"name":"","type":"bool","internalType":"bool"}],"stateMutability":"view"},{"type":"function","name":"totalSupply","inputs":[],"outputs":[{"name":"","type":"uint256","internalType":"uint256"}],"stateMutability":"view"},{"type":"function","name":"transferFrom","inputs":[{"name":"from","type":"address","internalType":"address"},{"name":"to","type":"address","internalType":"address"},{"name":"tokenId","type":"uint256","internalType":"uint256"}],"outputs":[],"stateMutability":"nonpayable"},{"type":"function","name":"transferOwnership","inputs":[{"name":"newOwner","type":"address","internalType":"address"}],"outputs":[],"stateMutability":"nonpayable"},{"type":"function","name":"updateBatchBaseURI","inputs":[{"name":"_batchIndex","type":"uint256","internalType":"uint256"},{"name":"_newBaseURI","type":"string","internalType":"string"}],"outputs":[],"stateMutability":"nonpayable"},{"type":"function","name":"updateTokenURI","inputs":[{"name":"_tokenId","type":"uint256","internalType":"uint256"},{"name":"_newURI","type":"string","internalType":"string"}],"outputs":[],"stateMutability":"nonpayable"},{"type":"event","name":"AddressAddedToList","inputs":[{"name":"_updater","type":"address","indexed":true,"internalType":"address"},{"name":"_addedAddr","type":"address","indexed":true,"internalType":"address"},{"name":"_ListType","type":"uint8","indexed":true,"internalType":"enum IRoyaltyGuard.ListType"}],"anonymous":false},{"type":"event","name":"AddressRemovedList","inputs":[{"name":"_updater","type":"address","indexed":true,"internalType":"address"},{"name":"_removedAddr","type":"address","indexed":true,"internalType":"address"},{"name":"_ListType","type":"uint8","indexed":true,"internalType":"enum IRoyaltyGuard.ListType"}],"anonymous":false},{"type":"event","name":"Approval","inputs":[{"name":"owner","type":"address","indexed":true,"internalType":"address"},{"name":"approved","type":"address","indexed":true,"internalType":"address"},{"name":"tokenId","type":"uint256","indexed":true,"internalType":"uint256"}],"anonymous":false},{"type":"event","name":"ApprovalForAll","inputs":[{"name":"owner","type":"address","indexed":true,"internalType":"address"},{"name":"operator","type":"address","indexed":true,"internalType":"address"},{"name":"approved","type":"bool","indexed":false,"internalType":"bool"}],"anonymous":false},{"type":"event","name":"BatchBaseURIUpdated","inputs":[{"name":"batchIndex","type":"uint256","indexed":true,"internalType":"uint256"},{"name":"newBaseURI","type":"string","indexed":false,"internalType":"string"}],"anonymous":false},{"type":"event","name":"ConsecutiveTransfer","inputs":[{"name":"fromTokenId","type":"uint256","indexed":true,"internalType":"uint256"},{"name":"toTokenId","type":"uint256","indexed":false,"internalType":"uint256"},{"name":"fromAddress","type":"address","indexed":true,"internalType":"address"},{"name":"toAddress","type":"address","indexed":true,"internalType":"address"}],"anonymous":false},{"type":"event","name":"ContractDisabled","inputs":[{"name":"user","type":"address","indexed":true,"internalType":"address"}],"anonymous":false},{"type":"event","name":"Initialized","inputs":[{"name":"version","type":"uint8","indexed":false,"internalType":"uint8"}],"anonymous":false},{"type":"event","name":"ListCleared","inputs":[{"name":"_updater","type":"address","indexed":true,"internalType":"address"},{"name":"_listType","type":"uint8","indexed":false,"internalType":"enum IRoyaltyGuard.ListType"}],"anonymous":false},{"type":"event","name":"ListTypeUpdated","inputs":[{"name":"_updater","type":"address","indexed":true,"internalType":"address"},{"name":"_oldListType","type":"uint8","indexed":true,"internalType":"enum IRoyaltyGuard.ListType"},{"name":"_newListType","type":"uint8","indexed":true,"internalType":"enum IRoyaltyGuard.ListType"}],"anonymous":false},{"type":"event","name":"OwnershipTransferred","inputs":[{"name":"previousOwner","type":"address","indexed":true,"internalType":"address"},{"name":"newOwner","type":"address","indexed":true,"internalType":"address"}],"anonymous":false},{"type":"event","name":"TokenURIUpdated","inputs":[{"name":"tokenId","type":"uint256","indexed":true,"internalType":"uint256"},{"name":"newURI","type":"string","indexed":false,"internalType":"string"}],"anonymous":false},{"type":"event","name":"TokenURIsLocked","inputs":[],"anonymous":false},{"type":"event","name":"Transfer","inputs":[{"name":"from","type":"address","indexed":true,"internalType":"address"},{"name":"to","type":"address","indexed":true,"internalType":"address"},{"name":"tokenId","type":"uint256","indexed":true,"internalType":"uint256"}],"anonymous":false},{"type":"error","name":"CantAddToOFFList","inputs":[]},{"type":"error","name":"MustBeAdmin","inputs":[]},{"type":"error","name":"Unauthorized","inputs":[]}],"bytecode":{"object":"0x608080604052346100165761378e908161001c8239f35b600080fdfe6040608081526004908136101561001557600080fd5b600091823560e01c8063012cf1e81461214657806301ffc9a71461207057806306fdde0314611fc6578063081812fc14611fa6578063095ea7b314611d8a57806318160ddd14611d6a57806318e97fd114611a795780631a0058f5146119fd57806320427486146119c957806323b872dd146119a45780632a55205a146119125780632ce878da1461189f5780633403c4e9146118765780633ebc82c51461183457806340c1a0641461180a57806342842e0e146117d657806342966c68146117b9578063472a6638146117295780634aa52c41146116b95780635edc7c19146111af5780636297c16c14611133578063631d1d9a146107b45780636352211e1461110257806370a082311461106c578063715018a61461100f5780637cc918d114610d3a57806387bc793f14610d12578063894ba83314610cc45780638da5cb5b14610c9b57806395d89b4114610bb65780639e860f2a14610ac5578063a22cb46514610943578063a448dd4f146108a3578063a8fabfa514610883578063ab69607a14610864578063b88d4fde146107da578063bb2ee99f146107b4578063bc7194551461070c578063c87b56dd146106d1578063d9856c2114610669578063de903ddd146104e4578063e8315742146104c4578063e985e9c514610476578063eab851181461041b578063ee070805146103f8578063efc32cd4146103a5578063f2fde38b146103145763ff6e8c8f1461023157600080fd5b346103105761023f36612344565b90919260018060a01b0394856033541633036103035760038510156102f05784156102e35750509061027291369161285c565b92805b84518110156102df576102da906102a161028e856128c2565b86610299848a612901565b511690612943565b5083856102ae8389612901565b5116337f14155f749dc3f9cd2bf890d6d3a47069f77ae35befcee11c8b1a3ba41cba15368680a46128dc565b610275565b5080f35b51632de777a160e11b8152fd5b634e487b7160e01b875260218252602487fd5b51635c510c8360e11b8152fd5b8280fd5b50346103105760203660031901126103105761032e61223f565b9161033761245b565b6001600160a01b038316156103535783610350846124b3565b80f35b906020608492519162461bcd60e51b8352820152602660248201527f4f776e61626c653a206e6577206f776e657220697320746865207a65726f206160448201526564647265737360d01b6064820152fd5b5050346103f457806003193601126103f4576103bf61223f565b906103c861245b565b602435835260fd602052822080546001600160a01b0319166001600160a01b0390921691909117905580f35b5080fd5b5050346103f457816003193601126103f45760209060ff80541690519015158152f35b5050346103f45760203660031901126103f45760209061046d61043c61223f565b61044b60ff61010954166128c2565b6001600160a01b03909116600090815260019091016020526040902054151590565b90519015158152f35b5050346103f457806003193601126103f45760ff8160209361049661223f565b61049e61225a565b6001600160a01b039182168352609c875283832091168252855220549151911615158152f35b5050346103f457816003193601126103f457602090610100549051908152f35b508290346103f4576104f5366122b3565b91926104ff61245b565b61051c60ff805461051282821615612b55565b60081c1615613688565b61052a61010554851061363c565b600261053585612ba1565b5001906001600160401b038411610656575061055b8361055583546124fc565b83612b01565b84601f84116001146105c757956105b6918487987fd181cc8d0dc01c4c286c3f799294fcd18a386821e71c9d771a3a19827b49560c9798916105bc575b508560011b906000198760031b1c19161790555b51928392836136cc565b0390a280f35b905084013589610598565b81865260208087209190601f1986169088905b82821061063e575050916105b69391867fd181cc8d0dc01c4c286c3f799294fcd18a386821e71c9d771a3a19827b49560c98999a9410610624575b5050600185811b0190556105ac565b850135600019600388901b60f8161c191690558880610615565b80600185968294968a013581550195019301906105da565b634e487b7160e01b865260419052602485fd5b8382346103f45760203660031901126103f45780356001600160401b0381116103105736602382011215610310576102df918160246106ad93369301359101612424565b6106b561245b565b6106c360ff80541615612b55565b60fc54339182908190612d2b565b50913461070957602036600319011261070957506106f26107059235613022565b905191829160208352602083019061221a565b0390f35b80fd5b5090346103105760203660031901126103105781359160038310156107b0576033546001600160a01b031633036107a25750610747826128c2565b80549084815581610784575b50507f7efc19cf93d497a6a56103ea89a39d51c0cad74a817ed3cd0ecaff9823d4da249051806105b633948261231b565b845260208420908101905b818110156107535784815560010161078f565b9051635c510c8360e11b8152fd5b8380fd5b5050346103f457816003193601126103f45760209060ff805460081c1690519015158152f35b8382346103f45760803660031901126103f4576107f561223f565b906107fe61225a565b91604435606435936001600160401b03851161086057366023860112156108605761083861085b9486602461035098369301359101612424565b9261084b61084684336132ad565b6125dc565b6108568383836133df565b6127d1565b612691565b8580fd5b5050346103f457816003193601126103f45760209060fc549051908152f35b5050346103f457816003193601126103f457602090610105549051908152f35b50346103105782600319360112610310576108bc61245b565b60ff549160ff8360081c166109005761ff001983166101001760ff55837f1cc7fa91d8671f564b11ea19e789522d84788cad2329b82dcc0b6ae1ff2338dd8180a180f35b906020606492519162461bcd60e51b8352820152601d60248201527f546f6b656e20555249732061726520616c7265616479206c6f636b65640000006044820152fd5b50903461031057806003193601126103105761095d61223f565b9060243591821515809303610ac15760ff61010954166003811015610aae5760018103610a645750600180865261010860209081528387206001600160a01b038416600090815292019052604090205415610a55575b6001600160a01b031692338414610a135750338452609c60205280842083855260205280842060ff1981541660ff8416179055519081527f17307eab39ab6107e8899845ad3d59bd9653f200f220920489ca2b5937696c3160203392a380f35b6020606492519162461bcd60e51b8352820152601960248201527f4552433732313a20617070726f766520746f2063616c6c6572000000000000006044820152fd5b81516282b42960e81b81528490fd5b6002036109b35760028552610108602052610a9a82862060018060a01b0383169060019160005201602052604060002054151590565b156109b35781516282b42960e81b81528490fd5b634e487b7160e01b865260218552602486fd5b8480fd5b50903461031057610ad536612344565b6033546001600160a01b03949085163303610ba7575090610af791369161285c565b9160038210159081610aae5782610b0c578580f35b8591929394955b8551811015610b9757610b3b610b28866128c2565b83610b33848a612901565b5116906129b1565b508382610b488389612901565b511690610b84579085610b7f92337fc72e29af1b34de3dec3a764b4ca4d85b9c380ab33b9b268d29b6e7008bd0ed958780a46128dc565b610b13565b634e487b7160e01b845260218852602484fd5b5050935050505038808080808580f35b51635c510c8360e11b81528590fd5b5050346103f457816003193601126103f45780519082609854610bd8816124fc565b80855291600191808316908115610c735750600114610c16575b505050610c04826107059403836123e8565b5191829160208352602083019061221a565b9450609885527f2237a976fa961f5921fd19f2b03c925c725d77b20ce8f790c19709c03de4d8145b828610610c5b57505050610c048260206107059582010194610bf2565b80546020878701810191909152909501948101610c3e565b610705975086935060209250610c0494915060ff191682840152151560051b82010194610bf2565b5050346103f457816003193601126103f45760335490516001600160a01b039091168152602090f35b8334610709578060031936011261070957610cdd61245b565b600160ff1960ff54161760ff55337f793bc6423dd0257d64f9d47db72fd4b2162f4541aa41740ba1c5fb5e2cd41bcd8280a280f35b5050346103f457816003193601126103f4576107059060ff610109541690519182918261231b565b509190346103f457806003193601126103f4576001600160401b039280358481116107b057610d6c9036908301612286565b610d7795919561245b565b610d8560ff80541615612b55565b6101049081549660019384890194858a11610ffc576024998a350193818501808811610fea578511610fd85788519560209687810181811086821117610fc6578b52869052859055610100548511610f84578990610df98a5195610de88761239c565b898752888701928884523691612424565b948a8101958652610105805490600160401b821015610f72578582019055610e2090612ba1565b939093610f61575090600292915182555183820155019251968751928311610f4f5750889950610e5e82610e58859b999a9b546124fc565b85612b01565b8497601f8311600114610ecb578291889983927fdeaa91b6123d068f5821d0fb0678463d1a8a6079fe8af5de3ce5e896dcf9133d999a94610ec0575b50501b916000199060031b1c19161790555b60018060a01b03603354169551908152a480f35b015192503880610e9a565b8388528588209098919291601f198316895b818110610f37575099837fdeaa91b6123d068f5821d0fb0678463d1a8a6079fe8af5de3ce5e896dcf9133d999a9b10610f1e575b505050811b019055610eac565b015160001960f88460031b161c19169055388080610f11565b828c015184558d9a5092850192918801918801610edd565b634e487b7160e01b8a52604190528989fd5b634e487b7160e01b8152808b528d90fd5b634e487b7160e01b855260418c528e85fd5b885162461bcd60e51b8152808901879052601d818d01527f62617463684d696e743a3a6578636565646564206d6178546f6b656e730000006044820152606490fd5b634e487b7160e01b8d5260418b528d8dfd5b634e487b7160e01b8a52601188528a8afd5b634e487b7160e01b8b52601189528b8bfd5b634e487b7160e01b895260118752602489fd5b833461070957806003193601126107095761102861245b565b603380546001600160a01b0319811690915581906001600160a01b03167f8be0079c531659141344cd1fd0a4f28419497f9722a3daafe3b4186f6b6457e08280a380f35b508290346103f45760203660031901126103f4576001600160a01b0361109061223f565b169081156110ad576020848085858152609a845220549051908152f35b608490602085519162461bcd60e51b8352820152602960248201527f4552433732313a2061646472657373207a65726f206973206e6f7420612076616044820152683634b21037bbb732b960b91b6064820152fd5b50913461070957602036600319011261070957506111226020923561323d565b90516001600160a01b039091168152f35b5034610310576020366003190112610310578035916111518361323d565b336001600160a01b039091160361116c578361035084612bdd565b906020606492519162461bcd60e51b8352820152601760248201527f4d757374206265206f776e6572206f6620746f6b656e2e0000000000000000006044820152fd5b509034610310576080366003190112610310576001600160401b03918035838111610ac1576111e19036908301612286565b91906024358581116116b5576111fa9036908401612286565b611205969196612270565b9388549760ff94858a60081c1615978880996116a9575b8015611693575b1561163957600160ff198c1681178d559a89611628575b506001600160a01b038816156115e557611298929161129091611280898f600a60fc5561ffff198254168255606435610100555460081c1661127b81612aa1565b612aa1565b611289336124b3565b3691612424565b933691612424565b906112ac858b5460081c1661127b81612aa1565b82518481116115d257806112c16097546124fc565b94601f95868111611561575b506020908d8784116001146114e257926114d7575b5050600019600383901b1c1916908a1b176097555b81519384116114c4575061130c6098546124fc565b828111611461575b5060209183116001146113d5579180611389959492611361948b926113ca575b5050600019600383901b1c191690881b176098555b875460081c1661135881612aa1565b61127b81612aa1565b60fb80546001600160a01b0319166001600160a01b03831617905561138461245b565b6124b3565b611391578280f35b825461ff0019168355519081527f7f26b83ff96e1f2b6a682f133852f6798a09c465da95921460cefb384740249890602090a138808280f35b015190503880611334565b609889528792917f2237a976fa961f5921fd19f2b03c925c725d77b20ce8f790c19709c03de4d81491601f1984168b5b818110611449575091611361959391856113899998969410611430575b505050811b01609855611349565b015160001960f88460031b161c19169055388080611422565b8284015185558b969094019360209384019301611405565b60988a527f2237a976fa961f5921fd19f2b03c925c725d77b20ce8f790c19709c03de4d8148380860160051c820192602087106114bb575b0160051c019089905b8281106114b0575050611314565b8b81550189906114a2565b92508192611499565b634e487b7160e01b8a5260419052602489fd5b0151905038806112e2565b91908d9450601f198416609784527f354a83ed9988f79f6038d4c7a7dadbad8af32f4ad6df893e0e5807a1b1944ff9935b81811061154957508411611530575b505050811b016097556112f7565b015160001960f88460031b161c19169055388080611522565b8284015185558f969094019360209384019301611513565b90915060978d527f354a83ed9988f79f6038d4c7a7dadbad8af32f4ad6df893e0e5807a1b1944ff98680850160051c820192602086106115c9575b859493910160051c909101908d908f5b8382106115bb575050506112cd565b81558594508e91018f6115ac565b9250819261159c565b634e487b7160e01b8b526041825260248bfd5b895162461bcd60e51b8152602081860152601e60248201527f63726561746f722063616e6e6f74206265206e756c6c206164647265737300006044820152606490fd5b61ffff1916610101178c553861123a565b895162461bcd60e51b8152602081860152602e60248201527f496e697469616c697a61626c653a20636f6e747261637420697320616c72656160448201526d191e481a5b9a5d1a585b1a5e995960921b6064820152608490fd5b50303b15801561122357506001878c1614611223565b506001878c161061121c565b8680fd5b8382346103f45760603660031901126103f45780356001600160401b038111610310576102df916116ec91369101612286565b906116f561225a565b6116fd612270565b9261170661245b565b61171460ff80541615612b55565b61172460fc549333923691612424565b612d2b565b50346103105760203660031901126103105780359160038310156107b0576033546001600160a01b0316330361030357506101099182549160ff83169060038210156117a65750908060ff92337f12282389323caf08dd4e02c490ef05bc7edb56967c085742687aad3cc81aa15f8880a4169060ff191617905580f35b634e487b7160e01b865260219052602485fd5b8382346103f45760203660031901126103f4576103509035612bdd565b5050346103f45761085b610350916117ed366122e6565b919251926117fa846123cd565b86845261084b61084684336132ad565b5050346103f45760203660031901126103f45760335490516001600160a01b039091168152602090f35b83346107095760203660031901126107095761035061185161223f565b61185961245b565b60018060a01b03166001600160601b0360a01b60fb54161760fb55565b5050346103f457816003193601126103f45760fb5490516001600160a01b039091168152602090f35b8284346107095780600319360112610709576118c060ff61010954166128c2565b9180519182845490818152602080910195835280832092905b8282106118fb5761070586866118f1828b03836123e8565b51918291826121b3565b8354875295860195600193840193909101906118d9565b5091346107095781600319360112610709578235815260fd60205281812054602435906001600160a01b03908116801561199857925b60fe60205284812054801561198e57925b83810293818504149015171561197b5750835192168252606490046020820152f35b634e487b7160e01b815260118652602490fd5b5060fc5492611959565b508060fb541692611948565b8334610709576103506119b6366122e6565b916119c461084684336132ad565b6133df565b5050346103f45760203660031901126103f4576020906119e761223f565b60018060a01b0380603354169116149051908152f35b5082346107095760203660031901126107095750611a299035611a2461010554821061363c565b612ba1565b506107058251611a388161239c565b825481526060611a5660026001860154956020850196875201612536565b91828682015251935194805195869586526020860152840152606083019061221a565b508290346103f457611a8a366122b3565b919260ff54611a9c60ff821615612b55565b6033546001600160a01b03163303611d1d5760ff611abe9160081c1615613688565b6000848152609960205260409020546001600160a01b031615158015611cf4575b15611cba57611aed846135b4565b505015611be05783855260206101078152868620916001600160401b038511611bcd5750611b2584611b1f84546124fc565b84612b01565b8590601f8511600114611b6e5750956105b6918487986000805160206137398339815191529798916105bc57508560011b906000198760031b1c191617905551928392836136cc565b90601f1985168388528288209288905b828210611bb5575050916105b693918660008051602061373983398151915298999a9410610624575050600185811b0190556105ac565b80600185968294968a01358155019501930190611b7e565b634e487b7160e01b875260419052602486fd5b83855260206101068152868620916001600160401b038511611bcd5750611c0b84611b1f84546124fc565b8590601f8511600114611c5b5750956105b691848798600080516020613739833981519152979891611c50575b508560011b906000198760031b1c19161790556105ac565b905084013589611c38565b90601f1985168388528288209288905b828210611ca2575050916105b693918660008051602061373983398151915298999a9410610624575050600185811b0190556105ac565b80600185968294968a01358155019501930190611c6b565b606490602087519162461bcd60e51b83528201526014602482015273151bdad95b88191bd95cc81b9bdd08195e1a5cdd60621b6044820152fd5b50611cfe846135b4565b50508015611adf575083855261010260205260ff868620541615611adf565b865162461bcd60e51b8152602081840152602160248201527f4f6e6c7920746f6b656e2063726561746f722063616e207570646174652055526044820152604960f81b6064820152608490fd5b5050346103f457816003193601126103f457602090610104549051908152f35b5034610310578160031936011261031057611da361223f565b906024359260ff61010954166003811015611f935760018103611f4c5750600180865261010860209081528287206001600160a01b038616600090815292019052604090205415611f40575b6001600160a01b03918280611e038761323d565b16941693808514611ef357803314908115611ed4575b5015611e6c5750838552610103602052842080546001600160a01b03191683179055611e4483612cc5565b167f8c5be1e5ebec7d5bd14f71427d1e84f3dd0314c0f7b2291e5b200ac8c7c3b9258480a480f35b6020608492519162461bcd60e51b8352820152603860248201527f4552433732313a20617070726f76652063616c6c6572206973206e6f74206f7760448201527f6e6572206e6f7220617070726f76656420666f7220616c6c00000000000000006064820152fd5b90508652609c60205281862033875260205260ff828720541638611e19565b506020608492519162461bcd60e51b8352820152602160248201527f4552433732313a20617070726f76616c20746f2063757272656e74206f776e656044820152603960f91b6064820152fd5b516282b42960e81b8152fd5b600203611def5760028552610108602052611f8281862060018060a01b0385169060019160005201602052604060002054151590565b15611def57516282b42960e81b8152fd5b634e487b7160e01b865260218352602486fd5b509134610709576020366003190112610709575061112260209235613317565b5050346103f457816003193601126103f45780519082609754611fe8816124fc565b80855291600191808316908115610c73575060011461201357505050610c04826107059403836123e8565b9450609785527f354a83ed9988f79f6038d4c7a7dadbad8af32f4ad6df893e0e5807a1b1944ff95b82861061205857505050610c048260206107059582010194610bf2565b8054602087870181019190915290950194810161203b565b50346103105760203660031901126103105735906001600160e01b031982168083036107b0576020935063fa31a45b60e01b8114928315612135575b83156120bd575b5050519015158152f35b919250631030681960e21b811491908215612124575b82156120fb575b5081156120eb575b509038806120b3565b6120f591506136f4565b386120e2565b90915063152a902d60e11b148015612115575b90386120da565b5061211f816136f4565b61210e565b6301ffc9a760e01b811492506120d3565b6301ffc9a760e01b821493506120ac565b50903461031057602091826003193601126107b0573560038110156107b05761216e906128c2565b9281518093808654928381520195835280832092905b82821061219c5761070586866118f1828b03836123e8565b835487529586019560019384019390910190612184565b6020908160408183019282815285518094520193019160005b8281106121da575050505090565b83516001600160a01b0316855293810193928101926001016121cc565b60005b83811061220a5750506000910152565b81810151838201526020016121fa565b90602091612233815180928185528580860191016121f7565b601f01601f1916010190565b600435906001600160a01b038216820361225557565b600080fd5b602435906001600160a01b038216820361225557565b604435906001600160a01b038216820361225557565b9181601f84011215612255578235916001600160401b038311612255576020838186019501011161225557565b9060406003198301126122555760043591602435906001600160401b038211612255576122e291600401612286565b9091565b6060906003190112612255576001600160a01b0390600435828116810361225557916024359081168103612255579060443590565b91906020830192600382101561232e5752565b634e487b7160e01b600052602160045260246000fd5b604060031982011261225557600435600381101561225557916024356001600160401b039283821161225557806023830112156122555781600401359384116122555760248460051b83010111612255576024019190565b606081019081106001600160401b038211176123b757604052565b634e487b7160e01b600052604160045260246000fd5b602081019081106001600160401b038211176123b757604052565b90601f801991011681019081106001600160401b038211176123b757604052565b6001600160401b0381116123b757601f01601f191660200190565b92919261243082612409565b9161243e60405193846123e8565b829481845281830111612255578281602093846000960137010152565b6033546001600160a01b0316330361246f57565b606460405162461bcd60e51b815260206004820152602060248201527f4f776e61626c653a2063616c6c6572206973206e6f7420746865206f776e65726044820152fd5b603380546001600160a01b039283166001600160a01b0319821681179092559091167f8be0079c531659141344cd1fd0a4f28419497f9722a3daafe3b4186f6b6457e0600080a3565b90600182811c9216801561252c575b602083101461251657565b634e487b7160e01b600052602260045260246000fd5b91607f169161250b565b906040519182600082549261254a846124fc565b9081845260019485811690816000146125b95750600114612576575b5050612574925003836123e8565b565b9093915060005260209081600020936000915b8183106125a157505061257493508201013880612566565b85548884018501529485019487945091830191612589565b91505061257494506020925060ff191682840152151560051b8201013880612566565b156125e357565b60405162461bcd60e51b815260206004820152602d60248201527f4552433732313a2063616c6c6572206973206e6f7420746f6b656e206f776e6560448201526c1c881bdc88185c1c1c9bdd9959609a1b6064820152608490fd5b60809060208152603260208201527f4552433732313a207472616e7366657220746f206e6f6e20455243373231526560408201527131b2b4bb32b91034b6b83632b6b2b73a32b960711b60608201520190565b1561269857565b60405162461bcd60e51b8152806126b16004820161263e565b0390fd5b9192600092909190803b156127c757612703946040518092630a85bd0160e11b9485835233600484015287602484015260448301526080606483015281878160209a8b96608483019061221a565b03926001600160a01b03165af1849181612787575b50612776575050503d60001461276e573d61273281612409565b9061274060405192836123e8565b81528091833d92013e5b8051918261276b5760405162461bcd60e51b8152806126b16004820161263e565b01fd5b50606061274a565b6001600160e01b0319161492509050565b9091508581813d83116127c0575b61279f81836123e8565b81010312610ac157516001600160e01b031981168103610ac1579038612718565b503d612795565b5050915050600190565b9293600093909291803b156128515794849161282b9660405180948193630a85bd0160e11b9788845233600485015260018060a01b0380921660248501526044840152608060648401528260209b8c97608483019061221a565b0393165af18491816127875750612776575050503d60001461276e573d61273281612409565b505050915050600190565b9092916001600160401b0384116123b7578360051b6040519260208094612885828501826123e8565b809781520191810192831161225557905b8282106128a35750505050565b81356001600160a01b0381168103612255578152908301908301612896565b600381101561232e57600052610108602052604060002090565b60001981146128eb5760010190565b634e487b7160e01b600052601160045260246000fd5b80518210156129155760209160051b010190565b634e487b7160e01b600052603260045260246000fd5b80548210156129155760005260206000200190600090565b60008281526001820160205260409020546129aa57805490600160401b8210156123b7578261299361297c84600180960185558461292b565b819391549060031b91821b91600019901b19161790565b905580549260005201602052604060002055600190565b5050600090565b90600182019060009281845282602052604084205490811515600014612a9a5760001991808301818111612a8657825490848201918211612a7257808203612a3d575b50505080548015612a2957820191612a0c838361292b565b909182549160031b1b191690555582526020526040812055600190565b634e487b7160e01b86526031600452602486fd5b612a5d612a4d61297c938661292b565b90549060031b1c9283928661292b565b905586528460205260408620553880806129f4565b634e487b7160e01b88526011600452602488fd5b634e487b7160e01b87526011600452602487fd5b5050505090565b15612aa857565b60405162461bcd60e51b815260206004820152602b60248201527f496e697469616c697a61626c653a20636f6e7472616374206973206e6f74206960448201526a6e697469616c697a696e6760a81b6064820152608490fd5b90601f8111612b0f57505050565b600091825260208220906020601f850160051c83019410612b4b575b601f0160051c01915b828110612b4057505050565b818155600101612b34565b9092508290612b2b565b15612b5c57565b60405162461bcd60e51b815260206004820152601e60248201527f436f6e7472616374206d757374206e6f742062652064697361626c65642e00006044820152606490fd5b61010590815481101561291557600391600052027ffc62abc8c0fc47c2d92f5aec99bf8b60f375828e14394d89345cae11a98673710190600090565b612be6816135b4565b5050600082815261010260205260408120805460ff191660011790559080612ca6575b612ca257612c1a61084683336132ad565b612c2382612cc5565b50612c2d82612cc5565b828252609b6020908152604080842080546001600160a01b03199081169091556001600160a01b03909316808552609a835281852080546000190190558585526099909252832080549092169091557fddf252ad1be2c89b69c2b068fc378daa952ba7f163c4a11628f55a4df523b3ef8280a4565b5050565b506000828152609960205260409020546001600160a01b031615612c09565b6000908152609960205260409020546001600160a01b03168015612ce65790565b60405162461bcd60e51b815260206004820152601860248201527f4552433732313a20696e76616c696420746f6b656e20494400000000000000006044820152606490fd5b939290916001946101049580875401809755610100548711612e9e57612d6f61085b604051612d59816123cd565b89600096878352612d6a8282612f2e565b6126b5565b868352602091610106835260408420918151916001600160401b038311612e8a57612da483612d9e86546124fc565b86612b01565b8490601f8411600114612e2157928060fd9593819389989660409a94612e16575b50501b916000199060031b1c19161790555b87835261010181528383209460018060a01b0395866001600160601b0360a01b98168882541617905560fe825284842055522092169082541617905590565b015192503880612dc5565b8487528587209293929190601f198416885b818110612e75575091604098979593918560fd98969410612e5c575b505050811b019055612dd7565b015160001960f88460031b161c19169055388080612e4f565b82840151855593860193928801928801612e33565b634e487b7160e01b86526041600452602486fd5b606460405162461bcd60e51b815260206004820152602060248201527f5f637265617465546f6b656e3a3a6578636565646564206d6178546f6b656e736044820152fd5b15612ee957565b60405162461bcd60e51b815260206004820152601c60248201527f4552433732313a20746f6b656e20616c7265616479206d696e746564000000006044820152606490fd5b6001600160a01b03168015612fde57600082815260996020526040902054612f62906001600160a01b031615155b15612ee2565b600082815260996020526040902054612f85906001600160a01b03161515612f5c565b6000818152609a6020526040812060018154019055828152609960205260408120826001600160601b0360a01b8254161790557fddf252ad1be2c89b69c2b068fc378daa952ba7f163c4a11628f55a4df523b3ef8180a4565b606460405162461bcd60e51b815260206004820152602060248201527f4552433732313a206d696e7420746f20746865207a65726f20616464726573736044820152fd5b600081815261010790602092828452604092613040848420546124fc565b61322e575061304e816135b4565b911515905061306c5750613069936101069183525220612536565b90565b928291807a184f03e93ff9f4daa797ed6e38ed64bf6a1f010000000000000000818181101561321f575b5050866d04ee2d6d415b85acef810000000080841015613211575b5050662386f26fc1000080831015613202575b506305f5e100808310156131f3575b50612710808310156131e4575b5060648210156131d4575b600a809210156131ca575b6001908160218187019661312161310c89612409565b9861311989519a8b6123e8565b808a52612409565b888c019990601f1901368b3750870101905b613194575b5050505091602f60f81b9461317761306995936026955197856131648a9751809287808b0191016121f7565b86019384015251809360218401906121f7565b0164173539b7b760d91b60218201520360068101845201826123e8565b600019019083906f181899199a1a9b1b9c1cb0b131b232b360811b8282061a8353049182156131c557919082613133565b613138565b92600101926130f6565b92906064600291049101926130eb565b600491949204910192386130e0565b600891949204910192386130d3565b601091949204910192386130c4565b9401939091049086386130b1565b91945091500481923880613096565b90936130699483525220612536565b613246816135b4565b50506132555761306990612cc5565b8060005261010260205260ff604060002054166000146132785761306990612cc5565b6000818152609960205260409020546001600160a01b03166132a457506033546001600160a01b031690565b61306990612cc5565b6001600160a01b039081806132c18561323d565b16911691818314938415613300575b505082156132dd57505090565b909150600052609c60205260406000209060005260205260ff6040600020541690565b8392945061330d90613317565b16149138806132d0565b600081815260fd60205260408120546001600160a01b03929190831661333c836135b4565b50509081156133d5575b50806133bd575b1561336357604091815261010360205220541690565b60405162461bcd60e51b815260206004820152602c60248201527f4552433732313a20617070726f76656420717565727920666f72206e6f6e657860448201526b34b9ba32b73a103a37b5b2b760a11b6064820152608490fd5b5081815261010260205260ff6040822054161561334d565b9050151538613346565b90821561225557613429916133f3846135b4565b50508061353b575b80613521575b613512575b61340f84612cc5565b6001600160a01b039391841692849290918316841461355a565b169182156134c157816134469161343f86612cc5565b161461355a565b7fddf252ad1be2c89b69c2b068fc378daa952ba7f163c4a11628f55a4df523b3ef6000848152609b602052604081206001600160601b0360a01b90818154169055838252609a6020526040822060001981540190558482526040822060018154019055858252609960205284604083209182541617905580a4565b60405162461bcd60e51b8152602060048201526024808201527f4552433732313a207472616e7366657220746f20746865207a65726f206164646044820152637265737360e01b6064820152608490fd5b61351c8482612f2e565b613406565b508360005261010260205260ff6040600020541615613401565b506000848152609960205260409020546001600160a01b0316156133fb565b1561356157565b60405162461bcd60e51b815260206004820152602560248201527f4552433732313a207472616e736665722066726f6d20696e636f72726563742060448201526437bbb732b960d91b6064820152608490fd5b61010554919060005b8381106135e157505090506000906000906040516135da816123cd565b6000815290565b6135ea81612ba1565b505482101580613625575b61360757613602906128dc565b6135bd565b8093506136149150612ba1565b509061306960026001949301612536565b50600161363182612ba1565b5001548211156135f5565b1561364357565b60405162461bcd60e51b815260206004820152601960248201527f426174636820696e646578206f7574206f6620626f756e6473000000000000006044820152606490fd5b1561368f57565b60405162461bcd60e51b8152602060048201526015602482015274151bdad95b881554925cc8185c99481b1bd8dad959605a1b6044820152606490fd5b90918060409360208452816020850152848401376000828201840152601f01601f1916010190565b63ffffffff60e01b166380ac58cd60e01b8114908115613727575b8115613719575090565b6301ffc9a760e01b14919050565b635b5e139f60e01b8114915061370f56fe931f495b9a8e5d8e61946ea5d61e021f636cfe213a801f97589c18c152e408bda2646970667358221220be53c8926b187489fe6f29e56aeb8816608caa89a6e3dbef780ae5469924967364736f6c63430008120033","linkReferences":{}},"methodIdentifiers":{"addNewToken(string)":"d9856c21","approve(address,uint256)":"095ea7b3","areTokenURIsLocked()":"631d1d9a","balanceOf(address)":"70a08231","batchAddAddressToRoyaltyList(uint8,address[])":"ff6e8c8f","batchMint(string,uint256)":"7cc918d1","batchRemoveAddressToRoyaltyList(uint8,address[])":"9e860f2a","burn(uint256)":"42966c68","clearList(uint8)":"bc719455","deleteToken(uint256)":"6297c16c","disableContract()":"894ba833","disabled()":"ee070805","getApproved(uint256)":"081812fc","getBatchCount()":"a8fabfa5","getBatchInfo(uint256)":"1a0058f5","getDefaultRoyaltyPercentage()":"ab69607a","getDefaultRoyaltyReceiver()":"3403c4e9","getInUseList()":"2ce878da","getList(uint8)":"012cf1e8","getListType()":"87bc793f","hasAdminPermission(address)":"20427486","init(string,string,address,uint256)":"5edc7c19","isApprovedForAll(address,address)":"e985e9c5","isOperatorInList(address)":"eab85118","lockTokenURIs()":"a448dd4f","maxTokens()":"e8315742","mintTo(string,address,address)":"4aa52c41","name()":"06fdde03","owner()":"8da5cb5b","ownerOf(uint256)":"6352211e","renounceOwnership()":"715018a6","royaltyInfo(uint256,uint256)":"2a55205a","safeTransferFrom(address,address,uint256)":"42842e0e","safeTransferFrom(address,address,uint256,bytes)":"b88d4fde","setApprovalForAll(address,bool)":"a22cb465","setDefaultRoyaltyReceiver(address)":"3ebc82c5","setRoyaltyReceiverForToken(address,uint256)":"efc32cd4","supportsInterface(bytes4)":"01ffc9a7","symbol()":"95d89b41","toggleListType(uint8)":"472a6638","tokenCreator(uint256)":"40c1a064","tokenURI(uint256)":"c87b56dd","tokenURIsLocked()":"bb2ee99f","totalSupply()":"18160ddd","transferFrom(address,address,uint256)":"23b872dd","transferOwnership(address)":"f2fde38b","updateBatchBaseURI(uint256,string)":"de903ddd","updateTokenURI(uint256,string)":"18e97fd1"},"id":223}