{"abi":[{"type":"function","name":"COLDIE_AUCTION","inputs":[],"outputs":[{"name":"","type":"bytes32","internalType":"bytes32"}],"stateMutability":"view"},{"type":"function","name":"NO_AUCTION","inputs":[],"outputs":[{"name":"","type":"bytes32","internalType":"bytes32"}],"stateMutability":"view"},{"type":"function","name":"SCHEDULED_AUCTION","inputs":[],"outputs":[{"name":"","type":"bytes32","internalType":"bytes32"}],"stateMutability":"view"},{"type":"function","name":"acceptOffer","inputs":[{"name":"_originContract","type":"address","internalType":"address"},{"name":"_tokenId","type":"uint256","internalType":"uint256"},{"name":"_currencyAddress","type":"address","internalType":"address"},{"name":"_amount","type":"uint256","internalType":"uint256"},{"name":"_splitAddresses","type":"address[]","internalType":"address payable[]"},{"name":"_splitRatios","type":"uint8[]","internalType":"uint8[]"}],"outputs":[],"stateMutability":"nonpayable"},{"type":"function","name":"approvedTokenRegistry","inputs":[],"outputs":[{"name":"","type":"address","internalType":"contract IApprovedTokenRegistry"}],"stateMutability":"view"},{"type":"function","name":"auctionBids","inputs":[{"name":"","type":"address","internalType":"address"},{"name":"","type":"uint256","internalType":"uint256"}],"outputs":[{"name":"bidder","type":"address","internalType":"address payable"},{"name":"currencyAddress","type":"address","internalType":"address"},{"name":"amount","type":"uint256","internalType":"uint256"},{"name":"marketplaceFee","type":"uint8","internalType":"uint8"}],"stateMutability":"view"},{"type":"function","name":"auctionLengthExtension","inputs":[],"outputs":[{"name":"","type":"uint256","internalType":"uint256"}],"stateMutability":"view"},{"type":"function","name":"buy","inputs":[{"name":"_originContract","type":"address","internalType":"address"},{"name":"_tokenId","type":"uint256","internalType":"uint256"},{"name":"_currencyAddress","type":"address","internalType":"address"},{"name":"_amount","type":"uint256","internalType":"uint256"}],"outputs":[],"stateMutability":"payable"},{"type":"function","name":"cancelOffer","inputs":[{"name":"_originContract","type":"address","internalType":"address"},{"name":"_tokenId","type":"uint256","internalType":"uint256"},{"name":"_currencyAddress","type":"address","internalType":"address"}],"outputs":[],"stateMutability":"nonpayable"},{"type":"function","name":"marketplaceSettings","inputs":[],"outputs":[{"name":"","type":"address","internalType":"contract IMarketplaceSettings"}],"stateMutability":"view"},{"type":"function","name":"maxAuctionLength","inputs":[],"outputs":[{"name":"","type":"uint256","internalType":"uint256"}],"stateMutability":"view"},{"type":"function","name":"minimumBidIncreasePercentage","inputs":[],"outputs":[{"name":"","type":"uint8","internalType":"uint8"}],"stateMutability":"view"},{"type":"function","name":"networkBeneficiary","inputs":[],"outputs":[{"name":"","type":"address","internalType":"address"}],"stateMutability":"view"},{"type":"function","name":"offer","inputs":[{"name":"_originContract","type":"address","internalType":"address"},{"name":"_tokenId","type":"uint256","internalType":"uint256"},{"name":"_currencyAddress","type":"address","internalType":"address"},{"name":"_amount","type":"uint256","internalType":"uint256"},{"name":"_convertible","type":"bool","internalType":"bool"}],"outputs":[],"stateMutability":"payable"},{"type":"function","name":"offerCancelationDelay","inputs":[],"outputs":[{"name":"","type":"uint256","internalType":"uint256"}],"stateMutability":"view"},{"type":"function","name":"owner","inputs":[],"outputs":[{"name":"","type":"address","internalType":"address"}],"stateMutability":"view"},{"type":"function","name":"payments","inputs":[],"outputs":[{"name":"","type":"address","internalType":"contract IPayments"}],"stateMutability":"view"},{"type":"function","name":"removeSalePrice","inputs":[{"name":"_originContract","type":"address","internalType":"address"},{"name":"_tokenId","type":"uint256","internalType":"uint256"},{"name":"_target","type":"address","internalType":"address"}],"outputs":[],"stateMutability":"nonpayable"},{"type":"function","name":"renounceOwnership","inputs":[],"outputs":[],"stateMutability":"nonpayable"},{"type":"function","name":"royaltyEngine","inputs":[],"outputs":[{"name":"","type":"address","internalType":"contract IRoyaltyEngineV1"}],"stateMutability":"view"},{"type":"function","name":"royaltyRegistry","inputs":[],"outputs":[{"name":"","type":"address","internalType":"contract IRareRoyaltyRegistry"}],"stateMutability":"view"},{"type":"function","name":"setSalePrice","inputs":[{"name":"_originContract","type":"address","internalType":"address"},{"name":"_tokenId","type":"uint256","internalType":"uint256"},{"name":"_currencyAddress","type":"address","internalType":"address"},{"name":"_listPrice","type":"uint256","internalType":"uint256"},{"name":"_target","type":"address","internalType":"address"},{"name":"_splitAddresses","type":"address[]","internalType":"address payable[]"},{"name":"_splitRatios","type":"uint8[]","internalType":"uint8[]"}],"outputs":[],"stateMutability":"nonpayable"},{"type":"function","name":"spaceOperatorRegistry","inputs":[],"outputs":[{"name":"","type":"address","internalType":"contract ISpaceOperatorRegistry"}],"stateMutability":"view"},{"type":"function","name":"stakingRegistry","inputs":[],"outputs":[{"name":"","type":"address","internalType":"address"}],"stateMutability":"view"},{"type":"function","name":"superRareAuctionHouse","inputs":[],"outputs":[{"name":"","type":"address","internalType":"address"}],"stateMutability":"view"},{"type":"function","name":"superRareMarketplace","inputs":[],"outputs":[{"name":"","type":"address","internalType":"address"}],"stateMutability":"view"},{"type":"function","name":"tokenAuctions","inputs":[{"name":"","type":"address","internalType":"address"},{"name":"","type":"uint256","internalType":"uint256"}],"outputs":[{"name":"auctionCreator","type":"address","internalType":"address payable"},{"name":"creationBlock","type":"uint256","internalType":"uint256"},{"name":"startingTime","type":"uint256","internalType":"uint256"},{"name":"lengthOfAuction","type":"uint256","internalType":"uint256"},{"name":"currencyAddress","type":"address","internalType":"address"},{"name":"minimumBid","type":"uint256","internalType":"uint256"},{"name":"auctionType","type":"bytes32","internalType":"bytes32"}],"stateMutability":"view"},{"type":"function","name":"tokenCurrentOffers","inputs":[{"name":"","type":"address","internalType":"address"},{"name":"","type":"uint256","internalType":"uint256"},{"name":"","type":"address","internalType":"address"}],"outputs":[{"name":"buyer","type":"address","internalType":"address payable"},{"name":"amount","type":"uint256","internalType":"uint256"},{"name":"timestamp","type":"uint256","internalType":"uint256"},{"name":"marketplaceFee","type":"uint8","internalType":"uint8"},{"name":"convertible","type":"bool","internalType":"bool"}],"stateMutability":"view"},{"type":"function","name":"tokenSalePrices","inputs":[{"name":"","type":"address","internalType":"address"},{"name":"","type":"uint256","internalType":"uint256"},{"name":"","type":"address","internalType":"address"}],"outputs":[{"name":"seller","type":"address","internalType":"address payable"},{"name":"currencyAddress","type":"address","internalType":"address"},{"name":"amount","type":"uint256","internalType":"uint256"}],"stateMutability":"view"},{"type":"function","name":"transferOwnership","inputs":[{"name":"newOwner","type":"address","internalType":"address"}],"outputs":[],"stateMutability":"nonpayable"},{"type":"event","name":"AcceptOffer","inputs":[{"name":"_originContract","type":"address","indexed":true,"internalType":"address"},{"name":"_bidder","type":"address","indexed":true,"internalType":"address"},{"name":"_seller","type":"address","indexed":true,"internalType":"address"},{"name":"_currencyAddress","type":"address","indexed":false,"internalType":"address"},{"name":"_amount","type":"uint256","indexed":false,"internalType":"uint256"},{"name":"_tokenId","type":"uint256","indexed":false,"internalType":"uint256"},{"name":"_splitAddresses","type":"address[]","indexed":false,"internalType":"address payable[]"},{"name":"_splitRatios","type":"uint8[]","indexed":false,"internalType":"uint8[]"}],"anonymous":false},{"type":"event","name":"AuctionBid","inputs":[{"name":"_contractAddress","type":"address","indexed":true,"internalType":"address"},{"name":"_bidder","type":"address","indexed":true,"internalType":"address"},{"name":"_tokenId","type":"uint256","indexed":true,"internalType":"uint256"},{"name":"_currencyAddress","type":"address","indexed":false,"internalType":"address"},{"name":"_amount","type":"uint256","indexed":false,"internalType":"uint256"},{"name":"_startedAuction","type":"bool","indexed":false,"internalType":"bool"},{"name":"_newAuctionLength","type":"uint256","indexed":false,"internalType":"uint256"},{"name":"_previousBidder","type":"address","indexed":false,"internalType":"address"}],"anonymous":false},{"type":"event","name":"AuctionSettled","inputs":[{"name":"_contractAddress","type":"address","indexed":true,"internalType":"address"},{"name":"_bidder","type":"address","indexed":true,"internalType":"address"},{"name":"_seller","type":"address","indexed":false,"internalType":"address"},{"name":"_tokenId","type":"uint256","indexed":true,"internalType":"uint256"},{"name":"_currencyAddress","type":"address","indexed":false,"internalType":"address"},{"name":"_amount","type":"uint256","indexed":false,"internalType":"uint256"}],"anonymous":false},{"type":"event","name":"CancelAuction","inputs":[{"name":"_contractAddress","type":"address","indexed":true,"internalType":"address"},{"name":"_tokenId","type":"uint256","indexed":true,"internalType":"uint256"},{"name":"_auctionCreator","type":"address","indexed":true,"internalType":"address"}],"anonymous":false},{"type":"event","name":"CancelOffer","inputs":[{"name":"_originContract","type":"address","indexed":true,"internalType":"address"},{"name":"_bidder","type":"address","indexed":true,"internalType":"address"},{"name":"_currencyAddress","type":"address","indexed":true,"internalType":"address"},{"name":"_amount","type":"uint256","indexed":false,"internalType":"uint256"},{"name":"_tokenId","type":"uint256","indexed":false,"internalType":"uint256"}],"anonymous":false},{"type":"event","name":"Initialized","inputs":[{"name":"version","type":"uint8","indexed":false,"internalType":"uint8"}],"anonymous":false},{"type":"event","name":"NewAuction","inputs":[{"name":"_contractAddress","type":"address","indexed":true,"internalType":"address"},{"name":"_tokenId","type":"uint256","indexed":true,"internalType":"uint256"},{"name":"_auctionCreator","type":"address","indexed":true,"internalType":"address"},{"name":"_currencyAddress","type":"address","indexed":false,"internalType":"address"},{"name":"_startingTime","type":"uint256","indexed":false,"internalType":"uint256"},{"name":"_minimumBid","type":"uint256","indexed":false,"internalType":"uint256"},{"name":"_lengthOfAuction","type":"uint256","indexed":false,"internalType":"uint256"}],"anonymous":false},{"type":"event","name":"OfferPlaced","inputs":[{"name":"_originContract","type":"address","indexed":true,"internalType":"address"},{"name":"_bidder","type":"address","indexed":true,"internalType":"address"},{"name":"_currencyAddress","type":"address","indexed":true,"internalType":"address"},{"name":"_amount","type":"uint256","indexed":false,"internalType":"uint256"},{"name":"_tokenId","type":"uint256","indexed":false,"internalType":"uint256"},{"name":"_convertible","type":"bool","indexed":false,"internalType":"bool"}],"anonymous":false},{"type":"event","name":"OwnershipTransferred","inputs":[{"name":"previousOwner","type":"address","indexed":true,"internalType":"address"},{"name":"newOwner","type":"address","indexed":true,"internalType":"address"}],"anonymous":false},{"type":"event","name":"SetSalePrice","inputs":[{"name":"_originContract","type":"address","indexed":true,"internalType":"address"},{"name":"_currencyAddress","type":"address","indexed":true,"internalType":"address"},{"name":"_target","type":"address","indexed":false,"internalType":"address"},{"name":"_amount","type":"uint256","indexed":false,"internalType":"uint256"},{"name":"_tokenId","type":"uint256","indexed":false,"internalType":"uint256"},{"name":"_splitRecipients","type":"address[]","indexed":false,"internalType":"address payable[]"},{"name":"_splitRatios","type":"uint8[]","indexed":false,"internalType":"uint8[]"}],"anonymous":false},{"type":"event","name":"Sold","inputs":[{"name":"_originContract","type":"address","indexed":true,"internalType":"address"},{"name":"_buyer","type":"address","indexed":true,"internalType":"address"},{"name":"_seller","type":"address","indexed":true,"internalType":"address"},{"name":"_currencyAddress","type":"address","indexed":false,"internalType":"address"},{"name":"_amount","type":"uint256","indexed":false,"internalType":"uint256"},{"name":"_tokenId","type":"uint256","indexed":false,"internalType":"uint256"}],"anonymous":false}],"bytecode":{"object":"0x6080806040523460155761397a908161001a8239f35b5f80fdfe6080806040526004361015610012575f80fd5b5f905f3560e01c9081629d9aa914612261575080630141c590146122395780630a5c4ed51461221c5780630bcba09d146121f45780630e519ef9146121d75780630f2b253214611d8e578063155a56b114611d745780631a2ac30f14611d0f578063299a0e1e14611c965780632c41905314611c145780633bc3d9be14611bec5780634c94c90c14611bc4578063534665e9146118605780636240cd1c146118375780636b534ed01461180e5780636fe9f44c146117ea578063715018a61461178d5780638da5cb5b14611764578063a11b07121461173b578063a6d23e1014611712578063b23afc26146116e2578063b3ffb76014610b43578063ba50b63214610b1a578063c47c35c114610a84578063c8f94f4e146106a1578063c90b871414610674578063daa2649914610656578063e92f94d1146103f5578063f2fde38b1461032c5763f7cfaad014610167575f80fd5b3461032957610175366122c4565b6040516331a9108f60e11b8152600481018390529193926001600160a01b031691602081602481865afa90811561031e5784916102ef575b506001600160a01b0316330361029e5781835260a460205260408320848452602052604083209060018060a01b03165f526020526101ed60405f20612400565b6040519260206101fd818661235d565b8385525f36813761023e60405195610215838861235d565b8587525f368137604051938685528684860152604085015260a0606085015260a08401906125e6565b8281036080840152818087519283815201960191855b828110610287578680877fb6039ff1edf80efca6bc48b89f5415ba07fecb2d321058dae9ce6369b2ff964b888c0389a380f35b835160ff1688529681019692810192600101610254565b60405162461bcd60e51b8152602060048201526024808201527f72656d6f766553616c6550726963653a3a4d75737420626520746f6b656e4f776044820152633732b91760e11b6064820152608490fd5b610311915060203d602011610317575b610309818361235d565b8101906123b2565b5f6101ad565b503d6102ff565b6040513d86823e3d90fd5b80fd5b503461032957602036600319011261032957610346612284565b61034e613668565b6001600160a01b031680156103a157603380546001600160a01b0319811683179091556001600160a01b03167f8be0079c531659141344cd1fd0a4f28419497f9722a3daafe3b4186f6b6457e08380a380f35b60405162461bcd60e51b815260206004820152602660248201527f4f776e61626c653a206e6577206f776e657220697320746865207a65726f206160448201526564647265737360d01b6064820152608490fd5b503461032957610404366122c4565b9161040d612622565b60018060a01b03169182845260a5602052604084208285526020526040842060018060a01b0382165f5260205260405f2060405161044a8161232e565b60018060a01b0382541681526001820154602082019281845260036002820154916040850192835201549160ff6060850193818116855260081c1615156080850152156105fe5782516001600160a01b031633036105a1576104ad9051426125d9565b60a354101561055c576105189186885260a5602052604088208689526020526040882060018060a01b0386165f526020526104fc60405f2060035f918281558260018201558260028201550155565b8351915190516001600160a01b03169160ff9091169085612adb565b5191604051928352602083015260018060a01b0316917fb9a071fe7d38dc86fbc448d440311b6bd67e5e09de8b1b62c72f5fe34410045360403393a4600160655580f35b60405162461bcd60e51b815260206004820152601a60248201527f4f6666657220706c6163656420746f6f20726563656e746c792e0000000000006044820152606490fd5b60405162461bcd60e51b815260206004820152602f60248201527f63616e63656c4f666665723a3a53656e646572206d757374206861766520706c60448201526e30b1b2b2103a34329037b33332b91760891b6064820152608490fd5b60405162461bcd60e51b815260206004820152602a60248201527f63616e63656c4f666665723a3a4e6f206f6666657220666f722063757272656e60448201526931bc9032bc34b9ba399760b11b6064820152608490fd5b5034610329578060031936011261032957602060a254604051908152f35b50346103295780600319360112610329576040516d21a7a62224a2afa0aaa1aa24a7a760911b8152602090f35b50346103295760e0366003190112610329576106bb612284565b906106c461229a565b916084356001600160a01b0381168103610a805760a4356001600160401b038111610a7c576106f79036906004016122fe565b9460c4356001600160401b038111610a78576107179036906004016122fe565b9061072183612690565b61072d60243587612b6a565b61073960243587612c1a565b61074582828a87612d31565b604051976107528961232e565b338952602089019860018060a01b0385168a5260408101606435815261077936848961247e565b906060830191825261078c3687876124e0565b9b608084019c8d5260018060a01b038b168c5260a460205260408c206024358d5260205260408c2060018060a01b038b165f5260205260405f209360018060a01b039060018060a01b03905116166001600160601b0360a01b85541617845560018060a01b03905116600184019060018060a01b03166001600160601b0360a01b825416179055516002830155600382019051908151916001600160401b038311610a6457600160401b8311610a64576020908c835485855585818110610a49575b50505001908b5260208b208b5b838110610a2c575050505060040198518051906001600160401b038211610a1857600160401b8211610a18576020908b54838d558084106109ce575b5001998952602089208160051c918a5b8381106109875750601f198116900380610913575b50506040516001600160a01b0395861698909516967fb6039ff1edf80efca6bc48b89f5415ba07fecb2d321058dae9ce6369b2ff964b96869561090d95909490935091602435906064359088612534565b0390a380f35b9a8a9b8b5b818110610956575050500198909855959687969061090d7fb6039ff1edf80efca6bc48b89f5415ba07fecb2d321058dae9ce6369b2ff964b5f6108bc565b90919c602061097d8f928460ff6001955116919060ff809160031b9316831b921b19161790565b9e01929101610918565b8b8c5b6020811061099f5750838201556001016108a7565b9d9060208f6001926109c59160ff865116919060ff809160031b9316831b921b19161790565b92019e0161098a565b6109f8908d8d52838d20601f80870160051c820192818816806109fe575b500160051c01906123ea565b5f610897565b5f198501908154905f19908a0360031b1c1690555f6109ec565b634e487b7160e01b8a52604160045260248afd5b82516001600160a01b03168183015560209092019160010161085b565b848387610a5c95522091820191016123ea565b8c5f8561084e565b634e487b7160e01b8c52604160045260248cfd5b8580fd5b8380fd5b8280fd5b50346103295760403660031901126103295760e0906040906001600160a01b03610aac612284565b16815260a660205281812060243582526020522060018060a01b03815416906001810154906002810154600382015460018060a01b03600484015416916006600585015494015494604051968752602087015260408601526060850152608084015260a083015260c0820152f35b50346103295780600319360112610329576097546040516001600160a01b039091168152602090f35b50608036600319011261032957610b58612284565b60243590610b6461229a565b9060643592610b71612622565b610b7a83612690565b610b848183612c1a565b6097546040516361fe24a960e11b81526004810186905290602090829060249082906001600160a01b03165afa80156116d757869061169f575b610bc99150856123a5565b6001600160a01b03831680875260a460209081526040808920858a528252808920335f908152928190529120600201549194929392911561168d57335f908152602091909152604090208791905b60405194610c248661232e565b81546001600160a01b039081168752600183015416602080880191825260028401546040808a0191825251600386018054808352908952838920919894969294929389939084019291905b81811061166b5750505060049291610c8891038861235d565b6060890196875201928b604051809586916020825491828152019184526020842093905b80601f8301106114c357610dc29454918181106114af575b818110611498575b818110611481575b81811061146a575b818110611454575b81811061143d575b818110611426575b81811061140f575b8181106113f8575b8181106113e1575b8181106113ca575b8181106113b3575b81811061139c575b818110611385575b81811061136e575b818110611357575b818110611340575b818110611329575b818110611312575b8181106112fb575b8181106112e4575b8181106112cd575b8181106112b6575b81811061129f575b818110611288575b818110611271575b81811061125a575b818110611243575b81811061122c575b818110611215575b8181106111fe575b106111f0575b50038561235d565b60808801938452516001600160a01b03908116908a16036111ab57805115611166576040516331a9108f60e11b815260048101879052906020826024818c5afa91821561115b578c9261113a575b5087516001600160a01b03908116908316036110f557518a036110b057610e908b9289845260a4602052604084208885526020526040842060018060a01b0333165f52602052610e6260405f20612400565b89845260a460205260408420888552602052604084205f8052602052610e8a60405f20612400565b8a61283b565b87825260a5602052604082208683526020526040822060018060a01b038a165f5260205260405f20604051610ec48161232e565b60018060a01b0382541680825260036001840154936020840194855260028101546040850152015491608060ff6060830194818116865260081c1615159101523314611055575b5050873b15611038576040516323b872dd60e01b81526001600160a01b03919091166004820152336024820152604481018690528181606481838c5af1801561102d5761103c575b5050610f709288888660018060a01b038951169351945195612f22565b60975486906001600160a01b0316803b1561103857818091606460405180948193635a3c652d60e01b83528a6004840152886024840152600160448401525af1801561102d57611018575b50509051604080516001600160a01b0395861681526020810196909652850191909152909116913391907f6f9e7bc841408072f4a49e469f90e1a634b85251803662bc8e5c220b287824729080606081015b0390a4600160655580f35b816110229161235d565b610a7857855f610fbb565b6040513d84823e3d90fd5b5080fd5b816110469161235d565b61105157885f610f53565b8880fd5b6110a9918a855260a5602052604085208986526020526040852060018060a01b038d165f5260205261109b60405f2060035f918281558260018201558260028201550155565b5160ff33925116908c612adb565b5f80610f0b565b60405162461bcd60e51b815260206004820152601860248201527f6275793a3a496e73756666696369656e7420616d6f756e7400000000000000006044820152606490fd5b60405162461bcd60e51b815260206004820152601b60248201527f6275793a3a507269636520736574746572206e6f74206f776e657200000000006044820152606490fd5b61115491925060203d60201161031757610309818361235d565b905f610e10565b6040513d8e823e3d90fd5b60405162461bcd60e51b815260206004820152601f60248201527f6275793a3a546f6b656e20686173206e6f20627579206e6f77207072696365006044820152606490fd5b60405162461bcd60e51b815260206004820152601f60248201527f6275793a3a43757272656e63792061646472657373206e6f7420657175616c006044820152606490fd5b60f81c81526020015f610dba565b92602060019160ff8560f01c168152019301610db4565b92602060019160ff8560e81c168152019301610dac565b92602060019160ff8560e01c168152019301610da4565b92602060019160ff8560d81c168152019301610d9c565b92602060019160ff8560d01c168152019301610d94565b92602060019160ff8560c81c168152019301610d8c565b92602060019160ff8560c01c168152019301610d84565b92602060019160ff8560b81c168152019301610d7c565b92602060019160ff8560b01c168152019301610d74565b92602060019160ff8560a81c168152019301610d6c565b92602060019160ff8560a01c168152019301610d64565b92602060019160ff8560981c168152019301610d5c565b92602060019160ff8560901c168152019301610d54565b92602060019160ff8560881c168152019301610d4c565b92602060019160ff8560801c168152019301610d44565b92602060019160ff8560781c168152019301610d3c565b92602060019160ff8560701c168152019301610d34565b92602060019160ff8560681c168152019301610d2c565b92602060019160ff8560601c168152019301610d24565b92602060019160ff8560581c168152019301610d1c565b92602060019160ff8560501c168152019301610d14565b92602060019160ff8560481c168152019301610d0c565b92602060019160ff8560401c168152019301610d04565b92602060019160ff8560381c168152019301610cfc565b92602060019160ff8560301c168152019301610cf4565b92602060019160ff8560281c168152019301610cec565b92602060019160ff85831c168152019301610ce4565b92602060019160ff8560181c168152019301610cdc565b92602060019160ff8560101c168152019301610cd4565b92602060019160ff8560081c168152019301610ccc565b92602060019160ff85168152019301610cc4565b916020919350610400600191865460ff8116825260ff8160081c168583015260ff8160101c16604083015260ff8160181c16606083015260ff81861c16608083015260ff8160281c1660a083015260ff8160301c1660c083015260ff8160381c1660e083015260ff8160401c1661010083015260ff8160481c1661012083015260ff8160501c1661014083015260ff8160581c1661016083015260ff8160601c1661018083015260ff8160681c166101a083015260ff8160701c166101c083015260ff8160781c166101e083015260ff8160801c1661020083015260ff8160881c1661022083015260ff8160901c1661024083015260ff8160981c1661026083015260ff8160a01c1661028083015260ff8160a81c166102a083015260ff8160b01c166102c083015260ff8160b81c166102e083015260ff8160c01c1661030083015260ff8160c81c1661032083015260ff8160d01c1661034083015260ff8160d81c1661036083015260ff8160e01c1661038083015260ff8160e81c166103a083015260ff8160f01c166103c083015260f81c6103e0820152019401920187929391610cac565b82546001600160a01b031684528a945060209093019260019283019201610c6f565b5f805260205260405f20908791610c17565b506020813d6020116116cf575b816116b96020938361235d565b810103126116cb57610bc99051610bbe565b5f80fd5b3d91506116ac565b6040513d88823e3d90fd5b50346103295780600319360112610329576040517029a1a422a22aa622a22fa0aaa1aa24a7a760791b8152602090f35b5034610329578060031936011261032957609e546040516001600160a01b039091168152602090f35b50346103295780600319360112610329576098546040516001600160a01b039091168152602090f35b50346103295780600319360112610329576033546040516001600160a01b039091168152602090f35b50346103295780600319360112610329576117a6613668565b603380546001600160a01b0319811690915581906001600160a01b03167f8be0079c531659141344cd1fd0a4f28419497f9722a3daafe3b4186f6b6457e08280a380f35b5034610329578060031936011261032957602060ff60a05460a01c16604051908152f35b503461032957806003193601126103295760a0546040516001600160a01b039091168152602090f35b5034610329578060031936011261032957609d546040516001600160a01b039091168152602090f35b50346116cb5760c03660031901126116cb5761187a612284565b60243561188561229a565b91606435916084356001600160401b0381116116cb576118a99036906004016122fe565b91909360a4356001600160401b0381116116cb576118cb9036906004016122fe565b906118d4612622565b6118de8487612b6a565b6118e88487612c1a565b6118f48282878a612d31565b6001600160a01b038681165f81815260a5602090815260408083208984528252808320948d1683529390528290209151909790916119318361232e565b60018060a01b038154168352600181015460ff60036020860193838552600281015460408801520154818116606087015260081c161515608085015215611b7f5785905103611b2257875f5260a460205260405f20865f5260205260405f205f80526020526119a260405f20612400565b875f5260a560205260405f20865f5260205260405f2060018060a01b038b165f526020526119e460405f2060035f918281558260018201558260028201550155565b81516001600160a01b0316883b156116cb57604051906323b872dd60e01b825233600483015260248201528660448201525f81606481838d5af18015611b1757611b00575b50611a4f90611a3936898c61247e565b611a443687876124e0565b91878d8a3393612f22565b6097548a906001600160a01b0316803b156110385781809160648b6040519485938492635a3c652d60e01b845260048401528c6024840152600160448401525af1801561102d57611ae1575b50505160405133996001600160a01b03909216987f97c3d2068ce177bc33d84acecc45eededcf298c4a9d4340ae03d4afbb3993f7b979196879661100d96959488612534565b81611aef919594939561235d565b611afc579091895f611a9b565b8980fd5b611b0d919b505f9061235d565b5f99611a4f611a29565b6040513d5f823e3d90fd5b60405162461bcd60e51b815260206004820152602f60248201527f6163636570744f666665723a3a4f6666657220616d6f756e74206f722063757260448201526e1c995b98de481b9bdd08195c5d585b608a1b6064820152608490fd5b60405162461bcd60e51b815260206004820152601c60248201527f6163636570744f666665723a3a4e6f206f6666657220657869737473000000006044820152606490fd5b346116cb575f3660031901126116cb576099546040516001600160a01b039091168152602090f35b346116cb575f3660031901126116cb57609b546040516001600160a01b039091168152602090f35b346116cb57611c22366122c4565b9160018060a01b03165f5260a560205260405f20905f5260205260405f209060018060a01b03165f5260205260a060405f2060ff600180841b0382541691600181015490600360028201549101549160405194855260208501526040840152818116606084015260081c1615156080820152f35b346116cb5760403660031901126116cb576001600160a01b03611cb7612284565b165f5260a760205260405f206024355f52602052608060405f2060018060a01b038154169060018060a01b036001820154169060ff600360028301549201541691604051938452602084015260408301526060820152f35b346116cb57611d1d366122c4565b6001600160a01b039283165f90815260a46020908152604080832094835293815283822092851682529182528290208054600182015460029092015484519186168252919094169184019190915290820152606090f35b346116cb575f3660031901126116cb5760206040515f8152f35b60a03660031901126116cb57611da2612284565b60243590611dae61229a565b60643591608435908115158092036116cb57611dc8612622565b611dd183612690565b83156121925760018060a01b031693845f5260a560205260405f20815f5260205260405f2060018060a01b0384165f5260205260405f20604051611e148161232e565b60018060a01b038254168152600182015490611e72600360208301948486526002810154604085015201549260ff6060840194818116865260081c16151560808401526064611e6b60ff60a05460a01c168361237e565b04906123a5565b871061212f576097546040516361fe24a960e11b81526004810189905290602090829060249082906001600160a01b03165afa908115611b17575f916120fb575b50611ec1611ed191896123a5565b611ecb818961275c565b8761283b565b6040516331a9108f60e11b8152600481018590526020816024818c5afa908115611b17575f916120dc575b506001600160a01b0316331461208b57609754604051638347592160e01b815290602090829060049082906001600160a01b03165afa938415611b175761200b9487898c8c60ff965f95612051575b5091600391879360405192611f5f8461232e565b338452602084019182526040840192428452866060860199168952608085019788525f5260a56020528d60405f20905f5260205260405f209060018060a01b03165f5260205260405f209260018060a01b039060018060a01b03905116166001600160601b0360a01b8454161783555160018301555160028201550192511661ff0083549251151560081b169161ffff191617179055519251169060018060a01b039051169186612adb565b6040519384526020840152604083015260018060a01b0316917facbe96367816f728b84abf006ca777225b704072592132845e9a3dbd7b02369160603393a46001606555005b87939195509161207a60039360203d602011612084575b612072818361235d565b8101906123d1565b9591935091611f4b565b503d612068565b60405162461bcd60e51b815260206004820152602360248201527f6f666665723a3a4f666665722063616e6e6f7420636f6d652066726f6d206f776044820152623732b960e91b6064820152608490fd5b6120f5915060203d60201161031757610309818361235d565b89611efc565b90506020813d602011612127575b816121166020938361235d565b810103126116cb5751611ec1611eb3565b3d9150612109565b60405162461bcd60e51b815260206004820152603560248201527f6f666665723a3a4d7573742062652067726561746572207468616e2070726576604482015274206f66666572202b206d696e20696e63726561736560581b6064820152608490fd5b60405162461bcd60e51b815260206004820152601960248201527f6f666665723a3a416d6f756e742063616e6e6f742062652030000000000000006044820152606490fd5b346116cb575f3660031901126116cb57602060a154604051908152f35b346116cb575f3660031901126116cb57609c546040516001600160a01b039091168152602090f35b346116cb575f3660031901126116cb57602060a354604051908152f35b346116cb575f3660031901126116cb57609a546040516001600160a01b039091168152602090f35b346116cb575f3660031901126116cb57609f546001600160a01b03168152602090f35b600435906001600160a01b03821682036116cb57565b604435906001600160a01b03821682036116cb57565b35906001600160a01b03821682036116cb57565b60609060031901126116cb576004356001600160a01b03811681036116cb5790602435906044356001600160a01b03811681036116cb5790565b9181601f840112156116cb578235916001600160401b0383116116cb576020808501948460051b0101116116cb57565b60a081019081106001600160401b0382111761234957604052565b634e487b7160e01b5f52604160045260245ffd5b90601f801991011681019081106001600160401b0382111761234957604052565b8181029291811591840414171561239157565b634e487b7160e01b5f52601160045260245ffd5b9190820180921161239157565b908160209103126116cb57516001600160a01b03811681036116cb5790565b908160209103126116cb575160ff811681036116cb5790565b8181106123f5575050565b5f81556001016123ea565b6004905f81555f60018201555f60028201556003810180545f82558061244d575b50500180545f825580612432575050565b61244b915f52601f60205f20910160051c8101906123ea565b565b612460915f5260205f20908101906123ea565b5f80612421565b6001600160401b0381116123495760051b60200190565b92919061248a81612467565b93612498604051958661235d565b602085838152019160051b81019283116116cb57905b8282106124ba57505050565b602080916124c7846122b0565b8152019101906124ae565b359060ff821682036116cb57565b9291906124ec81612467565b936124fa604051958661235d565b602085838152019160051b81019283116116cb57905b82821061251c57505050565b60208091612529846124d2565b815201910190612510565b92859297969760a085019260018060a01b031685526020850152604084015260a060608401525260c0810191925f5b8181106125af5750506020925060808183039101528281520191905f5b81811061258d5750505090565b90919260208060019260ff6125a1886124d2565b168152019401929101612580565b909192602080600192838060a01b036125c7896122b0565b16815201950191019392919093612563565b9190820391821161239157565b90602080835192838152019201905f5b8181106126035750505090565b82516001600160a01b03168452602093840193909201916001016125f6565b600260655414612633576002606555565b60405162461bcd60e51b815260206004820152601f60248201527f5265656e7472616e637947756172643a207265656e7472616e742063616c6c006044820152606490fd5b908160209103126116cb575180151581036116cb5790565b6001600160a01b031680159081156126e8575b50156126ab57565b60405162461bcd60e51b81526020600482015260156024820152744e6f7420617070726f7665642063757272656e637960581b6044820152606490fd5b609d54604051632d5ad3d560e01b81526004810192909252909150602090829060249082906001600160a01b03165afa908115611b17575f9161272d575b505f6126a3565b61274f915060203d602011612755575b612747818361235d565b810190612678565b5f612726565b503d61273d565b6001600160a01b0316801561283757604051636eb1769f60e11b815233600482015230602482015290602090829060449082905afa908115611b17575f91612805575b50106127a757565b60405162461bcd60e51b815260206004820152603060248201527f73656e646572206e6565647320746f20617070726f7665206d61726b6574706c60448201526f61636520666f722063757272656e637960801b6064820152608490fd5b90506020813d60201161282f575b816128206020938361235d565b810103126116cb57515f61279f565b3d9150612813565b5050565b6001600160a01b03168015612a0757346129b1576040516370a0823160e01b815230600482015290602082602481845afa918215611b17575f9261297c575b506040516323b872dd60e01b6020828101919091523360248381019190915230604484015260648301869052939290916128cb906128c581608481015b03601f19810183528261235d565b826137e7565b6040516370a0823160e01b815230600482015293849182905afa8015611b17575f90612948575b6128fc92506125d9565b0361290357565b60405162461bcd60e51b815260206004820152601c60248201527f6e6f7420656e6f75676820746f6b656e73207472616e736665726564000000006044820152606490fd5b506020823d602011612974575b816129626020938361235d565b810103126116cb576128fc91516128f2565b3d9150612955565b91506020823d6020116129a9575b816129976020938361235d565b810103126116cb57905190602061287a565b3d915061298a565b60405162461bcd60e51b815260206004820152602860248201527f6d73672e76616c75652073686f756c642062652030207768656e206e6f7420756044820152670e6d2dcce40cae8d60c31b6064820152608490fd5b503403612a1057565b60405162461bcd60e51b81526020600482015260136024820152721b9bdd08195b9bdd59da08195d1a081cd95b9d606a1b6044820152606490fd5b3d15612a84573d906001600160401b0382116123495760405191612a79601f8201601f19166020018461235d565b82523d5f602084013e565b606090565b602060409281835280519182918282860152018484015e5f828201840152601f01601f1916010190565b15612abb5750565b60405162461bcd60e51b8152908190612ad79060048301612a89565b0390fd5b91908015612b64576064611e6b612af2938361237e565b906001600160a01b03168015612b0c579161244b926136c0565b50609e5460405163410085df60e01b602082019081526001600160a01b0394851660248301526044820184905261244b945f94859490911692612b5281606481016128b7565b51925af1612b5e612a4b565b90612ab3565b50505050565b6040516331a9108f60e11b81526004810192909252602090829060249082906001600160a01b03165afa908115611b17575f91612bfb575b50336001600160a01b0390911603612bb657565b60405162461bcd60e51b815260206004820152601e60248201527f73656e646572206d7573742062652074686520746f6b656e206f776e657200006044820152606490fd5b612c14915060203d60201161031757610309818361235d565b5f612ba2565b6040516331a9108f60e11b815260048101929092526001600160a01b031690602081602481855afa8015611b1757612c8a926020925f92612d12575b5060405163e985e9c560e01b81526001600160a01b0390921660048301523060248301529092839190829081906044820190565b03915afa908115611b17575f91612cf3575b5015612ca457565b60405162461bcd60e51b815260206004820152602160248201527f6f776e6572206d757374206861766520617070726f76656420636f6e747261636044820152601d60fa1b6064820152608490fd5b612d0c915060203d60201161275557612747818361235d565b5f612c9c565b612d2a919250833d851161031757610309818361235d565b905f612c56565b508015612e885760058111612e37578203612ddd575f92835b83851015612d79578460051b8301359060ff82168092036116cb57600191612d71916123a5565b940193612d4a565b915092506064915003612d8857565b60405162461bcd60e51b815260206004820152602760248201527f636865636b53706c6974733a3a546f74616c206d75737420626520657175616c604482015266020746f203130360cc1b6064820152608490fd5b60405162461bcd60e51b815260206004820152602c60248201527f636865636b53706c6974733a3a53706c69747320616e6420726174696f73206d60448201526b1d5cdd08189948195c5d585b60a21b6064820152608490fd5b60405162461bcd60e51b8152602060048201526024808201527f636865636b53706c6974733a3a53706c6974206578636565646564206d61782060448201526373697a6560e01b6064820152608490fd5b60405162461bcd60e51b815260206004820152602760248201527f636865636b53706c6974733a3a4d7573742068617665206174206c65617374206044820152660c481cdc1b1a5d60ca1b6064820152608490fd5b805115612eea5760200190565b634e487b7160e01b5f52603260045260245ffd5b805160011015612eea5760400190565b8051821015612eea5760209160051b010190565b919593969294968751855103613607576097546040516361fe24a960e11b8152600481018890526001600160a01b0390911692879291602081602481885afa908115611b17575f916135d5575b5060405194612f7f60608761235d565b600286526040908136602089013760a0546001600160a01b031680612fa389612edd565b52609f5460405163e286ef3360e01b81526001600160a01b039788166004820181905297909160209183916024918391165afa908115611b17575f916135b6575b506001600160a01b0316612ff789612efe565b526001600160a01b0361300989612efe565b511661359d575b61301988612efe565b6001600160a01b0390911690526040519161303560608461235d565b600283523660208401376040516303fdde1160e21b8152600481018c9052602081602481855afa908115611b17575f9161356b575b5061307483612edd565b5260208b60246040518094819363470d6ed960e11b835260048301525afa8015611b175787915f91613534575b50926130b7936130b084612efe565b528c613701565b609754604051631446f21360e21b81526001600160a01b03878116600483015260248201849052909160209183916044918391165afa908115611b17575f91613515575b5061335e5750604090815194613111838761235d565b60018652601f198301948536602089013783519561312f858861235d565b600187523660208801376001600160a01b039061314b90612edd565b511661315686612edd565b52609c548351635dc22eff60e01b81526004810184905290602090829060249082906001600160a01b03165afa908115613354575f91613335575b50156132d45750609c548251632260494f60e01b81526004810192909252602090829060249082906001600160a01b03165afa9182156132cb575061321b9493926131fa60ff606494613200945f916132ac575b501691846131f3848d61237e565b04906125d9565b9861237e565b0461320a83612edd565b5261321482612edd565b5187613701565b84519061322782612467565b91613235604051938461235d565b808352613244601f1991612467565b013660208401375f95865b815188101561329c57613294600191606461327760ff61326f8d8b612f0e565b51168a61237e565b046132828b88612f0e565b526064611e6b60ff61326f8d8b612f0e565b97019661324f565b9294509250945061244b93613701565b6132c5915060203d60201161208457612072818361235d565b5f6131e5565b513d5f823e3d90fd5b609754835163b28a7bad60e01b81526001600160a01b039283166004820152925060209183916024918391165afa9182156132cb57506133309493926131fa60ff606494613200945f916132ac57501691846131f3848d61237e565b61321b565b61334e915060203d60201161275557612747818361235d565b5f613191565b84513d5f823e3d90fd5b609954604051637a99dc0160e11b81526001600160a01b03968716600482015260248101929092526044820189905295999798909796909590945f94508893506064925083918591165af1958615611b17575f945f97613401575b505f94855b88518710156133e6576133de6001916133d7898c612f0e565b51906123a5565b9601956133be565b95506133fa866133309496999395986125d9565b9587613701565b945095503d805f863e613414818661235d565b8401936040818603126116cb5780516001600160401b0381116116cb5781019085601f830112156116cb57815161344a81612467565b92613458604051948561235d565b81845260208085019260051b820101908882116116cb57602001915b8183106134f5575050506020810151906001600160401b0382116116cb57019480601f870112156116cb5785516134aa81612467565b966134b8604051988961235d565b81885260208089019260051b8201019283116116cb57602001905b8282106134e55750505093955f6133b9565b81518152602091820191016134d3565b82516001600160a01b03811681036116cb57815260209283019201613474565b61352e915060203d60201161275557612747818361235d565b5f6130fb565b9150506020813d602011613563575b816135506020938361235d565b810103126116cb575186906130b76130a1565b3d9150613543565b90506020813d602011613595575b816135866020938361235d565b810103126116cb57515f61306a565b3d9150613579565b506001600160a01b036135af88612efe565b5116613010565b6135cf915060203d60201161031757610309818361235d565b5f612fe4565b90506020813d6020116135ff575b816135f06020938361235d565b810103126116cb57515f612f6f565b3d91506135e3565b60405162461bcd60e51b815260206004820152603360248201527f4e756d626572206f662073706c69742061646472657373657320616e642072616044820152723a34b7b99036bab9ba1031329032b8bab0b61760691b6064820152608490fd5b6033546001600160a01b0316330361367c57565b606460405162461bcd60e51b815260206004820152602060248201527f4f776e61626c653a2063616c6c6572206973206e6f7420746865206f776e65726044820152fd5b60405163a9059cbb60e01b60208201526001600160a01b0392909216602483015260448083019390935291815261244b916136fc60648361235d565b6137e7565b9293929091906001600160a01b0316806137a0575060018060a01b03609e541691604051613748602082019363c176e63960e01b85526040602484015260648301906125e6565b602319828203016044830152602080885192838152019701905f5b81811061378a57505050915f939183612b52869561244b989903601f19810183528261235d565b8251895260209889019890920191600101613763565b9391505f5b81518110156137e0576001906137da6001600160a01b036137c68386612f0e565b51166137d28387612f0e565b5190886136c0565b016137a5565b5050509050565b906138479160018060a01b03165f806040519361380560408661235d565b602085527f5361666545524332303a206c6f772d6c6576656c2063616c6c206661696c6564602086015260208151910182855af1613841612a4b565b916138cf565b80519081159182156138b5575b50501561385d57565b60405162461bcd60e51b815260206004820152602a60248201527f5361666545524332303a204552433230206f7065726174696f6e20646964206e6044820152691bdd081cdd58d8d9595960b21b6064820152608490fd5b6138c89250602080918301019101612678565b5f80613854565b9192901561393157508151156138e3575090565b3b156138ec5790565b60405162461bcd60e51b815260206004820152601d60248201527f416464726573733a2063616c6c20746f206e6f6e2d636f6e74726163740000006044820152606490fd5b825190915015612abb5750805190602001fdfea2646970667358221220b38514a2b9cdc6f450d896cc9fa3fda760041a04a67d35d54e8dd4659915979a64736f6c634300081c0033","linkReferences":{}},"methodIdentifiers":{"COLDIE_AUCTION()":"c90b8714","NO_AUCTION()":"155a56b1","SCHEDULED_AUCTION()":"b23afc26","acceptOffer(address,uint256,address,uint256,address[],uint8[])":"534665e9","approvedTokenRegistry()":"6240cd1c","auctionBids(address,uint256)":"299a0e1e","auctionLengthExtension()":"daa26499","buy(address,uint256,address,uint256)":"b3ffb760","cancelOffer(address,uint256,address)":"e92f94d1","marketplaceSettings()":"ba50b632","maxAuctionLength()":"0e519ef9","minimumBidIncreasePercentage()":"6fe9f44c","networkBeneficiary()":"6b534ed0","offer(address,uint256,address,uint256,bool)":"0f2b2532","offerCancelationDelay()":"0a5c4ed5","owner()":"8da5cb5b","payments()":"a6d23e10","removeSalePrice(address,uint256,address)":"f7cfaad0","renounceOwnership()":"715018a6","royaltyEngine()":"4c94c90c","royaltyRegistry()":"a11b0712","setSalePrice(address,uint256,address,uint256,address,address[],uint8[])":"c8f94f4e","spaceOperatorRegistry()":"0bcba09d","stakingRegistry()":"009d9aa9","superRareAuctionHouse()":"3bc3d9be","superRareMarketplace()":"0141c590","tokenAuctions(address,uint256)":"c47c35c1","tokenCurrentOffers(address,uint256,address)":"2c419053","tokenSalePrices(address,uint256,address)":"1a2ac30f","transferOwnership(address)":"f2fde38b"},"id":70}