{"abi":[{"type":"function","name":"COLDIE_AUCTION","inputs":[],"outputs":[{"name":"","type":"bytes32","internalType":"bytes32"}],"stateMutability":"view"},{"type":"function","name":"NO_AUCTION","inputs":[],"outputs":[{"name":"","type":"bytes32","internalType":"bytes32"}],"stateMutability":"view"},{"type":"function","name":"SCHEDULED_AUCTION","inputs":[],"outputs":[{"name":"","type":"bytes32","internalType":"bytes32"}],"stateMutability":"view"},{"type":"function","name":"acceptOffer","inputs":[{"name":"_originContract","type":"address","internalType":"address"},{"name":"_tokenId","type":"uint256","internalType":"uint256"},{"name":"_currencyAddress","type":"address","internalType":"address"},{"name":"_amount","type":"uint256","internalType":"uint256"},{"name":"_splitAddresses","type":"address[]","internalType":"address payable[]"},{"name":"_splitRatios","type":"uint8[]","internalType":"uint8[]"}],"outputs":[],"stateMutability":"nonpayable"},{"type":"function","name":"approvedTokenRegistry","inputs":[],"outputs":[{"name":"","type":"address","internalType":"contract IApprovedTokenRegistry"}],"stateMutability":"view"},{"type":"function","name":"auctionBids","inputs":[{"name":"","type":"address","internalType":"address"},{"name":"","type":"uint256","internalType":"uint256"}],"outputs":[{"name":"bidder","type":"address","internalType":"address payable"},{"name":"currencyAddress","type":"address","internalType":"address"},{"name":"amount","type":"uint256","internalType":"uint256"},{"name":"marketplaceFee","type":"uint8","internalType":"uint8"}],"stateMutability":"view"},{"type":"function","name":"auctionLengthExtension","inputs":[],"outputs":[{"name":"","type":"uint256","internalType":"uint256"}],"stateMutability":"view"},{"type":"function","name":"bid","inputs":[{"name":"_originContract","type":"address","internalType":"address"},{"name":"_tokenId","type":"uint256","internalType":"uint256"},{"name":"_currencyAddress","type":"address","internalType":"address"},{"name":"_amount","type":"uint256","internalType":"uint256"}],"outputs":[],"stateMutability":"payable"},{"type":"function","name":"buy","inputs":[{"name":"_originContract","type":"address","internalType":"address"},{"name":"_tokenId","type":"uint256","internalType":"uint256"},{"name":"_currencyAddress","type":"address","internalType":"address"},{"name":"_amount","type":"uint256","internalType":"uint256"}],"outputs":[],"stateMutability":"payable"},{"type":"function","name":"cancelAuction","inputs":[{"name":"_originContract","type":"address","internalType":"address"},{"name":"_tokenId","type":"uint256","internalType":"uint256"}],"outputs":[],"stateMutability":"nonpayable"},{"type":"function","name":"cancelOffer","inputs":[{"name":"_originContract","type":"address","internalType":"address"},{"name":"_tokenId","type":"uint256","internalType":"uint256"},{"name":"_currencyAddress","type":"address","internalType":"address"}],"outputs":[],"stateMutability":"nonpayable"},{"type":"function","name":"configureAuction","inputs":[{"name":"_auctionType","type":"bytes32","internalType":"bytes32"},{"name":"_originContract","type":"address","internalType":"address"},{"name":"_tokenId","type":"uint256","internalType":"uint256"},{"name":"_startingAmount","type":"uint256","internalType":"uint256"},{"name":"_currencyAddress","type":"address","internalType":"address"},{"name":"_lengthOfAuction","type":"uint256","internalType":"uint256"},{"name":"_startTime","type":"uint256","internalType":"uint256"},{"name":"_splitAddresses","type":"address[]","internalType":"address payable[]"},{"name":"_splitRatios","type":"uint8[]","internalType":"uint8[]"}],"outputs":[],"stateMutability":"nonpayable"},{"type":"function","name":"convertOfferToAuction","inputs":[{"name":"_originContract","type":"address","internalType":"address"},{"name":"_tokenId","type":"uint256","internalType":"uint256"},{"name":"_currencyAddress","type":"address","internalType":"address"},{"name":"_amount","type":"uint256","internalType":"uint256"},{"name":"_lengthOfAuction","type":"uint256","internalType":"uint256"},{"name":"_splitAddresses","type":"address[]","internalType":"address payable[]"},{"name":"_splitRatios","type":"uint8[]","internalType":"uint8[]"}],"outputs":[],"stateMutability":"nonpayable"},{"type":"function","name":"getAuctionDetails","inputs":[{"name":"_originContract","type":"address","internalType":"address"},{"name":"_tokenId","type":"uint256","internalType":"uint256"}],"outputs":[{"name":"","type":"address","internalType":"address"},{"name":"","type":"uint256","internalType":"uint256"},{"name":"","type":"uint256","internalType":"uint256"},{"name":"","type":"uint256","internalType":"uint256"},{"name":"","type":"address","internalType":"address"},{"name":"","type":"uint256","internalType":"uint256"},{"name":"","type":"bytes32","internalType":"bytes32"},{"name":"","type":"address[]","internalType":"address payable[]"},{"name":"","type":"uint8[]","internalType":"uint8[]"}],"stateMutability":"view"},{"type":"function","name":"getSalePrice","inputs":[{"name":"_originContract","type":"address","internalType":"address"},{"name":"_tokenId","type":"uint256","internalType":"uint256"},{"name":"_target","type":"address","internalType":"address"}],"outputs":[{"name":"","type":"address","internalType":"address"},{"name":"","type":"address","internalType":"address"},{"name":"","type":"uint256","internalType":"uint256"},{"name":"","type":"address[]","internalType":"address payable[]"},{"name":"","type":"uint8[]","internalType":"uint8[]"}],"stateMutability":"view"},{"type":"function","name":"initialize","inputs":[{"name":"_marketplaceSettings","type":"address","internalType":"address"},{"name":"_royaltyRegistry","type":"address","internalType":"address"},{"name":"_royaltyEngine","type":"address","internalType":"address"},{"name":"_superRareMarketplace","type":"address","internalType":"address"},{"name":"_superRareAuctionHouse","type":"address","internalType":"address"},{"name":"_spaceOperatorRegistry","type":"address","internalType":"address"},{"name":"_approvedTokenRegistry","type":"address","internalType":"address"},{"name":"_payments","type":"address","internalType":"address"},{"name":"_stakingRegistry","type":"address","internalType":"address"},{"name":"_networkBeneficiary","type":"address","internalType":"address"}],"outputs":[],"stateMutability":"nonpayable"},{"type":"function","name":"marketplaceSettings","inputs":[],"outputs":[{"name":"","type":"address","internalType":"contract IMarketplaceSettings"}],"stateMutability":"view"},{"type":"function","name":"maxAuctionLength","inputs":[],"outputs":[{"name":"","type":"uint256","internalType":"uint256"}],"stateMutability":"view"},{"type":"function","name":"minimumBidIncreasePercentage","inputs":[],"outputs":[{"name":"","type":"uint8","internalType":"uint8"}],"stateMutability":"view"},{"type":"function","name":"networkBeneficiary","inputs":[],"outputs":[{"name":"","type":"address","internalType":"address"}],"stateMutability":"view"},{"type":"function","name":"offer","inputs":[{"name":"_originContract","type":"address","internalType":"address"},{"name":"_tokenId","type":"uint256","internalType":"uint256"},{"name":"_currencyAddress","type":"address","internalType":"address"},{"name":"_amount","type":"uint256","internalType":"uint256"},{"name":"_convertible","type":"bool","internalType":"bool"}],"outputs":[],"stateMutability":"payable"},{"type":"function","name":"offerCancelationDelay","inputs":[],"outputs":[{"name":"","type":"uint256","internalType":"uint256"}],"stateMutability":"view"},{"type":"function","name":"owner","inputs":[],"outputs":[{"name":"","type":"address","internalType":"address"}],"stateMutability":"view"},{"type":"function","name":"payments","inputs":[],"outputs":[{"name":"","type":"address","internalType":"contract IPayments"}],"stateMutability":"view"},{"type":"function","name":"removeSalePrice","inputs":[{"name":"_originContract","type":"address","internalType":"address"},{"name":"_tokenId","type":"uint256","internalType":"uint256"},{"name":"_target","type":"address","internalType":"address"}],"outputs":[],"stateMutability":"nonpayable"},{"type":"function","name":"renounceOwnership","inputs":[],"outputs":[],"stateMutability":"nonpayable"},{"type":"function","name":"royaltyEngine","inputs":[],"outputs":[{"name":"","type":"address","internalType":"contract IRoyaltyEngineV1"}],"stateMutability":"view"},{"type":"function","name":"royaltyRegistry","inputs":[],"outputs":[{"name":"","type":"address","internalType":"contract IRareRoyaltyRegistry"}],"stateMutability":"view"},{"type":"function","name":"setApprovedTokenRegistry","inputs":[{"name":"_approvedTokenRegistry","type":"address","internalType":"address"}],"outputs":[],"stateMutability":"nonpayable"},{"type":"function","name":"setAuctionLengthExtension","inputs":[{"name":"_auctionLengthExtension","type":"uint256","internalType":"uint256"}],"outputs":[],"stateMutability":"nonpayable"},{"type":"function","name":"setMarketplaceSettings","inputs":[{"name":"_marketplaceSettings","type":"address","internalType":"address"}],"outputs":[],"stateMutability":"nonpayable"},{"type":"function","name":"setMaxAuctionLength","inputs":[{"name":"_maxAuctionLength","type":"uint8","internalType":"uint8"}],"outputs":[],"stateMutability":"nonpayable"},{"type":"function","name":"setMinimumBidIncreasePercentage","inputs":[{"name":"_minimumBidIncreasePercentage","type":"uint8","internalType":"uint8"}],"outputs":[],"stateMutability":"nonpayable"},{"type":"function","name":"setNetworkBeneficiary","inputs":[{"name":"_networkBeneficiary","type":"address","internalType":"address"}],"outputs":[],"stateMutability":"nonpayable"},{"type":"function","name":"setOfferCancelationDelay","inputs":[{"name":"_offerCancelationDelay","type":"uint256","internalType":"uint256"}],"outputs":[],"stateMutability":"nonpayable"},{"type":"function","name":"setPayments","inputs":[{"name":"_payments","type":"address","internalType":"address"}],"outputs":[],"stateMutability":"nonpayable"},{"type":"function","name":"setRoyaltyEngine","inputs":[{"name":"_royaltyEngine","type":"address","internalType":"address"}],"outputs":[],"stateMutability":"nonpayable"},{"type":"function","name":"setRoyaltyRegistry","inputs":[{"name":"_royaltyRegistry","type":"address","internalType":"address"}],"outputs":[],"stateMutability":"nonpayable"},{"type":"function","name":"setSalePrice","inputs":[{"name":"_originContract","type":"address","internalType":"address"},{"name":"_tokenId","type":"uint256","internalType":"uint256"},{"name":"_currencyAddress","type":"address","internalType":"address"},{"name":"_listPrice","type":"uint256","internalType":"uint256"},{"name":"_target","type":"address","internalType":"address"},{"name":"_splitAddresses","type":"address[]","internalType":"address payable[]"},{"name":"_splitRatios","type":"uint8[]","internalType":"uint8[]"}],"outputs":[],"stateMutability":"nonpayable"},{"type":"function","name":"setSpaceOperatorRegistry","inputs":[{"name":"_spaceOperatorRegistry","type":"address","internalType":"address"}],"outputs":[],"stateMutability":"nonpayable"},{"type":"function","name":"setStakingRegistry","inputs":[{"name":"_stakingRegistry","type":"address","internalType":"address"}],"outputs":[],"stateMutability":"nonpayable"},{"type":"function","name":"setSuperRareAuctionHouse","inputs":[{"name":"_superRareAuctionHouse","type":"address","internalType":"address"}],"outputs":[],"stateMutability":"nonpayable"},{"type":"function","name":"setSuperRareMarketplace","inputs":[{"name":"_superRareMarketplace","type":"address","internalType":"address"}],"outputs":[],"stateMutability":"nonpayable"},{"type":"function","name":"settleAuction","inputs":[{"name":"_originContract","type":"address","internalType":"address"},{"name":"_tokenId","type":"uint256","internalType":"uint256"}],"outputs":[],"stateMutability":"nonpayable"},{"type":"function","name":"spaceOperatorRegistry","inputs":[],"outputs":[{"name":"","type":"address","internalType":"contract ISpaceOperatorRegistry"}],"stateMutability":"view"},{"type":"function","name":"stakingRegistry","inputs":[],"outputs":[{"name":"","type":"address","internalType":"address"}],"stateMutability":"view"},{"type":"function","name":"superRareAuctionHouse","inputs":[],"outputs":[{"name":"","type":"address","internalType":"address"}],"stateMutability":"view"},{"type":"function","name":"superRareMarketplace","inputs":[],"outputs":[{"name":"","type":"address","internalType":"address"}],"stateMutability":"view"},{"type":"function","name":"tokenAuctions","inputs":[{"name":"","type":"address","internalType":"address"},{"name":"","type":"uint256","internalType":"uint256"}],"outputs":[{"name":"auctionCreator","type":"address","internalType":"address payable"},{"name":"creationBlock","type":"uint256","internalType":"uint256"},{"name":"startingTime","type":"uint256","internalType":"uint256"},{"name":"lengthOfAuction","type":"uint256","internalType":"uint256"},{"name":"currencyAddress","type":"address","internalType":"address"},{"name":"minimumBid","type":"uint256","internalType":"uint256"},{"name":"auctionType","type":"bytes32","internalType":"bytes32"}],"stateMutability":"view"},{"type":"function","name":"tokenCurrentOffers","inputs":[{"name":"","type":"address","internalType":"address"},{"name":"","type":"uint256","internalType":"uint256"},{"name":"","type":"address","internalType":"address"}],"outputs":[{"name":"buyer","type":"address","internalType":"address payable"},{"name":"amount","type":"uint256","internalType":"uint256"},{"name":"timestamp","type":"uint256","internalType":"uint256"},{"name":"marketplaceFee","type":"uint8","internalType":"uint8"},{"name":"convertible","type":"bool","internalType":"bool"}],"stateMutability":"view"},{"type":"function","name":"tokenSalePrices","inputs":[{"name":"","type":"address","internalType":"address"},{"name":"","type":"uint256","internalType":"uint256"},{"name":"","type":"address","internalType":"address"}],"outputs":[{"name":"seller","type":"address","internalType":"address payable"},{"name":"currencyAddress","type":"address","internalType":"address"},{"name":"amount","type":"uint256","internalType":"uint256"}],"stateMutability":"view"},{"type":"function","name":"transferOwnership","inputs":[{"name":"newOwner","type":"address","internalType":"address"}],"outputs":[],"stateMutability":"nonpayable"},{"type":"event","name":"AcceptOffer","inputs":[{"name":"_originContract","type":"address","indexed":true,"internalType":"address"},{"name":"_bidder","type":"address","indexed":true,"internalType":"address"},{"name":"_seller","type":"address","indexed":true,"internalType":"address"},{"name":"_currencyAddress","type":"address","indexed":false,"internalType":"address"},{"name":"_amount","type":"uint256","indexed":false,"internalType":"uint256"},{"name":"_tokenId","type":"uint256","indexed":false,"internalType":"uint256"},{"name":"_splitAddresses","type":"address[]","indexed":false,"internalType":"address payable[]"},{"name":"_splitRatios","type":"uint8[]","indexed":false,"internalType":"uint8[]"}],"anonymous":false},{"type":"event","name":"AuctionBid","inputs":[{"name":"_contractAddress","type":"address","indexed":true,"internalType":"address"},{"name":"_bidder","type":"address","indexed":true,"internalType":"address"},{"name":"_tokenId","type":"uint256","indexed":true,"internalType":"uint256"},{"name":"_currencyAddress","type":"address","indexed":false,"internalType":"address"},{"name":"_amount","type":"uint256","indexed":false,"internalType":"uint256"},{"name":"_startedAuction","type":"bool","indexed":false,"internalType":"bool"},{"name":"_newAuctionLength","type":"uint256","indexed":false,"internalType":"uint256"},{"name":"_previousBidder","type":"address","indexed":false,"internalType":"address"}],"anonymous":false},{"type":"event","name":"AuctionSettled","inputs":[{"name":"_contractAddress","type":"address","indexed":true,"internalType":"address"},{"name":"_bidder","type":"address","indexed":true,"internalType":"address"},{"name":"_seller","type":"address","indexed":false,"internalType":"address"},{"name":"_tokenId","type":"uint256","indexed":true,"internalType":"uint256"},{"name":"_currencyAddress","type":"address","indexed":false,"internalType":"address"},{"name":"_amount","type":"uint256","indexed":false,"internalType":"uint256"}],"anonymous":false},{"type":"event","name":"CancelAuction","inputs":[{"name":"_contractAddress","type":"address","indexed":true,"internalType":"address"},{"name":"_tokenId","type":"uint256","indexed":true,"internalType":"uint256"},{"name":"_auctionCreator","type":"address","indexed":true,"internalType":"address"}],"anonymous":false},{"type":"event","name":"CancelOffer","inputs":[{"name":"_originContract","type":"address","indexed":true,"internalType":"address"},{"name":"_bidder","type":"address","indexed":true,"internalType":"address"},{"name":"_currencyAddress","type":"address","indexed":true,"internalType":"address"},{"name":"_amount","type":"uint256","indexed":false,"internalType":"uint256"},{"name":"_tokenId","type":"uint256","indexed":false,"internalType":"uint256"}],"anonymous":false},{"type":"event","name":"Initialized","inputs":[{"name":"version","type":"uint8","indexed":false,"internalType":"uint8"}],"anonymous":false},{"type":"event","name":"NewAuction","inputs":[{"name":"_contractAddress","type":"address","indexed":true,"internalType":"address"},{"name":"_tokenId","type":"uint256","indexed":true,"internalType":"uint256"},{"name":"_auctionCreator","type":"address","indexed":true,"internalType":"address"},{"name":"_currencyAddress","type":"address","indexed":false,"internalType":"address"},{"name":"_startingTime","type":"uint256","indexed":false,"internalType":"uint256"},{"name":"_minimumBid","type":"uint256","indexed":false,"internalType":"uint256"},{"name":"_lengthOfAuction","type":"uint256","indexed":false,"internalType":"uint256"}],"anonymous":false},{"type":"event","name":"OfferPlaced","inputs":[{"name":"_originContract","type":"address","indexed":true,"internalType":"address"},{"name":"_bidder","type":"address","indexed":true,"internalType":"address"},{"name":"_currencyAddress","type":"address","indexed":true,"internalType":"address"},{"name":"_amount","type":"uint256","indexed":false,"internalType":"uint256"},{"name":"_tokenId","type":"uint256","indexed":false,"internalType":"uint256"},{"name":"_convertible","type":"bool","indexed":false,"internalType":"bool"}],"anonymous":false},{"type":"event","name":"OwnershipTransferred","inputs":[{"name":"previousOwner","type":"address","indexed":true,"internalType":"address"},{"name":"newOwner","type":"address","indexed":true,"internalType":"address"}],"anonymous":false},{"type":"event","name":"SetSalePrice","inputs":[{"name":"_originContract","type":"address","indexed":true,"internalType":"address"},{"name":"_currencyAddress","type":"address","indexed":true,"internalType":"address"},{"name":"_target","type":"address","indexed":false,"internalType":"address"},{"name":"_amount","type":"uint256","indexed":false,"internalType":"uint256"},{"name":"_tokenId","type":"uint256","indexed":false,"internalType":"uint256"},{"name":"_splitRecipients","type":"address[]","indexed":false,"internalType":"address payable[]"},{"name":"_splitRatios","type":"uint8[]","indexed":false,"internalType":"uint8[]"}],"anonymous":false},{"type":"event","name":"Sold","inputs":[{"name":"_originContract","type":"address","indexed":true,"internalType":"address"},{"name":"_buyer","type":"address","indexed":true,"internalType":"address"},{"name":"_seller","type":"address","indexed":true,"internalType":"address"},{"name":"_currencyAddress","type":"address","indexed":false,"internalType":"address"},{"name":"_amount","type":"uint256","indexed":false,"internalType":"uint256"},{"name":"_tokenId","type":"uint256","indexed":false,"internalType":"uint256"}],"anonymous":false}],"bytecode":{"object":"0x60808060405234601557612307908161001a8239f35b5f80fdfe6080806040526004361015610012575f80fd5b5f3560e01c9081629d9aa9146118ee575080630141c590146118c6578063060d9eeb146117ed5780630a5c4ed5146117d05780630bcba09d146117a85780630cd87c681461165b5780630e519ef91461163e5780630f2b2532146115af57806310f797891461158e578063155a56b114611574578063176ab4401461152d5780631a2ac30f146114c857806321ede03214611481578063299a0e1e146114085780632a2a326c146113c15780632c4190531461133f5780632c740844146112f85780633492e5a8146112b1578063369679a4146111aa5780633bc3d9be1461118257806348626b90146111455780634c94c90c1461111d5780635138b08c146110be578063534665e914610fdd5780636240cd1c14610fb55780636b534ed014610f8d5780636fe9f44c14610f6a578063715018a614610f0f5780637a54479214610eee5780637f35823014610ea757806384a608e214610e60578063859b97fe14610e015780638da5cb5b14610dd95780639041a0ec14610cd95780639c883af214610c92578063a11b071214610c6a578063a6d23e1014610c42578063af231a5814610bfb578063b23afc2614610bcc578063b3ffb76014610b6d578063b567858814610b0e578063ba50b63214610ae6578063c306b378146107bb578063c47c35c114610726578063c8f94f4e14610624578063c90b8714146105f8578063daa26499146105db578063dce96bf5146105b2578063e4e87e3b1461056b578063e92f94d1146104fc578063f2fde38b1461046d5763f7cfaad014610257575f80fd5b346104565761026536611a0b565b6040516331a9108f60e11b81526004810183905290926001600160a01b03169190602081602481865afa908115610462575f9161041c575b506001600160a01b031633036103cb575f7fb6039ff1edf80efca6bc48b89f5415ba07fecb2d321058dae9ce6369b2ff964b91819484835260a460205260408320828452602052604083209060018060a01b03168352602052600460408320838155836001820155836002820155600381018054858255806103b1575b505001805483825580610391575b505061038c60209161037e6040516103408582611b16565b85815285368137604051926103558685611b16565b86845286368137604051968796818852870152604086015260a0606086015260a0850190611999565b9083820360808501526119d5565b0390a3005b6103aa918452601f60208520910160051c8101906121bb565b5f80610328565b6103c491865260208620908101906121bb565b5f8061031a565b60405162461bcd60e51b8152602060048201526024808201527f72656d6f766553616c6550726963653a3a4d75737420626520746f6b656e4f776044820152633732b91760e11b6064820152608490fd5b90506020813d60201161045a575b8161043760209383611b16565b8101031261045657516001600160a01b0381168103610456575f61029d565b5f80fd5b3d915061042a565b6040513d5f823e3d90fd5b3461045657602036600319011261045657610486611911565b61048e6121d1565b6001600160a01b038116156104a8576104a690612229565b005b60405162461bcd60e51b815260206004820152602660248201527f4f776e61626c653a206e6577206f776e657220697320746865207a65726f206160448201526564647265737360d01b6064820152608490fd5b34610456576104a65f8061050f36611a0b565b609a5460405163e92f94d160e01b602082019081526001600160a01b0395861660248301526044820194909452918416606480840191909152825290921691610559608482611b16565b51915af4610565611b37565b90611b75565b3461045657602036600319011261045657610584611911565b61058c6121d1565b6001600160a01b03168015610456576001600160601b0360a01b609d541617609d555f80f35b346104565760203660031901126104565760ff6105cd611a45565b6105d56121d1565b1660a155005b34610456575f36600319011261045657602060a254604051908152f35b34610456575f366003190112610456576040516d21a7a62224a2afa0aaa1aa24a7a760911b8152602090f35b346104565760e03660031901126104565761063d611911565b610645611927565b61064d611953565b60a4356001600160401b0381116104565761066c903690600401611969565b909360c435926001600160401b038411610456576105595f956107186104a69861070661069e8a993690600401611969565b609a5460405163647ca7a760e11b602082019081526001600160a01b039b8c16602480840191909152356044830152978b16606480830191909152356084820152988a1660a48a015260e060c48a015290981698949787959193909291610104870191611a93565b8481036023190160e486015291611ad7565b03601f198101835282611b16565b34610456576040366003190112610456576001600160a01b03610747611911565b165f5260a660205260405f206024355f5260205260e060405f2060018060a01b03815416906001810154906002810154600382015460018060a01b03600484015416916006600585015494015494604051968752602087015260408601526060850152608084015260a083015260c0820152f35b3461045657610140366003190112610456576107d5611911565b6107dd61193d565b6107e5611927565b906064356001600160a01b0381169081900361045657610803611953565b9160a4356001600160a01b038116908190036104565760c4356001600160a01b03811692908390036104565760e4356001600160a01b038116949085900361045657610104356001600160a01b038116969087900361045657610124356001600160a01b0381169890899003610456575f549960ff8b60081c16159a8b809c610ad9575b8015610ac2575b15610a665760ff1981166001175f558b610a55575b506001600160a01b0316938415610456576001600160a01b0316908115610456576001600160a01b0316918215610456578315610456576001600160a01b0316938415610456578515610456578615610456578715610456578915610456576001600160601b0360a01b60975416176097556001600160601b0360a01b60985416176098556001600160601b0360a01b60995416176099556001600160601b0360a01b609a541617609a556001600160601b0360a01b609b541617609b556001600160601b0360a01b609c541617609c556001600160601b0360a01b609d541617609d556001600160601b0360a01b609e541617609e556001600160601b0360a01b609f541617609f55600560a11b906affffffffffffffffffffff60a81b60a05416171760a05562093a8060a15561038460a25561012c60a3556109f760ff5f5460081c166109f281612271565b612271565b610a0033612229565b5f5490610a1660ff8360081c166109f281612271565b6001606555610a2157005b61ff0019165f557f7f26b83ff96e1f2b6a682f133852f6798a09c465da95921460cefb3847402498602060405160018152a1005b61ffff1916610101175f558b6108a3565b60405162461bcd60e51b815260206004820152602e60248201527f496e697469616c697a61626c653a20636f6e747261637420697320616c72656160448201526d191e481a5b9a5d1a585b1a5e995960921b6064820152608490fd5b50303b15801561088e5750600160ff82161461088e565b50600160ff821610610887565b34610456575f366003190112610456576097546040516001600160a01b039091168152602090f35b6104a65f80610559610b1f36611a55565b609b546040516316acf0b160e31b602082019081526001600160a01b039687166024830152604482019590955292851660648401526084830191909152909216929091908160a48101610718565b6104a65f80610559610b7e36611a55565b609a5460405163059ffdbb60e51b602082019081526001600160a01b039687166024830152604482019590955292851660648401526084830191909152909216929091908160a48101610718565b34610456575f366003190112610456576040517029a1a422a22aa622a22fa0aaa1aa24a7a760791b8152602090f35b3461045657602036600319011261045657610c14611911565b610c1c6121d1565b6001600160a01b03168015610456576001600160601b0360a01b609e541617609e555f80f35b34610456575f36600319011261045657609e546040516001600160a01b039091168152602090f35b34610456575f366003190112610456576098546040516001600160a01b039091168152602090f35b3461045657602036600319011261045657610cab611911565b610cb36121d1565b6001600160a01b03168015610456576001600160601b0360a01b609a541617609a555f80f35b346104565761012036600319011261045657610cf361193d565b610cfb611953565b9060e4356001600160401b03811161045657610d1b903690600401611969565b929061010435926001600160401b038411610456576104a6946105595f9594610718610d4c88973690600401611969565b610dc660018060a01b03609b541698604051978896602088019a632410683b60e21b8c5260043560248a015260018060a01b031660448901526044356064890152606435608489015260018060a01b031660a488015260a43560c488015260c43560e4880152610120610104880152610144870191611a93565b8481036023190161012486015291611ad7565b34610456575f366003190112610456576033546040516001600160a01b039091168152602090f35b34610456576040366003190112610456576104a65f80610e1f611911565b609b546040516342cdcbff60e11b602082019081526001600160a01b0393841660248084019190915235604483015291909216916105598160648101610718565b3461045657602036600319011261045657610e79611911565b610e816121d1565b6001600160a01b03168015610456576001600160601b0360a01b60985416176098555f80f35b3461045657602036600319011261045657610ec0611911565b610ec86121d1565b6001600160a01b03168015610456576001600160601b0360a01b609c541617609c555f80f35b3461045657602036600319011261045657610f076121d1565b60043560a355005b34610456575f36600319011261045657610f276121d1565b603380546001600160a01b031981169091555f906001600160a01b03167f8be0079c531659141344cd1fd0a4f28419497f9722a3daafe3b4186f6b6457e08280a3005b34610456575f36600319011261045657602060ff60a05460a01c16604051908152f35b34610456575f3660031901126104565760a0546040516001600160a01b039091168152602090f35b34610456575f36600319011261045657609d546040516001600160a01b039091168152602090f35b346104565760c036600319011261045657610ff6611911565b610ffe611927565b906084356001600160401b0381116104565761101e903690600401611969565b929060a435926001600160401b038411610456576104a6946105595f959461071861104e88973690600401611969565b609a5460405163534665e960e01b602082019081526001600160a01b03998a1660248084019190915235604483015295891660648083019190915235608482015260c060a482015297169793969586946110ac9160e4870191611a93565b8481036023190160c486015291611ad7565b34610456576040366003190112610456576104a65f806110dc611911565b609b5460405163144e2c2360e21b602082019081526001600160a01b0393841660248084019190915235604483015291909216916105598160648101610718565b34610456575f366003190112610456576099546040516001600160a01b039091168152602090f35b346104565760203660031901126104565761115e611a45565b6111666121d1565b60a0805460ff60a01b191691811b60ff60a01b16919091179055005b34610456575f36600319011261045657609b546040516001600160a01b039091168152602090f35b34610456576111b836611a0b565b9160018060a01b03165f5260a460205260405f20905f5260205260405f209060018060a01b03165f5260205260405f2060405160a081018181106001600160401b0382111761129d57604090815282546001600160a01b039081168352600184015416602083019081526002840154918301918252909290916112999161037e90611258600461124a60038401611bbc565b926060860193845201611c0f565b608084018190529251945195519051604080516001600160a01b0397881681529790961660208801529486015260a060608601819052859490850190611999565b0390f35b634e487b7160e01b5f52604160045260245ffd5b34610456576020366003190112610456576112ca611911565b6112d26121d1565b6001600160a01b03168015610456576001600160601b0360a01b60a054161760a0555f80f35b3461045657602036600319011261045657611311611911565b6113196121d1565b6001600160a01b03168015610456576001600160601b0360a01b609f541617609f555f80f35b346104565761134d36611a0b565b9160018060a01b03165f5260a560205260405f20905f5260205260405f209060018060a01b03165f5260205260a060405f2060ff600180841b0382541691600181015490600360028201549101549160405194855260208501526040840152818116606084015260081c1615156080820152f35b34610456576020366003190112610456576113da611911565b6113e26121d1565b6001600160a01b03168015610456576001600160601b0360a01b609b541617609b555f80f35b34610456576040366003190112610456576001600160a01b03611429611911565b165f5260a760205260405f206024355f52602052608060405f2060018060a01b038154169060018060a01b036001820154169060ff600360028301549201541691604051938452602084015260408301526060820152f35b346104565760203660031901126104565761149a611911565b6114a26121d1565b6001600160a01b03168015610456576001600160601b0360a01b60995416176099555f80f35b34610456576114d636611a0b565b6001600160a01b039283165f90815260a46020908152604080832094835293815283822092851682529182528290208054600182015460029092015484519186168252919094169184019190915290820152606090f35b3461045657602036600319011261045657611546611911565b61154e6121d1565b6001600160a01b03168015610456576001600160601b0360a01b60975416176097555f80f35b34610456575f3660031901126104565760206040515f8152f35b34610456576020366003190112610456576115a76121d1565b60043560a255005b60a0366003190112610456576115c3611911565b6115cb611927565b906084359182151580930361045657609a54604051630795929960e11b602082019081526001600160a01b0394851660248084019190915235604483015292841660648083019190915235608482015260a4808201959095529384526104a6935f9384939216919061055960c482611b16565b34610456575f36600319011261045657602060a154604051908152f35b34610456576040366003190112610456576001600160a01b0361167c611911565b165f5260a660205260405f206024355f5260205260405f2060405161012081018181106001600160401b0382111761129d5760405260018060a01b03825416815261129960018301549160208101928352611799600285015494604083019586526003810154906060840191825260018060a01b0360048201541660808501908152600582015460a0860190815260068301549160c08701928352611736600861172860078701611bbc565b9560e08a0196875201611c0f565b968761010082015260018060a01b039051169851995194519060018060a01b03905116915192519351946040519a8b9a8b5260208b015260408a01526060890152608088015260a087015260c086015261012060e0860152610120850190611999565b908382036101008501526119d5565b34610456575f36600319011261045657609c546040516001600160a01b039091168152602090f35b34610456575f36600319011261045657602060a354604051908152f35b346104565760e036600319011261045657611806611911565b61180e611927565b9060a4356001600160401b0381116104565761182e903690600401611969565b929060c435926001600160401b038411610456576104a6946105595f959461071861185e88973690600401611969565b61070660018060a01b03609b541698604051978896602088019a63060d9eeb60e01b8c5260018060a01b03166024890152602435604489015260018060a01b03166064880152606435608488015260843560a488015260e060c4880152610104870191611a93565b34610456575f36600319011261045657609a546040516001600160a01b039091168152602090f35b34610456575f36600319011261045657609f546001600160a01b03168152602090f35b600435906001600160a01b038216820361045657565b604435906001600160a01b038216820361045657565b602435906001600160a01b038216820361045657565b608435906001600160a01b038216820361045657565b9181601f84011215610456578235916001600160401b038311610456576020808501948460051b01011161045657565b90602080835192838152019201905f5b8181106119b65750505090565b82516001600160a01b03168452602093840193909201916001016119a9565b90602080835192838152019201905f5b8181106119f25750505090565b825160ff168452602093840193909201916001016119e5565b6060906003190112610456576004356001600160a01b03811681036104565790602435906044356001600160a01b03811681036104565790565b6004359060ff8216820361045657565b6080906003190112610456576004356001600160a01b03811681036104565790602435906044356001600160a01b0381168103610456579060643590565b916020908281520191905f905b808210611aad5750505090565b90919283359060018060a01b03821680920361045657602081600193829352019401920190611aa0565b916020908281520191905f905b808210611af15750505090565b90919283359060ff821680920361045657602081600193829352019401920190611ae4565b90601f801991011681019081106001600160401b0382111761129d57604052565b3d15611b70573d906001600160401b03821161129d5760405191611b65601f8201601f191660200184611b16565b82523d5f602084013e565b606090565b15611b7d5750565b604460209160405192839162461bcd60e51b83528160048401528051918291826024860152018484015e5f828201840152601f01601f19168101030190fd5b90604051918281549182825260208201905f5260205f20925f5b818110611bed575050611beb92500383611b16565b565b84546001600160a01b0316835260019485019487945060209093019201611bd6565b90604051918281549182825260208201905f5260205f20925f905b80601f83011061201357611beb945491818110611fff575b818110611fe8575b818110611fd1575b818110611fba575b818110611fa4575b818110611f8d575b818110611f76575b818110611f5f575b818110611f48575b818110611f31575b818110611f1a575b818110611f03575b818110611eec575b818110611ed5575b818110611ebe575b818110611ea7575b818110611e90575b818110611e79575b818110611e62575b818110611e4b575b818110611e34575b818110611e1d575b818110611e06575b818110611def575b818110611dd8575b818110611dc1575b818110611daa575b818110611d93575b818110611d7c575b818110611d65575b818110611d4e575b10611d40575b500383611b16565b60f81c81526020015f611d38565b92602060019160ff8560f01c168152019301611d32565b92602060019160ff8560e81c168152019301611d2a565b92602060019160ff8560e01c168152019301611d22565b92602060019160ff8560d81c168152019301611d1a565b92602060019160ff8560d01c168152019301611d12565b92602060019160ff8560c81c168152019301611d0a565b92602060019160ff8560c01c168152019301611d02565b92602060019160ff8560b81c168152019301611cfa565b92602060019160ff8560b01c168152019301611cf2565b92602060019160ff8560a81c168152019301611cea565b92602060019160ff8560a01c168152019301611ce2565b92602060019160ff8560981c168152019301611cda565b92602060019160ff8560901c168152019301611cd2565b92602060019160ff8560881c168152019301611cca565b92602060019160ff8560801c168152019301611cc2565b92602060019160ff8560781c168152019301611cba565b92602060019160ff8560701c168152019301611cb2565b92602060019160ff8560681c168152019301611caa565b92602060019160ff8560601c168152019301611ca2565b92602060019160ff8560581c168152019301611c9a565b92602060019160ff8560501c168152019301611c92565b92602060019160ff8560481c168152019301611c8a565b92602060019160ff8560401c168152019301611c82565b92602060019160ff8560381c168152019301611c7a565b92602060019160ff8560301c168152019301611c72565b92602060019160ff8560281c168152019301611c6a565b92602060019160ff85831c168152019301611c62565b92602060019160ff8560181c168152019301611c5a565b92602060019160ff8560101c168152019301611c52565b92602060019160ff8560081c168152019301611c4a565b92602060019160ff85168152019301611c42565b916020919350610400600191865460ff8116825260ff8160081c168583015260ff8160101c16604083015260ff8160181c16606083015260ff81861c16608083015260ff8160281c1660a083015260ff8160301c1660c083015260ff8160381c1660e083015260ff8160401c1661010083015260ff8160481c1661012083015260ff8160501c1661014083015260ff8160581c1661016083015260ff8160601c1661018083015260ff8160681c166101a083015260ff8160701c166101c083015260ff8160781c166101e083015260ff8160801c1661020083015260ff8160881c1661022083015260ff8160901c1661024083015260ff8160981c1661026083015260ff8160a01c1661028083015260ff8160a81c166102a083015260ff8160b01c166102c083015260ff8160b81c166102e083015260ff8160c01c1661030083015260ff8160c81c1661032083015260ff8160d01c1661034083015260ff8160d81c1661036083015260ff8160e01c1661038083015260ff8160e81c166103a083015260ff8160f01c166103c083015260f81c6103e0820152019401920185929391611c2a565b8181106121c6575050565b5f81556001016121bb565b6033546001600160a01b031633036121e557565b606460405162461bcd60e51b815260206004820152602060248201527f4f776e61626c653a2063616c6c6572206973206e6f7420746865206f776e65726044820152fd5b603380546001600160a01b039283166001600160a01b0319821681179092559091167f8be0079c531659141344cd1fd0a4f28419497f9722a3daafe3b4186f6b6457e05f80a3565b1561227857565b60405162461bcd60e51b815260206004820152602b60248201527f496e697469616c697a61626c653a20636f6e7472616374206973206e6f74206960448201526a6e697469616c697a696e6760a81b6064820152608490fdfea2646970667358221220bfe0dd338acb4a0c9aceb2013c38237fbb692859441cec083e21b66d04dd95f264736f6c634300081c0033","linkReferences":{}},"methodIdentifiers":{"COLDIE_AUCTION()":"c90b8714","NO_AUCTION()":"155a56b1","SCHEDULED_AUCTION()":"b23afc26","acceptOffer(address,uint256,address,uint256,address[],uint8[])":"534665e9","approvedTokenRegistry()":"6240cd1c","auctionBids(address,uint256)":"299a0e1e","auctionLengthExtension()":"daa26499","bid(address,uint256,address,uint256)":"b5678588","buy(address,uint256,address,uint256)":"b3ffb760","cancelAuction(address,uint256)":"859b97fe","cancelOffer(address,uint256,address)":"e92f94d1","configureAuction(bytes32,address,uint256,uint256,address,uint256,uint256,address[],uint8[])":"9041a0ec","convertOfferToAuction(address,uint256,address,uint256,uint256,address[],uint8[])":"060d9eeb","getAuctionDetails(address,uint256)":"0cd87c68","getSalePrice(address,uint256,address)":"369679a4","initialize(address,address,address,address,address,address,address,address,address,address)":"c306b378","marketplaceSettings()":"ba50b632","maxAuctionLength()":"0e519ef9","minimumBidIncreasePercentage()":"6fe9f44c","networkBeneficiary()":"6b534ed0","offer(address,uint256,address,uint256,bool)":"0f2b2532","offerCancelationDelay()":"0a5c4ed5","owner()":"8da5cb5b","payments()":"a6d23e10","removeSalePrice(address,uint256,address)":"f7cfaad0","renounceOwnership()":"715018a6","royaltyEngine()":"4c94c90c","royaltyRegistry()":"a11b0712","setApprovedTokenRegistry(address)":"e4e87e3b","setAuctionLengthExtension(uint256)":"10f79789","setMarketplaceSettings(address)":"176ab440","setMaxAuctionLength(uint8)":"dce96bf5","setMinimumBidIncreasePercentage(uint8)":"48626b90","setNetworkBeneficiary(address)":"3492e5a8","setOfferCancelationDelay(uint256)":"7a544792","setPayments(address)":"af231a58","setRoyaltyEngine(address)":"21ede032","setRoyaltyRegistry(address)":"84a608e2","setSalePrice(address,uint256,address,uint256,address,address[],uint8[])":"c8f94f4e","setSpaceOperatorRegistry(address)":"7f358230","setStakingRegistry(address)":"2c740844","setSuperRareAuctionHouse(address)":"2a2a326c","setSuperRareMarketplace(address)":"9c883af2","settleAuction(address,uint256)":"5138b08c","spaceOperatorRegistry()":"0bcba09d","stakingRegistry()":"009d9aa9","superRareAuctionHouse()":"3bc3d9be","superRareMarketplace()":"0141c590","tokenAuctions(address,uint256)":"c47c35c1","tokenCurrentOffers(address,uint256,address)":"2c419053","tokenSalePrices(address,uint256,address)":"1a2ac30f","transferOwnership(address)":"f2fde38b"},"id":60}