{"abi":[{"type":"constructor","inputs":[{"name":"_bazaar","type":"address","internalType":"address"}],"stateMutability":"nonpayable"},{"type":"function","name":"approveCurrency","inputs":[{"name":"_currencyAddress","type":"address","internalType":"address"},{"name":"_amount","type":"uint256","internalType":"uint256"}],"outputs":[],"stateMutability":"nonpayable"},{"type":"function","name":"bazaar","inputs":[],"outputs":[{"name":"","type":"address","internalType":"contract ISuperRareBazaar"}],"stateMutability":"view"},{"type":"function","name":"buy","inputs":[{"name":"_originContract","type":"address","internalType":"address"},{"name":"_tokenId","type":"uint256","internalType":"uint256"},{"name":"_currencyAddress","type":"address","internalType":"address"},{"name":"_amount","type":"uint256","internalType":"uint256"},{"name":"_recipient","type":"address","internalType":"address"}],"outputs":[],"stateMutability":"nonpayable"},{"type":"function","name":"owner","inputs":[],"outputs":[{"name":"","type":"address","internalType":"address"}],"stateMutability":"view"},{"type":"function","name":"renounceOwnership","inputs":[],"outputs":[],"stateMutability":"nonpayable"},{"type":"function","name":"transferOwnership","inputs":[{"name":"newOwner","type":"address","internalType":"address"}],"outputs":[],"stateMutability":"nonpayable"},{"type":"event","name":"OwnershipTransferred","inputs":[{"name":"previousOwner","type":"address","indexed":true,"internalType":"address"},{"name":"newOwner","type":"address","indexed":true,"internalType":"address"}],"anonymous":false},{"type":"error","name":"BazaarCannotBeZeroAddress","inputs":[]},{"type":"error","name":"CurrencyAddressCannotBeZero","inputs":[]},{"type":"error","name":"RecipientCannotBeZero","inputs":[]}],"bytecode":{"object":"0x60a0346100cf57601f61088e38819003918201601f19168301916001600160401b038311848410176100d4578084926020946040528339810103126100cf57516001600160a01b03808216918290036100cf576000543360018060a01b0319821617600055604051913391167f8be0079c531659141344cd1fd0a4f28419497f9722a3daafe3b4186f6b6457e0600080a381156100c057506080526040516107a390816100eb82396080518181816101ec015281816102f9015261037e0152f35b638095c86360e01b8152600490fd5b600080fd5b634e487b7160e01b600052604160045260246000fdfe6080604081815260048036101561001557600080fd5b600092833560e01c90816333563d1b14610328575080633f70d192146102e457806346b43bce146101b5578063715018a6146101585780638da5cb5b1461012c5763f2fde38b1461006557600080fd5b346101285760203660031901126101285761007e610485565b906100876104a0565b6001600160a01b039182169283156100d65750506000548260018060a01b0319821617600055167f8be0079c531659141344cd1fd0a4f28419497f9722a3daafe3b4186f6b6457e0600080a380f35b906020608492519162461bcd60e51b8352820152602660248201527f4f776e61626c653a206e6577206f776e657220697320746865207a65726f206160448201526564647265737360d01b6064820152fd5b8280fd5b505034610154578160031936011261015457905490516001600160a01b039091168152602090f35b5080fd5b83346101b257806003193601126101b2576101716104a0565b600080546001600160a01b0319811682556001600160a01b03167f8be0079c531659141344cd1fd0a4f28419497f9722a3daafe3b4186f6b6457e08280a380f35b80fd5b5090346101285780600319360112610128576101cf610485565b6101d76104a0565b6001600160a01b039081169283156102d657507f0000000000000000000000000000000000000000000000000000000000000000169181519160208301858063095ea7b360e01b9283815287602488015260243560448801526044875261023d87610522565b86519082875af161024c61064e565b816102a7575b508061029d575b15610262578580f35b6102949461028f925191602083015260248201528560448201526044815261028981610522565b82610556565b610556565b38808080808580f35b50823b1515610259565b80518015925082156102bc575b505038610252565b6102cf925060208091830101910161053e565b38806102b4565b82516346a53b9f60e01b8152fd5b505034610154578160031936011261015457517f00000000000000000000000000000000000000000000000000000000000000006001600160a01b03168152602090f35b84915083346101285760a036600319011261012857610345610485565b93602435926044356001600160a01b038181169182900361048157608435928184168094036104605782156104735750821561046457807f00000000000000000000000000000000000000000000000000000000000000001697883b156104605790608488928388519b8c94859363059ffdbb60e51b85521696878a8501528b6024850152604484015260643560648401525af1801561045657610442575b859650803b1561043e57859283606492865197889586946323b872dd60e01b86523090860152602485015260448401525af190811561043557506104255750f35b61042e906104f8565b6101b25780f35b513d84823e3d90fd5b8580fd5b94909561044e906104f8565b9385906103e4565b84513d88823e3d90fd5b8780fd5b845162e18e7f60e71b81528490fd5b6346a53b9f60e01b81528490fd5b8680fd5b600435906001600160a01b038216820361049b57565b600080fd5b6000546001600160a01b031633036104b457565b606460405162461bcd60e51b815260206004820152602060248201527f4f776e61626c653a2063616c6c6572206973206e6f7420746865206f776e65726044820152fd5b67ffffffffffffffff811161050c57604052565b634e487b7160e01b600052604160045260246000fd5b6080810190811067ffffffffffffffff82111761050c57604052565b9081602091031261049b5751801515810361049b5790565b60408051908101916001600160a01b031667ffffffffffffffff83118284101761050c576105c6926040526000806020958685527f5361666545524332303a206c6f772d6c6576656c2063616c6c206661696c656487860152868151910182855af16105c061064e565b91610699565b805190828215928315610636575b505050156105df5750565b6084906040519062461bcd60e51b82526004820152602a60248201527f5361666545524332303a204552433230206f7065726174696f6e20646964206e6044820152691bdd081cdd58d8d9595960b21b6064820152fd5b610646935082018101910161053e565b3882816105d4565b3d156106945767ffffffffffffffff903d82811161050c5760405192601f8201601f19908116603f011684019081118482101761050c5760405282523d6000602084013e565b606090565b919290156106fb57508151156106ad575090565b3b156106b65790565b60405162461bcd60e51b815260206004820152601d60248201527f416464726573733a2063616c6c20746f206e6f6e2d636f6e74726163740000006044820152606490fd5b82519091501561070e5750805190602001fd5b6040519062461bcd60e51b82528160208060048301528251908160248401526000935b828510610754575050604492506000838284010152601f80199101168101030190fd5b848101820151868601604401529381019385935061073156fea26469706673582212201cf13f8f3bdd19c26a1fc380d704a058882e62aeb6035a140c09eb068397025c64736f6c63430008120033","linkReferences":{}},"methodIdentifiers":{"approveCurrency(address,uint256)":"46b43bce","bazaar()":"3f70d192","buy(address,uint256,address,uint256,address)":"33563d1b","owner()":"8da5cb5b","renounceOwnership()":"715018a6","transferOwnership(address)":"f2fde38b"},"id":47}