{"abi":[{"type":"constructor","inputs":[{"name":"_customer","type":"address","internalType":"address"},{"name":"_operator1","type":"address","internalType":"address"}],"stateMutability":"nonpayable"},{"type":"function","name":"approve","inputs":[{"name":"to","type":"address","internalType":"address"},{"name":"tokenId","type":"uint256","internalType":"uint256"}],"outputs":[],"stateMutability":"nonpayable"},{"type":"function","name":"balanceOf","inputs":[{"name":"owner","type":"address","internalType":"address"}],"outputs":[{"name":"","type":"uint256","internalType":"uint256"}],"stateMutability":"view"},{"type":"function","name":"getApproved","inputs":[{"name":"tokenId","type":"uint256","internalType":"uint256"}],"outputs":[{"name":"","type":"address","internalType":"address"}],"stateMutability":"view"},{"type":"function","name":"isApprovedForAll","inputs":[{"name":"owner","type":"address","internalType":"address"},{"name":"operator","type":"address","internalType":"address"}],"outputs":[{"name":"","type":"bool","internalType":"bool"}],"stateMutability":"view"},{"type":"function","name":"name","inputs":[],"outputs":[{"name":"","type":"string","internalType":"string"}],"stateMutability":"view"},{"type":"function","name":"ownerOf","inputs":[{"name":"tokenId","type":"uint256","internalType":"uint256"}],"outputs":[{"name":"","type":"address","internalType":"address"}],"stateMutability":"view"},{"type":"function","name":"safeTransferFrom","inputs":[{"name":"from","type":"address","internalType":"address"},{"name":"to","type":"address","internalType":"address"},{"name":"tokenId","type":"uint256","internalType":"uint256"}],"outputs":[],"stateMutability":"nonpayable"},{"type":"function","name":"safeTransferFrom","inputs":[{"name":"from","type":"address","internalType":"address"},{"name":"to","type":"address","internalType":"address"},{"name":"tokenId","type":"uint256","internalType":"uint256"},{"name":"data","type":"bytes","internalType":"bytes"}],"outputs":[],"stateMutability":"nonpayable"},{"type":"function","name":"setApprovalForAll","inputs":[{"name":"operator","type":"address","internalType":"address"},{"name":"approved","type":"bool","internalType":"bool"}],"outputs":[],"stateMutability":"nonpayable"},{"type":"function","name":"setGas","inputs":[],"outputs":[],"stateMutability":"nonpayable"},{"type":"function","name":"setTracker","inputs":[],"outputs":[],"stateMutability":"nonpayable"},{"type":"function","name":"supportsInterface","inputs":[{"name":"c","type":"bytes4","internalType":"bytes4"}],"outputs":[{"name":"","type":"bool","internalType":"bool"}],"stateMutability":"view"},{"type":"function","name":"symbol","inputs":[],"outputs":[{"name":"","type":"string","internalType":"string"}],"stateMutability":"view"},{"type":"function","name":"tokenCreator","inputs":[{"name":"","type":"uint256","internalType":"uint256"}],"outputs":[{"name":"","type":"address","internalType":"address"}],"stateMutability":"view"},{"type":"function","name":"tokenURI","inputs":[{"name":"tokenId","type":"uint256","internalType":"uint256"}],"outputs":[{"name":"","type":"string","internalType":"string"}],"stateMutability":"view"},{"type":"function","name":"transferFrom","inputs":[{"name":"from","type":"address","internalType":"address"},{"name":"to","type":"address","internalType":"address"},{"name":"tokenId","type":"uint256","internalType":"uint256"}],"outputs":[],"stateMutability":"nonpayable"},{"type":"event","name":"Approval","inputs":[{"name":"owner","type":"address","indexed":true,"internalType":"address"},{"name":"approved","type":"address","indexed":true,"internalType":"address"},{"name":"tokenId","type":"uint256","indexed":true,"internalType":"uint256"}],"anonymous":false},{"type":"event","name":"ApprovalForAll","inputs":[{"name":"owner","type":"address","indexed":true,"internalType":"address"},{"name":"operator","type":"address","indexed":true,"internalType":"address"},{"name":"approved","type":"bool","indexed":false,"internalType":"bool"}],"anonymous":false},{"type":"event","name":"Transfer","inputs":[{"name":"from","type":"address","indexed":true,"internalType":"address"},{"name":"to","type":"address","indexed":true,"internalType":"address"},{"name":"tokenId","type":"uint256","indexed":true,"internalType":"uint256"}],"anonymous":false}],"bytecode":{"object":"0x608060405234610361576111816040813803918261001c81610365565b9384928339810103126103615761003e60206100378361038a565b920161038a565b906100496040610365565b91600c83526b14dd5c195c91985ad953919560a21b602084015261006d6040610365565b6008815267617965736c69636b60c01b602082015283519092906001600160401b038111610275575f54600181811c91168015610357575b602082101461025757601f81116102f5575b50602094601f8211600114610294579481929394955f92610289575b50508160011b915f199060031b1c1916175f555b82516001600160401b03811161027557600154600181811c9116801561026b575b602082101461025757601f81116101f4575b506020601f821160011461019157819293945f92610186575b50508160011b915f199060031b1c1916176001555b600880546001600160a01b039283166001600160a01b03199182161790915560098054939092169216919091179055604051610de2908161039f8239f35b015190505f80610133565b601f1982169060015f52805f20915f5b8181106101dc575095836001959697106101c4575b505050811b01600155610148565b01515f1960f88460031b161c191690555f80806101b6565b9192602060018192868b0151815501940192016101a1565b60015f527fb10e2d527612073b26eecdfd717e6a320cf44b4afac2b0732d9fcbe2b7fa0cf6601f830160051c8101916020841061024d575b601f0160051c01905b818110610242575061011a565b5f8155600101610235565b909150819061022c565b634e487b7160e01b5f52602260045260245ffd5b90607f1690610108565b634e487b7160e01b5f52604160045260245ffd5b015190505f806100d3565b601f198216955f8052805f20915f5b8881106102dd575083600195969798106102c5575b505050811b015f556100e7565b01515f1960f88460031b161c191690555f80806102b8565b919260206001819286850151815501940192016102a3565b5f80527f290decd9548b62a8d60345a988386fc84ba6bc95484008f6362f93160ef3e563601f830160051c8101916020841061034d575b601f0160051c01905b81811061034257506100b7565b5f8155600101610335565b909150819061032c565b90607f16906100a5565b5f80fd5b6040519190601f01601f191682016001600160401b0381118382101761027557604052565b51906001600160a01b03821682036103615756fe6080806040526004361015610012575f80fd5b5f905f3560e01c90816301ffc9a71461078b5750806306fdde03146106d3578063081812fc146106b5578063095ea7b31461054e57806323b872dd1461052a578063248119141461051457806340c1a064146104eb57806342842e0e146104db578063613fadca146104bc5780636352211e1461048f57806370a08231146103fa57806395d89b41146102f2578063a22cb46514610224578063b88d4fde1461015b578063c87b56dd146100ff5763e985e9c5146100ce575f80fd5b346100fc5760403660031901126100fc576100e76107e6565b506100f06107fc565b50602060405160018152f35b80fd5b346101575760203660031901126101575761011b6004356109ca565b5f60405161012a60208261084c565b5261015360405161013c60208261084c565b5f81526040519182916020835260208301906107c2565b0390f35b5f80fd5b34610157576080366003190112610157576101746107e6565b61017c6107fc565b906044356064359267ffffffffffffffff84116101575736602385011215610157578360040135926101ad84610882565b936101bb604051958661084c565b8085523660248288010111610157576020815f926024610200990183890137860101526101f06101eb8433610a10565b6108f8565b6101fb838383610ac0565b610c8a565b1561020757005b60405162461bcd60e51b81528061022060048201610c37565b0390fd5b346101575760403660031901126101575761023d6107e6565b60243590811515809203610157576001600160a01b0316903382146102ad57335f52600560205260405f20825f5260205260405f2060ff1981541660ff83161790556040519081527f17307eab39ab6107e8899845ad3d59bd9653f200f220920489ca2b5937696c3160203392a3005b60405162461bcd60e51b815260206004820152601960248201527f4552433732313a20617070726f766520746f2063616c6c6572000000000000006044820152606490fd5b34610157575f366003190112610157576040515f6001548060011c906001811680156103f0575b6020831081146103dc578285529081156103b8575060011461035a575b610153836103468185038261084c565b6040519182916020835260208301906107c2565b91905060015f527fb10e2d527612073b26eecdfd717e6a320cf44b4afac2b0732d9fcbe2b7fa0cf6915f905b80821061039e57509091508101602001610346610336565b919260018160209254838588010152019101909291610386565b60ff191660208086019190915291151560051b840190910191506103469050610336565b634e487b7160e01b5f52602260045260245ffd5b91607f1691610319565b34610157576020366003190112610157576001600160a01b0361041b6107e6565b168015610438575f526003602052602060405f2054604051908152f35b60405162461bcd60e51b815260206004820152602960248201527f4552433732313a2061646472657373207a65726f206973206e6f7420612076616044820152683634b21037bbb732b960b91b6064820152608490fd5b346101575760203660031901126101575760206104aa61095a565b6040516001600160a01b039091168152f35b34610157575f366003190112610157576006805460ff19166001179055005b34610157576104e936610812565b005b34610157576020366003190112610157576008546040516001600160a01b039091168152602090f35b34610157575f366003190112610157575a600755005b34610157576104e961053b36610812565b916105496101eb8433610a10565b610ac0565b34610157576040366003190112610157576105676107e6565b602435906001600160a01b0361057c836109ee565b6001600160a01b039092169116818114610666573314801561065e575b156105f3575f82815260046020526040902080546001600160a01b031916821790556001600160a01b036105cc836109ee565b167f8c5be1e5ebec7d5bd14f71427d1e84f3dd0314c0f7b2291e5b200ac8c7c3b9255f80a4005b60405162461bcd60e51b815260206004820152603d60248201527f4552433732313a20617070726f76652063616c6c6572206973206e6f7420746f60448201527f6b656e206f776e6572206f7220617070726f76656420666f7220616c6c0000006064820152608490fd5b506001610599565b60405162461bcd60e51b815260206004820152602160248201527f4552433732313a20617070726f76616c20746f2063757272656e74206f776e656044820152603960f91b6064820152608490fd5b346101575760203660031901126101575760206104aa6004356108d5565b34610157575f366003190112610157576040515f5f548060011c90600181168015610781575b6020831081146103dc578285529081156103b8575060011461072557610153836103468185038261084c565b5f8080527f290decd9548b62a8d60345a988386fc84ba6bc95484008f6362f93160ef3e563939250905b80821061076757509091508101602001610346610336565b91926001816020925483858801015201910190929161074f565b91607f16916106f9565b3461015757602036600319011261015757600435906001600160e01b031982168203610157576107bc60209261089e565b15158152f35b805180835260209291819084018484015e5f828201840152601f01601f1916010190565b600435906001600160a01b038216820361015757565b602435906001600160a01b038216820361015757565b6060906003190112610157576004356001600160a01b038116810361015757906024356001600160a01b0381168103610157579060443590565b90601f8019910116810190811067ffffffffffffffff82111761086e57604052565b634e487b7160e01b5f52604160045260245ffd5b67ffffffffffffffff811161086e57601f01601f191660200190565b5f91906001600160e01b0319166301ffc9a760e01b81146108ce57631030681960e21b146108c857565b60019150565b5060019150565b6108de816109ca565b5f908152600460205260409020546001600160a01b031690565b156108ff57565b60405162461bcd60e51b815260206004820152602d60248201527f4552433732313a2063616c6c6572206973206e6f7420746f6b656e206f776e6560448201526c1c881bdc88185c1c1c9bdd9959609a1b6064820152608490fd5b60ff60065416610973576008546001600160a01b031690565b61097b610bee565b90565b1561098557565b60405162461bcd60e51b815260206004820152601860248201527f4552433732313a20696e76616c696420746f6b656e20494400000000000000006044820152606490fd5b5f908152600260205260409020546109ec906001600160a01b0316151561097e565b565b5f908152600260205260409020546001600160a01b031661097b81151561097e565b6001600160a01b03610a21836109ee565b6001600160a01b0390921691168114918215610a5d575b8215610a4357505090565b9091506001600160a01b0390610a58906108d5565b161490565b60019250610a38565b15610a6d57565b60405162461bcd60e51b815260206004820152602560248201527f4552433732313a207472616e736665722066726f6d20696e636f72726563742060448201526437bbb732b960d91b6064820152608490fd5b90610ae1610acd846109ee565b6001600160a01b0393841693168314610a66565b6001600160a01b0316908115610b9d57610b0d816001600160a01b03610b06866109ee565b1614610a66565b825f52600460205260405f206bffffffffffffffffffffffff60a01b8154169055805f52600360205260405f205f198154019055815f52600360205260405f2060018154019055825f52600260205260405f20826bffffffffffffffffffffffff60a01b8254161790557fddf252ad1be2c89b69c2b068fc378daa952ba7f163c4a11628f55a4df523b3ef5f80a4565b60405162461bcd60e51b8152602060048201526024808201527f4552433732313a207472616e7366657220746f20746865207a65726f206164646044820152637265737360e01b6064820152608490fd5b6007545a8103908111610c235762fc6d181115610c14576008546001600160a01b031690565b6009546001600160a01b031690565b634e487b7160e01b5f52601160045260245ffd5b60809060208152603260208201527f4552433732313a207472616e7366657220746f206e6f6e20455243373231526560408201527131b2b4bb32b91034b6b83632b6b2b73a32b960711b60608201520190565b919290803b15610da357610cd9935f60209460405196879586948593630a85bd0160e11b855233600486015260018060a01b0316602485015260448401526080606484015260848301906107c2565b03926001600160a01b03165af15f9181610d5e575b50610d48573d15610d41573d610d0381610882565b90610d11604051928361084c565b81523d5f602083013e5b80519081610d3c5760405162461bcd60e51b81528061022060048201610c37565b602001fd5b6060610d1b565b6001600160e01b031916630a85bd0160e11b1490565b9091506020813d602011610d9b575b81610d7a6020938361084c565b8101031261015757516001600160e01b03198116810361015757905f610cee565b3d9150610d6d565b5050505060019056fea2646970667358221220963308284acbc3116449ae83c73237d301d3475bf8117d782761af485cdc936064736f6c634300081c0033","linkReferences":{}},"methodIdentifiers":{"approve(address,uint256)":"095ea7b3","balanceOf(address)":"70a08231","getApproved(uint256)":"081812fc","isApprovedForAll(address,address)":"e985e9c5","name()":"06fdde03","ownerOf(uint256)":"6352211e","safeTransferFrom(address,address,uint256)":"42842e0e","safeTransferFrom(address,address,uint256,bytes)":"b88d4fde","setApprovalForAll(address,bool)":"a22cb465","setGas()":"24811914","setTracker()":"613fadca","supportsInterface(bytes4)":"01ffc9a7","symbol()":"95d89b41","tokenCreator(uint256)":"40c1a064","tokenURI(uint256)":"c87b56dd","transferFrom(address,address,uint256)":"23b872dd"},"id":69}