{"abi":[{"type":"receive","stateMutability":"payable"},{"type":"function","name":"COLDIE_AUCTION","inputs":[],"outputs":[{"name":"","type":"bytes32","internalType":"bytes32"}],"stateMutability":"view"},{"type":"function","name":"NO_AUCTION","inputs":[],"outputs":[{"name":"","type":"bytes32","internalType":"bytes32"}],"stateMutability":"view"},{"type":"function","name":"SCHEDULED_AUCTION","inputs":[],"outputs":[{"name":"","type":"bytes32","internalType":"bytes32"}],"stateMutability":"view"},{"type":"function","name":"auctionBids","inputs":[{"name":"","type":"address","internalType":"address"},{"name":"","type":"uint256","internalType":"uint256"}],"outputs":[{"name":"bidder","type":"address","internalType":"address"},{"name":"currencyAddress","type":"address","internalType":"address"},{"name":"amount","type":"uint256","internalType":"uint256"},{"name":"marketplaceFeeAtTime","type":"uint256","internalType":"uint256"}],"stateMutability":"view"},{"type":"function","name":"auctionLengthExtension","inputs":[],"outputs":[{"name":"","type":"uint256","internalType":"uint256"}],"stateMutability":"view"},{"type":"function","name":"bid","inputs":[{"name":"_originContract","type":"address","internalType":"address"},{"name":"_tokenId","type":"uint256","internalType":"uint256"},{"name":"_currencyAddress","type":"address","internalType":"address"},{"name":"_amount","type":"uint256","internalType":"uint256"}],"outputs":[],"stateMutability":"payable"},{"type":"function","name":"bidWithAuctionMerkleProof","inputs":[{"name":"originContract","type":"address","internalType":"address"},{"name":"tokenId","type":"uint256","internalType":"uint256"},{"name":"creator","type":"address","internalType":"address"},{"name":"merkleRoot","type":"bytes32","internalType":"bytes32"},{"name":"bidAmount","type":"uint256","internalType":"uint256"},{"name":"proof","type":"bytes32[]","internalType":"bytes32[]"}],"outputs":[],"stateMutability":"payable"},{"type":"function","name":"cancelAuction","inputs":[{"name":"_originContract","type":"address","internalType":"address"},{"name":"_tokenId","type":"uint256","internalType":"uint256"}],"outputs":[],"stateMutability":"nonpayable"},{"type":"function","name":"cancelAuctionMerkleRoot","inputs":[{"name":"root","type":"bytes32","internalType":"bytes32"}],"outputs":[],"stateMutability":"nonpayable"},{"type":"function","name":"configureAuction","inputs":[{"name":"_auctionType","type":"bytes32","internalType":"bytes32"},{"name":"_originContract","type":"address","internalType":"address"},{"name":"_tokenId","type":"uint256","internalType":"uint256"},{"name":"_startingAmount","type":"uint256","internalType":"uint256"},{"name":"_currencyAddress","type":"address","internalType":"address"},{"name":"_lengthOfAuction","type":"uint256","internalType":"uint256"},{"name":"_startTime","type":"uint256","internalType":"uint256"},{"name":"_splitAddresses","type":"address[]","internalType":"address payable[]"},{"name":"_splitRatios","type":"uint8[]","internalType":"uint8[]"}],"outputs":[],"stateMutability":"nonpayable"},{"type":"function","name":"creatorRootToConfig","inputs":[{"name":"","type":"address","internalType":"address"},{"name":"","type":"bytes32","internalType":"bytes32"}],"outputs":[{"name":"currency","type":"address","internalType":"address"},{"name":"startingAmount","type":"uint256","internalType":"uint256"},{"name":"duration","type":"uint256","internalType":"uint256"},{"name":"nonce","type":"uint256","internalType":"uint256"}],"stateMutability":"view"},{"type":"function","name":"getAuctionDetails","inputs":[{"name":"_originContract","type":"address","internalType":"address"},{"name":"_tokenId","type":"uint256","internalType":"uint256"}],"outputs":[{"name":"","type":"address","internalType":"address"},{"name":"","type":"uint256","internalType":"uint256"},{"name":"","type":"uint256","internalType":"uint256"},{"name":"","type":"uint256","internalType":"uint256"},{"name":"","type":"address","internalType":"address"},{"name":"","type":"uint256","internalType":"uint256"},{"name":"","type":"bytes32","internalType":"bytes32"},{"name":"","type":"address[]","internalType":"address payable[]"},{"name":"","type":"uint8[]","internalType":"uint8[]"}],"stateMutability":"view"},{"type":"function","name":"getCreatorAuctionMerkleRootNonce","inputs":[{"name":"user","type":"address","internalType":"address"},{"name":"root","type":"bytes32","internalType":"bytes32"}],"outputs":[{"name":"","type":"uint256","internalType":"uint256"}],"stateMutability":"view"},{"type":"function","name":"getMerkleAuctionConfig","inputs":[{"name":"creator","type":"address","internalType":"address"},{"name":"root","type":"bytes32","internalType":"bytes32"}],"outputs":[{"name":"","type":"tuple","internalType":"struct ISuperRareAuctionHouseV2.MerkleAuctionConfig","components":[{"name":"currency","type":"address","internalType":"address"},{"name":"startingAmount","type":"uint256","internalType":"uint256"},{"name":"duration","type":"uint256","internalType":"uint256"},{"name":"splitAddresses","type":"address[]","internalType":"address payable[]"},{"name":"splitRatios","type":"uint8[]","internalType":"uint8[]"},{"name":"nonce","type":"uint256","internalType":"uint256"}]}],"stateMutability":"view"},{"type":"function","name":"getTokenAuctionNonce","inputs":[{"name":"creator","type":"address","internalType":"address"},{"name":"root","type":"bytes32","internalType":"bytes32"},{"name":"tokenContract","type":"address","internalType":"address"},{"name":"tokenId","type":"uint256","internalType":"uint256"}],"outputs":[{"name":"","type":"uint256","internalType":"uint256"}],"stateMutability":"view"},{"type":"function","name":"getUserAuctionMerkleRoots","inputs":[{"name":"user","type":"address","internalType":"address"}],"outputs":[{"name":"","type":"bytes32[]","internalType":"bytes32[]"}],"stateMutability":"view"},{"type":"function","name":"initialize","inputs":[{"name":"_marketplaceSettings","type":"address","internalType":"address"},{"name":"_royaltyEngine","type":"address","internalType":"address"},{"name":"_spaceOperatorRegistry","type":"address","internalType":"address"},{"name":"_approvedTokenRegistry","type":"address","internalType":"address"},{"name":"_payments","type":"address","internalType":"address"},{"name":"_stakingRegistry","type":"address","internalType":"address"},{"name":"_stakingSettings","type":"address","internalType":"address"},{"name":"_networkBeneficiary","type":"address","internalType":"address"},{"name":"_erc20ApprovalManager","type":"address","internalType":"address"},{"name":"_erc721ApprovalManager","type":"address","internalType":"address"}],"outputs":[],"stateMutability":"nonpayable"},{"type":"function","name":"isTokenInRoot","inputs":[{"name":"root","type":"bytes32","internalType":"bytes32"},{"name":"origin","type":"address","internalType":"address"},{"name":"tokenId","type":"uint256","internalType":"uint256"},{"name":"proof","type":"bytes32[]","internalType":"bytes32[]"}],"outputs":[{"name":"","type":"bool","internalType":"bool"}],"stateMutability":"pure"},{"type":"function","name":"maxAuctionLength","inputs":[],"outputs":[{"name":"","type":"uint256","internalType":"uint256"}],"stateMutability":"view"},{"type":"function","name":"minimumBidIncreasePercentage","inputs":[],"outputs":[{"name":"","type":"uint256","internalType":"uint256"}],"stateMutability":"view"},{"type":"function","name":"owner","inputs":[],"outputs":[{"name":"","type":"address","internalType":"address"}],"stateMutability":"view"},{"type":"function","name":"registerAuctionMerkleRoot","inputs":[{"name":"merkleRoot","type":"bytes32","internalType":"bytes32"},{"name":"currency","type":"address","internalType":"address"},{"name":"startingAmount","type":"uint256","internalType":"uint256"},{"name":"duration","type":"uint256","internalType":"uint256"},{"name":"splitAddresses","type":"address[]","internalType":"address payable[]"},{"name":"splitRatios","type":"uint8[]","internalType":"uint8[]"}],"outputs":[],"stateMutability":"nonpayable"},{"type":"function","name":"renounceOwnership","inputs":[],"outputs":[],"stateMutability":"nonpayable"},{"type":"function","name":"setAuctionLengthExtension","inputs":[{"name":"_auctionLengthExtension","type":"uint256","internalType":"uint256"}],"outputs":[],"stateMutability":"nonpayable"},{"type":"function","name":"setMaxAuctionLength","inputs":[{"name":"_maxAuctionLength","type":"uint256","internalType":"uint256"}],"outputs":[],"stateMutability":"nonpayable"},{"type":"function","name":"setMinimumBidIncreasePercentage","inputs":[{"name":"_minimumBidIncreasePercentage","type":"uint8","internalType":"uint8"}],"outputs":[],"stateMutability":"nonpayable"},{"type":"function","name":"settleAuction","inputs":[{"name":"_originContract","type":"address","internalType":"address"},{"name":"_tokenId","type":"uint256","internalType":"uint256"}],"outputs":[],"stateMutability":"nonpayable"},{"type":"function","name":"tokenAuctions","inputs":[{"name":"","type":"address","internalType":"address"},{"name":"","type":"uint256","internalType":"uint256"}],"outputs":[{"name":"auctionCreator","type":"address","internalType":"address payable"},{"name":"creationBlock","type":"uint256","internalType":"uint256"},{"name":"startingTime","type":"uint256","internalType":"uint256"},{"name":"lengthOfAuction","type":"uint256","internalType":"uint256"},{"name":"currencyAddress","type":"address","internalType":"address"},{"name":"minimumBid","type":"uint256","internalType":"uint256"},{"name":"auctionType","type":"bytes32","internalType":"bytes32"}],"stateMutability":"view"},{"type":"function","name":"transferOwnership","inputs":[{"name":"newOwner","type":"address","internalType":"address"}],"outputs":[],"stateMutability":"nonpayable"},{"type":"event","name":"AuctionBid","inputs":[{"name":"_contractAddress","type":"address","indexed":true,"internalType":"address"},{"name":"_bidder","type":"address","indexed":true,"internalType":"address"},{"name":"_tokenId","type":"uint256","indexed":true,"internalType":"uint256"},{"name":"_currencyAddress","type":"address","indexed":false,"internalType":"address"},{"name":"_amount","type":"uint256","indexed":false,"internalType":"uint256"},{"name":"_firstBid","type":"bool","indexed":false,"internalType":"bool"},{"name":"_marketplaceFee","type":"uint256","indexed":false,"internalType":"uint256"},{"name":"_previousBidder","type":"address","indexed":false,"internalType":"address"}],"anonymous":false},{"type":"event","name":"AuctionMerkleBid","inputs":[{"name":"contractAddress","type":"address","indexed":true,"internalType":"address"},{"name":"tokenId","type":"uint256","indexed":true,"internalType":"uint256"},{"name":"bidder","type":"address","indexed":true,"internalType":"address"},{"name":"creator","type":"address","indexed":false,"internalType":"address"},{"name":"merkleRoot","type":"bytes32","indexed":false,"internalType":"bytes32"},{"name":"amount","type":"uint256","indexed":false,"internalType":"uint256"},{"name":"nonce","type":"uint256","indexed":false,"internalType":"uint256"}],"anonymous":false},{"type":"event","name":"AuctionMerkleRootCancelled","inputs":[{"name":"creator","type":"address","indexed":true,"internalType":"address"},{"name":"merkleRoot","type":"bytes32","indexed":true,"internalType":"bytes32"}],"anonymous":false},{"type":"event","name":"AuctionMerkleRootRegistered","inputs":[{"name":"creator","type":"address","indexed":true,"internalType":"address"},{"name":"merkleRoot","type":"bytes32","indexed":true,"internalType":"bytes32"},{"name":"currencyAddress","type":"address","indexed":false,"internalType":"address"},{"name":"startingAmount","type":"uint256","indexed":false,"internalType":"uint256"},{"name":"duration","type":"uint256","indexed":false,"internalType":"uint256"},{"name":"nonce","type":"uint256","indexed":false,"internalType":"uint256"}],"anonymous":false},{"type":"event","name":"AuctionSettled","inputs":[{"name":"_contractAddress","type":"address","indexed":true,"internalType":"address"},{"name":"_tokenId","type":"uint256","indexed":true,"internalType":"uint256"},{"name":"_seller","type":"address","indexed":false,"internalType":"address"},{"name":"_bidder","type":"address","indexed":false,"internalType":"address"},{"name":"_amount","type":"uint256","indexed":false,"internalType":"uint256"},{"name":"_marketplaceFee","type":"uint256","indexed":false,"internalType":"uint256"}],"anonymous":false},{"type":"event","name":"CancelAuction","inputs":[{"name":"_contractAddress","type":"address","indexed":true,"internalType":"address"},{"name":"_tokenId","type":"uint256","indexed":true,"internalType":"uint256"},{"name":"_auctionCreator","type":"address","indexed":false,"internalType":"address"}],"anonymous":false},{"type":"event","name":"Initialized","inputs":[{"name":"version","type":"uint8","indexed":false,"internalType":"uint8"}],"anonymous":false},{"type":"event","name":"NewAuction","inputs":[{"name":"_contractAddress","type":"address","indexed":true,"internalType":"address"},{"name":"_tokenId","type":"uint256","indexed":true,"internalType":"uint256"},{"name":"_auctionCreator","type":"address","indexed":false,"internalType":"address"},{"name":"_currencyAddress","type":"address","indexed":false,"internalType":"address"},{"name":"_startTime","type":"uint256","indexed":false,"internalType":"uint256"},{"name":"_startingAmount","type":"uint256","indexed":false,"internalType":"uint256"},{"name":"_lengthOfAuction","type":"uint256","indexed":false,"internalType":"uint256"}],"anonymous":false},{"type":"event","name":"OwnershipTransferred","inputs":[{"name":"previousOwner","type":"address","indexed":true,"internalType":"address"},{"name":"newOwner","type":"address","indexed":true,"internalType":"address"}],"anonymous":false}],"bytecode":{"object":"0x6080806040523461001757615f8a90816200001d8239f35b600080fdfe608080604052600436101561006a575b50361561001b57600080fd5b60405162461bcd60e51b815260206004820152602160248201527f455448207061796d656e74206e6f74206163636570746564206469726563746c6044820152607960f81b6064820152608490fd5b600090813560e01c9081630cd87c68146147e1575080630e519ef9146147c357806310f79789146147a0578063155a56b114614784578063299a0e1e1461471857806348626b90146146ea5780634ebade5f1461463c5780635060eadf14613ba25780635138b08c1461307b5780635e51b2d414612fe65780636fe9f44c14612fc8578063715018a614612f6a57806376ffb5a714612dfd578063859b97fe14612a4b5780638da5cb5b14612a225780639041a0ec14611da9578063ac964f8e14611c93578063affdafd814611c70578063b23afc2614611c47578063b5678588146113ae578063bb120e661461133a578063c306b37814610a03578063c47c35c114610975578063c90b87141461094c578063d97f7657146108be578063daa26499146108a0578063e29ac8901461085d578063f2fde38b146107cc5763f8aa56ee0361000f57346107c95760c03660031901126107c9576101cb614956565b608480356001600160401b0381116107c5576101eb9036906004016149bf565b9160a4356001600160401b0381116107c15761020b9036906004016149bf565b9091610216866156d4565b841561076f5760058511610721578185036106ca576000805b83821061069e57606491500361064c5760a454606435116105f557609854604051637cd11f4360e11b815290602090829060049082906001600160a01b03165afa9081156105ea5788916105b3575b506044351161054b575033865260a660205261029f60043560408820615487565b5033865260a86020526040862060043587526020526040862054936001850185116105375733875260a8602052604087206004358852602052600185016040882055610329604051936102f185614aac565b60018060a01b038816855261031a602086019660443588526040870194606435865236916151b4565b93606086019485523691615212565b60808401526001850160a084015233875260a7602052604087206004358852602052604087209360018060a01b038451166001600160601b0360a01b865416178555516001850155516002840155518051906001600160401b038211610523576020600385019161039a84846152ce565b0190875260208720875b83811061050657505050506004820160808201518051906001600160401b0382116104f2576020906103d6838561532c565b019187526020872090875b8160051c81106104b35750601f198116810380610460575b5050505060a0015160059190910155604080516001600160a01b0393909316835260443560208401526064359083015260010160608201526004359033907f0f068b6b9bec01608fb1954057289ba057441305f4c64a0fc92bc9fc9a59ff3690608090a380f35b928893895b81811061048357505050916005939160a093851c01559138806103f9565b90919460206104a96001928460ff8a5116919060ff809160031b9316831b921b19161790565b9601929101610465565b88895b602081106104cb5750838201556001016103e1565b855190959160019160209160ff60038a901b81811b199092169216901b17920195016104b6565b634e487b7160e01b88526041600452602488fd5b82516001600160a01b0316818301556020909201916001016103a4565b634e487b7160e01b87526041600452602487fd5b634e487b7160e01b87526011600452602487fd5b60405162461bcd60e51b815260206004820152604060248201527f726567697374657241756374696f6e4d65726b6c65526f6f743a3a537461727460448201527f696e6720616d6f756e742065786365656473206d6178696d756d2076616c75656064820152fd5b90506020813d6020116105e2575b816105ce60209383614b2b565b810103126105dd57513861027e565b600080fd5b3d91506105c1565b6040513d8a823e3d90fd5b60405162461bcd60e51b815260206004820152602c60248201527f726567697374657241756374696f6e4d65726b6c65526f6f743a3a447572617460448201526b696f6e20746f6f206c6f6e6760a01b6064820152fd5b60405162461bcd60e51b815260206004820152602760248201527f636865636b53706c6974733a3a546f74616c206d75737420626520657175616c604482015266020746f203130360cc1b6064820152fd5b8160051b8501359060ff82168092036105dd576106c4916106be916153d0565b9161567c565b9061022f565b60405162461bcd60e51b815260206004820152602c60248201527f636865636b53706c6974733a3a53706c69747320616e6420726174696f73206d60448201526b1d5cdd08189948195c5d585b60a21b6064820152fd5b60405162461bcd60e51b8152602060048201526024808201527f636865636b53706c6974733a3a53706c6974206578636565646564206d61782060448201526373697a6560e01b6064820152fd5b60405162461bcd60e51b815260206004820152602760248201527f636865636b53706c6974733a3a4d7573742068617665206174206c65617374206044820152660c481cdc1b1a5d60ca1b6064820152fd5b8580fd5b8380fd5b80fd5b50346107c95760203660031901126107c9576107e661492a565b6107ee6149ef565b6001600160a01b038116156108095761080690614a47565b80f35b60405162461bcd60e51b815260206004820152602660248201527f4f776e61626c653a206e6577206f776e657220697320746865207a65726f206160448201526564647265737360d01b6064820152608490fd5b50346107c95760403660031901126107c9576020906040906001600160a01b0361088561492a565b16815260a88352818120602435825283522054604051908152f35b50346107c957806003193601126107c957602060a554604051908152f35b50346107c95760803660031901126107c95760406020916108dd61492a565b61092b6109396108eb614940565b9285519283918883019560643591602435908892606894926001600160601b0319809360601b168552601485015260601b16603483015260488201520190565b03601f198101835282614b2b565b519020815260a983522054604051908152f35b50346107c957806003193601126107c9576020604051600080516020615f358339815191528152f35b50346107c95760403660031901126107c95760e0906001600160a01b03906040908261099f61492a565b16815260a1602052818120602435825260205220908082541691600181015491600282015490600383015490600484015416916006600585015494015494604051968752602087015260408601526060850152608084015260a083015260c0820152f35b50346107c9576101403660031901126107c957610a1e61492a565b610a26614956565b610a2e614940565b606435916001600160a01b03831683036105dd57610a4a61496c565b9260a435906001600160a01b03821682036105dd5760c435906001600160a01b03821682036105dd5760e435956001600160a01b03871687036105dd5761010435946001600160a01b03861686036105dd5761012435966001600160a01b03881688036105dd578a549960ff8b60081c16159a8b809c61132d575b8015611316575b156112ba5760ff1981166001178d558b6112a9575b506001600160a01b03811615611248576001600160a01b038316156111ed576001600160a01b0382161561118a576001600160a01b03851615611127576001600160a01b038416156110d1576001600160a01b03871615611074576001600160a01b03861615611017576001600160a01b038a1615610fb7576001600160a01b03881615610f55576001600160a01b03891615610ef25760405163ef8c824960e01b81526001600160a01b039a8b166004820152908a16602482015290891660448201529088166064820152908716608482015290861660a482015290851660c482015290841660e48201529083166101048201529116610124820152610140816101448173__$c98ca6a62396e5a7a1471db151198a1f31$__5af4908115610ee7578391610d80575b5060018060a01b03815116906001600160601b0360a01b9182609754161760975560018060a01b0360208201511682609854161760985560018060a01b0360408201511682609954161760995560018060a01b0360608201511682609a541617609a5560018060a01b0360808201511682609b541617609b5560018060a01b0360a08201511682609c541617609c5560018060a01b0360c08201511682609d541617609d5560018060a01b0360e08201511682609e541617609e5560018060a01b036101008201511682609f541617609f5561012060018060a01b03910151169060a054161760a055600160a35562093a8060a45561038460a555610d1f60ff835460081c16610d1a81614b60565b614b60565b610d2833614a47565b815490610d3e60ff8360081c16610d1a81614b60565b6001606555610d4b575080f35b61ff00191681557f7f26b83ff96e1f2b6a682f133852f6798a09c465da95921460cefb3847402498602060405160018152a180f35b9050610140813d61014011610edf575b81610d9e6101409383614b2b565b81010312610edb576040519061014082018281106001600160401b03821117610ec557604052610dcd81614b4c565b825260208101516001600160a01b0381168103610ec157602083015260408101516001600160a01b0381168103610ec157604083015260608101516001600160a01b0381168103610ec157606083015260808101516001600160a01b0381168103610ec157608083015260a08101516001600160a01b0381168103610ec15760a083015260c08101516001600160a01b0381168103610ec15760c083015260e08101516001600160a01b0381168103610ec15760e083015261010081810151906001600160a01b03821682036107c15783015261012090810151906001600160a01b0382168203610ec15782015238610c0b565b8480fd5b634e487b7160e01b600052604160045260246000fd5b8280fd5b3d9150610d90565b6040513d85823e3d90fd5b60405162461bcd60e51b815260206004820152603560248201527f696e697469616c697a653a3a657263373231417070726f76616c4d616e616765604482015274722063616e6e6f742062652030206164647265737360581b6064820152608490fd5b60405162461bcd60e51b815260206004820152603460248201527f696e697469616c697a653a3a6572633230417070726f76616c4d616e616765726044820152732063616e6e6f742062652030206164647265737360601b6064820152608490fd5b60405162461bcd60e51b815260206004820152603260248201527f696e697469616c697a653a3a6e6574776f726b42656e65666963696172792063604482015271616e6e6f742062652030206164647265737360701b6064820152608490fd5b60405162461bcd60e51b815260206004820152602f60248201527f696e697469616c697a653a3a7374616b696e6753657474696e67732063616e6e60448201526e6f742062652030206164647265737360881b6064820152608490fd5b60405162461bcd60e51b815260206004820152602f60248201527f696e697469616c697a653a3a7374616b696e6752656769737472792063616e6e60448201526e6f742062652030206164647265737360881b6064820152608490fd5b60405162461bcd60e51b815260206004820152602860248201527f696e697469616c697a653a3a7061796d656e74732063616e6e6f742062652030604482015267206164647265737360c01b6064820152608490fd5b60405162461bcd60e51b815260206004820152603560248201527f696e697469616c697a653a3a617070726f766564546f6b656e52656769737472604482015274792063616e6e6f742062652030206164647265737360581b6064820152608490fd5b60405162461bcd60e51b815260206004820152603560248201527f696e697469616c697a653a3a73706163654f70657261746f7252656769737472604482015274792063616e6e6f742062652030206164647265737360581b6064820152608490fd5b60405162461bcd60e51b815260206004820152602d60248201527f696e697469616c697a653a3a726f79616c7479456e67696e652063616e6e6f7460448201526c2062652030206164647265737360981b6064820152608490fd5b60405162461bcd60e51b815260206004820152603360248201527f696e697469616c697a653a3a6d61726b6574706c61636553657474696e67732060448201527263616e6e6f742062652030206164647265737360681b6064820152608490fd5b61ffff1916610101178c5538610ae1565b60405162461bcd60e51b815260206004820152602e60248201527f496e697469616c697a61626c653a20636f6e747261637420697320616c72656160448201526d191e481a5b9a5d1a585b1a5e995960921b6064820152608490fd5b50303b158015610acc5750600160ff821614610acc565b50600160ff821610610ac5565b50346107c95760403660031901126107c9576001600160a01b03906040908261136161492a565b16815260a760209081528282206024358352815291902080546001820154600283015460059093015460408051969093166001600160a01b03168652938501528301526060820152608090f35b5060803660031901126107c9576113c361492a565b6113cb614940565b906113d4615403565b6098546040516361fe24a960e11b815260643560048201526001600160a01b0390911690602081602481855afa801561175c578590611c13575b61141b91506064356153d0565b6114258185615794565b60018060a01b038316855260a160205260408520602435865260205260408520916114bb60086040519461145886614a90565b80546001600160a01b0390811687526001820154602088015260028201546040880152600382015460608801526004820154166080870152600581015460a0870152600681015460c08701526114b060078201614bc0565b60e087015201614c1a565b61010084015260c083015115611bcf5782516001600160a01b03163314611b7e5760408301514210611b3957604083015180611ae0575b5060808301516001600160a01b0390811690861603611a855760a083015160643510611a4057606435156119ec57602060049160405192838092637cd11f4360e11b82525afa9081156117865786916119ba575b50606435116119755760018060a01b038316855260a260205260408520602435865260205260408520916040519161157d83614ac7565b83546001600160a01b0390811680855260018601549091166020850152600285015460408501819052600390950154606085015293846118f0575b506115c39086615894565b604081015180611887575b5082158061186c575b6117bc575b508180611791575b5050609854604051638347592160e01b80825291602090829060049082906001600160a01b03165afa908115611786578691611767575b5060036040519161162b83614ac7565b3383526001600160a01b038781166020808601918252606435604080880191825260ff95909516606088019081528a85168d5260a28352858d206024358e528352858d20975188549086166001600160a01b03199182161789559351600189018054918716919095161790935551600287015590519390940192909255609854905193845283916004918391165afa801561175c5760ff91869161172d575b506040519460018060a01b031685526064356020860152821560408601521660608401526080830152602435917f189a468e632a450afd491f84aa9ae94addc6813c7e309a7b1b1223f88802a77d60a03393600180831b031692a4600160655580f35b61174f915060203d602011611755575b6117478183614b2b565b8101906153ea565b386116ca565b503d61173d565b6040513d87823e3d90fd5b611780915060203d602011611755576117478183614b2b565b3861161b565b6040513d88823e3d90fd5b602082015160408301516060909301516117b59390916001600160a01b0316615b8e565b38816115e4565b6040516331a9108f60e11b81526024803560048301529091906020908390816001600160a01b0389165afa918215611861578792611821575b50516001600160a01b0390811691168190036115dc5761181b9060243590309086615ea5565b386115dc565b9091506020813d602011611859575b8161183d60209383614b2b565b810103126118555761184e90614b4c565b90386117f5565b8680fd5b3d9150611830565b6040513d89823e3d90fd5b50600080516020615f3583398151915260c0820151146115d7565b6118a09061189b42916060850151906153d0565b6153dd565b60a554908181106118b2575b506115ce565b61189b6118c39260608501516153d0565b6001600160a01b038516875260a1602090815260408089206024358a5290915287206003015538806118ac565b606461190261190d9260a3549061526a565b0460408501516153d0565b6064351061191b57386115b8565b60405162461bcd60e51b815260206004820152602c60248201527f6269643a3a4d75737420696e63726561736520626964206279206d696e696d7560448201526b6d2070657263656e7461676560a01b6064820152608490fd5b60405162461bcd60e51b815260206004820152601a60248201527f6269643a3a4269642065786365656473206d61782076616c75650000000000006044820152606490fd5b90506020813d6020116119e4575b816119d560209383614b2b565b810103126105dd575138611546565b3d91506119c8565b60405162461bcd60e51b815260206004820152602660248201527f6269643a3a42696420616d6f756e74206d75737420626520677265617465722060448201526507468616e20360d41b6064820152608490fd5b60405162461bcd60e51b815260206004820152601760248201527f6269643a3a42696420616d6f756e7420746f6f206c6f770000000000000000006044820152606490fd5b60405162461bcd60e51b815260206004820152602d60248201527f6269643a3a43757272656e637920646f6573206e6f74206d617463682061756360448201526c74696f6e2063757272656e637960981b6064820152608490fd5b6060840151611aee916153d0565b421015611afb57386114f2565b60405162461bcd60e51b8152602060048201526016602482015275189a590e8e905d58dd1a5bdb881a185cc8195b99195960521b6044820152606490fd5b60405162461bcd60e51b815260206004820152601760248201527f6269643a3a41756374696f6e206e6f74206163746976650000000000000000006044820152606490fd5b60405162461bcd60e51b815260206004820152602360248201527f6269643a3a43616e6e6f7420626964206f6e20796f7572206f776e206175637460448201526234b7b760e91b6064820152608490fd5b606460405162461bcd60e51b815260206004820152602060248201527f6269643a3a4d757374206861766520612063757272656e742061756374696f6e6044820152fd5b506020813d602011611c3f575b81611c2d60209383614b2b565b810103126105dd5761141b905161140e565b3d9150611c20565b50346107c957806003193601126107c9576020604051600080516020615f158339815191528152f35b50346107c95760203660031901126107c957611c8a6149ef565b60043560a45580f35b50346107c957602080600319360112611da5576004359033835260a68152611cce826040852060019160005201602052604060002054151590565b15611d515733835260a68152611ce782604085206154f5565b5033835260a781526040832090828452526000600560408420848155826001820155826002820155611d1b600382016152aa565b611d2760048201615302565b0155337f6c4be52b9a419eb78a1483e27346ba15e73a3f933dfc4310e9728ddf33c695f88380a380f35b6084906040519062461bcd60e51b82526004820152602760248201527f63616e63656c41756374696f6e4d65726b6c65526f6f743a3a4e6f7420726f6f6044820152663a1037bbb732b960c91b6064820152fd5b5080fd5b50346107c9576101203660031901126107c957611dc4614956565b611dcc61496c565b60e4356001600160401b0381116107c557611deb9036906004016149bf565b90610104356001600160401b0381116107c157611e0c9036906004016149bf565b611e15856156d4565b60018060a01b038616875260a160205260408720604435885260205260408720611eaa600860405192611e4784614a90565b80546001600160a01b0390811685526001820154602086015260028201546040860152600382015460608601526004820154166080850152600581015460a0850152600681015460c0850152611e9f60078201614bc0565b60e085015201614c1a565b6101008201526040516331a9108f60e11b815260443560048201526020816024816001600160a01b038c165afa90811561246b5789916129e4575b506001600160a01b03163014806129d7575b1561290e57516001600160a01b031633036128b7575b60a05460405163e985e9c560e01b81523360048201526001600160a01b039091166024820152602081806044810103816001600160a01b038b165afa9081156105ea578891612888575b50156128435783156127ee576005841161279d57808403612743576000805b82821061271d5760649150036126c857600080516020615f35833981519152600435148080156126af575b156126565760a45460a435116126065760a435156125b55760018060a01b038716885260a260205260408820604435895260205260408820604051611fe581614ac7565b81546001600160a01b0390811680835260018401549091166020830152600283015460408301526003909201546060909101526125625780156124d75760643515612476575b609854604051637cd11f4360e11b815290602090829060049082906001600160a01b03165afa90811561246b578991612439575b50606435116123c4576120cd936120c191156123bb5788955b6040519661208588614a90565b338852436020890152604088015260a43560608801526001600160a01b038816608088015260643560a088015260043560c088015236916151b4565b60e08501523691615212565b6101008201526001600160a01b03838116855260a16020908152604080872060443588528252808720845181549085166001600160a01b03199182161782559285015160018201559084015160028201556060840151600382015560808401516004820180549190941692169190911790915560a0820151600582015560c0820151600682015560e08201518051919291906001600160401b038211610523576020600785019161217e84846152ce565b0190875260208720875b83811061239e57505050506101000151908151906001600160401b03821161238a57600860209101926121bb838561532c565b019185526020852090855b8160051c811061234b5750601f19811681036122fd575b505050600080516020615f158339815191526004351480612270575b61225d575b6040519033825260018060a01b0316602082015260c4356040820152606435606082015260a43560808201527fdb89081d9a5399380ffbcc376a961ed023027fca462e08b3d23146e4c6ac62f260a060443593600180831b031692a380f35b61226b604435303385615ea5565b6121fe565b506040516331a9108f60e11b815260443560048201526020816024816001600160a01b0387165afa9081156122f25784916122b8575b506001600160a01b03163014156121f9565b90506020813d6020116122ea575b816122d360209383614b2b565b810103126107c5576122e490614b4c565b386122a6565b3d91506122c6565b6040513d86823e3d90fd5b8592865b601f1983168303811061231d57505060051c01553880806121dd565b909360206123426001928460ff895116919060ff809160031b9316831b921b19161790565b95019101612301565b86875b602081106123635750838201556001016121c6565b855190959160019160209160ff60038a901b81811b199092169216901b179201950161234e565b634e487b7160e01b86526041600452602486fd5b82516001600160a01b031681830155602090920191600101612188565b60c43595612078565b60405162461bcd60e51b815260206004820152604160248201527f636f6e66696775726541756374696f6e3a3a43616e6e6f74207365742073746160448201527f7274696e6720707269636520686967686572207468616e206d61782076616c756064820152606560f81b608482015260a490fd5b90506020813d602011612463575b8161245460209383614b2b565b810103126105dd57513861205f565b3d9150612447565b6040513d8b823e3d90fd5b60405162461bcd60e51b815260206004820152603360248201527f636f6e66696775726541756374696f6e3a3a436f6c646965207374617274696e604482015272067207072696365206d757374206265203e203606c1b6064820152608490fd5b600080516020615f158339815191526004350361202b574260c4351161202b5760405162461bcd60e51b815260206004820152603860248201527f636f6e66696775726541756374696f6e3a3a5363686564756c6564206175637460448201527f696f6e2063616e6e6f7420737461727420696e207061737400000000000000006064820152608490fd5b60405162461bcd60e51b815260206004820152602560248201527f636f6e66696775726541756374696f6e3a3a4269642073686f756c646e277420604482015264195e1a5cdd60da1b6064820152608490fd5b60405162461bcd60e51b8152602060048201526024808201527f636f6e66696775726541756374696f6e3a3a4c656e677468206d7573742062656044820152630203e20360e41b6064820152608490fd5b60405162461bcd60e51b815260206004820152602260248201527f636f6e66696775726541756374696f6e3a3a41756374696f6e20746f6f206c6f6044820152616e6760f01b6064820152608490fd5b60405162461bcd60e51b815260206004820152602b60248201527f636865636b56616c696441756374696f6e547970653a3a496e76616c6964206160448201526a756374696f6e207479706560a81b6064820152608490fd5b50600080516020615f1583398151915260043514611fa1565b60405162461bcd60e51b815260206004820152602760248201527f636865636b53706c6974733a3a546f74616c206d75737420626520657175616c604482015266020746f203130360cc1b6064820152608490fd5b8160051b8401359060ff82168092036105dd5761273d916106be916153d0565b90611f76565b60405162461bcd60e51b815260206004820152602c60248201527f636865636b53706c6974733a3a53706c69747320616e6420726174696f73206d60448201526b1d5cdd08189948195c5d585b60a21b6064820152608490fd5b60405162461bcd60e51b8152602060048201526024808201527f636865636b53706c6974733a3a53706c6974206578636565646564206d61782060448201526373697a6560e01b6064820152608490fd5b60405162461bcd60e51b815260206004820152602760248201527f636865636b53706c6974733a3a4d7573742068617665206174206c65617374206044820152660c481cdc1b1a5d60ca1b6064820152608490fd5b60405162461bcd60e51b815260206004820152601e60248201527f6f776e6572206d757374206861766520617070726f76656420746f6b656e00006044820152606490fd5b6128aa915060203d6020116128b0575b6128a28183614b2b565b8101906156bc565b38611f57565b503d612898565b60405162461bcd60e51b815260206004820152602960248201527f636f6e66696775726541756374696f6e3a3a4d7573742062652061756374696f604482015268371031b932b0ba37b960b91b6064820152608490fd5b506040516331a9108f60e11b815260443560048201526020816024816001600160a01b038b165afa9081156105ea578891612999575b506001600160a01b03163314611f0d5760405162461bcd60e51b815260206004820152601e60248201527f73656e646572206d7573742062652074686520746f6b656e206f776e657200006044820152606490fd5b90506020813d6020116129cf575b816129b460209383614b2b565b810103126129cb576129c590614b4c565b38612944565b8780fd5b3d91506129a7565b5060408101514210611ef7565b90506020813d602011612a1a575b816129ff60209383614b2b565b81010312612a1657612a1090614b4c565b38611ee5565b8880fd5b3d91506129f2565b50346107c957806003193601126107c9576033546040516001600160a01b039091168152602090f35b50346107c95760403660031901126107c957612a6561492a565b6001600160a01b0390811680835260a160209081526040808520602480358088529184528287209251919592612a9a83614a90565b8381541683526001810154858401526002810154906040840191825260038101546060850152846004820154166080850152600581015460a0850152612aff600860068301549260c08701938452612af460078201614bc0565b60e088015201614c1a565b6101008501525115612da257518015908115612d98575b5015612d4057828251163303612cee5784875260a18452604087208688528452612b4260408820615390565b6040516331a9108f60e11b8082526004820188905290858184818a5afa90811561246b578991612cb9575b5084163014612c56575b60405190815286600482015284818381895afa9081156105ea578891612c21575b508333911603612bd2575051604051911681527f26d4510b556e779d6507640413e013206e44c8f5d018c7c74ed8926f3f024a9c9190a380f35b836084916040519162461bcd60e51b83526004830152808201527f63616e63656c41756374696f6e3a3a546f6b656e207472616e736665722066616044820152631a5b195960e21b6064820152fd5b90508481813d8311612c4f575b612c388183614b2b565b810103126129cb57612c4990614b4c565b38612b98565b503d612c2e565b853b156129cb576040516323b872dd60e01b81523060048201523360248201526044810188905288908181606481838c5af18015612cae57612c9a575b5050612b77565b612ca390614ae2565b6129cb578738612c93565b6040513d84823e3d90fd5b90508581813d8311612ce7575b612cd08183614b2b565b81010312612a1657612ce190614b4c565b38612b6d565b503d612cc6565b8360266084926040519262461bcd60e51b845260048401528201527f63616e63656c41756374696f6e3a3a4d7573742062652061756374696f6e20636044820152653932b0ba37b960d11b6064820152fd5b83602c6084926040519262461bcd60e51b845260048401528201527f63616e63656c41756374696f6e3a3a41756374696f6e206d757374206e6f742060448201526b1a185d99481cdd185c9d195960a21b6064820152fd5b9050421038612b16565b60405162461bcd60e51b815260048101869052602e818401527f63616e63656c41756374696f6e3a3a4d757374206861766520616e206175637460448201526d1a5bdb8818dbdb999a59dd5c995960921b6064820152608490fd5b50346107c95760403660031901126107c957612e1761492a565b604051612e2381614aac565b8281528260a0602092828482015282604082015260608082015260606080820152015260018060a01b03809216835260a781526040832060243584528152604083209160405193612e7385614aac565b818454168552600194858501549484820195865260028101549360408301948552612ea060038301614bc0565b606084019081526005612eb560048501614c1a565b936080860194855201549560a0850196875260405198888a528360e08b01965116898b01525160408a0152516060890152519260c06080890152835180915286610100890194019185905b8a838310612f525750505050505193601f198683030160a08701528080865193848152019501925b828110612f3c57845160c088015286860387f35b835160ff16865294810194928101928701612f28565b84518216875295890195938901939190910190612f00565b50346107c957806003193601126107c957612f836149ef565b603380546001600160a01b031981169091556000906001600160a01b03167f8be0079c531659141344cd1fd0a4f28419497f9722a3daafe3b4186f6b6457e08280a380f35b50346107c957806003193601126107c957602060a354604051908152f35b50346107c95760803660031901126107c957613000614956565b90606435906001600160401b0382116107c95760206130718461306c61302936600488016149bf565b60405160609490941b6001600160601b031916868501908152604435601482015291939092919061305d816034840161092b565b519020926004359236916155d1565b61561f565b6040519015158152f35b50346107c95760403660031901126107c95761309561492a565b60018060a01b038116825260a1602052604082206024358352602052604082206130c7600860405192611e4784614a90565b61010082015260018060a01b038216835260a260205260408320602435845260205260408320916003604051936130fd85614ac7565b80546001600160a01b0390811686526001820154166020860152600281015460408601520154606084015260c082015115613b5e5761314560408301516060840151906153d0565b4210613b0d5760018060a01b038116845260a160205260408420602435855260205261317360408520615390565b6001600160a01b03818116855260a26020908152604080872060243588529091528520858155600181018690556002810186905560030185905583511615613a9a57825184906001600160a01b039081169083163b15611da5576040516323b872dd60e01b81523060048201526001600160a01b03909116602480830191909152356044820152818180606481010381836001600160a01b0388165af18015612cae57613a86575b505060208301516040840151835160e0850151610100860151815181516001600160a01b03948516999690941696929591949303613a25576024838a9499602060018060a01b0360985416604051948580926361fe24a960e11b82528660048301525afa9283156117865786936139ee575b506040519261329b84614af5565b6002845260403660208601376097546001600160a01b0316806132bd8661568b565b52609e5460405163e286ef3360e01b81526004810185905290602090829060249082906001600160a01b03165afa90811561246b5789916139b4575b506001600160a01b031661330c86615698565b526001600160a01b0361331e86615698565b511661399b575b61332e85615698565b6001600160a01b0390911690526040519061334882614af5565b600282526040366020840137609d546040516303fdde1160e21b8152600481018690526001600160a01b0390911690602081602481855afa908115613990578a91613958575b5060249160209161339e8661568b565b526040519283809263470d6ed960e11b82528960048301525afa90811561246b57899161391d575b50829186916133d76133de95615698565b528c615dc2565b609854604051631446f21360e21b81526001600160a01b038781166004830152602480359083015290949116602085604481845afa80156105ea57889586916138fe575b50156136ee575b5050609a54604051637a99dc0160e11b81526001600160a01b038781166004830152602480359083015260448201949094529c8d93606493508492165af1968715610ee757839984986135a8575b508399849a5b89518c10156134aa5761349e6134a4916134978e8d6156a8565b51906153d0565b9b61567c565b9a61347d565b9a506134c18b6134c89496989a939597999b6153dd565b9a8a615dc2565b8451956134d48761519d565b966134e26040519889614b2b565b8088526134f1601f199161519d565b01366020890137845b86518110156135365780606461352060ff613518613531958c6156a8565b51168d61526a565b0461352b828b6156a8565b5261567c565b6134fa565b50919592966135489498919550615dc2565b51815160408084015160609485015182516001600160a01b039586168152938516602085015291830152928101929092526024359216907f9af79c03d71f5375aad271d2d27dc3b4227362c41a7a2ab66072e4e6592e262b90608090a380f35b995096503d988984823e6135bc8a82614b2b565b6040818b810103126107c55780516001600160401b038111610ec1578101908a8101601f83011215610ec1578151916135f48361519d565b926136026040519485614b2b565b80845260208401918d840160208360051b830101116129cb5760208101925b60208360051b83010184106136ca575050505060208101519a6001600160401b038c116107c157808201601f8d84010112156107c1578b820151916136658361519d565b9c6040519d613674908f614b2b565b8d8481526020019282018460051b82840101602001116129cb579190602083820101925b60208560051b828401010184106136b6575050505050989638613477565b602080809486518152019401939250613698565b83516001600160a01b03811681036136ea57815260209384019301613621565b8980fd5b90919350604051906136ff82614b10565b60018252602036818401376040519261371784614b10565b60018452602036818601376001600160a01b03906137349061568b565b511661373f8461568b565b52609954604051635dc22eff60e01b81526004810187905290602090829060249082906001600160a01b03165afa90811561246b5789916138df575b50156138315750609954604051632260494f60e01b81526004810195909552602090859060249082906001600160a01b03165afa93841561186157879460ff918691613812575b50169b6137cf8d8561526a565b606490046137dc916153dd565b9b6137e7908461526a565b606490046137f48261568b565b526137fe8161568b565b519161380a928b615dc2565b388080613429565b61382b915060203d602011611755576117478183614b2b565b386137c2565b60405163b28a7bad60e01b81526001600160a01b0388166004820152919c50909350602090849060249082905afa92831561178657869360ff9185916138c0575b50169a61387f8c8461526a565b6064900461388d90846153dd565b9b613898908461526a565b606490046138a58261568b565b526138af8161568b565b51916138bb928b615dc2565b61380a565b6138d9915060203d602011611755576117478183614b2b565b38613872565b6138f8915060203d6020116128b0576128a28183614b2b565b3861377b565b613917915060203d6020116128b0576128a28183614b2b565b38613422565b985050906020883d602011613950575b8161393a60209383614b2b565b810103126105dd5796518d9791906133de6133c6565b3d915061392d565b9950506020893d602011613988575b8161397460209383614b2b565b810103126105dd5797518e9890602461338e565b3d9150613967565b6040513d8c823e3d90fd5b506001600160a01b036139ad85615698565b5116613325565b90506020813d6020116139e6575b816139cf60209383614b2b565b81010312612a16576139e090614b4c565b386132f9565b3d91506139c2565b955091506020853d602011613a1d575b81613a0b60209383614b2b565b810103126105dd578a9451913861328d565b3d91506139fe565b60405162461bcd60e51b815260206004820152603360248201527f4e756d626572206f662073706c69742061646472657373657320616e642072616044820152723a34b7b99036bab9ba1031329032b8bab0b61760691b6064820152608490fd5b613a8f90614ae2565b6107c557833861321b565b8151909291906001600160a01b039081169084163b15610ec1576040516323b872dd60e01b8152306004820152602480820192909252903560448201528481606481836001600160a01b0389165af1801561175c57613afa575b50613548565b613b0690949194614ae2565b9238613af4565b60405162461bcd60e51b8152602060048201526024808201527f736574746c6541756374696f6e3a3a41756374696f6e20686173206e6f7420656044820152631b99195960e21b6064820152608490fd5b606460405162461bcd60e51b815260206004820152602060248201527f736574746c6541756374696f6e3a3a4e6f2061756374696f6e206578697374736044820152fd5b5060c03660031901126107c957613bb761492a565b613bbf614940565b9060a4356001600160401b0381116107c557613be2613c2b9136906004016149bf565b613bea615403565b604051606085901b6001600160601b03191660208201908152602435603483015261306c91613c1c816054810161092b565b519020926064359236916155d1565b156145df5760018060a01b038216835260a6602052613c5f6064356040852060019160005201602052604060002054151590565b1561457c5760018060a01b038216835260a760205260408320606435845260205260408320600560405191613c9383614aac565b80546001600160a01b031683526001810154602084015260028101546040840152613cc060038201614bc0565b6060840152613cd160048201614c1a565b6080840152015460a0820152604051606084811b6001600160601b03199081166020840190815260643560348501529185901b166054830152602435606883015290613d20816088810161092b565b5190209060018060a01b038416855260a860205260408520606435865260205260408520549180865260a96020528260408720541015614506576001600160a01b038416865260a16020908152604080882060243589529091528620600601546144a7576084351561445357609854604051637cd11f4360e11b81526001600160a01b0390911690602081600481855afa9081156105ea578891614421575b50608435116143bd57602083015160843510614352576040516331a9108f60e11b81526024803560048301526020908290816001600160a01b038a165afa9081156105ea578891614318575b506001600160a01b038781169116036142c05760a05460405163e985e9c560e01b81526001600160a01b0388811660048301529091166024820152602081806044810103816001600160a01b038a165afa9081156105ea5788916142a1575b5015612843576020602491604051928380926361fe24a960e11b825260843560048301525afa90811561186157879161426d575b50613eae613ebe916084356153d0565b83516001600160a01b0316615894565b855260a9602052816040862055604081015160018060a01b03825116602083015160608401519060808501519260405194613ef886614a90565b60018060a01b038a1686524360208701524260408701526060860152608085015260a0840152600080516020615f3583398151915260c084015260e083015261010082015260018060a01b038416865260a1602052604086206024358752602052604086209060018060a01b038151166001600160601b0360a01b8354161782556020810151600183015560408101516002830155606081015160038301556004820160018060a01b036080830151166001600160601b0360a01b82541617905560a0810151600583015560c0810151600683015560e08101518051906001600160401b0382116142595760206007850191613ff484846152ce565b0190895260208920895b83811061423c57505050506101000151908151906001600160401b0382116104f25760086020910192614031838561532c565b019187526020872090875b8160051c81106141fd5750601f19811681036141af575b50509051609854604051638347592160e01b81526001600160a01b0392831693509160209183916004918391165afa8015611786576003918791614190575b50604051926140a084614ac7565b338452602084019081526040840190608435825260ff606086019316835260018060a01b038716895260a2602052604089206024358a52602052604089209460018060a01b039051166001600160601b0360a01b865416178555600185019060018060a01b039051166001600160601b0360a01b82541617905551600284015551910155614132602435308585615ea5565b6040519260018060a01b0316835260643560208401526084356040840152606083015233917f98d4c2e28312f55a87c3b4b9eca06fe575a2b0db79bccf976fa9c8863e48db9f60806024359360018060a01b031692a4600160655580f35b6141a9915060203d602011611755576117478183614b2b565b38614092565b8792885b601f198316830381106141cf57505060051c0155388080614053565b909360206141f46001928460ff895116919060ff809160031b9316831b921b19161790565b950191016141b3565b88895b6020811061421557508382015560010161403c565b855190959160019160209160ff60038a901b81811b199092169216901b1792019501614200565b82516001600160a01b031681830155602090920191600101613ffe565b634e487b7160e01b89526041600452602489fd5b90506020813d602011614299575b8161428860209383614b2b565b810103126118555751613eae613e9e565b3d915061427b565b6142ba915060203d6020116128b0576128a28183614b2b565b38613e6a565b60405162461bcd60e51b815260206004820152602a60248201527f6269645769746841756374696f6e4d65726b6c6550726f6f663a3a4e6f74207460448201526937b5b2b71037bbb732b960b11b6064820152608490fd5b90506020813d60201161434a575b8161433360209383614b2b565b810103126129cb5761434490614b4c565b38613e0b565b3d9150614326565b60405162461bcd60e51b815260206004820152603b60248201527f6269645769746841756374696f6e4d65726b6c6550726f6f663a3a43616e6e6f60448201527f74206265206c6f776572207468616e206d696e696d756d2062696400000000006064820152608490fd5b60405162461bcd60e51b815260206004820152603660248201527f6269645769746841756374696f6e4d65726b6c6550726f6f663a3a4d757374206044820152756265206c657373207468616e206d61782076616c756560501b6064820152608490fd5b90506020813d60201161444b575b8161443c60209383614b2b565b810103126129cb575138613dbf565b3d915061442f565b60405162461bcd60e51b815260206004820152602660248201527f6269645769746841756374696f6e4d65726b6c6550726f6f663a3a43616e6e6f60448201526507420626520360d41b6064820152608490fd5b60405162461bcd60e51b815260206004820152603160248201527f6269645769746841756374696f6e4d65726b6c6550726f6f663a3a41756374696044820152706f6e20616c72656164792065786973747360781b6064820152608490fd5b60405162461bcd60e51b815260206004820152604260248201527f6269645769746841756374696f6e4d65726b6c6550726f6f663a3a546f6b656e60448201527f20616c7265616479207573656420666f722074686973204d65726b6c6520726f6064820152611bdd60f21b608482015260a490fd5b60405162461bcd60e51b815260206004820152603560248201527f6269645769746841756374696f6e4d65726b6c6550726f6f663a3a4d65726b6c60448201527419481c9bdbdd081b9bdd081c9959da5cdd195c9959605a1b6064820152608490fd5b60405162461bcd60e51b815260206004820152602f60248201527f6269645769746841756374696f6e4d65726b6c6550726f6f663a3a496e76616c60448201526e34b21026b2b935b63290383937b7b360891b6064820152608490fd5b50346107c957602080600319360112611da5576001600160a01b0361465f61492a565b16825260a681526040822060405192838383549182815201908193835284832090835b8181106146d65750505084614698910385614b2b565b60405193838594850191818652518092526040850193925b8281106146bf57505050500390f35b8351855286955093810193928101926001016146b0565b825484529286019260019283019201614682565b50346107c95760203660031901126107c95760043560ff8116809103611da5576147126149ef565b60a35580f35b50346107c95760403660031901126107c9576080906001600160a01b03906040908261474261492a565b16815260a26020528181206024358252602052208181541691600182015416906003600282015491015491604051938452602084015260408301526060820152f35b50346107c957806003193601126107c957602090604051908152f35b50346107c95760203660031901126107c9576147ba6149ef565b60043560a55580f35b50346107c957806003193601126107c957602060a454604051908152f35b905034611da5576040366003190112611da5576001600160a01b03918261480661492a565b16815260209060a182526040812060243582528252604081209261482981614a90565b8484541681526001926148f2848601549582840196875260028101549060408501918252600381015460608601908152896004830154166080870190815260058301549060a0880191825260068401549260c089019384528c6148a1600861489360078901614bc0565b9760e08d0198895201614c1a565b9d8e9a6101009b8c82015251169c5196519151925116925193519451956040519c8d52888d015260408c015260608b015260808a015260a089015260c08801526101208060e0890152870190614982565b91858303908601528080875193848152019601925b8281106149145785870386f35b835160ff16875295810195928101928401614907565b600435906001600160a01b03821682036105dd57565b604435906001600160a01b03821682036105dd57565b602435906001600160a01b03821682036105dd57565b608435906001600160a01b03821682036105dd57565b90815180825260208080930193019160005b8281106149a2575050505090565b83516001600160a01b031685529381019392810192600101614994565b9181601f840112156105dd578235916001600160401b0383116105dd576020808501948460051b0101116105dd57565b6033546001600160a01b03163303614a0357565b606460405162461bcd60e51b815260206004820152602060248201527f4f776e61626c653a2063616c6c6572206973206e6f7420746865206f776e65726044820152fd5b603380546001600160a01b039283166001600160a01b0319821681179092559091167f8be0079c531659141344cd1fd0a4f28419497f9722a3daafe3b4186f6b6457e0600080a3565b61012081019081106001600160401b03821117610ec557604052565b60c081019081106001600160401b03821117610ec557604052565b608081019081106001600160401b03821117610ec557604052565b6001600160401b038111610ec557604052565b606081019081106001600160401b03821117610ec557604052565b604081019081106001600160401b03821117610ec557604052565b90601f801991011681019081106001600160401b03821117610ec557604052565b51906001600160a01b03821682036105dd57565b15614b6757565b60405162461bcd60e51b815260206004820152602b60248201527f496e697469616c697a61626c653a20636f6e7472616374206973206e6f74206960448201526a6e697469616c697a696e6760a81b6064820152608490fd5b9060405191828154918282526020928383019160005283600020936000905b828210614bf757505050614bf592500383614b2b565b565b85546001600160a01b031684526001958601958895509381019390910190614bdf565b90604051918281549182825260209081830190600052816000206000905b85601f8301106150065794614bf595549184828210614ff3575b828210614fdd575b828210614fc7575b828210614fb1575b828210614f9c575b828210614f86575b828210614f70575b828210614f5a575b828210614f44575b828210614f2e575b828210614f18575b828210614f02575b828210614eec575b828210614ed6575b828210614ec0575b828210614eaa575b828210614e94575b828210614e7e575b828210614e68575b828210614e52575b828210614e3c575b828210614e26575b828210614e10575b828210614dfa575b828210614de4575b828210614dce575b828210614db8575b828210614da2575b828210614d8c575b828210614d76575b828210614d60575b5010614d53575b5090500383614b2b565b60f81c8152018038614d49565b6001919460ff8560f01c16815201930184614d42565b6001919460ff8560e81c16815201930184614d3a565b6001919460ff8560e01c16815201930184614d32565b6001919460ff8560d81c16815201930184614d2a565b6001919460ff8560d01c16815201930184614d22565b6001919460ff8560c81c16815201930184614d1a565b6001919460ff8560c01c16815201930184614d12565b6001919460ff8560b81c16815201930184614d0a565b6001919460ff8560b01c16815201930184614d02565b6001919460ff8560a81c16815201930184614cfa565b6001919460ff8560a01c16815201930184614cf2565b6001919460ff8560981c16815201930184614cea565b6001919460ff8560901c16815201930184614ce2565b6001919460ff8560881c16815201930184614cda565b6001919460ff8560801c16815201930184614cd2565b6001919460ff8560781c16815201930184614cca565b6001919460ff8560701c16815201930184614cc2565b6001919460ff8560681c16815201930184614cba565b6001919460ff8560601c16815201930184614cb2565b6001919460ff8560581c16815201930184614caa565b6001919460ff8560501c16815201930184614ca2565b6001919460ff8560481c16815201930184614c9a565b6001919460ff8560401c16815201930184614c92565b6001919460ff8560381c16815201930184614c8a565b6001919460ff8560301c16815201930184614c82565b6001919460ff8560281c16815201930184614c7a565b6001919460ff85831c16815201930184614c72565b6001919460ff8560181c16815201930184614c6a565b6001919460ff8560101c16815201930184614c62565b6001919460ff8560081c16815201930184614c5a565b6001919460ff8516815201930184614c52565b9350916001610400829693865460ff8116825260ff8160081c168583015260ff8160101c16604083015260ff816060828260181c16818601528282608082828c1c1681890152828260a092828260281c16848c0152828260c0988d8a848460301c169101528d60e0848460381c169101528d610100848460401c169101528d610120848460481c169101528d610140848460501c169101528d610160848460581c169101521c166101808c0152828260681c166101a08c0152828260701c166101c08c0152828260781c166101e08c01521c16610200890152828260881c16610220890152828260901c16610240890152828260981c166102608901521c16610280860152828260a81c166102a0860152828260b01c166102c0860152828260b81c166102e08601521c1661030083015260ff8160c81c1661032083015260ff8160d01c1661034083015260ff8160d81c1661036083015260ff8160e01c1661038083015260ff8160e81c166103a083015260ff8160f01c166103c083015260f81c6103e082015201940192018693919492614c38565b6001600160401b038111610ec55760051b60200190565b92916151bf8261519d565b916151cd6040519384614b2b565b829481845260208094019160051b81019283116105dd57905b8282106151f35750505050565b81356001600160a01b03811681036105dd5781529083019083016151e6565b929161521d8261519d565b9161522b6040519384614b2b565b829481845260208094019160051b81019283116105dd57905b8282106152515750505050565b813560ff811681036105dd578152908301908301615244565b8181029291811591840414171561527d57565b634e487b7160e01b600052601160045260246000fd5b81811061529e575050565b60008155600101615293565b805460008255806152b9575050565b614bf591600052602060002090810190615293565b90600160401b8111610ec5578154908083558181106152ec57505050565b614bf59260005260206000209182019101615293565b80546000825580615311575050565b614bf591600052601f6020600020910160051c810190615293565b90600160401b8111610ec557815481835580821061534957505050565b614bf592600052601f6020600020918180850160051c8401941680615375575b500160051c0190615293565b600019908186019182549160200360031b1c16905538615369565b6008614bf591600080825580600183015580600283015580600383015580600483015580600583015560068201556153ca600782016152aa565b01615302565b9190820180921161527d57565b9190820391821161527d57565b908160209103126105dd575160ff811681036105dd5790565b600260655414615414576002606555565b60405162461bcd60e51b815260206004820152601f60248201527f5265656e7472616e637947756172643a207265656e7472616e742063616c6c006044820152606490fd5b80548210156154715760005260206000200190600090565b634e487b7160e01b600052603260045260246000fd5b60008281526001820160205260409020546154ee57805490600160401b821015610ec557826154d76154c0846001809601855584615459565b819391549060031b91821b91600019901b19161790565b905580549260005201602052604060002055600190565b5050600090565b906001820190600092818452826020526040842054908115156000146155ca5760001991808301818111610537578254908482019182116155b657808203615581575b5050508054801561556d578201916155508383615459565b909182549160031b1b191690555582526020526040812055600190565b634e487b7160e01b86526031600452602486fd5b6155a16155916154c09386615459565b90549060031b1c92839286615459565b90558652846020526040862055388080615538565b634e487b7160e01b88526011600452602488fd5b5050505090565b92916155dc8261519d565b916155ea6040519384614b2b565b829481845260208094019160051b81019283116105dd57905b8282106156105750505050565b81358152908301908301615603565b929091906000915b84518310156156745761563a83866156a8565b5190600082821015615662575060005260205261565c60406000205b9261567c565b91615627565b60409161565c93825260205220615656565b915092501490565b600019811461527d5760010190565b8051156154715760200190565b8051600110156154715760400190565b80518210156154715760209160051b010190565b908160209103126105dd575180151581036105dd5790565b6001600160a01b03908116801591821561572f575b5050156156f257565b60405162461bcd60e51b81526020600482015260156024820152744e6f7420617070726f7665642063757272656e637960581b6044820152606490fd5b6020919250609c541691602460405180948193632d5ad3d560e01b835260048301525afa9081156157885760009161576a575b5038806156e9565b615782915060203d81116128b0576128a28183614b2b565b38615762565b6040513d6000823e3d90fd5b6001600160a01b0390811690811561588f57609f54604051636eb1769f60e11b815233600482015291166001600160a01b0316602482015290602090829081806044810103915afa9081156157885760009161585e575b50106157f357565b60405162461bcd60e51b815260206004820152603960248201527f73656e646572206e6565647320746f20617070726f766520455243323041707060448201527f726f76616c4d616e6167657220666f722063757272656e6379000000000000006064820152608490fd5b906020823d8211615887575b8161587760209383614b2b565b810103126107c9575051386157eb565b3d915061586a565b505050565b6001600160a01b0391600091838116908115615a965734615a40576040938451916370a0823160e01b908184523060048501526020978885602481895afa948515615a36578495615a07575b50609f541690813b156107c5578751630aed65f560e11b81526001600160a01b03919091166004820152336024820152306044820152606481018790529083908290608490829084905af180156159fd57908892916159ea575b50602487518096819382523060048301525afa9081156159df57906159b0575b61596492506153dd565b0361596d575050565b60649250519062461bcd60e51b82526004820152601c60248201527f6e6f7420656e6f75676820746f6b656e73207472616e736665726564000000006044820152fd5b508482813d83116159d8575b6159c68183614b2b565b810103126105dd57615964915161595a565b503d6159bc565b8551903d90823e3d90fd5b6159f690939193614ae2565b913861593a565b87513d85823e3d90fd5b9094508881813d8311615a2f575b615a1f8183614b2b565b810103126107c5575193386158e0565b503d615a15565b88513d86823e3d90fd5b60405162461bcd60e51b815260206004820152602860248201527f6d73672e76616c75652073686f756c642062652030207768656e206e6f7420756044820152670e6d2dcce40cae8d60c31b6064820152608490fd5b50509150503403615aa357565b60405162461bcd60e51b81526020600482015260136024820152721b9bdd08195b9bdd59da08195d1a081cd95b9d606a1b6044820152606490fd5b3d15615b18573d906001600160401b038211610ec55760405191615b0c601f8201601f191660200184614b2b565b82523d6000602084013e565b606090565b6020808252825181830181905290939260005b828110615b5257505060409293506000838284010152601f8019910116010190565b818101860151848201604001528501615b30565b15615b6e5750565b60405162461bcd60e51b8152908190615b8a9060048301615b1d565b0390fd5b9291908015615c26576064615ba6615bad938361526a565b04906153d0565b6001600160a01b039290919083168015615bcb57614bf59350615c2c565b50609b5460405163410085df60e01b602082019081526001600160a01b03909316602482015260448101849052614bf5946000948594939091169291615c14816064810161092b565b51925af1615c20615ade565b90615b66565b50505050565b60405163a9059cbb60e01b60208083019182526001600160a01b039490941660248301526044808301959095529381529192615cc592916000908190615c73606486614b2b565b60018060a01b03169260405194615c8986614b10565b8786527f5361666545524332303a206c6f772d6c6576656c2063616c6c206661696c656488870152519082855af1615cbf615ade565b91615d4d565b805190828215928315615d35575b50505015615cde5750565b6084906040519062461bcd60e51b82526004820152602a60248201527f5361666545524332303a204552433230206f7065726174696f6e20646964206e6044820152691bdd081cdd58d8d9595960b21b6064820152fd5b615d4593508201810191016156bc565b388281615cd3565b91929015615daf5750815115615d61575090565b3b15615d6a5790565b60405162461bcd60e51b815260206004820152601d60248201527f416464726573733a2063616c6c20746f206e6f6e2d636f6e74726163740000006044820152606490fd5b825190915015615b6e5750805190602001fd5b6001600160a01b0390811694939290918515615e1d575060005b8151811015615e155780615e0b84615df7615e1094866156a8565b5116615e0383886156a8565b519089615c2c565b61567c565b615ddc565b505050509050565b92945090609b5416916040516020615e4d8183019463c176e63960e01b8652604060248501526064840190614982565b82810360231901604484015287518082529082019782019160005b828110615e915750505050916000939183615c148695614bf5989903601f198101835282614b2b565b83518a529881019892810192600101615e68565b919060018060a01b0360a0541690813b156105dd57604051630aed65f560e11b81526001600160a01b039485166004820152908416602482015291909216604482015260648101929092526000908290608490829084905af1801561578857615f0b5750565b614bf590614ae256fe35775639ffa1ccf8884b76bf027c512202ff431a9e3a1ba9ccd3c50c795759a6b827bfa0833ec95ae4f99f3f3f227cdb14c204ea3ebc414f5f479aabf742b928a2646970667358221220c7575b130bcf816a83e802c3fc144d074c1984de949da4f88cc04e9f523db19864736f6c63430008120033","linkReferences":{"src/v2/utils/MarketConfigV2.sol":{"MarketConfigV2":[{"start":3077,"length":20}]}}},"methodIdentifiers":{"COLDIE_AUCTION()":"c90b8714","NO_AUCTION()":"155a56b1","SCHEDULED_AUCTION()":"b23afc26","auctionBids(address,uint256)":"299a0e1e","auctionLengthExtension()":"daa26499","bid(address,uint256,address,uint256)":"b5678588","bidWithAuctionMerkleProof(address,uint256,address,bytes32,uint256,bytes32[])":"5060eadf","cancelAuction(address,uint256)":"859b97fe","cancelAuctionMerkleRoot(bytes32)":"ac964f8e","configureAuction(bytes32,address,uint256,uint256,address,uint256,uint256,address[],uint8[])":"9041a0ec","creatorRootToConfig(address,bytes32)":"bb120e66","getAuctionDetails(address,uint256)":"0cd87c68","getCreatorAuctionMerkleRootNonce(address,bytes32)":"e29ac890","getMerkleAuctionConfig(address,bytes32)":"76ffb5a7","getTokenAuctionNonce(address,bytes32,address,uint256)":"d97f7657","getUserAuctionMerkleRoots(address)":"4ebade5f","initialize(address,address,address,address,address,address,address,address,address,address)":"c306b378","isTokenInRoot(bytes32,address,uint256,bytes32[])":"5e51b2d4","maxAuctionLength()":"0e519ef9","minimumBidIncreasePercentage()":"6fe9f44c","owner()":"8da5cb5b","registerAuctionMerkleRoot(bytes32,address,uint256,uint256,address[],uint8[])":"f8aa56ee","renounceOwnership()":"715018a6","setAuctionLengthExtension(uint256)":"10f79789","setMaxAuctionLength(uint256)":"affdafd8","setMinimumBidIncreasePercentage(uint8)":"48626b90","settleAuction(address,uint256)":"5138b08c","tokenAuctions(address,uint256)":"c47c35c1","transferOwnership(address)":"f2fde38b"},"id":69}