{"abi":[{"type":"constructor","inputs":[{"name":"_bazaar","type":"address","internalType":"address"},{"name":"_rareMinter","type":"address","internalType":"address"}],"stateMutability":"nonpayable"},{"type":"function","name":"approveCurrency","inputs":[{"name":"_currencyAddress","type":"address","internalType":"address"},{"name":"_amount","type":"uint256","internalType":"uint256"}],"outputs":[],"stateMutability":"nonpayable"},{"type":"function","name":"bazaar","inputs":[],"outputs":[{"name":"","type":"address","internalType":"contract ISuperRareBazaar"}],"stateMutability":"view"},{"type":"function","name":"buy","inputs":[{"name":"_originContract","type":"address","internalType":"address"},{"name":"_tokenId","type":"uint256","internalType":"uint256"},{"name":"_currencyAddress","type":"address","internalType":"address"},{"name":"_amount","type":"uint256","internalType":"uint256"},{"name":"_recipient","type":"address","internalType":"address"}],"outputs":[],"stateMutability":"nonpayable"},{"type":"function","name":"mint","inputs":[{"name":"_originContract","type":"address","internalType":"address"},{"name":"_currencyAddress","type":"address","internalType":"address"},{"name":"_amount","type":"uint256","internalType":"uint256"},{"name":"_numMints","type":"uint8","internalType":"uint8"},{"name":"_proof","type":"bytes32[]","internalType":"bytes32[]"},{"name":"_recipient","type":"address","internalType":"address"}],"outputs":[],"stateMutability":"nonpayable"},{"type":"function","name":"onERC721Received","inputs":[{"name":"","type":"address","internalType":"address"},{"name":"","type":"address","internalType":"address"},{"name":"_tokenId","type":"uint256","internalType":"uint256"},{"name":"","type":"bytes","internalType":"bytes"}],"outputs":[{"name":"","type":"bytes4","internalType":"bytes4"}],"stateMutability":"nonpayable"},{"type":"function","name":"owner","inputs":[],"outputs":[{"name":"","type":"address","internalType":"address"}],"stateMutability":"view"},{"type":"function","name":"rareMinter","inputs":[],"outputs":[{"name":"","type":"address","internalType":"contract IRareMinter"}],"stateMutability":"view"},{"type":"function","name":"renounceOwnership","inputs":[],"outputs":[],"stateMutability":"nonpayable"},{"type":"function","name":"transferOwnership","inputs":[{"name":"newOwner","type":"address","internalType":"address"}],"outputs":[],"stateMutability":"nonpayable"},{"type":"event","name":"OwnershipTransferred","inputs":[{"name":"previousOwner","type":"address","indexed":true,"internalType":"address"},{"name":"newOwner","type":"address","indexed":true,"internalType":"address"}],"anonymous":false},{"type":"error","name":"BazaarCannotBeZeroAddress","inputs":[]},{"type":"error","name":"CurrencyAddressCannotBeZero","inputs":[]},{"type":"error","name":"RareMinterCannotBeZeroAddress","inputs":[]},{"type":"error","name":"RecipientCannotBeZero","inputs":[]},{"type":"error","name":"UnexpectedMintedTokenCount","inputs":[{"name":"expectedCount","type":"uint256","internalType":"uint256"},{"name":"actualCount","type":"uint256","internalType":"uint256"}]}],"bytecode":{"object":"0x60c03461011c57601f6110a538819003918201601f19168301916001600160401b0383118484101761012157808492604094855283398101031261011c57610052602061004b83610137565b9201610137565b60008054336001600160a01b0319821681178355604051946001600160a01b03949385939192918416907f8be0079c531659141344cd1fd0a4f28419497f9722a3daafe3b4186f6b6457e09080a31692831561010d5750169081156100fb5760805260a052604051610f59908161014c82396080518181816102570152818161068d015281816106f10152610786015260a05181818161015b0152818161034001526106b50152f35b6040516312d34fdf60e11b8152600490fd5b638095c86360e01b8152600490fd5b600080fd5b634e487b7160e01b600052604160045260246000fd5b51906001600160a01b038216820361011c5756fe6080604052600436101561001257600080fd5b6000803560e01c8063150b7a021461096457806333563d1b146107205780633f70d192146106db57806346b43bce1461064c578063715018a6146105f25780638da5cb5b146105cb578063937aa93a1461018a578063d5995d3a146101455763f2fde38b1461008057600080fd5b3461014257602036600319011261014257610099610a46565b6100a1610a72565b6001600160a01b039081169081156100ee576000548260018060a01b0319821617600055167f8be0079c531659141344cd1fd0a4f28419497f9722a3daafe3b4186f6b6457e0600080a380f35b60405162461bcd60e51b815260206004820152602660248201527f4f776e61626c653a206e6577206f776e657220697320746865207a65726f206160448201526564647265737360d01b6064820152608490fd5b80fd5b50346101425780600319360112610142576040517f00000000000000000000000000000000000000000000000000000000000000006001600160a01b03168152602090f35b50346101425760c0366003190112610142576101a4610a46565b6101ac610a5c565b906064359060ff821682036105c3576001600160401b0380608435116105c7573660236084350112156105c75760843560040135116105c3573660246084356004013560051b6084350101116105c35760a435906001600160a01b03821680830361055b576001600160a01b038516156105b157156105a05760ff831660443502604435810460ff85161460443515171561048357604051635d285b1960e11b8152906020826004817f00000000000000000000000000000000000000000000000000000000000000006001600160a01b03165afa918215610568576024926020918991610573575b506040516361fe24a960e11b81526004810184905293849182906001600160a01b03165afa91821561056857879261052d575b506102d86102f492602092610e5a565b604051809381926323b872dd60e01b8352303360048501610e7d565b0381896001600160a01b038a165af18015610522576104f3575b50610317610e9f565b600180546001600160a01b039283166001600160a01b03199182168117835591959192909187917f000000000000000000000000000000000000000000000000000000000000000016803b156104ba57604051633591fb4f60e21b815260048082018790526001600160a01b039093166024820152604480359082015260ff8816606482015260a0608480830191909152359092013560a483018190526001600160fb1b03106104ba578183916084356004013560051b60246084350160c4840137818360c4826084356004013560051b81010301925af180156104af576104df575b505084541684556002549260ff811684036104be5750845b8381106104255785610422610e9f565b80f35b8561042f82610ef2565b905490843b156104ba5761046091839160405193849283926323b872dd60e01b845260031b1c893060048501610e7d565b038183885af180156104af57610497575b50506000198114610483578401610412565b634e487b7160e01b86526011600452602486fd5b6104a090610aca565b6104ab578538610471565b8580fd5b6040513d84823e3d90fd5b8280fd5b6044908460ff60405192633db7ed3b60e11b84521660048301526024820152fd5b6104e890610aca565b6104ab5785386103fa565b6105149060203d60201161051b575b61050c8183610b0e565b810190610c19565b503861030e565b503d610502565b6040513d88823e3d90fd5b91506020823d602011610560575b8161054860209383610b0e565b8101031261055b579051906102d86102c8565b600080fd5b3d915061053b565b6040513d89823e3d90fd5b6105939150823d8411610599575b61058b8183610b0e565b810190610e3b565b38610295565b503d610581565b60405162e18e7f60e71b8152600490fd5b6040516346a53b9f60e01b8152600490fd5b8380fd5b8480fd5b5034610142578060031936011261014257546040516001600160a01b039091168152602090f35b503461014257806003193601126101425761060b610a72565b600080546001600160a01b0319811682556001600160a01b03167f8be0079c531659141344cd1fd0a4f28419497f9722a3daafe3b4186f6b6457e08280a380f35b503461014257604036600319011261014257610666610a46565b602435610671610a72565b6001600160a01b0391821680156105b157826106b383610422957f00000000000000000000000000000000000000000000000000000000000000001684610b2f565b7f00000000000000000000000000000000000000000000000000000000000000001690610b2f565b50346101425780600319360112610142576040517f00000000000000000000000000000000000000000000000000000000000000006001600160a01b03168152602090f35b50346101425760a03660031901126101425761073a610a46565b6001600160a01b03604435818116939290602435908590036105c35760643594608435938085168086036109605782156105b157156105a057604051635d285b1960e11b8152602094907f00000000000000000000000000000000000000000000000000000000000000008316908681600481855afa90811561093857849188918b91610943575b5060248c60405194859384926361fe24a960e11b84526004840152165afa8015610938578990610905575b6107f891508a610e5a565b956040518181806108196323b872dd60e01b9b8c8352303360048501610e7d565b03818d8a5af180156108fa576108dc575b5050803b156108d857879291836084926040519b8c95869463059ffdbb60e51b86521697886004860152896024860152604485015260648401525af180156108cd576108b9575b849550803b156105c757610898938580946040519687958694859384523060048501610e7d565b03925af180156104af576108a95750f35b6108b290610aca565b6101425780f35b9390946108c590610aca565b928490610871565b6040513d87823e3d90fd5b8780fd5b816108f292903d1061051b5761050c8183610b0e565b50388061082a565b6040513d8c823e3d90fd5b508681813d8311610931575b61091b8183610b0e565b8101031261092d576107f890516107ed565b8880fd5b503d610911565b6040513d8b823e3d90fd5b61095a9150823d84116105995761058b8183610b0e565b386107c2565b8680fd5b50346101425760803660031901126101425761097e610a46565b50610987610a5c565b506064356001600160401b038082116104ba57366023830112156104ba5781600401359081116104ba5736910160240111610142576001546001600160a01b03168015159081610a3c575b506109ea575b604051630a85bd0160e11b8152602090f35b60025490600160401b821015610a285750806001610a0b9201600255610ef2565b81549060031b90604435821b91600019901b1916179055386109d8565b634e487b7160e01b81526041600452602490fd5b90503314386109d2565b600435906001600160a01b038216820361055b57565b602435906001600160a01b038216820361055b57565b6000546001600160a01b03163303610a8657565b606460405162461bcd60e51b815260206004820152602060248201527f4f776e61626c653a2063616c6c6572206973206e6f7420746865206f776e65726044820152fd5b6001600160401b038111610add57604052565b634e487b7160e01b600052604160045260246000fd5b608081019081106001600160401b03821117610add57604052565b90601f801991011681019081106001600160401b03821117610add57604052565b60405163095ea7b360e01b602082018181526001600160a01b0394851660248401819052604480850197909752958352909491936000908190610b7187610af3565b85169286519082855af190610b84610d28565b82610be7575b5081610bdc575b5015610b9e575b50505050565b610bd393610bce9160405191602083015260248201526000604482015260448152610bc881610af3565b82610c31565b610c31565b38808080610b98565b90503b151538610b91565b80519192508115918215610bff575b50509038610b8a565b610c129250602080918301019101610c19565b3880610bf6565b9081602091031261055b5751801515810361055b5790565b60408051908101916001600160a01b03166001600160401b03831182841017610add57610ca0926040526000806020958685527f5361666545524332303a206c6f772d6c6576656c2063616c6c206661696c656487860152868151910182855af1610c9a610d28565b91610d67565b805190828215928315610d10575b50505015610cb95750565b6084906040519062461bcd60e51b82526004820152602a60248201527f5361666545524332303a204552433230206f7065726174696f6e20646964206e6044820152691bdd081cdd58d8d9595960b21b6064820152fd5b610d209350820181019101610c19565b388281610cae565b3d15610d62573d906001600160401b038211610add5760405191610d56601f8201601f191660200184610b0e565b82523d6000602084013e565b606090565b91929015610dc95750815115610d7b575090565b3b15610d845790565b60405162461bcd60e51b815260206004820152601d60248201527f416464726573733a2063616c6c20746f206e6f6e2d636f6e74726163740000006044820152606490fd5b825190915015610ddc5750805190602001fd5b6040519062461bcd60e51b82528160208060048301528251908160248401526000935b828510610e22575050604492506000838284010152601f80199101168101030190fd5b8481018201518686016044015293810193859350610dff565b9081602091031261055b57516001600160a01b038116810361055b5790565b91908201809211610e6757565b634e487b7160e01b600052601160045260246000fd5b6001600160a01b03918216815291166020820152604081019190915260600190565b60025460008060025581610eb1575050565b600281527f405787fa12a823e0f2b7631cc41b3ba8828b3321ca811111fa75cd3aa3bb5ace918201915b828110610ee757505050565b818155600101610edb565b600254811015610f0d57600260005260206000200190600090565b634e487b7160e01b600052603260045260246000fdfea264697066735822122039adad8f171ceb62daf022f4b68d37b99a1c3157bc1185cc2fe397126749c17364736f6c63430008120033","linkReferences":{}},"methodIdentifiers":{"approveCurrency(address,uint256)":"46b43bce","bazaar()":"3f70d192","buy(address,uint256,address,uint256,address)":"33563d1b","mint(address,address,uint256,uint8,bytes32[],address)":"937aa93a","onERC721Received(address,address,uint256,bytes)":"150b7a02","owner()":"8da5cb5b","rareMinter()":"d5995d3a","renounceOwnership()":"715018a6","transferOwnership(address)":"f2fde38b"},"id":149}